:100000000C946E000C948D000C948D000C948D005B
:100010000C948D000C948D000C948D000C948D002C
:100020000C948D000C948D000C948D000C948D001C
:100030000C94CF0B0C948D000C948D000C94B80B89
:100040000C940E040C948D000C948D000C948D0077
:100050000C945C040C948D000C9450040C948D0052
:100060000C948D000C948D000C948D000C948D00DC
:100070000C949A040C948D000C948E040C948D00B6
:100080000C9403410C948D000C948D002573257302
:100090000A004F6E6C696E650A000A002C206368C6
:1000A00065636B207261746520257520487A002590
:1000B000732025732C206368616E6E656C20257536
:1000C000000A2A2A2A2A2A2A2A426F6F74696E672E
:1000D0002025732A2A2A2A2A2A2A0A0011241FBE26
:1000E000CFEFD0E4DEBFCDBF12E0A0E0B1E0E0E8AA
:1000F000F1E900E00BBF02C007900D92AE32B107EC
:10010000D9F71BE3AEE2B2E001C01D92A43CB107F7
:10011000E1F70E9469030C94BE480C940000CF9351
:10012000DF93EC01888199818431910571F08731E9
:10013000910569F0892B89F48EE292E067E771E01E
:100140000E941A0284E190E004C0683821F487E13B
:1001500090E09983888381E003C01982188283E04C
:10016000DF91CF91089520E030E0FC0186819781F6
:10017000892B11F421E030E0C9010895FC012281AE
:10018000338180819181280F391FC9010895FC01B5
:100190008081918108952091360230913702211596
:1001A000310511F021E030E0C90108958091360257
:1001B00090913702892B19F420E030E004C020919F
:1001C000380230913902C901089580913602909128
:1001D0003702892B29F410923902109238020895BF
:1001E0000E94C003BC01E0913602F09137024281C7
:1001F000538180819181480F591F461B570B0CC0BA
:100200002281338180819181280F391F261B370B72
:100210002417350708F4A9010480F581E02D3097F3
:1002200079F7460F571F50933902409338020895CB
:10023000CF93DF93EC01E0913602F09137028E17F5
:100240009F0741F48C819D81909337028093360201
:1002500014C0FC01309731F0848195818C179D0783
:10026000C1F707C01D821C821F821E82DF91CF91C1
:1002700008958C819D81958384830E94E500F2CF4F
:10028000FC0180819181860F971F918380830E945A
:10029000E50008958CE191E00E948C0F0895EF92A3
:1002A000FF920F931F93CF93DF937C01FC0180811A
:1002B0009181009729F08A35910509F06DC00BC036
:1002C00010923702109236028AE590E0F70191838E
:1002D000808381E065C0673849F59A01E091360274
:1002E000F091370203C00480F581E02D309741F38F
:1002F0008681978182179307B1F3E0933602F093DA
:1003000037020FC016968D919C911797821793070D
:1003100011F0FD0106C014968D919C91159795835F
:100320008483A481B581109769F7CECF623861F6D6
:10033000C0913602D091370200E010E02AC0CE0111
:100340000E945710892B01F18E819F8168E8AE01D0
:100350000E942C0F892BA1F41F821E828C819D810B
:100360000115110521F0F8019583848304C0909351
:100370003702809336021D821C820E94E500D8CF8E
:100380008CE191E00E948C0F8E018C819D819C01FB
:10039000E9012097A1F698CFF7011182108283E03E
:1003A000DF91CF911F910F91FF90EF900895CF9320
:1003B000DF93EC018CE191E00E948C0F8E819F8194
:1003C000892B69F0E0913602F091370206C0EC17F4
:1003D000FD07A9F00480F581E02D3097C1F78091E9
:1003E0000C0390910D039F838E8380913602909130
:1003F00037029D838C83D0933702C09336020E94CC
:10040000E500DF91CF9108950F931F938C010E9417
:100410006F10C8010E94D7011F910F9108950F938B
:100420001F938C010E943810C8010E94D7011F91B0
:100430000F9108950F931F938C010E947A10C801A9
:100440000E94D7011F910F9108959C01F999FECF49
:1004500032BD21BDF89A80B5089500D000D000D0FB
:10046000EDB7FEB731962CE830E0ADB7BEB71296C7
:100470003C932E93119793838283758364830E94A8
:1004800047458DB79EB706960FB6F8949EBF0FBE30
:100490008DBF0895EF92FF920F931F93DF93CF9339
:1004A000CDB7DEB728970FB6F894DEBF0FBECDBF2D
:1004B0000E94D0050E94E0050E94C30F81E068E021
:1004C00046E00E94CC0481E00E94AC050E94B0038B
:1004D00000D000D081EC90E0ADB7BEB712969C93EF
:1004E0008E93119786E291E014969C938E931397C6
:1004F0000E9447450F900F900F900F900E94281375
:100500000E94730E8CE191E060E070E00E945F0F4A
:100510000E94E112E0917101F091720109958E0142
:100520000F5F1F4F88E0F80111928A95E9F7C80123
:1005300060E070E048E050E025E232E00E942B45A8
:10054000A0E8BCE2F80188E001900D928150E1F74B
:100550008DEC9BEA60E070E0AE014F5F5F4F0E9460
:10056000020AF999FECF88E090E092BD81BDF89A29
:1005700080B580933B2BF999FECF89E090E092BD46
:1005800081BDF89A80B520913B2B30E090E08095BA
:1005900090952817390711F08AE102C080913B2B12
:1005A0000E941B08CE0101960E947C0C0E94EE1551
:1005B000E091B001F091B1010995E0919701F091BE
:1005C00098010995E0912102F0912202099500918C
:1005D000950110919601E090AE01F090AF010E945C
:1005E0008C062DB73EB7285030400FB6F8943EBF6A
:1005F0000FBE2DBFEDB7FEB731962FEA30E0ADB795
:10060000BEB712963C932E93119713830283F58203
:10061000E482868317820E944745E091BA01F091F7
:10062000BB012DB73EB7285F3F4F0FB6F8943EBFD2
:100630000FBE2DBF3097F1F00995BC018DE790E01A
:100640000E9436488FEF6F3F7807A1F000D000D0AE
:100650008CE990E0ADB7BEB712969C938E9311973C
:1006600014967C936E9313970E9447450F900F90BA
:100670000F900F9000D08AE990E0EDB7FEB792831B
:1006800081830E9447450F900F9084EF91E060E0D6
:1006900070E00E945F0F8CE091E00E94AF0F00D0ED
:1006A00082E990E0ADB7BEB712969C938E931197F6
:1006B0000E9447450F900F9028960FB6F894DEBF22
:1006C0000FBECDBFCF91DF911F910F91FF90EF90A3
:1006D00008950E944A020E94830E0E94F505FBCFF6
:1006E0002091402B3091412B4091422B5091432B34
:1006F00090E0A0E0B0E0280F391F4A1F5B1F209355
:10070000402B3093412B4093422B5093432B20910D
:100710003C2B30913D2B40913E2B50913F2B280F8D
:10072000391F4A1F5B1F20933C2B30933D2B409376
:100730003E2B50933F2B08958091402B9091412B5D
:10074000A091422BB091432B0196A11DB11D809326
:10075000402B9093412BA093422BB093432B0895B1
:10076000F8941092B60016BC8DE387BD92E094BD5C
:1007700085E085BD85B385BB90936E007894089520
:1007800020913A0230913B0280913A0290913B02D3
:1007900028173907A9F7C901089507C022E330E0F7
:1007A000000021503040E1F701970097B9F7089514
:1007B000BC0140913A0250913B0280913A029091E3
:1007C0003B0248175907A9F720913A0230913B02A2
:1007D00080913A0290913B0228173907A9F7241B10
:1007E000350B2617370780F3089508952091402B85
:1007F0003091412B4091422B5091432B8091402BC3
:100800009091412BA091422BB091432B281739078F
:100810004A075B0759F7B901CA0108951F920F9261
:100820000FB60F920BB60F9211242F933F934F9355
:100830005F936F937F938F939F93AF93BF93EF9348
:10084000FF9380913A0290913B02019690933B0274
:1008500080933A0280913C028F5F80933C028091AA
:100860003C028D3721F410923C020E949C030E94AE
:10087000CB00892B11F00E944A01FF91EF91BF91AB
:10088000AF919F918F917F916F915F914F913F9128
:100890002F910F900BBE0F900FBE0F901F901895C9
:1008A0001F920F920FB60F92112410924A010F90CF
:1008B0000FBE0F901F9018951F920F920FB60F92B8
:1008C0000BB60F9211242F933F934F935F936F9327
:1008D0007F938F939F93AF93BF93EF93FF93E09199
:1008E0004001F09141018081E0914B01F0914C0178
:1008F000309709F00995FF91EF91BF91AF919F91CA
:100900008F917F916F915F914F913F912F910F90B8
:100910000BBE0F900FBE0F901F9018951F920F9255
:100920000FB60F921124109257010F900FBE0F9027
:100930001F9018951F920F920FB60F920BB60F9241
:1009400011242F933F934F935F936F937F938F93D4
:100950009F93AF93BF93EF93FF93E0914D01F0917D
:100960004E018081E0915801F0915901309709F0D2
:100970000995FF91EF91BF91AF919F918F917F91D9
:100980006F915F914F913F912F910F900BBE0F9000
:100990000FBE0F901F90189590E02DE030E0829FE1
:1009A000F001839FF00D929FF00D1124E05CFE4F4B
:1009B000A281B3811C92A481B5816C93A681B78179
:1009C00088ED8C93A085B1854C931286148613868E
:1009D0000895CF93DF93AB0190E02DE030E0829F4C
:1009E000D001839FB00D929FB00D1124A05CBE4F2B
:1009F000ED012A9691E00AC09883ED91FC91119740
:100A0000808388818823E9F74F5F5F4FFA018491E3
:100A1000882391F7DF91CF910895CF93DF93262F0D
:100A2000372FA90190E02DE030E0829FD001839F15
:100A3000B00D929FB00D1124A05CBE4FED012A961F
:100A400091E02DE018C08A3041F49883ED91FC913B
:100A50001197208388818823E9F7FA0180818D30FE
:100A600041F09883ED91FC911197808388818823D0
:100A7000E9F74F5F5F4FFA018081882321F7DF910B
:100A8000CF91089590E02DE030E0829FF001839FA8
:100A9000F00D929FF00D1124E05CFE4F81E0828703
:100AA000A081B1816C933A9680818823E9F70895FB
:100AB00090E02DE030E0829FF001839FF00D929F47
:100AC000F00D1124E05CFE4F74876387089591E078
:100AD00090934A01E0914001F0914101808380911F
:100AE0004A018823E1F70895482F8A30C9F480919C
:100AF0003D0290E02DE030E0829FF001839FF00DF9
:100B0000929FF00D1124E05CFE4F81E08287A0816E
:100B1000B1818DE08C933A9680818823E9F702C0F9
:100B20008D30B9F080913D0290E02DE030E0829F61
:100B3000F001839FF00D929FF00D1124E05CFE4FB9
:100B400081E08287A081B1814C933A96808188238D
:100B5000E9F780E090E0089580933D0282E391E020
:100B60009093C13B8093C03B08950F931F93DF93F5
:100B7000CF93CDB7DEB7FE013A960EE312E0C8017F
:100B800060E470E0488559859F010E946D458F8122
:100B9000B8010E940D05CF91DF911F910F9108952B
:100BA00084B7877F84BF10927F0210927E0288E113
:100BB0000FB6F89480936000109260000FBE089505
:100BC00080917E0290917F02019790937F028093A3
:100BD0007E022FE088E190E00FB6F894A89580930C
:100BE00060000FBE209360000895A895089588E1E5
:100BF0000FB6F89480936000109260000FBE0895C5
:100C0000F89428E088E190E00FB6F894A8958093D6
:100C100060000FBE20936000FFCF80938002089594
:100C2000DF93CF9300D00F92CDB7DEB7309166003F
:100C30001092700010926F008091B60080628093D5
:100C4000B60081E08093B1008FE890E00197F1F762
:100C50008FB78983F89420E861E050E84FEF609304
:100C600081008091B6008B71E1F75093B200109231
:100C700085001092840047BBB89BFECF8091840012
:100C8000909185009B838A83109281008A819B8149
:100C9000875F934760F4809166008E3719F18091E9
:100CA00066008F3FF9F0809166008F5F12C08A81E5
:100CB0009B818D52904810F491E00EC080916600A7
:100CC000813881F080916600882361F08091660010
:100CD00081508093660090E0215029F0992309F417
:100CE000BECF01C090E0809166008093D52B992300
:100CF00011F430936600309366001092B100809139
:100D0000B6008F7D8093B60089818FBF0F900F90C2
:100D10000F90CF91DF910895809182020895809184
:100D200081028091810290E0089581E06FE140E0CE
:100D30000E940E0B813021F020E030E0813111F46F
:100D400021E030E0C901089581E06FE140E00E94B8
:100D50000E0B823021F0823111F081E0089580E0A5
:100D6000089581E06FE140E00E940E0B982F8151C1
:100D70008230B8F39F31A9F3913099F3923089F31F
:100D800008951B9B02C080E1089585E06FE040E07C
:100D90000E940E0B08950F931F93182F883059F05F
:100DA000863049F0893039F0863129F0893119F0DF
:100DB00022E430E050C01B9B03C024E430E04BC071
:100DC0000E94B10681E06FE140E00E940E0B082F07
:100DD000181709F43EC0183061F42B988DE090E0AC
:100DE0000197F1F782E06FE140E023E00E94210BE0
:100DF00022C0193139F4863199F482E06FE140E084
:100E000029E008C0163161F4893151F482E06FE1C4
:100E100040E026E00E94210B83E090E00197F1F78B
:100E200082E06FE140E0212F0E94210B083019F48D
:100E300089E691E002C083E090E00197F1F781E05C
:100E40006FE140E00E940E0B811719F023E430E0BF
:100E500002C020E430E0C9011F910F9108958091F4
:100E6000D32B882339F02B988FEA92E00197F1F782
:100E70001092D32B0E94B10686E10E94CB0681E03E
:100E80008093D42B08958091D42B882351F48091A2
:100E90008302882321F081E08093840202C00E94B3
:100EA0002F0781E090E008951092D42B0E94B106A4
:100EB0002B988DE090E00197F1F782E06FE140E040
:100EC00023E00E94210B83E090E00197F1F72B9A39
:100ED00081E08093D32B089580918402882321F0B0
:100EE0000E942F071092840280918502882321F0AE
:100EF0000E94540710928502109283020895CF93A6
:100F0000DF93FC01AB0181E08093830280911E2C72
:100F100090911F2CA091202CB091212C0196A11D05
:100F2000B11D80931E2C90931F2CA093202CB09366
:100F3000212C862F8E5F87FF03C0CFEFDFEF08C025
:100F400026E832E0C901BF010E940945C0E0D0E0B7
:100F50000E946C07CE01DF91CF9108958091D42B30
:100F60008823A9F0809183028823A1F481E06FE1B6
:100F700040E00E940E0B982F8151823058F09F3133
:100F800049F0913039F0923029F00E94540781E005
:100F900090E0089581E080938502F9CF80918302EB
:100FA000882341F48091D42B882321F40E944307A5
:100FB0000E94AE0781E090E008950F931F93809107
:100FC000D42B882311F000E003C00E94430701E006
:100FD00081E06FE140E00E940E0B863111F081311B
:100FE00029F487E00E94D80A182F09C086E06FE133
:100FF00040E00E940E0B93E0899F102D11240023E6
:1010000011F00E94AE07812F1F910F910895282F94
:101010001B9908C0803108F02FE085E06FE040E0C8
:101020000E94210B089591E0909383020E9407088B
:101030000E946C0708951F93182F0E94B106109309
:10104000820288E06FE140E0212F0E94210B1F9176
:1010500008950E941B0886E00E94CB060895FF9227
:101060000F931F93CF93DF93182F01E00093830218
:10107000F090D42B8091D32B882321F02B981092C1
:10108000D32B18C08091482B8823A1F08AE160E817
:1010900047E021E00E94210B8BE160E847E021E07E
:1010A0000E94210B1092482B0093492B81EA90E07B
:1010B0000197F1F70E94B10689E10E94CB0686E014
:1010C0000E94CD13892B19F4C0E0D0E009C00E9422
:1010D000C106C82F86E00E94CD1381500E940708E8
:1010E0002B9A2B981E5F86E892E0612F0E948C0B52
:1010F0000E94B10682E060EE45E00E940E0B182FC0
:1011000086E00E94CD13892B19F08C2F0E940708CE
:10111000FF2011F00E942F078091D42B882331F4F7
:1011200082E06FE140E023E00E94210B0E946C0707
:10113000113011F410E015C0133099F48091162C81
:101140009091172CA091182CB091192C0196A11DEB
:10115000B11D8093162C9093172CA093182CB0934C
:10116000192C812F90E0DF91CF911F910F91FF906B
:101170000895CF93DF93EB010E947F079C010097B6
:1011800021F4CE010E942F089C01C901DF91CF916B
:10119000089587E691E00E948C0F81E080938102A0
:1011A00081E090E00895CF93DF93582FA92F2091ED
:1011B0004F2B822F90E0FC01F695FE2FEE27F7953E
:1011C000E795880F991FE80FF91FE05BF44D408108
:1011D000442321F147FF25C0822F90E0FC01F695C2
:1011E000FE2FEE27F795E795880F991FE80FF91F57
:1011F000E05BF44D108280910E2C90910F2CA09109
:10120000102CB091112C0196A11DB11D80930E2CB4
:1012100090930F2CA093102CB093112CC0E0D0E031
:10122000BEC0433018F5822F90E0FC01F695FE2FEA
:10123000EE27F795E795880F991FE80FF91FE05BF8
:10124000F44D108280910A2C90910B2CA0910C2CC3
:10125000B0910D2C0196A11DB11D80930A2C909385
:101260000B2CA0930C2CB0930D2CD8CFC42FD0E016
:1012700022976C177D0718F5822F90E0FC01F695F8
:10128000FE2FEE27F795E795880F991FE80FF91FB6
:10129000E05BF44D10828091062C9091072CA09178
:1012A000082CB091092C0196A11DB11D8093062C2C
:1012B0009093072CA093082CB093092CAFCF822FCA
:1012C00090E09C013695322F222737952795880F7D
:1012D000991F280F391F2F5A344D852F9A2FB90186
:1012E00050E00E94094520914F2B822F90E0FC0195
:1012F000F695FE2FEE27F795E795880F991FE80FD3
:10130000F91FE053F44D80818093442B822F90E0AD
:10131000FC01F695FE2FEE27F795E795880F991FAC
:10132000E80FF91FE05BF44D108210924F2B80E024
:1013300090E0FC01F695FE2FEE27F795E795880FD4
:10134000991FE80FF91FE05BF44D8081882311F0AD
:101350000E94C90887E00E94D80A682F8093452B15
:10136000772767FD709584E00E94C2136091442B3B
:1013700083E070E00E94C2138091222C9091232C74
:10138000A091242CB091252C0196A11DB11D809314
:10139000222C9093232CA093242CB093252CCE01A7
:1013A000DF91CF910895CF93DF93EC0188819981EC
:1013B000009721F081599440F9F405C081E994E047
:1013C0009983888302C0623811F081E018C01092BE
:1013D00081020E940F140E947E1360E870E00E9458
:1013E000D3081816190654F70E947913E091B40136
:1013F000F091B5010995E2CF1982188283E0DF915F
:10140000CF910895AF92BF92CF92DF92EF92FF9269
:101410000F931F93CF93DF93282F192F062FF72EAB
:10142000EA0182E2622F0E94F30A83E2612F0E94A6
:10143000F30A80E2602F0E94F30A81E26F2D0E947E
:10144000F30A2097D1F18E010F5F1F4F8BE2688165
:101450000E94F30A68010894C11CD11C8AE26981C8
:101460000E94F30A56010894A11CB11C89E2F801FC
:1014700061810E94F30A75010894E11CF11C88E265
:10148000F60161810E94F30A87010F5F1F4F87E217
:10149000F50161810E94F30A86E2F70161810E94F1
:1014A000F30A85E2F80161810E94F30A84E20F5F8A
:1014B0001F4FF80161810E94F30ADF91CF911F91C4
:1014C0000F91FF90EF90DF90CF90BF90AF90089575
:1014D0000F931F930DEF13E0C8010197F1F70E94DE
:1014E000BB0A1092502B10924F2B10924E2B299822
:1014F0002B988DE090E00197F1F7299A82E06FE157
:1015000040E023E00E94210BC8010197F1F78DE133
:101510000E94D80A8EE10E94D80A8EE06FE00E94F5
:10152000F30A8CE260EF44E022E00E94210B8CE29F
:101530006EE041E025E00E94210B8FE260E80E940E
:10154000F30A86E00E94D80A682F8DE20E94F30A0F
:1015500085E060E847E021E00E94210B87E691E00A
:1015600060E070E00E945F0F0E942F0781E090E032
:101570001F910F9108951092080310920703239A68
:10158000219A84B1806B84B985B1806985B980E581
:101590008CBD81E08DBD83E480938100B59AEFE638
:1015A000F0E0808181608083808180628083089503
:1015B000DF93CF930F92CDB7DEB780689FB7998343
:1015C000F8942C988EBD0DB407FEFDCF8EB51EBCD1
:1015D0000DB407FEFDCF8EB52C9A99819FBF0F9059
:1015E000CF91DF910895DF93CF930F92CDB7DEB700
:1015F000806C9FB79983F8942C988EBD0DB407FE2C
:10160000FDCF8EB56EBD0DB407FEFDCF8EB52C9A05
:1016100089818FBF0F90CF91DF910895FF920F9333
:101620001F93062FF42E0E94D80A082310E002C050
:1016300015950795FA94E2F7802F1F910F91FF906F
:101640000895EF92FF920F931F93DF93CF9300D0F3
:10165000CDB7DEB7182F062FE42EF22E0E94D80A3F
:1016600089839981802F8095892389832981106CB2
:101670008FB78A83F8942C981EBD0DB407FEFDCF5A
:101680008EB58F2D90E002C0880F991FEA94E2F783
:101690000823202B2EBD0DB407FEFDCF8EB52C9A4E
:1016A0008A818FBF0F900F90CF91DF911F910F9183
:1016B000FF90EF900895DF93CF930F92CDB7DEB7F1
:1016C000FC018FB78983F8942C9880E28EBD0DB40D
:1016D00007FEFDCF8EB51EBC0DB407FEFDCF9EB537
:1016E00090831EBC0DB407FEFDCFDF0111968EB5B1
:1016F0008D931EBC0DB407FEFDCF9150C1F78EB582
:10170000E058FF4F819381E080832C9A89818FBFBD
:101710000F90CF91DF910895DF93CF930F92CDB7C4
:10172000DEB79C018FB78983F8942C9880E68EBD34
:101730000DB407FEFDCF8EB56EBD0DB407FEFDCF17
:101740008EB5F901635070E06F5F7F4F620F731FBA
:1017500081918EBD0DB407FEFDCF8EB5E617F7075C
:10176000B9F72C9A89818FBF0F90CF91DF9108959F
:101770001F920F920FB60F9211248F939F93809117
:101780000703909108030196909308038093070341
:101790009F918F910F900FBE0F901F9018951F92E1
:1017A0000F920FB60F920BB60F9211242F933F9307
:1017B0004F935F936F937F938F939F93AF93BF9359
:1017C000EF93FF93DF93CF9300D0CDB7DEB78FB702
:1017D0008A83F8942C988FE88EBD0DB407FEFDCF58
:1017E0001EBC0DB407FEFDCF9EB52C9A8A818FBF1B
:1017F00092FD41C093FF20C081E00E94D80A8F7102
:1018000089838981813149F08981863031F08981EC
:10181000813019F08981863171F580914E2B22E853
:10182000829FC0011124805B944D0E945B0B10923B
:101830004E2B0E94C9081FC096FD1DC091FD1BC004
:1018400090FD19C097FF17C08EE00E94D80A982F0C
:101850008FB78A83F8942C988EEC8EBD0DB407FE5A
:10186000FDCF8EB59F779EBD0DB407FEFDCF8EB523
:101870002C9A8A818FBF0F900F90CF91DF91FF91AB
:10188000EF91BF91AF919F918F917F916F915F91F8
:101890004F913F912F910F900BBE0F900FBE0F9065
:1018A0001F901895AC0120E030E0FA01E20FF31F21
:1018B000DB01A20FB31F8C9180832F5F3F4F283035
:1018C000310599F70895AC0120E030E0FA01E20F0C
:1018D000F31FDB01A20FB31F90818C91981719F0B1
:1018E00020E030E007C02F5F3F4F2830310571F70F
:1018F00021E030E0C9010895AC0120E030E0F901B9
:10190000EA52F44DDA01A20FB31F8C9180832F5F4E
:101910003F4F2830310599F70895E091B201F091D9
:10192000B30109950895E0912302F09124020995ED
:101930000895E091B601F091B70109950895E091FD
:10194000B801F091B9010995089580E090E00895FB
:101950000895E0918101F091820109950895892B04
:1019600031F0E0918101F091820109950895E091B3
:101970008301F09184010995089580E090E0089535
:101980000F931F93DF93CF93CDB7DEB7E0970FB6DA
:10199000F894DEBF0FBECDBF0E94AC138C010E9435
:1019A0007E13602FAE014F5F5F4F0E94304188234E
:1019B00009F443C088A99801281B3109C9010E9474
:1019C0005A13892BD1F12E81222361F18A859B85BF
:1019D0003BEA8D3C930719F08F5F9F4F71F52230E2
:1019E00071F028E030E0BE01645F7F4F215030404D
:1019F000FB01E20FF31F80818F3F21F007C022E03F
:101A000030E0F1CF121613068CF30CC089E10E946E
:101A1000E11389E10E94D61366ED7BE20E94630C1C
:101A2000892B59F088E1BE016A5E7F4F0E94E11365
:101A3000E0919B01F0919C010995E0960FB6F89416
:101A4000DEBF0FBECDBFCF91DF911F910F910895E3
:101A5000AF92BF92CF92DF92EF92FF920F931F93BC
:101A6000DF93CF93CDB7DEB7E0970FB6F894DEBF24
:101A70000FBECDBF6C015B01FE01319680E3DF013B
:101A80001D928A95E9F781E089831A821B828CE096
:101A90000E94CD138C831D821F8280910903898748
:101AA0008F5F8093090303E008878DEC9BEA9B8797
:101AB0008A8789E10E94D61365E871E00E94630C71
:101AC000892B31F082E08E838FEF8C878D8709C060
:101AD00089E10E94D613BC01CE010C960E94520CE3
:101AE0000E838DEC9BEA9D8B8C8BCE01469666ED2A
:101AF0007BE20E94520C0E947E139FA78EA70E9439
:101B0000AC1388AB7E010894E11CF11CC7010E9454
:101B10004643082F90E00E943513892B39F10E942B
:101B20008B13BC01C701402F0E947042E0907701E7
:101B3000F09078010E948B138C010E94B613BC01B7
:101B4000C801F7010995C114D10481F0009719F07B
:101B5000019761F404C0C50160E070E003C0C501F5
:101B600064E070E041E050E0F6010995E0960FB6C0
:101B7000F894DEBF0FBECDBFCF91DF911F910F91C3
:101B8000FF90EF90DF90CF90BF90AF9008950E94AC
:101B90002B1380930903E0918101F0918201099553
:101BA0000895809116038F5F8093160381500895E6
:101BB0001F93CF93DF93EC01162F888580FF1CC005
:101BC000EC81FD813097C1F0D0930D03C0930C03DD
:101BD00082E08887CE0106960995992787FD909522
:101BE0000297029710F0133829F4CE01BE010E942B
:101BF000000E02C081E08887DF91CF911F91089588
:101C0000CF92DF92EF92FF920F931F93CF93DF93C8
:101C1000EC017B01C0900C03D0900D0300910A03EE
:101C200010910B03F80103C00190F081E02DEC1737
:101C3000FD0719F03097C1F746C0209709F443C05B
:101C40008885882309F118860BC0C017D10729F0B1
:101C5000C80167E8AE010E94D80DF801008111812A
:101C60000115110591F7EC81FD81309769F0CE15D2
:101C7000DF0551F0D0930D03C0930C03CE010696FF
:101C800063E840E050E00995E0910A03F0910B030E
:101C9000CE17DF0791F48881998190930B0380938D
:101CA0000A030DC0808191818C179D0729F48881DA
:101CB00099819183808303C0FC01309799F7D0927A
:101CC0000D03C0920C03DF91CF911F910F91FF90F4
:101CD000EF90DF90CF90089560910C0370910D0309
:101CE0000E94000E08958AE880931603109218034C
:101CF0001092170310920B0310920A0310920D0317
:101D000010920C0308951F93CF93DF938091B90332
:101D10008823C1F01092B903C0910A03D0910B033C
:101D200011E00EC08985882341F018871986CE01FD
:101D300062E840E050E00E94D80D0990D881C02DA3
:101D4000209781F720911703222309F470C0809116
:101D5000180390E0FC01EE0FFF1FEE0FFF1FE80FCE
:101D6000F91FE75EFC4F608160931503418152814A
:101D700050931403409313030380F481E02DF093F8
:101D80001203E093110301968F71907080931803F2
:101D9000215020931703309709F042C080910A0325
:101DA00090910B039093100380930F0311E031C0C7
:101DB0008091B9038823B9F01092B903C0910A0346
:101DC000D0910B030EC08985882341F018871986AE
:101DD000CE0162E840E050E00E94D80D0990D88121
:101DE000C02D209781F740911303509114038091E7
:101DF0000F0390911003609115030E94D80DE0919C
:101E00000F03F091100380819181909310038093D0
:101E10000F0380910F0390911003892B49F607C09F
:101E2000613811F481E08087CF010E94D80D809144
:101E3000B9032091170330E0280F311DC901DF914C
:101E4000CF911F9108958091B9032091170330E03D
:101E5000280F311DC9010895DC012091170320329C
:101E600019F421E030E01AC080911803820F8F71BD
:101E700080930E0390E0FC01EE0FFF1FEE0FFF1F9B
:101E8000E80FF91FE75EFC4F608352834183B48300
:101E9000A3832F5F2093170320E030E0C90108954A
:101EA0000F931F9300910C0310910D030E94D80D06
:101EB00010930D0300930C031F910F910895CF937E
:101EC000DF93DC01EB0160910A0340910B03862F45
:101ED000942F9C01F90103C00190F081E02DEA17D5
:101EE000FB07B9F03097C1F76C9311964C9311979B
:101EF000B0930B03A0930A0381E018968C93189774
:101F000017961C921E921697CD0161E8AE010E94B1
:101F1000500FDF91CF910895FC01009741F080852B
:101F20008150823020F481E081878093B903089545
:101F300020E030E0FC018085882311F021E030E0D2
:101F4000C9010895CF93DF93EC0102C00E946C0E8B
:101F5000899199910097D1F7DF91CF910895CF930F
:101F6000DF93EC0104C060E070E00E945F0F899194
:101F700099910097C1F7DF91CF9108958091262C18
:101F80009091272C08958AEB93E00E94881080E0BE
:101F900090E19093272C8093262C0895CF93DF9384
:101FA000EC01E881F981309701F1648175818091BC
:101FB000262C9091272C4CEB53E1481B590B461BC8
:101FC000570B8C819D810E941245E881F9810BC0DD
:101FD0002A813B8184819581821B930B9583848325
:101FE0000190F081E02D309799F78091262C909107
:101FF000272C2A813B81820F931F9093272C80935B
:10200000262C8AEB93E0BE010E944411DF91CF9110
:1020100008950F931F93CF93DF93EC018B01809171
:10202000262C9091272C8617970718F420E030E093
:1020300019C08AEB93E0BE010E94A8102091262CC3
:102040003091272C8CEB93E1821B930B9D838C8327
:102050001B830A83201B310B3093272C2093262CC3
:1020600021E030E0C901DF91CF911F910F910895D8
:10207000FC018081918122813381820F931F9183A2
:1020800080830895EF92FF920F931F93FC01E080ED
:10209000F180028113810E94C0030E0D1F1D081BD9
:1020A000190BC8011F910F91FF90EF9008950F93A6
:1020B0001F938C010E94C00340E050E0F801208192
:1020C0003181821B930B01962281338128173907B6
:1020D00010F441E050E0CA011F910F9108950F9351
:1020E0001F938C010E94C003F801918380831F918C
:1020F0000F9108950F931F938C01FC0173836283EA
:102100000E94C003F801918380831F910F9108956D
:10211000FC01118210820895FC0180819181089553
:10212000FC01DB018D919C91918380830895FC01DA
:102130000190F081E02D309719F420E030E006C0E6
:102140009F010190F081E02D3097D1F7C9010895EA
:10215000CF93DF93EC01AB01288139812115310543
:10216000D1F0F901A0E0B0E014C0E417F50761F484
:1021700080819181109719F49983888302C08D938F
:102180009C931182108207C0DF01808191819C01A4
:10219000F901309751F7FA011182108288819981F3
:1021A000009751F0FC01CF010190F081E02D3097B4
:1021B000D1F7FC01009719F45983488302C0518379
:1021C0004083DF91CF910895CF93DF93EC01AB0172
:1021D0002881398121153105D1F0F901A0E0B0E065
:1021E00014C0E417F50761F480819181109719F408
:1021F0009983888302C08D939C931182108207C0BB
:10220000DF01808191819C01F901309751F788812C
:102210009981FA019183808359834883DF91CF911B
:102220000895CF93DF93EC01E881F981309719F499
:1022300020E030E019C0DF0180819181892B21F4F9
:10224000198218829F0110C02C9111963C91119710
:10225000AD01C901DC018D919C911197892BA1F7EA
:10226000FA01118210829D01C901DF91CF91089579
:10227000DC01ED91FC911197309721F080819181E3
:102280008D939C93CF010895CF93DF93EC01288128
:10229000398121153105D1F0F901A0E0B0E014C079
:1022A000E617F70761F480819181109719F49983FB
:1022B000888302C08D939C931182108207C0DF0136
:1022C000808191819C01F901309751F7DF91CF9185
:1022D0000895FC010190F081E02D20E030E005C080
:1022E0002F5F3F4F0190F081E02D3097C9F7C90172
:1022F00008950F931F93CF93DF938C01FB01EA01A5
:1023000061157105F9F4DC012D913C912115310520
:10231000C1F0F901A0E0B0E012C0EC17FD0751F4E4
:1023200080819181109709F4D8018D939C9311823B
:10233000108207C0DF01808191819C01F9013097F3
:1023400061F7F8018081918199838883D183C0836B
:10235000DF91CF911F910F910895FC01009719F41F
:1023600020E030E002C020813181C9010895EF9260
:10237000FF920F931F93CF93DF937C018A01FC019F
:1023800080819181009729F08B34910509F04BC031
:102390001AC08CEB93E10E948C10EC0109C06C8197
:1023A0007D81CE0102960E941A020990D881C02D2B
:1023B0002097A9F781E08093BE138BE490E0F701AA
:1023C0009183808302C0683811F081E030C08CEBCB
:1023D00093E10E948C10EC0123C0CE0102960817F5
:1023E0001907D9F48CEB93E1BE010E9444110091CE
:1023F0000C0310910D038A859B8590930D038093A8
:102400000C03EC85FD85309719F08E859F85099525
:1024100010930D0300930C03D0CF0990D881C02DE9
:102420002097D9F6CACFF7011182108283E0DF919D
:10243000CF911F910F91FF90EF900895CF93DF936D
:10244000EC018091BE13882331F0CE0102960E94E8
:10245000B3009C0113C08CEB93E10E948C10FC0133
:1024600009C0EC17FD0719F420E030E007C0019027
:10247000F081E02D3097A9F721E030E0C901DF912C
:10248000CF910895CF93DF93EC018091BE13882301
:1024900029F0CE0102960E94180104C01F821E82FC
:1024A000198618868CEB93E1BE010E944411DF91DE
:1024B000CF9108950F931F93CF93DF93EC018091F9
:1024C000BE13882391F000910C0310910D038BEC47
:1024D00091E090930D0380930C03CE0102960E942D
:1024E000040210930D0300930C038CEB93E1BE01E7
:1024F0000E9444118CEB93E1BE010E94A810DF9171
:10250000CF911F910F9108950F931F93CF93DF9356
:10251000EC0100910C0310910D031B870A875D8766
:102520004C873F872E878091BE13882379F08BECF0
:1025300091E090930D0380930C03CE0102960E94CC
:102540001A0210930D0300930C0302C07D836C8369
:102550008CEB93E1BE010E9444118CEB93E1BE0130
:102560000E94A810DF91CF911F910F9108950F93B2
:102570001F93CF93DF93EC018091BE13882391F0DA
:1025800000910C0310910D038BEC91E090930D03DF
:1025900080930C03CE0102960E940F0210930D034C
:1025A00000930C038CEB93E1BE010E9444118CEB71
:1025B00093E1BE010E94A810DF91CF911F910F916E
:1025C00008951092BE138CEB93E10E9488108BEC5F
:1025D00091E060E070E00E945F0F0895A091BF134A
:1025E000B091C0131097C1F01092C0131092BF1396
:1025F00014966D917C9115971296ED91FC9113971D
:10260000CD010995E091BF13F091C013309721F0EF
:10261000808191810E94F34008950F931F93FC01E4
:102620008091BF139091C013338322831583048359
:1026300071836083F093C013E093BF13892B19F467
:10264000CB010E94F34080E090E01F910F9108952C
:102650000E94D94008950E94EC4408950E94F144DC
:10266000089580E38093C5130895AC013091C5139C
:10267000832F90E0841795079CF020E3231B809123
:10268000C1139091C213820F911D840F951F813841
:10269000910530F4341B3093C51321E030E002C0C3
:1026A00020E030E0C90108959091C513980F9093F0
:1026B000C51308954091C1135091C2139C0148174E
:1026C000590718F420E030E012C08091C3139091B4
:1026D000C413820F931F9093C4138093C313421BA0
:1026E000530B5093C2134093C11321E030E0C90152
:1026F00008959093C2138093C11308958091C313DA
:102700009091C413C0962091D5013091D601280F25
:10271000391FC90108958091C5132091D5013091C9
:10272000D601280F311DC901089540E050E0809185
:10273000D5019091D601C0962091C6133091C71350
:102740002817390711F041E050E0CA01089580913F
:10275000C6139091C71308958091C1139091C2132D
:1027600008959091C51380E3891B089580E39091AB
:10277000C513891B2091C1133091C213280F311D3D
:10278000C9010895E82FF0E0EE0FFF1FE85BF34D5D
:102790007183608381E090E00895E82FF0E0EE0F10
:1027A000FF1FE85BF34D808191810895282F30E071
:1027B00043E0220F331F4A95E1F72859344DC901F0
:1027C000089590E053E0880F991F5A95E1F78859D2
:1027D000944D0E94520C81E090E00895E8E4FCE200
:1027E000119211928CE2E837F807D1F788E29CE267
:1027F00065E871E00E94520C80E39CE265E871E0BC
:102800000E94520C88E39CE265E871E00E94520C41
:1028100080E49CE265E871E00E94520C08951092F9
:10282000C4131092C3131092C2131092C11380E309
:102830008093C5138091D5019091D601C096909355
:10284000C7138093C6130E94EE130895EF92FF9270
:102850000F931F938C017B010E940F141093C713D9
:102860000093C613F092C213E092C1131F910F910F
:10287000FF90EF900895A8E4BCE2FC0180E3019092
:102880000D928150E1F7A8E2BCE2FB0180E20190E9
:102890000D928150E1F70895DC01E8E4FCE280E369
:1028A00001900D928150E1F7DB01E8E2FCE280E269
:1028B00001900D928150E1F708950F931F93CF93EC
:1028C000DF93EC018091C513482F50E08091C11334
:1028D0009091C213C096841B950B8138910518F016
:1028E00020E030E032C000E310E0F801E41BF50B1B
:1028F0002091D5013091D601240F351FCE01B901A9
:10290000AF010E9409458091C513081B11090C0FE6
:102910001D1F2091C6133091C7138091C31390914E
:10292000C413280F391F4091C1135091C213C8011D
:10293000B9010E9409452091C1133091C213205D55
:102940003F4F8091C513281B3109C901DF91CF91F9
:102950001F910F9108950F931F934091C51350E05D
:1029600000E310E0F801E41BF50B2091D501309154
:10297000D601240F351FB901AF010E94094580918E
:10298000C513081B1109C8011F910F910895E0910B
:10299000C613F091C7136091D5017091D6019B01C8
:1029A000205D3F4FE217F30749F04091C11350916A
:1029B000C213C901BF010E94094508958091C31344
:1029C0009091C4130097D9F04091C1135091C21354
:1029D000405D5F4FDC01D096A60FB71F20E330E0CB
:1029E00007C0FB01E20FF31F8D9180832F5F3F4FE4
:1029F00024173507B4F31092C4131092C31308952B
:102A0000EF92FF920F931F93F82EE92E162F072FA8
:102A10000E940F14212F302FC9018C01813891059C
:102A200010F000E810E08091C6139091C7136F2D4D
:102A30007E2DA8010E9409451093C2130093C11373
:102A4000C8011F910F91FF90EF900895FC018081C4
:102A50009181089570E023E0660F771F2A95E1F7D2
:102A60006E507040680F791FCB010895E62FF0E09B
:102A7000EF5BFF4FEE0FFF1FE80FF91F8081918181
:102A800008950895CF93DF93EC0187ED91E0BE01A7
:102A90000E94C043892B21F0BE016E5F7F4F0CC0A6
:102AA0008FED91E0BE010E94C043892B19F460E0D4
:102AB00070E002C06A817B81CB01DF91CF910895E4
:102AC000CF93DF93EC0187ED91E0BE010E94C043FC
:102AD000892B79F068817981CE0102960E940015D8
:102AE000CE018E579F4FCE54DF4FBE010E943B1444
:102AF0001DC08FED91E0BE010E94C043892BB1F053
:102B00000E940F14688179818A819B810E9400153F
:102B10008CA990E00E9435130E948B134CA99E0152
:102B20002C5F3F4FB90150E00E940945DF91CF91E2
:102B30000895CF93DF93EC0187ED91E0BE010E94F1
:102B4000C043892B19F087ED91E009C08FED91E02A
:102B5000BE010E94C043892B29F08FED91E0BE0198
:102B60000E949243DF91CF9108950F931F93CF93CB
:102B7000DF930E949513892BB1F08FED91E00E94B5
:102B80006443EC01009769F00E94AC139983888339
:102B90000E94A7139B838A83CE0104960E94AB14E4
:102BA0008CAB8E0115C087ED91E00E946443EC016F
:102BB0008C01009769F002960E945D1499838883C6
:102BC000BE016E547F4FCE018E579F4F0E944C1412
:102BD000C801DF91CF911F910F91089587ED91E08A
:102BE0000E94E3438FED91E00E94E3430895FC01CE
:102BF0005381560F50937F2C272F33274281420F4A
:102C000040937E2CA181A0937D2CE081E0937C2CCD
:102C1000842F90E08217930748F48A2F8F5F809368
:102C20007D2C882319F4EF5FE0937C2C852F90E0B6
:102C300070708617970790F4842F8F5F80937E2C97
:102C4000882361F480917D2C8F5F80937D2C882375
:102C500029F480917C2C8F5F80937C2C0895FC015B
:102C600061507040680F791F20E030E00EC0508145
:102C700040E08181DA01A80FB11D2A0F3B1F2A17FE
:102C80003B0710F42F5F3F4F3296E617F70778F3B4
:102C9000E617F70749F4908180E0280F391F2817BD
:102CA000390710F42F5F3F4F832F922F0895E8E8E4
:102CB000FCE240E050E0308120E08181B901680F02
:102CC000711D460F571F4617570710F44F5F5F4F90
:102CD00032967CE2EF3AF70770F38CE2EF3AF807AE
:102CE00051F4908180E0480F591F4817590718F494
:102CF0004F5F5F4F06C04115510519F42FEF3FEFAD
:102D000002C0342F252FC9010895CF93DF939091EE
:102D10007F1BA92FB0E030918C2C20E02A1B3B0BAD
:102D200090918D2C290F311DA901480F511DE0E90B
:102D3000FCE2708160E08181EB01C80FD11D4C0F76
:102D40005D1F4C175D0710F44F5F5F4F32968CE2AA
:102D5000EF3AF80770F38CE2EF3AF80749F4908104
:102D600080E0480F591F4817590710F44F5F5F4F15
:102D7000FD01E055F34D215030402E0F3F1F0EC096
:102D8000708160E08181DB01A80FB11D4A0F5B1FDC
:102D90004A175B0710F44F5F5F4F3296E217F30755
:102DA00078F3E217F30751F4908180E0480F591F40
:102DB0004817590718F44F5F5F4F06C0411551057A
:102DC00019F42FEF3FEF02C0342F252FC901DF91F7
:102DD000CF9108958AE30E948516089586E00E94A7
:102DE0008516089581E10E9485160895CF93DF939B
:102DF000582FA92F4091B631E091A131F091A23125
:102E00002091821B3091831B2F5F3F4FBDE7203005
:102E10003B0710F020E030E1922F832F442319F07C
:102E2000E817F90789F32093821B3093831B80E016
:102E300090E0442329F41092811BE1E9F1E30AC0F8
:102E4000473011F481E991E3FC0181E08093811B1B
:102E5000309771F182E085A38091841B808F8091EF
:102E6000851B818F8091861B828F8091871B838F2A
:102E700084EC94E0978F868F91A380A381E090E00B
:102E8000958F848F17A281E086A383E084A312A28A
:102E900080E183A3308B218B738B628BEF01252F15
:102EA0003A2FC901DC0180E10D9009928150E1F7D0
:102EB000CF01DF91CF9108952091C1313091C2317E
:102EC0002817390739F41092811B1092C2311092E1
:102ED000C131089581E08093811B08959C01809108
:102EE000C1319091C231892B39F41092811B3093FA
:102EF000C2312093C131089581E08093811B0895F0
:102F0000BC0180918F319091903144960E94F715C9
:102F1000E0918F31F091903180917C2C848B809165
:102F20007D2C858B80917E2C868B80917F2C878B4E
:102F30000895282F892F922F0895EF92FF920F93D3
:102F40001F939C0144275527F22EE32E00E010E04A
:102F5000362F272F40E050E0A90133272227E22A0D
:102F6000F32A042B152BB701C8011F910F91FF9075
:102F7000EF900895FC0140917A2C50917B2C28E829
:102F800031E3241B350B621773070CF49B011216F7
:102F9000130664F42093C3313093C431E417F5076A
:102FA00029F0CA01BF01A9010E940945089582E0E4
:102FB0008093801BA0917F1B2A2F30E0F901E05500
:102FC000F34D8181682F70E043E0660F771F4A95CB
:102FD000E1F7695F7F4F42E0285D3F4F3CC0F90158
:102FE000E80FF91FE857F34D8081882319F08130ED
:102FF00019F42EC04F5F2FC090E0807C9070803815
:10300000910549F0803C910549F08034910501F526
:103010004093801B09C04093801B08C04093801BD5
:103020008091A02C8F3F11F481E00895242F30E08F
:1030300040E050E02A0F311D411D511D285D3F4FDA
:103040004F4F5F4F84E062E00E94142682E00895B3
:1030500081818E5F480F842F90E0681779070CF00C
:10306000BECF4093801B80E00895CF92DF92EF9215
:10307000FF920F931F93CF93DF93C0918F31D09125
:103080009031843009F471C204EC1CE210938E314B
:1030900000938D3110937B2C00937A2C833099F41C
:1030A0008DA1282F30E02F7030702330310529F4A6
:1030B0008C8D9D8D892B09F496C02230310511F03D
:1030C0000C9491207FC0823009F091C01092792C2D
:1030D0001092782C1092C4311092C3318091871BCA
:1030E0008F5F8093871B882399F48091861B8F5F65
:1030F0008093861B882361F48091851B8F5F80936A
:10310000851B882329F48091841B8F5F8093841B07
:103110002DA1273011F0253051F48EA18F5F8EA3A1
:10312000853011F00C9491201DA20C949120222343
:1031300011F40C9491208C8D9D8D892B09F44FC036
:103140008EA181508EA38F5F09F0EBC73FA138306D
:1031500029F02150223048F4353039F41DA280E89E
:10316000809388310E94AA2187C6353010F080E311
:1031700007C083E090E002C0880F991F3A95E2F7FC
:103180008EA38FA18F5F8FA38DA190E08F70907021
:1031900083309105F1F08430910544F4813091053C
:1031A00009F4FEC3029709F0BCC70CC08630910534
:1031B00009F476C68830910509F472C6049709F0BF
:1031C000B0C76EC6E0917F1BF0E0E055F34D158669
:1031D000EEC384E0809388310E94AA218FC62F70AD
:1031E000233009F09EC788E08093883139C6853046
:1031F00019F5E0918B31F0918C3180899189892B7F
:1032000009F48FC71092903110928F31C8010C973A
:1032100090938E3180938D3190937B2C80937A2C78
:103220001092C4311092C3311092792C1092782CE4
:1032300088E08093883197C18091882C807F803688
:1032400009F06FC790918C2C80E020918D2CAC01FF
:10325000420F511D9A018091782C9091792C8417FE
:10326000950708F45EC7285D3F4F3093792C209373
:10327000782C8091902C8F3F09F453C7C801849714
:103280000E94123C892B59F4C80184970E94783B14
:10329000892B29F48091A02C8F3F09F042C78EE83A
:1032A0009CE290938A318093893110927F1B109217
:1032B0007E1BE0918931F0918A3180818B3209F453
:1032C0004BC08C3248F4863009F4BFC1813109F417
:1032D000B4C0882389F06BC08A3309F474C08B337F
:1032E00020F48C3209F063C01CC78B3309F419C772
:1032F0008C3309F05CC006C080917E1B80FD57C0F6
:10330000816009C080917E1B81FF04C086FD4FC093
:10331000806401C0826080937E1B0E94D717813039
:1033200009F4FFC6813018F0823019F602C72091E7
:103330007F1BE22FF0E0CF018055934D90938A31AF
:1033400080938931285FFC018181880F880F880F65
:10335000280F20937F1BADCF80917E1B82FD27C05D
:10336000846080937E1B90917F1BE92FF0E0DF014A
:10337000A055B34D13968C911397882349F0BA96B4
:103380009F01442737FD4095542F84E060E018C02A
:10339000B0938A31A0938931985FE055F34D8181D4
:1033A000880F880F880F980F90937F1B82CFE85863
:1033B000FC429F01442737FD4095542F84E061E093
:1033C0000E941426B6C60E94EA168F5F9F4F09F02E
:1033D000A8C6E0917F1BF0E0E857F34D80A50E945E
:1033E000F421E0917F1BF0E0E857F34D80A585388C
:1033F000C1F0863818F48038A1F410C0873829F05D
:10340000873848F0883869F403C00E94692C0DC0E1
:103410000E940E2B0AC00E94EE2607C00E94A7251C
:1034200004C01092792C1092782C8091782C909175
:10343000792C892B09F475C67CC68091782C9091E3
:10344000792CC0979093792C8093782C88EB9CE210
:1034500090938E3180938D31E0917F1BF0E0E055A9
:10346000F34D86819781892B31F00E94F2168F5F90
:103470009F4F09F056C6E0917F1BF0E0E055F34DF9
:1034800082819381892B09F44CC685EC91E390935A
:103490008C3180938B3148C02889398921153105B9
:1034A000F1F180917F1BE82FF0E0E055F34D828130
:1034B00093818217930799F52A893B892115310554
:1034C00029F0808191818217930749F5888199813C
:1034D000892BE1F48A819B81892BC1F48C819D81A8
:1034E000892BA1F48E819F81892B81F48885998510
:1034F000892B61F48A859B85892B41F48C859D8578
:10350000892B21F48E859F85892BC1F080E99CE26F
:10351000BE0140E150E00E94FC44009779F06996BA
:10352000D0938C31C0938B31C0918B31D0918C3141
:10353000B2E3CF3BDB0708F4AFCFF3C51092903175
:1035400010928F3182E08093883188EB9CE29093D7
:103550008E3180938D3190937B2C80937A2C1092B6
:10356000C4311092C3310E94AA212091C3313091FD
:10357000C4312115310509F4D4C5C901C096909311
:10358000792C8093782C285F3F4F30938C2C885275
:1035900080938D2C40918B3150918C31EA018C8934
:1035A00080938F2C81E180938E2CE0917F1BF0E043
:1035B000E857F34DDF01989614963C9314971596AF
:1035C0002C93159717961C921E92169788899989A5
:1035D00091A780A78A899B8913969C938E931297B3
:1035E000A0EABCE220918B3130918C31C901FC0101
:1035F00080E101900D928150E1F780E99CE260EA60
:103600007CE20E94E03884EC9CE290938E318093BF
:103610008D3180917F1BC82FD0E0C055D34D0E94C3
:10362000F216809590959F838E8380917F1BE82F63
:10363000F0E0E055F34D86819781892B09F067C54D
:103640008FEF9FEF9783868362C50E94EE168F5F90
:103650009F4F09F066C580917F1B082F10E0005531
:10366000134DD8011296ED90FC901397E114F104DC
:1036700009F457C5CD90DC90C114D10409F451C5AB
:10368000C1E9D1E38DA18823A1F088899989E81641
:10369000F90679F48A899B89C816D90651F480E91C
:1036A0009CE2BE0140E150E00E94FC44009709F416
:1036B0009BC1AC96B1E3C139DB0721F318F3E801F4
:1036C0008D858F738230D1F4F0928A1BE092891B32
:1036D0001092811B41E00EC02091891B30918A1B02
:1036E0008091C1319091C2312817390709F48AC0FD
:1036F0004093811B8091811B882371F380917F1BF4
:10370000E82FF0E0DF01A055B34D1D968C911D9779
:1037100082FD07C584E11D968C931D978CE390E094
:103720009093792C8093782CFD0180E58487978194
:103730001B968C911B9717968C931797938796815E
:103740001A968C911A9716968C9316979287958154
:1037500019968C91199715968C931597918794814A
:103760009093811B18968C91189714968C931497AC
:1037700090871B968C911B978F5F1B968C931B9742
:103780008823C1F41A968C911A978F5F1A968C939E
:103790001A97882379F419968C9119978F5F199647
:1037A0008C931997882331F418968C9118978F5F12
:1037B00018968C93E0917F1BF0E0DF01A857B34D82
:1037C00098962D913C91999730938A1B2093891B51
:1037D000E055F34D82819381918380839B963C9346
:1037E0002E939A97E0EAFCE2DF01509780E10D907A
:1037F00001928150E1F780E99CE260EA7CE20E945C
:10380000E0385FC41092811BC0E0D0E021E014C01A
:103810008091B631882319F4C1E9D1E314C087300F
:1038200049F4209729F09091B7318EA1891710F4AF
:10383000C1E9D1E32093811B8091811B882341F34F
:10384000209709F46EC4D0939031C0938F3183E0F8
:103850008EA38CA31AA284E08BA31FA2E0917F1BEE
:10386000F0E0E857F34D82A593A5998B888B80A54E
:1038700091A59B8B8A8BDE01E0E9FCE280E101905F
:103880000D928150E1F781E08DA38091841B888F98
:103890008091851B898F8091861B8A8F8091871BE1
:1038A0008B8F81E090E09D8F8C8FE0917F1BF0E00B
:1038B000E055F34D87818F8BE0917F1BF0E0E05561
:1038C000F34D86818E8BE0917F1BF0E0E055F34D48
:1038D00085818D8BE0917F1BF0E0E055F34D848175
:1038E0008C8B81E090E00E948017E0917F1BF0E0DC
:1038F000E055F34D848590E0807F9070813591058F
:103900000CF44EC01092811B35C0F901E857F34DFD
:1039100084AD8093881B882309F442C0813021F450
:103920004F5F4093811B26C08230C1F485AD843047
:10393000A9F436AD20E087AD90E0822B932B9093D5
:103940008A1B8093891BE4E0853C9E0710F084EC81
:1039500094E09F8F8E8F99A388A322C08091811BB2
:10396000E82FF0E0EB53F34DE081EE23C9F0E80FD0
:10397000E093811B4091811B242F30E0E0917F1B5D
:10398000F0E0E055F34D848582958F7090E00597C7
:10399000880F991F880F991F281739070CF4B5CF86
:1039A000E0917F1BF0E0E055F34D80E18587E091E9
:1039B0007F1BF0E0DF01A055B34D1D968C911D9744
:1039C00082601D968C931D97FD0182E0848B84E0BC
:1039D000858B868B84EC878B80E490E09093792CA8
:1039E0008093782C80E628C3D0939031C0938F3198
:1039F0001092883180917F1BE82FF0E0DF01A05505
:103A0000B34D1D968C911D9782FF03C01DA280E2CD
:103A1000ABC21C968C9182958F70880F880F809313
:103A2000811B2091782C3091792C28523040281B12
:103A300031093093792C2093782C8DA190E08F70F0
:103A400090708230910539F4E055F34D85858F7380
:103A5000823149F42FC0019731F4E055F34D85854B
:103A60008F73823039F1232B59F4E0917F1BF0E002
:103A7000E055F34D858590E083709070892BD1F0EF
:103A800080917F1BE82FF0E0E055F34D94818C8905
:103A9000981761F495818D89981741F496818E89E4
:103AA000981721F497818F89981721F0858581FDDA
:103AB00077CFAFC2E0917F1BF0E0E055F34D8585F5
:103AC00084FF52C06C8D7D8D6115710509F44CC069
:103AD000CE0148960E94F71580917F1BE82FF0E0F9
:103AE000E055F34D208580917C2C2817E9F59185D0
:103AF00080917D2C9817C1F5928580917E2C981726
:103B000099F5938580917F2C981771F5288F809176
:103B10007D2C898F80917E2C8A8F80917F2C8B8F3A
:103B20008FA18823D1F42AA19CA18EA1981B822F5A
:103B3000869586958695981B392F320F3AA38BA1CF
:103B4000282F26952695821B97FD9195890F8BA38B
:103B5000369536953695830F8CA381E08093883116
:103B60008CA18EA31D8E1C8E8DA1282F30E0C90143
:103B70008F7090708430910509F4FBC185309105F8
:103B800064F48230910509F43DC0833091050CF056
:103B9000D5C0019709F0C5C210C08630910509F45F
:103BA00030C2863091050CF408C28730910509F4C3
:103BB00030C2089709F0B5C2D1C18091883180FF29
:103BC00016C083E08DA380E4809388311D8E1C8E07
:103BD0002091782C3091792C2115310509F43CC1C4
:103BE00082E480938831C9010E94801735C1E09139
:103BF0007F1BF0E0E055F34D85858F73823009F02F
:103C000090C2CECE8091883180FF8DC080917F1B85
:103C1000E82FF0E0E055F34D85858F73823109F090
:103C200082C0848590E0807F9070813591050CF48E
:103C30004EC01092811B35C0F901E857F34D84AD99
:103C40008093881B882309F442C0813021F44F5FA0
:103C50004093811B26C08230C1F485AD8430A9F425
:103C600036AD20E087AD90E0822B932B90938A1B9A
:103C70008093891BF4E0853C9F0710F084EC94E06E
:103C80009F8F8E8F99A388A322C08091811BE82FDC
:103C9000F0E0EB53F34DE081EE23C9F0E80FE09341
:103CA000811B4091811B242F30E0E0917F1BF0E0CD
:103CB000E055F34D848582958F7090E00597880FCD
:103CC000991F880F991F281739070CF4B5CF83E087
:103CD0008DA3E0917F1BF0E0E055F34D84818C8B48
:103CE000E0917F1BF0E0E055F34D85818D8BE091F5
:103CF0007F1BF0E0E055F34D86818E8BE0917F1BBA
:103D0000F0E0E055F34D87818F8B81E090E00E94D9
:103D1000801782E4809388311D8E1C8E1092792C3E
:103D20001092782C99C080E2809388310E94AA2159
:103D3000E0918F31F091903115A2E0CC80917F1B02
:103D4000E82FF0E0E055F34D858580FF25C024FD88
:103D500023C08C8D9D8D892B09F0E3C18091782C37
:103D60009091792C01960E94801720918831822FA2
:103D70008061809388318091782C9091792C892B67
:103D800019F02261209388310E94AA2181E090E0FD
:103D90009D8F8C8F88E082C085FF25C0328920E00E
:103DA000838990E0282B392B80918D3190918E3131
:103DB000820F931F90938E3180938D31E0917F1B02
:103DC000F0E0E055F34D328920E0838990E0282B24
:103DD000392B8091782C9091792C821B930B9093A6
:103DE000792C8093782C2091782C3091792C211586
:103DF000310559F08DA184FD08C080918831826021
:103E000080938831C9010E948017E0917F1BF0E008
:103E1000E055F34D968580E02785820F911D9093A4
:103E20008A1B8093891B28A139A12817390710F014
:103E3000892B21F430938A1B2093891B8091891B45
:103E400090918A1B9F8F8E8F8091883190E0837034
:103E50009070892B09F465C11092C4311092C3315E
:103E60000E94AA2180918831282F85FF0CC01092D2
:103E7000C4311092C3311DA2E0917F1BF0E0E055E8
:103E8000F34D84E1CCC084FF12C01092C431109273
:103E9000C33181E090E09D8F8C8F84E08DA31FA2C1
:103EA000E0917F1BF0E0E055F34D81E1B8C08091D7
:103EB000C3319091C431892B01F120FF02C01D8EC6
:103EC0001C8E8C8D9D8D0097A1F42E8D3F8D809141
:103ED000C3319091C4312817390720F43093C4318D
:103EE0002093C3318091C3319091C4319D8F8C8FC9
:103EF00004C09093C4318093C3311FA280917A2C67
:103F000090917B2C90938E3180938D318091C33131
:103F10009091C431892B81F08C8D9D8D009761F03B
:103F2000CC969093792C8093782CE0917F1BF0E0D5
:103F3000E055F34D88E110C08091883181FFF1C0D8
:103F40008CE390E09093792C8093782CE0917F1B08
:103F5000F0E0E055F34D80E1858768C080918831BD
:103F600080FFDFC01DA280E1809388310E94AA21DA
:103F7000D8C08091782C9091792C009711F00E94F4
:103F80008017E0917F1BF0E0E055F34D858590911F
:103F9000883180FF0BC090FF06C087E08DA31EA272
:103FA0001D8E1C8E1DC086E08DA31AC090FF22C0FE
:103FB00085E08DA31D8E1C8EB4C08091782C9091CD
:103FC000792C009711F00E948017E0917F1BF0E0A0
:103FD000E055F34D858580FF0DC087E08DA31EA2BF
:103FE00081E090E00E94801780E1809388310E94F8
:103FF000AA210FC08091782C9091792C892B49F4BB
:1040000090C08091883180FF8CC087E08DA31EA274
:1040100088C0E0917F1BF0E0E055F34D80E185879B
:104020008CE390E09093792C8093782CE0917F1B27
:10403000F0E0E055F34D80E58487A0917F1BB0E070
:10404000A857B34DFD01B8968C8980878D898187EB
:104050008E8982878F898387888D8483898D8583E4
:104060008A8D86838B8D878386E080938E2C8889CA
:10407000998999969C938E9398978A899B89938323
:104080008283A0EABCE2FE0180E101900D928150A2
:10409000E1F780E99CE260EA7CE20E94E0388DA1D1
:1040A000E0917F1B84FF06C0F0E0E055F34D1786DA
:1040B000168607C0F0E0E055F34D84E0868784EC77
:1040C00087878091CF3280938F2C8091782C90912C
:1040D000792C889790938C2C8091782C885280939F
:1040E0008D2CE0917F1BF0E08F010055134DD8011E
:1040F00053961C92539752961C92F801118A108A7B
:104100000E94EE1680959095E801998B888B80E649
:104110008093882C1092892C10928B2C10928A2CD0
:1041200008C01092792C1092782C10927F1B10925C
:104130007E1B10928831DF91CF911F910F91FF90DC
:10414000EF90DF90CF9008950F931F93CF93DF935D
:104150008C012091821B3091831BC9E1D0E02F5F3D
:104160003F4F8DE72030380710F020E030E1522F2C
:10417000432FA0E011C08A2F90E08C9FF0018D9F0B
:10418000F00D9C9FF00D1124EB53FE4C808991891A
:10419000AF5F8417950719F3AA3069F72093821B44
:1041A0003093831B1092811B40E0A9E1B0E01CC05A
:1041B000542F5F5F842F90E08A9FF0018B9FF00D5A
:1041C0009A9FF00D1124EB53FE4C80899189892B25
:1041D00051F44093811B89E1489FD0011124AB53D6
:1041E000BE4C49F427C0452F4A3010F34093811B41
:1041F000A0E0B0E01FC050963C93509751962C938E
:10420000519753967C936E9352970115110531F493
:1042100080E1ED0119928A95E9F707C0ED01F801F7
:1042200080E1019009928150E1F78091CF3254965C
:104230008C935497CD01DF91CF911F910F910895E9
:104240000E942B3E1092C2311092C1311092B631B1
:1042500080E094E09093831B8093821B20E049E1EF
:1042600050E00EC0822F90E0849FF001859FF00DFA
:10427000949FF00D1124EB53FE4C118A108A2F5F8E
:104280002A3080F32093811B0895E0919E1BF091CA
:104290009F1B309711F480E008950995089590933D
:1042A0009F1B80939E1B0895FC0180910C039091AD
:1042B0000D0391A780A773A762A70895FC018091C1
:1042C0000C0390910D03968B858B708F678B0895EF
:1042D0009C018091BD319091BE31892B11F081E01C
:1042E000089580910C0390910D039093BE318093BB
:1042F000BD313093C0312093BF3180E008952091CB
:104300000C0330910D034091981B5091991B481755
:10431000590789F480919A1B90919B1B82179307F0
:1043200051F410928F1B1092991B1092981BCA0186
:104330000E945C17089581E080938F1B089580E9A7
:104340009BE10E94B300892B21F080E99BE10E9450
:1043500004020895CF93DF93E0918F31F091903173
:10436000309719F0EF01A89605C0C0918B31D0911C
:104370008C3165968091883186FF1BC010928D1B11
:104380002091981B3091991B8089918928173907B2
:1043900059F480919A1B90919B1B009729F0998367
:1043A00088831B821A8203C081E080938D1B0E9448
:1043B0009F2188819981009731F04A815B816091CA
:1043C000BF320E94500FDF91CF91089584EF91E0AA
:1043D00062E040E050E00E94500F1092792C109261
:1043E000782C10927F1B0895DF93CF930F92CDB757
:1043F000DEB789838091BD319091BE31009739F04D
:104400006091C032AE014F5F5F4F0E94500F0F901E
:10441000CF91DF910895AC0184EF91E060E00E94BC
:104420002C0F0895AC0184EF91E061E00E942C0F05
:1044300008950F931F93CF93DF938091782C9091E1
:10444000792C009709F41FC18150954008F00CC1E8
:1044500000EA1CE28091A02C9091A12C892B59F5A7
:104460008091A22C9091A32C892B29F58091A42CCA
:104470009091A52C892BF9F48091A62C9091A72CD2
:10448000892BC9F48091A82C9091A92C892B99F49F
:104490008091AA2C9091AB2C892B69F48091AC2C43
:1044A0009091AD2C892B39F48091AE2C9091AF2C4A
:1044B000892B09F4D9C08091A02C8F3F09F4D9C071
:1044C00080EA9CE20E94603A882379F480EA9CE2C8
:1044D0000E941F3A009731F40E948A3C8C01009799
:1044E00021F4C2C08C010D5E1F4FC8010E946C3CBC
:1044F000EC01009709F051C0C80160E070E040E0B5
:1045000020E00E94F53E8C01009709F4ADC0EC015B
:10451000AE96CE0164EF71E00E94E72E892B99F0F0
:10452000CE010E949A2E28E83CE24091782C5091CE
:10453000792CB9010E9409456091782C7091792CF1
:10454000CE010E94B62E80E99CE20E94123CA80196
:104550004F5F5F4F892B19F080E99CE202C080E039
:1045600090E060E070E00E945C2A6091D832709127
:10457000D9328091DA329091DB3228EE33E040E09C
:1045800050E00E944A48C8018196BA01A9010E94E0
:10459000894481E0F80183A76CC08DA58823E9F4E4
:1045A000AE96CE0164EF71E00E94E72E892B09F4EC
:1045B0005BC0CE010E949A2E28E83CE24091782C04
:1045C0005091792CB9010E9409456091782C709125
:1045D000792CCE010E94B62E47C0823059F483E078
:1045E0008DA7CE01499645E050E060E070E00E9462
:1045F00089441BA66091D8327091D9328091DA3209
:104600009091DB3228EE33E040E050E00E944A48CF
:10461000CE018196BA01A9010E9489448E010F5EE4
:104620001F4FC8010E944521AE96CE010E94A62EC2
:10463000892BD1F0CE010E94A62E9093792C8093E5
:10464000782CCE010E949A2EBC0128E83CE24091D1
:10465000782C5091792CC9010E940945CE010E9405
:10466000C12EC8010E9445211092792C1092782CFD
:104670000AC080E090E00E9445211092792C1092AF
:10468000782C10927F1BDF91CF911F910F9108958D
:10469000DF92EF92FF920F931F93CF93DF937C01F2
:1046A0008A01FC0180819181009729F08D5093400F
:1046B00009F0F9C026C01092991B1092981B81E056
:1046C00080938B1B80910C0390910D0390939D1B05
:1046D00080939C1B0E94D10D8093BF320E94D10D0C
:1046E0008093C03280E99BE16EE370E00E941A0281
:1046F0000E9420218DE093E0F7019183808381E087
:10470000D6C0623009F4B1C0633030F4662309F4D6
:104710008EC0613079F79BC0673819F0683851F75F
:104720003CC010928C1BC8E9DBE113C08A819B81DD
:104730008017910741F4888199810E945C17198242
:1047400018821B821A82249680918C1B8F5F809323
:104750008C1B80918C1B882349F3E6EBF1E383816A
:1047600094818017910719F4148213821082BC96E9
:10477000CF0185978D5B914390F3E5ECF1E308C0A1
:10478000858996898017910711F4118A108A799684
:1047900082E3EF3BF807A1F7ADCFEBE140395E07CD
:1047A00059F5CA010E94B300892B31F110928C1B7C
:1047B0008CE2D82E1DC08091B6318823A1F080E90B
:1047C0009BE10E94040280918C1B8D9DC0011124ED
:1047D0008F569E4C9093903180938F3182E00E944F
:1047E00035180E94192280918C1B8F5F80938C1B3F
:1047F00080918C1B8823F9F2F8E30E311F0749F4EE
:10480000C8010E94B300892B21F00E94C53C0E9480
:10481000192224E30232120709F06CCFC8010E946A
:10482000B300892B09F466CF0E94993F1BC0411544
:10483000510509F45FCF5093903140938F3183E05D
:104840000E9435180E9419220E949F2153CF4115C2
:10485000510509F44FCF50938C3140938B3185E053
:104860000E9435180E94192245CF8091782C909192
:10487000792C892B09F43ECF80918E2C863031F42F
:104880008091BD2C81FF02C00E949F2181E00E9487
:1048900035188091782C9091792C892B09F42ACFA6
:1048A0000E94E62427CFF7011182108283E0DF9176
:1048B000CF911F910F91FF90EF90DF900895CF93CC
:1048C000DF93EA010E94A420FC01009741F080914F
:1048D0000C0390910D03968B858BD08FC78BCF01E6
:1048E000DF91CF9108950F931F93DF93CF93CDB7AF
:1048F000DEB760970FB6F894DEBF0FBECDBF8C0158
:10490000AB018FEF92E09A8389831C821B821E8207
:104910001D8218861F821A8619861C861B861E8693
:104920001D8680E091E0988B8F87CE010196B801BB
:104930000E945F24FC01009711F0118B008BCF01C6
:1049400060960FB6F894DEBF0FBECDBFCF91DF915A
:104950001F910F9108959C018091981B9091991B34
:10496000892B91F410928E1B3093991B2093981BE6
:1049700080910C0390910D0390939B1B80939A1B45
:10498000C9010E946E17089581E080938E1B0895DF
:104990000F931F93CF93DF938A010E94F616EC01C9
:1049A000009771F080910C0390910D0399A788A74F
:1049B0001BA70AA784EF91E060E0AE010E942C0FD4
:1049C000CE01DF91CF911F910F910895EF92FF9249
:1049D0000F931F9380918E2C863009F05DC08091DB
:1049E000782C9091792C8050954009F055C00EE9B3
:1049F00012E01093792C0093782C92E0E92EE0924B
:104A00008C2C86E7F82EF0928D2C1092C12C1092EF
:104A1000C02C0E94EE16809590959093C12C8093A7
:104A2000C02C0E9419221093792C0093782CE092CC
:104A30008C2CF0928D2C20918D3130918E31C901CA
:104A4000FC01DC01AE59BD4F82E692E00D9001926F
:104A50000197E1F784EB9CE262E672E00E94F715B1
:104A600080917C2C8093B42C80917D2C8093B52CEC
:104A700080917E2C8093B62C80917F2C8093B72CD4
:104A80001092C12C1092C02C0E94EE168095909529
:104A90009093C12C8093C02C0E9419221F910F91DA
:104AA000FF90EF900895EF92FF920F931F93CF9393
:104AB000DF93F62EE42E890120E62093882C1092B5
:104AC000892C10928B2C10928A2C2AE320938E2C06
:104AD0002091CF3220938F2C0C5F1F4F212F332733
:104AE00027FD3A950450104020938C2C202F2C5FEA
:104AF00020938D2CA0EABCE2FC0180E101900D9294
:104B00008150E1F780E99CE260EA7CE20E94E038B3
:104B100080917F1BC82FD0E0C055D34DF882E98229
:104B20001B821A820E94EA16809590959B838A8345
:104B3000045D1F4F1093792C0093782C0E9419224A
:104B4000DF91CF911F910F91FF90EF90089528E88A
:104B50003CE28091CF3280938F2C8091A02C8F3FAC
:104B600081F4D9015896F901389680E101900D92AF
:104B70008150E1F780E99CE260EA7CE20E94E03843
:104B80001BC0A0EABBE1F901389680E101900D92CB
:104B90008150E1F7E0E9FCE2DF01509680E10D9001
:104BA00001928150E1F7A0EABCE2E0EAFBE180E19A
:104BB00001900D928150E1F760917F1B662301F116
:104BC0008AE380938E2C70E04091782C5091792C60
:104BD000461B570B5093792C4093782C48525040E9
:104BE00050938C2C485D5F4F842F885280938D2C7E
:104BF0006C54734D4C52504084EB9CE20E94124521
:104C000010927F1B81E88093B02C1092B12C1092EF
:104C1000B32C1092B22C0E94EA1680959095909336
:104C2000B32C8093B22C0895CF92DF92EF92FF9233
:104C30000F931F93CF93DF93D82EC62E79018A014D
:104C400010927F1B80918E2C8A3321F48091B02C9E
:104C500087FF81C0A0EABBE1E0EAFCE280E10190CD
:104C60000D928150E1F78091782C9091792CC0962B
:104C70009093792C8093782C8150954030F080E08F
:104C800095E09093792C8093782C4091782C5091DA
:104C9000792C4053504088EB9CE268E87CE20E940B
:104CA000124580E68093882C1092892C10928B2CD0
:104CB00010928A2C8AE380938E2C8091CF3280933D
:104CC0008F2C8091902C9091912C892B51F5809173
:104CD000922C9091932C892B21F58091942C90917A
:104CE000952C892BF1F48091962C9091972C892BFF
:104CF000C1F48091982C9091992C892B91F48091FA
:104D00009A2C90919B2C892B61F480919C2C9091F2
:104D10009D2C892B31F480919E2C90919F2C892B76
:104D2000D1F0E0EAFCE2DF01509780E10D900192C2
:104D30008150E1F78091A01B8F3F91F484E0D81659
:104D400051F422E0C21639F480E99CE260EA7BE18A
:104D50000E94E0380EC01092792C1092782C35C049
:104D6000A0E9BCE2E0EAFBE180E101900D92815014
:104D7000E1F7E0917F1BCE2FD0E0FE01E055F34D2F
:104D8000D082C182C801B7010E949D17CC54D34D77
:104D9000688379838A839B838091782C9091792C86
:104DA000889790938C2C8896885280938D2C809134
:104DB0007F1BC82FD0E0C055D34D1B821A820E94A2
:104DC000EA16809590959B838A83DF91CF911F91FE
:104DD0000F91FF90EF90DF90CF900895DF92EF92C8
:104DE000FF920F931F93CF93DF9380918F2C8F3F70
:104DF00009F0A5C28091902C8E3F09F0A0C280914D
:104E0000912C803809F09BC280917F1B282F30E0C5
:104E1000F901E055F34D8181882309F090C2F90131
:104E2000EC54F34D8081882311F08093CF3264815C
:104E3000758186819781611571058105910561F103
:104E4000E090D032F090D1320091D2321091D33232
:104E50000E949D17E616F70608071907E9F0E0918A
:104E60007F1BF0E0EC54F34D64817581868197815E
:104E70000E949D176093D0327093D1328093D232CA
:104E80009093D3320E9478396093D4327093D532A4
:104E90008093D6329093D732E0917F1BF0E0EC54B0
:104EA000F34D608571858285938561157105810556
:104EB000910551F00E949D176093D8327093D932BA
:104EC0008093DA329093DB328CE08093B01B82E0E7
:104ED000D82EB6C1F901E857F34D8181882309F432
:104EE0002EC28081833009F45FC0853009F44DC043
:104EF000813009F095C1F093B21BE093B11B80E9BA
:104F00009CE20E946C3CFC019093C81B8093C71BE1
:104F1000009789F46091B11B7091B21B6E5F7F4F57
:104F200080E99CE241E022E00E94F53E9093C81B9C
:104F30008093C71B75C185A5882309F4D5A6C091A8
:104F4000B11BD091B21B22960091C71B1091C81BB8
:104F50000F5E1F4FCE01B80148E050E00E94FC44B4
:104F6000009761F0D801FE0188E001900D92815018
:104F7000E1F7E091C71BF091C81BD5A6E091C71BD4
:104F8000F091C81B81E084A74BC164817581868143
:104F900097810E949D176093CB327093CC3280939F
:104FA000CD329093CE323CC1F093B41BE093B31B4F
:104FB00064817581868197810E949D177B018C0198
:104FC000E091B31BF091B41B608571858285938558
:104FD0000E949D17E616F7060807190708F420C176
:104FE000E091B31BF091B41B80898E3F21F481893D
:104FF000803809F415C1838187FF5FC0CF014096D7
:1050000062810E94303CEC019093C61B8093C51BCB
:10501000E091B31BF091B41B009749F56481758151
:1050200086819781611571058105910509F445C057
:10503000EF0160966F3F2FEF72072FEF82072FEF80
:10504000920741F012810E949D179B01AC01CE0195
:10505000612F06C0CE01628120E030E040E050E0E8
:105060000E94783D9093C61B8093C51B26C0648127
:10507000758186819781611571058105910549F0DA
:105080006F3F3FEF73073FEF83073FEF930741F415
:1050900004C0CE010E946E3810C081E08A8F0DC01E
:1050A0000E949D17AB01BC01CE0142960E9489442B
:1050B000E091C51BF091C61B128EE091B31BF091DD
:1050C000B41B838186FFACC084819581A681B781A2
:1050D0000097A105B10509F4A3C08281803409F0CD
:1050E0009FC0A5EBBBE1709680E101900D928150CD
:1050F000E1F785EB9BE160E87CE20E94DF3985EB1C
:105100009BE10E94123CDC019093CC1B8093CB1B53
:10511000009709F45EC052962C915297213009F005
:1051200058C0E091B31BF091B41B648175818681F6
:1051300097816F3F3FEF73073FEF83073FEF930781
:1051400009F444C00E949D1761527C418040904008
:10515000C0F4E091B31BF091B41B6481758186812A
:1051600097810E949D177B018C018091CB1B9091B0
:10517000CC1B44960E942D446E157F058007910735
:10518000A0F40091CB1B1091CC1B0C5E1F4FE09143
:10519000B31BF091B41B64817581868197810E9455
:1051A0009D17AB01BC01C80109C08091CB1B909138
:1051B000CC1B449640E25CE160E070E00E948944D0
:1051C000E091CB1BF091CC1B138A2AC053962C93F1
:1051D00027C0E091B31BF091B41B64817581868177
:1051E00097810E949D176F5F7F4F8F4F9F4F39F4BC
:1051F00085EB9BE140E050E060E070E00EC0E091A4
:10520000B31BF091B41B64817581868197810E94E4
:105210009D17AB01BC0185EB9BE121E00E94E03CC6
:105220008091B01BE0917F1BF0E0E857F34DE80F51
:10523000F11D95A5990F990F990F980F9093B01B99
:1052400090917F1B8091B01B282F30E0290F311DDA
:10525000245D3F4F8091782C9091792C2817390745
:1052600008F438CE80E99CE20E944E3C9C01909369
:10527000CA1B8093C91B80917F1BE82FF0E0EC5480
:10528000F34D82819381892B29F1A091C71BB091A5
:10529000C81B109719F081E09C968C93C091C91B94
:1052A000D091CA1B82819381209751F40E94991753
:1052B000AC0160E070E080E99CE20E94CE3D10C04D
:1052C0000E949917AC0160E070E0CE0141960E9407
:1052D000894406C02115310519F0C9010E946938B9
:1052E0008091C71B9091C81B009749F18E960E9430
:1052F000A62E892B21F18091C71B9091C81B8E96F9
:105300000E94A62E9093792C8093782C8091C71BB5
:105310009091C81B8E960E949A2EBC0128E83CE210
:105320004091782C5091792CC9010E9409458091B7
:10533000C71B9091C81B8E960E94C12E04C010926C
:10534000792C1092782CDF91CF911F910F91FF90C3
:10535000EF90DF900895CF93DF93FC01608382E0AC
:105360008183EF012296A0E8BCE288E00D900992CB
:105370008150E1F7CF010A96FC0186E0DF011D9222
:105380008A95E9F7DF91CF910895CF93DF9388E86D
:105390009CE220E62093882C1092892C10928B2C72
:1053A00010928A2C2AE320938E2C2FEF20938F2C9F
:1053B000FC0178962FEF32E03093A12C2093A02CA3
:1053C0001382128215821482178216821186108629
:1053D000138612861586148620E032E037872687EA
:1053E0000896BF010E94E03840917F1B242F30E0D7
:1053F000F901E055F34D85E88083118210928C2CE1
:105400008091902C9091912C892BA1F58091922CD8
:105410009091932C892B71F58091942C9091952CDF
:10542000892B41F58091962C9091972C892B11F521
:105430008091982C9091992C892BE1F480919A2C51
:1054400090919B2C892BB1F480919C2C90919D2C58
:10545000892B81F480919E2C90919F2C892B51F463
:1054600088E080938D2C205D3F4F3093792C2093E2
:10547000782C11C0842F90E0805C9F4F9093792C02
:105480008093782C88E180938D2CC9018854934DAA
:1054900061E00E94AB2980917F1BC82FD0E0C055EE
:1054A000D34D1B821A820E94EA16809590959B83A9
:1054B0008A83DF91CF9108950F931F93CF93DF934A
:1054C0008C01EA0110927F1B80E68093882C109259
:1054D000892C10928B2C10928A2C8AE380938E2C2C
:1054E0009FEF90938F2CE0EAFCE261157105B9F40F
:1054F0009093A02C82E08183138212821582148201
:105500001782168211861086128681E0838794871F
:105510008D8585878E859F859787868707C0DF0164
:10552000FB0180E101900D928150E1F787E88093C3
:10553000B02C1092B12C1092B42C1092B52C109269
:10554000B62C1092B72CA8EBBCE2FE0180E10190D2
:105550000D928150E1F710928C2CCE010E94123CEA
:10556000892B01F50115110549F0A0E9BCE2F8010C
:1055700080E101900D928150E1F706C080E99CE244
:1055800060EA7CE20E94E03888E280938D2C809172
:105590007F1B90E08853934D61E00E94AB2980E52A
:1055A00090E025C01092912C1092902C1092932C88
:1055B0001092922C1092952C1092942C1092972C61
:1055C0001092962C1092992C1092982C10929B2C41
:1055D00010929A2C10929D2C10929C2C10929F2C21
:1055E00010929E2C88E180938D2C80E490E0909323
:1055F000792C8093782C80917F1BC82FD0E0C055E8
:10560000D34D1B821A820E94EA16809590959B8347
:105610008A83DF91CF911F910F910895DF92EF92CE
:10562000FF920F931F93CF93DF9390917F1BE92FEE
:10563000F0E0DF01AC54B34DFC9080918F2C8F3F94
:1056400009F03BC1E055F34D8181882309F035C154
:1056500014968C9114978F3F09F42FC120E4D22E19
:10566000DF20F6FE05C08091A02C8F3F09F425C1F4
:1056700084E18093B01B1092B21B1092B11BC091B9
:10568000782CD091792C40E050E064E1292F30E073
:10569000245D3F4F0FC0FC01E857F34D91819923E2
:1056A00009F405C18081823009F4AF01990F990F87
:1056B000990F690FC901860F911D8C179D0758F32B
:1056C0005093B21B4093B11B6093B01BCD01049665
:1056D0000E94123CFC019093CC1B8093CB1B009743
:1056E00041F08189882309F0E8C0CF010E94D13BB5
:1056F000E4C080917F1B90E08854934D0E946C3CE5
:105700008C019093C81B8093C71B009709F4D5C0E8
:10571000C091B11BD091B21B209711F420E00AC0B8
:10572000BC016F5E7F4FCE01029648E050E00E94C0
:10573000FC44282F90E8E92EEF20F80185A5882366
:1057400069F5209709F4B9C0D8015196FE01329647
:1057500088E001900D928150E1F7C091C71BD09174
:10576000C81BDD20C1F081E08DA71BA66091D4325B
:105770007091D5328091D6329091D73228EE33E0B5
:1057800040E050E00E944A48CE014996BA01A90182
:105790000E9489445AC082E08DA757C0F5FC09C019
:1057A000222339F0813009F088C082E0F80185A712
:1057B00084C0209749F0D8015196FE01329688E0C6
:1057C00001900D928150E1F7DD20E1F00091C71BBF
:1057D0001091C81B81E0F80185A76091D4327091C7
:1057E000D5328091D6329091D73228EE33E040E026
:1057F00050E00E944A48C8014996BA01A9010E9496
:1058000089440EC08091B11B9091B21B892B41F04D
:10581000222331F0E091C71BF091C81B82E085A7DD
:10582000E091C71BF091C81B84A5882371F0EE207E
:1058300061F480E99CE20E944E3C9093CA1B8093E5
:10584000C91B009711F00E946938E091C71BF091C5
:10585000C81BE4A68091C71B9091C81B8E960E941E
:10586000A62E892B51F18091C71B9091C81B8E9653
:105870000E94A62E9093792C8093782C8091C71B40
:105880009091C81B8E960E949A2EBC0128E83CE29B
:105890004091782C5091792CC9010E940945809142
:1058A000C71B9091C81B8E960E94C12E0AC05093B0
:1058B000B21B4093B11B6093B01B1092792C1092D5
:1058C000782CDF91CF911F910F91FF90EF90DF9097
:1058D0000895DF92EF92FF920F931F93CF93DF9380
:1058E00080918F2C8F3F09F015C280917F1BE82F8C
:1058F000F0E0E857F34D80A98F3F09F40BC281A572
:10590000882309F007C21092B21B1092B11B84E1E8
:105910008093B01B42E0D42E89C0F901E857F34DC3
:105920008181882309F4F6C18081813009F06EC03D
:10593000F093B21BE093B11B8091902C9091912C2D
:10594000892B59F58091922C9091932C892B29F5D4
:105950008091942C9091952C892BF9F48091962C20
:105960009091972C892BC9F48091982C9091992C27
:10597000892B99F480919A2C90919B2C892B69F416
:1059800080919C2C90919D2C892B39F480919E2C98
:1059900090919F2C892B09F4BDC180E99CE20E9463
:1059A0006C3CEC019093C81B8093C71B6091B11BAA
:1059B0007091B21B009749F46E5F7F4F80E99CE2C3
:1059C00040E022E00E94F53E21C032E0E32EF12CBF
:1059D000E60EF71E8C010F5E1F4FC701B80148E0AD
:1059E00050E00E94FC44009769F0D801F70188E07C
:1059F00001900D928150E1F7E091C71BF091C81B17
:105A0000D5A604C08DA5882309F4DDA68091B01B1E
:105A1000E0917F1BF0E0E857F34DE80FF11D95A5ED
:105A2000990F990F990F980F9093B01B80917F1B3E
:105A3000482F50E08091B01B9A01280F311D245D42
:105A40003F4F8091782C9091792C2817390708F4D2
:105A500064CFCA018854934D0E94123CFC0190937C
:105A6000CC1B8093CB1B009709F454C18091902CE0
:105A70009091912C892B09F099C08091922C909152
:105A8000932C892B09F092C08091942C9091952CA5
:105A9000892B09F08BC08091962C9091972C892BA3
:105AA00009F084C08091982C9091992C892B09F051
:105AB0007DC080919A2C90919B2C892B09F076C007
:105AC00080919C2C90919D2C892B09F06FC0809126
:105AD0009E2C90919F2C892B09F068C08091A02C5E
