:100000000C9461010C9480010C9480010C9480018B
:100010000C9480010C9480010C9480010C9480015C
:100020000C9480010C94E03A0C9480010C948001B3
:100030000C94C0520C9480010C9480010C94A95231
:100040000C94FF4A0C9480010C9480010C94800164
:100050000C944D4B0C9480010C94414B0C948001FA
:100060000C9480010C9480010C9480010C9480010C
:100070000C948B4B0C9480010C947F4B0C9480015E
:100080000C94FD650C9480010C9480013C3F786DCC
:100090006C2076657273696F6E3D27312E30272094
:1000A000656E636F64696E673D275554462D38272A
:1000B0003F3E3C68656C6C6F20786D6C6E733D22C2
:1000C00075726E3A696574663A706172616D733A01
:1000D000786D6C3A6E733A6E6574636F6E663A62F1
:1000E0006173653A312E30223E3C63617061626912
:1000F0006C69746965733E3C6361706162696C69C7
:1001000074793E75726E3A696574663A70617261AF
:100110006D733A6E6574636F6E663A626173653AC9
:10012000312E303C2F6361706162696C6974793E75
:100130003C2F6361706162696C69746965733E3CF0
:1001400073657373696F6E2D69643E313C2F7365FF
:100150007373696F6E2D69643E3C2F68656C6C6FBC
:100160003E00257325730A004F6E6C696E650A00A8
:100170000A002C20636865636B207261746520251A
:100180007520487A0025732025732C206368616EE2
:100190006E656C202575000A2A2A2A2A2A2A2A42F4
:1001A0006F6F74696E672025732A2A2A2A2A2A2AE1
:1001B0000A004641494C3A2D343720746F74616C03
:1001C0005F726561643D25640A004641494C3A2DE1
:1001D000343620723D25640A004641494C3A2D349C
:1001E000352C20746F74616C5F726561643D2564A9
:1001F00020723D25640A00436F756E743A25642CA5
:1002000020723D25640A004641494C3A2D34312084
:10021000746F74616C5F726561643D25640A0046A9
:1002200041494C3A2D343020723D25640A00464144
:10023000494C3A2D33392C20746F74616C5F7265B0
:1002400061643D256420723D25640A00436F756E2C
:10025000743A25642C20723D25640A004641494CBD
:100260003A2D333520746F74616C5F726561643D43
:1002700025640A004641494C3A2D333520723D250C
:10028000640A00436F756E743A25642C20723D2514
:10029000640A006275665B25645D20213D2025644B
:1002A0000A0072203D2025640A00723D25642E203C
:1002B0006275665B725D3D25640A00723D25640AC5
:1002C000000011241FBECFEFD0E4DEBFCDBF16E08B
:1002D000A0E0B1E0E6E5FCED00E00BBF02C0079056
:1002E0000D92AC34B107D9F715E3ACE4B6E001C028
:1002F0001D92A932B107E1F70E94CF3D0C94296EFF
:100300000C940000FC01009729F42FEF3FEF4FEF12
:100310005FEF08C024893589468957892F5F3F4F91
:100320004F4F5F4FB901CA010895FC01009731F0AA
:1003300083E0683E780714F07183608308958FE945
:1003400091E00895FC01009749F16115710531F1C3
:1003500012161306140615060CF5A281B381109728
:10036000E9F081E090E09183808316961D921D92C2
:100370001D921C9219977387628724873587468759
:100380005787108A118A128A138A148A158A168A44
:10039000178A118E108E21E030E002C020E030E09C
:1003A000C90108950E94A2010895FC01009709F473
:1003B00062C08081918186309105E1F1873091059D
:1003C000A4F48230910551F18330910544F40097F3
:1003D00009F451C08130910509F044C01CC084303B
:1003E000910511F105971CF51CC08A30910571F13A
:1003F0008B30910534F48830910511F109971CF583
:100400001CC08C30910541F18C30910514F18D3078
:10041000910541F524C020E031E02FC02CE131E00E
:100420002CC02AE231E029C025E431E026C022E6D2
:1004300031E023C027E831E020C026EA31E01DC0CA
:1004400025EC31E01AC023EE31E017C02EEF31E089
:1004500014C024E132E011C027E232E00EC02AE3EA
:1004600032E00BC0895E93401CF422E532E005C007
:1004700020E632E002C020E030E0C90108950E9489
:10048000D5010895FC0180899189680F791F77FD56
:1004900015C09B01442737FD4095542F84859585D1
:1004A000A685B785281739074A075B073CF40284FD
:1004B000F385E02DE60FF71F8081089580E0089511
:1004C000FC016089718977FD15C09B01442737FDC8
:1004D0004095542F84859585A685B78528173907BB
:1004E0004A075B073CF40284F385E02DE60FF71F13
:1004F0008081089580E00895EF92FF920F931F93FB
:10050000FC01208931894289538957FD2AC0E4843E
:10051000F584068517852E153F05400751070CF514
:10052000A285B385A20FB31F8C918A3079F08D30EC
:10053000C1F42F5F3F4F4F4F5F4F2E153F054007D0
:1005400051077CF411968C918A3059F084899589F1
:10055000A689B7890196A11DB11D848B958BA68BA9
:10056000B78B80899189A289B3890196A11DB11D9C
:10057000808B918BA28BB38B1F910F91FF90EF908B
:100580000895EF92FF920F931F93CF93DF937C0117
:100590008B01C0E0D0E004C0C7010E947C0221961C
:1005A000C017D107CCF3DF91CF911F910F91FF902E
:1005B000EF9008951F93CF93DF93EC012889398939
:1005C0004A895B8957FD09C08C859D85AE85BF85AD
:1005D000281739074A075B0734F083E090E09983D6
:1005E000888310E008C0EA85FB85E20FF31F1081C5
:1005F000CE010E947C02812FDF91CF911F9108953F
:10060000CF93DF93EC010AC0CE010E94DA02888109
:100610009981892B19F020E030E01BC06889798925
:1006200077FDF2CF9B01442737FD4095542F8C85F1
:100630009D85AE85BF85281739074A075B0724F7D4
:10064000EA85FB85E60FF71F80818132ECF221E01D
:1006500030E0C901DF91CF910895FC01009719F4B2
:1006600020E030E006C0168217821086118621E055
:1006700030E0C9010895FC01009719F420E030E052
:1006800004C0268137812F5F3F4FC9010895FC01C7
:10069000009719F420E030E002C0208D318DC901AF
:1006A0000895FC01009741F06115710529F0718FE3
:1006B000608F20E030E002C021E030E0C901089501
:1006C000FB019C01220F331F280F391F220F331FFC
:1006D000E20FF31F808191810895FB019C01220F9D
:1006E000331F280F391F2F5F3F4F220F331FE20F99
:1006F000F31F808191810895FB019C01220F331F1C
:10070000280F391F220F331FE20FF31F84819581B9
:100710000895FC0120E030E002C02F5F3F4F808150
:1007200091813696892BC9F7C901089508950F93D1
:100730001F93CF93DF93182F092FE82FF92FDF0195
:100740000D900020E9F7CD018E1B9F0B0E945E6883
:10075000EC01009721F0612F702F0E94166ACE01E4
:10076000DF91CF911F910F910895EF92FF920F9318
:100770001F93CF93DF93EC01E884F9840A851B85EE
:100780008A819B816115710571F1ADB7BEB71A976A
:100790000FB6F894BEBF0FBEADBFEDB7FEB7319632
:1007A0008E0D9F1D12969C938E93119780E792E079
:1007B000938382837583648357834683318720873D
:1007C0000E94B76A9C01442737FD4095542F2E0D97
:1007D0003F1D401F511F288739874A875B87EDB728
:1007E000FEB73A962EC06DB77EB7685070400FB610
:1007F000F8947EBF0FBE6DBFEDB7FEB731968E0D7C
:100800009F1DADB7BEB712969C938E9311978CE740
:1008100092E09383828355834483378326830E94A7
:10082000B76A9C01442737FD4095542F2E0D3F1D7C
:10083000401F511F288739874A875B87EDB7FEB76E
:1008400038960FB6F894FEBF0FBEEDBFDF91CF9183
:100850001F910F91FF90EF900895CF93DF93EC01DC
:10086000009749F088819981009711F00E940869EA
:10087000CE010E940869DF91CF910895CF92DF9257
:10088000EF92FF920F931F93CF93DF936B017C0145
:100890008AE090E00E945E68EC018C010097A9F06C
:1008A000C6010E945E6899838883009731F4CE0167
:1008B0000E94086900E010E008C0CA82DB82EC8276
:1008C000FD821E821F8218861986C801DF91CF9192
:1008D0001F910F91FF90EF90DF90CF900895CF93ED
:1008E000DF93EC0109C08A819B810E9408698C8199
:1008F0009D810E940869269688819981892B99F7A4
:10090000DF91CF910895AF92BF92CF92DF92EF9295
:10091000FF920F931F93CF93DF935C016A017B01DA
:100920000097A1F114161506160617067CF58AE144
:1009300090E00E945E68EC018C01009749F181E033
:1009400090E09983888360E072E080E090E00E940C
:100950003E049B838A83892B21F4CE010E9408697F
:1009600015C01F821E8219861886BB86AA86CC8671
:10097000DD86EE86FF86188A198A1A8A1B8A1C8AE7
:100980001D8A1E8A1F8A198E188E02C000E010E090
:10099000C801DF91CF911F910F91FF90EF90DF90F1
:1009A000CF90BF90AF9008950E9483040895AF92B6
:1009B000BF92CF92DF92EF92FF920F931F93CF934C
:1009C000DF93EC016B015A0188819981892BA9F48D
:1009D0008A819B8128853985820F931F65E872E0A3
:1009E0000E94166A88859985AA85BB850196A11DF6
:1009F000B11D88879987AA87BB878A819B81E884F4
:100A0000F9840A851B85C114D10481F12DB73EB745
:100A1000285030400FB6F8943EBF0FBE2DBFEDB743
:100A2000FEB731968E0D9F1DADB7BEB712969C9343
:100A30008E93119787E892E093838283D582C48254
:100A4000B782A6820E94B76A9C01442737FD409571
:100A5000542F2E0D3F1D401F511F288739874A876D
:100A60005B872DB73EB7285F3F4F27C000D000D02F
:100A700000D0EDB7FEB731968E0D9F1DADB7BEB756
:100A800012969C938E93119780E992E093838283D0
:100A9000B582A4820E94B76A9C01442737FD409525
:100AA000542F2E0D3F1D401F511F288739874A871D
:100AB0005B872DB73EB72A5F3F4F0FB6F8943EBF16
:100AC0000FBE2DBF81E090E099838883DF91CF91A5
:100AD0001F910F91FF90EF90DF90CF90BF90AF905C
:100AE0000895CF92DF92EF92FF920F931F93CF93CF
:100AF000DF93EC016B0188819981892BC9F48A818C
:100B00009B8128853985820F931F65E872E00E94DA
:100B1000166A88859985AA85BB850196A11DB11D98
:100B200088879987AA87BB8781E090E0998388832B
:100B3000C114D10489F1E884F9840A851B8500D0A9
:100B400000D000D0EDB7FEB731968A819B818E0D23
:100B50009F1DADB7BEB712969C938E93119786E9F1
:100B600092E093838283D582C4820E94B76A9C01FB
:100B7000442737FD4095542F2E0D3F1D401F511F18
:100B8000288739874A875B878DB79EB706960FB649
:100B9000F8949EBF0FBE8DBFDF91CF911F910F9133
:100BA000FF90EF90DF90CF900895AF92BF92CF92D9
:100BB000DF92EF92FF920F931F93CF93DF93EC019D
:100BC0006B015A0188819981892BA9F48A819B81C3
:100BD00028853985820F931F65E872E00E94166AA6
:100BE00088859985AA85BB850196A11DB11D888739
:100BF0009987AA87BB878A819B81E884F9840A85C3
:100C00001B85C114D10481F12DB73EB72850304067
:100C10000FB6F8943EBF0FBE2DBFEDB7FEB73196AD
:100C20008E0D9F1DADB7BEB712969C938E931197F4
:100C300089E992E093838283D582C482B782A682B7
:100C40000E94B76A9C01442737FD4095542F2E0D12
:100C50003F1D401F511F288739874A875B872DB763
:100C60003EB7285F3F4F27C000D000D000D0EDB77F
:100C7000FEB731968E0D9F1DADB7BEB712969C93F1
:100C80008E93119780EA92E093838283B582A48247
:100C90000E94B76A9C01442737FD4095542F2E0DC2
:100CA0003F1D401F511F288739874A875B872DB713
:100CB0003EB72A5F3F4F0FB6F8943EBF0FBE2DBF21
:100CC00019821882DF91CF911F910F91FF90EF90C1
:100CD000DF90CF90BF90AF900895CF92DF92EF92C8
:100CE000FF920F931F93CF93DF936C018B01F42E30
:100CF000E52E60E070E044EA52E00E94D505C601AE
:100D000060E070E04EEA52E098010E94B5032F2D9A
:100D10003E2DC901EC0110C080814A815B812C818C
:100D20003D81882321F4C60160E070E002C0C60165
:100D3000BF010E94B5032696E881F981309761F7DB
:100D4000DF91CF911F910F91FF90EF90DF90CF90A7
:100D50000895CF92DF92EF92FF920F931F93DF934C
:100D6000CF93CDB7DEB7C050D1400FB6F894DEBFF9
:100D70000FBECDBFF22EE32E80914D06853009F4D3
:100D800059C0863090F4823009F4C7C0833030F403
:100D90008823F1F0813009F0A9C329C0833009F418
:100DA00013C1843009F0A2C33AC1883009F403C2E8
:100DB000893038F4863009F4C0C1873009F096C311
:100DC000D8C1893009F411C28A3009F08FC321C219
:100DD0006430710509F08AC3822F932F69EB72E0AA
:100DE0000E940D6A009709F045C081E020C0643080
:100DF000710581F4822F932F6FEB72E00E940D6AD0
:100E0000009709F473C38F2D9E2D6CEC72E00E9445
:100E10000D6AEDC0672B09F069C3822F932F69EB30
:100E200072E00E940D6A009709F060C385E080932C
:100E30004D065CC36430710509F058C3822F932FAF
:100E40006FEF72E00E940D6A009709F04FC382E0D5
:100E500080934D0681E080934F06F8018281938153
:100E60006EEA72E00E940D6A009759F083E093E009
:100E70000E94826A8FEF80934D0680E180939D29C6
:100E800035C300D000D08AE093E0ADB7BEB712966C
:100E90009C938E931197F8018481958114969C936D
:100EA0008E9313970E94476A0F900F900F900F90A8
:100EB000D80114968D919C9115970E949703809369
:100EC0000D0B90930E0B1092100B10920F0B6801EC
:100ED0001FE0E12E1BE0F12E03E010E00BC00E94AA
:100EE0009703F701808391830F5F1F4F22E030E06B
:100EF000E20EF31ED60116968D919C911797E2E0B3
:100F0000F0E0CE0EDF1E009751F7000F111F015FBA
:100F1000144FD8011D921C92E9C26430710509F08A
:100F200049C0822F932F62E173E00E940D6A0097FF
:100F300071F560910D0B70910E0B8091230B9091C8
:100F4000240B4FE05BE00E946D068091230B909193
:100F5000240B60E070E040E253E00E94D5058091F0
:100F6000230B9091240B60E070E040E253E00E947C
:100F7000D7048091230B9091240B60E070E044EA49
:100F800052E00E94D70481E080934C06AFC28F2DBF
:100F90009E2D63E273E00E940D6A009709F4CBC0B6
:100FA0008F2D9E2D6EE273E00E940D6A009709F06E
:100FB0009DC219C1672B09F099C2822F932F6FEF41
:100FC00072E00E940D6A2FCF64307105D9F4822F30
:100FD000932F6AE373E00E940D6A009711F484E096
:100FE00026CF8F2D9E2D61E473E00E940D6A00973D
:100FF00009F47CC200D000D0EDB7FEB7319687ED82
:1010000092E032C0672B09F071C2822F932F63E206
:1010100073E00E940D6A009709F068C2A8C06430AE
:10102000710509F07CC0822F932F68E473E00E9461
:101030000D6A009771F18F2D9E2D60E573E00E947F
:101040000D6A009709F452C28F2D9E2D6AE573E058
:101050000E940D6A009709F449C200D000D0EDB794
:10106000FEB7319682E693E0ADB7BEB712969C9379
:101070008E931197F282E3820E94476A8FEF8093EA
:101080004D0680E180939D290F900F900F900F9057
:101090002DC260910D0B70910E0B8091230B9091DE
:1010A000240B4FE05BE00E946D068091230B909132
:1010B000240B60E070E040E953E00E94D505C09049
:1010C000230BD090240B85E993E061E070E00E944F
:1010D0004D428C017E010894E11CF11CB70140E0F7
:1010E00051E00E94DB3FC8010E94D63DC601B70116
:1010F0000E9471058091230B9091240B60E070E0B9
:1011000040E953E00E94D7048091230B9091240B77
:1011100060E070E044EA52E00E94D704E7C1672B28
:1011200009F0E4C1822F932F6AE373E00E940D6AF5
:10113000009709F0DBC183E07ACE6430710559F481
:10114000822F932F61EA73E00E940D6A009709F0E5
:101150005EC087E06CCE672B09F0C8C1822F932F49
:101160006EE273E00E940D6A009709F050C082E0C1
:101170005ECE6430710551F4822F932F68E473E0E2
:101180000E940D6A009709F4B1C141C0672B09F0B4
:10119000ADC1822F932F68E473E00E940D6A00971F
:1011A00009F4A4C18F2D9E2D61EA73E00E940D6A9F
:1011B000009769F521C16430710551F4822F932F96
:1011C0006AE373E00E940D6A009709F589E02FCE6B
:1011D000672B09F08BC1822F932F6AE373E00E9483
:1011E0000D6A0097A1F486E022CE6430710509F003
:1011F0007DC1822F932F68EA73E00E940D6A0097E9
:1012000031F410925106109250068AE010CE8FEF02
:101210000ECE6430710509F076C0822F932F6FEAED
:1012200073E00E940D6A009719F481E080935206E2
:1012300085E993E062E070E00E944D428C0160918C
:1012400050067091510640E050E00E94F73DC80101
:1012500063EB73E041E050E00E944C44C8010E94FF
:10126000D63D80915006909151060196909351067B
:101270008093500685E993E062E070E00E944D4261
:101280008C01609150067091510640E050E00E9440
:10129000F73DEF2DFE2DDF010D900020E9F71197AE
:1012A000AE1BBF0BC8016F2D7E2DAD010E944C44BB
:1012B000C8010E94D63DAF2DBE2DFD01019000203A
:1012C000E9F73197EA1BFB0B80915006909151068C
:1012D0008E0F9F1F909351068093500685E993E0EF
:1012E00062E070E00E944D428C0160915006709166
:1012F000510640E050E00E94F73DC80165E872E009
:1013000041E050E0E5C06330710509F040C085E977
:1013100093E062E070E00E944D428C0160915006C3
:101320007091510640E050E00E94F73DEF2DFE2DF8
:10133000DF010D900020E9F71197AE1BBF0BC8012C
:101340006F2D7E2DAD010E944C44C8010E94D63DF8
:10135000AF2DBE2DFD0101900020E9F73197EA1B6A
:10136000FB0B80915006909151068E0F9F1F90931A
:1013700051068093500680915206813009F0B6C024
:101380008F2D9E2D0E94183B10925206AFC0672BE6
:1013900009F0ACC0822F932F68EA73E00E940D6AB7
:1013A000009761F560910D0B70910E0B8091230BEE
:1013B0009091240B4FE05BE00E946D068091230B1F
:1013C0009091240B60E070E040E253E00E94D5056C
:1013D0008091230B9091240B60E070E040E253E099
:1013E0000E94D7048091230B9091240B60E070E061
:1013F00044EA52E00E94D70488E019CD85E993E0E1
:1014000062E070E00E944D428C0160915006709144
:10141000510640E050E00E94F73DC80165EB73E0E3
:1014200042E050E00E944C44C8010E94D63D8091A9
:101430005006909151060296909351068093500663
:1014400085E993E062E070E00E944D428C0160917A
:1014500050067091510640E050E00E94F73DEF2D9C
:10146000FE2DDF010D900020E9F71197AE1BBF0B99
:10147000C8016F2D7E2DAD010E944C44C8010E9411
:10148000D63DAF2DBE2DFD0101900020E9F731972B
:10149000EA1BFB0B80915006909151068E0F9F1F07
:1014A000909351068093500685E993E062E070E0E6
:1014B0000E944D428C01609150067091510640E0AF
:1014C00050E00E94F73DC80165E872E042E050E05C
:1014D0000E944C44C8010E94D63D809150069091D4
:1014E000510601969093510680935006C050DF4FED
:1014F0000FB6F894DEBF0FBECDBFCF91DF911F9125
:101500000F91FF90EF90DF90CF9008950F931F936E
:101510008C01FB0181E090E0D80111969C938E93A1
:1015200013967C936E931297108260E070E0F8013E
:10153000448355836683778318961D921D921D926E
:101540001C921B9712968D919C91139768EB73E0F8
:101550000E94166AF80180859185A285B3858696DA
:10156000A11DB11D80879187A287B3871F910F911D
:1015700008950F931F93CF93DF93FC01EB01009726
:1015800019F420E030E01CC0215030404040504071
:1015900086819781A085B18582179307A407B50737
:1015A00014F49C01AD01890160817181CE01A90112
:1015B0000E94D5690C0F1D1FF801108221E030E058
:1015C000C901DF91CF911F910F910895EF92FF9282
:1015D0000F931F93CF93DF938C01FC01E080F18088
:1015E00082819381A481B581880F991FAA1FBB1F97
:1015F0000E945E68EC01009719F420E030E01BC007
:10160000F80160817181428153810E94D569F8019E
:10161000D183C08382819381A481B581880F991F72
:10162000AA1FBB1F82839383A483B583C7010E9433
:10163000086921E030E0C901DF91CF911F910F913E
:10164000FF90EF900895CF93DF93EC010097E1F0C6
:101650002E813F81488559858A819B81AC81BD81DE
:10166000281739074A075B072CF0CE010E94E60ACB
:10167000892B51F0E881F9818E819F81E80FF91F54
:10168000108221E030E002C020E030E0C901DF91AB
:10169000CF910895CF93DF93EC010E94230B892B08
:1016A00019F420E030E002C028813981C901DF91BE
:1016B000CF9108951F93CF93DF93EC01162F0097DE
:1016C00029F12E813F81488559858A819B81AC8192
:1016D000BD81281739074A075B072CF0CE010E940D
:1016E000E60A892B99F08E819F81A885B985E881CA
:1016F000F981E80FF91F10830196A11DB11D8E839A
:101700009F83A887B98721E030E002C020E030E065
:10171000C901DF91CF911F9108950F931F93CF932C
:10172000DF938C01EB0109C0C8010E945A0B892B81
:1017300019F420E030E006C0219668816623A1F705
:1017400021E030E0C901DF91CF911F910F91089501
:10175000CF93DF93EC018A819B810E945A0B892BE6
:1017600019F021E030E006C082E090E099838883A0
:1017700020E030E0C901DF91CF9108950F931F93CE
:10178000CF93DF938C01EB0109C0C8010E94A80B25
:10179000892B19F420E030E006C021966881662389
:1017A000A1F721E030E0C901DF91CF911F910F91A6
:1017B00008950F931F93CF93DF938C010E94DA0259
:1017C000682F882339F4F80180819181892B09F4ED
:1017D00007C269C0863209F003C2F8012089318945
:1017E00037FD5CC04485558566857785C901AA2784
:1017F00097FDA095BA2F84179507A607B7070CF099
:101800004DC0C285D385FE01E20FF31FE081E332B4
:1018100009F07EC0C8010E947C02C8010E94DA0261
:10182000883709F04BC0C8010E94DA02982FC0E047
:10183000D0E040C0892F80538A3068F464E0CC0F38
:10184000DD1F6A95E1F7892F992787FD9095C80FCD
:10185000D91FE0972BC0892F8154863068F454E05B
:10186000CC0FDD1F5A95E1F7892F992787FD9095B9
:10187000C80FD91FE7971AC0892F8156863070F498
:1018800044E0CC0FDD1F4A95E1F7892F992787FDAA
:101890009095C80FD91FC755D04008C084E090E08C
:1018A000F8019183808320E030E09EC1C8010E944E
:1018B000DA02982F9B3309F0BDCF20C080538A30C5
:1018C00068F7C8010E94DA02982FC0E0D0E014C087
:1018D000892F80538A3010F734E0CC0FDD1F3A9502
:1018E000E1F7892F992787FD9095C80FD91FE097B9
:1018F000C8010E94DA02982F9B3351F7CF3FD105E0
:1019000021F01CF085E090E0CBCFC8016C2F69C1BD
:10191000E13609F09DC0F9013196F7FD3DC0CF01D8
:10192000AA2797FDA095BA2F84179507A607B70792
:101930009CF5EC0FFD1F80818D3671F5F901329613
:10194000F7FD2AC0CF01AA2797FDA095BA2F8417CB
:101950009507A607B70704F5EC0FFD1F80818037B8
:10196000D9F4F9013396F7FD17C0CF01AA2797FDE7
:10197000A095BA2F84179507A607B7076CF4EC0F4C
:10198000FD1F80818B3341F4C80164E070E00E9448
:10199000C102C80166E225C1F9013196F7FD7ECF8B
:1019A000CF01AA2797FDA095BA2F84179507A60700
:1019B000B7070CF073CFEC0FFD1F8081803709F063
:1019C0006DCFF9013296F7FD69CFCF01AA2797FDB8
:1019D000A095BA2F84179507A607B7070CF05ECF1E
:1019E000EC0FFD1F80818F3609F058CFF901339637
:1019F000F7FD54CFCF01AA2797FDA095BA2F8417E2
:101A00009507A607B7070CF049CFEC0FFD1F8081A3
:101A1000833709F043CF2C5F3F4F37FD3FCFC901DC
:101A2000AA2797FDA095BA2F84179507A607B70791
:101A30000CF034CFC20FD31F88818B3309F02ECF27
:101A4000C80165E070E00E94C102C80167E2C9C038
:101A5000E13709F05CC0F9013196F7FD1FCFCF01E6
:101A6000AA2797FDA095BA2F84179507A607B70751
:101A70000CF014CFEC0FFD1F8081853709F00ECFDD
:101A8000F9013296F7FD0ACFCF01AA2797FDA0955D
:101A9000BA2F84179507A607B7070CF0FFCEEC0FF7
:101AA000FD1F80818F3609F0F9CEF9013396F7FDDD
:101AB000F5CECF01AA2797FDA095BA2F84179507D9
:101AC000A607B7070CF0EACEEC0FFD1F8081843724
:101AD00009F0E4CE2C5F3F4F37FDE0CEC901AA27C5
:101AE00097FDA095BA2F84179507A607B7070CF0A6
:101AF000D5CEC20FD31F88818B3309F0CFCEC8015A
:101B000065E070E00E94C102C80162E26AC0EC3682
:101B100091F5F9013196F7FDC1CECF01AA2797FDC6
:101B2000A095BA2F84179507A607B7070CF0B6CE75
:101B3000EC0FFD1F8081843709F0B0CE2E5F3F4F40
:101B400037FDACCEC901AA2797FDA095BA2F8417FF
:101B50009507A607B7070CF0A1CEC20FD31F888147
:101B60008B3309F09BCEC80163E070E00E94C10294
:101B7000C8016CE336C0E73609F090CEF901319622
:101B8000F7FD8CCECF01AA2797FDA095BA2F841719
:101B90009507A607B7070CF081CEEC0FFD1F8081DB
:101BA000843709F07BCE2E5F3F4F37FD77CEC901DA
:101BB000AA2797FDA095BA2F84179507A607B70700
:101BC0000CF06CCEC20FD31F88818B3309F066CE28
:101BD000C80163E070E00E94C102C8016EE301C069
:101BE000C8010E94A80B9C01C901DF91CF911F91F0
:101BF0000F910895EF92FF920F931F93CF93DF936E
:101C0000EC016889798977FD5BC29B01442737FD28
:101C10004095542F8C859D85AE85BF852817390743
:101C20004A075B070CF04CC2EA85FB85E60FF71FFD
:101C300080818C3309F044C2CE010E947C02688905
:101C4000798977FD0CC29B01442737FD4095542FBD
:101C50008C859D85AE85BF85281739074A075B07A8
:101C60000CF0FDC1EA85FB85E60FF71FE081EF323E
:101C700009F047C082E090E09D838C83CE010E94F2
:101C80007C0206C0CE010E94D90B892B09F43EC20A
:101C90006889798977FD1BC09B01442737FD4095F2
:101CA000542F8C859D85AE85BF85281739074A0737
:101CB0005B076CF4EA85FB85E60FF71FE081E132F4
:101CC00034F0EE33F9F603C0CE010E947C0268893D
:101CD000798977FDF9CF2C853D854E855F85CB01D0
:101CE000AA2797FDA095BA2F82179307A407B507D7
:101CF0005CF7EA85FB85E60FF71F80818E3321F7BD
:101D0000AAC1EF3309F040C083E090E09D838C834B
:101D1000CE010E947C0206C0CE010E94D90B892B05
:101D200009F4F4C12889398937FDF6CFEC84FD84A4
:101D30000E851F85C901AA2797FDA095BA2F8E157C
:101D40009F05A007B10744F74A855B85FA01E20FBA
:101D5000F31F80818F3301F72F5F3F4F37FDDCCFBB
:101D6000C901AA2797FDA095BA2F8E159F05A00738
:101D7000B10794F6420F531FFA0180818E3361F64A
:101D8000CE0162E070E08EC0E13209F068C1CE01A0
:101D90000E947C022889398937FD39C14C855D85CF
:101DA0006E857F85C901AA2797FDA095BA2F841754
:101DB0009507A607B7070CF02AC10A851B85F8010D
:101DC000E20FF31FE081ED3209F06FC02F5F3F4F4C
:101DD00037FD1DC1C901AA2797FDA095BA2F841709
:101DE0009507A607B7070CF012C1020F131FF801E1
:101DF00080818D3209F00BC185E090E09D838C835A
:101E0000CE0162E070E00E94C10206C0CE010E94D5
:101E1000D90B892B09F47AC12889398937FDF6CF86
:101E20004C855D856E857F85C901AA2797FDA095A4
:101E3000BA2F84179507A607B70744F70A851B85AD
:101E4000F801E20FF31F80818D3201F7F90131961D
:101E5000F7FDDCCFCF01AA2797FDA095BA2F8417F5
:101E60009507A607B70794F6E00FF11F80818D3222
:101E700069F62E5F3F4F37FDC9CFC901AA2797FDED
:101E8000A095BA2F84179507A607B7070CF0BECF09
:101E9000020F131FF80180818E3309F0B7CFCE01F6
:101EA00063E070E00E94C1022EC1E43409F0AFC0CB
:101EB000F9013196F7FDABC0CF01AA2797FDA09598
:101EC000BA2F84179507A607B7070CF0A0C0E00F3C
:101ED000F11F80818F3409F09AC0F9013296F7FD25
:101EE00096C0CF01AA2797FDA095BA2F8417950712
:101EF000A607B7070CF08BC0E00FF11F8081833479
:101F000009F085C0F9013396F7FD81C0CF01AA27FA
:101F100097FDA095BA2F84179507A607B7070CF071
:101F200076C0E00FF11F8081843509F070C0F9019F
:101F30003496F7FD6CC0CF01AA2797FDA095BA2F64
:101F400084179507A607B7070CF061C0E00FF11FD3
:101F50008081893509F05BC0F9013596F7FD57C0DE
:101F6000CF01AA2797FDA095BA2F84179507A6073A
:101F7000B7070CF04CC0E00FF11F8081803509F0ED
:101F800046C02A5F3F4F37FD42C0C901AA2797FDCF
:101F9000A095BA2F84179507A607B707C4F5020FB7
:101FA000131FF8018081853491F584E090E09D83D2
:101FB0008C83CE0167E070E00E94C10201E010E076
:101FC0006889798977FD1DC09B01442737FD4095BD
:101FD000542F8C859D85AE85BF85281739074A0704
:101FE0005B077CF4EA85FB85E60FF71FE081EE33A3
:101FF00021F40150104029F42EC0EC3311F40F5F8E
:102000001F4FCE010E94D90B892BD1F67FC088E0EB
:1020100090E09D838C8306C0CE010E94D90B892B52
:1020200009F474C06889798977FDF6CF9B0144274C
:1020300037FD4095542F8C859D85AE85BF8528172B
:1020400039074A075B0744F7EA85FB85E60FF71F68
:1020500080818E3309F7CE010E947C0254C01D821C
:102060001C8206C0CE010E94D90B892B09F44EC0F8
:102070006889798977FD19C09B01442737FD409510
:10208000542F8C859D85AE85BF85281739074A0753
:102090005B075CF4EA85FB85E60FF71FE081E13220
:1020A00024F0EF3211F0EE33E9F6CE010E94000386
:1020B00020E0892B09F421E081E0282730E028C0C6
:1020C00087E090E09D838C8305C0CE010E94D90BF0
:1020D000892BE1F06889798977FDF7CF9B01442747
:1020E00037FD4095542F8C859D85AE85BF8528177B
:1020F00039074A075B074CF7EA85FB85E60FF71FB0
:1021000080818C3311F721E030E002C020E030E024
:10211000C901DF91CF911F910F91FF90EF9008952A
:102120001F93CF93DF93EC016889798977FD43C0D2
:102130009B01442737FD4095542F8C859D85AE85A6
:10214000BF85281739074A075B07ACF5EA85FB8589
:10215000E60FF71FE081EF3211F5CE010E947C02FD
:102160006889798977FD18C09B01442737FD409520
:10217000542F8C859D85AE85BF85281739074A0762
:102180005B0754F4EA85FB85E60FF71F80818E33E9
:1021900019F482E090E007C086E090E0ADC0EE3335
:1021A00051F481E090E09D838C83CE010E947C02FB
:1021B00021E030E0D4C086E090E09D838C8306C0AF
:1021C000CE010E94D90B892B09F4C7C0688979898F
:1021D00077FD17C09B01442737FD4095542F8C8510
:1021E0009D85AE85BF85281739074A075B074CF4E4
:1021F000EA85FB85E60FF71FE081ED3311F0E13250
:10220000FCF6CE010E940003892B09F4A6C0688960
:10221000798977FD15C09B01442737FD4095542FE0
:102220008C859D85AE85BF85281739074A075B07D2
:102230003CF4EA85FB85E60FF71F80818D3319F0AA
:102240008DE090E059C0CE010E947C028E819F817A
:10225000009791F048855985EA81FB81309719F400
:1022600020E030E004C0268137812F5F3F4F4217C6
:10227000530794F40E940869EA81FB81309719F4AE
:1022800080E090E003C086819781019699878887D6
:102290000E945E688E839F836E817F8161157105C8
:1022A00061F028853985442737FD4095542F8A8170
:1022B0009B810E94B90A892B19F482E090E01CC02E
:1022C000EA81FB81309721F01682178210861186F1
:1022D000CE010E940003892B09F43FC0CE010E9469
:1022E000DA02182F88819981892BB9F5173261F0AC
:1022F000123251F087E090E0998388832EC0CE019E
:102300000E94D90B892B49F16889798977FD14C01E
:102310009B01442737FD4095542F8C859D85AE85C4
:10232000BF85281739074A075B0734F4EA85FB8520
:10233000E60FF71FE08101C0E0E0E11701F7CE01F1
:102340000E947C02CE010E94000320E0892B09F448
:1023500021E081E0282730E002C020E030E0C90120
:10236000DF91CF911F910895EF92FF920F931F93EA
:10237000CF93DF937C018B0183E596E00E94BE162C
:10238000EC010FC0CE010296B701A8010E941D6AA0
:10239000009721F49E012A5E3F4F07C00990D88123
:1023A000C02D209779F720E030E0C901DF91CF916F
:1023B0001F910F91FF90EF900895EF92FF920F936E
:1023C0001F93CF93DF938C017B018CE590E00E94FB
:1023D0005E68EC01009719F420E030E010C002962E
:1023E000B8010E94166ACE014696B7010E94166A8D
:1023F00083E596E0BE010E94DA1621E030E0C901D3
:10240000DF91CF911F910F91FF90EF9008952F9240
:102410003F924F925F926F927F928F929F92AF9274
:10242000BF92CF92DF92EF92FF920F931F93DF93B1
:10243000CF93CDB7DEB76F970FB6F894DEBF0FBE60
:10244000CDBF6C011B011A821982DC0112968D919D
:102450009C9113970E944A0B892B61F0D60112962A
:102460008D919C9113970E944A0B0E9497035C01E7
:10247000009731F482E090E0F60191838083B2C14D
:10248000D6011296ED91FC911397309721F01682A8
:10249000178210861186C6010E949010892B09F0C0
:1024A000A9C09DC12630310509F0A1C0B6E06B1668
:1024B00019F48EE090E00BC0D60112968D919C919C
:1024C00013970E944A0B892B31F482E090E0F601C9
:1024D0009183808384C1D6011696ED90FC90179766
:1024E000C7016AE370E00E94026A8C010097D1F193
:1024F0004C018E189F088FED93E0B701A4010E9454
:102500001D6A0097F1F40F5F1F4F00D000D085EED9
:1025100093E0EDB7FEB792838183148303830E9417
:10252000476A0F900F900F900F90D60112968D91E1
:102530009C9113970E944A0BBC01C8010E94DD11B7
:1025400011C0C701B4010E94B4119C01009751F061
:10255000E72DF0E0EE0FFF1FE40DF51D3183208322
:10256000C8010FC0E72DF0E0EE0FFF1FE40DF51DD1
:102570008BEF93E091838083D60116968D919C9189
:1025800017970E949703BF8DEB2FF0E0EE0FFF1F10
:10259000E40DF51D80839183F601828193810E9471
:1025A0004A0B0E949703E62DF0E0EE0FFF1FE40DAB
:1025B000F51D80839183D6018D919C91892B09F023
:1025C0000EC1D6011296ED91FC911397309721F030
:1025D0001682178210861186C6010E949010B3E001
:1025E0006B0EEF8DED5FEF8F892B61F4F8C08CE0FF
:1025F00090E0C1C0F2E06F2EB1E0BF8F2E010894D1
:10260000411C511CEEEF7E2E760CF60124813581A3
:10261000C9010197029708F045CFE72DF0E0EE0FD2
:10262000FF1F4E010894811C911CE80DF91D1182B9
:102630001082C5016AE370E00E94026A7C01009783
:10264000C1F08CEF93E00E94826AB7016A197B099E
:10265000C5010E94B411182F092F0E94826A0894A4
:10266000E11CF11CC60164E070E0412F502F97017E
:1026700006C0C60164E070E04BEF53E095018401B1
:10268000F1010995CE0101960E946F04D6018D914A
:102690009C91892B09F0A3C0F60184819581019753
:1026A00009F06DC044C00115110539F4C601B1012E
:1026B0000E940712892B81F592C00730110561F540
:1026C000D60112968D919C9113970E944A0B892BEB
:1026D00009F4FBCED60112968D919C9113970E941E
:1026E0004A0B9C01C60163E070E04BEF53E000E051
:1026F00010E0F1010995F60180819181892B09F0A3
:102700006EC0D6011296ED91FC911397309721F08F
:102710001682178210861186D6011296ED91FC91D1
:102720001397309721F01682178210861186C60102
:102730000E94FA0D892B09F452C0F601048115811B
:102740000230110509F0AFCF828193810E944A0BBC
:10275000892B21F4D6010D931C9341C0F60182818F
:1027600093810E944A0BBC01C5010E940D6A00972B
:1027700031F08BE090E0D6018D939C9330C0D60170
:102780001296ED91FC911397309721F016821782E3
:1027900010861186C5016AE370E00E94026A8C010E
:1027A000009771F0BC016A197B09C5010E94B41140
:1027B000AC010F5F1F4FC60160E070E0980106C0DA
:1027C000C60160E070E04BEF53E0950100E010E0DF
:1027D000F1010995F60180819181892B31F0C501C4
:1027E0000E94086920E030E005C0C5010E94086928
:1027F00021E030E0C9016F960FB6F894DEBF0FBE3E
:10280000CDBFCF91DF911F910F91FF90EF90DF909F
:10281000CF90BF90AF909F908F907F906F905F9080
:102820004F903F902F9008950F931F93CF93DF9376
:10283000EC018B01009719F06115710519F488E01E
:1028400090E037C088819981019719F089E090E084
:1028500030C019821882CE010E940003EA81FB81F8
:10286000309721F01682178210861186CE010E94C1
:10287000FA0D892B29F4888199810397E1F417C017
:102880008C819D818330910531F38530910519F359
:102890008430910501F3892B51F483E596E00E9481
:1028A000BA16CE01B8010E9407129C0106C08AE048
:1028B00090E09983888320E030E0C901DF91CF91D7
:1028C0001F910F910895CF93DF93EC010E94141490
:1028D000892B19F020E030E002C028813981C9013C
:1028E000DF91CF9108950F931F93CF93DF93EC0166
:1028F000009721F18A819B81009711F00E942D049D
:102900008E819F81009711F00E94086983E596E00F
:102910000E94BE169C0107C010810181CF010E9458
:102920000869212F302FF90121153105A9F783E519
:1029300096E00E94BA16CE010E940869DF91CF91FD
:102940001F910F9108950E9473140895EF92FF92C2
:102950000F931F93DF93CF93CDB7DEB7C05BD44007
:102960000FB6F894DEBF0FBECDBF982F8091D42A4A
:10297000981709F06AC1198280914C06882369F082
:1029800080919D2984FD09C080E180939D2910924A
:102990004C0685E596E00E944E1880919D2986FFA1
:1029A00022C085E596E066EA7EE00E9450190DE5BA
:1029B00016E0C8016CE870E00E94C169C80165E0DA
:1029C00074E00E94F769F80101900020E9F731975F
:1029D000E01BF10BC801BF010E941E1B198210925F
:1029E0005D0610924D0680919D2981FF33C100D074
:1029F00000D08CE094E0EDB7FEB7928381838091A4
:102A00008D2490918E24948383830E94476A0F9033
:102A10000F900F900F9000918D2410918E24F2E072
:102A200002361F07F9F46091A2297091A3298DE560
:102A300096E00E94F76980914E068F5F80934E0664
:102A400090E0809FF001819FF00D909FF00D112488
:102A500080918D2490918E24E80FF91FE35AF94F4D
:102A60001082F8C085E596E00E943A19E091A2290B
:102A7000F091A32980918D2490918E24E80FF91F65
:102A800010826091A2297091A3298DE596E00E94A1
:102A9000F76980914E0690E002E612E0809FF00117
:102AA000819FF00D909FF00D112480918D249091C5
:102AB0008E24E80FF91FE35AF94F10827E01089423
:102AC000E11CF11CC7016DE576E00E94166A8CE0FE
:102AD00090E00E945E688093230B9093240B6DE539
:102AE00076E048EE53E00E94860A00D000D088E1EC
:102AF00094E0EDB7FEB792838183F482E3820E9473
:102B0000476A0F900F900F900F9080914E0690E0C3
:102B1000809FA001819F500D909F500D11248091A6
:102B20008D2490918E24480F591F60E070E0C701FA
:102B30000E948304182F092F69EA76E00E9463142B
:102B40009C0180919D2984FD5CC000D000D088E26A
:102B500094E0EDB7FEB792838183348323830E9490
:102B6000476AE091230BF091240B0F900F900F9088
:102B70000F90309709F445C082819381009709F442
:102B800040C068EB73E00E940D6A0097D1F100D05D
:102B900088E394E0EDB7FEB7928381830E94476A91
:102BA00000D000D0ADB7BEB71196EDB7FEB7F28238
:102BB000E18282E594E013969C938E931297E091C4
:102BC000230BF091240B8281938115969C938E9315
:102BD00014970E94B76A8DB79EB706960FB6F89401
:102BE0009EBF0FBE8DBFC7010E94826AF701019090
:102BF0000020E9F73197EE19FF09C701BF010E94D4
:102C00001E1B10925D06812F902F0E9473148091DD
:102C10004F06882399F00FE01BE002C00E9408696C
:102C2000F801819191918F010097C1F780910D0B6F
:102C300090910E0B0E94086910924F068091230B11
:102C40009091240B0E94086905C0983819F481E01E
:102C500080934C06C055DB4F0FB6F894DEBF0FBE15
:102C6000CDBFCF91DF911F910F91FF90EF9008950D
:102C70000F931F93CF93DF938C01FC01208131814F
:102C8000F1E0273B3F07A9F081E0213C380709F438
:102C900063C0232B09F065C08BE594E00E94826A33
:102CA00085E596E067E771E00E94501987EB91E0B7
:102CB0004EC0683809F04EC08BE098EB0E940F2898
:102CC0008DE794E00E94826A85E993E062E070E01B
:102CD0000E944D42EC01FFEF8F3F9F0749F068E9EA
:102CE00074E047E150E00E944C44CE010E94D63D82
:102CF00085E993E066E070E00E944D42EC018FEFC1
:102D0000CF3FD80751F0CE0160EB74E043E150E0D3
:102D10000E944C44CE010E94D63D85E993E066E0D6
:102D200070E00E944D42EC01EFEF8F3F9E0769F08B
:102D300064EC74E041E150E00E944C44CE010E94FA
:102D4000D63D86ED94E00E94183B81EC91E0F801BD
:102D50009183808381E009C0862FBA010E94A61466
:102D6000F4CFF8011182108283E0DF91CF911F919F
:102D70000F910895FC01118210820895FC01808159
:102D800091810895FC01DB018D919C919183808359
:102D90000895FC010190F081E02D309719F420E0B6
:102DA00030E006C09F010190F081E02D3097D1F70F
:102DB000C9010895CF93DF93EC01AB0128813981DC
:102DC00021153105D1F0F901A0E0B0E014C0E417FD
:102DD000F50761F480819181109719F499838883B4
:102DE00002C08D939C931182108207C0DF01808105
:102DF00091819C01F901309751F7FA0111821082FB
:102E000088819981009751F0FC01CF010190F081F8
:102E1000E02D3097D1F7FC01009719F459834883CE
:102E200002C051834083DF91CF910895CF93DF9308
:102E3000EC01AB012881398121153105D1F0F9016F
:102E4000A0E0B0E014C0E417F50761F4808191813F
:102E5000109719F49983888302C08D939C931182F3
:102E6000108207C0DF01808191819C01F9013097B8
:102E700051F788819981FA0191838083598348832E
:102E8000DF91CF910895CF93DF93EC01E881F98131
:102E9000309719F420E030E019C0DF018081918182
:102EA000892B21F4198218829F0110C02C91119650
:102EB0003C911197AD01C901DC018D919C91119755
:102EC000892BA1F7FA01118210829D01C901DF91BE
:102ED000CF910895DC01ED91FC911197309721F08D
:102EE000808191818D939C93CF010895CF93DF933F
:102EF000EC012881398121153105D1F0F901A0E0DB
:102F0000B0E014C0E617F70761F480819181109753
:102F100019F49983888302C08D939C931182108247
:102F200007C0DF01808191819C01F901309751F741
:102F3000DF91CF910895FC010190F081E02D20E018
:102F400030E005C02F5F3F4F0190F081E02D3097BA
:102F5000C9F7C90108950F931F93CF93DF938C0195
:102F6000FB01EA0161157105F9F4DC012D913C9139
:102F700021153105C1F0F901A0E0B0E012C0EC1755
:102F8000FD0751F480819181109709F4D8018D9348
:102F90009C931182108207C0DF01808191819C0186
:102FA000F901309761F7F8018081918199838883D5
:102FB000D183C083DF91CF911F910F910895FC01C0
:102FC000009719F420E030E002C020813181C9016E
:102FD000089520E030E0FC0186819781892B11F46F
:102FE00021E030E0C9010895FC0122813381808114
:102FF0009181280F391FC9010895FC0180819181B9
:1030000008952091250B3091260B2115310511F0E3
:1030100021E030E0C90108958091250B9091260BA5
:10302000892B19F420E030E004C02091270B309167
:10303000280BC90108958091250B9091260B892BAF
:1030400029F41092280B1092270B08950E94B14A80
:10305000BC01E091250BF091260B428153818081C8
:103060009181480F591F461B570B0CC02281338199
:1030700080819181280F391F261B370B24173507B4
:1030800008F4A9010480F581E02D309779F7460F07
:10309000571F5093280B4093270B0895CF93DF932E
:1030A000EC01E091250BF091260B8E179F0741F460
:1030B0008C819D819093260B8093250B14C0FC017D
:1030C000309731F0848195818C179D07C1F707C037
:1030D0001D821C821F821E82DF91CF9108958C81F8
:1030E0009D81958384830E941B18F2CFFC0180810F
:1030F0009181860F971F918380830E941B180895EA
:1031000080E095E00E947D560895EF92FF920F9324
:103110001F93CF93DF937C01FC0180819181009705
:1031200029F08A35910509F06DC00BC01092260B6D
:103130001092250B8AE590E0F7019183808381E06E
:1031400065C0673849F59A01E091250BF091260B8F
:1031500003C00480F581E02D309741F3868197818B
:1031600082179307B1F3E093250BF093260B0FC062
:1031700016968D919C9117978217930711F0FD0178
:1031800006C014968D919C91159795838483A48194
:10319000B581109769F7CECF623861F6C091250BE3
:1031A000D091260B00E010E02AC0CE010E9470579B
:1031B000892B01F18E819F8168E8AE010E941D5626
:1031C000892BA1F41F821E828C819D81011511051E
:1031D00021F0F8019583848304C09093260B80939B
:1031E000250B1D821C820E941B18D8CF80E095E021
:1031F0000E947D568E018C819D819C01E901209762
:10320000A1F698CFF7011182108283E0DF91CF9170
:103210001F910F91FF90EF900895CF93DF93EC01F2
:1032200080E095E00E947D568E819F81892B69F018
:10323000E091250BF091260B06C0EC17FD07A9F0D5
:103240000480F581E02D3097C1F78091FE169091B2
:10325000FF169F838E838091250B9091260B9D8373
:103260008C83D093260BC093250B0E941B18DF91F3
:10327000CF9108950F931F938C010E948857C80126
:103280000E940D191F910F9108950F931F938C01A8
:103290000E945157C8010E940D191F910F91089566
:1032A0000F931F938C010E949357C8010E940D1920
:1032B0001F910F910895FC015381560F5093942450
:1032C000272F33274281420F40939324A181A0935B
:1032D0009224E081E0939124842F90E08217930759
:1032E00048F48A2F8F5F80939224882319F4EF5F2C
:1032F000E0939124852F90E070708617970790F4E3
:10330000842F8F5F80939324882361F4809192248B
:103310008F5F80939224882329F4809191248F5F7A
:10332000809391240895FC0161507040680F791FCB
:1033300020E030E00EC0508140E08181DA01A80F2A
:10334000B11D2A0F3B1F2A173B0710F42F5F3F4F79
:103350003296E617F70778F3E617F70749F49081F6
:1033600080E0280F391F2817390710F42F5F3F4FCF
:10337000832F922F0895EDE9F4E240E050E0308190
:1033800020E08181B901680F711D460F571F461754
:10339000570710F44F5F5F4F329674E2E43CF70733
:1033A00070F384E2E43CF80751F4908180E0480F28
:1033B000591F4817590718F44F5F5F4F06C0411552
:1033C000510519F42FEF3FEF02C0342F252FC9010B
:1033D0000895CF93DF9390912A0BA92FB0E03091FD
:1033E000A12420E02A1B3B0B9091A224290F311D20
:1033F000A901480F511DE5EAF4E2708160E0818186
:10340000EB01C80FD11D4C0F5D1F4C175D0710F469
:103410004F5F5F4F329684E2E43CF80770F384E23A
:10342000E43CF80749F4908180E0480F591F4817A1
:10343000590710F44F5F5F4FFD01EB53FB4D2150D7
:1034400030402E0F3F1F0EC0708160E08181DB0194
:10345000A80FB11D4A0F5B1F4A175B0710F44F5F9F
:103460005F4F3296E217F30778F3E217F30751F450
:10347000908180E0480F591F4817590718F44F5F93
:103480005F4F06C04115510519F42FEF3FEF02C001
:10349000342F252FC901DF91CF9108958AE30E942F
:1034A000E919089586E00E94E919089581E10E94D2
:1034B000E9190895CF93DF93582FA92F4091CB2975
:1034C000E091B629F091B72920912D0B30912E0B68
:1034D0002F5F3F4FBDE720303B0710F020E030E189
:1034E000922F832F442319F0E817F90789F32093CB
:1034F0002D0B30932E0B80E090E0442329F41092A2
:103500002C0BE6EAF9E20AC0473011F486EA99E2A8
:10351000FC0181E080932C0B309771F182E085A350
:1035200080912F0B808F8091300B818F8091310B98
:10353000828F8091320B838F84EC94E0978F868FFB
:1035400091A380A381E090E0958F848F17A281E002
:1035500086A383E084A312A280E183A3308B218B16
:10356000738B628BEF01252F3A2FC901DC0180E1BB
:103570000D9009928150E1F7CF01DF91CF9108952D
:103580002091D6293091D7292817390739F410927C
:103590002C0B1092D7291092D629089581E08093A0
:1035A0002C0B08959C018091D6299091D729892BC5
:1035B00039F410922C0B3093D7292093D6290895F3
:1035C00081E080932C0B0895BC018091A4299091F7
:1035D000A52944960E945B19E091A429F091A529A0
:1035E00080919124848B80919224858B8091932467
:1035F000868B80919424878B0895282F892F922F72
:103600000895EF92FF920F931F939C014427552733
:10361000F22EE32E00E010E0362F272F40E050E09E
:10362000A90133272227E22AF32A042B152BB701FD
:10363000C8011F910F91FF90EF900895FC014091F8
:103640008F24509190242DE939E2241B350B621709
:1036500073070CF49B011216130664F42093D82907
:103660003093D929E417F50729F0CA01BF01A90150
:103670000E94D569089582E080932B0BA0912A0BBC
:103680002A2F30E0F901EB53FB4D8181682F70E068
:1036900043E0660F771F4A95E1F7695F7F4F42E08D
:1036A000285D3F4F3CC0F901E80FF91FE356FB4D81
:1036B0008081882319F0813019F42EC04F5F2FC00C
:1036C00090E0807C90708038910549F0803C9105B5
:1036D00049F08034910501F540932B0B09C04093CC
:1036E0002B0B08C040932B0B8091B5248F3F11F416
:1036F00081E00895242F30E040E050E02A0F311D92
:10370000411D511D285D3F4F4F4F5F4F84E062E0E8
:103710000E94782982E0089581818E5F480F842F6E
:1037200090E0681779070CF0BECF40932B0B80E038
:103730000895CF92DF92EF92FF920F931F93CF9352
:10374000DF93C091A429D091A529843009F471C2D6
:1037500009ED14E21093A3290093A2291093902459
:1037600000938F24833099F48DA1282F30E02F709F
:1037700030702330310529F48C8D9D8D892B09F40F
:1037800096C02230310511F00C94F5237FC08230B1
:1037900009F091C010928E2410928D241092D92994
:1037A0001092D8298091320B8F5F8093320B88233F
:1037B00099F48091310B8F5F8093310B882361F4F2
:1037C0008091300B8F5F8093300B882329F4809198
:1037D0002F0B8F5F80932F0B2DA1273011F02530F9
:1037E00051F48EA18F5F8EA3853011F00C94F523D8
:1037F0001DA20C94F523222311F40C94F5238C8D37
:103800009D8D892B09F44FC08EA181508EA38F5FAF
:1038100009F0EBC73FA1383029F02150223048F49D
:10382000353039F41DA280E880939D290E940E2531
:1038300087C6353010F080E307C083E090E002C017
:10384000880F991F3A95E2F78EA38FA18F5F8FA300
:103850008DA190E08F70907083309105F1F08430ED
:10386000910544F48130910509F4FEC3029709F0F3
:10387000BCC70CC08630910509F476C68830910526
:1038800009F472C6049709F0B0C76EC6E0912A0B1E
:10389000F0E0EB53FB4D1586EEC384E080939D2949
:1038A0000E940E258FC62F70233009F09EC788E036
:1038B00080939D2939C6853019F5E091A029F091B2
:1038C000A12980899189892B09F48FC71092A52994
:1038D0001092A429C8010C979093A3298093A22940
:1038E0009093902480938F241092D9291092D829F4
:1038F00010928E2410928D2488E080939D2997C188
:1039000080919D24807F803609F06FC79091A1241B
:1039100080E02091A224AC01420F511D9A018091B8
:103920008D2490918E248417950708F45EC7285D36
:103930003F4F30938E2420938D248091A5248F3F78
:1039400009F453C7C80184970E941936892B59F48A
:10395000C80184970E947F35892B29F48091B52472
:103960008F3F09F042C783EA94E290939F298093A6
:103970009E2910922A0B1092290BE0919E29F0911A
:103980009F2980818B3209F44BC08C3248F48630F9
:1039900009F4BFC1813109F4B4C0882389F06BC038
:1039A0008A3309F474C08B3320F48C3209F063C07D
:1039B0001CC78B3309F419C78C3309F05CC006C0EF
:1039C0008091290B80FD57C0816009C08091290B2F
:1039D00081FF04C086FD4FC0806401C08260809377
:1039E000290B0E943B1B813009F4FFC6813018F07F
:1039F000823019F602C720912A0BE22FF0E0CF01A6
:103A00008B539B4D90939F2980939E29285FFC01A7
:103A10008181880F880F880F280F20932A0BADCF44
:103A20008091290B82FD27C084608093290B90919F
:103A30002A0BE92FF0E0DF01AB53BB4D13968C91BD
:103A40001397882349F0BA969F01442737FD409584
:103A5000542F84E060E018C0B0939F29A0939E2962
:103A6000985FEB53FB4D8181880F880F880F980F6B
:103A700090932A0B82CFED59F4429F01442737FDE2
:103A80004095542F84E061E00E947829B6C60E94D8
:103A90004E1A8F5F9F4F09F0A8C6E0912A0BF0E005
:103AA000E356FB4D80A50E945825E0912A0BF0E0DB
:103AB000E356FB4D80A58538C1F0863818F4803870
:103AC000A1F410C0873829F0873848F0883869F4A5
:103AD00003C00E94CD2F0DC00E94722E0AC00E940A
:103AE000522A07C00E940B2904C010928E24109203
:103AF0008D2480918D2490918E24892B09F475C694
:103B00007CC680918D2490918E24C09790938E24B2
:103B100080938D248DEC94E29093A3298093A22925
:103B2000E0912A0BF0E0EB53FB4D86819781892BC6
:103B300031F00E94561A8F5F9F4F09F056C6E091F0
:103B40002A0BF0E0EB53FB4D82819381892B09F422
:103B50004CC68AED99E29093A1298093A02948C090
:103B60002889398921153105F1F180912A0BE82F37
:103B7000F0E0EB53FB4D828193818217930799F517
:103B80002A893B892115310529F08081918182178D
:103B9000930749F588819981892BE1F48A819B817A
:103BA000892BC1F48C819D81892BA1F48E819F8109
:103BB000892B81F488859985892B61F48A859B8579
:103BC000892B41F48C859D85892B21F48E859F85D9
:103BD000892BC1F085EA94E2BE0140E150E00E94E9
:103BE000C869009779F06996D093A129C093A0295C
:103BF000C091A029D091A129BAE2C43DDB0708F405
:103C0000AFCFF3C51092A5291092A42982E080932A
:103C10009D298DEC94E29093A3298093A2299093FF
:103C2000902480938F241092D9291092D8290E9431
:103C30000E252091D8293091D9292115310509F473
:103C4000D4C5C901C09690938E2480938D24285F9B
:103C50003F4F3093A12488528093A2244091A02901
:103C60005091A129EA018C898093A42481E1809359
:103C7000A324E0912A0BF0E0E356FB4DDF01989678
:103C800014963C93149715962C93159717961C929F
:103C90001E9216978889998991A780A78A899B89FE
:103CA00013969C938E931297A5EBB4E22091A029D2
:103CB0003091A129C901FC0180E101900D92815050
:103CC000E1F785EA94E265EB74E20E94E73289ED60
:103CD00094E29093A3298093A22980912A0BC82F64
:103CE000D0E0CB53DB4D0E94561A809590959F8370
:103CF0008E8380912A0BE82FF0E0EB53FB4D8681F9
:103D00009781892B09F067C58FEF9FEF9783868393
:103D100062C50E94521A8F5F9F4F09F066C580915D
:103D20002A0B082F10E00B531B4DD8011296ED9073
:103D3000FC901397E114F10409F457C5CD90DC9081
:103D4000C114D10409F451C5C6EAD9E28DA1882372
:103D5000A1F088899989E816F90679F48A899B89FE
:103D6000C816D90651F485EA94E2BE0140E150E05C
:103D70000E94C869009709F49BC1AC96B9E2C63AA3
:103D8000DB0721F318F3E8018D858F738230D1F4BE
:103D9000F092350BE092340B10922C0B41E00EC0E8
:103DA0002091340B3091350B8091D6299091D729F1
:103DB0002817390709F48AC040932C0B80912C0BEB
:103DC000882371F380912A0BE82FF0E0DF01AB53D9
:103DD000BB4D1D968C911D9782FD07C584E11D96F4
:103DE0008C931D978CE390E090938E2480938D2488
:103DF000FD0180E5848797811B968C911B97179610
:103E00008C931797938796811A968C911A9716968A
:103E10008C9316979287958119968C911997159680
:103E20008C9315979187948190932C0B18968C9175
:103E3000189714968C93149790871B968C911B97C8
:103E40008F5F1B968C931B978823C1F41A968C91D5
:103E50001A978F5F1A968C931A97882379F419967C
:103E60008C9119978F5F19968C931997882331F449
:103E700018968C9118978F5F18968C93E0912A0B67
:103E8000F0E0DF01A356BB4D98962D913C91999798
:103E90003093350B2093340BEB53FB4D8281938190
:103EA000918380839B963C932E939A97E5EBF4E263
:103EB000DF01509780E10D9001928150E1F785EA92
:103EC00094E265EB74E20E94E7325FC410922C0B1F
:103ED000C0E0D0E021E014C08091CB29882319F400
:103EE000C6EAD9E214C0873049F4209729F09091AE
:103EF000CC298EA1891710F4C6EAD9E220932C0BA5
:103F000080912C0B882341F3209709F46EC4D09341
:103F1000A529C093A42983E08EA38CA31AA284E0D0
:103F20008BA31FA2E0912A0BF0E0E356FB4D82A584
:103F300093A5998B888B80A591A59B8B8A8BDE019D
:103F4000E5EAF4E280E101900D928150E1F781E031
:103F50008DA380912F0B888F8091300B898F80915A
:103F6000310B8A8F8091320B8B8F81E090E09D8F97
:103F70008C8FE0912A0BF0E0EB53FB4D87818F8B08
:103F8000E0912A0BF0E0EB53FB4D86818E8BE091A4
:103F90002A0BF0E0EB53FB4D85818D8BE0912A0BD2
:103FA000F0E0EB53FB4D84818C8B81E090E00E942C
:103FB000E41AE0912A0BF0E0EB53FB4D848590E08E
:103FC000807F9070813591050CF44EC010922C0BBF
:103FD00035C0F901E356FB4D84AD8093330B882344
:103FE00009F442C0813021F44F5F40932C0B26C06E
:103FF0008230C1F485AD8430A9F436AD20E087ADC0
:1040000090E0822B932B9093350B8093340BE4E05C
:10401000853C9E0710F084EC94E09F8F8E8F99A3CF
:1040200088A322C080912C0BE82FF0E0E652FB4DD4
:10403000E081EE23C9F0E80FE0932C0B40912C0BAC
:10404000242F30E0E0912A0BF0E0EB53FB4D848508
:1040500082958F7090E00597880F991F880F991FA0
:10406000281739070CF4B5CFE0912A0BF0E0EB5399
:10407000FB4D80E18587E0912A0BF0E0DF01AB5337
:10408000BB4D1D968C911D9782601D968C931D973C
:10409000FD0182E0848B84E0858B868B84EC878BAA
:1040A00080E490E090938E2480938D2480E628C352
:1040B000D093A529C093A42910929D2980912A0B01
:1040C000E82FF0E0DF01AB53BB4D1D968C911D979F
:1040D00082FF03C01DA280E2ABC21C968C91829528
:1040E0008F70880F880F80932C0B20918D24309136
:1040F0008E2428523040281B310930938E2420937F
:104100008D248DA190E08F7090708230910539F4EC
:10411000EB53FB4D85858F73823149F42FC0019796
:1041200031F4EB53FB4D85858F73823039F1232BAE
:1041300059F4E0912A0BF0E0EB53FB4D858590E0BC
:1041400083709070892BD1F080912A0BE82FF0E0DA
:10415000EB53FB4D94818C89981761F495818D897F
:10416000981741F496818E89981721F497818F8949
:10417000981721F0858581FD77CFAFC2E0912A0B9A
:10418000F0E0EB53FB4D858584FF52C06C8D7D8D37
:104190006115710509F44CC0CE0148960E945B1967
:1041A00080912A0BE82FF0E0EB53FB4D20858091A6
:1041B00091242817E9F59185809192249817C1F5EB
:1041C000928580919324981799F5938580919424F2
:1041D000981771F5288F80919224898F809193246C
:1041E0008A8F809194248B8F8FA18823D1F42AA168
:1041F0009CA18EA1981B822F869586958695981BEB
:10420000392F320F3AA38BA1282F26952695821B92
:1042100097FD9195890F8BA3369536953695830F2B
:104220008CA381E080939D298CA18EA31D8E1C8E72
:104230008DA1282F30E0C9018F70907084309105D6
:1042400009F4FBC18530910564F48230910509F4CD
:104250003DC0833091050CF0D5C0019709F0C5C26F
:1042600010C08630910509F430C2863091050CF4F7
:1042700008C28730910509F430C2089709F0B5C229
:10428000D1C180919D2980FF16C083E08DA380E479
:1042900080939D291D8E1C8E20918D2430918E241B
:1042A0002115310509F43CC182E480939D29C9019F
:1042B0000E94E41A35C1E0912A0BF0E0EB53FB4D6C
:1042C00085858F73823009F090C2CECE80919D2972
:1042D00080FF8DC080912A0BE82FF0E0EB53FB4D5F
:1042E00085858F73823109F082C0848590E0807F5C
:1042F0009070813591050CF44EC010922C0B35C096
:10430000F901E356FB4D84AD8093330B882309F408
:1043100042C0813021F44F5F40932C0B26C0823085
:10432000C1F485AD8430A9F436AD20E087AD90E0CE
:10433000822B932B9093350B8093340BF4E0853CC8
:104340009F0710F084EC94E09F8F8E8F99A388A331
:1043500022C080912C0BE82FF0E0E652FB4DE0816B
:10436000EE23C9F0E80FE0932C0B40912C0B242F87
:1043700030E0E0912A0BF0E0EB53FB4D8485829511
:104380008F7090E00597880F991F880F991F281745
:1043900039070CF4B5CF83E08DA3E0912A0BF0E050
:1043A000EB53FB4D84818C8BE0912A0BF0E0EB53B7
:1043B000FB4D85818D8BE0912A0BF0E0EB53FB4D9B
:1043C00086818E8BE0912A0BF0E0EB53FB4D8781C9
:1043D0008F8B81E090E00E94E41A82E480939D2913
:1043E0001D8E1C8E10928E2410928D2499C080E216
:1043F00080939D290E940E25E091A429F091A52982
:1044000015A2E0CC80912A0BE82FF0E0EB53FB4D96
:10441000858580FF25C024FD23C08C8D9D8D892B33
:1044200009F0E3C180918D2490918E2401960E9421
:10443000E41A20919D29822F806180939D2980918B
:104440008D2490918E24892B19F0226120939D292F
:104450000E940E2581E090E09D8F8C8F88E082C0C5
:1044600085FF25C0328920E0838990E0282B392BF5
:104470008091A2299091A329820F931F9093A32941
:104480008093A229E0912A0BF0E0EB53FB4D328997
:1044900020E0838990E0282B392B80918D24909106
:1044A0008E24821B930B90938E2480938D242091D5
:1044B0008D2430918E242115310559F08DA184FD74
:1044C00008C080919D29826080939D29C9010E9426
:1044D000E41AE0912A0BF0E0EB53FB4D968580E067
:1044E0002785820F911D9093350B8093340B28A163
:1044F00039A12817390710F0892B21F43093350B97
:104500002093340B8091340B9091350B9F8F8E8FBD
:1045100080919D2990E083709070892B09F465C18A
:104520001092D9291092D8290E940E2580919D2998
:10453000282F85FF0CC01092D9291092D8291DA2CE
:10454000E0912A0BF0E0EB53FB4D84E1CCC084FFFB
:1045500012C01092D9291092D82981E090E09D8F45
:104560008C8F84E08DA31FA2E0912A0BF0E0EB5327
:10457000FB4D81E1B8C08091D8299091D929892B30
:1045800001F120FF02C01D8E1C8E8C8D9D8D009729
:10459000A1F42E8D3F8D8091D8299091D92928178B
:1045A000390720F43093D9292093D8298091D8292C
:1045B0009091D9299D8F8C8F04C09093D929809395
:1045C000D8291FA280918F24909190249093A329A1
:1045D0008093A2298091D8299091D929892B81F0A3
:1045E0008C8D9D8D009761F0CC9690938E24809356
:1045F0008D24E0912A0BF0E0EB53FB4D88E110C0D5
:1046000080919D2981FFF1C08CE390E090938E24EE
:1046100080938D24E0912A0BF0E0EB53FB4D80E179
:10462000858768C080919D2980FFDFC01DA280E141
:1046300080939D290E940E25D8C080918D24909151
:104640008E24009711F00E94E41AE0912A0BF0E00A
:10465000EB53FB4D858590919D2980FF0BC090FF0A
:1046600006C087E08DA31EA21D8E1C8E1DC086E095
:104670008DA31AC090FF22C085E08DA31D8E1C8ED5
:10468000B4C080918D2490918E24009711F00E94E7
:10469000E41AE0912A0BF0E0EB53FB4D858580FF97
:1046A0000DC087E08DA31EA281E090E00E94E41A75
:1046B00080E180939D290E940E250FC080918D245A
:1046C00090918E24892B49F490C080919D2980FF80
:1046D0008CC087E08DA31EA288C0E0912A0BF0E079
:1046E000EB53FB4D80E185878CE390E090938E2423
:1046F00080938D24E0912A0BF0E0EB53FB4D80E595
:104700008487A0912A0BB0E0A356BB4DFD01B8965B
:104710008C8980878D8981878E8982878F8983871D
:10472000888D8483898D85838A8D86838B8D87830D
:1047300086E08093A3248889998999969C938E9387
:1047400098978A899B8993838283A5EBB4E2FE01C3
:1047500080E101900D928150E1F785EA94E265EBEA
:1047600074E20E94E7328DA1E0912A0B84FF06C01B
:10477000F0E0EB53FB4D1786168607C0F0E0EB53D5
:10478000FB4D84E0868784EC87878091DA2A8093CA
:10479000A42480918D2490918E2488979093A124B5
:1047A00080918D2488528093A224E0912A0BF0E01E
:1047B0008F010B531B4DD80153961C925397529661
:1047C0001C92F801118A108A0E94521A80959095C5
:1047D000E801998B888B80E680939D2410929E241B
:1047E0001092A02410929F2408C010928E24109240
:1047F0008D2410922A0B1092290B10929D29DF9183
:10480000CF911F910F91FF90EF90DF90CF9008957F
:104810000F931F93CF93DF938C0120912D0B309139
:104820002E0BC9E1D0E02F5F3F4F8DE720303807D6
:1048300010F020E030E1522F432FA0E011C08A2F6A
:1048400090E08C9FF0018D9FF00D9C9FF00D112446
:10485000E652F64D80899189AF5F8417950719F369
:10486000AA3069F720932D0B30932E0B10922C0B4E
:1048700040E0A9E1B0E01CC0542F5F5F842F90E0BE
:104880008A9FF0018B9FF00D9A9FF00D1124E65244
:10489000F64D80899189892B51F440932C0B89E145
:1048A000489FD0011124A652B64D49F427C0452F88
:1048B0004A3010F340932C0BA0E0B0E01FC050969C
:1048C0003C93509751962C93519753967C936E93AB
:1048D00052970115110531F480E1ED0119928A9585
:1048E000E9F707C0ED01F80180E1019009928150DC
:1048F000E1F78091DA2A54968C935497CD01DF9199
:10490000CF911F910F9108950E9432381092D729AC
:104910001092D6291092CB2980E094E090932E0B30
:1049200080932D0B20E049E150E00EC0822F90E0F3
:10493000849FF001859FF00D949FF00D1124E652A5
:10494000F64D118A108A2F5F2A3080F320932C0BAA
:104950000895E091490BF0914A0B309711F480E0F3
:1049600008950995089590934A0B8093490B0895F3
:10497000FC018091FE169091FF1691A780A773A766
:1049800062A70895FC018091FE169091FF16968B08
:10499000858B708F678B08959C018091D2299091AF
:1049A000D329892B11F081E008958091FE16909112
:1049B000FF169093D3298093D2293093D529209341
:1049C000D42980E008952091FE163091FF16409181
:1049D000430B5091440B4817590789F48091450BBC
:1049E0009091460B8217930751F410923A0B109254
:1049F000440B1092430BCA010E94C01A089581E033
:104A000080933A0B08958BE39BE00E94E917892B72
:104A100021F08BE39BE00E943A190895CF93DF9336
:104A2000E091A429F091A529309719F0EF01A896FB
:104A300005C0C091A029D091A129659680919D299A
:104A400086FF1BC01092380B2091430B3091440B12
:104A5000808991892817390759F48091450B9091E5
:104A6000460B009729F0998388831B821A8203C022
:104A700081E08093380B0E940325888199810097FB
:104A800031F04A815B816091D42A0E944156DF91C6
:104A9000CF91089587E195E062E040E050E00E9408
:104AA000415610928E2410928D2410922A0B089554
:104AB000DF93CF930F92CDB7DEB789838091D22950
:104AC0009091D329009739F06091D52AAE014F5FBC
:104AD0005F4F0E9441560F90CF91DF910895AC0136
:104AE00087E195E060E00E941D560895AC0187E1E2
:104AF00095E061E00E941D5608950F931F93CF9398
:104B0000DF9380918D2490918E24009709F41FC12A
:104B10008150954008F00CC105EB14E28091B5245A
:104B20009091B624892B59F58091B7249091B8249F
:104B3000892B29F58091B9249091BA24892BF9F415
:104B40008091BB249091BC24892BC9F48091BD2411
:104B50009091BE24892B99F48091BF249091C02418
:104B6000892B69F48091C1249091C224892B39F456
:104B70008091C3249091C424892B09F4D9C08091D9
:104B8000B5248F3F09F4D9C085EB94E20E946734C5
:104B9000882379F485EB94E20E942634009731F45F
:104BA0000E9491368C01009721F4C2C08C010D5EE9
:104BB0001F4FC8010E947336EC01009709F051C0E5
:104BC000C80160E070E040E020E00E94FC388C0109
:104BD000009709F4ADC0EC01AE96CE0164EF71E030
:104BE0000E944B32892B99F0CE010E94FE312DE9B3
:104BF00034E240918D2450918E24B9010E94D569F0
:104C000060918D2470918E24CE010E941A3285EA23
:104C100094E20E941936A8014F5F5F4F892B19F06B
:104C200085EA94E202C080E090E060E070E00E94DB
:104C3000C02D6091E32A7091E42A8091E52A909139
:104C4000E62A28EE33E040E050E00E94B56DC8014E
:104C50008196BA01A9010E94985981E0F80183A7C1
:104C60006CC08DA58823E9F4AE96CE0164EF71E0A7
:104C70000E944B32892B09F45BC0CE010E94FE31A9
:104C80002DE934E240918D2450918E24B9010E9487
:104C9000D56960918D2470918E24CE010E941A32C4
:104CA00047C0823059F483E08DA7CE01499645E094
:104CB00050E060E070E00E9498591BA66091E32AE2
:104CC0007091E42A8091E52A9091E62A28EE33E05B
:104CD00040E050E00E94B56DCE018196BA01A90175
:104CE0000E9498598E010F5E1F4FC8010E94A9248F
:104CF000AE96CE010E940A32892BD1F0CE010E94DD
:104D00000A3290938E2480938D24CE010E94FE312E
:104D1000BC012DE934E240918D2450918E24C901CB
:104D20000E94D569CE010E942532C8010E94A924A3
:104D300010928E2410928D240AC080E090E00E9490
:104D4000A92410928E2410928D2410922A0BDF91A8
:104D5000CF911F910F910895DF92EF92FF920F93E1
:104D60001F93CF93DF937C018A01FC0180819181A5
:104D7000009729F08C50934009F0F9C026C010929A
:104D8000440B1092430B81E08093360B8091FE160A
:104D90009091FF169093480B8093470B0E94C2544A
:104DA0008093D42A0E94C2548093D52A8BE39BE03F
:104DB0006EE370E00E9450190E9484248CE093E01E
:104DC000F7019183808381E0D6C0623009F4B1C0DD
:104DD000633030F4662309F48EC0613079F79BC0EC
:104DE000673819F0683851F73CC01092370BC3E4AC
:104DF000DBE013C08A819B818017910741F4888191
:104E000099810E94C01A198218821B821A822496E4
:104E10008091370B8F5F8093370B8091370B8823FE
:104E200049F3EBECF9E2838194818017910719F43F
:104E3000148213821082BC96CF018597825D9942BD
:104E400090F3EAEDF9E208C0858996898017910709
:104E500011F4118A108A79968AE2E43DF807A1F7E5
:104E6000ADCFEBE04B335E0759F5CA010E94E9175D
:104E7000892B31F11092370B8CE2D82E1DC0809116
:104E8000CB298823A1F08BE39BE00E943A19809103
:104E9000370B8D9DC00111248A55964D9093A529FD
:104EA0008093A42982E00E94991B0E947D25809115
:104EB000370B8F5F8093370B8091370B8823F9F284
:104EC000F0E309321F0749F4C8010E94E917892B52
:104ED00021F00E94CC360E947D252CE20D32120773
:104EE00009F06CCFC8010E94E917892B09F466CF3D
:104EF0000E94A0391BC04115510509F45FCF5093A2
:104F0000A5294093A42983E00E94991B0E947D2536
:104F10000E94032553CF4115510509F44FCF5093FB
:104F2000A1294093A02985E00E94991B0E947D251C
:104F300045CF80918D2490918E24892B09F43ECF0A
:104F40008091A324863031F48091D22481FF02C065
:104F50000E94032581E00E94991B80918D249091ED
:104F60008E24892B09F42ACF0E944A2827CFF701E3
:104F70001182108283E0DF91CF911F910F91FF90FA
:104F8000EF90DF900895CF93DF93EA010E94082409
:104F9000FC01009741F08091FE169091FF16968BD0
:104FA000858BD08FC78BCF01DF91CF9108950F9361
:104FB0001F93DF93CF93CDB7DEB760970FB6F8940A
:104FC000DEBF0FBECDBF8C01AB018FEF92E09A83A5
:104FD00089831C821B821E821D8218861F821A866C
:104FE00019861C861B861E861D8680E091E0988BA4
:104FF0008F87CE010196B8010E94C327FC0100975C
:1050000011F0118B008BCF0160960FB6F894DEBFC4
:105010000FBECDBFCF91DF911F910F9108959C01DD
:105020008091430B9091440B892B91F41092390B92
:105030003093440B2093430B8091FE169091FF1602
:105040009093460B8093450BC9010E94D21A089594
:1050500081E08093390B08950F931F93CF93DF93D3
:105060008A010E945A1AEC01009771F08091FE1695
:105070009091FF1699A788A71BA70AA787E195E03B
:1050800060E0AE010E941D56CE01DF91CF911F91CD
:105090000F910895EF92FF920F931F938091A32495
:1050A000863009F05DC080918D2490918E248050CF
:1050B000954009F055C00EE912E010938E2400933C
:1050C0008D2492E0E92EE092A12486E7F82EF0925A
:1050D000A2241092D6241092D5240E94521A8095B0
:1050E00090959093D6248093D5240E947D2510938B
:1050F0008E2400938D24E092A124F092A22420918A
:10510000A2293091A329C901FC01DC01AE59BD4F90
:1051100082E692E00D9001920197E1F789EC94E22A
:1051200062E672E00E945B19809191248093C92409
:10513000809192248093CA24809193248093CB24DD
:10514000809194248093CC241092D6241092D5245C
:105150000E94521A809590959093D6248093D524DE
:105160000E947D251F910F91FF90EF900895EF927F
:10517000FF920F931F93CF93DF93F62EE42E8901B6
:1051800020E620939D2410929E241092A024109239
:105190009F242AE32093A3242091DA2A2093A42495
:1051A0000C5F1F4F212F332727FD3A9504501040E5
:1051B0002093A124202F2C5F2093A224A5EBB4E2FE
:1051C000FC0180E101900D928150E1F785EA94E2C3
:1051D00065EB74E20E94E73280912A0BC82FD0E081
:1051E000CB53DB4DF882E9821B821A820E944E1A51
:1051F000809590959B838A83045D1F4F10938E2426
:1052000000938D240E947D25DF91CF911F910F91F6
:10521000FF90EF9008952DE934E28091DA2A80938F
:10522000A4248091B5248F3F81F4D9015896F901C7
:10523000389680E101900D928150E1F785EA94E281
:1052400065EB74E20E94E7321BC0ABE4BBE0F901FE
:10525000389680E101900D928150E1F7E5EAF4E2A1
:10526000DF01509680E10D9001928150E1F7A5EBAE
:10527000B4E2EBE4FBE080E101900D928150E1F7B4
:1052800060912A0B662301F18AE38093A32470E0E6
:1052900040918D2450918E24461B570B50938E24A1
:1052A00040938D24485250405093A124485D5F4F55
:1052B000842F88528093A22467537B4D4C525040D8
:1052C00089EC94E20E94DE6910922A0B81E88093B7
:1052D000C5241092C6241092C8241092C7240E949C
:1052E0004E1A809590959093C8248093C724089572
:1052F000CF92DF92EF92FF920F931F93CF93DF93A2
:10530000D82EC62E79018A0110922A0B8091A324EF
:105310008A3321F48091C52487FF81C0ABE4BBE0D0
:10532000E5EBF4E280E101900D928150E1F780918C
:105330008D2490918E24C09690938E2480938D24FA
:105340008150954030F080E095E090938E248093DA
:105350008D2440918D2450918E24405350408DECEB
:1053600094E26DE974E20E94DE6980E680939D24F8
:1053700010929E241092A02410929F248AE380937E
:10538000A3248091DA2A8093A4248091A52490916B
:10539000A624892B51F58091A7249091A824892BCC
:1053A00021F58091A9249091AA24892BF1F4809170
:1053B000AB249091AC24892BC1F48091AD249091C1
:1053C000AE24892B91F48091AF249091B024892B45
:1053D00061F48091B1249091B224892B31F48091B1
:1053E000B3249091B424892BD1F0E5EBF4E2DF01F2
:1053F000509780E10D9001928150E1F780914B0B25
:105400008F3F91F484E0D81651F422E0C21639F4AB
:1054100085EA94E26BE47BE00E94E7320EC01092D2
:105420008E2410928D2435C0A5EAB4E2EBE4FBE0B3
:1054300080E101900D928150E1F7E0912A0BCE2F8F
:10544000D0E0FE01EB53FB4DD082C182C801B70111
:105450000E94011BC753DB4D688379838A839B833A
:1054600080918D2490918E2488979093A124889682
:1054700088528093A22480912A0BC82FD0E0CB536E
:10548000DB4D1B821A820E944E1A809590959B8359
:105490008A83DF91CF911F910F91FF90EF90DF9062
:1054A000CF900895DF92EF92FF920F931F93CF93C7
:1054B000DF938091A4248F3F09F0A5C28091A52499
:1054C0008E3F09F0A0C28091A624803809F09BC2CB
:1054D00080912A0B282F30E0F901EB53FB4D81819D
:1054E000882309F090C2F901E753FB4D808188239E
:1054F00011F08093DA2A6481758186819781611524
:1055000071058105910561F1E090DB2AF090DC2ABC
:105510000091DD2A1091DE2A0E94011BE616F70693
:1055200008071907E9F0E0912A0BF0E0E753FB4D7B
:1055300064817581868197810E94011B6093DB2ABB
:105540007093DC2A8093DD2A9093DE2A0E947F33B9
:105550006093DF2A7093E02A8093E12A9093E22AF5
:10556000E0912A0BF0E0E753FB4D60857185828561
:105570009385611571058105910551F00E94011B0C
:105580006093E32A7093E42A8093E52A9093E62AB5
:105590008CE080935B0B82E0D82EB6C1F901E35614
:1055A000FB4D8181882309F42EC28081833009F468
:1055B0005FC0853009F44DC0813009F095C1F0938A
:1055C0005D0BE0935C0B85EA94E20E947336FC016C
:1055D0009093730B8093720B009789F460915C0B2E
:1055E00070915D0B6E5F7F4F85EA94E241E022E0AF
:1055F0000E94FC389093730B8093720B75C185A544
:10560000882309F4D5A6C0915C0BD0915D0B22963E
:105610000091720B1091730B0F5E1F4FCE01B801FA
:1056200048E050E00E94C869009761F0D801FE018F
:1056300088E001900D928150E1F7E091720BF091BA
:10564000730BD5A6E091720BF091730B81E084A7E8
:105650004BC164817581868197810E94011B609393
:10566000D62A7093D72A8093D82A9093D92A3CC1FE
:10567000F0935F0BE0935E0B648175818681978167
:105680000E94011B7B018C01E0915E0BF0915F0B8E
:1056900060857185828593850E94011BE616F70659
:1056A0000807190708F420C1E0915E0BF0915F0B29
:1056B00080898E3F21F48189803809F415C1838166
:1056C00087FF5FC0CF01409662810E943736EC01B0
:1056D0009093710B8093700BE0915E0BF0915F0BD8
:1056E000009749F5648175818681978161157105FF
:1056F0008105910509F445C0EF0160966F3F2FEFDA
:1057000072072FEF82072FEF920741F012810E945C
:10571000011B9B01AC01CE01612F06C0CE0162814D
:1057200020E030E040E050E00E947F379093710B22
:105730008093700B26C06481758186819781611585
:1057400071058105910549F06F3F3FEF73073FEF0A
:1057500083073FEF930741F404C0CE010E947532E6
:1057600010C081E08A8F0DC00E94011BAB01BC01FB
:10577000CE0142960E949859E091700BF091710B06
:10578000128EE0915E0BF0915F0B838186FFACC0BF
:1057900084819581A681B7810097A105B10509F49F
:1057A000A3C08281803409F09FC0A0E6BBE0709660
:1057B00080E101900D928150E1F780E69BE065E980
:1057C00074E20E94E63380E69BE00E941936DC0119
:1057D0009093770B8093760B009709F45EC05296F6
:1057E0002C915297213009F058C0E0915E0BF09156
:1057F0005F0B64817581868197816F3F3FEF7307EF
:105800003FEF83073FEF930709F444C00E94011B59
:1058100061527C4180409040C0F4E0915E0BF09179
:105820005F0B64817581868197810E94011B7B01DA
:105830008C018091760B9091770B44960E943C5995
:105840006E157F0580079107A0F40091760B1091EB
:10585000770B0C5E1F4FE0915E0BF0915F0B648144
:105860007581868197810E94011BAB01BC01C80133
:1058700009C08091760B9091770B449640E25CE1F1
:1058800060E070E00E949859E091760BF091770B00
:10589000138A2AC053962C9327C0E0915E0BF09197
:1058A0005F0B64817581868197810E94011B6F5F08
:1058B0007F4F8F4F9F4F39F480E69BE040E050E0F0
:1058C00060E070E00EC0E0915E0BF0915F0B6481D0
:1058D0007581868197810E94011BAB01BC0180E626
:1058E0009BE021E00E94E73680915B0BE0912A0B60
:1058F000F0E0E356FB4DE80FF11D95A5990F990FC8
:10590000990F980F90935B0B90912A0B80915B0BF2
:10591000282F30E0290F311D245D3F4F80918D24C9
:1059200090918E242817390708F438CE85EA94E23E
:105930000E9455369C019093750B8093740B809157
:105940002A0BE82FF0E0E753FB4D82819381892BEE
:1059500029F1A091720BB091730B109719F081E0AF
:105960009C968C93C091740BD091750B828193811E
:10597000209751F40E94FD1AAC0160E070E085EAC6
:1059800094E20E94D53710C00E94FD1AAC0160E07D
:1059900070E0CE0141960E94985906C0211531054C
:1059A00019F0C9010E9470328091720B9091730BB3
:1059B000009749F18E960E940A32892B21F180913D
:1059C000720B9091730B8E960E940A3290938E24E4
:1059D00080938D248091720B9091730B8E960E9410
:1059E000FE31BC012DE934E240918D2450918E248A
:1059F000C9010E94D5698091720B9091730B8E96AC
:105A00000E94253204C010928E2410928D24DF91C2
:105A1000CF911F910F91FF90EF90DF900895CF935A
:105A2000DF93FC01608382E08183EF012296A5E988
:105A3000B4E288E00D9009928150E1F7CF010A9617
:105A4000FC0186E0DF011D928A95E9F7DF91CF9195
:105A50000895CF93DF938DE994E220E620939D246F
:105A600010929E241092A02410929F242AE3209347
:105A7000A3242FEF2093A424FC0178962FEF32E08B
:105A80003093B6242093B524138212821582148297
:105A90001782168211861086138612861586148642
:105AA00020E032E0378726870896BF010E94E73260
:105AB00040912A0B242F30E0F901EB53FB4D85E890
:105AC000808311821092A1248091A5249091A62414
:105AD000892BA1F58091A7249091A824892B71F599
