:100000000C9419090C9438090C9438090C9438098B
:100010000C9438090C9438090C9438090C9438095C
:100020000C9438090C94615B0C9438090C943809D1
:100030000C94C3740C9438090C9438090C94AC7467
:100040000C94026D0C9438090C9438090C943809FE
:100050000C94506D0C9438090C94446D0C94380930
:100060000C9438090C9438090C9438090C9438090C
:100070000C948E6D0C9438090C94826D0C94380994
:100080000C948B860C9438090C943809C6A56363CC
:10009000F8847C7CEE997777F68D7B7BFF0DF2F20E
:1000A000D6BD6B6BDEB16F6F9154C5C560503030FB
:1000B00002030101CEA96767567D2B2BE719FEFECF
:1000C000B562D7D74DE6ABABEC9A76768F45CACA08
:1000D0001F9D82828940C9C9FA877D7DEF15FAFA92
:1000E000B2EB59598EC94747FB0BF0F041ECADAD6F
:1000F000B367D4D45FFDA2A245EAAFAF23BF9C9CF7
:1001000053F7A4A4E49672729B5BC0C075C2B7B7E4
:10011000E11CFDFD3DAE93934C6A26266C5A3636A3
:100120007E413F3FF502F7F7834FCCCC685C343417
:1001300051F4A5A5D134E5E5F908F1F1E293717127
:10014000AB73D8D8625331312A3F1515080C04041B
:100150009552C7C7466523239D5EC3C33028181830
:1001600037A196960A0F05052FB59A9A0E0907072B
:10017000243612121B9B8080DF3DE2E2CD26EBEBA2
:100180004E6927277FCDB2B2EA9F7575121B090908
:100190001D9E838358742C2C342E1A1A362D1B1B4B
:1001A000DCB26E6EB4EE5A5A5BFBA0A0A4F65252BB
:1001B000764D3B3BB761D6D67DCEB3B3527B292972
:1001C000DD3EE3E35E712F2F13978484A6F553532E
:1001D000B968D1D100000000C12CEDED40602020B5
:1001E000E31FFCFC79C8B1B1B6ED5B5BD4BE6A6AB3
:1001F0008D46CBCB67D9BEBE724B393994DE4A4AA5
:1002000098D44C4CB0E85858854ACFCFBB6BD0D06F
:10021000C52AEFEF4FE5AAAAED16FBFB86C54343BF
:100220009AD74D4D66553333119485858ACF454510
:10023000E910F9F904060202FE817F7FA0F0505018
:1002400078443C3C25BA9F9F4BE3A8A8A2F35151A8
:100250005DFEA3A380C04040058A8F8F3FAD929280
:1002600021BC9D9D70483838F104F5F563DFBCBCB6
:1002700077C1B6B6AF75DADA4263212120301010AB
:10028000E51AFFFFFD0EF3F3BF6DD2D2814CCDCD49
:1002900018140C0C26351313C32FECECBEE15F5F72
:1002A00035A2979788CC44442E3917179357C4C466
:1002B00055F2A7A7FC827E7E7A473D3DC8AC6464B8
:1002C000BAE75D5D322B1919E6957373C0A06060C3
:1002D000199881819ED14F4FA37FDCDC4466222296
:1002E000547E2A2A3BAB90900B8388888CCA464662
:1002F000C729EEEE6BD3B8B8283C1414A779DEDE1C
:10030000BCE25E5E161D0B0BAD76DBDBDB3BE0E09B
:1003100064563232744E3A3A141E0A0A92DB494944
:100320000C0A0606486C2424B8E45C5C9F5DC2C2DB
:10033000BD6ED3D343EFACACC4A6626239A8919131
:1003400031A49595D337E4E4F28B7979D532E7E798
:100350008B43C8C86E593737DAB76D6D018C8D8DF8
:10036000B164D5D59CD24E4E49E0A9A9D8B46C6CE5
:10037000ACFA5656F307F4F4CF25EAEACAAF65653E
:10038000F48E7A7A47E9AEAE101808086FD5BABA7B
:10039000F08878784A6F25255C722E2E38241C1C34
:1003A00057F1A6A673C7B4B49751C6C6CB23E8E8E5
:1003B000A17CDDDDE89C74743E211F1F96DD4B4B54
:1003C00061DCBDBD0D868B8B0F858A8AE0907070D5
:1003D0007C423E3E71C4B5B5CCAA666690D848480A
:1003E00006050303F701F6F61C120E0EC2A36161A7
:1003F0006A5F3535AEF9575769D0B9B91791868616
:100400009958C1C13A271D1D27B99E9ED938E1E1EF
:10041000EB13F8F82BB3989822331111D2BB69690A
:10042000A970D9D907898E8E33A794942DB69B9B3A
:100430003C221E1E15928787C920E9E98749CECE46
:10044000AAFF555550782828A57ADFDF038F8C8CBA
:1004500059F8A1A1098089891A170D0D65DABFBF66
:10046000D731E6E684C64242D0B8686882C34141CB
:1004700029B099995A772D2D1E110F0F7BCBB0B053
:10048000A8FC54546DD6BBBB2C3A161663C6A563A4
:100490007CF8847C77EE99777BF68D7BF2FF0DF20A
:1004A0006BD6BD6B6FDEB16FC59154C530605030F7
:1004B0000102030167CEA9672B567D2BFEE719FECB
:1004C000D7B562D7AB4DE6AB76EC9A76CA8F45CA04
:1004D000821F9D82C98940C97DFA877DFAEF15FA8E
:1004E00059B2EB59478EC947F0FB0BF0AD41ECAD6B
:1004F000D4B367D4A25FFDA2AF45EAAF9C23BF9CF3
:10050000A453F7A472E49672C09B5BC0B775C2B7E0
:10051000FDE11CFD933DAE93264C6A26366C5A369F
:100520003F7E413FF7F502F7CC834FCC34685C3413
:10053000A551F4A5E5D134E5F1F908F171E2937123
:10054000D8AB73D831625331152A3F1504080C0417
:10055000C79552C723466523C39D5EC3183028182C
:100560009637A196050A0F059A2FB59A070E090727
:1005700012243612801B9B80E2DF3DE2EBCD26EB9E
:10058000274E6927B27FCDB275EA9F7509121B0904
:10059000831D9E832C58742C1A342E1A1B362D1B47
:1005A0006EDCB26E5AB4EE5AA05BFBA052A4F652B7
:1005B0003B764D3BD6B761D6B37DCEB329527B296E
:1005C000E3DD3EE32F5E712F8413978453A6F5532A
:1005D000D1B968D100000000EDC12CED20406020B1
:1005E000FCE31FFCB179C8B15BB6ED5B6AD4BE6AAF
:1005F000CB8D46CBBE67D9BE39724B394A94DE4AA1
:100600004C98D44C58B0E858CF854ACFD0BB6BD06B
:10061000EFC52AEFAA4FE5AAFBED16FB4386C543BB
:100620004D9AD74D3366553385119485458ACF450C
:10063000F9E910F9020406027FFE817F50A0F05014
:100640003C78443C9F25BA9FA84BE3A851A2F351A4
:10065000A35DFEA34080C0408F058A8F923FAD927C
:100660009D21BC9D38704838F5F104F5BC63DFBCB2
:10067000B677C1B6DAAF75DA2142632110203010A7
:10068000FFE51AFFF3FD0EF3D2BF6DD2CD814CCD45
:100690000C18140C13263513ECC32FEC5FBEE15F6E
:1006A0009735A2974488CC44172E3917C49357C462
:1006B000A755F2A77EFC827E3D7A473D64C8AC64B4
:1006C0005DBAE75D19322B1973E6957360C0A060BF
:1006D000811998814F9ED14FDCA37FDC2244662292
:1006E0002A547E2A903BAB90880B8388468CCA465E
:1006F000EEC729EEB86BD3B814283C14DEA779DE18
:100700005EBCE25E0B161D0BDBAD76DBE0DB3BE097
:10071000326456323A744E3A0A141E0A4992DB4940
:10072000060C0A0624486C245CB8E45CC29F5DC2D7
:10073000D3BD6ED3AC43EFAC62C4A6629139A8912D
:100740009531A495E4D337E479F28B79E7D532E794
:10075000C88B43C8376E59376DDAB76D8D018C8DF4
:10076000D5B164D54E9CD24EA949E0A96CD8B46CE1
:1007700056ACFA56F4F307F4EACF25EA65CAAF653A
:100780007AF48E7AAE47E9AE08101808BA6FD5BA77
:1007900078F08878254A6F252E5C722E1C38241C30
:1007A000A657F1A6B473C7B4C69751C6E8CB23E8E1
:1007B000DDA17CDD74E89C741F3E211F4B96DD4B50
:1007C000BD61DCBD8B0D868B8A0F858A70E09070D1
:1007D0003E7C423EB571C4B566CCAA664890D84806
:1007E00003060503F6F701F60E1C120E61C2A361A3
:1007F000356A5F3557AEF957B969D0B98617918612
:10080000C19958C11D3A271D9E27B99EE1D938E1EB
:10081000F8EB13F8982BB3981122331169D2BB6906
:10082000D9A970D98E07898E9433A7949B2DB69B36
:100830001E3C221E87159287E9C920E9CE8749CE42
:1008400055AAFF5528507828DFA57ADF8C038F8CB6
:10085000A159F8A1890980890D1A170DBF65DABF62
:10086000E6D731E64284C64268D0B8684182C341C7
:100870009929B0992D5A772D0F1E110FB07BCBB04F
:1008800054A8FC54BB6DD6BB162C3A166363C6A5A0
:100890007C7CF8847777EE997B7BF68DF2F2FF0D06
:1008A0006B6BD6BD6F6FDEB1C5C5915430306050F3
:1008B000010102036767CEA92B2B567DFEFEE719C7
:1008C000D7D7B562ABAB4DE67676EC9ACACA8F4500
:1008D00082821F9DC9C989407D7DFA87FAFAEF158A
:1008E0005959B2EB47478EC9F0F0FB0BADAD41EC67
:1008F000D4D4B367A2A25FFDAFAF45EA9C9C23BFEF
:10090000A4A453F77272E496C0C09B5BB7B775C2DC
:10091000FDFDE11C93933DAE26264C6A36366C5A9B
:100920003F3F7E41F7F7F502CCCC834F3434685C0F
:10093000A5A551F4E5E5D134F1F1F9087171E2931F
:10094000D8D8AB733131625315152A3F0404080C13
:10095000C7C7955223234665C3C39D5E1818302828
:10096000969637A105050A0F9A9A2FB507070E0923
:100970001212243680801B9BE2E2DF3DEBEBCD269A
:1009800027274E69B2B27FCD7575EA9F0909121B00
:1009900083831D9E2C2C58741A1A342E1B1B362D43
:1009A0006E6EDCB25A5AB4EEA0A05BFB5252A4F6B3
:1009B0003B3B764DD6D6B761B3B37DCE2929527B6A
:1009C000E3E3DD3E2F2F5E71848413975353A6F526
:1009D000D1D1B96800000000EDEDC12C20204060AD
:1009E000FCFCE31FB1B179C85B5BB6ED6A6AD4BEAB
:1009F000CBCB8D46BEBE67D93939724B4A4A94DE9D
:100A00004C4C98D45858B0E8CFCF854AD0D0BB6B67
:100A1000EFEFC52AAAAA4FE5FBFBED16434386C5B7
:100A20004D4D9AD7333366558585119445458ACF08
:100A3000F9F9E910020204067F7FFE815050A0F010
:100A40003C3C78449F9F25BAA8A84BE35151A2F3A0
:100A5000A3A35DFE404080C08F8F058A92923FAD78
:100A60009D9D21BC38387048F5F5F104BCBC63DFAE
:100A7000B6B677C1DADAAF752121426310102030A3
:100A8000FFFFE51AF3F3FD0ED2D2BF6DCDCD814C41
:100A90000C0C181413132635ECECC32F5F5FBEE16A
:100AA000979735A2444488CC17172E39C4C493575E
:100AB000A7A755F27E7EFC823D3D7A476464C8ACB0
:100AC0005D5DBAE71919322B7373E6956060C0A0BB
:100AD000818119984F4F9ED1DCDCA37F222244668E
:100AE0002A2A547E90903BAB88880B8346468CCA5A
:100AF000EEEEC729B8B86BD31414283CDEDEA77914
:100B00005E5EBCE20B0B161DDBDBAD76E0E0DB3B93
:100B1000323264563A3A744E0A0A141E494992DB3C
:100B200006060C0A2424486C5C5CB8E4C2C29F5DD3
:100B3000D3D3BD6EACAC43EF6262C4A6919139A829
:100B4000959531A4E4E4D3377979F28BE7E7D53290
:100B5000C8C88B4337376E596D6DDAB78D8D018CF0
:100B6000D5D5B1644E4E9CD2A9A949E06C6CD8B4DD
:100B70005656ACFAF4F4F307EAEACF256565CAAF36
:100B80007A7AF48EAEAE47E908081018BABA6FD573
:100B90007878F08825254A6F2E2E5C721C1C38242C
:100BA000A6A657F1B4B473C7C6C69751E8E8CB23DD
:100BB000DDDDA17C7474E89C1F1F3E214B4B96DD4C
:100BC000BDBD61DC8B8B0D868A8A0F857070E090CD
:100BD0003E3E7C42B5B571C46666CCAA484890D802
:100BE00003030605F6F6F7010E0E1C126161C2A39F
:100BF00035356A5F5757AEF9B9B969D0868617910E
:100C0000C1C199581D1D3A279E9E27B9E1E1D938E7
:100C1000F8F8EB1398982BB3111122336969D2BB02
:100C2000D9D9A9708E8E0789949433A79B9B2DB632
:100C30001E1E3C2287871592E9E9C920CECE87493E
:100C40005555AAFF28285078DFDFA57A8C8C038FB2
:100C5000A1A159F8898909800D0D1A17BFBF65DA5E
:100C6000E6E6D731424284C66868D0B8414182C3C3
:100C7000999929B02D2D5A770F0F1E11B0B07BCB4B
:100C80005454A8FCBBBB6DD616162C3AA56363C69C
:100C9000847C7CF8997777EE8D7B7BF60DF2F2FF02
:100CA000BD6B6BD6B16F6FDE54C5C59150303060EF
:100CB00003010102A96767CE7D2B2B5619FEFEE7C3
:100CC00062D7D7B5E6ABAB4D9A7676EC45CACA8FFC
:100CD0009D82821F40C9C989877D7DFA15FAFAEF86
:100CE000EB5959B2C947478E0BF0F0FBECADAD4163
:100CF00067D4D4B3FDA2A25FEAAFAF45BF9C9C23EB
:100D0000F7A4A453967272E45BC0C09BC2B7B775D8
:100D10001CFDFDE1AE93933D6A26264C5A36366C97
:100D2000413F3F7E02F7F7F54FCCCC835C3434680B
:100D3000F4A5A55134E5E5D108F1F1F9937171E21B
:100D400073D8D8AB533131623F15152A0C0404080F
:100D500052C7C795652323465EC3C39D2818183024
:100D6000A19696370F05050AB59A9A2F0907070E1F
:100D7000361212249B80801B3DE2E2DF26EBEBCD96
:100D80006927274ECDB2B27F9F7575EA1B090912FC
:100D90009E83831D742C2C582E1A1A342D1B1B363F
:100DA000B26E6EDCEE5A5AB4FBA0A05BF65252A4AF
:100DB0004D3B3B7661D6D6B7CEB3B37D7B29295266
:100DC0003EE3E3DD712F2F5E97848413F55353A622
:100DD00068D1D1B9000000002CEDEDC160202040A9
:100DE0001FFCFCE3C8B1B179ED5B5BB6BE6A6AD4A7
:100DF00046CBCB8DD9BEBE674B393972DE4A4A9499
:100E0000D44C4C98E85858B04ACFCF856BD0D0BB63
:100E10002AEFEFC5E5AAAA4F16FBFBEDC5434386B3
:100E2000D74D4D9A5533336694858511CF45458A04
:100E300010F9F9E906020204817F7FFEF05050A00C
:100E4000443C3C78BA9F9F25E3A8A84BF35151A29C
:100E5000FEA3A35DC04040808A8F8F05AD92923F74
:100E6000BC9D9D214838387004F5F5F1DFBCBC63AA
:100E7000C1B6B67775DADAAF63212142301010209F
:100E80001AFFFFE50EF3F3FD6DD2D2BF4CCDCD813D
:100E9000140C0C18351313262FECECC3E15F5FBE66
:100EA000A2979735CC4444883917172E57C4C4935A
:100EB000F2A7A755827E7EFC473D3D7AAC6464C8AC
:100EC000E75D5DBA2B191932957373E6A06060C0B7
:100ED00098818119D14F4F9E7FDCDCA3662222448A
:100EE0007E2A2A54AB90903B8388880BCA46468C56
:100EF00029EEEEC7D3B8B86B3C14142879DEDEA710
:100F0000E25E5EBC1D0B0B1676DBDBAD3BE0E0DB8F
:100F1000563232644E3A3A741E0A0A14DB49499238
:100F20000A06060C6C242448E45C5CB85DC2C29FCF
:100F30006ED3D3BDEFACAC43A66262C4A891913925
:100F4000A495953137E4E4D38B7979F232E7E7D58C
:100F500043C8C88B5937376EB76D6DDA8C8D8D01EC
:100F600064D5D5B1D24E4E9CE0A9A949B46C6CD8D9
:100F7000FA5656AC07F4F4F325EAEACFAF6565CA32
:100F80008E7A7AF4E9AEAE4718080810D5BABA6F6F
:100F9000887878F06F25254A722E2E5C241C1C3828
:100FA000F1A6A657C7B4B47351C6C69723E8E8CBD9
:100FB0007CDDDDA19C7474E8211F1F3EDD4B4B9648
:100FC000DCBDBD61868B8B0D858A8A0F907070E0C9
:100FD000423E3E7CC4B5B571AA6666CCD8484890FE
:100FE0000503030601F6F6F7120E0E1CA36161C29B
:100FF0005F35356AF95757AED0B9B969918686170A
:1010000058C1C199271D1D3AB99E9E2738E1E1D9E3
:1010100013F8F8EBB398982B33111122BB6969D2FE
:1010200070D9D9A9898E8E07A7949433B69B9B2D2E
:10103000221E1E3C9287871520E9E9C949CECE873A
:10104000FF5555AA782828507ADFDFA58F8C8C03AE
:10105000F8A1A15980898909170D0D1ADABFBF655A
:1010600031E6E6D7C6424284B86868D0C3414182BF
:10107000B0999929772D2D5A110F0F1ECBB0B07B47
:10108000FC5454A8D6BBBB6D3A16162C6E74706413
:101090002070726F6365737320737461727465641A
:1010A0000A0008000000000000000000000000002E
:1010B0000000000000000000000000000000000030
:1010C0000000000000000000000000000000000020
:1010D0000000257325730A004F6E6C696E650A0067
:1010E0000A002C20636865636B207261746520259B
:1010F0007520487A0025732025732C206368616E63
:101100006E656C202575000A2A2A2A2A2A2A2A4274
:101110006F6F74696E672025732A2A2A2A2A2A2A61
:101120000A004641494C3A2D343720746F74616C83
:101130005F726561643D25640A004641494C3A2D61
:10114000343620723D25640A004641494C3A2D341C
:10115000352C20746F74616C5F726561643D256429
:1011600020723D25640A00436F756E743A25642C25
:1011700020723D25640A004641494C3A2D34312005
:10118000746F74616C5F726561643D25640A00462A
:1011900041494C3A2D343020723D25640A004641C5
:1011A000494C3A2D33392C20746F74616C5F726531
:1011B00061643D256420723D25640A00436F756EAD
:1011C000743A25642C20723D25640A004641494C3E
:1011D0003A2D333520746F74616C5F726561643DC4
:1011E00025640A004641494C3A2D333520723D258D
:1011F000640A00436F756E743A25642C20723D2595
:10120000640A006275665B25645D20213D202564CB
:101210000A0072203D2025640A00723D25642E20BC
:101220006275665B725D3D25640A00723D25640A45
:10123000000011241FBECFEFD0E4DEBFCDBF17E00A
:10124000A0E0B1E0ECEAF6E201E00BBF02C00790DB
:101250000D92AE3BB107D9F717E3AEEBB7E001C093
:101260001D92A43BB107E1F70E94925F0C94549346
:101270000C9400000F931F93DF93CF93CDB7DEB78D
:1012800060970FB6F894DEBF0FBECDBF8C01FC0196
:1012900080819181009729F08F39910509F032C141
:1012A0002DC080E291E09A83898386E098E39C8355
:1012B0008B8387E099E09E838D8380E09AE0988716
:1012C0008F8380E091E19A87898782E29FEF9C87F4
:1012D0008B878EEF97E19E878D8785EA94E6988BC2
:1012E0008F87CE0101966BEB71E00E94061C8FE99F
:1012F00090E0F8019183808381E008C180911827F4
:10130000681709F072C08091192780FF0BC081E037
:1013100090E09093BF078093BE075093C907409316
:10132000C807E5CF81FFE3CF8091BE079091BF074B
:10133000892B89F08091C8079091C90760E071E01E
:1013400041EC50E00E9405148AEC97E062EE74E0F4
:101350000E94CB39CCCF8091C0079091C107892BD7
:1013600039F48091C2079091C307892B09F4BFCF4C
:10137000A0911627B0911727609114277091152717
:10138000FD0120E030E041E050E005C02F5F3F4F1D
:1013900031964F5F5F4F80818C3319F026173707E6
:1013A000ACF32617370719F4E2ECF1E016C081819F
:1013B0008E3661F7CA010596FD01E40FF51FA2ED17
:1013C000B7E002C02D93019625812C3321F0319690
:1013D00086179707BCF3E2EDF7E08081882309F4D4
:1013E00086CFCF010E94995B82CF683809F07FCF0A
:1013F0008AEC97E00E946438892BD9F08091BE076F
:101400009091BF07892BA9F08091C8079091C907D7
:1014100063EC71E049EB50E00E9405141092BF07A5
:101420001092BE0781E090E09093C1078093C007BF
:1014300041C08AEC97E00E946438892BD9F08091F2
:10144000C0079091C107892BA9F08091C80790919E
:10145000C9076DE772E04EEF50E00E94051410924C
:10146000C1071092C00781E090E09093C507809378
:10147000C40720C08AEC97E00E946438892BF9F0F9
:101480008091C4079091C507892BC9F08091C80746
:101490009091C90763EC71E049EB50E00E9405149C
:1014A0001092C5071092C40781E090E09093C307A3
:1014B0008093C2078AEC97E00E94B53918CF8AEC76
:1014C00097E00E946438892B09F411CF8091C207FC
:1014D0009091C307892B09F40ACF8091C807909196
:1014E000C9076CE773E047E650E00E9405141092CC
:1014F000C3071092C20781E090E09093C7078093E2
:10150000C607F5CEF8011182108283E060960FB60F
:10151000F894DEBF0FBECDBFCF91DF911F910F9129
:101520000895DC01233069F1253071F12130C1F5D6
:1015300050E0FC01E40FF51F8081833059F5FD0177
:10154000E40FF51F8181833029F5FD01E40FF51FBC
:1015500082A1992787FD90954D5D5F4F480F591FD8
:10156000FD01E40FF51F80818823B1F4FA01319663
:10157000EA0FFB1F8081883A79F48181882381F00A
:101580000BC0672B69F00AC0A40FB11D8C9181308C
:1015900029F406C08FE2089588E2089582E3089551
:1015A00081E00895CF93DF93EC01243009F470C0FB
:1015B000253009F482C0223009F08BC050E0FC01D4
:1015C000E40FF51F8081833009F07DC0FE01E40F38
:1015D000F51F8181833009F076C0FE01E40FF51F0D
:1015E00022A1332727FD30954D5D5F4F240F351F16
:1015F00043525040DE01A20FB31F11968C911197F8
:10160000E82FFF27E7FDF0958C91992787FD9095AE
:10161000982F8827E80FF91F2E5F3F4FCB01821BC1
:10162000930B841B950B8E179F0708F44EC0E0FFA9
:1016300023C04BC012968C9112978823C9F413963D
:101640008C911397883AA1F42E0F3F1FFE01E20FF1
:10165000F31F8081A82FBB27A7FDB0956150704074
:10166000641B750B621B730B6A177B0770F42DC02C
:1016700032972E5F3F4F1296E230F105D8F627C021
:1016800081813196882329F111971097C9F71FC0DE
:10169000FC01E40FF11D2181332727FD3095808166
:1016A000992787FD9095982F8827280F391F62501A
:1016B00070402617370749F40CC0C40FD11D88812C
:1016C000813019F406C08FE205C082E303C088E2CE
:1016D00001C081E0DF91CF9108950E949F3B8091EE
:1016E000F2079091F3070E94F04508950F931F931E
:1016F000CF93DF93EAE7F4E0EF0109900020E9F7E8
:101700002197CE1BDF0B4091F1085091F2080D2F6D
:10171000FA01D0831C2FC18390E09A012C0F3D1F4A
:101720000CC0FA01EA0FFB1F1282F901EA0FFB1F3E
:10173000A60FB71F8C9184839F5FA92FB0E0AC17D1
:10174000BD0778F3F90102831383DF91CF911F91D5
:101750000F910895CF92DF92EF92FF920F931F9314
:10176000DF93CF93CDB7DEB7C054D0400FB6F89417
:10177000DEBF0FBECDBFDE011196EDE1F8E080E2E5
:1017800001900D928150E1F7DE019196EDEFF7E0C7
:1017900080E201900D928150E1F7EAE7F4E00190D8
:1017A0000020E9F76091F1087091F208E957F440E0
:1017B000EE0FFF1F83EF98E0AF0126EF33E08E01BD
:1017C0000F5F1F4FF0E4EF2EF12CE0E3CE2ED12C73
:1017D0000E94EF1DC05CDF4F0FB6F894DEBF0FBE56
:1017E000CDBFCF91DF911F910F91FF90EF90DF90D0
:1017F000CF900895AF92BF92CF92DF92EF92FF9277
:101800000F931F93DF93CF93CDB7DEB7C856D04069
:101810000FB6F894DEBF0FBECDBFDE019996EDEF97
:10182000F7E080E201900D928150E1F7DE01A75BC5
:10183000BF4FEDE1F8E080E201900D928150E1F7B9
:101840005E010894A11CB11CC50163EF78E040E380
:1018500050E024E034E08E01075D1F4FE0E4EE2EFF
:10186000F12CB8E2CB2ED12C0E94EF1DA3E2B9E0FF
:10187000F50180E101900D928150E1F7A7E3B9E015
:10188000FE01719680E101900D928150E1F789A1EE
:101890009AA1ABA1BCA18093330990933409A09382
:1018A0003509B09336098DA19EA1AFA1B8A580934B
:1018B000470990934809A0934909B0934A09C85928
:1018C000DF4F0FB6F894DEBF0FBECDBFCF91DF91D3
:1018D0001F910F91FF90EF90DF90CF90BF90AF904E
:1018E00008958F929F92AF92BF92CF92DF92EF9224
:1018F000FF920F931F93DF93CF93CDB7DEB72C9753
:101900000FB6F894DEBF0FBECDBFFC0180818431DD
:1019100009F050C08181882309F04CC0828188235E
:1019200009F048C083818C3009F044C08091DD0704
:101930005E010894A11CB11CA4E08A2E912C8E0E8D
:101940009F1E8823C1F0C50163EF78E040E350E0BB
:1019500022E134E00DE318E0E0E2EE2EF12CBCE0F1
:10196000CB2ED12C0E94EF1DC401B5014CE050E0FC
:101970000E94A08F17C0C50163EF78E040E350E0FC
:1019800022E234E00DE318E0A0E2EA2EF12CFCE0C4
:10199000CF2ED12C0E94EF1DC401B5014CE050E0C8
:1019A0000E94A08F9C0190E0232B09F091E081E040
:1019B000982701C090E0892F2C960FB6F894DEBFCF
:1019C0000FBECDBFCF91DF911F910F91FF90EF9090
:1019D000DF90CF90BF90AF909F908F9008950F931E
:1019E0001F93082F162F8091DD07882329F08091FF
:1019F000E00781508093E0071092E1071092E20720
:101A00001092E4071092E3071092E5071092E607A0
:101A10001092E7071092E8078DE598E00E94AC214C
:101A2000103541F087E599E067E070E00E940637E5
:101A3000892B39F486E694E067E070E00E946D0B34
:101A400018C080915B0990915C099093F90780938D
:101A5000F807602F412F0E94561D8091F807909142
:101A6000F90767E070E00E946D0B87E599E00E943E
:101A7000CB3681E08093DC071F910F9108953F9250
:101A80004F925F926F927F928F929F92AF92BF928E
:101A9000CF92DF92EF92FF920F931F93DF93CF933A
:101AA000CDB7DEB7C55CD0400FB6F894DEBF0FBE31
:101AB000CDBF4C017B015A011091FC078091DD07DD
:101AC000173009F095C0882349F08091330990912F
:101AD0003409A0913509B091360908C080914709B1
:101AE00090914809A0914909B0914A0989879A873C
:101AF000AB87BC8794012A0D3B1DDE011D96F901C1
:101B000088E001900D928150E1F7DE015596F901D0
:101B100088E001900D928150E1F787E18D8F83E09D
:101B200089838A83B5E1CB2ED12CCC0EDD1E898131
:101B30009A819F8F8E8FA0EF6A2EAFEF7A2E6E0C58
:101B40007F1C6B827C828B819C8199A388A383E616
:101B500099E00E94CB3683E699E0B3010E940637F4
:101B6000892B09F421C44091670950916809509369
:101B70001727409316278091DD079E01275F3F4F6F
:101B80008501085F1F4FF70138978823B9F0080DCA
:101B9000191DCA0160E070E043E259E07F010E9434
:101BA000B92C892B99F483E699E00E94CB3682E028
:101BB00064E10E94EF0C20E030E0DBC5080D191D48
:101BC000CA0160E070E047E359E0E8CF7092152762
:101BD0006092142782E08093192780E090E0609162
:101BE000182740E050E00E94453621E030E0C1C5B2
:101BF000882309F47BC3462E3F2CC401212F0E9469
:101C0000D20A582E1230A9F481E0581691F482E0DD
:101C100090E0A80EB91EADE1B8E0F401EA0DFB1D9D
:101C20008EEF9FEFA80EB91E80E201900D928150B9
:101C3000E1F78091FC07843059F591E0591609F0DD
:101C4000AAC0F401EA0DFB1D2181332727FD309541
:101C50008081992787FD9095982F8827280F391F15
:101C600030936E0420936D0482E090E0A80EB91EBC
:101C7000A4014A0D5B1D8EEF9FEFA80EB91E809147
:101C8000780490917904BA01A9010E946A8F04C076
:101C900091E0591609F07FC08091FC07863009F069
:101CA00082C58091330990913409A0913509B09192
:101CB000360989879A87AB87BC8794012A0D3B1D1B
:101CC000DE011D96F90188E001900D928150E1F747
:101CD000DE015596F90188E001900D928150E1F7FF
:101CE00086E18D8F83E089838A8389819A819F8FA2
:101CF0008E8F80E190E09C838B8399A388A3B701AA
:101D00006051704087E599E00E940637892B09F4FD
:101D10004BC360905B0970905C098501085F1F4FA1
:101D2000080D191D88EF9FEFE80EF91EC30160E052
:101D300070E043E259E09E01275F3F4FE5E1CE2E80
:101D4000D12CCC0EDD1E0E94B92C892B09F44FC377
:101D5000DE01D296EDE5F8E084E901900D92815024
:101D6000E1F7CE01C2966DE378E00E94C521C30180
:101D70000E94710C813009F042C387E599E00E940E
:101D8000CB368A0C9B1C8DE598E0B401442D532D75
:101D90000E94332208C582E0652D0BCF87E599E0CC
:101DA00068E370E00E940637892B09F41EC4809115
:101DB0005B0990915C099093F9078093F8070E9462
:101DC000041FE091F807F091F907ADEFB7E03B96FB
:101DD00080E201900D928150E1F76091F8077091D7
:101DE000F9076B5F7F4F8DE598E04AE250E00E9473
:101DF00033226091F8077091F9076C5C7F4F8DE595
:101E000098E044E050E00E94332284E08093FC0795
:101E10008091F8079091F90768E370E00E949F3B7A
:101E200087E599E00E94CB369CC482E394E061E0B0
:101E300070E00E942B646C0197FD2BC1A090780488
:101E4000B090790460E070E040E050E00E94BA5F3A
:101E50008E010B5F1F4FC601B80141E050E00E94A8
:101E60009E61FF24F394E12E12C0882309F411C16E
:101E7000C6016F2D70E040E050E00E94BA5FC601DD
:101E8000602F7E2D41E050E00E949E61F3948D8191
:101E90008C3359F7C6016F2D70E040E050E00E948E
:101EA000BA5FC601602F7E2D44E050E00E949E6123
:101EB000802F9E2D6EE374E00E94978F009731F77C
:101EC0001F2D1C5FC601612F70E040E050E00E94B2
:101ED000BA5FC601602F7E2D41E050E00E949E61F6
:101EE00085E0E82EF12CEC0EFD1E11C0882309F4CC
:101EF000C2C01F5FC601612F70E040E050E00E9449
:101F0000BA5FC601B70141E050E00E949E618D8139
:101F10008C3361F71F5FC601612F70E040E050E035
:101F20000E94BA5FC601B70144E050E00E949E6182
:101F3000C70163E474E00E94978F009741F7135F35
:101F4000C601612F70E040E050E00E94BA5FC60118
:101F5000B70141E050E00E949E6100E015C0F5012C
:101F6000E00FF11D8081981791F61F5F0F5FC6018A
:101F7000612F70E040E050E00E94BA5FC601B701F7
:101F800041E050E00E949E619D819C3341F705E055
:101F9000E02EF12CEC0EFD1E1F5FC601612F70E0DC
:101FA00040E050E00E94BA5FC601B70141E050E056
:101FB0000E949E618D818C3379F71F5FC601612F6E
:101FC00070E040E050E00E94BA5FC601B70144E013
:101FD00050E00E949E61C70168E474E00E94978F00
:101FE0000097D1F61C5FA12EBB24C601B50140E0CD
:101FF00050E00E94BA5FC601B70141E050E00E9484
:102000009E61B5E0EB2EF12CEC0EFD1E0EC01F5FA5
:10201000C601612F70E040E050E00E94BA5FC60147
:10202000B70141E050E00E949E618D818C3379F7C9
:10203000E12EFF24EA18FB088DE599E0B7010E9424
:102040000637892B09F4D0C3009161091091620908
:10205000C601B50140E050E00E94BA5FC601B80178
:10206000A7010E949E619FEFE9169FEFF90689F094
:10207000E114F10419F482E063E7B9C28EEFE816C7
:102080008FEFF80609F4B1C200916109109162095D
:1020900002C00AE714E0F80101900020E9F7E01B14
:1020A000F10B3196EE0FFF1F87E599E0BF010E940B
:1020B0000637892B09F499C280915B0990915C09DC
:1020C0009093F2088093F108B8010E94760B0E9469
:1020D000AA0B87E599E00E94CB361AC30E94FA0B3F
:1020E00019C387E599E06BE270E00E940637892BFF
:1020F00009F47BC280915B0990915C099093F90788
:102100008093F80760E070E00E94991C8DE598E0EC
:102110006DE378E00E94C52184E18AA31BA21CA282
:102120008CE08DA3CE01869663EF78E040E350E02B
:1021300022E234E00DE318E0E0E2EE2EF12CBCE008
:10214000CB2ED12C0E94EF1D10924B0910924C09FE
:1021500010924D0910924E0910924F091092500999
:1021600010925109109252098091470990914809A3
:10217000A0914909B0914A0989879A87AB87BC87A2
:10218000DE011D96EBE4F9E088E001900D928150AC
:10219000E1F7DE015596EBE4F9E088E001900D925D
:1021A0008150E1F786E18D8F83E089838A8389817D
:1021B0009A819F8F8E8F80E190E09C838B8399A37F
:1021C00088A38091F8079091F90763E170E047E3F5
:1021D00059E09E01275F3F4F8E010E5D1F4FA0E12A
:1021E000EA2EF12CF5E1CF2ED12CCC0EDD1E0E9473
:1021F000D030892B09F4F5C1E0904B09F0904C09DF
:1022000000914D0910914E0920914F0930915009CC
:1022100040915109509152098091F8079091F90726
:1022200066E070E0EDE4CE2EE4E0DE2E0E94AF1C0E
:1022300081E08093DE078091F8079091F9076BE2C7
:1022400070E00E946D0B87E599E00E94CB3680918B
:102250004B0920914C0930914D0940914E096091F4
:102260004F09E0915009A091510910915209B82FDE
:10227000BF5F91E0B81708F090E0F92FF20F81E00E
:10228000F21708F080E0782F730F81E0731708F0E1
:1022900080E0582F540F81E0541708F080E0382F69
:1022A000360F81E0361708F080E0282F2E0F81E0EE
:1022B0002E1708F080E0982F9A0F81E09A1708F007
:1022C00080E0810FB0934B09F0934C0970934D0956
:1022D00050934E0930934F09209350099093510920
:1022E0008093520981E08093EC073BC2C401212F07
:1022F0000E94910A582E1130B9F491E0891709F023
:102300004ACD82E090E0A80EB91EADEFB7E0F4012F
:10231000EA0DFB1D8EEF9FEFA80EB91E80E2019023
:102320000D928150E1F704C091E0891709F033CD97
:102330008091FC07863009F046C280914709909150
:102340004809A0914909B0914A0989879A87AB87C2
:10235000BC8794012A0D3B1DDE011D96F90188E022
:1023600001900D928150E1F7DE015596F90188E068
:1023700001900D928150E1F786E18D8F83E0898392
:102380008A8389819A819F8F8E8F80E190E09C83E0
:102390008B8399A388A3B7016051704087E599E0CA
:1023A0000E940637892B19F482E060E502CC609028
:1023B0005B0970905C0988E090E0A80EB91E8A0C59
:1023C0009B1C88EF9FEFE80EF91EC30160E070E0F0
:1023D00047E359E09E01275F3F4F8401B5E1CB2ED3
:1023E000D12CCC0EDD1E0E94B92C892B19F487E567
:1023F00099E0DBCBC3010E94710C813049F082E08F
:1024000068E20E94EF0C87E599E00E94CB36D3CBBF
:1024100087E599E00E94CB36D6C10AE714E0F801BF
:1024200001900020E9F7E957F440EE0FFF1F87E520
:1024300099E0BF010E940637892B09F4D6C080912C
:102440005B0990915C099093F2088093F108B801C0
:102450000E94760B0E94AA0B87E599E00E94CB367A
:1024600083E07DC160916D0470916E046A5C7F4F62
:1024700087E599E00E940637892B09F4B6C0809160
:102480005B0990915C099093F9078093F80760913C
:1024900078047091790440916D0450916E040E940B
:1024A000431C6091F8077091F9076B5F7F4F409173
:1024B0006D0450916E044A5F5F4F8DE598E00E9475
:1024C000332260916D0470916E04655F7F4F80913F
:1024D000F8079091F9070E94991CDE01D296EDE56C
:1024E000F8E084E901900D928150E1F78DE598E0E4
:1024F0006DE378E00E94C52184E18AA31BA21CA29F
:102500008CE08DA3CE01869663EF78E040E350E047
:1025100022E134E00DE318E0E0E2EE2EF12CBCE025
:10252000CB2ED12C0E94EF1D0E94FA0B10924B096A
:1025300010924C0910924D0910924E0910924F09B9
:10254000109250091092510910925209809133094A
:1025500090913409A0913509B091360989879A87FD
:10256000AB87BC87DE011D96EBE4F9E088E00190C3
:102570000D928150E1F7DE015596EBE4F9E088E039
:1025800001900D928150E1F786E18D8F83E0898380
:102590008A8389819A819F8F8E8F80E190E09C83CE
:1025A0008B8399A388A360916D0470916E04625E21
:1025B0007F4F8091F8079091F90743E259E09E011F
:1025C000275F3F4F8E010E5D1F4FA0E1EA2EF12CD9
:1025D000F5E1CF2ED12CCC0EDD1E0E94D030892B00
:1025E00049F487E599E00E94CB3682E060E50E94DD
:1025F000EF0CB7C08E010E5C1F4F6091F807709111
:10260000F907625E7F4FC80148E150E00E94332223
:10261000C8016DE378E00E94C52160916D0470915E
:102620006E046F5E7F4FE0904B09F0904C09009173
:102630004D0910914E0920914F0930915009409158
:102640005109509152098091F8079091F907EDE4F2
:10265000CE2EE4E0DE2E0E94AF1C60916D047091DE
:102660006E046A5C7F4F8091F8079091F9070E9491
:102670006D0B87E599E00E94CB3680914B09209144
:102680004C0930914D0940914E0960914F09E091FC
:102690005009A091510910915209B82FBF5F91E0E4
:1026A000B81708F090E0F92FF20F81E0F21708F068
:1026B00080E0782F730F81E0731708F080E0582FC7
:1026C000540F81E0541708F080E0382F360F81E076
:1026D000361708F080E0282F2E0F81E02E1708F023
:1026E00080E0982F9A0F81E09A1708F080E0810F20
:1026F000B0934B09F0934C0970934D0950934E09D8
:1027000030934F09209350099093510980935209B7
:1027100085E025C086E023C011E01093DF07E0913B
:102720005309F0915409809155099091560991836C
:1027300080838091F2079091F307938382830E94B4
:10274000EA34682F80931827109319274091530972
:102750005091540980E090E00E94453687E08093D4
:10276000FC0790E081E0581291E081E09827292F42
:1027700030E0C901CB53DF4F0FB6F894DEBF0FBE78
:10278000CDBFCF91DF911F910F91FF90EF90DF9020
:10279000CF90BF90AF909F908F907F906F905F9001
:1027A0004F903F9008958091FC07843009F43DCB11
:1027B000853018F48230A9F6F1CA853009F48ECC40
:1027C000863079F68ECC8091FC07833009F44ACEAE
:1027D000843018F4813029F620CE853009F49ACF60
:1027E000863009F0BECF98CFBEEFEB2EBFEFFB2EA9
:1027F00045CCFC01828193819093F3078093F2078B
:1028000081E060E00E94EF0C08952F923F924F927A
:102810005F926F927F928F929F92AF92BF92CF9270
:10282000DF92EF92FF920F931F93DF93CF93CDB779
:10283000DEB76E970FB6F894DEBF0FBECDBFFC01BA
:102840002B015D8F4C8F8091FC07873009F077C09A
:10285000828193819093F3078093F2078091DD0743
:10286000882359F18091470990914809A09149091D
:10287000B0914A098B839C83AD83BE8380914B09C1
:102880008E8F20904C0930904D0960904E097090C9
:102890004F098090500990905109109152099FE082
:1028A000A92EB12CAC0EBD1E87E0C82ED12CCC0EAB
:1028B000DD1E08E3E02EF12C09C0809133099091D0
:1028C0003409A0913509B0913609D4CF2E8D322D1F
:1028D000432D562D672D782D892D912F0E2D0E9479
:1028E000EC88F50121935F01F60121936F0188EFD8
:1028F0009FEFE80EF91E98EFE9169FEFF90631F702
:1029000087E18F8B83E089838A831FE0C12ED12CDE
:10291000CC0EDD1E89819A81998F888F8C8D9D8D3B
:102920009B8F8A8FBC016B5E7F4F87E599E00E9489
:102930000637892B39F482E060E50E94EF0C2FEF17
:102940003FEF1DC1A0905B09B0905C098091DD074D
:102950009E012D5F3F4FEC8CFD8C882331F0C5012B
:102960006DE070E047E359E005C0C5016DE070E03F
:1029700043E259E082010E94D030892B29F487E597
:1029800099E00E94CB36DBCF87E1F501808383E0BD
:10299000818382838C8D9D8D409693838C8D805F07
:1029A000848320914B0930914C0940914D095091FD
:1029B0004E0960914F097091500980915109909191
:1029C000520908E30E94EC88F501258320914B0908
:1029D00030914C0940914D0950914E0960914F0939
:1029E00070915009809151099091520900E30E9421
:1029F000EC88F501268320914B0930914C094091D8
:102A00004D0950914E0960914F0970915009809184
:102A100051099091520908E20E94EC88F501278340
:102A200020914B0930914C0940914D0950914E092C
:102A300060914F097091500980915109909152090C
:102A400000E20E94EC88F501208720914B0930912B
:102A50004C0940914D0950914E0960914F09709178
:102A60005009809151099091520908E10E94EC8827
:102A7000F501218720914B0930914C0940914D0976
:102A800050914E0960914F09709150098091510900
:102A90009091520900E10E94EC88F5012287209173
:102AA0004B0930914C0940914D0950914E0960916C
:102AB0004F0970915009809151099091520908E095
:102AC0000E94EC88F501238780914B0984878091CF
:102AD0004B0920914C0930914D0940914E0960916C
:102AE0004F09E0915009A091510910915209B82F56
:102AF000BF5F91E0B81708F090E0F92FF20F81E086
:102B0000F21708F080E0782F730F81E0731708F058
:102B100080E0582F540F81E0541708F080E0382FE0
:102B2000360F81E0361708F080E0282F2E0F81E065
:102B30002E1708F080E0982F9A0F81E09A1708F07E
:102B400080E0810FB0934B09F0934C0970934D09CD
:102B500050934E0930934F09209350099093510997
:102B6000809352096C8D7D8D6B5E7F4FC5010E94F5
:102B70006D0B87E599E00E94CB3621E030E0C9017A
:102B80006E960FB6F894DEBF0FBECDBFCF91DF912A
:102B90001F910F91FF90EF90DF90CF90BF90AF907B
:102BA0009F908F907F906F905F904F903F902F906D
:102BB00008957F928F929F92AF92BF92CF92DF92B1
:102BC000EF92FF920F931F93CF93DF935C014B0122
:102BD0008091EB07882351F11092EB07F501818179
:102BE000882319F481E060E035C28091DD078823F5
:102BF00029F08091E00781508093E0071092E1076F
:102C00001092E2071092E4071092E3071092E50792
:102C10001092E6071092E7071092E8078DE598E01A
:102C20000E94AC2181E08093DC076EC29091FC078A
:102C3000892F8650823058F4C50140E050E00E9450
:102C40003F0D20E030E0019709F063C260C295308B
:102C500031F08DE598E0B501A4010E943322809106
:102C6000E207813009F478C0813008F459C182301C
:102C700009F04DC2E090E507F090E6070091E70704
:102C80001091E807C401AA2797FDA095BA2F8E0DD1
:102C90009F1DA01FB11F2091ED073091EE074091BD
:102CA000EF075091F00782179307A407B507D8F1F3
:102CB0006E2D10E009C0C60FD11DF501E10FF11D09
:102CC000808188836F5F1F5F2091ED073091EE0751
:102CD0004091EF075091F007862F90E0A0E0B0E020
:102CE000C091FA07D091FB0782179307A407B50795
:102CF00010F3CE01B90140E050E00E943F0D019772
:102D000009F002C28FE699E00E94CB361092E107EB
:102D1000812F90E0881599050CF0F9C1881A990A5D
:102D20008A0D9B1D33C19E2D20E00CC0E091FA0757
:102D3000F091FB07E90FF11DAA0DBB1D8C9180835B
:102D40009F5F2F5FA22FB0E0A815B9057CF3892FF4
:102D500090E0A0E0B0E04BC19401442737FD4095DE
:102D6000542F8091E5079091E607A091E707B09175
:102D7000E807820F931FA41FB51F0497A105B10593
:102D800010F0772445C060E011C0E091FA07F0919F
:102D9000FB07EA0FFB1F8091E5079091E607E80F1C
:102DA000F91FAA0DBB1D8C9180836F5FA62FB0E029
:102DB000A815B90554F38091E5079091E607A09115
:102DC000E707B091E807820F931FA41FB51F0FC13B
:102DD000E091FA07F091FB07EC0FFD1FE80FF91FD8
:102DE000CA0DDB1D888180838091E5079091E607FD
:102DF000A091E707B091E8070196A11DB11D80934E
:102E0000E5079093E607A093E707B093E80773946C
:102E10008091E5079091E607A091E707B091E80758
:102E2000C72DD0E084309105A105B10588F2F501E8
:102E300083818093ED0782818093F1078181809364
:102E4000F5078FE699E00E94CB3684010C1B1D0B21
:102E50006801EE24D7FCE094FE2C2091ED07309120
:102E6000EE074091EF075091F007C216D306E40633
:102E7000F506A8F58FE699E0B9010E940637892B7F
:102E800009F4E6C080917309909174099093FB074F
:102E90008093FA070BC0E091F807F091F907E20F71
:102EA000F31FAA0DBB1D8C9180837394A72DB0E0F6
:102EB0009D012C1B3D0BA815B9056CF3C901AA2770
:102EC00097FDA095BA2F8093E5079093E607A0930E
:102ED000E707B093E80782E08093E10718C1C501D6
:102EE000B901AE010E943F0D019709F00DC180911B
:102EF000ED079091EE07A091EF07B091F0078C15C8
:102F00009D05AE05BF0508F002C11092E207C80F8B
:102F1000D91F081B190BC5018C0F9D1FB801F1C0EB
:102F20008091FC07823029F4F50180818130A9F479
:102F30002FC0843029F4F5018081803171F428C0DC
:102F4000813029F4F5018081823039F421C0833049
:102F500039F4F50180818E30D9F082E06AE07AC0E0
:102F60008530B1F4C50161E070E040E050E00E94BE
:102F70003F0D019709F0C8C0F2E08F1691040CF4E0
:102F8000C6C0089481089108C5010196B401B9C072
:102F900084E088169104A4F581E08093E2078FE62F
:102FA00099E064E070E00E940637892B09F450C074
:102FB00080917309909174099093FB078093FA07AD
:102FC00090E00BC0E091FA07F091FB07EA0FFB1FBE
:102FD000AA0DBB1D8C9180839F5FA92FB0E0A8151F
:102FE000B90584F3C401AA2797FDA095BA2F809351
:102FF000E5079093E607A093E707B093E80787C03B
:10300000F50183818093ED0782818093F1078181AF
:103010008093F50774010027F7FC0095102F20918D
:10302000ED073091EE074091EF075091F007DA017C
:10303000C9010496A11DB11DE816F9060A071B0770
:10304000E0F58FE699E0B9010E940637892B29F453
:1030500082E060E50E94EF0C57C080917309909167
:1030600074099093FB078093FA0794E00CC0E091F9
:10307000FA07F091FB07EA0FFB1F3497AA0DBB1D5F
:103080008C9180839F5FA92FB0E0A815B9057CF3D0
:103090008CEF9FEF880E991EC401AA2797FDA0957B
:1030A000BA2F8093E5079093E607A093E707B093C4
:1030B000E80782E08093E2072AC0C501B90144E035
:1030C00050E00E943F0D0197F9F42091ED073091F7
:1030D000EE074091EF075091F007DA01C90104961D
:1030E000A11DB11D8E159F05A007B10780F4C90170
:1030F00004966CEF7FEF621B730B680D791D8A0DD0
:103100009B1D0E94D91503C020E030E002C021E0E1
:1031100030E0C901DF91CF911F910F91FF90EF90A7
:10312000DF90CF90BF90AF909F908F907F90089549
:103130004F925F926F927F928F929F92AF92BF92C7
:10314000CF92DF92EF92FF920F931F93CF93DF9373
:10315000282FAB018091632D281709F05EC2809162
:10316000DD07882339F08091F6079091F707622FE9
:103170000E9445368091DE078823E9F111E0109323
:10318000DF07E0915509F091560983E399E09583B3
:10319000848387E499E09783868383E299E091832F
:1031A000808387E399E093838283A0915309B09150
:1031B00054091196FC93EE938091F2079091F307D6
:1031C00013969C938E9312970E94EA34682F8093F3
:1031D0001827109319274091530950915409809151
:1031E000F6079091F7070E94453687E08093FC0729
:1031F0001092DE0712C280912C2C86FF2CC0809189
:10320000DD078823E9F08091332C9091342C909342
:10321000F3078093F2078091E007813071F486E62E
:1032200094E067E070E00E949F3B89E699E00E948D
:10323000CB3680E180932C2CF0C11092E107EDC1D8
:103240008091F8079091F90762E370E00E946D0B9E
:1032500089E699E0E0C181FFB4C1C090312CD090E3
:10326000322CE0901C27F0901D272BEF422E2FEFE1
:10327000522EAA24A3948091E107813009F45FC003
:10328000813008F400C1823009F0C7C14091E307E2
:103290005091E4079701240F351F8091E907909121
:1032A000EA072817390790F1242F10E009C0A80F6A
:1032B000B91FF601E10FF11D80818C932F5F1F5F15
:1032C000822F90E06091E9077091EA07A091F807DA
:1032D000B091F9078617970750F3CD0140E050E011
:1032E0000E943F0D019709F098C189E699E00E947C
:1032F000CB361092E107812F90E08E159F050CF0E0
:103300008CC1C80ED91EE81AF90AB5CF942F20E057
:103310000CC0E091F807F091F907E90FF11DAC0D31
:10332000BD1D8C9180839F5F2F5FA22FB0E0AE15F3
:10333000BF057CF39093E3071092E4076EC1809180
:10334000E3079091E4078E0D9F1D059710F0BB24B5
:1033500031C020E00DC0E091F807F091F907EA0FC5
:10336000FB1FE80FF91FAC0DBD1D8C9180832F5FF3
:10337000A22FB0E08091E3079091E407AE15BF055E
:1033800054F38E0D9F1D9093E4078093E30745C18E
:10339000A80FB91FAC0FBD1FCC0DDD1D88818C930C
:1033A0008091E3079091E40701969093E40780935E
:1033B000E307B3948091E3079091E407A091F807A5
:1033C000B091F907CB2DD0E08530910508F3139625
:1033D0009C901397882414968C919401280F311D8A
:1033E0003093EA072093E90789E699E00E94CB36FB
:1033F00087010C1B1D0B6091E9077091EA07061706
:10340000170740F589E699E00E940637892B09F4F1
:1034100097C080916D0990916E099093F907809300
:10342000F8070BC0E091F807F091F907E80FF91FD2
:10343000AC0DBD1D8C918083B394AB2DB0E0CD015C
:103440008C1B9D0BAE15BF056CF39093E407809326
:10345000E3079CC0C601AE010E943F0D019709F031
:10346000DCC02091E9073091EA072017310708F006
:10347000D4C01092E107C20FD31FCC0EDD1E78011D
:10348000E21AF30AF8CEF6018081853119F4A09290
:10349000EB0712C09091FC07953049F0973051F03E
:1034A000863151F082E06AE00E94EF0CB6C08431B0
:1034B00019F0F8CF8731B1F7F5E0EF16F10454F5C4
:1034C00081E08093E10789E699E065E070E00E9481
:1034D0000637892BA9F180916D0990916E0990931F
:1034E000F9078093F80790E00BC0E091F807F0919E
:1034F000F907EA0FFB1FAC0DBD1D8C9180839F5F08
:10350000A92FB0E0AE15BF0584F3F092E407E09276
:10351000E30783C0F601738066248481B301680FDA
:10352000711D7093EA076093E907CB010596E816D1
:10353000F90680F589E699E00E940637892B19F48F
:1035400082E060E5B1CF80916D0990916E09909312
:10355000F9078093F80795E00CC0E091F807F09127
:10356000F907EA0FFB1F3597AC0DBD1D8C918083C9
:103570009F5FA92FB0E0AE15BF057CF32BEF3FEFA7
:10358000E20EF31EF092E407E092E30782E08093FC
:10359000E10743C0C60105960E94D9150197E9F5D8
:1035A0002091E9073091EA07C90105968E159F051C
:1035B000A0F5C80ED91EC201821B930BE80EF91E9E
:1035C0005ACE84FF2AC08091DD07882339F080918C
:1035D000E00781508093E00782E001C081E08093A2
:1035E000FC071092E1071092E2071092E407109294
:1035F000E3071092E5071092E6071092E707109292
:10360000E80783E699E00E94CB368BE799E00E94B9
:10361000CB3685E799E00E94CB36DF91CF911F91A1
:103620000F91FF90EF90DF90CF90BF90AF909F9061
:103630008F907F906F905F904F900895CF93DF931E
:10364000EC01FA0188819981009721F0815B944017
:1036500019F516C08091890990918A099093F50710
:103660008093F407818190810E9490488DE598E0D5
:103670000E94AC2181EB94E09983888381E00FC0A4
:103680008091DC07882319F01092DC07F3CF862F96
:10369000BA010E949818EECF1982188283E0DF9158
:1036A000CF910895CF93DF93EC01888199810097A2
:1036B00029F08D59944009F058C049C0809189097A
:1036C00090918A099093F5078093F407FA0172812B
:1036D00063818081918140E050E00E94AD489093E9
:1036E000F3078093F2078DE598E00E94AC2189E60C
:1036F00099E062E370E00E9406370197B1F580918E
:103700006D0990916E099093F9078093F8070E94D4
:103710007B1EE091F807F091F907ADE1B8E03B9628
:1037200080E201900D928150E1F76091F80770916D
:10373000F9076B5F7F4F8DE598E04DE250E00E9406
:1037400033228DE994E09983888381E011C08091D0
:10375000DC07882329F080E180932C2C1092DC0771
:10376000862FBA010E949818ECCF1982188283E044
:10377000DF91CF910895DF93CF9300D0CDB7DEB71F
:103780009A8389836230D0F581E08093DD0782E0FF
:103790008093FC076093F1078BE799E068E070E0A5
:1037A0000E940637892B51F180917F099091800901
:1037B000909356098093550985E799E064E070E09D
:1037C0000E940637892BD1F08091790990917A096E
:1037D00090935409809353098091890990918A09A3
:1037E0009093F7078093F6078CE594E0BE016F5F36
:1037F0007F4F0E94783620E030E002C02FEF3FEF8D
:10380000C9010F900F90CF91DF910895DF93CF936F
:1038100000D000D0CDB7DEB71092DD0721E02093B5
:10382000FC079A8389837C836B838BE799E068E04C
:1038300070E00E940637892BF9F080917F09909102
:103840008009909356098093550985E799E064E0D3
:1038500070E00E940637892B79F080917909909168
:103860007A09909354098093530980E594E0BE014E
:103870006F5F7F4F0E9478360F900F900F900F90E0
:10388000CF91DF910895CF92DF92EF92FF920F9345
:103890001F93CF93DF937C016B01EA01FC0186E16A
:1038A000819383E0D70111968C93DF011196818378
:1038B000FD013196CA01069611969C93DF0111967F
:1038C0008183FD01319680E111968C938F010F5F0A
:1038D0001F4F22969E0140E050E022971182B801CE
:1038E0006F5F7F4FBB27A52F942F832FF801818314
:1038F000FB013196DB0111962C93D183C283D70152
:1039000020E030E009C0F601E20FF31F80811A9633
:103910008C931A972F5F3F4F11962C173D0798F302
:10392000DF91CF911F910F91FF90EF90DF90CF909B
:103930000895FB01E80FF91FDF0184E18D9383E017
:103940008183FD01319611968C93DF0111961182CE
:1039500081E011968C93119712968C9308954F9253
:103960005F927F928F929F92AF92BF92CF92DF929F
:10397000EF92FF920F931F93DB01B02EA22E932E96
:10398000842E752EA80FB91FFD0186E1819383E077
:1039900011968C93DF0111968183FD01319611966A
:1039A0001C926F010894C11CD11C80E28183260106
:1039B0000894411C511C9701402F512F6A2D792DDD
:1039C000882D972D08E30E94EC88F601218362017F
:1039D0000894C11CD11C97014B2D512F6A2D792DB4
:1039E000882D972D00E30E94EC88F20121832601A7
:1039F0000894411C511C97014B2D512F6A2D792D94
:103A0000882D972D08E20E94EC88F601218362013F
:103A10000894C11CD11C97014B2D512F6A2D792D73
:103A2000882D972D00E20E94EC88F2012183260167
:103A30000894411C511C97014B2D512F6A2D792D53
:103A4000882D972D08E10E94EC88F6012183620100
:103A50000894C11CD11C97014B2D512F6A2D792D33
:103A6000882D972D00E10E94EC88F20121839701B7
:103A70004B2D512F6A2D792D882D972D08E00E940E
:103A8000EC88F60121830894C11CD11CF601E18267
:103A90001F910F91FF90EF90DF90CF90BF90AF906C
:103AA0009F908F907F905F904F900895DC01FC0174
:103AB00085E1819383E011968C93DF0111968183D8
:103AC000FD01319611961C92DF01119682E08183EF
:103AD00011966C93119712964C9308952F923F92E2
:103AE0004F925F926F927F928F929F92AF92BF920E
:103AF000CF92DF92EF92FF920F931F93DF93CF93BA
:103B0000CDB7DEB7A8970FB6F894DEBF0FBECDBF16
:103B10008FA398A73B012A0119015701C7018F7193
:103B20009070892B31F4C70160E270E00E94CD9261
:103B300007C0C70160E270E00E94CD926F5F7F4FC7
:103B40007B01F5E0EE0CFF1CFA95E1F74E010894BD
:103B5000811C911CC401B7010E940637892B19F101
:103B6000CD80DE80C60160E070E0A7010E94858FF5
:103B7000C114D104C1F0C301B201A10198018E01A9
:103B8000095F1F4FE0E2EE2EF12C0E94E4238FA18B
:103B900098A5B601A5010E946A8FC4010E94CB3688
:103BA00021E030E002C02FEF3FEFC901A8960FB629
:103BB000F894DEBF0FBECDBFCF91DF911F910F9163
:103BC000FF90EF90DF90CF90BF90AF909F908F903D
:103BD0007F906F905F904F903F902F9008952F921D
:103BE0003F924F925F926F927F928F929F92AF928D
:103BF000BF92CF92DF92EF92FF920F931F93DF93CA
:103C0000CF9300D000D0CDB7DEB73C012B011A0115
:103C1000922E832E0B831C832DB73EB73A832983C4
:103C2000A92DB82DFD0101900020E9F73197EA1B7D
:103C3000FB0B8701EE0DFF1D8DB79EB78E1B9F0BF3
:103C40000FB6F8949EBF0FBE8DBFADB6BEB608943A
:103C5000A11CB11CE92DF82DDF010D900020E9F722
:103C60001197AE1BBF0BC501692D782DAD010E94C8
:103C70006A8FA92DB82DFD0101900020E9F7319739
:103C8000EA1BFB0BEA0DFB1DCF016B817C814E2DE6
:103C90005F2D0E946A8FA92DB82DFD010190002093
:103CA000E9F73197EA1BFB0B0E0F1F1FC301B2018F
:103CB000A101950176010E946E1D29813A810FB6FE
:103CC000F8943EBF0FBE2DBF0F900F900F900F9036
:103CD000CF91DF911F910F91FF90EF90DF90CF90E8
:103CE000BF90AF909F908F907F906F905F904F901C
:103CF0003F902F900895CF92DF92EF92FF920F9313
:103D00001F93CF93DF936C01FC0186E1819393E0D5
:103D1000D60111969C93DF0111969183FD01319696
:103D200011961C929F012F5F3F4F8DE28183D90135
:103D3000119681E0F9018183FD01319611961C9263
:103D4000DF01119611829D012F5F3F4F89E211968D
:103D50008C93F9013196D90111969C938F010F5FD5
:103D60001F4F918378010894E11CF11C0E94FE5CB6
:103D7000292F332744275527F8012183D70111968E
:103D80009C0144275527F7012183FD013196272FF8
:103D9000382F492F552711962C9361838F010E5F81
:103DA0001F4F0E94B46C0E94D939E601ACE1EA2EA3
:103DB000F12CEC0CFD1C0E94D6398F778F87219651
:103DC000CE15DF05C1F7D8015C961C925C975D9615
:103DD0001C925D9782E05E968C935E975F961C9234
:103DE0005F9788EA90968C93909781E091968C9358
:103DF000919792961C92DF91CF911F910F91FF9016
:103E0000EF90DF90CF900895CF92DF92EF92FF92E4
:103E10000F931F93CF93DF936C01FC0186E1819395
:103E200093E0D60111969C93DF0111969183FD01D9
:103E3000319611961C929F012F5F3F4F8AE281833A
:103E4000D901119682E0F9018183FD013196119625
:103E50001C92DF01119611829D012F5F3F4F86E278
:103E600011968C93F9013196D90111969C938F018B
:103E70000F5F1F4F918378010894E11CF11C0E9491
:103E8000FE5C292F332744275527F8012183D701CA
:103E900011969C0144275527F7012183FD01319696
:103EA000272F382F492F552711962C936183EF0127
:103EB00022960E94B46C0E94D93986013CE1E32E1F
:103EC000F12CEC0CFD1C0E94D6398F77D8011F967F
:103ED0008C930F5F1F4F0E151F05A9F71C8E1D8EAB
:103EE00088EA8E8F1F8E86E188A383E089A38AA348
:103EF0001BA284E08CA38EE08DA31EA21FA218A695
:103F0000DF91CF911F910F91FF90EF90DF90CF90B5
:103F100008952F923F924F925F926F927F928F926D
:103F20009F92AF92BF92CF92DF92EF92FF920F9348
:103F30001F93DF93CF93CDB7DEB7C65AD0400FB6ED
:103F4000F894DEBF0FBECDBFCD56DF4F79836883B7
:103F5000C359D040CB56DF4F59834883C559D04011
:103F6000CF56DF4F19821882C159D0408E010F5EA3
:103F70001F4FCB55DF4F19830883C55AD0409E0190
:103F80002F583F4FCD55DF4F39832883C35AD04038
:103F90008C579F4FCF55DF4F99838883C15AD040AC
:103FA000B1C1CF56DF4F48815981C159D04006E099
:103FB000440F551F0A95E1F7CD56DF4F688179818F
:103FC000C359D040460F571FDE015196BD0120E076
:103FD00030E0F901EE0FFF1FEE0FFF1FE40FF51F9A
:103FE000C856DF4F1882C859D040C956DF4F1882D3
:103FF000C759D040838190E0C956DF4F08811981AD
:10400000C759D040802B912B1281C656DF4F1883A1
:10401000CA59D040C756DF4F1882C959D040C75639
:10402000DF4FE881F981C959D0408E2B9F2BC456B0
:10403000DF4F1882CC59D040C556DF4F1882CB597C
:10404000D040C556DF4F08811981CB59D040802B15
:10405000912BFB0181939193BF012F5F3F4F203143
:10406000310509F0B6CF5C96ED91FC915D97129603
:104070008D919C9113974D915C91119752962D9132
:104080003C915397420F531F9C0173E0369527953F
:104090007A95E1F7792F770F682F661F6627661FDD
:1040A000672BC356DF4F6883CD59D040782F770FE9
:1040B000692F661F6627661F672BC256DF4F68830E
:1040C000CE59D040C356DF4F08811981CD59D04019
:1040D0002027312728273927420F531FCF019F015F
:1040E00082279327EF2FFF27E695E6958E279F27B8
:1040F000480F591F91965C934E9390971296CD5509
:10410000DF4F28813981C35AD040A217B30709F085
:10411000AACFCF55DF4F48805980C15AD0403E01C9
:104120000894611C711CF201430181919191D401A9
:104130008D939D934D01CB55DF4F08811981C55A51
:10414000D040A017B10789F7AA24BB2469857A85D6
:10415000CD84DE84F501E655FB4F008111818F850A
:104160009889080F191FE1E1F0E0EC0FFD1FEA0D3F
:10417000FB1D80819181080F191F972F96959695A9
:104180009695862F8295880F807E892BC156DF4FAA
:104190008883CF59D040962F969596959695872FE0
:1041A0008295880F807E892BC056DF4F8883C05A46
:1041B000D040972F990F990F862F829586958695D7
:1041C0008370292E282A962F990F990F872F829571
:1041D000869586958370392E382AC156DF4F88819F
:1041E0009981CF59D040822593259B01822793271F
:1041F000080F191FCB01809590958C219D21EB8490
:10420000FC849B012E213F2182279327080F191F31
:1042100049815A81AB81BC81ED81FE81D88ACF86EC
:10422000FE86ED867C876B878F819885800F911F36
:104230009A878987F887EF83BE83AD835C834B833E
:104240009D012E273F2724233523EA23FB232E27F6
:104250003F27952F929596959770842F880F880FFA
:10426000880FC92EC82A942F929596959770852FFE
:10427000880F880F880FD92ED82A952F9295990FDD
:10428000990F907C842F86958695E92EE82A942FA5
:104290009295990F990F907C852F86958695F92E8A
:1042A000F82AC6018E259F2584279527280F391FB8
:1042B000200F311F3A83298322E030E0A20EB31E83
:1042C00030E8A316B10409F041CFD2018D919C9141
:1042D0001197F301219131913F01820F931F8D932B
:1042E0009D932D01E815F90581F7CF56DF4FE88141
:1042F000F981C159D0403196CF56DF4FF983E88319
:10430000C159D040CF56DF4F08811981C159D040E3
:10431000CB56DF4F28813981C559D040021713078A
:104320000CF43FCECA55DF4F0FB6F894DEBF0FBE78
:10433000CDBFCF91DF911F910F91FF90EF90DF9054
:10434000CF90BF90AF909F908F907F906F905F9035
:104350004F903F902F900895CF93DF93DC01EAE9CF
:10436000F4E0EC01CC57DF4F8191919189939993BF
:1043700084E0EA3AF807C1F713961C921E9212974E
:104380001D921C92DF91CF910895AF92BF92CF9270
:10439000DF92EF92FF920F931F93CF93DF93EC0185
:1043A0005B012A813B81C9018F739070C89720F40B
:1043B00061E0C62ED12C03C052E0C52ED12C08815D
:1043C0001981020F131F43E0000F111F4A95E1F7F7
:1043D000760196E0EE0CFF1C9A95E1F7F701E21BDF
:1043E000F30B2C5F3F4F2C0F3D1FC90160E070E0C5
:1043F000AF010E94858FEA81FB81EC0FFD1F80E8F1
:104400008483FE01EE0DFF1D03831283118210824F
:10441000CE012496BE01A6010E94891FDE01A0588C
:10442000BF4F20E030E0F901EE0FFF1FEE0FFF1F3E
:10443000EA0DFB1D8C91838311968C9111978283D9
:10444000118210822F5F3F4F12962830310559F7A5
:10445000DF91CF911F910F91FF90EF90DF90CF9060
:10446000BF90AF900895AF92BF92CF92DF92EF923C
:10447000FF920F931F93CF93DF93EC016B017A01AF
:104480002A813B8180E490E0821B930B5A018417C0
:10449000950708F45C012C5F3F4F2C0F3D1FC901AD
:1044A000B601A5010E946A8F8A819B818E0D9F1D96
:1044B0008034910518F49B838A8339C0EA18FB087D
:1044C0008701A6E016950795AA95E1F7AC0CBD1CEF
:1044D000F4E0CF2ED12CCC0EDD1ECE01B60141E092
:1044E00050E00E94891FCE01B501A8010E94891FDA
:1044F0008FE3E822FF249801E6E0220F331FEA95BC
:10450000E1F72A0D3B1DC601B901A7010E946A8F80
:10451000FB82EA820F5F1F4F76E0000F111F7A9532
:10452000E1F788819981800F911F99838883DF91BA
:10453000CF911F910F91FF90EF90DF90CF90BF90A0
:10454000AF900895CF92DF92EF92FF920F931F9357
:10455000DF93CF93CDB7DEB7C459D0400FB6F894F0
:10456000DEBF0FBECDBF9C017B016A01EAE9F4E02A
:10457000DE01AB57BF4F819191918D939D9384E064
:10458000EA3AF807C1F71C821B821A8219828E014F
:104590000F5F1F4FC801B901A7010E943322C80154
:1045A000B6010E94C521CC56DF4F0FB6F894DEBF8E
:1045B0000FBECDBFCF91DF911F910F91FF90EF9074
:1045C000DF90CF9008950E9433220895AF92BF925A
:1045D000CF92DF92EF92FF920F931F93DF93CF93CF
:1045E000CDB7DEB7C054D0400FB6F894DEBF0FBED3
:1045F000CDBF7C01D62EC72EB42EA52E8E010F5F07
:104600001F4FB8010E94C52184E990E0E80EF91E11
:10461000C701B80140E250E00E9433228E010F5DD5
:104620001F4FC701B8010E94C5218D2D9C2DB801D7
:104630004B2D5A2D0E946A8FC05CDF4F0FB6F89445
:10464000DEBF0FBECDBFCF91DF911F910F91FF90C5
:10465000EF90DF90CF90BF90AF900895DC01FC0108
:10466000E85DFE4F24E901900D922150E1F7DC0155
:10467000AC56BF4FFC01E454FE4F84E901900D920B
:104680008150E1F70895AF92BF92CF92DF92EF92FF
:10469000FF920F931F93DF93CF93CDB7DEB7A09711
:1046A0000FB6F894DEBF0FBECDBF6C01403451058C
:1046B00029F45B0190E4E92EF12C34C0413451051A
:1046C00018F47A015B010CC0CB01BA018E010F5FB7
:1046D0001F4FA8010E94A22280E2E82EF12C58016F
:1046E00000E410E00E191F0980E592E0E80EF91EC3
:1046F00096012E0D3F1DC90166E370E0A8010E94DE
:10470000858F80E490E0E80EF91E96012E0D3F1D86
:1047100080E79DEFE80EF91EC9016CE570E0A80185
:104720000E94858FD5018601005B1D4FF80120E0B6
:1047300030E046E39CE50BC08C9184278083E05CED
:10474000FF4F8D91892780832F5F3F4FFF972E1555
:104750003F0594F3C6010E94AC21C601B80140E4B4
:1047600050E00E94332286010C561F4FC8010E9460
:10477000AC21B60160577D4FC80140E450E00E9473
:104780003322D601A85DBE4FF60184E901900D9257
:104790008150E1F7D601A454BE4FF80184E901909D
:1047A0000D928150E1F7A0960FB6F894DEBF0FBED0
:1047B000CDBFCF91DF911F910F91FF90EF90DF90D0
:1047C000CF90BF90AF9008958F929F92AF92BF927B
:1047D000CF92DF92EF92FF920F931F93DF93CF93CD
:1047E000CDB7DEB7C05DD2400FB6F894DEBF0FBEC6
:1047F000CDBFFC01DB015A0149016E010894C11CC7
:10480000D11CC601BF01AD010E944323C601B50101
:10481000A4010E943322C601B801A7010E94E6222A
:10482000C053DD4F0FB6F894DEBF0FBECDBFCF91A2
:10483000DF911F910F91FF90EF90DF90CF90BF908D
:10484000AF909F908F900895FC01EE0FFF1FEE0F29
:10485000FF1FE457F34F2591359145915491B901CC
:10486000CA010895FC01EE0FFF1FEE0FFF1FE45772
:10487000F74F2591359145915491B901CA01089599
:10488000FC01EE0FFF1FEE0FFF1FE457FB4F2591BA
:10489000359145915491B901CA010895FC01EE0F7B
:1048A000FF1FEE0FFF1FE457FF4F259135914591F4
:1048B0005491B901CA0108952F923F924F925F928D
:1048C0006F927F928F929F92AF92BF92CF92DF9220
:1048D000EF92FF920F931F93DF93CF9300D000D0FE
:1048E00000D0CDB7DEB7FC01009709F47FC1611598
:1048F000710509F47BC160517F4F8AE0DB018C9325
:10490000605F7040238130E040E050E0808190E0C3
:10491000A0E0B0E0B82FAA279927882728273927B1
:104920004A275B27818190E0A0E0B0E0DC01992775
:104930008827282739274A275B27828190E0A0E033
:10494000B0E0BA2FA92F982F8827282739274A2780
:104950005B27DB012D933D934D935C93139724814B
:1049600030E040E050E0522F442733272227858152
:1049700090E0A0E0B0E0DC019927882728273927BC
:104980004A275B27878190E0A0E0B0E028273927FD
:104990004A275B27868190E0A0E0B0E0BA2FA92FDC
:1049A000982F8827282739274A275B27DB01149669
:1049B0002D933D934D935C931797208530E040E015
:1049C00050E0522F442733272227818590E0A0E032
:1049D000B0E0DC0199278827282739274A275B2759
:1049E000838590E0A0E0B0E0282739274A275B279D
:1049F000828590E0A0E0B0E0BA2FA92F982F8827F9
:104A0000282739274A275B27DB0118962D933D93EA
:104A10004D935C931B97248530E040E050E0522F8B
:104A2000442733272227858590E0A0E0B0E0DC0111
:104A300099278827282739274A275B27878590E0E9
:104A4000A0E0B0E0282739274A275B27868590E039
:104A5000A0E0B0E0BA2FA92F982F88272827392760
:104A60004A275B27FB0124873587468757877E8344
:104A70006D836AE275E0AD81BE811C962D913D91FA
:104A80004D915C911F9729833A834B835C83CA01C4
:104A9000AA27BB27FC01F070EE0FFF1FEE0FFF1FD0
:104AA000E457FB4F2590359045905490BB27A52F98
:104AB000942F832FFC01F070EE0FFF1FEE0FFF1FEE
:104AC000E457FF4F659075908590949089819A8105
:104AD0009070880F991F880F991F8457934FFC017E
:104AE000A590B590C590D490852F9927AA27BB276C
:104AF000FC01EE0FFF1FEE0FFF1FE457F74FE5908D
:104B0000F59005911491FB0181919191A191B19141
:104B1000BF01ED81FE812081318142815381822755
:104B20009327A427B52720E030E040E05FEF222262
:104B300033224422552282259325A425B52520E041
:104B400030E04FEF50E062227322842295228625C6
:104B50009725A825B92520E03FEF40E050E0A222AC
:104B6000B322C422D5228A259B25AC25BD252FEF53
:104B700030E040E050E0E222F322042315238E25AA
:104B80009F25A027B127808B918BA28BB38B24818B
:104B9000358146815781282739274A275B27248B6F
:104BA000358B468B578B80859185A285B38582276F
:104BB0009327A427B527808F918FA28FB38F298148
:104BC0003A814B815C8182279327A427B527848F64
:104BD000958FA68FB78F7096FE83ED83F5E06235D3
:104BE0007F0709F048CF20E030E002C02FEF3FEF11
:104BF000C90126960FB6F894DEBF0FBECDBFCF9188
:104C0000DF911F910F91FF90EF90DF90CF90BF90B9
:104C1000AF909F908F907F906F905F904F903F905C
:104C20002F9008952F923F924F925F926F927F92B2
:104C30008F929F92AF92BF92CF92DF92EF92FF92AC
:104C40000F931F93DF93CF93CDB7DEB7C555D040F9
:104C50000FB6F894DEBF0FBECDBF4C0162967FAF9A
:104C60006EAF62975A834983DC018C91482E55249C
:104C700066247724D42CCC24BB24AA2413968C91AC
:104C8000482E552466247724A424B524C624D7248A
:104C9000DA012D913D914D915C91A226B326C42657
:104CA000D526F401818190E0A0E0B0E0DC019927F5
:104CB0008827A826B926CA26DB26828190E0A0E0B4
:104CC000B0E0BA2FA92F982F8827A826B926CA2680
:104CD000DB26AD8EBE8ECF8ED8A28781A82EBB24B8
:104CE000CC24DD24E981FA8184819581A681B78174
:104CF000A826B926CA26DB26D40114968C9190E00A
:104D0000A0E0B0E0B82FAA2799278827A826B926BF
:104D1000CA26DB26F401858190E0A0E0B0E0DC014A
:104D200099278827A826B926CA26DB26868190E0FF
:104D3000A0E0B0E0BA2FA92F982F8827A826B9267F
:104D4000CA26DB26A98EBA8ECB8EDC8E8385A82E52
:104D5000BB24CC24DD24E981FA8180859185A2855C
:104D6000B385A826B926CA26DB26D40118968C91CD
:104D700090E0A0E0B0E0B82FAA2799278827A826BE
:104D8000B926CA26DB26F401818590E0A0E0B0E0D8
:104D9000DC0199278827A826B926CA26DB26828522
:104DA00090E0A0E0B0E0BA2FA92F982F8827A8267E
:104DB000B926CA26DB26AD8ABE8ACF8AD88E8785D9
:104DC000A82EBB24CC24DD24E981FA818485958535
:104DD000A685B785A826B926CA26DB26D4011C9647
:104DE0008C9190E0A0E0B0E0B82FAA2799278827FF
:104DF000A826B926CA26DB26F401858590E0A0E026
:104E0000B0E0DC0199278827A826B926CA26DB2628
:104E1000868590E0A0E0B0E0BA2FA92F982F8827D0
:104E2000A826B926CA26DB26A98ABA8ACB8ADC8AB2
:104E300029813A8120513F4FD901BC91205F3040F8
:104E40003A832983B695B9A3EB2FF0E0F88BEF876F
:104E5000B9016D8C7E8C8F8C98A0892D9927AA27FB
:104E6000BB27FC01EE0FFF1FEE0FFF1FE457F34FB0
:104E70002590359045905490898C9A8CAB8CBC8C45
:104E8000C501AA27BB27FC01F070EE0FFF1FEE0F34
:104E9000FF1FE457F74FA590B590C590D4902D898A
:104EA0003E894F89588DBB27A52F942F832FFC0156
:104EB000F070EE0FFF1FEE0FFF1FE457FB4FE59062
:104EC000F5900591149189899A899070880F991F9E
:104ED000880F991F84579F4FFC012591359145916B
:104EE00054912A243B244C245D24FB018089918920
:104EF000A289B389282639264A265B262E243F24F8
:104F0000402651262226332644265526698C7A8C43
:104F10008B8C9C8C892D9927AA27BB27FC01EE0F2F
:104F2000FF1FEE0FFF1FE457F34FA590B590C590FC
:104F3000D4902D893E894F89588DCA01AA27BB2755
:104F4000FC01F070EE0FFF1FEE0FFF1FE457F74F4D
:104F5000659075908590949029893A894B895C89F0
:104F6000BB27A52F942F832FFC01F070EE0FFF1F9E
:104F7000EE0FFF1FE457FB4FE590F590059114915C
:104F80008D8D9E8D9070880F991F880F991F845763
:104F90009F4FFC012591359145915491A624B7244A
:104FA000C824D924FB0184899589A689B789A826B4
:104FB000B926CA26DB26AE24BF24C026D126A226C7
:104FC000B326C426D5266D887E888F88988C892D37
:104FD0009927AA27BB27FC01EE0FFF1FEE0FFF1F2B
:104FE000E457F34FE590F5900591149129893A899A
:104FF0004B895C89CA01AA27BB279C013070220F0C
:10500000331F220F331F2457374FF9018591959194
:10501000A591B4918B879C87AD87BE876D8C7E8C64
:105020008F8C98A0BB27A92D982D872DFC01F0709F
:10503000EE0FFF1FEE0FFF1FE457FB4F65907590BB
:1050400085909490898D9A8D9070880F991F880F04
:10505000991F84579F4FFC0125913591459154919B
:105060008B859C85AD85BE85E826F9260A271B27FA
:10507000FB01808D918DA28DB38DE826F9260A273C
:105080001B27E624F72408251925E226F326042702
:10509000152769887A888B889C88892D9927AA2763
:1050A000BB27FC01EE0FFF1FEE0FFF1FE457F34F6E
:1050B00025913591459154916D8C7E8C8F8C98A063
:1050C000C401AA27BB27EFEF8E2E912C88229922AC
:1050D000880C991C880C991C8CE898E0880E991E05
:1050E000F40185919591A591B4918F839887A987B3
:1050F000BA87698C7A8C8B8C9C8CBB27A92D982DB8
:10510000872DAFEF8A2E912C88229922880C991C2A
:10511000880C991C8CE894E0880E991EF401859106
:105120009591A591B4918B839C83AD83BE838D892A
:105130009E899070880F991F880F991F84579F4FE1
:10514000FC0165907590859094908F819885A985D4
:10515000BA85282739274A275B27FB01848D958D3F
:10516000A68DB78D282739274A275B278B819C81FD
:10517000AD81BE81282739274A275B272625372579
:1051800048255925605E7F4FAF85B8891197B88B48
:10519000AF87652C77248824992466966CAE7DAE03
:1051A0008EAE9FAE6697360188249924BB27A12F27
:1051B000902F8F2D8AA39BA3ACA3BDA3D901B07060
:1051C000BFA3AEA38D2D9927AA27BB2788A799A790
:1051D000AAA7BBA7C801AA27BB278CA79DA7AEA7D4
:1051E000BFA7BB27A52F942F832F88AB99ABAAAB62
:1051F000BBABD101B070BDABACAB812F9927AA2757
:10520000BB278EAB9FABA8AFB9AFCA01AA27BB27FC
:105210008AAF9BAFACAFBDAFBB27A52D942D832D1F
:1052200022968CAF9DAFAEAFBFAF2297D501B070C5
:105230002496BFAFAEAF2497852F9927AA27BB2707
:1052400028968CAF9DAFAEAFBFAF28971201442414
:10525000552455274D2D3C2D2B2D2C962CAF3DAF95
:105260004EAF5FAF2C97A70150702E965FAF4EAF39
:105270002E978F859889892B09F456C164962EAD97
:105280003FAD6497220F331F220F331F2457334F34
:10529000F901A590B590C590D490F301F070EE0F90
:1052A000FF1FEE0FFF1FE457F74F65907590859035
:1052B00094902AA13BA13070220F331F220F331F7D
:1052C00024573B4FF901E590F59005911491EEA11B
:1052D000FFA1EE0FFF1FEE0FFF1FE457FF4F2591B9
:1052E000359145915491A624B724C824D924FB01B3
:1052F00080819181A281B381A826B926CA26DB26A6
:10530000AE24BF24C026D126A226B326C426D52685
:10531000AD8EBE8ECF8ED8A228A539A5220F331F01
:10532000220F331F2457334FF901659075908590F4
:105330009490698E7A8E8B8E9C8E2CA53DA53070B4
:10534000220F331F220F331F2457374FF901659067
:1053500075908590949028A939A93070220F331F39
:10536000220F331F24573B4FF901E590F59005912B
:105370001491ECA9FDA9EE0FFF1FEE0FFF1FE457DC
:10538000FF4F2591359145915491A98CBA8CCB8CC6
:10539000DC8CA624B724C824D924FB018481958100
:1053A000A681B781A826B926CA26DB26AE24BF244B
:1053B000C026D126A226B326C426D526A98EBA8E0B
:1053C000CB8EDC8E2EA93FA9220F331F220F331F55
:1053D0002457334FF90165907590859094906D8AAC
:1053E0007E8A8F8A988E2AAD3BAD3070220F331F94
:1053F000220F331F2457374FF90165907590859020
:1054000094902EAD3FAD3070220F331F220F331F0B
:1054100024573B4FF901E590F5900591149124969E
:10542000EEADFFAD2497EE0FFF1FEE0FFF1FE45709
:10543000FF4F2591359145915491AD88BE88CF8815
:10544000D88CA624B724C824D924FB018085918553
:10545000A285B385A826B926CA26DB26AE24BF249A
:10546000C026D126A226B326C426D526AD8ABE8A5A
:10547000CF8AD88E26962EAD3FAD2697220F331FAA
:10548000220F331F2457334FF90165907590859093
:105490009490698A7A8A8B8A9C8AF101F070EE0F67
:1054A000FF1FEE0FFF1FE457F74F65907590859033
:1054B00094902A96EEADFFAD2A97F070EE0FFF1F85
:1054C000EE0FFF1FE457FB4FE590F5900591149107
:1054D0002E96EEADFFAD2E97EE0FFF1FEE0FFF1FC6
:1054E000E457FF4F2591359145915491A988BA8889
:1054F000CB88DC88A624B724C824D924FB01848562
:105500009585A685B785A826B926CA26DB26AE24AA
:10551000BF24C026D126A226B326C426D526A98A12
:10552000BA8ACB8ADC8A95CCB9A0AB2CBB2415E017
:10553000AA0CBB1C1A95E1F7C980DA80AC0CBD1C23
:105540006096BFAEAEAE609764968EAD9FAD649729
:10555000880F991F880F991F84579B4FFC01259135
:10556000359145915491B3017070660F771F660FA6
:10557000771F64577F4FFB016590759085909490DD
:105580006AA17BA17070660F771F660F771F645743
:10559000734FFB01A590B590C590D4906EA17FA1EB
:1055A000660F771F660F771F6457774FFB01E590F3
:1055B000F5900591149120703070407080E090E07B
:1055C000AFEFB0E0682279228A229B222625372578
:1055D000482559256096EEADFFAD60978081918199
:1055E000A281B381282739274A275B27612C6FEFD7
:1055F000762E812C912CA620B720C820D9202A25D0
:105600003B254C255D259FEF892E912CA12CB12C9B
:10561000E820F9200A211B212E253F25402751276C
:10562000852F9927AA27BB276296EEADFFAD62971B
:105630008083CA01AA27BB278183BB27A52F942F6C
:10564000832F8283238388A599A5880F991F880FAC
:10565000991F84579B4FFC01259135914591549199
:105660006CA57DA57070660F771F660F771F645756
:105670007F4FFB01659075908590949068A979A9FA
:105680007070660F771F660F771F6457734FFB01AB
:10569000A590B590C590D4906CA97DA9660F771F91
:1056A000660F771F6457774FFB01E590F5900591E2
:1056B000149120703070407080E090E0AFEFB0E067
:1056C000682279228A229B222625372548255925BA
:1056D0006096EEADFFAD609784819581A681B7811C
:1056E000282739274A275B27612C6FEF762E812CDC
:1056F000912CA620B720C820D9202A253B254C254F
:105700005D259FEF892E912CA12CB12CE820F9204A
:105710000A211B212E253F2540275127852F992718
:10572000AA27BB276296EEADFFAD62978483CA01BC
:10573000AA27BB278583BB27A52F942F832F86837A
:1057400027838EA99FA9880F991F880F991F8457B7
:105750009B4FFC0125913591459154916AAD7BADEC
:105760007070660F771F660F771F64577F4FFB01BE
:1057700065907590859094906EAD7FAD7070660F5A
:10578000771F660F771F6457734FFB01A590B59085
:10579000C590D49024966EAD7FAD2497660F771F89
:1057A000660F771F6457774FFB01E590F5900591E1
:1057B000149120703070407080E090E0AFEFB0E066
:1057C000682279228A229B222625372548255925B9
:1057D0006096EEADFFAD609780859185A285B3851B
:1057E000282739274A275B27612C6FEF762E812CDB
:1057F000912CA620B720C820D9202A253B254C254E
:105800005D259FEF892E912CA12CB12CE820F92049
:105810000A211B212E253F2540275127852F992717
:10582000AA27BB276296EEADFFAD62978087CA01BB
:10583000AA27BB278187BB27A52F942F832F828779
:10584000238726968EAD9FAD2697880F991F880FC8
:10585000991F84579B4FFC01259135914591549197
:10586000B1017070660F771F660F771F64577F4F07
:10587000FB0185919591A591B4912A966EAD7FAD6E
:105880002A977070660F771F660F771F6457734FE4
:10589000FB01A590B590C590D4902E966EAD7FADCE
:1058A0002E97660F771F660F771F6457774FFB01A0
:1058B000E590F590059114912070307040708070E3
:1058C0009070B070282739274A275B276096EEAD85
:1058D000FFAD609784859585A685B78528273927EC
:1058E0004A275B27612C7FEF772E812C912CA620F5
:1058F000B720C820D9202A253B254C255D256FEFF0
:10590000862E912CA12CB12CE820F9200A211B21F4
:105910002E253F2540275127852F9927AA27BB27CA
:105920006296EEADFFAD62978487CA01AA27BB27B6
:105930008587BB27A52F942F832F86872787CB5A50
:10594000DF4F0FB6F894DEBF0FBECDBFCF91DF9112
:105950001F910F91FF90EF90DF90CF90BF90AF908D
:105960009F908F907F906F905F904F903F902F907F
:1059700008952F923F924F925F926F927F928F92F3
:105980009F92AF92BF92CF92DF92EF92FF920F93CE
:105990001F93DF93CF93CDB7DEB7CB51D1400FB676
:1059A000F894DEBF0FBECDBFC65FDE4F99838883FC
:1059B000CA50D140C45FDE4F79836883CC50D14058
:1059C0005A01C25FDE4F39832883CE50D140C05F79
:1059D000DE4F19830883C051D1402701CE5EDE4FD0
:1059E000D982C882C251D14028E0E216F1040CF4F9
:1059F000BAC358EF252E5FEF352E2E0C3F1CB10198
:105A0000882777FD8095982F0E943F8C20E030E01A
:105A100040E85DE30E94158BCA5FDE4F688379839F
:105A20008A839B83C650D1400E949D8CC650DF4F15
:105A300079836883CA5FD040DB01BD01882777FD89
:105A40008095982F0E943F8C9B01AC01CA5FDE4F6E
:105A5000688179818A819B81C650D1400E94B78A32
:105A6000CE5FDE4F688379838A839B83C250D140A7
:105A700020E030E040E050E00E940F8C1816C4F4A3
:105A8000CA5FDE4F688179818A819B81C650D1408F
:105A900020E030E040E85FE30E94E88A0E949D8CAD
:105AA0006E5F7F4F44E0660F771F4A95E1F714C0A1
:105AB000C650DF4FE881F981CA5FD0403296BF01FE
:105AC00034E0660F771F3A95E1F73297C650DF4F03
:105AD000F983E883CA5FD04081E899E00E940637E5
