:100000000C947A030C94A3030C94A3030C94A30301
:100010000C94A3030C94A3030C94A3030C94A303C8
:100020000C94A3030C948B6F0C94A3030C94A30364
:100030000C94C5390C94A3030C94A3030C94AE390F
:100040000C9404320C94A3030C94A3030C94A30308
:100050000C9452320C94A3030C9446320C94A303D8
:100060000C94A3030C94A3030C94A3030C94A30378
:100070000C9490320C94A3030C9484320C94A3033C
:100080000C9452710C94A3030C94A303696E2D7508
:10009000736500696E76616C69642D76616C756557
:1000A00000746F6F2D626967006D697373696E67A5
:1000B0002D617474726962757465006261642D618A
:1000C000747472696275746500756E6B6E6F776EAD
:1000D0002D617474726962757465006D69737369FA
:1000E0006E672D656C656D656E74006261642D656B
:1000F0006C656D656E7400756B6E6F776E2D6E61DD
:100100006D657370616365006163636573732D640E
:10011000656E696564006C6F636B2D64656E6965FF
:1001200064006F7065726174696F6E2D6E6F742DEF
:100130007065726D6974746564006F706572617466
:10014000696F6E2D6661696C6564008C009300A117
:1001500000A900BB00C900DB00EB00F70008011696
:100160000122013A016170706C69636174696F6E9C
:10017000007270630070726F746F636F6C00650162
:10018000710175013C3F786D6C2076657273696F03
:100190006E3D27312E302720656E636F64696E6770
:1001A0003D275554462D38273F3E3C68656C6C6FA3
:1001B00020786D6C6E733D2275726E3A6965746657
:1001C0003A706172616D733A786D6C3A6E733A6E23
:1001D0006574636F6E663A626173653A312E3022E0
:1001E0003E3C6361706162696C69746965733E3C31
:1001F0006361706162696C6974793E75726E3A69A7
:100200006574663A706172616D733A6E6574636F9E
:100210006E663A626173653A312E313C2F636170CC
:100220006162696C6974793E3C2F636170616269D7
:100230006C69746965733E3C73657373696F6E2D89
:1002400069643E313C2F73657373696F6E2D696409
:100250003E3C2F68656C6C6F3E0075726E3A696546
:1002600074663A706172616D733A6E6574636F6E35
:10027000663A626173653A312E31003C3F786D6CAD
:100280002076657273696F6E3D27312E30272065A9
:100290006E636F64696E673D275554462D38273F5E
:1002A0003E0072756E6E696E6700736F757263657E
:1002B00000636F70792D636F6E66696700676574A0
:1002C0002D636F6E66696700636F6E6669670074A1
:1002D00061726765740063616E646964617465006E
:1002E00073746172747570007270632D6572726FD1
:1002F00072006572726F722D74797065006572722A
:100300006F722D746167006572726F722D736576FE
:100310006572697479006572726F722D6D657373A1
:10032000616765007270632D7265706C790065722B
:10033000726F72006D6573736167652D6964002F5C
:10034000636F6E6669672E786D6C002F696E7075CD
:10035000742E786D6C002F64726166742E786D6CEB
:10036000003C6E616D653E64756D6D793C2F6E610C
:100370006D653E003C6C6F636174696F6E3E6865CD
:1003800072653C2F6C6F636174696F6E3E003C70E8
:10039000736B3E3C70736B2D6964656E7469747920
:1003A0003E7468697369736D653C2F70736B2D695A
:1003B00064656E746974793E003C757365722D6E68
:1003C000616D653E736F6D65757365723C2F7573F6
:1003D00065722D6E616D653E003C6B65793E6162B4
:1003E000636465666768696A6B6C6D6E6F70717265
:1003F000737475767778797A3132333435363C2FA9
:100400006B65793E3C2F70736B3E003C6C63643EC1
:1004100048656C6C6F3C2F6C63643E0000757064C3
:1004200061746500737973557054696D6500676C0C
:100430006F62616C49500020253032782530327867
:100440003A25303278253032783A253032782530E6
:1004500032783A25303278253032783A2530327881
:10046000253032783A25303278253032783A2530C6
:100470003278253032783A2530327825303278207B
:10048000000A2325640A25730A23230A00007061E9
:10049000636B65747353656E74007061636B657430
:1004A000735265636569766564006661696C53655E
:1004B0006E74006661696C52656365697665640097
:1004C0006F637465747353656E74006F63746574E1
:1004D000735265636569766564006D636173745317
:1004E000656E74006D6361737452656365697665EA
:1004F0006400636F6E74616374006C6F6361746930
:100500006F6E006361706162696C69746965730024
:100510006361706162696C6974790068656C6C6FA5
:1005200000636C6F73652D73657373696F6E006C18
:100530006F636B00756E6C6F636B00676574006B47
:10054000696C6C2D73657373696F6E0024033403DB
:10055000E802F202FD02070316033F03610374037E
:100560000B041D0424042E0437048E049A04AA04E8
:10057000B304C004CB04DA04E4044B03560381043F
:100580008E03B903D9032F6F75747075742E786D4F
:100590006C008605257325730A004F6E6C696E65C5
:1005A0000A000A002C20636865636B207261746521
:1005B00020257520487A0025732025732C20636838
:1005C000616E6E656C202575000A2A2A2A2A2A2A5D
:1005D0002A426F6F74696E672025732A2A2A2A2A95
:1005E0002A2A0A004641494C3A2D343720746F7448
:1005F000616C5F726561643D25640A004641494C47
:100600003A2D343620723D25640A004641494C3A61
:100610002D34352C20746F74616C5F726561643D9C
:10062000256420723D25640A00436F756E743A2577
:10063000642C20723D25640A004641494C3A2D3411
:100640003120746F74616C5F726561643D25640A6A
:10065000004641494C3A2D343020723D25640A0051
:100660004641494C3A2D33392C20746F74616C5FCC
:10067000726561643D256420723D25640A00436F04
:10068000756E743A25642C20723D25640A0046413B
:10069000494C3A2D333520746F74616C5F7265611B
:1006A000643D25640A004641494C3A2D3335207299
:1006B0003D25640A00436F756E743A25642C2072E0
:1006C0003D25640A006275665B25645D20213D203E
:1006D00025640A0072203D2025640A00723D2564CD
:1006E0002E206275665B725D3D25640A00723D25B1
:1006F000640A0000EFEFFEE285EC90E401C0819314
:10070000EF3FF907E0F3D9F311241FBECFEFD0E498
:10071000DEBFCDBF13E0A0E0B1E0E2E5F4EF00E022
:100720000BBF02C007900D92A63BB107D9F71EE29E
:10073000A6EBB3E001C01D92AF3FB107E1F70E9405
:1007400094240C94277A0C940000CF93DF93EC014F
:10075000888199818133910599F082339105B0F4B4
:10076000009719F08E9791F409C086EB93E067E744
:1007700071E00E9433058EE290E004C0683821F4F5
:1007800081E390E09983888381E003C01982188215
:1007900083E0DF91CF91089520E030E0FC01868175
:1007A0009781892B11F421E030E0C9010895FC0103
:1007B0002281338180819181280F391FC9010895D9
:1007C000FC018081918108952091BE033091BF0387
:1007D0002115310511F021E030E0C9010895809123
:1007E000BE039091BF03892B19F420E030E004C0D0
:1007F0002091C0033091C103C90108958091BE03C7
:100800009091BF03892B29F41092C1031092C00369
:1008100008950E94B631BC01E091BE03F091BF0380
:100820004281538180819181480F591F461B570B8C
:100830000CC02281338180819181280F391F261BB2
:10084000370B2417350708F4A9010480F581E02D42
:10085000309779F7460F571F5093C1034093C00359
:100860000895CF93DF93EC01E091BE03F091BF03B5
:100870008E179F0741F48C819D819093BF038093D5
:10088000BE0314C0FC01309731F0848195818C1730
:100890009D07C1F707C01D821C821F821E82DF9147
:1008A000CF9108958C819D81958384830E94FE035E
:1008B000F2CFFC0180819181860F971F9183808305
:1008C0000E94FE0308958EE191E00E94823D08950A
:1008D000EF92FF920F931F93CF93DF937C01FC0164
:1008E00080819181009729F08A35910509F06DC0CA
:1008F0000BC01092BF031092BE038AE590E0F7018F
:100900009183808381E065C0673849F59A01E09161
:10091000BE03F091BF0303C00480F581E02D309742
:1009200041F38681978182179307B1F3E093BE0369
:10093000F093BF030FC016968D919C911797821765
:10094000930711F0FD0106C014968D919C911597A7
:1009500095838483A481B581109769F7CECF6238DF
:1009600061F6C091BE03D091BF0300E010E02AC041
:10097000CE010E94753E892B01F18E819F8168E82E
:10098000AE010E94223D892BA1F41F821E828C8120
:100990009D810115110521F0F8019583848304C020
:1009A0009093BF038093BE031D821C820E94FE03AE
:1009B000D8CF8EE191E00E94823D8E018C819D8195
:1009C0009C01E9012097A1F698CFF70111821082CE
:1009D00083E0DF91CF911F910F91FF90EF900895E9
:1009E000CF93DF93EC018EE191E00E94823D8E81F6
:1009F0009F81892B69F0E091BE03F091BF0306C08F
:100A0000EC17FD07A9F00480F581E02D3097C1F7C0
:100A100080910D0690910E069F838E838091BE0378
:100A20009091BF039D838C83D093BF03C093BE037B
:100A30000E94FE03DF91CF9108950F931F938C01C5
:100A40000E948D3EC8010E94F0041F910F910895ED
:100A50000F931F938C010E94563EC8010E94F00420
:100A60001F910F9108950F931F938C010E94983E40
:100A7000C8010E94F0041F910F9108956091681EB3
:100A80007091691E80916A1E90916B1E24E630E081
:100A900040E050E00E94807908952F923F924F925B
:100AA0005F926F927F928F929F92AF92BF92CF92FE
:100AB000DF92EF92FF920F931F93DF93CF93CDB707
:100AC000DEB7CC51D1400FB6F894DEBF0FBECDBF1C
:100AD0004C016B012DB73EB7C55EDE4F39832883CD
:100AE000CB51D140EAE7F5E0459054908E010A548D
:100AF0001F4FBAE12B2EB1E03B2E2C0E3D1E9091E4
:100B0000CE03943009F4AFC38091C803882309F45D
:100B10002BC3992389F42091CA033091CB03F401AC
:100B2000E20FF31F80818A3009F0A7C32F5F3F4F88
:100B30003093CB032093CA038091CE038230D8F444
:100B40002091CA033091CB032C153D0570F4F401BC
:100B5000E20FF31F8081833209F08FC32F5F3F4F75
:100B60003093CB032093CA0306C01092CB0310929C
:100B7000CA0381E058C18091CE03833008F05CC184
:100B80002091CA033091CB032C153D0508F04EC1CE
:100B9000F401E20FF31F8081833209F07BC1F90178
:100BA0003196EC15FD0508F039C1E80DF91D80817D
:100BB0008A3009F062C32E5F3F4F3093CB032093FE
:100BC000CA03ACE74A2EA5E05A2EF2016591749152
:100BD0008E01085F1F4FC8010E94B475C80162E012
:100BE00070E00E942D29782E692E1092C303AA244A
:100BF000BB248E01005E1F4FFF24F39425C0D80153
:100C0000E80DF91D82E301900D928150E1F7872DE7
:100C1000962DB50140E050E00E94BC24872D962D12
:100C2000B80142E350E00E94352B8091CA039091B5
:100C3000CB03C2969093CB038093CA0382E390E0E8
:100C4000A80EB91EF092C303E091CA03F091CB0342
:100C5000CF01C2968C159D0590F2CE1ADF0A91E065
:100C6000C916D104E1F4E80DF91D808189831A8247
:100C7000872D962DB50140E050E00E94BC24872DC1
:100C8000962DBE016F5F7F4F42E050E00E94352BF2
:100C900081E08093C3030894A11CB11C3BC0A2E077
:100CA000CA16D104BCF1FDB6EEB6C60101962DB749
:100CB0003EB7281B390B0FB6F8943EBF0FBE2DBFB1
:100CC0000DB71EB70F5F1F4F94012E0F3F1FC801B6
:100CD000B901A6010E94D175F801EC0DFD1D10822D
:100CE000872D962DB50140E050E00E94BC24872D51
:100CF000962DB801A6010E94352B81E08093C30395
:100D0000AC0CBD1C2F2D3E2DC9010FB6F8949EBF13
:100D10000FBE8DBF872D962DB50140E050E00E949B
:100D2000BC24872D962D68E271E042E050E00E94DD
:100D3000352B8091C903882309F4E8C3FE01E65EE0
:100D4000FE4F1082F20185909490F8E0CF2ED12CC6
:100D5000CC0EDD1EE6EBEE2EF12CEC0EFD1E872DEB
:100D6000962D0E949B24C601B4010E94B475C60151
:100D700061E070E00E942D298C016091CC0370919C
:100D8000CD036C597F4F7093CD036093CC0340E04B
:100D900050E00E94BC24C801B70144E650E00E9424
:100DA000A026C8010E949B24C601B4010E94B4750C
:100DB000C60162E070E00E942D29782E692EB501EF
:100DC00040E050E00E94BC24F70101900020E9F7C8
:100DD0003197EE19FF09E130F10561F4D701119661
:100DE0001C92119712961C92872D962DB70142E006
:100DF00050E004C0872D962DB701AF010E94352B1E
:100E0000F70101900020E9F73197EE19FF09AE0EC6
:100E1000BF1EE436F10509F4A2CF65C31092CB03DF
:100E20001092CA0384E08093CE034AC41092CB038D
:100E30001092CA0382E0F7CF863009F440C02AC07E
:100E4000F401E40FF51F80818A3059F18091D203BB
:100E50009091D3039C0173E0220F331F7A95E1F741
:100E6000880F991F280F391F3093D3032093D20383
:100E7000205330408081992787FD9095280F391F96
:100E80003093D3032093D2034F5F5F4F5093CB0334
:100E90004093CA034091CA035091CB034C155D05A2
:100EA00078F2F401E40FF51F80818A3011F083E0BD
:100EB00054C14F5F5F4F5093CB034093CA0380915F
:100EC000CA039091CB037601E81AF90A6090D20325
:100ED0007090D303E614F70408F49BC0CE01089683
:100EE000B2010E94B475CE01089662E070E00E94E3
:100EF0002D295C0136C08091CA039091CB03F40187
:100F0000E80FF91F20812D9301969093CB038093D6
:100F1000CA03A215B30579F7F10110826091D003DD
:100F20007091D103C50140E050E00E94BC24C5018E
:100F3000B80145E650E00E94352B8091D003909196
:100F4000D1038C599F4F9093D1038093D00380910C
:100F5000D2039091D303845690409093D30380930F
:100F6000D2038091D2039091D303853691051CF46E
:100F700040E050E015C0D801BECF8091CA039091E7
:100F8000CB03D801A40FB51FF401E80FF91F20818E
:100F90002C9301969093CB038093CA034F5F5F4FCE
:100FA000E091D203F091D3034E175F0734F3E00FC3
:100FB000F11F10826091D0037091D103C50140E010
:100FC00050E00E94BC244091D2035091D3034F5F64
:100FD0005F4FC501B8010E94352B8091D0039091DD
:100FE000D1032091D2033091D303820F931F9093AA
:100FF000D1038093D0031092D3031092D203C50182
:101000000E949B241092CE03E614F70409F077CDDA
:1010100057C31E141F040CF09FC0EAE7F5E065916A
:1010200074918E01085F1F4FC8010E94B475C801FA
:1010300062E070E00E942D296C0146EBA42EB12CD9
:10104000AC0EBD1E8E01065E1E4F3AC08091CA03D3
:101050009091CB03F401E80FF91F20812D930196A5
:101060009093CB038093CA03A017B10779F7D801F7
:101070001C926091D0037091D103C60140E050E012
:101080000E94BC24C601B50145E650E00E94352B04
:101090008091D0039091D1038C599F4F9093D103AD
:1010A0008093D0038091D2039091D30384569040D3
:1010B0009093D3038093D203ECE9FFEFEE0EFF1E73
:1010C000F5E6EF16F10414F0D501C0CF40E050E092
:1010D0008E010A541F4F8091CA039091CB03D8010F
:1010E000A40FB51FF401E80FF91F20812C9301967E
:1010F0009093CB038093CA034F5F5F4F4E155F05FC
:1011000054F3F801EE0DFF1D10826091D003709131
:10111000D103C60140E050E00E94BC24A7014F5F0C
:101120005F4FC601B8010E94352B8091D00390918A
:10113000D1038E0D9F1D9093D1038093D003809196
:10114000D2039091D3038E199F099093D303809378
:10115000D203C6010E949B2486E08093CE031092A6
:10116000CB031092CA03ACC2EAE7F5E06591749133
:101170008E01085F1F4FC8010E94B475C80162E06C
:1011800070E00E942D298C016091D0037091D103F1
:1011900040E050E00E94BC24C801B401A6010E94B6
:1011A000352BC8010E949B2427E0C216D1041CF1F4
:1011B000F401EC0DFD1D829131968A3001F53297D4
:1011C000808132968E3309F040C033978081339608
:1011D0008D35D9F53497808134968D35B1F53597B5
:1011E000808135968E3389F53697808136968D3598
:1011F00061F5379720C036E0C316D10431F5F4010C
:10120000EC0DFD1D829131968E33F9F43297808179
:1012100032968D35D1F43397808133968D35A9F48C
:101220003497808134968E3381F43597808135965A
:101230008D3559F4369780818D3539F41092CE036F
:101240001092CB031092CA0377C185E08093CE033E
:101250008091CA039091CB038C0D9D1D9093CB037D
:101260008093CA032DC22091CA033091CB03F401AD
:10127000E20FF31F80818A3021F081E08093CF0359
:101280001FC22E5F3F4F3093CB032093CA033CE72E
:10129000432E35E0532EF201659174918E01085F63
:1012A0001F4FC8010E94B475C80162E070E00E943F
:1012B0002D29782E692E1092C303AA24BB248E01F7
:1012C000005E1F4FFF24F39425C0D801E80DF91DDF
:1012D00082E301900D928150E1F7872D962DB501A3
:1012E00040E050E00E94BC24872D962DB80142E3D7
:1012F00050E00E94352B8091CA039091CB03C29697
:101300009093CB038093CA0382E390E0A80EB91EAA
:10131000F092C303E091CA03F091CB03CF01C296D0
:101320008C159D0590F2CE1ADF0A91E0C916D10402
:10133000E1F4E80DF91D808189831A82872D962DAD
:10134000B50140E050E00E94BC24872D962DBE01DF
:101350006F5F7F4F42E050E00E94352B81E0809329
:10136000C3030894A11CB11C3BC0A2E0CA16D1045F
:10137000BCF1FDB6EEB6C60101962DB73EB7281BEF
:10138000390B0FB6F8943EBF0FBE2DBF0DB71EB779
:101390000F5F1F4F94012E0F3F1FC801B901A60117
:1013A0000E94D175F801EC0DFD1D1082872D962D40
:1013B000B50140E050E00E94BC24872D962DB80175
:1013C000A6010E94352B81E08093C303AC0CBD1CA9
:1013D0002F2D3E2DC9010FB6F8949EBF0FBE8DBFB5
:1013E000872D962DB50140E050E00E94BC24872D4A
:1013F000962D68E271E042E050E00E94352B80912A
:10140000C903882309F482C0FE01E65EFE4F108204
:10141000F2018590949024E1C22ED12CCC0EDD1ED9
:1014200096EBE92EF12CEC0EFD1E872D962D0E94D9
:101430009B24C601B4010E94B475C60161E070E04E
:101440000E942D298C016091CC037091CD036C59C1
:101450007F4F7093CD036093CC0340E050E00E9437
:10146000BC24C801B70144E650E00E94A026C80190
:101470000E949B24C601B4010E94B475C60162E0BB
:1014800070E00E942D29782E692EB50140E050E0D1
:101490000E94BC24F70101900020E9F73197EE1972
:1014A000FF09E130F10561F4D70111961C92119703
:1014B00012961C92872D962DB70142E050E004C091
:1014C000872D962DB701AF010E94352BF7010190B2
:1014D0000020E9F73197EE19FF09AE0EBF1EE43682
:1014E000F10509F4A2CF872D962DB50140E050E01B
:1014F0000E94BC24872D962D68E271E042E050E006
:101500000E94352B1092CD031092CC038091C3031F
:10151000882321F41092CD031092CC03872D962DB1
:101520000E949B241092CB031092CA031092D10305
:101530001092D0031092CE0382EE93E00E941D051C
:1015400084EB91E00E94B43D8093DC049093DD0431
:101550006BE271E040EE5EE20E9495198BE291E051
:1015600040E157E260E070E00E94AA1B6C01BB24DE
:10157000B394B092BC011092D4030E94B631909300
:10158000D6038093D5038CE291E061E070E00E9485
:101590002D29BE016E5A7F4F44E650E00E94A026DE
:1015A0000E94B63100D000D000D0EDB7FEB7319622
:1015B0008E010D5F1F4FADB7BEB712961C930E93F1
:1015C000119727E331E0338322832091D5033091B3
:1015D000D603821B930B958384830E94B376EDB769
:1015E000FEB736960FB6F894FEBF0FBEEDBFC8012A
:1015F0000E94C36FC60165E87BE00E94FF22C6011E
:101600006BE271E020E137E240E050E00E94D41646
:10161000C6016FE87DE00E94FF228091AE2484FD28
:1016200024C0E090DC04F090DD04E114F104E9F062
:10163000D70112968D919C9113970097B1F06BE7AB
:1016400072E00E94AB75892B81F0F701008511854E
:101650001093C5030093C4038BE792E00E94BB750F
:101660008017910710F4B092C20385E08093D703EE
:101670001092EA031092D803C6010E943F23809182
:10168000D9038823A9F088ECE82E84E0F82E02C064
:101690000E94F274D7018D919D917D010097C1F751
:1016A0008091C6049091C7040E94F2741092D903ED
:1016B0006091DC047091DD0484EB91E00E94E23DD6
:1016C000C55EDE4FE881F981CB51D1400FB6F89469
:1016D000FEBF0FBEEDBFC45EDE4F0FB6F894DEBF97
:1016E0000FBECDBFCF91DF911F910F91FF90EF9073
:1016F000DF90CF90BF90AF909F908F907F906F9032
:101700005F904F903F902F900895CF93DF93E90122
:101710008091D403882381F46430710509F050C0AE
:10172000C90161EB72E00E94AB75892B09F048C0DA
:1017300081E08093D40344C064307105C9F5C901C8
:101740006FEC72E00E94AB75892BD1F1CE0162EA99
:1017500072E00E94AB75892B99F1CE016AEA72E0C2
:101760000E94AB75892B61F1CE0168EC72E00E949A
:10177000AB75892B29F1CE0162EF74E00E94AB7545
:10178000892BF1F0CE016AEF74E00E94AB75892BD2
:10179000B9F0CE016AE371E00E940976009781F00A
:1017A000CE016FE371E00E940976009749F006C010
:1017B0006115710529F06130710511F41092BC01B9
:1017C000DF91CF910895AF92BF92CF92DF92EF92C7
:1017D000FF920F931F93DF93CF93CDB7DEB7C5561C
:1017E000D0400FB6F894DEBF0FBECDBF5C01FE0146
:1017F000EB59FF4F1082EAE5F5E0659174918E0197
:101800000F5F1F4FC8010E94B475C80161E070E00E
:101810000E942D296C01EE24FF24C601B70140E08F
:1018200050E00E94BC24C601B80144E650E00E948A
:10183000A026C501B8010E94771884E690E0E80E62
:10184000F91EF80101900020E9F7E556F040E01795
:10185000F10719F3C6010E949B24CB59DF4F0FB645
:10186000F894DEBF0FBECDBFCF91DF911F910F91D6
:10187000FF90EF90DF90CF90BF90AF9008952F92A0
:101880003F924F925F926F927F928F929F92AF9210
:10189000BF92CF92DF92EF92FF920F931F93DF934D
:1018A000CF93CDB7DEB769970FB6F894DEBF0FBE02
:1018B000CDBF7C014B013A01190120E5C22E25E084
:1018C000D22EF601459054908E010F5F1F4FC80134
:1018D000B2010E94B475C70160E070E0A8010E94E7
:1018E000301982E090E0C80ED91EF601A590B490A0
:1018F000C801B5010E94B475C70160E070E0A8019D
:101900000E943019F401EE0FFF1FE258FE4F65915F
:101910007491C8010E94B475C701B8010E9477187C
:10192000C801B5010E94B475C70160E070E0A8016C
:101930000E940A1882E090E0C80ED91EF601A59018
:10194000B4908CEF9FEFC80ED91EC801B5010E945C
:10195000B475C70160E070E0A8010E943019F3017E
:10196000EE0FFF1FE55BFE4F65917491C8010E9469
:10197000B475C701B8010E947718C801B5010E946B
:10198000B475C70160E070E0A8010E940A18F60172
:10199000369665917491C8010E94B475C70160E0E4
:1019A00070E0A8010E943019C70163E471E00E9451
:1019B0007718C70160E070E0A8010E940A18F601DC
:1019C000389665917491C8010E94B475C70160E0B2
:1019D00070E0A8010E943019C701B1010E94771878
:1019E000C70160E070E0A8010E940A18C801B201B6
:1019F0000E94B475C70160E070E0A8010E940A1857
:101A0000F601349765917491C8010E94B475C701BD
:101A100060E070E0A8010E940A1869960FB6F89479
:101A2000DEBF0FBECDBFCF91DF911F910F91FF9011
:101A3000EF90DF90CF90BF90AF909F908F907F906E
:101A40006F905F904F903F902F900895AF92BF920C
:101A5000CF92DF92EF92FF920F931F93DF93CF937A
:101A6000CDB7DEB76E970FB6F894DEBF0FBECDBF11
:101A70007C016B01B42EA52EECE4F5E06591749128
:101A80008E010F5F1F4FC8010E94B475C70160E04F
:101A900070E0A8010E943019D6018C91882371F062
:101AA000EEE4F5E065917491C8010E94B475C70138
:101AB00060E070E0A80196010E94C3188B2D9A2D5A
:101AC0009C01890116C08081D80112964D915C91CC
:101AD000139714962D913C911597882321F4C701F3
:101AE00060E070E002C0C701BF010E94C3180A5F36
:101AF0001F4FD801ED91FC91309729F76E960FB6E4
:101B0000F894DEBF0FBECDBFCF91DF911F910F9133
:101B1000FF90EF90DF90CF90BF90AF900895CF925D
:101B2000DF92EF92FF920F931F93DF93CF93CDB786
:101B3000DEB72E970FB6F894DEBF0FBECDBFF22EE4
:101B4000E32E68011091D703163009F413C3173040
:101B500090F4123009F4C9C0133030F4112309F1A4
:101B6000113009F049C532C0143009F499C215305A
:101B700008F061C05EC21A3009F4BCC31B3038F4EF
:101B8000183009F436C3193008F04FC30FC31D30A5
:101B900009F4D1C11E3009F480C11C3009F02CC5F4
:101BA00056C16430710509F027C5822F932F6BE170
:101BB00075E00E94AB75892B11F481E039C08FEF7D
:101BC0008093D70380E18093AE24CBC0643071054D
:101BD00099F4822F932F63E075E00E94AB75892BF7
:101BE00009F40AC58F2D9E2D60E175E00E94AB754A
:101BF000892B09F401C53DC06330710561F4822F62
:101C0000932F6AE572E00E94AB75892B09F0F4C44A
:101C10001093C803F1C4672B09F0EEC4822F932FF1
:101C20006BE175E00E94AB75892B09F0E5C485E096
:101C30008093D703E1C46430710509F0DDC4822FBD
:101C4000932F69E471E00E940976009709F0D4C4EB
:101C500082E08093D70311E01093D903D601129646
:101C60008D919C91139764E373E00E94AB75892B6F
:101C700049F08FEF8093D70380E18093AE241093D7
:101C8000CF03BAC4F601848195810E945F208093BE
:101C9000C6049093C7041092C9041092C80448EC7B
:101CA000E42E44E0F42E03E010E00CC00E945F201C
:101CB000D7018C9311969C930F5F1F4FE2E0F0E0E9
:101CC000EE0EFF1ED60116968D919C911797E2E0BD
:101CD000F0E0CE0EDF1E009749F7000F111F0853EA
:101CE0001B4FD8011D921C9287C46430710509F006
:101CF00098C0822F932F61E275E00E94AB75892B0B
:101D0000A1F56091C6047091C7048091DC049091A4
:101D1000DD0448EC54E00E94260D8091DC04909193
:101D2000DD0460E070E04DE451E00E9430198091E4
:101D3000DC049091DD0460E070E04DE451E00E942D
:101D40000A188091DC049091DD0460E070E040E5C9
:101D500051E00E940A188091DC049091DD040E94F9
:101D6000B11781E08093CF0347C48F2D9E2D6DEB7B
:101D700072E00E94AB75892B09F4E3C18F2D9E2D73
:101D800061EB72E00E94AB75892B09F44CC28F2D78
:101D90009E2D6FE275E00E94AB75892B39F48CE0C3
:101DA0008093D70381E08093DA0326C48F2D9E2D84
:101DB00064E375E00E94AB75892B31F48CE080936D
:101DC000D7031092DA0318C48F2D9E2D6BE375E0B4
:101DD0000E94AB75892B11F48EE02ACF8F2D9E2D9A
:101DE0006FE375E00E94AB754091DC045091DD0417
:101DF0006091C6047091C704892B09F037C1CA01EC
:101E000048EC54E00E94260D2091C9013091CA018E
:101E10008091DC049091DD0461E070E041E050E0ED
:101E200065C2672B09F0E8C3822F932F69E471E044
:101E30000E940976009709F4FACE8F2D9E2D61E25B
:101E400075E00E94AB75892B09F4D6C337C26430A4
:101E5000710559F4822F932F6FEC72E00E94AB75DD
:101E6000892B09F02BC28DE0E3CE672B09F0C4C3A8
:101E70008091DA03813039F4822F932F6FE275E07D
:101E80000E94AB758EC1882309F0B6C3822F932FB1
:101E900064E375E00E94AB7584C16430710539F468
:101EA000822F932F6DE571E00E940976D5C0672BD4
:101EB00009F0A2C3822F932F64E671E00E94097695
:101EC0004091DC045091DD046091C6047091C70418
:101ED000009709F0D9C0CA0148EC54E00E94260DD1
:101EE0008091DC049091DD0460E070E048E651E010
:101EF0000E9430198091DC049091DD040E94E30B74
:101F00008091DC049091DD0460E070E048E651E0EF
:101F10000E940A188091DC049091DD0460E070E07A
:101F200040E551E00E940A188091DC049091DD04A4
:101F30000E94B11739C16430710509F063C0822F66
:101F4000932F62EA72E00E94AB75892BB9F0609121
:101F5000C6047091C7048091DC049091DD0448ECC4
:101F600054E00E94260D8091DC049091DD0461E034
:101F700070E047E050E02AE531E0B8C18091DA0333
:101F80004091DC045091DD046091C6047091C70457
:101F9000813029F48091DB038130B1F406C08823BD
:101FA00099F48091DB03882379F4CA0148EC54E06A
:101FB0000E94260D4091DC045091DD04CA0161E0CD
:101FC00070E04BE050E0D7CF81E09091DB03891BBC
:101FD0008093DB03CA0148EC54E00E94260D8091F7
:101FE000DC049091DD0460E070E04DE451E00E947B
:101FF00030198091DC049091DD0460E070E04DE4E4
:1020000051E081C0672B09F0F7C2822F932F62EA5B
:1020100072E00E94AB75892B09F4EEC28F2D9E2DC4
:102020006FEC72E00E94AB75892B09F047C18CE020
:10203000FFCD6430710551F5822F932F6AEA72E06B
:102040000E94AB75892B11F484E0F2CD8F2D9E2D6B
:102050006DE571E00E9409764091DC045091DD0449
:102060006091C6047091C704009771F4CA0148ECEE
:1020700054E00E94260D8091DC049091DD0460E024
:1020800070E048E050E077CFCA0120C1672B09F02B
:10209000B3C2822F932F6DEB72E00E94AB7581C0AB
:1020A0006430710509F042C0822F932F62EA72E01A
:1020B0000E94AB754091DC045091DD046091C60430
:1020C0007091C704892B11F0CA0149CFCA0148ECAD
:1020D00054E00E94260D8091DC049091DD0460E0C4
:1020E00070E048E651E00E9430198091DC04909144
:1020F000DD040E94E30B8091DC049091DD0460E03C
:1021000070E048E651E00E940A188091DC0490914A
:10211000DD0460E070E040E551E00E940A18809123
:10212000DC049091DD040E94B11766C2672B09F0B0
:1021300063C2822F932F6AEA72E00E94AB75892BEB
:1021400011F483E075CD8F2D9E2D62EA72E00E941E
:10215000AB75892B09F450C2E091DC04F091DD04E9
:1021600010861186128613866091C6047091C7048A
:10217000CF01ACC06430710559F4822F932F6FECFE
:1021800072E00E94AB75892B09F098C087E050CDB2
:10219000672B09F031C2822F932F61EB72E00E940E
:1021A000AB75892B09F08AC082E042CD643071059D
:1021B00051F4822F932F62EA72E00E94AB75892B53
:1021C00009F41AC2C4CE672B09F016C2822F932FCE
:1021D00062EA72E00E94AB75892B09F40DC28F2D63
:1021E0009E2D6FEC72E00E94AB75892B09F46CC1D7
:1021F00065C06430710559F4822F932F6AEA72E04A
:102200000E94AB75892B09F059C089E011CD672B6D
:1022100009F0F2C1822F932F6AEA72E00E94AB7537
:10222000892B09F04BC086E003CD6430710509F0BD
:10223000E3C1822F932F68EC72E00E94AB75892B6B
:1022400009F03CC08091BC01882309F480CE109233
:10225000DD031092DC038AE08093D703EAE5F5E022
:10226000659174918E010D5F1F4FC8010E94B47576
:10227000C80162E070E00E942D299093DF038093F3
:10228000DE038F5F9F4F09F0B7C16091C604709164
:10229000C7048091DC049091DD0448EC54E00E9476
:1022A000260D2091C9013091CA018091DC049091E2
:1022B000DD0460E070E04DE050E018C06091C604BD
:1022C0007091C7048091DC049091DD0448EC54E0E7
:1022D0000E94260D2091C9013091CA018091DC0431
:1022E0009091DD0461E070E047E050E00E943F0C17
:1022F0008FEF9ECC6430710539F5822F932F6FE3F9
:1023000071E00E940976009719F481E08093E00360
:102310006091DC037091DD038091DE039091DF0317
:1023200040E050E00E94BC248091DE039091DF03E6
:102330006DE671E042E050E00E94352B8091DC03B5
:102340009091DD030196DAC06330710509F063C036
:102350006091DC037091DD038091DE039091DF03D7
:1023600040E050E00E94BC24EF2DFE2DDF010D90D7
:102370000020E9F71197AE1BBF0BA130B10539F56D
:1023800000D000D000D0EDB7FEB731968E010F5FC0
:102390001F4FADB7BEB712961C930E93119780E7EF
:1023A00091E093838283F482E5820E94B376EDB755
:1023B000FEB736960FB6F894FEBF0FBEEDBF809104
:1023C000DE039091DF03B80142E050E007C0809146
:1023D000DE039091DF036F2D7E2DAD010E94352B22
:1023E0008091DC039091DD03AF2DBE2DFD010190A6
:1023F0000020E9F73197EA1BFB0BE80FF91FF09378
:10240000DD03E093DC038091E003813009F0F4C048
:102410001092E003F1C0672B09F0EEC0822F932FDA
:1024200068EC72E00E94AB752091DE033091DF030F
:10243000892B09F04BC06091DC037091DD03C90169
:1024400040E050E00E94BC248091DE039091DF03C5
:1024500067E771E042E050E00E94352B8091DE0397
:102460009091DF030E949B246091C6047091C70481
:102470008091DC049091DD0448EC54E00E94260D2C
:102480008091DC049091DD0460E070E04DE451E067
:102490000E9430198091DC049091DD0460E070E0CE
:1024A0004DE451E00E940A188091DC049091DD0413
:1024B00060E070E040E551E00E940A188091DC0481
:1024C0009091DD040E94B11788E0B2CB6091DC03EB
:1024D0007091DD03C90140E050E00E94BC2480916E
:1024E000DE039091DF036AE771E042E050E00E9472
:1024F000352B8091DC039091DD0302969093DD03F0
:102500008093DC036091DC037091DD038091DE0336
:102510009091DF0340E050E00E94BC24EF2DFE2D9F
:10252000DF010D900020E9F71197AE1BBF0BA13022
:10253000B10539F500D000D000D0EDB7FEB7319627
:102540008E010F5F1F4FADB7BEB712961C930E934F
:10255000119780E791E093838283F482E5820E9461
:10256000B376EDB7FEB736960FB6F894FEBF0FBE42
:10257000EDBF8091DE039091DF03B80142E050E0AF
:1025800007C08091DE039091DF036F2D7E2DAD019A
:102590000E94352B8091DC039091DD03AF2DBE2D81
:1025A000FD0101900020E9F73197EA1BFB0BE80FD2
:1025B000F91FF093DD03E093DC036091DC0370917D
:1025C000DD038091DE039091DF0340E050E00E9444
:1025D000BC248091DE039091DF0364E771E042E068
:1025E00050E00E94352B8091DC039091DD03019631
:1025F0009093DD038093DC032E960FB6F894DEBF34
:102600000FBECDBFCF91DF911F910F91FF90EF9043
:10261000DF90CF9008956F927F928F929F92AF92AA
:10262000BF92CF92DF92EF92FF920F931F93DF93AF
:10263000CF93CDB7DEB7C452D1400FB6F894DEBF0A
:102640000FBECDBF3C01DC018D919C91B6E0873D72
:102650009B07A1F0E6E0823E9E0709F4F3C0892BB8
:1026600009F038C382EE93E067E771E00E9433051A
:1026700087ED96E0D3018D939C93E2C0683809F012
:10268000DFC08BE098EB0E9422536AE5C62E65E01E
:10269000D62EF601659174918E01005E1F4FC80120
:1026A0000E94B475C80162E070E00E942D299093E9
:1026B000DF048093DE0497FD1CC0F601329665911D
:1026C0007491C8010E94B475F80101900020E9F7E7
:1026D0003197E01BF10B8091DE049091DF04B8018B
:1026E000AF010E94352B8091DE049091DF040E949F
:1026F0009B24F601659174918E01005E1F4FC80105
:102700000E94B475C80166E070E00E942D29909384
:10271000DF048093DE04ECE5F5E065917491C80177
:102720000E94B4758091DE049091DF0497FD7FC014
:10273000F80101900020E9F73197E01BF10BBF0190
:1027400040E050E00E94BC24EEE5F5E06591749114
:10275000C8010E94B475F80101900020E9F7319793
:10276000E01BF10B8091DE049091DF04B801AF0112
:102770000E94352BE0E8F5E065917491C8010E9454
:10278000B475F80101900020E9F73197E01BF10BD7
:102790008091DE049091DF04B801AF010E94352BD7
:1027A000E2E8F5E065917491C8010E94B475F80102
:1027B00001900020E9F73197E01BF10B8091DE04D6
:1027C0009091DF04B801AF010E94352BE4E8F5E0F9
:1027D00065917491C8010E94B475F80101900020C0
:1027E000E9F73197E01BF10B8091DE049091DF0453
:1027F000B801AF010E94352BE0E6F5E065917491D8
:10280000C8010E94B475F80101900020E9F7E01BAF
:10281000F10B8091DE049091DF04B801AF010E94BA
:10282000352B8091DE049091DF040E949B2484EB81
:1028300091E00E94333E82EE96E0F3019183808323
:1028400081E04CC28091C203813009F011C18091B6
:10285000E9249091EA24892B71F78E0109541F4FC6
:102860008EE6D8011D928A95E9F78DE791E061E047
:1028700070E00E942D296C018091C4039091C503E2
:102880006091C6037091C703853691050CF450C062
:10289000C60140E050E00E94BC248091C803882318
:1028A000B9F0B8016A5F7F4FC60144E650E00E946C
:1028B000A0269AE0F801908383E2818381E38283FA
:1028C00080E3838384839583FE01EF5DFE4F09C01F
:1028D000C601B80144E650E00E94A026FE01E55E74
:1028E000FE4F1082DE01A954BF4FFD010190002070
:1028F000E9F73197EA1BFB0BCD01BF010E94D845D8
:102900008091C4039091C503845690409093C50371
:102910008093C4038091C6039091C7038C599F4F45
:102920009093C7038093C60381E08093C2039CC049
:10293000C60140E050E00E94BC244091C403509185
:10294000C5034A3051051CF40C5F1F4F02C00B5FDA
:102950001F4FC601B8010E94A0268091C80388239A
:1029600009F44BC0EEE7F5E0659174918E010F5EBE
:102970001F4FC8010E94B4752091C4033091C50354
:10298000CE0189549F4F2A303105C4F44DB75EB74C
:10299000485050400FB6F8945EBF0FBE4DBFEDB724
:1029A000FEB73196ADB7BEB712969C938E93119732
:1029B0001383028335832483049617C04DB75EB713
:1029C000485050400FB6F8945EBF0FBE4DBFEDB7F4
:1029D000FEB73196ADB7BEB712969C938E93119702
:1029E00013830283358324830596978386830E940D
:1029F000B376EDB7FEB738961AC000D000D000D03D
:102A0000EDB7FEB731969E0129543F4FADB7BEB723
:102A100012963C932E93119789E891E093838283D9
:102A2000358324830E94B376EDB7FEB736960FB692
:102A3000F894FEBF0FBEEDBFDE01A954BF4FFD01EC
:102A400001900020E9F73197EA1BFB0BCD01BF0194
:102A50000E94D8451092C2031092C5031092C4037D
:102A60001092C7031092C603C6010E949B24E3CEB6
:102A70008091C303882309F4B2C0EE24E394E0926A
:102A8000C9031092CB031092CA0352E5852E912CF4
:102A90008C0E9D1E85E6D4011D928A95E9F7ECE720
:102AA000F5E0659174918E010B5F1F4FC8010E9484
:102AB000B475C80161E070E00E942D295C0160914D
:102AC000CC037091CD0340E050E00E94BC24C501CE
:102AD000B40144E650E00E94A026F40101900020D9
:102AE000E9F76F010894C108D108C818D908F4E6BD
:102AF000CF16D10409F45EC000D000D000D0EDB7ED
:102B0000FEB731967E010894E11CF11CADB7BEB74B
:102B10001296FC92EE92119702E911E01383028360
:102B2000D582C4820E94B376EDB7FEB736960FB653
:102B3000F894FEBF0FBEEDBF6091CC037091CD0342
:102B4000C50140E050E00E94BC24C501B401A601CB
:102B50000E94A026F401EC0DFD1D1082C5010E940B
:102B60009B241092C3031092C903C401B6010E94B2
:102B70004D0500D000D000D0EDB7FEB73196ADB70F
:102B8000BEB71296FC92EE92119713830283809146
:102B9000C303848315820E94B3761092CD031092F2
:102BA000CC03EDB7FEB736960FB6F894FEBF0FBE56
:102BB000EDBF41CEC5010E949B24C40164E670E0D4
:102BC0000E944D05E092C3038091CC039091CD0308
:102BD0008C599F4F9093CD038093CC032CCE809142
:102BE000E525681709F06FC08091CF03882389F02D
:102BF00080E18093AE241092CF031092D8031092FC
:102C0000C8031092E1031092DB0382EE93E00E946E
:102C100031048091AE2484FF04C01092E10310922D
:102C2000DB038091AE2486FF39C08091E1038823C5
:102C300089F581E08093E10382EE93E066EA7EE02D
:102C40000E9433050AEE13E0C80164E871E00E94B7
:102C5000B475C80165E971E00E94F375F80101904F
:102C60000020E9F73197E01BF10BC801BF010E947A
:102C7000D8451092EA031092D7031092CE03109217
:102C8000CB031092CA031092C8031092C303109290
:102C9000C20304C080E18093AE24CDCD8091AE24E8
:102CA00081FFC9CD0E94B6319093D6038093D5039E
:102CB00060919E1F70919F1F8091B3249091B424C6
:102CC0000E944D05B8CD683809F0B5CD81E08093FC
:102CD000CF03B1CDD3011D921C9283E0CC5DDE4FBA
:102CE0000FB6F894DEBF0FBECDBFCF91DF911F911D
:102CF0000F91FF90EF90DF90CF90BF90AF909F909B
:102D00008F907F906F900895FC01009729F42FEF2A
:102D10003FEF4FEF5FEF08C0248935894689578917
:102D20002F5F3F4F4F4F5F4FB901CA010895FC011C
:102D3000009731F083E0683E780714F07183608378
:102D4000089581EA96E10895FC01009749F1611523
:102D5000710531F112161306140615060CF5A28141
:102D6000B3811097E9F081E090E09183808316961B
:102D70001D921D921D921C9219977387628724875A
:102D8000358746875787108A118A128A138A148AD0
:102D9000158A168A178A118E108E21E030E002C043
:102DA00020E030E0C90108950E94A4160895FC01B6
:102DB000009709F462C08081918186309105E1F12C
:102DC00087309105A4F48230910551F1833091054B
:102DD00044F4009709F451C08130910509F044C0D2
:102DE0001CC08430910511F105971CF51CC08A3078
:102DF000910571F18B30910534F48830910511F112
:102E000009971CF51CC08C30910541F18C3091055F
:102E100014F18D30910541F524C02BEC31E02FC029
:102E20002EEC31E02CC021ED31E029C024ED31E061
:102E300026C027ED31E023C02AED31E020C02DED82
:102E400031E01DC020EE31E01AC023EE31E017C0A2
:102E500026EE31E014C02AEE31E011C02EEE31E052
:102E60000EC022EF31E00BC0895E93401CF426EFC8
:102E700031E005C024E032E002C020E030E0C901CA
:102E800008950E94D7160895FC01009719F420E0D8
:102E900030E006C0168217821086118621E030E0ED
:102EA000C9010895FC01009719F420E030E004C046
:102EB000268137812F5F3F4FC9010895FC0100979C
:102EC00019F420E030E002C0208D318DC901089551
:102ED000FC01009741F06115710529F0718F608F39
:102EE00020E030E002C021E030E0C9010895FB019C
:102EF0009C01220F331F280F391F220F331FE20FAF
:102F0000F31F808191810895FB019C01220F331FE3
:102F1000280F391F2F5F3F4F220F331FE20FF31F80
:102F2000808191810895FB019C01220F331F280F9E
:102F3000391F220F331FE20FF31F848195810895FB
:102F4000FC0120E030E002C02F5F3F4F8081918183
:102F50003696892BC9F7C9010895FC0180859185B2
:102F600008950895CF92DF92EF92FF920F931F93EF
:102F7000DF93CF9300D0CDB7DEB76C017B018A0120
:102F8000DC0118966D917C911997C70140E050E0E3
:102F90000E94BC24D8010D900020E9F71197A01BD6
:102FA000B10BA130B10561F4F8018081898380E221
:102FB0008A83C701BE016F5F7F4F42E050E003C0CC
:102FC000C701B801AD010E94352BD8010D9000203A
:102FD000E9F7CD010197801B910BA0E0B0E0F6016D
:102FE0002085318542855385280F391F4A1F5B1F75
:102FF000D60118962D933D934D935C931B970F909C
:103000000F90CF91DF911F910F91FF90EF90DF9084
:10301000CF900895AF92BF92CF92DF92EF92FF923E
:103020000F931F93DF93CF93CDB7DEB72F970FB6D4
:10303000F894DEBF0FBECDBF7C016B015A01E2E9FF
:10304000F5E0659174918E010F5F1F4FC8010E94DA
:10305000B475C80162E070E00E942D298C01F7016F
:1030600080819181892B31F4C701B80144E152E09C
:103070000E94B217C114D10481F0C701B80146E122
:1030800052E00E94B217C701B801A6010E94B21710
:10309000C701B80149E152E004C0C701B80146E1E7
:1030A00052E00E94B217C701B801A5010E94B217F1
:1030B000C701B80144E152E00E94B21781E090E0FC
:1030C000F70191838083C8010E949B242F960FB63D
:1030D000F894DEBF0FBECDBFCF91DF911F910F914E
:1030E000FF90EF90DF90CF90BF90AF900895CF9278
:1030F000DF92EF92FF920F931F93DF93CF93CDB7A1
:10310000DEB72F970FB6F894DEBF0FBECDBF7C01A0
:103110006B01E2E9F5E0659174918E010F5F1F4F3D
:10312000C8010E94B475C80162E070E00E942D29B8
:103130008C01F70180819181892B59F4C701B80175
:1031400044E152E00E94B21781E090E0F7019183E0
:103150008083C114D10429F0C701B801A6010E94DF
:10316000B217C8010E949B242F960FB6F894DEBFB9
:103170000FBECDBFCF91DF911F910F91FF90EF90C8
:10318000DF90CF9008958F929F92AF92BF92CF928F
:10319000DF92EF92FF920F931F93DF93CF93CDB700
:1031A000DEB72F970FB6F894DEBF0FBECDBF7C0100
:1031B0006B015A014901E2E9F5E0659174918E01D4
:1031C0000F5F1F4FC8010E94B475C80162E070E034
:1031D0000E942D298C01C114D10481F0C701B801CE
:1031E0004BE152E00E94B217C701B801A6010E944C
:1031F000B217C701B80149E152E004C0C701B801E4
:103200004BE152E00E94B217C701B801A5010E942C
:10321000B217C701B8014DE152E00E94B217C701D1
:10322000B801A4010E94B217C701B80140E252E000
:103230000E94B217C8010E949B242F960FB6F894E3
:10324000DEBF0FBECDBFCF91DF911F910F91FF90D9
:10325000EF90DF90CF90BF90AF909F908F900895A8
:10326000AF92BF92CF92DF92EF92FF920F931F9394
:10327000DF93CF93CDB7DEB72F970FB6F894DEBFAD
:103280000FBECDBF7C016B015A01E2E9F5E065910B
:1032900074918E010F5F1F4FC8010E94B475C80161
:1032A00062E070E00E942D298C01F70180819181FC
:1032B000892B31F4C701B80144E152E00E94B217F2
:1032C000C114D10481F0C701B80142E252E00E946A
:1032D000B217C701B801A6010E94B217C701B80111
:1032E00049E152E004C0C701B80142E252E00E9445
:1032F000B217C701B801A5010E94B217F7011182E8
:103300001082C8010E949B242F960FB6F894DEBF4E
:103310000FBECDBFCF91DF911F910F91FF90EF9026
:10332000DF90CF90BF90AF900895EF92FF920F93F0
:103330001F93DF93CF93CDB7DEB72F970FB6F894D7
:10334000DEBF0FBECDBF7C01FB0181E090E0D70165
:1033500011969C938E9313967C936E931297108282
:1033600060E070E0F70144835583668377831896A5
:103370001D921D921D921C921B97E2E9F5E065914A
:1033800074918E010F5F1F4FC8010E94B475C80170
:1033900062E070E00E942D298C01C701B80144E26F
:1033A00052E00E94B217C8010E949B242F960FB6CC
:1033B000F894DEBF0FBECDBFCF91DF911F910F916B
:1033C000FF90EF9008950F931F93CF93DF93FC012D
:1033D000EB01009719F420E030E01CC02150304090
:1033E0004040504086819781A085B1858217930720
:1033F000A407B50714F49C01AD01890160817181B6
:10340000CE01A9010E94D1750C0F1D1FF801108279
:1034100021E030E0C901DF91CF911F910F91089514
:10342000EF92FF920F931F93CF93DF938C01FC01D8
:10343000E080F18082819381A481B581880F991FFA
:10344000AA1FBB1F0E944874EC01009719F420E0EA
:1034500030E01BC0F80160817181428153810E947C
:10346000D175F801D183C08382819381A481B58114
:10347000880F991FAA1FBB1F82839383A483B583E0
:10348000C7010E94F27421E030E0C901DF91CF91C1
:103490001F910F91FF90EF900895CF93DF93EC0170
:1034A0000097E1F02E813F81488559858A819B8173
:1034B000AC81BD81281739074A075B072CF0CE0184
:1034C0000E94101A892B51F0E881F9818E819F8129
:1034D000E80FF91F108221E030E002C020E030E068
:1034E000C901DF91CF910895CF93DF93EC010E9442
:1034F0004D1A892B19F420E030E002C0288139816F
:10350000C901DF91CF9108951F93CF93DF93EC0111
:10351000162F009729F12E813F81488559858A8190
:103520009B81AC81BD81281739074A075B072CF0C6
:10353000CE010E94101A892B99F08E819F81A88557
:10354000B985E881F981E80FF91F10830196A11D63
:10355000B11D8E839F83A887B98721E030E002C028
:1035600020E030E0C901DF91CF911F9108950F93C2
:103570001F93CF93DF938C01EB0109C0C8010E9418
:10358000841A892B19F420E030E006C02196688166
:103590006623A1F721E030E0C901DF91CF911F91AF
:1035A0000F910895CF93DF93EC018A819B810E9454
:1035B000841A892B19F021E030E006C082E090E007
:1035C0009983888320E030E0C901DF91CF9108958D
:1035D0000F931F93CF93DF938C01EB0109C0C801B8
:1035E0000E94D21A892B19F420E030E006C02196FF
:1035F00068816623A1F721E030E0C901DF91CF9116
:103600001F910F910895CF93DF93EC01009749F03C
:1036100088819981009711F00E94F274CE010E9476
:10362000F274DF91CF910895CF92DF92EF92FF92E3
:103630000F931F93CF93DF936B017C018AE090E09F
:103640000E944874EC018C010097A9F0C6010E9409
:10365000487499838883009731F4CE010E94F274F4
:1036600000E010E008C0CA82DB82EC82FD821E828C
:103670001F8218861986C801DF91CF911F910F9183
:10368000FF90EF90DF90CF900895CF93DF93EC0100
:1036900009C08A819B810E94F2748C819D810E9465
:1036A000F274269688819981892B99F7DF91CF91C1
:1036B0000895AF92BF92CF92DF92EF92FF920F9355
:1036C0001F93CF93DF935C016A017B010097A1F107
:1036D00014161506160617067CF58AE190E00E947E
:1036E0004874EC018C01009749F181E090E09983E6
:1036F000888364E670E080E090E00E94141B9B8366
:103700008A83892B21F4CE010E94F27415C01F8296
:103710001E8219861886BB86AA86CC86DD86EE8632
:10372000FF86188A198A1A8A1B8A1C8A1D8A1E8A91
:103730001F8A198E188E02C000E010E0C801DF91C8
:10374000CF911F910F91FF90EF90DF90CF90BF909E
:10375000AF9008950E94591B0895EF92FF920F9326
:103760001F93DF93CF9300D0CDB7DEB77C018BE4FE
:1037700092E061E070E00E942D298C01F7016089E0
:10378000718940E050E00E94BC24C801BE016F5F17
:103790007F4F42E050E00E94A026C8010E949B2477
:1037A000F70180899189A289B389B7FD25C0248555
:1037B00035854685578582179307A407B507E4F436
:1037C00069816A3071F06D30B9F40196A11DB11DA7
:1037D00082179307A407B5077CF48A818A3061F0C9
:1037E000F70184899589A689B7890196A11DB11D24
:1037F000848B958BA68BB78BF70180899189A289E1
:10380000B3890196A11DB11D808B918BA28BB38BC7
:103810000F900F90CF91DF911F910F91FF90EF903C
:103820000895EF92FF920F931F93CF93DF937C0144
:103830008B01C0E0D0E004C0C7010E94AD1B2196FF
:10384000C017D107CCF3DF91CF911F910F91FF905B
:10385000EF900895EF92FF920F931F93DF93CF9312
:103860000F92CDB7DEB77C01FC01208931894289F6
:10387000538957FD09C084859585A685B785281786
:1038800039074A075B073CF083E090E0F70191833A
:10389000808300E01DC08BE492E061E070E00E9454
:1038A0002D298C01F7016089718940E050E00E9468
:1038B000BC24C801BE016F5F7F4F41E050E00E9411
:1038C000A026C8010E949B240981C7010E94AD1B4C
:1038D000802F0F90CF91DF911F910F91FF90EF906C
:1038E0000895EF92FF920F931F93DF93CF930F9260
:1038F000CDB7DEB7FC017B0180899189E80EF91E06
:10390000F7FC27C09701442737FD4095542F848545
:103910009585A685B785281739074A075B07CCF434
:103920008BE492E061E070E00E942D298C01B701E8
:1039300040E050E00E94BC24C801BE016F5F7F4F91
:1039400041E050E00E94A026C8010E949B2489818A
:1039500001C080E00F90CF91DF911F910F91FF90F8
:10396000EF90089560E070E00E94711C0895CF937D
:10397000DF93EC010AC0CE010E942A1C8881998144
:10398000892B19F020E030E007C0CE010E94B21C64
:1039900081328CF321E030E0C901DF91CF910895AD
:1039A0000F931F93CF93DF938C010E942A1C682FE3
:1039B000882339F4F80180819181892B09F441C170
:1039C00054C0863209F03DC1C80160E070E00E9439
:1039D000711C833209F07EC0C8010E94AD1BC80172
:1039E0000E942A1C883709F04BC0C8010E942A1C7B
:1039F000982FC0E0D0E040C0892F80538A3068F40F
:103A000064E0CC0FDD1F6A95E1F7892F992787FDC8
:103A10009095C80FD91FE0972BC0892F815486300D
:103A200068F454E0CC0FDD1F5A95E1F7892F9927F0
:103A300087FD9095C80FD91FE7971AC0892F815627
:103A4000863070F444E0CC0FDD1F4A95E1F7892FF2
:103A5000992787FD9095C80FD91FC755D04008C03A
:103A600084E090E0F8019183808320E030E0EDC0B5
:103A7000C8010E942A1C982F9B3309F0BDCF20C09B
:103A800080538A3068F7C8010E942A1C982FC0E032
:103A9000D0E014C0892F80538A3010F734E0CC0F67
:103AA000DD1F3A95E1F7892F992787FD9095C80F7B
:103AB000D91FE097C8010E942A1C982F9B3351F709
:103AC000CF3FD10521F01CF085E090E0CBCFC801BD
:103AD0006C2FB8C0C80160E070E00E94711C813694
:103AE000E9F4C80161E070E00E94711C8D36B1F408
:103AF000C80162E070E00E94711C803779F4C8014F
:103B000063E070E00E94711C8B3341F4C80164E0F3
:103B100070E00E94111CC80166E294C0C80160E018
:103B200070E00E94711C813621F5C80161E070E0EF
:103B30000E94711C8037E9F4C80162E070E00E94C5
:103B4000711C8F36B1F4C80163E070E00E94711CF3
:103B5000833779F4C80164E070E00E94711C8B33F4
:103B600041F4C80165E070E00E94111CC80167E2E1
:103B700069C0C80160E070E00E94711C813721F5C6
:103B8000C80161E070E00E94711C8537E9F4C8014A
:103B900062E070E00E94711C8F36B1F4C80163E0EE
:103BA00070E00E94711C843779F4C80164E070E011
:103BB0000E94711C8B3341F4C80165E070E00E94E3
:103BC000111CC80162E23EC0C80160E070E00E94C2
:103BD000711C8C36B1F4C80161E070E00E94711C68
:103BE000843779F4C80162E070E00E94711C8B3365
:103BF00041F4C80163E070E00E94111CC8016CE34D
:103C000021C0C80160E070E00E94711C873609F095
:103C100027CFC80161E070E00E94711C843709F071
:103C20001FCFC80162E070E00E94711C8B3309F065
:103C300017CFC80163E070E00E94111CC8016EE359
:103C400001C0C8010E94D21A9C01C901DF91CF9125
:103C50001F910F9108951F93CF93DF93EC010E9462
:103C6000B21C8F3271F4CE010E94AD1BCE010E94B6
:103C7000B21C8E3319F482E090E00AC086E090E036
:103C80008AC0CE010E94B21C8E3351F481E090E0D4
:103C90009D838C83CE010E94AD1B21E030E098C053
:103CA00086E090E09D838C8306C0CE010E94D01CEC
:103CB000892B09F48BC0CE010E94B21C8D3329F0F0
:103CC000CE010E94B21C813284F7CE010E94B71C43
:103CD000892B09F47BC0CE010E94B21C8D3319F0F0
:103CE0008DE090E058C0CE010E94AD1B8E819F8177
:103CF000009791F048855985EA81FB81309719F446
:103D000020E030E004C0268137812F5F3F4F42170B
:103D1000530794F40E94F274EA81FB81309719F4FE
:103D200080E090E003C0868197810196998788871B
:103D30000E9448748E839F836E817F816115710517
:103D400061F028853985442737FD4095542F8A81B5
:103D50009B810E94E319892B19F482E090E01BC03B
:103D6000EA81FB81309721F0168217821086118636
:103D7000CE010E94B71C892B49F1CE010E942A1C5A
:103D8000182F88819981892B09F5173261F0123239
:103D900051F087E090E09983888318C0CE010E949B
:103DA000D01C892B99F0CE010E94B21C8117B1F76B
:103DB000CE010E94AD1BCE010E94B71C20E0892BD2
:103DC00009F421E081E0282730E002C020E030E063
:103DD000C901DF91CF911F9108950F931F93CF9346
:103DE000DF93EC010E94B21C8C3309F025C1CE0197
:103DF0000E94AD1BCE010E94B21C8F3261F582E0A1
:103E000090E09D838C83CE010E94AD1B06C0CE0145
:103E10000E94D01C892B09F421C1CE010E94B21C42
:103E200081324CF0CE010E94B21C8E3381F703C068
:103E3000CE010E94AD1BCE010E94B21C8E33C1F791
:103E4000CE010E94B21C8E3309F4D0C083E090E012
:103E50009983888303C1CE010E94B21C8F3301F580
:103E600083E090E09D838C83CE010E94AD1B06C051
:103E7000CE010E94D01C892B09F4F0C0CE0160E075
:103E800070E00E94711C8F3399F7CE0161E070E001
:103E90000E94711C8E3361F7CE0162E070E03FC07A
:103EA000CE010E94B21C813209F0A4C0CE010E9452
:103EB000AD1BCE0160E070E00E94711C8D3291F567
:103EC000CE0161E070E00E94711C8D3259F585E0F1
:103ED00090E09D838C83CE0162E070E00E94111C13
:103EE00006C0CE010E94D01C892B09F4B7C0CE01B8
:103EF00060E070E00E94711C8D3299F7CE0161E0A4
:103F000070E00E94711C8D3261F7CE0162E070E0BA
:103F10000E94711C8E3329F7CE0163E070E00E948D
:103F2000111C99C0CE0160E070E00E94711C8434C5
:103F300009F04DC0CE0161E070E00E94711C8F3429
:103F400009F045C0CE0162E070E00E94711C83342C
:103F500009F03DC0CE0163E070E00E94711C843521
:103F6000B1F5CE0164E070E00E94711C893579F5ED
:103F7000CE0165E070E00E94711C803541F5CE01F4
:103F800066E070E00E94711C853409F584E090E0E1
:103F90009D838C83CE0167E070E00E94111C01E0DC
:103FA00010E0CE010E94B21C8E3321F4015010406B
:103FB00041F41CC0CE010E94B21C8C3311F40F5F7F
:103FC0001F4FCE010E94D01C892B59F747C088E0B3
:103FD00090E09D838C8305C0CE010E94D01C892B6C
:103FE000E9F1CE010E94B21C8E33B1F7CE010E94DE
:103FF000AD1B31C01D821C8205C0CE010E94D01CA9
:10400000892B61F1CE010E94B21C813254F0CE01A5
:104010000E94B21C8F3229F0CE010E94B21C8E3356
:1040200061F7CE010E94B71C20E0892B09F421E042
:1040300081E0282730E014C087E090E09D838C83E6
:1040400005C0CE010E94D01C892B41F0CE010E94F8
:10405000B21C8C33B1F721E030E002C020E030E048
:10406000C901DF91CF911F910F910895EF92FF92B7
:104070000F931F93CF93DF937C018B018DEE94E020
:104080000E94AA3EEC010FC0CE010296B701A80122
:104090000E941976009721F49E012A5E3F4F07C0C7
:1040A0000990D881C02D209779F720E030E0C90130
:1040B000DF91CF911F910F91FF90EF9008950F9393
:1040C0001F93CF93DF93182F092FE82FF92FDF01CC
:1040D0000D900020E9F7CD018E1B9F0B0E944874C4
:1040E000EC01009721F0612F702F0E941276CE0113
:1040F000DF91CF911F910F910895EF92FF920F934F
:104100001F93CF93DF938C017B018CE590E00E949D
:104110004874EC01009719F420E030E010C00296DA
:10412000B8010E941276CE014696B7010E9412761F
:104130008DEE94E0BE010E94C63E21E030E0C90150
:10414000DF91CF911F910F91FF90EF9008952F92E3
:104150003F924F925F926F927F928F929F92AF9217
:10416000BF92CF92DF92EF92FF920F931F93DF9354
:10417000CF93CDB7DEB76F970FB6F894DEBF0FBE03
:10418000CDBF6C011B011A821982DC0112968D9140
:104190009C9113970E94741A892B61F0D601129694
:1041A0008D919C9113970E94741A0E945F205C016C
:1041B000009731F482E090E0F60191838083AEC1F4
:1041C000D6011296ED91FC911397309721F016824B
:1041D000178210861186C6010E942B1E892B09F0BA
:1041E000A9C099C12630310509F0A1C0B6E06B160F
:1041F00019F48EE090E00BC0D60112968D919C913F
:1042000013970E94741A892B31F482E090E0F60132
:104210009183808380C1D6011696ED90FC9017970C
:10422000C7016AE370E00E94FE758C010097D1F12E
:104230004C018E189F0886E592E0B701A4010E9408
:1042400019760097F1F40F5F1F4F00D000D08CE576
:1042500092E0EDB7FEB792838183148303830E94BB
:1042600043760F900F900F900F90D60112968D917C
:104270009C9113970E94741ABC01C8010E947D2072
:1042800011C0C701B4010E9436209C01009751F073
:10429000E72DF0E0EE0FFF1FE40DF51D31832083C5
:1042A000C8010FC0E72DF0E0EE0FFF1FE40DF51D74
:1042B00082E792E091838083D60116968D919C913E
:1042C00017970E945F20BF8DEB2FF0E0EE0FFF1FCE
:1042D000E40DF51D80839183F601828193810E9414
:1042E000741A0E945F20E62DF0E0EE0FFF1FE40D30
:1042F000F51D80839183D6018D919C91892B09F0C6
:104300000AC1D6011296ED91FC911397309721F0D6
:104310001682178210861186C6010E942B1EB3E0FA
:104320006B0EEF8DED5FEF8F892B61F4F4C08CE0A5
:1043300090E0BDC0F2E06F2EB1E0BF8F2E01089477
:10434000411C511CEEEF7E2E760CF6012481358146
:10435000C9010197029708F045CFE72DF0E0EE0F75
:10436000FF1F4E010894811C911CE80DF91D11825C
:104370001082C5016AE370E00E94FE757C0100971F
:10438000A1F0BC016A197B09C5010E943620182FD3
:10439000092F0E947E760894E11CF11CC60164E09E
:1043A00070E0412F502F970106C0C60164E070E015
:1043B00042E752E095018401F1010995CE01019691
:1043C0000E94451BD6018D919C91892B09F0A3C0B9
:1043D000F60184819581019709F06DC044C00115F3
:1043E000110539F4C601B1010E94A720892B81F57E
:1043F00092C00730110561F5D60112968D919C91FE
:1044000013970E94741A892B09F4FFCED6011296D5
:104410008D919C9113970E94741A9C01C60163E0D0
:1044200070E042E752E000E010E0F1010995F6018A
:1044300080819181892B09F06EC0D6011296ED9191
:10444000FC911397309721F01682178210861186FF
:10445000D6011296ED91FC911397309721F01682B8
:10446000178210861186C6010E94ED1E892B09F461
:1044700052C0F601048115810230110509F0AFCF59
:10448000828193810E94741A892B21F4D6010D93A5
:104490001C9341C0F601828193810E94741ABC0171
:1044A000C5010E940976009731F08BE090E0D601BB
:1044B0008D939C9330C0D6011296ED91FC91139789
:1044C000309721F01682178210861186C5016AE3A3
:1044D00070E00E94FE758C01009771F0BC016A19B2
:1044E0007B09C5010E943620AC010F5F1F4FC6013A
:1044F00060E070E0980106C0C60160E070E042E74D
:1045000052E0950100E010E0F1010995F60180818B
:104510009181892B31F0C5010E94F27420E030E0D6
:1045200005C0C5010E94F27421E030E0C9016F9618
:104530000FB6F894DEBF0FBECDBFCF91DF911F91B4
:104540000F91FF90EF90DF90CF90BF90AF909F9032
:104550008F907F906F905F904F903F902F90089535
:104560000F931F93CF93DF93EC018B01009719F00A
:104570006115710519F488E090E037C08881998150
:10458000019719F089E090E030C019821882CE01BD
:104590000E94B71CEA81FB81309721F016821782B6
:1045A00010861186CE010E94ED1E892B29F4888188
:1045B00099810397E1F417C08C819D818330910527
:1045C00031F38530910519F38430910501F3892B7E
:1045D00051F48DEE94E00E94A63ECE01B8010E94F7
:1045E000A7209C0106C08AE090E09983888320E0A0
:1045F00030E0C901DF91CF911F910F910895CF93C2
:10460000DF93EC010E94B022892B19F020E030E00A
:1046100002C028813981C901DF91CF9108950F939C
:104620001F93CF93DF93EC01009721F18A819B8147
:10463000009711F00E94031B8E819F81009711F05B
:104640000E94F2748DEE94E00E94AA3E9C0107C085
:1046500010810181CF010E94F274212F302FF901C6
:1046600021153105A9F78DEE94E00E94A63ECE01FA
:104670000E94F274DF91CF911F910F9108950E94D3
:104680000F2308959C01F999FECF32BD21BDF89A00
:1046900080B5089500D000D000D0EDB7FEB73196B8
:1046A00024E935E0ADB7BEB712963C932E9311972F
:1046B00093838283758364830E9458768DB79EB7F7
:1046C00006960FB6F8949EBF0FBE8DBF0895EF9269
:1046D000FF920F931F93DF93CF93CDB7DEB7289749
:1046E0000FB6F894DEBF0FBECDBF0E94C6330E9446
:1046F000D63380E06CE046E00E94C23280E061ED9B
:104700007FE60E944E3381E068E046E00E94C232BC
:1047100081E00E94A2330E94A63100D000D089EC33
:1047200095E0ADB7BEB712969C938E93119783E731
:1047300092E014969C938E9313970E9458760F9054
:104740000F900F900F900E9446410E94693C8EE1AD
:1047500091E060E070E00E94553D0E94FF40E091D2
:10476000CD02F091CE0209958E010F5F1F4F88E0B8
:10477000F80111928A95E9F7C80160E070E048E01D
:1047800050E022E433E20E942776A6EABFE1F80176
:1047900088E001900D928150E1F78DEC9BEA60E09A
:1047A00070E0AE014F5F5F4F0E94F837F999FECF7E
:1047B00088E090E092BD81BDF89A80B58093631E39
:1047C000F999FECF89E090E092BD81BDF89A80B55D
:1047D0002091631E30E090E080959095281739076E
:1047E00011F08AE102C08091631E0E941136CE0151
:1047F00001960E94723A0E940C44E0910C03F091E1
:104800000D030995E091F302F091F4020995E0910E
:104810007D03F0917E0309950091F1021091F2025F
:10482000E0900A03F0900B030E9482342DB73EB74C
:10483000285030400FB6F8943EBF0FBE2DBFEDB7E5
:10484000FEB7319627EB35E0ADB7BEB712963C9375
:104850002E93119713830283F582E4828683178255
:104860000E945876E0911603F09117032DB73EB7DA
:10487000285F3F4F0FB6F8943EBF0FBE2DBF309755
:10488000F1F00995BC018DE790E00E949F798FEFD0
:104890006F3F7807A1F000D000D084EA95E0ADB773
:1048A000BEB712969C938E93119714967C936E9339
:1048B00013970E9458760F900F900F900F9000D092
:1048C00082EA95E0EDB7FEB7928381830E94587625
:1048D0000F900F9080E593E060E070E00E94553DFE
:1048E00081EA93E060E070E00E94553D8CE091E049
:1048F0000E94A53D00D08AE995E0ADB7BEB71296FB
:104900009C938E9311970E9458760F900F90289643
:104910000FB6F894DEBF0FBECDBFCF91DF911F91D0
:104920000F91FF90EF9008950E9467230E94793CB9
:104930000E94EB33FBCF9C0188309105E0F4DC0151
:10494000AA0FBB1FAA0FBB1FA20FB31FAF5EBA4FA8
:1049500014968C911497882371F014961C921497D6
:104960001296ED91FC911397868181508683139660
:104970001C921E9212970895CF93DF939C0188306A
:104980009105D8F5DC01AA0FBB1FAA0FBB1FA20F10
:10499000B31FAF5EBA4F14968C911497882369F1B8
:1049A0004115510511F4FB0113C04230510541F48A
:1049B0001296ED91FC9113970190F081E02D06C0C5
:1049C00041305105D1F4ED91FC911197E60FF71F9D
:1049D000F7FD13C01296CD91DC9113979B8180E077
:1049E0008E179F0754F0888199818E179F0714F4C2
:1049F000F983E883ED93FC9302C0EFEFFFEFCF0163
:104A0000DF91CF9108950895FC018AE490E09183AD
:104A1000808381EF94E008951F931092390510E090
:104A2000812F0E942EFD1F5F1035D1F78AE4E1EF40
:104A3000F4E0DF011D928A95E9F780E090E01F9194
:104A40000895FC01108280E090E008958F929F927B
:104A5000AF92BF92CF92DF92EF92FF920F931F938C
:104A6000DF93CF93CDB7DEB768970FB6F894DEBF6C
:104A70000FBECDBF6C0141EFE42E44E0F42E4E0199
:104A80000894811C911C39E0A32EB12CAC0EBD1EE4
:104A90008701F70183818823B9F080E09281B40116
:104AA00048E150E00E94B12B888581FF0DC082FD56
:104AB0000BC085FD09C084FD07C0C601B5010E9479
:104AC0000976009709F464C088E090E0E80EF91ECA
:104AD00091E1E91695E0F906D9F6FF245E01089404
:104AE000A11CB11C8E01075F1F4F80E09F2DB501F7
:104AF00048E150E00E94B12B8885E82E81FF3EC03E
:104B000082FD3AC085FD38C084FD36C0C601B801BB
:104B10000E940976009781F5E4EFF4E020E030E0B0
:104B20004FEF5FEF8081882359F08381882309F458
:104B3000A9012F5F3F4F38962430310599F73CC0CB
:104B4000A9018A0123E0000F111F2A95E1F70F50F8
:104B50001B4FF801F2828FEF9FEF918380838E814C
:104B600083831782E3FE02C081E087838FEF9FEF8C
:104B7000F801958384830CC0E5FE02C0F39402C063
:104B80008E81F80EFFE4FF1508F0AFCF00E010E0D3
:104B9000C80168960FB6F894DEBF0FBECDBFCF91A7
:104BA000DF911F910F91FF90EF90DF90CF90BF901A
:104BB000AF909F908F9008958FEF4F3F580709F661
:104BC000E5CF8F929F92AF92BF92DF92EF92FF92CA
:104BD0000F931F93DF93CF93CDB7DEB768970FB6D0
:104BE000F894DEBF0FBECDBFD82EF0903905EE246D
:104BF000EA944E010894811C911CA82EBB242EC05F
:104C00000F2D10E080E09F2DB40148E150E00E949C
:104C1000B12B888581FD1AC08FEFE81631F40A0D9B
:104C20001B1D00351105FCF4EF2CF39495012E0D9E
:104C3000311D8F2D90E08217930784F08091390504
:104C4000E81689F4DE0CD09239050DC085FF02C04C
:104C5000F39402C08E81F80EEE24EA948FE48F154F
:104C600078F6EE24EA948E2D68960FB6F894DEBF9F
:104C70000FBECDBFCF91DF911F910F91FF90EF90AD
:104C8000DF90BF90AF909F908F900895CF92DF926A
:104C9000EF92FF920F931F93DF93CF93CDB7DEB7C1
:104CA000C851D1400FB6F894DEBF0FBECDBFE82E7D
:104CB00080E09E2DBE016F5F7F4F48E150E00E9473
:104CC000B12B1E81115059E1C52ED12CCC0EDD1E09
:104CD000012F80E0912F9E0DB60140E051E00E942F
:104CE000B12B4FEF50E0F601E40FF51F80818823D0
:104CF00061F0112319F44831510578F0302F20E08C
:104D0000240F351F275130400AC0415050408FEFCB
:104D10004F3F580741F71150DBCF20E030E0C90189
:104D2000C85EDE4F0FB6F894DEBF0FBECDBFCF9189
:104D3000DF911F910F91FF90EF90DF90CF9008953A
:104D40000F931F93CF93DF938A012FEF8F3F92072B
:104D500019F44EEF5FEF4AC02FEF8E3F920719F420
:104D600049EF5FEF43C02FEF8D3F920719F448EFF3
:104D70005FEF3CC0883091051CF04DEF5FEF36C00F
:104D8000EC01CC0FDD1FCC0FDD1FC80FD91FCF5E8C
:104D9000DA4F8C81882319F44CEF5FEF27C080FD38
:104DA00003C04BEF5FEF22C0EA81FB81288139818C
:104DB00040815181C801820F931F4817590718F489
:104DC0008A01021B130B878180FD0FC0285E3F4FB5
:104DD000928180E0820F931FA8010E94B12B8881ED
:104DE0009981800F911F99838883A801CA01DF915F
:104DF000CF911F910F910895AF92BF92CF92DF9202
:104E0000EF92FF920F931F93DF93CF93CDB7DEB74F
:104E100068970FB6F894DEBF0FBECDBF9C016B0143
:104E20007A01CA0101978F3F910509F068F564176F
:104E3000750750F1C9010E9426258C01009721F1C8
:104E400080E0F80192815E010894A11CB11CB501BB
:104E500048E150E00E94B12B288523FD15C0C60112
:104E6000B7010E949F797B836A83FD82EC82F801FF
:104E700092812160288780E0B50148E150E00E94DE
:104E800000FC20E030E002C02FEF3FEFC901689640
:104E90000FB6F894DEBF0FBECDBFCF91DF911F914B
:104EA0000F91FF90EF90DF90CF90BF90AF9008955B
:104EB000CF92DF92FF920F931F93DF93CF93CDB7E3
:104EC000DEB768970FB6F894DEBF0FBECDBFF82EE1
:104ED0008B016A0180E09F2DBE016F5F7F4F48E12B
:104EE00050E00E94B12B8885282F30E081FF48C018
:104EF000C90184729070892B09F042C0012B69F0BE
:104F000023FF0BC0898160E070E040E050E020E0CA
:104F100030E00E94582797FD33C0888585608887D8
:104F200080E09F2DBE016F5F7F4F48E150E00E94FF
:104F300000FC10923A05CD2821F4E3EFF4E09FEF56
:104F400011C0E3E1F5E0A081B181109729F012963C
:104F50008C918F1509F41282359685E0EB33F807B2
:104F600091F7EBCF80818F1519F490831482118211
:104F7000389685E0E331F807A9F720E030E002C079
:104F80002FEF3FEFC90168960FB6F894DEBF0FBE52
:104F9000CDBFCF91DF911F910F91FF90DF90CF9008
:104FA00008950E942625FC01009719F42FEF3FEF8A
:104FB0000AC0828161E070E041E050E021E030E031
:104FC0000E9458279C01C90108952F923F924F9249
:104FD0005F926F927F928F929F92AF92BF92CF9289
:104FE000DF92EF92FF920F931F93DF93CF93CDB792
:104FF000DEB7E3970FB6F894DEBF0FBECDBF782EB5
:10500000692EA62E922E452B29F40E942625892B47
:1050100009F0F0C08A2D0E94E125182F8F3F09F07A
:1050200098C080913A05882309F0E4C0CC24DD249F
:105030001E010894211C311CBCE14B2E512C4C0E3E
:105040005D1E88248394D101E3E01D92EA95E9F77F
:10505000C114D10421F41092F0041092EF04EC2C4E
:10506000BC2CB3948091EF049091F004882321F03C
:10507000992349F0898203C0992329F08A829150AB
:105080009093F00445C01091F0041E0DFF2400E041
:1050900027C080E0912FB20148E150E00E94B12B7F
:1050A0001092EF048BA1282F30E081FF0BC0C901C3
:1050B00084729070892B31F48092EF0489A1180FCB
:1050C000F80E0EC025FF03C01F5F0F5F09C022FF4F
:1050D00004C089A1180F080F03C09B2D911B03C0AA
:1050E0001B15B8F290E0892F8F0D8150800F8093AF
:1050F000F004882351F08091EF04882321F0FF24ED
:10510000F394F01A02C001E00F19F9820A839B831D
:105110008981882361F48A81882349F08091390547
:10512000E81610F4E09239058E2D0E942EFD0894A9
:10513000C11CD11CF0E5CF16D10409F084CF8A2D13
:105140000E94E125182F8F3F21F481E080933A05DA
:1051500051C088E1FE013496DF011D928A95E9F77E
:10516000DE011C96272D362DC901FC018FE0019030
:105170000D928150E1F7A986B3E09B2A9B86912F7F
:10518000BE016C5F7F4F48E150E00E9400FCE4EFFD
:10519000F4E020E030E04FEF5FEF8081882359F0AA
:1051A0008381882309F4A9012F5F3F4F389624306B
:1051B000310599F73BC0A901FA01A3E0EE0FFF1FEB
:1051C000AA95E1F7EF50FB4F12838FEF9FEF91838A
:1051D00080838985838317828B8583FF02C081E06A
:1051E00087838FEF9FEF95838483309729F0118217
:1051F000108202C0E0E0F0E0CF01E3960FB6F89431
:10520000DEBF0FBECDBFCF91DF911F910F91FF90F9
:10521000EF90DF90CF90BF90AF909F908F907F9056
:105220006F905F904F903F902F900895EFEF4F3F1A
:105230005E0711F6DFCF695E7E4F672F40E050E0DA
:1052400020E030E00E94E527892B19F020E030E0D3
:1052500002C02FEF3FEFC9010895AF92BF92CF92E6
:10526000DF92EF92FF920F931F93CF93DF935C0136
:105270006B01E5E1F5E0EE24FF248081882361F0F5
:105280000894E11CF11C359628E0E216F104A9F718
:10529000EE24EA94FE2C5DC08701000F111F000F61
:1052A000111F0E0D1F1D0F5E1A4FD80114961C9270
:1052B000C5010E942625EC01F801938382830097A3
:1052C00011F5C60183709070019729F40EEFE02E5E
:1052D0000FEFF02E3EC0C50162E041E050E020E05B
:1052E00030E00E94E527FC01D80113969C938E9331
:1052F0001297009729F41DEFE12E1FEFF12E29C020
:10530000118210820AC0888199818F5F9F4F29F492
:105310008A810E94462699838883F80184818C299A
:105320008483C2FC03C0E0E0F0E008C0D80112961C
:10533000ED91FC9113970190F081E02DD801119629
:10534000FC93EE931296ED91FC91139786818F5FFB
:105350008683C701DF91CF911F910F91FF90EF904E
:10536000DF90CF90BF90AF900895CF92DF92EF92F1
:10537000FF920F931F93DF93CF93CDB7DEB76A975A
:105380000FB6F894DEBF0FBECDBF7B018C01FC01D0
:105390008081898393E0C92ED12CCC0EDD1E3EC0C6
:1053A00080E0B60148E150E00E94B12B8A8590E090
:1053B000AC014270507081FF26C082FD24C085FD83
:1053C00022C084FD20C0D701FE013B9680E20190FF
:1053D0000D928150E1F7F701178E89810E944626D0
:1053E000F70191A380A399818A8581FF02C085FF7F
:1053F00003C0892F8F5F02C08885890FF8018083E1
:1054000020E030E011C02981452B11F085FF03C059
:10541000822F8F5F02C08885820F898399819035A2
:1054200008F4BECF2FEF3FEFC9016A960FB6F8948C
:10543000DEBF0FBECDBFCF91DF911F910F91FF90C7
:10544000EF90DF90CF9008953F924F925F926F92CE
:105450007F928F929F92AF92BF92CF92DF92EF9204
:10546000FF920F931F93DF93CF93CDB7DEB7E297F1
:105470000FB6F894DEBF0FBECDBF582EF62E2DB757
:105480003EB73AAB29AB80E0952DBE016F5F7F4FF1
:1054900048E150E00E94B12B8E01075F1F4FC80109
:1054A00061E070E00E942D294C0197FD14C06E81CF
:1054B00070E002C0660F771FFA94E2F7C80141E07E
:1054C00050E020E030E00E94E5276C01009731F4C5
:1054D000C4010E949B242FEF3FEFA7C066247724CE
:1054E0004DB63EB64C815D814115510511F440E049
:1054F00051E08DB79EB7841B950B0FB6F8949EBFF5
:105500000FBE8DBF0DB71EB70F5F1F4FC401B8018F
:105510000E94A0267C0197FF16C0F601828160E000
:1055200070E040E050E021E030E00E945827C401E4
:105530000E949B24842D932D9C010FB6F8943EBFAE
:105540000FBE2DBFC8CF009769F0F601B280AA2424
:10555000C5014896860D971DB801A7010E9400FC61
:105560006E0C7F1C842D932D9C010FB6F8943EBFCA
:105570000FBE2DBFEF2809F0B3CFA3E1B5E012961F
:105580008C911297882369F0ED91FC91119782819B
:10559000851539F41196DC92CE92F60186818F5FE3
:1055A00086831596F5E0AB33BF0749F7852D61E09B
:1055B00070E040E050E020E030E00E94582797FF84
:1055C0000BC0F601828160E070E040E050E020E036
:1055D00030E00E9458277CCF8E01075E1F4F80E08D
:1055E000F6019281B80148E150E00E94B12B8C8114
:1055F0009D819D8F8C8F8A819B819B8F8A8FF601E5
:10560000928188A1816088A380E0B80148E150E0E0
:105610000E9400FCF60187818E7F87837182608201
:10562000C4010E949B2420E030E0C90129A93AA9C5
:105630000FB6F8943EBF0FBE2DBFE2960FB6F8949A
:10564000DEBF0FBECDBFCF91DF911F910F91FF90B5
:10565000EF90DF90CF90BF90AF909F908F907F9012
:105660006F905F904F903F900895AF92BF92CF920E
:10567000DF92EF92FF920F931F93CF93DF935B0123
:105680006A012FEF8F3F920719F44EEF5FEF5DC075
:10569000EFEF8E3F9E0719F449EF5FEF56C0FFEF23
:1056A0008D3F9F0719F448EF5FEF4FC08830910599
:1056B0001CF04DEF5FEF49C08C01000F111F000F70
:1056C000111F080F191F0F5E1A4FF80124812223A2
:1056D00019F44CEF5FEF39C00897A8F521FD09C018
:1056E00032C0F701828161E070E00E94242A97FDB8
:1056F0002AC0F801E280F380F80120813181C901DC
:1057000048968C0D9D1DF701D381C0E0C817D907BD
:1057100040F3928180E04896820F931FB501A60165
:105720000E9400FCF801208131812C0D3D1D318348
:105730002083F701808191818217930714F43183CC
:105740002083A60102C04FEF5FEFCA01DF91CF9126
:105750001F910F91FF90EF90DF90CF90BF90AF908F
:105760000895CF92DF92EF92FF920F931F93CF9302
:10577000DF936B017C0100E010E080E090E9A1E0A4
:10578000B0E0E80EF91E0A1F1B1F40FD02C0EA012F
:105790000DC00BBFF7018791DB018D936D01EA010D
:1057A00021970894E11CF11C011D111DD601A801CF
:1057B0009701BE010CC04BBFF901879196918D9363
:1057C0009D932E5F3F4F4F4F5F4F6250704062304E
:1057D000710588F7CE01969587959C0140E050E0D1
:1057E000220F331F441F551F2E0D3F1D401F511FF9
:1057F000DC01AA0FBB1FAC0DBD1DC0FF04C04BBF19
:10580000F90187918C93DF91CF911F910F91FF90B8
:10581000EF90DF90CF900895DF93CF930F92CDB7A5
:10582000DEB7BE016F5F7F4F41E050E00E94B12BB9
:1058300089810F90CF91DF910895EF92FF920F939E
:105840001F93DF93CF93CDB7DEB7A0970FB6F89431
:10585000DEBF0FBECDBF7C01CB018E010F5F1F4F9E
:10586000B80140E250E00E94B12B20E030E0B801E6
:10587000922FFB01E20FF31F4081442319F420E033
:1058800030E00EC0F701E20FF31F8081481731F4BA
:105890009F5F2F5F3F4F2032310551F7292F30E0B6
:1058A000C901A0960FB6F894DEBF0FBECDBFCF9151
:1058B000DF911F910F91FF90EF900895AF92BF92EB
:1058C000CF92DF92EF92FF920F931F93DF93CF93CC
:1058D000CDB7DEB7C158D0400FB6F894DEBF0FBECB
:1058E000CDBF8C01D62EC72EFE01EF57FF4F608330
:1058F0007E010894E11CF11C5F01C801B70140E87A
:1059000050E00E94B12BC7016D2D7C2D0E94FE75C9
:10591000BC018A159B0539F0009741F06E197F098B
:10592000600F711F05C000581F4FE7CF60E070E0A7
:10593000CB01CF57DF4F0FB6F894DEBF0FBECDBF00
:10594000CF91DF911F910F91FF90EF90DF90CF905B
:10595000BF90AF9008952F923F924F925F926F92B7
:105960007F928F929F92AF92BF92CF92DF92EF92EF
:10597000FF920F931F93DF93CF93CDB7DEB7CC5039
:10598000D1400FB6F894DEBF0FBECDBF8FE792E0D7
:105990000E94D12782E892E00E94D12785E892E018
:1059A0000E94D12788E892E00E94D1278BE892E0FC
:1059B0000E94D1275CE0452E512C4C0E5D1E7201D9
:1059C00082019E01245F3E4F05C08E2D8419D701B0
:1059D0008D937D01E216F306C1F78FE792E062E056
:1059E00070E00E942D295C0197FF03C00FEF1FEFAD
:1059F00009C0B80140E051E00E94352B97FF09C073
:105A00000EEF1FEF88248A94982CEE24EA94FE2C43
:105A100039C48F3F910509F018F40DEF1FEFF2CF55
:105A2000C501B80140E051E00E94A02697FD03C0E7
:105A30000CEF1FEFE7CF8FE792E061E070E00E948C
:105A40002D294C0197FF03C00BEF1FEFDECFB801EC
:105A500040E051E00E94352B97FD03C00AEF1FEF95
:105A6000D4CF80E091E0F8019C01119221503040A8
:105A7000E1F7C401B80140E051E00E94A0269C017A
:105A800097FF03C008EF1FEFC0CF8F3F910539F09C
:105A900030F020E030E0BE01645F7F4F35C000D0C1
:105AA00000D08DEE96E0ADB7BEB712969C938E9364
:105AB000119714963C932E9313970E94587607EFF4
:105AC0001FEFE2C0FB01E20FF31F8081482F50E07F
:105AD00042175307B9F000D000D000D0EDB7FEB7A1
