:100000000C94A3000C94C2000C94C2000C94C20087
:100010000C94C2000C94C2000C94C2000C94C20058
:100020000C94C2000C94C2000C94C2000C94C20048
:100030000C94E82D0C94C2000C94C2000C94D12DA9
:100040000C9435260C94C2000C94C2000C94C2008F
:100050000C9483260C94C2000C9477260C94C20056
:100060000C94C2000C94C2000C94C2000C94C20008
:100070000C94C1260C94C2000C94B5260C94C200BA
:100080000C9476420C94C2000C94C200554450204B
:1000900073657276657220737461727465640A00A8
:1000A0000A00536572766572204950763620616485
:1000B000647265737365733A200025730A00526594
:1000C00073706F6E64696E672077697468206D6500
:1000D00073736167653A20000A0053657276657232
:1000E0002072656365697665643A20272573272049
:1000F00066726F6D2000257325730A004F6E6C6960
:100100006E650A000A002C20636865636B207261CB
:10011000746520257520487A0025732025732C20CE
:100120006368616E6E656C202575000A2A2A2A2A8A
:100130002A2A2A426F6F74696E672025732A2A2A39
:100140002A2A2A2A0A0011241FBECFEFD0E4DEBFDC
:10015000CDBF12E0A0E0B1E0E8E4F4E900E00BBFBD
:1001600002C007900D92A636B107D9F71BE2A6E6AA
:10017000B2E001C01D92A43FB107E1F70E949025B3
:100180000C94224A0C940000AF92BF92CF92DF925F
:10019000EF92FF920F931F93DF93CF93CDB7DEB70C
:1001A000C857D0400FB6F894DEBF0FBECDBF6C016C
:1001B000DC018D919C91009729F08D36910509F015
:1001C000F3C05EC000D08CE890E0EDB7FEB792833C
:1001D00081830E94B74682EA90E0ADB7BEB712961F
:1001E0009C938E9311970E94B74648ECE42E41E20F
:1001F000F42E00E010E00F900F9030EAA32E30E0D4
:10020000B32EF701918980818823C9F09230B8F428
:10021000C80125E0880F991F2A95E1F7800F911FEB
:1002200087539E4D0E941E0200D0ADB7BEB71296F6
:10023000BC92AE9211970E94B7460F900F900F5F3D
:100240001F4FE1E2F0E0EE0EFF1E04301105C9F68B
:1002500080E090E06BE079EB40E050E00E94D3104A
:10026000FC0190936902809368028BE098EB918B7C
:10027000808B8DE690E0D6018D939C9381E098C0B1
:100280008091B4216817A9F780917D2081FFF1CF7B
:10029000E0918220F091832080916D1B90916E1BE4
:1002A000E80FF91F108200D000D08AED90E0EDB782
:1002B000FEB79283818380918220909183209483E2
:1002C00083830E94B7460F900F900F900F9085E8A0
:1002D0009BE10E941E0200D088ED90E0ADB7BEB752
:1002E00012969C938E9311970E94B74620916802B4
:1002F00030916902C901DC01E5E8FBE180E1019090
:100300000D928150E1F78EEB90E0EDB7FEB792834E
:1003100081830E94B74620916602309167022F5F69
:100320003F4F309367022093660200D000D0EDB7B4
:10033000FEB731968E010F5F1F4FADB7BEB7129655
:100340001C930E93119780E091E093838283358311
:1003500024830E94E1460F900F908AEB90E0EDB766
:10036000FEB792838183148303830E94B746F8010A
:1003700001900020E9F73197E01BF10B0F900F90EF
:100380000F900F908091680290916902B801AF01BF
:100390000E945A11E0916802F091690280E1DF0148
:1003A0001D928A95E9F765CFF6011182108283E0EC
:1003B000C858DF4F0FB6F894DEBF0FBECDBFCF9148
:1003C000DF911F910F91FF90EF90DF90CF90BF9042
:1003D000AF900895EF92FF920F931F93CF93DF9307
:1003E0008C01C0E0D0E08DE3E82E81E0F82E04C05F
:1003F0008AE390E00E94DA4600D000D0EDB7FEB765
:100400003196ADB7BEB71296FC92EE921197D80115
:10041000AC0FBD1F8C91828313820E94A54621964A
:100420000F900F900F900F90C830D10509F7DF9112
:10043000CF911F910F91FF90EF9008956F927F924F
:100440008F929F92AF92BF92CF92DF92EF92FF92E4
:100450000F931F93CF93DF935C01CC24DD24C0E086
:10046000D0E025E4622E21E0722E92E4892E91E004
:10047000992EF501F080EE2481818701080F111D6E
:1004800001151105A1F4D7FD12C08E010F5F1F4F9A
:10049000CD2B11F0E80126C000D0EDB7FEB7928257
:1004A00081820E94A546E8010F900F901BC01C1688
:1004B0001D061CF4CFEFDFEF07C0C114D10421F0FB
:1004C0008AE390E00E94DA4600D000D0EDB7FEB794
:1004D00072826182148303830E94A5460F900F905D
:1004E0000F900F9082E090E0C80ED91EA80EB91EA2
:1004F00090E1C916D10409F0BCCFDF91CF911F91D3
:100500000F91FF90EF90DF90CF90BF90AF909F90B2
:100510008F907F906F900895FC015381560F5093F8
:10052000741B272F33274281420F4093731BA181F5
:10053000A093721BE081E093711B842F90E08217DF
:10054000930748F48A2F8F5F8093721B882319F4D6
:10055000EF5FE093711B852F90E07070861797070F
:1005600090F4842F8F5F8093731B882361F48091B4
:10057000721B8F5F8093721B882329F48091711BFB
:100580008F5F8093711B08959C0141505040460F2E
:10059000571FFB010EC0708160E08181DB01A80F55
:1005A000B11D2A0F3B1F2A173B0710F42F5F3F4F47
:1005B0003296E417F50778F3E417F50749F49081CC
:1005C00080E0280F391F2817390710F42F5F3F4F9D
:1005D000C90108959C01AB0180E090E0B9010E943F
:1005E000C402282F892F922F089580E090E06DE7B4
:1005F0007BE148E250E00E94C402009719F42FEF1B
:100600003FEF02C0382F292FC90108950F931F9380
:100610001091811B00E090916B02091B11099091D0
:10062000821B090F111D9801280F311DC90165E8B2
:100630007BE140E250E00E94C40260916B0270E0F6
:100640006B55744EA8010E94C402009719F42FEF55
:100650003FEF02C0382F292FC9011F910F91089534
:100660008AE30E940603089586E00E940603089527
:1006700081E10E9406030895CF93DF93582FA92F9D
:100680004091AB20E0919620F091972020916E024E
:1006900030916F022F5F3F4FBDE720303B0710F0D6
:1006A00020E030E1922F832F442319F0E817F90757
:1006B00089F320936E0230936F0280E090E0442330
:1006C00029F410926D02E6E8F0E20AC0473011F416
:1006D00086E890E2FC0181E080936D02309771F131
:1006E00082E085A380917002808F80917102818F5A
:1006F00080917202828F80917302838F84EC94E0E8
:10070000978F868F91A380A381E090E0958F848F4F
:1007100017A281E086A383E084A312A280E183A3D1
:10072000308B218B738B628BEF01252F3A2FC90100
:10073000DC0180E10D9009928150E1F7CF01DF915A
:10074000CF9108952091B6203091B720281739070E
:1007500039F410926D021092B7201092B6200895CD
:1007600081E080936D0208959C018091B620909164
:10077000B720892B39F410926D023093B720209363
:10078000B620089581E080936D020895BC018091A8
:1007900084209091852044960E948C02E0918420D0
:1007A000F09185208091711B848B8091721B858BC9
:1007B0008091731B868B8091741B878B0895282FE3
:1007C000892F922F0895EF92FF920F931F939C0110
:1007D00044275527F22EE32E00E010E0362F272F76
:1007E00040E050E0A90133272227E22AF32A042B14
:1007F000152BB701C8011F910F91FF90EF9008953D
:10080000FC0140916F1B5091701B2DE730E2241BBF
:10081000350B621773070CF49B011216130664F470
:100820002093B8203093B920E417F50729F0CA01C6
:10083000BF01A9010E948346089582E080936C0263
:10084000A0916B022A2F30E0F901EB55F44E818123
:10085000682F70E043E0660F771F4A95E1F7695F04
:100860007F4F42E0285D3F4F3CC0F901E80FF91F80
:10087000E358F44E8081882319F0813019F42EC09A
:100880004F5F2FC090E0807C90708038910549F0D8
:10089000803C910549F08034910501F540936C024C
:1008A00009C040936C0208C040936C028091951B74
:1008B0008F3F11F481E00895242F30E040E050E0B4
:1008C0002A0F311D411D511D285D3F4F4F4F5F4F76
:1008D00084E062E00E94EA1282E0089581818E5FE6
:1008E000480F842F90E0681779070CF0BECF409333
:1008F0006C0280E008950F931F93CF93DF93C09114
:100900008420D0918520843009F474C209EB1BE166
:1009100010938320009382201093701B00936F1B11
:10092000833099F48DA1282F30E02F703070233060
:10093000310529F48C8D9D8D892B09F497C02230C7
:10094000310511F00C94090D80C0823009F094C07B
:1009500010926E1B10926D1B1092B9201092B8204D
:10096000809173028F5F80937302882399F4809142
:1009700072028F5F80937202882361F4809171020A
:100980008F5F80937102882329F4809170028F5FBA
:10099000809370022DA1273011F0253051F48EA1E3
:1009A0008F5F8EA3853011F00C94090D1DA20C945D
:1009B000090D222311F40C94090D8C8D9D8D892B2A
:1009C00009F450C08EA181508EA38F5F11F00C945A
:1009D000090D3FA1383029F02150223048F435303C
:1009E00039F41DA280E880937D200E941E0EB3C6BC
:1009F000353010F080E307C083E090E002C0880F3C
:100A0000991F3A95E2F78EA38FA18F5F8FA38DA1D7
:100A100090E08F70907083309105F1F084309105F3
:100A200044F48130910509F4FAC3029709F0F1C743
:100A30000CC08630910509F40FC68830910509F481
:100A40000BC6049709F0E5C707C6E0916B02F0E01A
:100A5000EB55F44E1586EAC384E080937D200E9416
:100A60001E0EB5C62F70233009F0D3C788E08093DF
:100A70007D200E941E0E65C6853019F5E09180200C
:100A8000F091812080899189892B09F4C2C7109245
:100A9000852010928420C8010C9790938320809326
:100AA00082209093701B80936F1B1092B92010923C
:100AB000B82010926E1B10926D1B88E080937D20F1
:100AC00097C180917D1B807F803609F0A2C79091ED
:100AD000811B80E02091821BAC01420F511D9A01C5
:100AE00080916D1B90916E1B8417950708F491C738
:100AF000285D3F4F30936E1B20936D1B8091851BAB
:100B00008F3F09F486C7C80184970E94991F892BDB
:100B100059F4C80184970E94FF1E892B29F4809103
:100B2000951B8F3F09F075C783E89BE190937F2069
:100B300080937E2010926B0210926A02E0917E20D8
:100B4000F0917F2080818B3209F44BC08C3248F4C5
:100B5000863009F4BFC1813109F4B4C0882389F01B
:100B60006BC08A3309F474C08B3320F48C3209F0E3
:100B700063C04FC78B3309F44CC78C3309F05CC09A
:100B800006C080916A0280FD57C0816009C08091D3
:100B90006A0281FF04C086FD4FC0806401C082608C
:100BA00080936A020E941D04813009F432C78130AB
:100BB00018F0823019F635C720916B02E22FF0E071
:100BC000CF018B55944E90937F2080937E20285F99
:100BD000FC018181880F880F880F280F20936B02FA
:100BE000ADCF80916A0282FD27C0846080936A0243
:100BF00090916B02E92FF0E0DF01AB55B44E1396F4
:100C00008C911397882349F0BA969F01442737FDAA
:100C10004095542F84E060E018C0B0937F20A093EB
:100C20007E20985FEB55F44E8181880F880F880FE6
:100C3000980F90936B0282CFED57FB419F014427A1
:100C400037FD4095542F84E061E00E94EA12E9C626
:100C50000E9430038F5F9F4F09F0DBC6E0916B026B
:100C6000F0E0E358F44E80A50E94680EE0916B021C
:100C7000F0E0E358F44E80A58538C1F0863818F4CA
:100C80008038A1F410C0873829F0873848F08838B8
:100C900069F403C00E9457190DC00E94F1170AC0E1
:100CA0000E94C41307C00E947D1204C010926E1BE4
:100CB00010926D1B80916D1B90916E1B892B09F416
:100CC000A8C6AFC680916D1B90916E1BC097909384
:100CD0006E1B80936D1B8DEA9BE190938320809324
:100CE0008220E0916B02F0E0EB55F44E8681978113
:100CF000892B31F00E9438038F5F9F4F09F089C61E
:100D0000E0916B02F0E0EB55F44E82819381892BE8
:100D100009F47FC68AEB90E2909381208093802033
:100D200048C02889398921153105F1F180916B027C
:100D3000E82FF0E0EB55F44E828193818217930700
:100D400099F52A893B892115310529F08081918106
:100D50008217930749F588819981892BE1F48A816B
:100D60009B81892BC1F48C819D81892BA1F48E817B
:100D70009F81892B81F488859985892B61F48A85E7
:100D80009B85892B41F48C859D85892B21F48E854B
:100D90009F85892BC1F085E89BE1BE0140E150E0D1
:100DA0000E947646009779F06996D0938120C0938F
:100DB0008020C0918020D0918120B1E2C43BDB072C
:100DC00008F4AFCF26C6109285201092842082E0CE
:100DD00080937D208DEA9BE19093832080938220F5
:100DE0009093701B80936F1B1092B9201092B820C3
:100DF0000E941E0E2091B8203091B9202115310596
:100E000009F407C6C901C09690936E1B80936D1BB1
:100E1000285F3F4F3093811B88528093821B409103
:100E2000802050918120EA018C898093841B81E18C
:100E30008093831BE0916B02F0E0E358F44EDF01F6
:100E4000989614963C93149715962C93159717968D
:100E50001C921E9216978889998991A780A78A89E2
:100E60009B8913969C938E931297A5E9BBE12091E1
:100E7000802030918120C901FC0180E101900D9218
:100E80008150E1F785E89BE165E97BE10E94901CD8
:100E900089EB9BE1909383208093822080916B0269
:100EA000C82FD0E0CB55D44E0E9438038095909542
:100EB0009F838E8380916B02E82FF0E0EB55F44E18
:100EC00086819781892B09F09AC58FEF9FEF9783D1
:100ED000868395C50E9434038F5F9F4F09F099C5A3
:100EE00080916B02C82FD0E0CB55D44E0A811B8174
:100EF0000115110509F48DC52881398121153105A8
:100F000009F487C58091AB208823C9F08091962091
:100F1000909197200817190791F48091982090914B
:100F200099202817390759F485E89BE166E870E2B3
:100F300040E150E00E947646009709F494C18D8507
:100F40008F738230D1F41093760200937502109261
:100F50006D0241E00EC020917502309176028091C1
:100F6000B6209091B7202817390709F48AC040931A
:100F70006D0280916D02882371F380916B02E82FDE
:100F8000F0E0DF01AB55B44E1D968C911D9782FDAC
:100F900040C584E11D968C931D978CE390E090935F
:100FA0006E1B80936D1BFD0180E5848797811B96E6
:100FB0008C911B9717968C931797938796811A9607
:100FC0008C911A9716968C931697928795811996FD
:100FD0008C91199715968C9315979187948190937E
:100FE0006D0218968C91189714968C93149790878D
:100FF0001B968C911B978F5F1B968C931B97882356
:10100000C1F41A968C911A978F5F1A968C931A973F
:10101000882379F419968C9119978F5F19968C9380
:101020001997882331F418968C9118978F5F18962A
:101030008C93E0916B02F0E0DF01A358B44E9896D8
:101040002D913C9199973093760220937502EB5540
:10105000F44E82819381918380839B963C932E935F
:101060009A97E5E9FBE1DF01509780E10D9001924D
:101070008150E1F785E89BE165E97BE10E94901CE6
:1010800098C410926D02C0E0D0E021E014C08091BD
:10109000AB20882319F4C6E8D0E214C0873049F4A5
:1010A000209729F09091AC208EA1891710F4C6E802
:1010B000D0E220936D0280916D02882341F3209746
:1010C00009F4A7C4D0938520C093842083E08EA325
:1010D0008CA31AA284E08BA31FA2E0916B02F0E024
:1010E000E358F44E82A593A5998B888B80A591A592
:1010F0009B8B8A8BDE01E5E8FBE180E101900D929C
:101100008150E1F781E08DA380917002888F8091FA
:101110007102898F809172028A8F809173028B8F06
:1011200081E090E09D8F8C8FE0916B02F0E0EB55B9
:10113000F44E87818F8BE0916B02F0E0EB55F44E1B
:1011400086818E8BE0916B02F0E0EB55F44E858149
:101150008D8BE0916B02F0E0EB55F44E84818C8B2B
:1011600081E090E00E94C603E0916B02F0E0EB5555
:10117000F44E848590E0807F9070813591050CF469
:101180004EC010926D0235C0F901E358F44E84ADA3
:1011900080937402882309F442C0813021F44F5FA8
:1011A00040936D0226C08230C1F485AD8430A9F42D
:1011B00036AD20E087AD90E0822B932B90937602A2
:1011C00080937502F4E0853C9F0710F084EC94E076
:1011D0009F8F8E8F99A388A322C080916D02E82FE4
:1011E000F0E0E654F44EE081EE23C9F0E80FE0931E
:1011F0006D0240916D02242F30E0E0916B02F0E02F
:10120000EB55F44E848582958F7090E00597880F9A
:10121000991F880F991F281739070CF4B5CFE09153
:101220006B02F0E0EB55F44E80E18587E0916B02B4
:10123000F0E0DF01AB55B44E1D968C911D97826096
:101240001D968C931D97FD0182E0848B84E0858B35
:10125000868B84EC878B80E490E090936E1B809368
:101260006D1B80E661C386E890E2909385208093B1
:10127000842010927D2080916B02E82FF0E0DF0146
:10128000AB55B44E1D968C911D9782FF04C01092F1
:10129000AB2080E2D3C21C968C9182958F70880F10
:1012A000880F80936D0220916D1B30916E1B285228
:1012B0003040281B310930936E1B20936D1B8091A9
:1012C000AB2090E08F7090708230910539F4EB552F
:1012D000F44E85858F73823149F433C0019731F420
:1012E000EB55F44E85858F73823059F1232B59F4D9
:1012F000E0916B02F0E0EB55F44E858590E0837051
:101300009070892BF1F080916B02E82FF0E0EB55A3
:10131000F44E948180919A20981779F49581809168
:101320009B20981751F4968180919C20981729F45E
:10133000978180919D20981721F0858581FFDFC2DC
:10134000B9C0E0916B02F0E0EB55F44E858584FF67
:1013500060C06091A2207091A3206115710509F40D
:1013600058C08EE990E20E948C0280916B02E82FB7
:10137000F0E0EB55F44E40858091711B481709F061
:1013800048C031858091721B381709F042C0228510
:101390008091731B2817E9F593858091741B98172A
:1013A000C1F540939E2030939F202093A0209093DE
:1013B000A1208091AD20882309F52091A82090914B
:1013C000AA208091AC20981B822F869586958695C1
:1013D000981B392F320F3093A8208091A920282FF5
:1013E00026952695821B97FD9195890F8093A920BC
:1013F000369536953695830F8093AA2081E08093A9
:101400007D208091AA208093AC201092A32010927E
:10141000A2208091AB20282F30E0C9018F709070FE
:101420008430910509F40FC28530910564F482304F
:10143000910509F442C0833091050CF0D6C00197A4
:1014400009F0E7C210C08630910509F44EC286301B
:1014500091050CF424C28730910509F450C2089715
:1014600009F0D7C2E4C180917D2080FF19C083E0DC
:101470008093AB2080E480937D201092A320109273
:10148000A22020916D1B30916E1B2115310509F4AE
:1014900050C182E480937D20C9010E94C60349C1E6
:1014A000E0916B02F0E0EB55F44E85858F7382304E
:1014B00009F0AFC2C6E8D0E2B2CE80917D2080FFB5
:1014C00089C080916B02E82FF0E0EB55F44E8585E2
:1014D0008F73823109F07EC0848590E0807F9070A8
:1014E000813591050CF452C010926D0239C0F9019A
:1014F000E358F44E84AD80937402882309F446C007
:10150000813021F44F5F40936D022AC08230E1F4B4
:1015100085AD8430C9F436AD20E087AD90E0822BF4
:10152000932B909376028093750224E0853C92077A
:1015300010F084EC94E09093A5208093A4209093E5
:10154000A7208093A62022C080916D02E82FF0E0B2
:10155000E654F44EE081EE23C9F0E80FE0936D020B
:1015600040916D02242F30E0E0916B02F0E0EB55EA
:10157000F44E848582958F7090E00597880F991FAF
:10158000880F991F281739070CF4B1CF83E0809397
:10159000AB20E0916B02F0E0EB55F44E8481809338
:1015A0009A20858180939B20868180939C208781CF
:1015B00080939D2081E090E00E94C60382E48093A6
:1015C0007D201092A3201092A22010926E1B1092E8
:1015D0006D1BAFC080E280937D200E941E0EE091C3
:1015E0008420F091852015A2C8CC80916B02E82F51
:1015F000F0E0EB55F44E858580FF36C024FD34C005
:101600008091A2209091A320892B09F002C28091A1
:101610006D1B90916E1B01960E94C60320917D2048
:10162000822F806180937D2080916D1B90916E1B35
:10163000892B19F0226120937D200E941E0E81E0EB
:1016400090E09093A3208093A22088E08093AB2029
:101650001092AD20C6E8D0E2E0916B02F0E0EB55CD
:10166000F44E81E1858754C185FF25C0328920E091
:10167000838990E0282B392B8091822090918320C0
:10168000820F931F9093832080938220E0916B02BE
:10169000F0E0EB55F44E328920E0838990E0282B6E
:1016A000392B80916D1B90916E1B821B930B909335
:1016B0006E1B80936D1B20916D1B30916E1B21154D
:1016C000310561F08091AB2084FD08C080917D20C0
:1016D000826080937D20C9010E94C603E0916B0265
:1016E000F0E0EB55F44E968580E02785820F911D42
:1016F00090937602809375022091A6203091A720C6
:101700002817390710F0892B21F4309376022093A3
:10171000750280917502909176029093A520809336
:10172000A42080917D2090E083709070892B09F433
:1017300070C11092B9201092B8200E941E0EC6E807
:10174000D0E280917D20282F85FF0CC01092B92017
:101750001092B8201DA2E0916B02F0E0EB55F44E20
:1017600084E180CF84FF0CC01092B9201092B82081
:1017700081E090E09D8F8C8F84E08DA31FA26CCFC1
:101780008091B8209091B920892B01F120FF02C0EF
:101790001D8E1C8E8C8D9D8D0097A1F42E8D3F8DFE
:1017A0008091B8209091B9202817390720F4309300
:1017B000B9202093B8208091B8209091B9209D8FB6
:1017C0008C8F04C09093B9208093B8201FA2809181
:1017D0006F1B9091701B9093832080938220809147
:1017E000B8209091B920892B81F08C8D9D8D009728
:1017F00061F0CC9690936E1B80936D1BE0916B0211
:10180000F0E0EB55F44E88E110C080917D2081FF1F
:1018100000C18CE390E090936E1B80936D1BE09170
:101820006B02F0E0EB55F44E80E1858777C0809144
:101830007D2080FFEEC01092AB2080E180937D2060
:101840000E941E0EE6C080916D1B90916E1B00974A
:1018500011F00E94C603E0916B02F0E0EB55F44EEC
:10186000858590917D2080FF10C090FF0AC087E0A1
:101870008093AB201092AC201092A3201092A22053
:1018800023C086E08093AB201FC090FF27C085E077
:101890008093AB201092A3201092A220BAC0809116
:1018A0006D1B90916E1B009711F00E94C603E09192
:1018B0006B02F0E0EB55F44E858580FF0FC087E0AA
:1018C0008093AB201092AC2081E090E00E94C60390
:1018D00080E180937D200E941E0E11C080916D1BBF
:1018E00090916E1B892B59F494C080917D2080FFCC
:1018F00090C087E08093AB201092AC208AC0E0912A
:101900006B02F0E0EB55F44E80E18587C6E8D0E24B
:101910008CE390E090936E1B80936D1BE0916B02C3
:10192000F0E0EB55F44E80E58487A0916B02B0E0C7
:10193000A358B44EFD01B8968C8980878D89818724
:101940008E8982878F898387888D8483898D85831B
:101950008A8D86838B8D878386E08093831B88891D
:10196000998999969C938E9398978A899B8993835A
:101970008283A5E9BBE1FE0180E101900D928150D7
:10198000E1F785E89BE165E97BE10E94901C8DA170
:10199000E0916B0284FF06C0F0E0EB55F44E178631
:1019A000168607C0F0E0EB55F44E84E0868784ECA1
:1019B00087878091BA218093841B80916D1B9091C1
:1019C0006E1B88979093811B80916D1B885280932A
:1019D000821BE0916B02F0E08F010B55144ED80191
:1019E00053961C92539752961C92F801118A108AB2
:1019F0000E94340380959095E801998B888B80E64E
:101A000080937D1B10927E1B1092801B10927F1B77
:101A100008C010926E1B10926D1B10926B021092F8
:101A20006A0210927D20DF91CF911F910F9108954E
:101A30000F931F93CF93DF938C0120916E0230910F
:101A40006F02C9E1D0E02F5F3F4F8DE720303807AC
:101A500010F020E030E1522F432FA0E011C08A2F78
:101A600090E08C9FF0018D9FF00D9C9FF00D112454
:101A7000E654FF4D80899189AF5F8417950719F36C
:101A8000AA3069F720936E0230936F0210926D02B4
:101A900040E0A9E1B0E01CC0542F5F5F842F90E0CC
:101AA0008A9FF0018B9FF00D9A9FF00D1124E65450
:101AB000FF4D80899189892B51F440936D0289E112
:101AC000489FD0011124A654BF4D49F427C0452F8B
:101AD0004A3010F340936D02A0E0B0E01FC0509672
:101AE0003C93509751962C93519753967C936E93B9
:101AF00052970115110531F480E1ED0119928A9593
:101B0000E9F707C0ED01F80180E1019009928150E9
:101B1000E1F78091BA2154968C935497CD01DF91CF
:101B2000CF911F910F9108950E94B2211092B7207A
:101B30001092B6201092AB2080E094E090936F0258
:101B400080936E0220E049E150E00EC0822F90E0C9
:101B5000849FF001859FF00D949FF00D1124E654B1
:101B6000FF4D118A108A2F5F2A3080F320936D0277
:101B70000895E0918A02F0918B02309711F480E091
:101B800008950995089590938B0280938A02089591
:101B9000FC018091DA0D9091DB0D91A780A773A7CE
:101BA00062A70895FC018091DA0D9091DB0D968B70
:101BB000858B708F678B08959C018091B2209091E6
:101BC000B320892B11F081E008958091DA0D909176
:101BD000DB0D9093B3208093B2203093B5202093F7
:101BE000B42080E008952091DA0D3091DB0D409112
:101BF0008402509185024817590789F48091860222
:101C0000909187028217930751F410927B021092F1
:101C1000850210928402CA010E94A203089581E005
:101C200080937B0208958CE792E00E94A232892B78
:101C300021F08CE792E00E94F3330895CF93DF9375
:101C4000E0918420F0918520309719F0EF01A8965B
:101C500005C0C0918020D0918120659680917D2023
:101C600086FF1BC010927902209184023091850278
:101C7000808991892817390759F4809186029091BB
:101C80008702009729F0998388831B821A8203C0F8
:101C900081E0809379020E94130E888199810097D8
:101CA00031F04A815B816091B4210E944231DF9121
:101CB000CF91089585E591E062E040E050E00E9418
:101CC000423110926E1B10926D1B10926B020895A0
:101CD000DF93CF930F92CDB7DEB789838091B22087
:101CE0009091B320009739F06091B521AE014F5F1C
:101CF0005F4F0E9442310F90CF91DF910895AC0168
:101D000085E591E060E00E941E310895AC0185E513
:101D100091E061E00E941E3108950F931F93CF93CD
:101D2000DF9380916D1B90916E1B009709F41FC18A
:101D30008150954008F00CC105E91BE18091951B8D
:101D40009091961B892B59F58091971B9091981B28
:101D5000892B29F58091991B90919A1B892BF9F475
:101D600080919B1B90919C1B892BC9F480919D1B9A
:101D700090919E1B892B99F480919F1B9091A01BA1
:101D8000892B69F48091A11B9091A21B892B39F4B6
:101D90008091A31B9091A41B892B09F4D9C0809139
:101DA000951B8F3F09F4D9C085E99BE10E94E71D8F
:101DB000882379F485E99BE10E94A61D009731F400
:101DC0000E9411208C01009721F4C2C08C010D5E8D
:101DD0001F4FC8010E94F31FEC01009709F051C08A
:101DE000C80160E070E040E020E00E947C228C01AD
:101DF000009709F4ADC0EC01AE96CE0164EF71E03E
:101E00000E94D51B892B99F0CE010E94881B2DE7DB
:101E10003BE140916D1B50916E1BB9010E948346BE
:101E200060916D1B70916E1BCE010E94A41B85E812
:101E30009BE10E94991FA8014F5F5F4F892B19F00A
:101E400085E89BE102C080E090E060E070E00E94E5
:101E50003F176091C3217091C4218091C521909159
:101E6000C62128EE33E040E050E00E94E945C80179
:101E70008196BA01A9010E940B3681E0F80183A77F
:101E80006CC08DA58823E9F4AE96CE0164EF71E0B5
:101E90000E94D51B892B09F45BC0CE010E94881BD0
:101EA0002DE73BE140916D1B50916E1BB9010E94E3
:101EB000834660916D1B70916E1BCE010E94A41B26
:101EC00047C0823059F483E08DA7CE01499645E0A2
:101ED00050E060E070E00E940B361BA66091C321C9
:101EE0007091C4218091C5219091C62128EE33E0E4
:101EF00040E050E00E94E945CE018196BA01A90177
:101F00000E940B368E010F5E1F4FC8010E94B90D53
:101F1000AE96CE010E94941B892BD1F0CE010E9477
:101F2000941B90936E1B80936D1BCE010E94881BA7
:101F3000BC012DE73BE140916D1B50916E1BC90127
:101F40000E948346CE010E94AF1BC8010E94B90DBA
:101F500010926E1B10926D1B0AC080E090E00E94F0
:101F6000B90D10926E1B10926D1B10926B02DF91D7
:101F7000CF911F910F910895DF92EF92FF920F93EF
:101F80001F93CF93DF937C018A01FC0180819181B3
:101F9000009729F08C50934009F0F9C026C01092A8
:101FA00085021092840281E0809377028091DA0D9D
:101FB0009091DB0D90938902809388020E94DB2F21
:101FC0008093B4210E94DB2F8093B5218CE792E0AF
:101FD0006EE370E00E9409340E94940D8CE093E05F
:101FE000F7019183808381E0D6C0623009F4B1C0EB
:101FF000633030F4662309F48EC0613079F79BC0FA
:10200000673819F0683851F73CC010927802C4E87C
:10201000D2E013C08A819B818017910741F48881A7
:1020200099810E94A203198218821B821A82249627
:10203000809178028F5F8093780280917802882364
:1020400049F3EBEAF0E2838194818017910719F458
:10205000148213821082BC96CF018597825B9042D6
:1020600090F3EAEBF0E208C0858996898017910722
:1020700011F4118A108A799681E2E43BF807A1F7FE
:10208000ADCFE2E04C375E0759F5CA010E94A2329B
:10209000892B31F1109278028CE2D82E1DC08091EC
:1020A000AB208823A1F08CE792E00E94F33380916B
:1020B00078028D9DC00111248A579F4D90938520F1
:1020C0008093842082E00E947B040E948D0E809188
:1020D00078028F5F80937802809178028823F9F2EA
:1020E000F7E209301F0749F4C8010E94A232892B88
:1020F00021F00E944C200E948D0E23E20D30120729
:1021000009F06CCFC8010E94A232892B09F466CF76
:102110000E9420231BC04115510509F45FCF509345
:1021200085204093842083E00E947B040E948D0ED2
:102130000E94130E53CF4115510509F44FCF509310
:1021400081204093802085E00E947B040E948D0EB8
:1021500045CF80916D1B90916E1B892B09F43ECF6A
:102160008091831B863031F48091B21B81FF02C0C5
:102170000E94130E81E00E947B0480916D1B909160
:102180006E1B892B09F42ACF0E94BC1127CFF701BF
:102190001182108283E0DF91CF911F910F91FF9008
:1021A000EF90DF900895CF93DF93EA010E94180D1E
:1021B000FC01009741F08091DA0D9091DB0D968B38
:1021C000858BD08FC78BCF01DF91CF9108950F936F
:1021D0001F93DF93CF93CDB7DEB760970FB6F89418
:1021E000DEBF0FBECDBF8C01AB018FEF92E09A83B3
:1021F00089831C821B821E821D8218861F821A867A
:1022000019861C861B861E861D8680E091E0988BB1
:102210008F87CE010196B8010E94D310FC01009770
:1022200011F0118B008BCF0160960FB6F894DEBFD2
:102230000FBECDBFCF91DF911F910F9108959C01EB
:102240008091840290918502892B91F410927A02F8
:1022500030938502209384028091DA0D9091DB0DFA
:102260009093870280938602C9010E94B403089567
:1022700081E080937A0208950F931F93CF93DF93A9
:102280008A010E943C03EC01009771F08091DA0D05
:102290009091DB0D99A788A71BA70AA785E591E078
:1022A00060E0AE010E941E31CE01DF91CF911F91FF
:1022B0000F91089590938120809380204093B820BF
:1022C0005093B920EDEAFBE19A0185E041305807CF
:1022D00014F020E035E0CF01A9010E94834684E09C
:1022E0000E947B040E948D0E1092B9201092B8209B
:1022F0000895CF92DF92EF92FF920F931F93DF9397
:10230000CF93CDB7DEB760970FB6F894DEBF0FBEA0
:10231000CDBF7C01DE011196FC0180E101900D92A0
:102320008150E1F7F701C288D388D701F90180E134
:1023300001900D928150E1F7F701138B028BC701D9
:102340000E945A11D701FE01319680E101900D9251
:102350008150E1F7F701D38AC28A60960FB6F894EC
:10236000DEBF0FBECDBFCF91DF911F910F91FF90C8
:10237000EF90DF90CF900895EF92FF920F931F930D
:102380008091831B863009F05DC080916D1B909118
:102390006E1B8050954009F055C00EE912E0109375
:1023A0006E1B00936D1B92E0E92EE092811B86E785
:1023B000F82EF092821B1092B61B1092B51B0E9451
:1023C0003403809590959093B61B8093B51B0E9423
:1023D0008D0E10936E1B00936D1BE092811BF0928B
:1023E000821B2091822030918320C901FC01DC01F5
:1023F000AE59BD4F82E692E00D9001920197E1F750
:1024000089EA9BE162E672E00E948C028091711B76
:102410008093A91B8091721B8093AA1B8091731BD0
:102420008093AB1B8091741B8093AC1B1092B61BE6
:102430001092B51B0E943403809590959093B61B23
:102440008093B51B0E948D0E1F910F91FF90EF900E
:102450000895EF92FF920F931F93CF93DF93F62E81
:10246000E42E890120E620937D1B10927E1B1092A2
:10247000801B10927F1B2AE32093831B2091BA219B
:102480002093841B0C5F1F4F212F332727FD3A9584
:10249000045010402093811B202F2C5F2093821B1F
:1024A000A5E9BBE1FC0180E101900D928150E1F7CB
:1024B00085E89BE165E97BE10E94901C80916B02BD
:1024C000C82FD0E0CB55D44EF882E9821B821A8205
:1024D0000E943003809590959B838A83045D1F4FF3
:1024E00010936E1B00936D1B0E948D0EDF91CF9198
:1024F0001F910F91FF90EF9008952DE73BE18091A0
:10250000BA218093841B8091951B8F3F81F4D90160
:102510005896F901389680E101900D928150E1F7CB
:1025200085E89BE165E97BE10E94901C1BC0ACE85B
:10253000B2E0F901389680E101900D928150E1F707
:10254000E5E8FBE1DF01509680E10D9001928150BA
:10255000E1F7A5E9BBE1ECE8F2E080E101900D9242
:102560008150E1F760916B02662301F18AE3809369
:10257000831B70E040916D1B50916E1B461B570BE7
:1025800050936E1B40936D1B485250405093811BDB
:10259000485D5F4F842F88528093821B6755744E2D
:1025A0004C52504089EA9BE10E948C4610926B028B
:1025B00081E88093A51B1092A61B1092A81B109275
:1025C000A71B0E943003809590959093A81B809341
:1025D000A71B0895CF92DF92EF92FF920F931F9364
:1025E000CF93DF93D82EC62E79018A0110926B0209
:1025F0008091831B8A3321F48091A51B87FF81C0C2
:10260000ACE8B2E0E5E9FBE180E101900D92815098
:10261000E1F780916D1B90916E1BC09690936E1B9D
:1026200080936D1B8150954030F080E095E0909351
:102630006E1B80936D1B40916D1B50916E1B405320
:1026400050408DEA9BE16DE77BE10E948C4680E67D
:1026500080937D1B10927E1B1092801B10927F1B1B
:102660008AE38093831B8091BA218093841B80919D
:10267000851B9091861B892B51F58091871B90912A
:10268000881B892B21F58091891B90918A1B892BAE
:10269000F1F480918B1B90918C1B892BC1F480915C
:1026A0008D1B90918E1B892B91F480918F1B9091A3
:1026B000901B892B61F48091911B9091921B892B27
:1026C00031F48091931B9091941B892BD1F0E5E913
:1026D000FBE1DF01509780E10D9001928150E1F71D
:1026E00080918C028F3F91F484E0D81651F422E05F
:1026F000C21639F485E89BE16CE872E00E94901CF8
:102700000EC010926E1B10926D1B35C0A5E8BBE188
:10271000ECE8F2E080E101900D928150E1F7E09168
:102720006B02CE2FD0E0FE01EB55F44ED082C18279
:10273000C801B7010E94E303C755D44E688379836B
:102740008A839B8380916D1B90916E1B88979093D9
:10275000811B889688528093821B80916B02C82FC0
:10276000D0E0CB55D44E1B821A820E943003809554
:1027700090959B838A83DF91CF911F910F91FF905A
:10278000EF90DF90CF900895DF92EF92FF920F933A
:102790001F93CF93DF938091841B8F3F09F0B2C2C8
:1027A0008091851B8E3F09F0ADC28091861B8038D9
:1027B00009F0A8C280916B02A82FB0E0FD01EB5593
:1027C000F44E8181882309F09DC2A358B44E9C9693
:1027D0008C91882311F08093BA21E0916B02F0E094
:1027E000E755F44E64817581868197816115710585
:1027F0008105910561F1E090BB21F090BC21009131
:10280000BD211091BE210E94E303E616F7060807DA
:102810001907E9F0E0916B02F0E0E755F44E6481AE
:102820007581868197810E94E3036093BB21709339
:10283000BC218093BD219093BE210E94FF1C609318
:10284000BF217093C0218093C1219093C221E09158
:102850006B02F0E0E755F44E6085718582859385C3
:10286000611571058105910551F00E94E3036093A4
:10287000C3217093C4218093C5219093C6218CE01D
:1028800080939C0282E0D82EB6C1F901E358F44E41
:102890008181882309F436C28081833009F45FC0C6
:1028A000853009F44DC0813009F095C1F0939E0246
:1028B000E0939D0285E89BE10E94F31FFC01909349
:1028C000B4028093B302009789F460919D027091E5
:1028D0009E026E5F7F4F85E89BE141E022E00E940F
:1028E0007C229093B4028093B30275C185A588239E
:1028F00009F4D5A6C0919D02D0919E022296009126
:10290000B3021091B4020F5E1F4FCE01B80148E030
:1029100050E00E947646009761F0D801FE0188E001
:1029200001900D928150E1F7E091B302F091B40271
:10293000D5A6E091B302F091B40281E084A74BC127
:1029400064817581868197810E94E3036093B6213B
:102950007093B7218093B8219093B9213CC1F09333
:10296000A002E0939F0264817581868197810E9415
:10297000E3037B018C01E0919F02F091A00260854E
:102980007185828593850E94E303E616F7060807A2
:10299000190708F420C1E0919F02F091A0028089FC
:1029A0008E3F21F48189803809F415C1838187FF26
:1029B0005FC0CF01409662810E94B71FEC019093E7
:1029C000B2028093B102E0919F02F091A0020097C1
:1029D00049F564817581868197816115710581054D
:1029E000910509F445C0EF0160966F3F2FEF720724
:1029F0002FEF82072FEF920741F012810E94E3032D
:102A00009B01AC01CE01612F06C0CE01628120E0A6
:102A100030E040E050E00E94FF209093B2028093AB
:102A2000B10226C064817581868197816115710527
:102A30008105910549F06F3F3FEF73073FEF830733
:102A40003FEF930741F404C0CE010E94FF1B10C06A
:102A500081E08A8F0DC00E94E303AB01BC01CE016F
:102A600042960E940B36E091B102F091B202128EB2
:102A7000E0919F02F091A002838186FFACC0848127
:102A80009581A681B7810097A105B10509F4A3C07E
:102A90008281803409F09FC0A1EAB2E0709680E1A3
:102AA00001900D928150E1F781EA92E065E77BE1C8
:102AB0000E94661D81EA92E00E94991FDC019093BA
:102AC000B8028093B702009709F45EC052962C9129
:102AD0005297213009F058C0E0919F02F091A00276
:102AE00064817581868197816F3F3FEF73073FEF68
:102AF00083073FEF930709F444C00E94E303615248
:102B00007C4180409040C0F4E0919F02F091A0028F
:102B100064817581868197810E94E3037B018C012A
:102B20008091B7029091B80244960E94AF356E151D
:102B30007F0580079107A0F40091B7021091B802B9
:102B40000C5E1F4FE0919F02F091A002648175819D
:102B5000868197810E94E303AB01BC01C80109C0D3
:102B60008091B7029091B802449640E25CE160E047
:102B700070E00E940B36E091B702F091B802138A20
:102B80002AC053962C9327C0E0919F02F091A00297
:102B900064817581868197810E94E3036F5F7F4F17
:102BA0008F4F9F4F39F481EA92E040E050E060E0BF
:102BB00070E00EC0E0919F02F091A00264817581E7
:102BC000868197810E94E303AB01BC0181EA92E018
:102BD00021E00E94672080919C02E0916B02F0E06E
:102BE000E358F44EE80FF11D95A5990F990F990F31
:102BF000980F90939C0290916B0280919C02282FD9
:102C000030E0290F311D245D3F4F80916D1B909165
:102C10006E1B2817390708F438CE85E89BE10E941F
:102C2000D51F9C019093B6028093B502E0916B0290
:102C3000F0E0E755F44E82819381892B71F1E091A8
:102C4000B302F091B402309711F081E084A7C091F3
:102C5000B502D091B602E0916B02209779F4F0E0D2
:102C6000E755F44E828193810E94DF03AC0160E05E
:102C700070E085E89BE10E94552115C0F0E0E75522
:102C8000F44E828193810E94DF03AC0160E070E02A
:102C9000CE0141960E940B3606C02115310519F070
:102CA000C9010E94FA1B8091B3029091B40200976F
:102CB00049F18E960E94941B892B21F18091B302D9
:102CC0009091B4028E960E94941B90936E1B8093F9
:102CD0006D1B8091B3029091B4028E960E94881B66
:102CE000BC012DE73BE140916D1B50916E1BC9016A
:102CF0000E9483468091B3029091B4028E960E9406
:102D0000AF1B04C010926E1B10926D1BDF91CF9110
:102D10001F910F91FF90EF90DF900895CF93DF9375
:102D2000FC01608382E08183EF012296A5E7BBE18D
:102D300088E00D9009928150E1F7CF010A96FC01DD
:102D400086E0DF011D928A95E9F7DF91CF91089522
:102D5000CF93DF938DE79BE120E620937D1B1092BC
:102D60007E1B1092801B10927F1B2AE32093831BF3
:102D70002FEF2093841BFC0178962FEF32E03093E5
:102D8000961B2093951B1382128215821482178240
:102D9000168211861086138612861586148620E008
:102DA00032E0378726870896BF010E94901C409129
:102DB0006B02242F30E0F901EB55F44E85E8808357
:102DC00011821092811B8091851B9091861B892B0B
:102DD000A1F58091871B9091881B892B71F58091BB
:102DE000891B90918A1B892B41F580918B1B9091B7
:102DF0008C1B892B11F580918D1B90918E1B892B3B
:102E0000E1F480918F1B9091901B892BB1F48091FC
:102E1000911B9091921B892B81F48091931B90912F
:102E2000941B892B51F488E08093821B205D3F4FD7
:102E300030936E1B20936D1B11C0842F90E0805C3B
:102E40009F4F90936E1B80936D1B88E18093821B34
:102E5000C9018355944E61E00E948E1680916B02E9
:102E6000C82FD0E0CB55D44E1B821A820E9430036B
:102E7000809590959B838A83DF91CF9108950F93DE
:102E80001F93CF93DF938C01EA0110926B0280E6CF
:102E900080937D1B10927E1B1092801B10927F1BD3
:102EA0008AE38093831B9FEF9093841BE5E9FBE10A
:102EB00061157105B9F49093951B82E081831382AB
:102EC000128215821482178216821186108612864B
:102ED00081E0838794878D8585878E859F859787F9
:102EE000868707C0DF01FB0180E101900D928150D0
:102EF000E1F787E88093A51B1092A61B1092A91BEF
:102F00001092AA1B1092AB1B1092AC1BADEABBE156
:102F1000FE0180E101900D928150E1F71092811B3A
:102F2000CE010E94991F892B01F50115110549F069
:102F3000A5E8BBE1F80180E101900D928150E1F735
:102F400006C085E89BE165E97BE10E94901C88E270
:102F50008093821B80916B0290E08354944E61E0D9
:102F60000E948E1680E590E025C01092861B10927C
:102F7000851B1092881B1092871B10928A1B10923F
:102F8000891B10928C1B10928B1B10928E1B10921F
:102F90008D1B1092901B10928F1B1092921B1092FF
:102FA000911B1092941B1092931B88E18093821BBB
:102FB00080E490E090936E1B80936D1B80916B0278
:102FC000C82FD0E0CB55D44E1B821A820E9430030A
:102FD000809590959B838A83DF91CF911F910F916C
:102FE0000895DF92EF92FF920F931F93CF93DF9399
:102FF00090916B02E92FF0E0DF01A755B44EFC90F1
:103000008091841B8F3F09F046C1EB55F44E8181BE
:10301000882309F040C114968C9114978F3F09F4CE
:103020003AC120E4D22EDF20F6FE05C08091951B28
:103030008F3F09F430C184E180939C0210929E027C
:1030400010929D02C0916D1BD0916E1B40E050E02C
:1030500064E1292F30E0245D3F4F0FC0FC01E358AD
:10306000F44E9181992309F410C18081823009F4D2
:10307000AF01990F990F990F690FC901860F911D23
:103080008C179D0758F350939E0240939D026093C6
:103090009C02CD0104960E94991FFC019093B802F6
:1030A0008093B702009741F08189882309F0F3C02B
:1030B000CF010E94581FEFC080916B0290E08355B2
:1030C000944E0E94F31F8C019093B4028093B3023C
:1030D000009709F4E0C0C0919D02D0919E02209714
:1030E00011F420E00AC0BC016F5E7F4FCE01029652
:1030F00048E050E00E947646282F90E8E92EEF2025
:10310000F80185A58823A9F5209709F4C4C0D80142
:103110005196FE01329688E001900D928150E1F7C0
:10312000E091B302F091B402DD2001F181E085A7C6
:10313000E091B302F091B40213A60091B302109192
:10314000B4026091BF217091C0218091C121909102
:10315000C22128EE33E040E050E00E94E945C8017A
:103160004996BA01A9010E940B365DC082E085A78D
:103170005AC0F5FC09C0222339F0813009F08BC018
:1031800082E0F80185A787C0209749F0D8015196C1
:10319000FE01329688E001900D928150E1F7DD202A
:1031A000F9F0E091B302F091B40281E085A70091BB
:1031B000B3021091B4026091BF217091C02180913F
:1031C000C1219091C22128EE33E040E050E00E94FE
:1031D000E945C8014996BA01A9010E940B360EC003
:1031E00080919D0290919E02892B41F0222331F023
:1031F000E091B302F091B40282E085A7E091B302BE
:10320000F091B40284A5882371F0EE2061F485E882
:103210009BE10E94D51F9093B6028093B502009760
:1032200011F00E94FA1BE091B302F091B402E4A6FF
:103230008091B3029091B4028E960E94941B892BC8
:1032400051F18091B3029091B4028E960E94941B2A
:1032500090936E1B80936D1B8091B3029091B4028A
:103260008E960E94881BBC012DE73BE140916D1BAF
:1032700050916E1BC9010E9483468091B3029091C8
:10328000B4028E960E94AF1B0AC050939E024093D8
:103290009D0260939C0210926E1B10926D1BDF9139
:1032A000CF911F910F91FF90EF90DF900895DF92E3
:1032B000EF92FF920F931F93CF93DF938091841B24
:1032C0008F3F09F015C280916B02E82FF0E0E358C0
:1032D000F44E80A98F3F09F40BC281A5882309F021
:1032E00007C210929E0210929D0284E180939C027C
:1032F00042E0D42E89C0F901E358F44E818188233D
:1033000009F4F6C18081813009F06EC0F0939E020D
:10331000E0939D028091851B9091861B892B59F526
:103320008091871B9091881B892B29F58091891B9F
:1033300090918A1B892BF9F480918B1B90918C1BA7
:10334000892BC9F480918D1B90918E1B892B99F448
:1033500080918F1B9091901B892B69F48091911B18
:103360009091921B892B39F48091931B9091941B1F
:10337000892B09F4BDC185E89BE10E94F31FEC0194
:103380009093B4028093B30260919D0270919E026B
:10339000009749F46E5F7F4F85E89BE140E022E0B3
:1033A0000E947C2221C032E0E32EF12CE60EF71EB3
:1033B0008C010F5E1F4FC701B80148E050E00E942A
:1033C0007646009769F0D801F70188E001900D92E8
:1033D0008150E1F7E091B302F091B402D5A604C0A8
:1033E0008DA5882309F4DDA680919C02E0916B02F3
:1033F000F0E0E358F44EE80FF11D95A5990F990FF1
:10340000990F980F90939C0280916B02482F50E087
:1034100080919C029A01280F311D245D3F4F8091BD
:103420006D1B90916E1B2817390708F464CFCA01F1
:103430008355944E0E94991FFC019093B80280938B
:10344000B702009709F454C18091851B9091861BA7
:10345000892B09F099C08091871B9091881B892B3B
:1034600009F092C08091891B90918A1B892B09F0E9
:103470008BC080918B1B90918C1B892B09F084C091
:1034800080918D1B90918E1B892B09F07DC08091BE
:103490008F1B9091901B892B09F076C08091911B16
:1034A0009091921B892B09F06FC08091931B909192
:1034B000941B892B09F068C08091951B8F3F09F000
:1034C00017C18091961B823009F012C18091971B21
:1034D0009091981B892B09F00BC18091991B9091B9
:1034E0009A1B892B09F004C180919B1B90919C1B16
:1034F000892B09F0FDC080919D1B90919E1B892B0B
:1035000009F0F6C080919F1B882309F0F1C08091DB
:10351000A01B813009F0ECC08091A11B8F3F09F006
:10352000E7C08189882361F18FEF92E09093961B29
:103530008093951B1092981B1092971B10929A1BC8
:103540001092991B10929C1B10929B1B10929E1B19
:1035500010929D1B1092A01B10929F1B1092A21BF9
:103560001092A11B80E091E09093A41B8093A31B79
:1035700085E89BE165E97BE10E94901C90E272C0C6
:10358000CF010E94581FB4C085E89BE10E94991F9B
:10359000892B09F0ADC08091951B8F3F09F03FC08A
:1035A0008091961B8230D9F58091971B9091981B42
:1035B000892BA9F58091991B90919A1B892B79F5FC
:1035C00080919B1B90919C1B892B49F580919D1BA1
:1035D00090919E1B892B19F580919F1B8823F9F4EC
:1035E0008091A01B8130D9F48091A11B8F3FB9F449
:1035F000E5E9FBE1DF01509780E10D9001928150F8
:10360000E1F780916B02E82FF0E0A5E8BBE1E3551C
:10361000F44E80E101900D928150E1F722C085E9DE
:103620009BE10E94991F2091B7023091B8022817A0
:10363000390709F05DC0E5E9FBE1DF01509780E162
:103640000D9001928150E1F780916B02E82FF0E03C
:10365000A5E8BBE1E355F44E80E101900D92815065
:10366000E1F790E610926B0280E680937D1B10924A
:103670007E1B1092801B10927F1B1092811B88E290
:103680008093821B8AE38093831B8FEF8093841B3C
:1036900088E88093A51B1092A61B9093A91BE0912C
:1036A000B702F091B802ADEABBE1319680E101903A
:1036B0000D928150E1F780916B0290E08354944E1B
:1036C00062E00E948E1680916B02C82FD0E0CB552D
:1036D000D44E1B821A820E943003809590959B8362
:1036E0008A8380E590E090936E1B80936D1B04C0ED
:1036F00010926E1B10926D1BDF91CF911F910F9155
:10370000FF90EF90DF900895FC01118210820895E0
:10371000FC0180819181009719F4E0E0F0E002C0A3
:10372000FC013296CF010895FC010190F081E02D5B
:10373000309719F4E0E0F0E005C0EE5FFA4F019039
:10374000F081E02DCF010895FC010190F081E02D82
:10375000309721F0EE5FFA4F718360830895CF9325
:10376000DF93EC0188819981009761F08C5F9A4F1B
:103770000E949F34688179818FE591E00E94DE315B
:1037800019821882DF91CF9108950F931F938C01B6
:10379000FC01608171818FE591E00E94DE31F801CA
:1037A000118210821F910F9108950F931F93CF9351
:1037B000DF93EC018B0188819981892B19F020E03E
:1037C00030E012C08FE591E00E94B0319983888388
:1037D000009741F08C5F9A4FB80145EC5BE19E0188
:1037E0000E94E13428813981C901DF91CF911F9175
:1037F0000F910895FC01009709F010820895FC01D3
:10380000009709F010820895682F88EC91E2909358
:10381000FB0C8093FA0CFC01462F552747FD509571
:1038200016C08081882391F06F3F29F0818990E054
:103830008417950759F481818E3F41F48281803845
:1038400029F4F093FB0CE093FA0C0CC0B1969F01A5
:1038500082E2EC34F80728F3F093FB0CE093FA0CC7
:1038600020E030E0C9010895682F88EC91E2909340
:10387000FB0C8093FA0CFC01462F552747FD509511
:1038800016C08081882391F06F3F29F0818990E0F4
:103890008417950759F481818E3F19F4828180380D
:1038A00029F0F093FB0CE093FA0C0CC0B1969F0149
:1038B00082E2EC34F80728F3F093FB0CE093FA0C67
:1038C00020E030E0C9010895FC01009709F0108262
:1038D0000895FC01009709F010820895FC01108200
:1038E000089540E020E030E0FC01E20FF31F50813A
:1038F000FB01E20FF31FE0815E1731F4485F2F5F99
:103900003F4F403889F70AC0E527842F885FE7FDDD
:1039100005C04F5F481711F0EE0FF9CF842F0895BF
:10392000DF92EF92FF920F931F93CF93DF93EC01FF
:103930007B01FB0180818E3F21F48181803819F465
:1039400036C08F3FA1F188EC91E29093FB0C8093FD
:10395000FA0CDD2400E010E021C080818823A9F06A
:103960008189813091F481818E3F19F48281803880
:1039700061F03196C701BF010E94711C8D1528F0BE
:103980000091FA0C1091FB0CD82E8091FA0C9091BA
:10399000FB0C81969093FB0C8093FA0CE091FA0C4F
:1039A000F091FB0C82E2EC34F807B8F204C081E03D
:1039B0000E94041C8C010115110589F419821882DA
:1039C0001B821A821D821C821F821E821986188603
:1039D0001B861A861D861C861F861E8608C0DE0171
:1039E000F801319680E101900D928150E1F7DF916D
:1039F000CF911F910F91FF90EF90DF900895DF928C
:103A0000EF92FF920F931F930E941D36D82E0E94B3
:103A10001D36E090BB21F090BC210091BD2110919A
:103A2000BE213D2D20E0280F391F40E050E0CA01A3
:103A3000B901A80197010E94E9459B01AC011695C7
:103A40000795F794E7942E0D3F1D401F511FB901B4
:103A5000CA011F910F91FF90EF90DF900895CF93CF
:103A6000DF93EC0198A18091C721981750F5AE0122
:103A70004F5F5F4F80E090E060E070E00E943F1792
:103A800088A18F5F88A36091C3217091C421809128
:103A9000C5219091C62128EE33E040E050E00E941D
:103AA000E945CA01B9012DE730E040E050E00E944D
:103AB000B6459B01AC01CE014C96B9010E949432EF
:103AC00002C081E0898BDF91CF910895CF93DF937E
:103AD000DC01EC012896FB0188E0019009928150FD
:103AE000E1F718968C91189792E0892718968C9395
:103AF000DF91CF9108950F931F93CF93DF938C01A4
:103B000081E197E29093070D8093060D12C08881A2
:103B1000882351F0CE014396B80140E150E00E9465
:103B20007646009709F41882AE96D093070DC0939D
:103B3000060DC091060DD091070D8AE2C93AD8074B
:103B400030F3DF91CF911F910F910895CF92DF92C3
:103B5000EF92FF920F931F93CF93DF936C0181E15C
:103B600097E29093070D8093060D00E010E0EE249D
:103B70001CC08881882391F0F988FE1478F0BE017A
:103B80006F5F7F4F4F2D469546954695C60150E095
:103B90000E947646009711F48E0101C0FE2CAE966D
:103BA000D093070DC093060DEF2CC091060DD09158
:103BB000070D8AE2C93AD807E0F2C801DF91CF9138
:103BC0001F910F91FF90EF90DF90CF9008950F938A
:103BD0001F93CF93DF938C0181EA92E29093010DC2
:103BE0008093000D16C08881882371F0498946951D
:103BF00046954695CE010196B80150E00E94764662
:103C0000009711F481E00EC06B96D093010DC09324
:103C1000000DC091000DD091010D83E2CD30D80789
:103C200010F380E0DF91CF911F910F9108958F9253
:103C30009F92AF92BF92DF92EF92FF920F931F93EA
:103C4000CF93DF935A014901D02EF70111821082E0
:103C500070E0469F8001479F100D569F100D112464
:103C6000080F191FD694D694D694EC0116C08881FB
:103C7000882371F0CE010196B4014D2D50E00E94D1
:103C80007646009741F4F701D183C08380E010C0ED
:103C9000F701D183C083CA0DDB1DC017D10738F3EC
:103CA000F70180819181892B11F482E001C081E0CC
:103CB000DF91CF911F910F91FF90EF90DF90BF9018
:103CC000AF909F908F9008959F92AF92BF92CF92A6
:103CD000DF92EF92FF920F931F93CF93DF93182FF2
:103CE000D92EC62EB42EA52E922E81E197E264E144
:103CF0004EE250E0212F3D2D0C2D76E0E72E7DE0A9
:103D0000F72E0E94171E8130E1F4C091060DD0916C
:103D1000070DFE018193812F9D2D9C01D90180E12A
:103D20000D9001928150E1F7C98ADE0153968B2DE7
:103D30009A2D9C01F90180E101900D928150E1F7EB
:103D40009A8A8091060D9091070DDF91CF911F9176
:103D50000F91FF90EF90DF90CF90BF90AF909F902A
:103D60000895EF92FF920F939C018CE492E260E041
:103D700041E150E000E8EEEFEE2EECE0FE2E0E9476
:103D8000171E882319F020E030E004C02091FE0CBB
:103D90003091FF0CC9010F91FF90EF900895DF92D1
:103DA000EF92FF920F931F93182FD92E8CE492E27B
:103DB00060E041E150E0212F3D2D00E8FEEFEF2EC5
:103DC000FCE0FF2E0E94171E813019F040E050E009
:103DD0000FC04091FE0C5091FF0CFA018193812F8E
:103DE0009D2D9C01D90180E10D9001928150E1F758
:103DF000CA011F910F91FF90EF90DF900895EF920D
:103E0000FF920F939C018CE492E265E041E150E067
:103E100000E8ACEFEA2EACE0FA2E0E94171E8823D1
:103E200019F020E030E004C02091FC0C3091FD0C32
:103E3000C9010F91FF90EF900895CF93DF93EC01AC
:103E4000009799F19FEF9093E80C82E08093E90C42
:103E50001092EB0C1092EA0C1092ED0C1092EC0CFC
:103E60001092EF0C1092EE0C1092F10C1092F00CDC
:103E70001092F20C81E08093F30C9093F40C8E85F9
:103E80008093F50C8F8598899093F70C8093F60CAE
:103E900088EE9CE00E94FF1EFC019093FD0C809335
:103EA000FC0C009709F010821882DF91CF910895E1
:103EB000FC0181818E3F31F48281803819F420E049
:103EC00030E005C0CF010E941D1F21E030E0C90194
:103ED0000895DF92EF92FF920F931F93182FD92E20
:103EE0008CE492E265E041E150E0212F3D2D00E8B5
:103EF000BCEFEB2EBCE0FB2E0E94171E813019F0A8
:103F000040E050E00FC04091FC0C5091FD0CFA01D4
:103F10008193812F9D2D9C01D90180E10D9001920B
:103F20008150E1F7CA011F910F91FF90EF90DF9050
:103F30000895EF92FF920F939C0188EC91E264E068
:103F400041E250E000E87AEFE72E7CE0F72E0E9495
:103F5000171E882319F020E030E004C02091FA0CED
:103F60003091FB0CC9010F91FF90EF900895EF92F3
:103F7000FF920F939C01062F81EA92E264E04BE1ED
:103F800050E0E0E0EE2EEDE0FE2E0E94171E8823AA
:103F900019F020E030E004C02091000D3091010DB7
:103FA000C9010F91FF90EF900895EF92FF920F9348
:103FB0009C0185E193E262E04AE150E000E8F4E030
:103FC000EF2EFDE0FF2E0E94171E882319F020E03F
:103FD00030E004C02091040D3091050DC9010F910E
:103FE000FF90EF900895EF92FF920F939C0189E468
:103FF00093E264E140E350E000E8A2E0EA2EADE0A5
:10400000FA2E0E94171E882319F020E030E004C029
:104010002091020D3091030DC9010F91FF90EF9097
:1040200008951092F90C1092F80C85E193E222C0E9
:1040300080818823D1F0CF0101960E94F31FFC01FB
:10404000009751F085A5882339F02091040D309117
:10405000050D2F5F3F4F1EC08091040D9091050DFF
:1040600001969093F90C8093F80C8091040D909137
:10407000050D4A969093050D8093040DE091040D73
:10408000F091050D83E2E934F80790F22091F80CE5
:104090003091F90CC90108950E941120892B91F4E7
:1040A0008091E70C833070F40E94A8168091E70C91
:1040B0008F5F8093E70C89E097E264EF71E00E94E4
:1040C0000934089589E097E20E94073308958F929A
:1040D0009F92AF92BF92CF92DF92EF92FF920F9397
:1040E0001F93CF93DF934C015A016B01122F88EC81
:1040F00091E264E041E250E0940100E8BAEFEB2E77
:10410000BCE0FB2E0E94171E813019F020E030E049
:1041100068C0A091FA0CB091FB0CFD018193E40101
:1041200080E1099001928150E1F751961C925197DC
:1041300052961C935297A114B104C104D10421F4E6
:1041400081E053968C9309C053961C925397CD01EE
:104150004496B601A5010E940B360091FA0C10910D
:10416000FB0C045E1F4F0E941D366DE770E00E943D
:10417000D545BC01C8010E949432E091FA0CF0913F
:10418000FB0C10A29FEF9093E80C82E08093E90C67
:104190001092EB0C1092EA0C1092ED0C1092EC0CB9
:1041A0001092EF0C1092EE0C1092F10C1092F00C99
:1041B0001092F20C81E08093F30C9093F40CF401D4
:1041C00085858093F50C868597859093F70C809371
:1041D000F60C88EE9CE00E94691F2091FA0C309149
:1041E000FB0CC901DF91CF911F910F91FF90EF90D0
:1041F000DF90CF90BF90AF909F908F9008958F9257
:104200009F92AF92BF92CF92DF92EF92FF920F9365
:104210001F93CF93DF93182F992E862E59016A0191
:1042200081EA92E264E04BE150E0212F392D082D24
:1042300070E0E72E7DE0F72E0E94171E813031F5E9
:10424000A091000DB091010DFD018193812F992D59
:104250009C01E90180E1099001928150E1F75196BA
:104260008C925197A114B104C104D10461F0CD0125
:104270004296B601A5010E940B36E091000DF09127
:10428000010D128E03C081E05A968C9380E090E07D
:10429000DF91CF911F910F91FF90EF90DF90CF9022
:1042A000BF90AF909F908F9008959F92AF92BF92D2
:1042B000CF92DF92EF92FF920F931F93CF93DF93F2
:1042C000182F992E5A016B0185E193E262E04AE1D1
:1042D00050E0212F392D00E8E4E0EE2EEDE0FE2E37
:1042E0000E94171E813019F020E030E026C0C091F6
:1042F000040DD091050DFE018193812F992D9C0114
:10430000D90180E10D9001928150E1F7A114B1042F
:10431000C104D10461F0CE014196B601A5010E940D
:104320000B36E091040DF091050D118E02C081E075
:10433000898F2091040D3091050DC901DF91CF9136
:104340001F910F91FF90EF90DF90CF90BF90AF90B3
:104350009F900895FC01009721F010828E960E9494
:10436000AF1B089580EC93E0E9E4F3E2DF019C01E8
:104370001D9221503040E1F784E3E5E1F3E2DF01F3
:104380001D928A95E9F78CE6E1EAF2E2DF011D92DF
:104390008A95E9F78BEEE6EBF1E2DF011D928A9553
:1043A000E9F788E993E0E1E1F7E2DF019C011D9282
:1043B00021503040E1F780E095E0A0E0B0E080934C
:1043C000B6219093B721A093B821B093B92180E48E
:1043D0008093BA2180E395E7A0E0B0E08093BB2111
:1043E0009093BC21A093BD21B093BE210E94FF1CDD
:1043F0006093BF217093C0218093C1219093C2210B
:1044000088EE93E0A0E0B0E08093C3219093C421B4
:10441000A093C521B093C62181E08093C7218EEF80
:1044200090E89093E90C8093E80C1092EB0C1092BA
:10443000EA0C1092ED0C1092EC0C1092EF0C109212
:10444000EE0C88EE9CE060E420E030E040E050E0DC
:104450000E94FF20A0EFBCE0E5E7FBE188E00190CF
:104460000D928150E1F78091F00C92E089278093C2
:10447000F00C88EE9CE040E050E060E070E021E06D
:104480000E9467208FEF92E09093E90C8093E80CF4
:104490001092EB0C1092EA0C1092ED0C1092EC0CB6
:1044A0001092EF0C1092EE0C1092F10C1092F00C96
:1044B0001092F30C1092F20C1092F50C1092F40C76
:1044C00080E091E09093F70C8093F60C88EE9CE0EE
:1044D0000E94691F0E941D366DE770E00E94D5455D
:1044E000BC0189E097E20E9409348DE093E26CE020
:1044F00070E00E9409340895BF92CF92DF92EF924C
:10450000FF920F931F93CF93DF93182FD92EEB01B8
:10451000C42EB22E89E493E264E140E350E0212FFF
:104520003D2D00E8F2E0EF2EFDE0FF2E0E94171E69
:1045300090E08130910509F054C04091020D5091F6
:10454000030DDA0181E08D93212F3D2DC901FC017E
:1045500080E101900D928150E1F7CA0141962097C8
:1045600041F0FC01DE0188E00D9001928150E1F7FD
:1045700006C0FC0188E0DF011D928A95E9F7E09111
:10458000020DF091030DC4A6B5A6CF018E960E9430
:10459000841B8091020D9091030D499640E050E0FC
:1045A00060E070E00E940B368091020D9091030D47
:1045B000819640E050E060E070E00E940B36009190
:1045C000020D1091030DF80113A60E94E725D801F2
:1045D0009A969C938E9399972091020D3091030D9A
:1045E00024C0029701F50E94E725AC01E9E4F3E25B
:1045F00060E070E00DC08081882339F021A532A5EC
:104600002417350710F4BF0101C09A01F096A901E3
:10461000B7E2E930FB0779F76115710521F0CB01AD
:104620000E94AA2177CF20E030E0C901DF91CF912D
:104630001F910F91FF90EF90DF90CF90BF90089562
:10464000DF92EF92FF920F931F9388EC91E230C0BC
:104650008081882341F18389882369F4CF014496BE
:104660000E94D535892B39F08091FA0C9091FB0C82
:104670000E941D1F18C0E091FA0CF091FB0C81897B
:10468000882389F490A18091C721891760F0CF0118
:104690004C960E947132892B31F08091FA0C9091E6
:1046A000FB0C0E942F1D8091FA0C9091FB0C8196BF
:1046B0009093FB0C8093FA0CE091FA0CF091FB0CB8
:1046C00082E2EC34F80720F285E193E218C08081A1
:1046D000882381F0818D882369F4CF0141960E945F
:1046E000D535892B39F0E091040DF091050D309707
:1046F00009F010828091040D9091050D4A969093D7
:10470000050D8093040DE091040DF091050D83E2F9
:10471000E934F807E0F281EA92E218C08081882348
:1047200081F0828D882369F4CF0142960E94D535AD
:10473000892B39F0E091000DF091010D309709F0CF
:1047400010828091000D9091010D4B969093010D78
:104750008093000DE091000DF091010D83E2ED30AA
:10476000F807E0F289E493E29093030D8093020D41
:10477000B2E0EB2EA4E0DA2EFF24F3948EC0808109
:10478000882309F481C085A5813009F1813030F09A
:10479000833051F1843009F077C034C083A5833071
:1047A00010F0CF0142C0CF0181960E94D535892BF0
:1047B00009F46AC0E091020DF091030D83A58F5FAB
:1047C00083A7319680E090E060E070E042C0CF01C6
:1047D00049960E94D535892B09F456C0E091020D07
:1047E000F091030DE5A650C0CF0149960E94D53542
:1047F000892B09F449C0E091020DF091030DD5A673
:10480000F3A623C083A5833098F0CF0101960E94C0
:10481000D51FFC019093050D8093040D009709F0BE
:1048200010828091020D9091030D0E94AA212CC04C
:10483000CF0181960E94D535892B31F1E091020D8F
:10484000F091030D83A58F5F83A7319680E090E000
:10485000BF01AF010E943F170091020D1091030D9F
:104860006091C3217091C4218091C5219091C6218E
:1048700028EE33E040E050E00E94E945C80181960F
:10488000BA01A9010E940B368091020D9091030D8F
:10489000C0969093030D8093020DE091020DF0916C
:1048A000030D87E2E930F80708F469CF8DE093E261
:1048B0000E94FE331F910F91FF90EF90DF900895BB
:1048C00000D000D000D0EDB7FEB7319626EF30E033
:1048D000ADB7BEB712963C932E9311979383828304
:1048E000758364830E94B7468DB79EB706960FB650
:1048F000F8949EBF0FBE8DBF0895EF92FF920F9365
:104900001F93DF93CF93CDB7DEB728970FB6F894F8
:10491000DEBF0FBECDBF0E94F7270E94072881E0AF
:1049200068E046E00E94F32681E00E94D3270E94BF
:10493000D72500D000D08BE291E0ADB7BEB712967C
:104940009C938E93119787E691E014969C938E9397
:1049500013970E94B7460F900F900F900F900E94F0
:1049600085350E947D3089E092E060E070E00E9431
:1049700051310E943E35E091B201F091B3010995A9
:104980008E010F5F1F4F88E0F80111928A95E9F7B9
:10499000C80160E070E048E050E00E944F49A5E7A0
:1049A000BBE1F80188E001900D928150E1F78DECB8
:1049B0009BEA60E070E0AE014F5F5F4F0E942A2CDF
:1049C00088E090E00E945F498093A92A89E090E006
:1049D0000E945F492091A92A30E090E0809590954F
:1049E0002817390711F08AE102C08091A92A0E9494
:1049F000432ACE0101960E94862E0E94E038E09163
:104A0000F101F091F2010995E091D801F091D901FD
:104A10000995E0915902F0915A0209950091D60149
:104A20001091D701E090EF01F090F0010E94B328BF
:104A30002DB73EB7285030400FB6F8943EBF0FBE9A
:104A40002DBFEDB7FEB7319629E131E0ADB7BEB766
:104A500012963C932E93119713830283F582E4827E
:104A6000868317820E94B746E091FB01F091FC011A
:104A70002DB73EB7285F3F4F0FB6F8943EBF0FBE2D
:104A80002DBF3097F1F00995BC018DE790E00E94B1
:104A9000D5458FEF6F3F7807A1F000D000D086E0BA
:104AA00091E0ADB7BEB712969C938E931197149672
:104AB0007C936E9313970E94B7460F900F900F90C0
:104AC0000F9000D084E091E0EDB7FEB79283818330
:104AD0000E94B7460F900F9085E591E060E070E08E
:104AE0000E94513189E391E00E94A13100D08CEF06
:104AF00090E0ADB7BEB712969C938E9311970E942B
:104B0000B7460F900F9028960FB6F894DEBF0FBEF1
:104B1000CDBFCF91DF911F910F91FF90EF9008953E
:104B20000E947D240E94AC300E941C28FBCF209163
:104B3000AE2A3091AF2A4091B02A5091B12A90E02C
:104B4000A0E0B0E0280F391F4A1F5B1F2093AE2A58
:104B50003093AF2A4093B02A5093B12A2091AA2AC9
:104B60003091AB2A4091AC2A5091AD2A280F391FC1
:104B70004A1F5B1F2093AA2A3093AB2A4093AC2A8A
:104B80005093AD2A08958091AE2A9091AF2AA091BA
:104B9000B02AB091B12A0196A11DB11D8093AE2A11
:104BA0009093AF2AA093B02AB093B12A0895F894B5
:104BB0001092B60016BC8DE387BD92E094BD85E0EF
:104BC00085BD85B385BB90936E0078940895209140
:104BD000080D3091090D8091080D9091090D28174D
:104BE0003907A9F7C901089507C022E330E00000A2
:104BF00021503040E1F701970097B9F70895BC01C3
:104C00004091080D5091090D8091080D9091090D6A
:104C100048175907A9F72091080D3091090D809187
:104C2000080D9091090D28173907A9F7241B350B9A
:104C30002617370780F3089508952091AE2A309102
:104C4000AF2A4091B02A5091B12A8091AE2A90911A
:104C5000AF2AA091B02AB091B12A281739074A0784
:104C60005B0759F7B901CA0108951F920F920FB659
:104C70000F920BB60F9211242F933F934F935F9394
:104C80006F937F938F939F93AF93BF93EF93FF9314
:104C90008091080D9091090D01969093090D8093D4
:104CA000080D80910A0D8F5F80930A0D80910A0D87
:104CB0008D3721F410920A0D0E94C3250E94BA324A
:104CC000892B11F00E943933FF91EF91BF91AF9181
:104CD0009F918F917F916F915F914F913F912F9114
:104CE0000F900BBE0F900FBE0F901F9018951F9244
:104CF0000F920FB60F92112410928B010F900FBEDE
:104D00000F901F9018951F920F920FB60F920BB62F
:104D10000F9211242F933F934F935F936F937F9341
:104D20008F939F93AF93BF93EF93FF93E091810194
:104D3000F09182018081E0918C01F0918D0130979A
:104D400009F00995FF91EF91BF91AF919F918F91DC
:104D50007F916F915F914F913F912F910F900BBE7B
:104D60000F900FBE0F901F9018951F920F920FB6C5
:104D70000F921124109298010F900FBE0F901F9068
:104D800018951F920F920FB60F920BB60F92112427
:104D90002F933F934F935F936F937F938F939F9343
:104DA000AF93BF93EF93FF93E0918E01F0918F014A
:104DB0008081E0919901F0919A01309709F009956D
:104DC000FF91EF91BF91AF919F918F917F916F91E3
:104DD0005F914F913F912F910F900BBE0F900FBE9F
:104DE0000F901F90189590E02DE030E0829FF00129
:104DF000839FF00D929FF00D1124EF57FE4FA2817B
:104E0000B3811C92A481B5816C93A681B78188ED92
:104E10008C93A085B1854C931286148613860895D1
:104E2000CF93DF93AB0190E02DE030E0829FD00183
:104E3000839FB00D929FB00D1124AF57BE4FED016F
:104E40002A9691E00AC09883ED91FC911197808396
:104E500088818823E9F74F5F5F4FFA0184918823A7
:104E600091F7DF91CF910895CF93DF93262F372FBE
:104E7000A90190E02DE030E0829FD001839FB00D2A
:104E8000929FB00D1124AF57BE4FED012A9691E0CD
:104E90002DE018C08A3041F49883ED91FC91119770
:104EA000208388818823E9F7FA0180818D3041F0E1
:104EB0009883ED91FC911197808388818823E9F78D
:104EC0004F5F5F4FFA018081882321F7DF91CF91F7
:104ED000089590E02DE030E0829FF001839FF00D77
:104EE000929FF00D1124EF57FE4F81E08287A08141
:104EF000B1816C933A9680818823E9F7089590E018
:104F00002DE030E0829FF001839FF00D929FF00D25
:104F10001124EF57FE4F74876387089591E09093B3
:104F20008B01E0918101F0918201808380918B015E
:104F30008823E1F70895482F8A30C9F480910B0D3A
:104F400090E02DE030E0829FF001839FF00D929F72
:104F5000F00D1124EF57FE4F81E08287A081B181CF
:104F60008DE08C933A9680818823E9F702C08D30DA
:104F7000B9F080910B0D90E02DE030E0829FF001C0
:104F8000839FF00D929FF00D1124EF57FE4F81E0AB
:104F90008287A081B1814C933A9680818823E9F77A
:104FA00080E090E0089580930B0D83E791E090936B
:104FB000F12B8093F02B08950F931F93DF93CF93E2
:104FC000CDB7DEB7FE013A960CE01DE0C80160E403
:104FD00070E0488559859F010E9412478F81B80172
:104FE0000E943427CF91DF911F910F91089584B7CC
:104FF000877F84BF10924D0D10924C0D88E10FB643
:10500000F89480936000109260000FBE0895809124
:105010004C0D90914D0D019790934D0D80934C0D3B
:105020002FE088E190E00FB6F894A8958093600097
:105030000FBE209360000895A895089588E10FB6EB
:10504000F89480936000109260000FBE0895F89469
:1050500028E088E190E00FB6F894A895809360006E
:105060000FBE20936000FFCF80934E0D0895DF9315
:10507000CF9300D00F92CDB7DEB73091660010927B
:10508000700010926F008091B60080628093B6002D
:1050900081E08093B1008FE890E00197F1F78FB73E
:1050A0008983F89420E861E050E84FEF6093810035
:1050B0008091B6008B71E1F75093B2001092850099
:1050C0001092840047BBB89BFECF809184009091E2
:1050D00085009B838A83109281008A819B81875FF0
:1050E000934760F4809166008E3719F180916600D5
:1050F0008F3FF9F0809166008F5F12C08A819B819B
:105100008D52904810F491E00EC080916600813875
:1051100081F080916600882361F080916600815063
:105120008093660090E0215029F0992309F4BECFC6
:1051300001C090E0809166008093432B992311F485
:1051400030936600309366001092B1008091B600F3
:105150008F7D8093B60089818FBF0F900F900F9045
:10516000CF91DF9108958091500D089580914F0D5A
:1051700080914F0D90E0089581E06FE140E00E9442
:10518000362D813021F020E030E0813111F421E032
:1051900030E0C901089581E06FE140E00E94362DC2
:1051A000823021F0823111F081E0089580E008958D
:1051B00081E06FE140E00E94362D282F815182303E
:1051C00058F02F3149F0213039F090E0223009F4C5
:1051D00091E081E0982701C090E0892F08950E9416
:1051E000D8288823E1F308951B9B02C080E108952D
:1051F00085E06FE040E00E94362D08950F931F93E5
:10520000182F883059F0863049F0893039F08631CE
:1052100029F0893119F022E430E050C01B9B03C013
:1052200024E430E04BC00E94EF2881E06FE140E0D1
:105230000E94362D082F181709F43EC0183061F46B
:105240002B988DE090E00197F1F782E06FE140E06C
:1052500023E00E94492D22C0193139F4863199F496
:1052600082E06FE140E029E008C0163161F4893145
:1052700051F482E06FE140E026E00E94492D83E096
:1052800090E00197F1F782E06FE140E0212F0E946A
:10529000492D083019F489E691E002C083E090E0DE
:1052A0000197F1F781E06FE140E00E94362D811710
:1052B00019F023E430E002C020E430E0C9011F917E
:1052C0000F9108958091412B882339F02B988FEA14
:1052D00092E00197F1F71092412B0E94EF2886E1AE
:1052E0000E94FE2881E08093422B08958091422BFA
:1052F000882351F48091510D882321F081E080931F
:10530000520D02C00E94622981E090E0089510923F
:10531000422B0E94EF282B988DE090E00197F1F747
:1053200082E06FE140E023E00E94492D83E090E0BD
:105330000197F1F72B9A81E08093412B089580919A
:10534000520D882321F00E9462291092520D809103
:10535000530D882321F00E9487291092530D10923B
:10536000510D0895CF93DF93FC01AB0181E0809351
:10537000510D80918C2B90918D2BA0918E2BB09103
:105380008F2B0196A11DB11D80938C2B90938D2B9B
:10539000A0938E2BB0938F2B862F8E5F87FF03C039
:1053A000CFEFDFEF08C024E53DE0C901BF010E9457
:1053B0008346C0E0D0E00E949F29CE01DF91CF91CB
:1053C00008958091422B882371F08091510D88239C
:1053D00021F40E94D828882321F481E08093530D82
:1053E00002C00E94872981E090E008958091510DCC
:1053F000882341F48091422B882321F40E9476294E
:105400000E94E12981E090E008950F931F9380911D
:10541000422B882311F000E003C00E94762901E0AE
:1054200081E06FE140E00E94362D863111F081313C
:1054300029F487E00E94002D182F09C086E06FE153
:1054400040E00E94362D93E0899F102D1124002307
:1054500011F00E94E129812F1F910F910895282FAB
:105460001B9908C0803108F02FE085E06FE040E034
:105470000E94492D089591E09093510D0E942F2A8A
:105480000E949F2908951F93182F0E94EF281093C0
:10549000500D88E06FE140E0212F0E94492D1F91BF
:1054A00008950E94432A86E00E94FE280895FF92F4
:1054B0000F931F93CF93DF93182F01E00093510DAB
:1054C000F090422B8091412B882321F02B98109251
:1054D000412B18C08091B62A8823A1F08AE160E8A8
:1054E00047E021E00E94492D8BE160E847E021E0A0
:1054F0000E94492D1092B62A0093B72A81EA90E0C3
:105500000197F1F70E94EF2889E10E94FE2886E0CA
:105510000E94BF36892B19F4C0E0D0E009C00E9478
:10552000F428C82F86E00E94BF3681500E942F2A9F
:105530002B9A2B981E5F84E59DE0612F0E94A52D7C
:105540000E94EF2882E060EE45E00E94362D182F81
:1055500086E00E94BF36892B19F08C2F0E942F2ADB
:10556000FF2011F00E9462298091422B882331F4A0
:1055700082E06FE140E023E00E94492D0E949F29D4
:10558000113011F410E015C0133099F48091842B80
:105590009091852BA091862BB091872B0196A11D10
:1055A000B11D8093842B9093852BA093862BB09371
:1055B000872B812F90E0DF91CF911F910F91FF906A
:1055C0000895CF93DF93EB010E94B2299C010097CD
:1055D00021F4CE010E94572A9C01C901DF91CF918D
:1055E000089588EA91E00E947E3181E080934F0D1A
:1055F00081E090E00895CF93DF93582FA92F209159
:10560000BD2A822F90E0FC01F695FE2FEE27F7953C
:10561000E795880F991FE80FF91FE254F54D408177
:10562000442321F147FF25C0822F90E0FC01F6952D
:10563000FE2FEE27F795E795880F991FE80FF91FC2
:10564000E254F54D108280917C2B90917D2BA0919E
:105650007E2BB0917F2B0196A11DB11D80937C2BD9
:1056600090937D2BA0937E2BB0937F2BC0E0D0E056
:10567000BEC0433018F5822F90E0FC01F695FE2F56
:10568000EE27F795E795880F991FE80FF91FE25469
:10569000F54D10828091782B9091792BA0917A2BE7
:1056A000B0917B2B0196A11DB11D8093782B909317
:1056B000792BA0937A2BB0937B2BD8CFC42FD0E03B
:1056C00022976C177D0718F5822F90E0FC01F69564
:1056D000FE2FEE27F795E795880F991FE80FF91F22
:1056E000E254F54D10828091742B9091752BA0910E
:1056F000762BB091772B0196A11DB11D8093742B51
:105700009093752BA093762BB093772BAFCF822FEE
:1057100090E09C013695322F222737952795880FE8
:10572000991F280F391F2154354D852F9A2FB90104
:1057300050E00E9483462091BD2A822F90E0FC0118
:10574000F695FE2FEE27F795E795880F991FE80F3E
:10575000F91FE25CF44D80818093B22A822F90E0A1
:10576000FC01F695FE2FEE27F795E795880F991F18
:10577000E80FF91FE254F54D10821092BD2A80E027
:1057800090E0FC01F695FE2FEE27F795E795880F40
:10579000991FE80FF91FE254F54D8081882311F01D
:1057A0000E94F12A87E00E94002D682F8093B32A7F
:1057B000772767FD709584E00E94B4366091B22A25
:1057C00083E070E00E94B4368091902B9091912BF1
:1057D000A091922BB091932B0196A11DB11D8093A6
:1057E000902B9093912BA093922BB093932BCE015F
:1057F000DF91CF910895CF93DF93EC018881998158
:10580000009721F081599440F9F405C081E994E0B2
:105810009983888302C0623811F081E018C0109229
:105820004F0D0E9401370E94703660E870E00E94C0
:10583000FB2A1816190654F70E946B36E091F50101
:10584000F091F6010995E2CF1982188283E0DF9189
:10585000CF910895AF92BF92CF92DF92EF92FF92D5
:105860000F931F93CF93DF93282F192F062FF72E17
:10587000EA0182E2622F0E941B2D83E2612F0E94C7
:105880001B2D80E2602F0E941B2D81E26F2D0E9454
:105890001B2D2097D1F18E010F5F1F4F8BE2688186
:1058A0000E941B2D68010894C11CD11C8AE26981E9
:1058B0000E941B2D56010894A11CB11C89E2F8011D
:1058C00061810E941B2D75010894E11CF11C88E286
:1058D000F60161810E941B2D87010F5F1F4F87E238
:1058E000F50161810E941B2D86E2F70161810E9412
:1058F0001B2D85E2F80161810E941B2D84E20F5F60
:105900001F4FF80161810E941B2DDF91CF911F91E4
:105910000F91FF90EF90DF90CF90BF90AF900895E0
:105920000F931F930DEF13E0C8010197F1F70E9449
:10593000E32C1092BE2A1092BD2A1092BC2A2998FC
:105940002B988DE090E00197F1F7299A82E06FE1C2
:1059500040E023E00E94492DC8010197F1F78DE155
:105960000E94002D8EE10E94002D8EE06FE00E94CB
:105970001B2D8CE260EF44E022E00E94492D8CE276
:105980006EE041E025E00E94492D8FE260E80E9430
:105990001B2D86E00E94002D682F8DE20E941B2D9A
:1059A00085E060E847E021E00E94492D88EA91E027
:1059B00060E070E00E9451310E94622981E090E035
:1059C0001F910F9108951092D60D1092D50D239A24
:1059D000219A84B1806B84B985B1806985B980E5ED
:1059E0008CBD81E08DBD83E480938100B59AEFE6A4
:1059F000F0E080818160808380818062808308956F
:105A0000DF93CF930F92CDB7DEB780689FB79983AE
:105A1000F8942C988EBD0DB407FEFDCF8EB51EBC3C
:105A20000DB407FEFDCF8EB52C9A99819FBF0F90C4
:105A3000CF91DF910895DF93CF930F92CDB7DEB76B
:105A4000806C9FB79983F8942C988EBD0DB407FE97
:105A5000FDCF8EB56EBD0DB407FEFDCF8EB52C9A71
:105A600089818FBF0F90CF91DF910895FF920F939F
:105A70001F93062FF42E0E94002D082310E002C071
:105A800015950795FA94E2F7802F1F910F91FF90DB
:105A90000895DF92EF92FF920F931F93DF93CF93BE
:105AA0000F92CDB7DEB7D82EF62EE42E022F0E942D
:105AB000002D898399818F2D80958923898310E01A
:105AC00002C0000F111FEA94E2F7F02269816F29EA
:105AD0008D2D0E941B2D0F90CF91DF911F910F9163
