:100000000C9419090C9438090C9438090C9438098B
:100010000C9438090C9438090C9438090C9438095C
:100020000C9438090C94E4590C9438090C94380950
:100030000C9406720C9438090C9438090C94EF71E6
:100040000C94456A0C9438090C9438090C943809BE
:100050000C94936A0C9438090C94876A0C943809B0
:100060000C9438090C9438090C9438090C9438090C
:100070000C94D16A0C9438090C94C56A0C94380914
:100080000C94CE830C9438090C943809C6A563638C
:10009000F8847C7CEE997777F68D7B7BFF0DF2F20E
:1000A000D6BD6B6BDEB16F6F9154C5C560503030FB
:1000B00002030101CEA96767567D2B2BE719FEFECF
:1000C000B562D7D74DE6ABABEC9A76768F45CACA08
:1000D0001F9D82828940C9C9FA877D7DEF15FAFA92
:1000E000B2EB59598EC94747FB0BF0F041ECADAD6F
:1000F000B367D4D45FFDA2A245EAAFAF23BF9C9CF7
:1001000053F7A4A4E49672729B5BC0C075C2B7B7E4
:10011000E11CFDFD3DAE93934C6A26266C5A3636A3
:100120007E413F3FF502F7F7834FCCCC685C343417
:1001300051F4A5A5D134E5E5F908F1F1E293717127
:10014000AB73D8D8625331312A3F1515080C04041B
:100150009552C7C7466523239D5EC3C33028181830
:1001600037A196960A0F05052FB59A9A0E0907072B
:10017000243612121B9B8080DF3DE2E2CD26EBEBA2
:100180004E6927277FCDB2B2EA9F7575121B090908
:100190001D9E838358742C2C342E1A1A362D1B1B4B
:1001A000DCB26E6EB4EE5A5A5BFBA0A0A4F65252BB
:1001B000764D3B3BB761D6D67DCEB3B3527B292972
:1001C000DD3EE3E35E712F2F13978484A6F553532E
:1001D000B968D1D100000000C12CEDED40602020B5
:1001E000E31FFCFC79C8B1B1B6ED5B5BD4BE6A6AB3
:1001F0008D46CBCB67D9BEBE724B393994DE4A4AA5
:1002000098D44C4CB0E85858854ACFCFBB6BD0D06F
:10021000C52AEFEF4FE5AAAAED16FBFB86C54343BF
:100220009AD74D4D66553333119485858ACF454510
:10023000E910F9F904060202FE817F7FA0F0505018
:1002400078443C3C25BA9F9F4BE3A8A8A2F35151A8
:100250005DFEA3A380C04040058A8F8F3FAD929280
:1002600021BC9D9D70483838F104F5F563DFBCBCB6
:1002700077C1B6B6AF75DADA4263212120301010AB
:10028000E51AFFFFFD0EF3F3BF6DD2D2814CCDCD49
:1002900018140C0C26351313C32FECECBEE15F5F72
:1002A00035A2979788CC44442E3917179357C4C466
:1002B00055F2A7A7FC827E7E7A473D3DC8AC6464B8
:1002C000BAE75D5D322B1919E6957373C0A06060C3
:1002D000199881819ED14F4FA37FDCDC4466222296
:1002E000547E2A2A3BAB90900B8388888CCA464662
:1002F000C729EEEE6BD3B8B8283C1414A779DEDE1C
:10030000BCE25E5E161D0B0BAD76DBDBDB3BE0E09B
:1003100064563232744E3A3A141E0A0A92DB494944
:100320000C0A0606486C2424B8E45C5C9F5DC2C2DB
:10033000BD6ED3D343EFACACC4A6626239A8919131
:1003400031A49595D337E4E4F28B7979D532E7E798
:100350008B43C8C86E593737DAB76D6D018C8D8DF8
:10036000B164D5D59CD24E4E49E0A9A9D8B46C6CE5
:10037000ACFA5656F307F4F4CF25EAEACAAF65653E
:10038000F48E7A7A47E9AEAE101808086FD5BABA7B
:10039000F08878784A6F25255C722E2E38241C1C34
:1003A00057F1A6A673C7B4B49751C6C6CB23E8E8E5
:1003B000A17CDDDDE89C74743E211F1F96DD4B4B54
:1003C00061DCBDBD0D868B8B0F858A8AE0907070D5
:1003D0007C423E3E71C4B5B5CCAA666690D848480A
:1003E00006050303F701F6F61C120E0EC2A36161A7
:1003F0006A5F3535AEF9575769D0B9B91791868616
:100400009958C1C13A271D1D27B99E9ED938E1E1EF
:10041000EB13F8F82BB3989822331111D2BB69690A
:10042000A970D9D907898E8E33A794942DB69B9B3A
:100430003C221E1E15928787C920E9E98749CECE46
:10044000AAFF555550782828A57ADFDF038F8C8CBA
:1004500059F8A1A1098089891A170D0D65DABFBF66
:10046000D731E6E684C64242D0B8686882C34141CB
:1004700029B099995A772D2D1E110F0F7BCBB0B053
:10048000A8FC54546DD6BBBB2C3A161663C6A563A4
:100490007CF8847C77EE99777BF68D7BF2FF0DF20A
:1004A0006BD6BD6B6FDEB16FC59154C530605030F7
:1004B0000102030167CEA9672B567D2BFEE719FECB
:1004C000D7B562D7AB4DE6AB76EC9A76CA8F45CA04
:1004D000821F9D82C98940C97DFA877DFAEF15FA8E
:1004E00059B2EB59478EC947F0FB0BF0AD41ECAD6B
:1004F000D4B367D4A25FFDA2AF45EAAF9C23BF9CF3
:10050000A453F7A472E49672C09B5BC0B775C2B7E0
:10051000FDE11CFD933DAE93264C6A26366C5A369F
:100520003F7E413FF7F502F7CC834FCC34685C3413
:10053000A551F4A5E5D134E5F1F908F171E2937123
:10054000D8AB73D831625331152A3F1504080C0417
:10055000C79552C723466523C39D5EC3183028182C
:100560009637A196050A0F059A2FB59A070E090727
:1005700012243612801B9B80E2DF3DE2EBCD26EB9E
:10058000274E6927B27FCDB275EA9F7509121B0904
:10059000831D9E832C58742C1A342E1A1B362D1B47
:1005A0006EDCB26E5AB4EE5AA05BFBA052A4F652B7
:1005B0003B764D3BD6B761D6B37DCEB329527B296E
:1005C000E3DD3EE32F5E712F8413978453A6F5532A
:1005D000D1B968D100000000EDC12CED20406020B1
:1005E000FCE31FFCB179C8B15BB6ED5B6AD4BE6AAF
:1005F000CB8D46CBBE67D9BE39724B394A94DE4AA1
:100600004C98D44C58B0E858CF854ACFD0BB6BD06B
:10061000EFC52AEFAA4FE5AAFBED16FB4386C543BB
:100620004D9AD74D3366553385119485458ACF450C
:10063000F9E910F9020406027FFE817F50A0F05014
:100640003C78443C9F25BA9FA84BE3A851A2F351A4
:10065000A35DFEA34080C0408F058A8F923FAD927C
:100660009D21BC9D38704838F5F104F5BC63DFBCB2
:10067000B677C1B6DAAF75DA2142632110203010A7
:10068000FFE51AFFF3FD0EF3D2BF6DD2CD814CCD45
:100690000C18140C13263513ECC32FEC5FBEE15F6E
:1006A0009735A2974488CC44172E3917C49357C462
:1006B000A755F2A77EFC827E3D7A473D64C8AC64B4
:1006C0005DBAE75D19322B1973E6957360C0A060BF
:1006D000811998814F9ED14FDCA37FDC2244662292
:1006E0002A547E2A903BAB90880B8388468CCA465E
:1006F000EEC729EEB86BD3B814283C14DEA779DE18
:100700005EBCE25E0B161D0BDBAD76DBE0DB3BE097
:10071000326456323A744E3A0A141E0A4992DB4940
:10072000060C0A0624486C245CB8E45CC29F5DC2D7
:10073000D3BD6ED3AC43EFAC62C4A6629139A8912D
:100740009531A495E4D337E479F28B79E7D532E794
:10075000C88B43C8376E59376DDAB76D8D018C8DF4
:10076000D5B164D54E9CD24EA949E0A96CD8B46CE1
:1007700056ACFA56F4F307F4EACF25EA65CAAF653A
:100780007AF48E7AAE47E9AE08101808BA6FD5BA77
:1007900078F08878254A6F252E5C722E1C38241C30
:1007A000A657F1A6B473C7B4C69751C6E8CB23E8E1
:1007B000DDA17CDD74E89C741F3E211F4B96DD4B50
:1007C000BD61DCBD8B0D868B8A0F858A70E09070D1
:1007D0003E7C423EB571C4B566CCAA664890D84806
:1007E00003060503F6F701F60E1C120E61C2A361A3
:1007F000356A5F3557AEF957B969D0B98617918612
:10080000C19958C11D3A271D9E27B99EE1D938E1EB
:10081000F8EB13F8982BB3981122331169D2BB6906
:10082000D9A970D98E07898E9433A7949B2DB69B36
:100830001E3C221E87159287E9C920E9CE8749CE42
:1008400055AAFF5528507828DFA57ADF8C038F8CB6
:10085000A159F8A1890980890D1A170DBF65DABF62
:10086000E6D731E64284C64268D0B8684182C341C7
:100870009929B0992D5A772D0F1E110FB07BCBB04F
:1008800054A8FC54BB6DD6BB162C3A166363C6A5A0
:100890007C7CF8847777EE997B7BF68DF2F2FF0D06
:1008A0006B6BD6BD6F6FDEB1C5C5915430306050F3
:1008B000010102036767CEA92B2B567DFEFEE719C7
:1008C000D7D7B562ABAB4DE67676EC9ACACA8F4500
:1008D00082821F9DC9C989407D7DFA87FAFAEF158A
:1008E0005959B2EB47478EC9F0F0FB0BADAD41EC67
:1008F000D4D4B367A2A25FFDAFAF45EA9C9C23BFEF
:10090000A4A453F77272E496C0C09B5BB7B775C2DC
:10091000FDFDE11C93933DAE26264C6A36366C5A9B
:100920003F3F7E41F7F7F502CCCC834F3434685C0F
:10093000A5A551F4E5E5D134F1F1F9087171E2931F
:10094000D8D8AB733131625315152A3F0404080C13
:10095000C7C7955223234665C3C39D5E1818302828
:10096000969637A105050A0F9A9A2FB507070E0923
:100970001212243680801B9BE2E2DF3DEBEBCD269A
:1009800027274E69B2B27FCD7575EA9F0909121B00
:1009900083831D9E2C2C58741A1A342E1B1B362D43
:1009A0006E6EDCB25A5AB4EEA0A05BFB5252A4F6B3
:1009B0003B3B764DD6D6B761B3B37DCE2929527B6A
:1009C000E3E3DD3E2F2F5E71848413975353A6F526
:1009D000D1D1B96800000000EDEDC12C20204060AD
:1009E000FCFCE31FB1B179C85B5BB6ED6A6AD4BEAB
:1009F000CBCB8D46BEBE67D93939724B4A4A94DE9D
:100A00004C4C98D45858B0E8CFCF854AD0D0BB6B67
:100A1000EFEFC52AAAAA4FE5FBFBED16434386C5B7
:100A20004D4D9AD7333366558585119445458ACF08
:100A3000F9F9E910020204067F7FFE815050A0F010
:100A40003C3C78449F9F25BAA8A84BE35151A2F3A0
:100A5000A3A35DFE404080C08F8F058A92923FAD78
:100A60009D9D21BC38387048F5F5F104BCBC63DFAE
:100A7000B6B677C1DADAAF752121426310102030A3
:100A8000FFFFE51AF3F3FD0ED2D2BF6DCDCD814C41
:100A90000C0C181413132635ECECC32F5F5FBEE16A
:100AA000979735A2444488CC17172E39C4C493575E
:100AB000A7A755F27E7EFC823D3D7A476464C8ACB0
:100AC0005D5DBAE71919322B7373E6956060C0A0BB
:100AD000818119984F4F9ED1DCDCA37F222244668E
:100AE0002A2A547E90903BAB88880B8346468CCA5A
:100AF000EEEEC729B8B86BD31414283CDEDEA77914
:100B00005E5EBCE20B0B161DDBDBAD76E0E0DB3B93
:100B1000323264563A3A744E0A0A141E494992DB3C
:100B200006060C0A2424486C5C5CB8E4C2C29F5DD3
:100B3000D3D3BD6EACAC43EF6262C4A6919139A829
:100B4000959531A4E4E4D3377979F28BE7E7D53290
:100B5000C8C88B4337376E596D6DDAB78D8D018CF0
:100B6000D5D5B1644E4E9CD2A9A949E06C6CD8B4DD
:100B70005656ACFAF4F4F307EAEACF256565CAAF36
:100B80007A7AF48EAEAE47E908081018BABA6FD573
:100B90007878F08825254A6F2E2E5C721C1C38242C
:100BA000A6A657F1B4B473C7C6C69751E8E8CB23DD
:100BB000DDDDA17C7474E89C1F1F3E214B4B96DD4C
:100BC000BDBD61DC8B8B0D868A8A0F857070E090CD
:100BD0003E3E7C42B5B571C46666CCAA484890D802
:100BE00003030605F6F6F7010E0E1C126161C2A39F
:100BF00035356A5F5757AEF9B9B969D0868617910E
:100C0000C1C199581D1D3A279E9E27B9E1E1D938E7
:100C1000F8F8EB1398982BB3111122336969D2BB02
:100C2000D9D9A9708E8E0789949433A79B9B2DB632
:100C30001E1E3C2287871592E9E9C920CECE87493E
:100C40005555AAFF28285078DFDFA57A8C8C038FB2
:100C5000A1A159F8898909800D0D1A17BFBF65DA5E
:100C6000E6E6D731424284C66868D0B8414182C3C3
:100C7000999929B02D2D5A770F0F1E11B0B07BCB4B
:100C80005454A8FCBBBB6DD616162C3AA56363C69C
:100C9000847C7CF8997777EE8D7B7BF60DF2F2FF02
:100CA000BD6B6BD6B16F6FDE54C5C59150303060EF
:100CB00003010102A96767CE7D2B2B5619FEFEE7C3
:100CC00062D7D7B5E6ABAB4D9A7676EC45CACA8FFC
:100CD0009D82821F40C9C989877D7DFA15FAFAEF86
:100CE000EB5959B2C947478E0BF0F0FBECADAD4163
:100CF00067D4D4B3FDA2A25FEAAFAF45BF9C9C23EB
:100D0000F7A4A453967272E45BC0C09BC2B7B775D8
:100D10001CFDFDE1AE93933D6A26264C5A36366C97
:100D2000413F3F7E02F7F7F54FCCCC835C3434680B
:100D3000F4A5A55134E5E5D108F1F1F9937171E21B
:100D400073D8D8AB533131623F15152A0C0404080F
:100D500052C7C795652323465EC3C39D2818183024
:100D6000A19696370F05050AB59A9A2F0907070E1F
:100D7000361212249B80801B3DE2E2DF26EBEBCD96
:100D80006927274ECDB2B27F9F7575EA1B090912FC
:100D90009E83831D742C2C582E1A1A342D1B1B363F
:100DA000B26E6EDCEE5A5AB4FBA0A05BF65252A4AF
:100DB0004D3B3B7661D6D6B7CEB3B37D7B29295266
:100DC0003EE3E3DD712F2F5E97848413F55353A622
:100DD00068D1D1B9000000002CEDEDC160202040A9
:100DE0001FFCFCE3C8B1B179ED5B5BB6BE6A6AD4A7
:100DF00046CBCB8DD9BEBE674B393972DE4A4A9499
:100E0000D44C4C98E85858B04ACFCF856BD0D0BB63
:100E10002AEFEFC5E5AAAA4F16FBFBEDC5434386B3
:100E2000D74D4D9A5533336694858511CF45458A04
:100E300010F9F9E906020204817F7FFEF05050A00C
:100E4000443C3C78BA9F9F25E3A8A84BF35151A29C
:100E5000FEA3A35DC04040808A8F8F05AD92923F74
:100E6000BC9D9D214838387004F5F5F1DFBCBC63AA
:100E7000C1B6B67775DADAAF63212142301010209F
:100E80001AFFFFE50EF3F3FD6DD2D2BF4CCDCD813D
:100E9000140C0C18351313262FECECC3E15F5FBE66
:100EA000A2979735CC4444883917172E57C4C4935A
:100EB000F2A7A755827E7EFC473D3D7AAC6464C8AC
:100EC000E75D5DBA2B191932957373E6A06060C0B7
:100ED00098818119D14F4F9E7FDCDCA3662222448A
:100EE0007E2A2A54AB90903B8388880BCA46468C56
:100EF00029EEEEC7D3B8B86B3C14142879DEDEA710
:100F0000E25E5EBC1D0B0B1676DBDBAD3BE0E0DB8F
:100F1000563232644E3A3A741E0A0A14DB49499238
:100F20000A06060C6C242448E45C5CB85DC2C29FCF
:100F30006ED3D3BDEFACAC43A66262C4A891913925
:100F4000A495953137E4E4D38B7979F232E7E7D58C
:100F500043C8C88B5937376EB76D6DDA8C8D8D01EC
:100F600064D5D5B1D24E4E9CE0A9A949B46C6CD8D9
:100F7000FA5656AC07F4F4F325EAEACFAF6565CA32
:100F80008E7A7AF4E9AEAE4718080810D5BABA6F6F
:100F9000887878F06F25254A722E2E5C241C1C3828
:100FA000F1A6A657C7B4B47351C6C69723E8E8CBD9
:100FB0007CDDDDA19C7474E8211F1F3EDD4B4B9648
:100FC000DCBDBD61868B8B0D858A8A0F907070E0C9
:100FD000423E3E7CC4B5B571AA6666CCD8484890FE
:100FE0000503030601F6F6F7120E0E1CA36161C29B
:100FF0005F35356AF95757AED0B9B969918686170A
:1010000058C1C199271D1D3AB99E9E2738E1E1D9E3
:1010100013F8F8EBB398982B33111122BB6969D2FE
:1010200070D9D9A9898E8E07A7949433B69B9B2D2E
:10103000221E1E3C9287871520E9E9C949CECE873A
:10104000FF5555AA782828507ADFDFA58F8C8C03AE
:10105000F8A1A15980898909170D0D1ADABFBF655A
:1010600031E6E6D7C6424284B86868D0C3414182BF
:10107000B0999929772D2D5A110F0F1ECBB0B07B47
:10108000FC5454A8D6BBBB6D3A16162C6E74706413
:101090002070726F6365737320737461727465641A
:1010A0000A0008000000000000000000000000002E
:1010B0000000000000000000000000000000000030
:1010C0000000000000000000000000000000000020
:1010D0000000257325730A004F6E6C696E650A0067
:1010E0000A002C20636865636B207261746520259B
:1010F0007520487A0025732025732C206368616E63
:101100006E656C202575000A2A2A2A2A2A2A2A4274
:101110006F6F74696E672025732A2A2A2A2A2A2A61
:101120000A004641494C3A2D343720746F74616C83
:101130005F726561643D25640A004641494C3A2D61
:10114000343620723D25640A004641494C3A2D341C
:10115000352C20746F74616C5F726561643D256429
:1011600020723D25640A00436F756E743A25642C25
:1011700020723D25640A004641494C3A2D34312005
:10118000746F74616C5F726561643D25640A00462A
:1011900041494C3A2D343020723D25640A004641C5
:1011A000494C3A2D33392C20746F74616C5F726531
:1011B00061643D256420723D25640A00436F756EAD
:1011C000743A25642C20723D25640A004641494C3E
:1011D0003A2D333520746F74616C5F726561643DC4
:1011E00025640A004641494C3A2D333520723D258D
:1011F000640A00436F756E743A25642C20723D2595
:10120000640A006275665B25645D20213D202564CB
:101210000A0072203D2025640A00723D25642E20BC
:101220006275665B725D3D25640A00723D25640A45
:10123000000011241FBECFEFD0E4DEBFCDBF15E00C
:10124000A0E0B1E0E8E7F1E201E00BBF02C00790E7
:101250000D92AC36B107D9F713E3ACE6B5E001C0A7
:101260001D92A336B107E1F70E94D55C0C94BA90A9
:101270000C940000CF93DF93EC0188819981009753
:1012800019F0859791F50BC08BEB91E061E00E941E
:10129000051B85E290E09983888381E029C08091D5
:1012A000C722681749F48091C82280FFF2CF50937B
:1012B000750540937405EDCF683859F78CE695E0D5
:1012C0000E94A735892B29F38091740590917505AB
:1012D00060E071E041E050E00E94C20B8CE695E0D6
:1012E0006DE770E00E940E37D4CF1982188283E038
:1012F000DF91CF910895DC01233069F1253071F140
:101300002130C1F550E0FC01E40FF51F80818330EE
:1013100059F5FD01E40FF51F8181833029F5FD01A9
:10132000E40FF51F82A1992787FD90954D5D5F4FD2
:10133000480F591FFD01E40FF51F80818823B1F488
:10134000FA013196EA0FFB1F8081883A79F4818196
:10135000882381F00BC0672B69F00AC0A40FB11D70
:101360008C91813029F406C08FE2089588E20895B7
:1013700082E3089581E00895CF93DF93EC01243058
:1013800009F470C0253009F482C0223009F08BC006
:1013900050E0FC01E40FF51F8081833009F07DC02F
:1013A000FE01E40FF51F8181833009F076C0FE0154
:1013B000E40FF51F22A1332727FD30954D5D5F4FC8
:1013C000240F351F43525040DE01A20FB31F119668
:1013D0008C911197E82FFF27E7FDF0958C919927C5
:1013E00087FD9095982F8827E80FF91F2E5F3F4FB4
:1013F000CB01821B930B841B950B8E179F0708F460
:101400004EC0E0FF23C04BC012968C9112978823E8
:10141000C9F413968C911397883AA1F42E0F3F1FAD
:10142000FE01E20FF31F8081A82FBB27A7FDB09517
:1014300061507040641B750B621B730B6A177B074E
:1014400070F42DC032972E5F3F4F1296E230F105B7
:10145000D8F627C081813196882329F111971097FA
:10146000C9F71FC0FC01E40FF11D2181332727FDBF
:1014700030958081992787FD9095982F8827280F90
:10148000391F625070402617370749F40CC0C40F4B
:10149000D11D8881813019F406C08FE205C082E336
:1014A00003C088E201C081E0DF91CF9108950E94DE
:1014B000E23880918D0590918E050E943343089506
:1014C0000F931F93082F162F80917705882329F0FB
:1014D00080917A05815080937A0510927B05109255
:1014E0007C0510927E0510927D0510927F0510926A
:1014F0008005109281051092820588EF95E00E9488
:10150000ED2180918A01882321F482E197E00E94F5
:101510000E3481E080938A01103541F086E097E037
:1015200067E070E00E944934892B39F483E891E048
:1015300067E070E00E94570A18C080910A079091F6
:101540000B079093940580939305602F412F0E9481
:10155000A01C809193059091940567E070E00E9433
:10156000570A86E097E00E940E3481E0809376056A
:101570001F910F910895FC018281938190938E05B4
:1015800080938D0581E060E00E94600A08950F93CA
:101590001F93CF93DF93E8E9F1E0EF01099000207A
:1015A000E9F72197CE1BDF0B4091A0065091A106D1
:1015B0000D2FFA01D0831C2FC18390E09A012C0FCC
:1015C0003D1F0CC0FA01EA0FFB1F1282F901EA0F5E
:1015D000FB1FA60FB71F8C9184839F5FA92FB0E0DC
:1015E000AC17BD0778F3F90102831383DF91CF9124
:1015F0001F910F910895CF92DF92EF92FF920F9378
:101600001F93DF93CF93CDB7DEB7C054D0400FB652
:10161000F894DEBF0FBECDBFDE011196E8EBF5E01A
:1016200080E201900D928150E1F7DE019196E8E9A8
:10163000F5E080E201900D928150E1F7E8E9F1E0F8
:1016400001900020E9F76091A0067091A106E7598A
:10165000F140EE0FFF1F82EA96E0AF0120E131E09A
:101660008E010F5F1F4FF0E4EF2EF12CE0E3CE2E42
:10167000D12C0E94B81CC05CDF4F0FB6F894DEBFBF
:101680000FBECDBFCF91DF911F910F91FF90EF90D3
:10169000DF90CF900895AF92BF92CF92DF92EF92FA
:1016A000FF920F931F93DF93CF93CDB7DEB7C8564A
:1016B000D0400FB6F894DEBF0FBECDBFDE019996C5
:1016C000E8E9F5E080E201900D928150E1F7DE015A
:1016D000A75BBF4FE8EBF5E080E201900D928150EF
:1016E000E1F75E010894A11CB11CC50162EA76E035
:1016F00040E350E02EE131E08E01075D1F4FE0E452
:10170000EE2EF12CB8E2CB2ED12C0E94B81CA2ED0B
:10171000B6E0F50180E101900D928150E1F7A6EE6F
:10172000B6E0FE01719680E101900D928150E1F7E3
:1017300089A19AA1ABA1BCA18093E2069093E30694
:10174000A093E406B093E5068DA19EA1AFA1B8A534
:101750008093F6069093F706A093F806B093F906E7
:10176000C859DF4F0FB6F894DEBF0FBECDBFCF9183
:10177000DF911F910F91FF90EF90DF90CF90BF907E
:10178000AF9008952F923F924F925F926F927F9207
:101790008F929F92AF92BF92CF92DF92EF92FF9281
:1017A0000F931F93DF93CF93CDB7DEB76E970FB62E
:1017B000F894DEBF0FBECDBFFC012B015D8F4C8FB7
:1017C00080919705873009F077C08281938190934B
:1017D0008E0580938D0580917705882359F180913E
:1017E000F6069091F706A091F806B091F9068B8362
:1017F0009C83AD83BE838091FA068E8F2090FB067A
:101800003090FC066090FD067090FE068090FF060A
:1018100090900007109101070FE0A02EB12CAC0EA4
:10182000BD1EB7E0CB2ED12CCC0EDD1EA8E3EA2ED8
:10183000F12C09C08091E2069091E306A091E406A4
:10184000B091E506D4CF2E8D322D432D562D672D28
:10185000782D892D912F0E2D0E942F86F501219331
:101860005F01F60121936F0188EF9FEFE80EF91EEB
:1018700098EFE9169FEFF90631F787E18F8B83E048
:1018800089838A83FFE0EF2EF12CEC0EFD1E898107
:101890009A81998F888F8C8D9D8D9B8F8A8FBC01AB
:1018A0006B5E7F4F86E097E00E944934892B39F4C4
:1018B00082E060E50E94600A2FEF3FEF1CC1C090FC
:1018C0000A07D0900B0780917705AE014D5F5F4FFF
:1018D0000C8D1D8D9601235F3F4F882321F0C90198
:1018E00066EE76E003C0C90162ED76E092010E94E7
:1018F000852D892B29F486E097E00E940E34DCCFF9
:1019000087E1F601808383E0818382838C8D9D8DC6
:10191000409693838C8D805F84832091FA0630916A
:10192000FB064091FC065091FD066091FE06709109
:10193000FF06809100079091010708E30E942F861F
:10194000F60125832091FA063091FB064091FC06B2
:101950005091FD066091FE067091FF068091000790
:101960009091010700E30E942F86F60126832091C3
:10197000FA063091FB064091FC065091FD066091FD
:10198000FE067091FF06809100079091010708E222
:101990000E942F86F60127832091FA063091FB06DC
:1019A0004091FC065091FD066091FE067091FF0685
:1019B000809100079091010700E20E942F86F601B6
:1019C00020872091FA063091FB064091FC06509149
:1019D000FD066091FE067091FF06809100079091D0
:1019E000010708E10E942F86F60121872091FA065F
:1019F0003091FB064091FC065091FD066091FE0679
:101A00007091FF06809100079091010700E10E940C
:101A10002F86F60122872091FA063091FB0640912D
:101A2000FC065091FD066091FE067091FF068091C4
:101A300000079091010708E00E942F86F601238796
:101A40008091FA0684878091FA062091FB063091F6
:101A5000FC064091FD066091FE06E091FF06A09114
:101A6000000710910107B82FBF5F91E0B81708F089
:101A700090E0F92FF20F81E0F21708F080E0782F64
:101A8000730F81E0731708F080E0582F540F81E046
:101A9000541708F080E0382F360F81E0361708F031
:101AA00080E0282F2E0F81E02E1708F080E0982F7D
:101AB0009A0F81E09A1708F080E0810FB093FA0640
:101AC000F093FB067093FC065093FD063093FE06E0
:101AD0002093FF0690930007809301076C8D7D8D06
:101AE0006B5E7F4FC6010E94570A86E097E00E9416
:101AF0000E3421E030E0C9016E960FB6F894DEBFD7
:101B00000FBECDBFCF91DF911F910F91FF90EF904E
:101B1000DF90CF90BF90AF909F908F907F906F900D
:101B20005F904F903F902F9008958F929F92AF9229
:101B3000BF92CF92DF92EF92FF920F931F93DF93AA
:101B4000CF93CDB7DEB72C970FB6F894DEBF0FBE9C
:101B5000CDBFFC018081843109F050C08181882390
:101B600009F04CC08281882309F048C083818C3001
:101B700009F044C0809177055E010894A11CB11C56
:101B800014E0812E912C8E0E9F1E8823C1F0C5017A
:101B900062EA76E040E350E02CE231E008ED15E047
:101BA000B0E2EB2EF12CACE0CA2ED12C0E94B81C76
:101BB000C401B5014CE050E00E94E38C17C0C501A0
:101BC00062EA76E040E350E02CE331E008ED15E016
:101BD000F0E2EF2EF12CECE0CE2ED12C0E94B81CBE
:101BE000C401B5014CE050E00E94E38C9C0190E000
:101BF000232B09F091E081E0982701C090E0892F24
:101C00002C960FB6F894DEBF0FBECDBFCF91DF91FB
:101C10001F910F91FF90EF90DF90CF90BF90AF900A
:101C20009F908F9008958F929F92AF92BF92CF9284
:101C3000DF92EF92FF920F931F93DF93CF93CDB775
:101C4000DEB7CE5DD0400FB6F894DEBF0FBECDBF7D
:101C50007C015B018A01D09097058091770597E020
:101C6000D91609F09AC0882349F08091E206909134
:101C7000E306A091E406B091E50608C08091F6065F
:101C80009091F706A091F806B091F9068E879F878C
:101C9000A88BB98B9701200F311FDE015296F901F5
:101CA00088E001900D928150E1F7DE015A96F9012A
:101CB00088E001900D928150E1F787E18AA383E0EB
:101CC00089838A8389819A819CA38BA3A0EFCA2EE2
:101CD000AFEFDA2ECA0CDB1C9C2C8D2CCB82DC8265
:101CE0008B819C819EA38DA380918A01882321F4FE
:101CF00082E197E00E940E3410928A0182E197E01F
:101D0000692D782D0E944934892B09F45AC46091B9
:101D10001607709117077093C6226093C5228091B1
:101D20007705AE01425F5F4FFE017A969801285F0A
:101D30003F4F8501085010408823A9F02E0D3F1D0C
:101D4000CB0162ED76E07F010E94B52F892B89F4EB
:101D500082E197E00E940E3482E064E10E94600A12
:101D600020E030E022C62E0D3F1DCB0166EE76E06E
:101D7000EACFD092C422C092C32282E08093C822CC
:101D800080919105909192056091C72240E050E0CA
:101D90000E94883321E030E008C6882309F4B7C3E5
:101DA000C7012D2D0E94BC09982EA2E0DA1689F4F5
:101DB000B1E08B1771F40E5F1F4FA8EBB5E0F70190
:101DC000E00FF11F0250104080E201900D9281500F
:101DD000E1F780919705843039F581E0981609F094
:101DE000A3C0F701E00FF11F2181332727FD3095B4
:101DF0008081992787FD9095982F8827280F391F74
:101E000030938C0120938B010E5F1F4FA701400F71
:101E1000511F025010408091960190919701BA0194
:101E2000A9010E94AD8C04C091E0991609F07CC014
:101E300080919705863009F0CDC58091E20690919A
:101E4000E306A091E406B091E5068E879F87A88BF4
:101E5000B98B9701200F311FDE015296F90188E0FE
:101E600001900D928150E1F7DE015A96F90188E068
:101E700001900D928150E1F786E18AA383E0898386
:101E80008A8389819A819CA38BA380E190E09C83C3
:101E90008B839EA38DA3B5016051704086E097E0CF
:101EA0000E944934892B09F48CC3C0900A07D09052
:101EB0000B07085F1F4FE00EF11EA8EFBFEFAA0E41
:101EC000BB1EC60162ED76E0AE01425F5F4F970137
:101ED0008501EAE1EE2EF12CEC0EFD1E0E94B52FDD
:101EE000892B09F48EC3DE01D796E8EFF5E088EA86
:101EF00001900D928150E1F7CE01C79668ED75E033
:101F00000E940E22C6010E94950D813009F081C306
:101F100086E097E00E940E3488EF95E0B60140E13C
:101F200050E00E94B92256C582E0692D17CF86E0A5
:101F300097E068E370E00E944934892B09F466C297
:101F400080910A0790910B079093940580939305D5
:101F50000E940A1EE0919305F0919405A8E9B5E06E
:101F60003B9680E201900D928150E1F760919305DC
:101F7000709194056B5F7F4F88EF95E04AE250E0E7
:101F80000E94B92260919305709194056C5C7F4F1B
:101F900088EF95E044E050E00E94B92284E080930D
:101FA0009705809193059091940568E370E00E94F5
:101FB000E23886E097E00E940E34A3C20E94F769DF
:101FC00090938B0580938A058CE491E061E070E04A
:101FD0000E946E616C0197FD1AC1A0909601B090AD
:101FE000970160E070E040E050E00E94FD5C8E01EF
:101FF0000B5F1F4FC601B80141E050E00E94E15E57
:10200000FF24F394E12E12C0882309F400C1C60115
:102010006F2D70E040E050E00E94FD5CC601602F33
:102020007E2D41E050E00E94E15EF3948D818C337F
:1020300059F7C6016F2D70E040E050E00E94FD5C52
:10204000C601602F7E2D44E050E00E94E15E802FAB
:102050009E2D68E571E00E94DA8C009731F71F2D04
:102060001C5FC601612F70E040E050E00E94FD5C03
:10207000C601602F7E2D41E050E00E94E15E25E028
:10208000E22EF12CEC0EFD1E11C0882309F4CDC008
:102090001F5FC601612F70E040E050E00E94FD5CD0
:1020A000C601B70141E050E00E94E15E8D818C33B2
:1020B00061F71F5FC601612F70E040E050E00E94B1
:1020C000FD5CC601B70144E050E00E94E15EC7013B
:1020D0006DE571E00E94DA8C009741F7135FC6014D
:1020E000612F70E040E050E00E94FD5CC601B70146
:1020F00041E050E00E94E15E00E015C0F501E00F14
:10210000F11D8081981791F61F5F0F5FC601612F47
:1021100070E040E050E00E94FD5CC601B70141E084
:1021200050E00E94E15E9D819C3341F795E0E92EED
:10213000F12CEC0EFD1E1F5FC601612F70E040E028
:1021400050E00E94FD5CC601B70141E050E00E94F2
:10215000E15E8D818C3379F71F5FC601612F70E0DE
:1021600040E050E00E94FD5CC601B70144E050E051
:102170000E94E15EC70162E671E00E94DA8C00977E
:10218000D1F61C5FA12EBB24C601B50140E050E092
:102190000E94FD5CC601B70141E050E00E94E15E93
:1021A00085E0E82EF12CEC0EFD1E0EC01F5FC6016F
:1021B000612F70E040E050E00E94FD5CC601B70175
:1021C00041E050E00E94E15E8D818C3379F7E12E91
:1021D000FF24EA18FB088CE097E0B7010E9449341D
:1021E000892B09F419C40091100710911107C60139
:1021F000B50140E050E00E94FD5CC601B801A701B6
:102200000E94E15EBFEFEB16BFEFFB0659F48CE0D6
:1022100097E061E070E00E94493408E9E02E01E0B7
:10222000F02E10C0E114F10419F482E063E7F0C06D
:102230008EEFE8168FEFF80609F4E8C0E09010077B
:10224000F09011070E94F76900D000D000D0EDB7E0
:10225000FEB731968E01075F1F4FADB7BEB712961E
:102260001C930E93119727E631E03383228320914C
:102270008A0530918B05821B930B958384830E9482
:10228000338D8DB79EB706960FB6F8949EBF0FBEDE
:102290008DBFC8010E941C5AF70101900020E9F788
:1022A000EE19FF093196EE0FFF1F86E097E0BF01A0
:1022B0000E944934892B09F4A9C080910A079091A2
:1022C0000B079093A1068093A006B7010E94C70A4E
:1022D0000E94FB0A8CE097E00E940E3486E097E0B3
:1022E0000E940E3485E003C00E944B0B86E0809371
:1022F000970507C186E097E06BE270E00E944934E1
:10230000892B09F483C080910A0790910B07909361
:1023100094058093930560E070E00E94E31B88EFD2
:1023200095E068ED75E00E940E2284E18FA318A667
:1023300019A68CE08AA7CE018B9662EA76E040E38C
:1023400050E02CE331E008ED15E0B0E2EB2EF12C8B
:10235000ACE0CA2ED12C0E94B81C1092FA06109242
:10236000FB061092FC061092FD061092FE061092DB
:10237000FF0610920007109201078091F6069091D7
:10238000F706A091F806B091F9068E879F87A88B73
:10239000B98BDE015296EAEFF6E088E001900D92EB
:1023A0008150E1F7DE015A96EAEFF6E088E001900D
:1023B0000D928150E1F786E18AA383E089838A83C5
:1023C00089819A819CA38BA380E190E09C838B837D
:1023D0009EA38DA38091930590919405439666EEFC
:1023E00076E0AE01425F5F4F9E01295D3F4F00E105
:1023F00010E0FAE1EF2EF12CEC0EFD1E0E94852D6F
:10240000892B49F486E097E00E940E3482E060E573
:102410000E94600A76C0E090FA06F090FB060091F8
:10242000FC061091FD062091FE063091FF064091BA
:10243000000750910107809193059091940566E003
:1024400070E0EAE6CE2EE1E0DE2E0E94F91B81E08C
:102450008093780580919305909194056BE270E0EC
:102460000E94570A86E097E00E940E348091FA0697
:102470002091FB063091FC064091FD066091FE061E
:10248000E091FF06A091000710910107B82FBF5FF0
:1024900091E0B81708F090E0F92FF20F81E0F21701
:1024A00008F080E0782F730F81E0731708F080E068
:1024B000582F540F81E0541708F080E0382F360F62
:1024C00081E0361708F080E0282F2E0F81E02E17CC
:1024D00008F080E0982F9A0F81E09A1708F080E0CA
:1024E000810FB093FA06F093FB067093FC065093AD
:1024F000FD063093FE062093FF069093000780931D
:10250000010790E0A1E09A1609F04AC24AC2C70149
:102510002D2D0E947B09982EB1E0DB1691F48B17CC
:1025200009F002CD0E5F1F4FA8E9B5E0F701E00FFB
:10253000F11F0250104080E201900D928150E1F7AE
:1025400004C081E0981609F0EFCC809197058630A1
:1025500009F052C28091F6069091F706A091F80614
:10256000B091F9068E879F87A88BB98B9701200FB2
:10257000311FDE015296F90188E001900D928150E1
:10258000E1F7DE015A96F90188E001900D92815041
:10259000E1F786E18AA383E089838A8389819A812E
:1025A0009CA38BA380E190E09C838B839EA38DA34F
:1025B000B5016051704086E097E00E944934892B54
:1025C00019F482E060E5CACBC0900A07D0900B07EF
:1025D000085F1F4FE00EF11EA8EFBFEFAA0EBB1E53
:1025E000C60166EE76E0AE01425F5F4F970185015E
:1025F000BAE1EB2EF12CEC0EFD1E0E94B52F892BBB
:1026000019F486E097E0A6CBC6010E94950D8130B3
:1026100049F082E068E20E94600A86E097E00E944A
:102620000E349ECB86E097E00E940E34E5C108E9A7
:1026300011E0F80101900020E9F7E759F140EE0FB1
:10264000FF1F86E097E0BF010E944934892B09F4FF
:10265000DAC080910A0790910B079093A1068093AE
:10266000A006B8010E94C70A0E94FB0A86E097E014
:102670000E940E3483E08FC160918B0170918C01B8
:102680006A5C7F4F86E097E00E944934892B09F409
:10269000BAC080910A0790910B079093940580939C
:1026A0009305609196017091970140918B01509133
:1026B0008C010E948D1B60919305709194056B5F56
:1026C0007F4F40918B0150918C014A5F5F4F88EFA3
:1026D00095E00E94B92260918B0170918C01655F39
:1026E0007F4F80919305909194050E94E31BDE013A
:1026F000D796E8EFF5E088EA01900D928150E1F776
:1027000088EF95E068ED75E00E940E2284E18FA3CA
:1027100018A619A68CE08AA7CE018B9662EA76E00D
:1027200040E350E02CE231E008ED15E0E0E2EE2E6F
:10273000F12CBCE0CB2ED12C0E94B81C0E944B0B7C
:102740001092FA061092FB061092FC061092FD06FB
:102750001092FE061092FF061092000710920107D9
:102760008091E2069091E306A091E406B091E5061F
:102770008E879F87A88BB98BDE015296EAEFF6E031
:1027800088E001900D928150E1F7DE015A96EAEF60
:10279000F6E088E001900D928150E1F786E18AA38E
:1027A00083E089838A8389819A819CA38BA380E1BA
:1027B00090E09C838B839EA38DA320918B0130910D
:1027C0008C01225E3F4F8091930590919405A7E282
:1027D000CA2ED12CCC0EDD1E820F931F62ED76E047
:1027E000AE01425F5F4F960100E110E0FAE1EF2E8B
:1027F000F12CEC0EFD1E0E94852D892B49F486E0FC
:1028000097E00E940E3482E060E50E94600AC5C035
:102810008E01095C1F4FC801B60140E150E00E94E3
:10282000B922C80168ED75E00E940E2260918B010B
:1028300070918C016F5E7F4FE090FA06F090FB067E
:102840000091FC061091FD062091FE063091FF06D6
:102850004091000750910107809193059091940554
:10286000EAE6CE2EE1E0DE2E0E94F91B60918B019C
:1028700070918C016A5C7F4F8091930590919405D3
:102880000E94570A86E097E00E940E348091FA0673
:102890002091FB063091FC064091FD066091FE06FA
:1028A000E091FF06A091000710910107B82FBF5FCC
:1028B00091E0B81708F090E0F92FF20F81E0F217DD
:1028C00008F080E0782F730F81E0731708F080E044
:1028D000582F540F81E0541708F080E0382F360F3E
:1028E00081E0361708F080E0282F2E0F81E02E17A8
:1028F00008F080E0982F9A0F81E09A1708F080E0A6
:10290000810FB093FA06F093FB067093FC06509388
:10291000FD063093FE062093FF06909300078093F8
:10292000010785E038C086E036C011E010937905D4
:10293000E0910407F091050782EE96E09583848389
:1029400086EF96E09783868382ED96E0918380837D
:1029500086EE96E093838283A0910207B0910307ED
:102960001196FC93EE9380918D0590918E051396B0
:102970009C938E9312970E942D32682F8093C722CA
:102980001093C822409102075091030780E090E025
:102990000E94883387E08093970590E0B1E09B1216
:1029A00091E081E09827292F30E0C901C252DF4F22
:1029B0000FB6F894DEBF0FBECDBFCF91DF911F9150
:1029C0000F91FF90EF90DF90CF90BF90AF909F90CE
:1029D0008F90089580919705843009F4EFCA85306F
:1029E00020F4823009F08DCDA2CA853009F47CCC68
:1029F000863009F086CD7ECC80919705833009F42E
:102A00003BCE843018F4813041F611CE853009F484
:102A10008ACF863011F689CF0EEFE02E0FEFF02E21
:102A200007CC7F928F929F92AF92BF92CF92DF920C
:102A3000EF92FF920F931F93CF93DF935C014B01B3
:102A400080918505882351F110928505F5018181DA
:102A5000882319F481E060E035C2809177058823EE
:102A600029F080917A05815080937A0510927B0538
:102A700010927C0510927E0510927D0510927F05C4
:102A800010928005109281051092820588EF95E0E2
:102A90000E94ED2181E0809376056EC290919705AA
:102AA000892F8650823058F4C50140E050E00E94E2
:102AB000130E20E030E0019709F063C260C2953048
:102AC00031F088EF95E0B501A4010E94B922809110
:102AD0007C05813009F478C0813008F459C1823016
:102AE00009F04DC2E0907F05F090800500918105CE
:102AF00010918205C401AA2797FDA095BA2F8E0DCB
:102B00009F1DA01FB11F2091860530918705409120
:102B100088055091890582179307A407B507D8F156
:102B20006E2D10E009C0C60FD11DF501E10FF11D9A
:102B3000808188836F5F1F5F2091860530918705B4
:102B40004091880550918905862F90E0A0E0B0E083
:102B5000C0919505D091960582179307A407B507F4
:102B600010F3CE01B90140E050E00E94130E01972E
:102B700009F002C28EE197E00E940E3410927B05AC
:102B8000812F90E0881599050CF0F9C1881A990AEF
:102B90008A0D9B1D33C19E2D20E00CC0E091950550
:102BA000F0919605E90FF11DAA0DBB1D8C91808354
:102BB0009F5F2F5FA22FB0E0A815B9057CF3892F86
:102BC00090E0A0E0B0E04BC19401442737FD409570
:102BD000542F80917F0590918005A0918105B0913F
:102BE0008205820F931FA41FB51F0497A105B1058D
:102BF00010F0772445C060E011C0E0919505F09198
:102C00009605EA0FFB1F80917F0590918005E80FE4
:102C1000F91FAA0DBB1D8C9180836F5FA62FB0E0BA
:102C2000A815B90554F380917F0590918005A09176
:102C30008105B0918205820F931FA41FB51F0FC19C
:102C4000E0919505F0919605EC0FFD1FE80FF91F37
:102C5000CA0DDB1D8881808380917F05909180055E
:102C6000A0918105B09182050196A11DB11D8093AF
:102C70007F0590938005A0938105B093820573949E
:102C800080917F0590918005A0918105B09182058A
:102C9000C72DD0E084309105A105B10588F2F5017A
:102CA000838180938605828180938A0581818093C8
:102CB0008E058EE197E00E940E3484010C1B1D0BE3
:102CC0006801EE24D7FCE094FE2C2091860530911B
:102CD00087054091880550918905C216D306E40600
:102CE000F506A8F58EE197E0B9010E944934892BD9
:102CF00009F4E6C0809122079091230790939605EE
:102D0000809395050BC0E0919505F0919605E20F33
:102D1000F31FAA0DBB1D8C9180837394A72DB0E087
:102D20009D012C1B3D0BA815B9056CF3C901AA2701
:102D300097FDA095BA2F80937F0590938005A0936F
:102D40008105B093820582E080937B0518C1C5019F
:102D5000B901AE010E94130E019709F00DC18091D7
:102D6000860590918705A0918805B09189058C15FD
:102D70009D05AE05BF0508F002C110927C05C80F85
:102D8000D91F081B190BC5018C0F9D1FB801F1C07D
:102D900080919705823029F4F50180818130A9F472
:102DA0002FC0843029F4F5018081803171F428C06E
:102DB000813029F4F5018081823039F421C08330DB
:102DC00039F4F50180818E30D9F082E06AE07AC072
:102DD0008530B1F4C50161E070E040E050E00E9450
:102DE000130E019709F0C8C0F2E08F1691040CF49D
:102DF000C6C0089481089108C5010196B401B9C004
:102E000084E088169104A4F581E080937C058EE12E
:102E100097E064E070E00E944934892B09F450C0C7
:102E200080912207909123079093960580939505B2
:102E300090E00BC0E0919505F0919605EA0FFB1F1D
:102E4000AA0DBB1D8C9180839F5FA92FB0E0A815B0
:102E5000B90584F3C401AA2797FDA095BA2F8093E2
:102E60007F0590938005A0938105B093820587C06C
:102E7000F501838180938605828180938A05818113
:102E800080938E0574010027F7FC0095102F209188
:102E90008605309187054091880550918905DA01B2
:102EA000C9010496A11DB11DE816F9060A071B0702
:102EB000E0F58EE197E0B9010E944934892B29F4AD
:102EC00082E060E50E94600A57C0809122079091DD
:102ED0002307909396058093950594E00CC0E091AC
:102EE0009505F0919605EA0FFB1F3497AA0DBB1DBF
:102EF0008C9180839F5FA92FB0E0A815B9057CF362
:102F00008CEF9FEF880E991EC401AA2797FDA0950C
:102F1000BA2F80937F0590938005A0938105B0938D
:102F2000820582E080937C052AC0C501B90144E096
:102F300050E00E94130E0197F9F42091860530911C
:102F400087054091880550918905DA01C9010496E9
:102F5000A11DB11D8E159F05A007B10780F4C90101
:102F600004966CEF7FEF621B730B680D791D8A0D61
:102F70009B1D0E94111503C020E030E002C021E03B
:102F800030E0C901DF91CF911F910F91FF90EF9039
:102F9000DF90CF90BF90AF909F908F907F900895DB
:102FA0004F925F926F927F928F929F92AF92BF9259
:102FB000CF92DF92EF92FF920F931F93CF93DF9305
:102FC000282FAB0180911229281709F06CC280913B
:102FD0007705882339F08091910590919205622FB1
:102FE0000E948833809178058823E9F111E01093DD
:102FF0007905E0910407F091050782EE96E095834C
:10300000848386EF96E09783868382ED96E09183B2
:10301000808386EE96E093838283A0910207B0912D
:1030200003071196FC93EE9380918D0590918E0588
:1030300013969C938E9312970E942D32682F809343
:10304000C7221093C8224091020750910307809134
:103050009105909192050E94883387E080939705AF
:103060001092780520C28091DB2786FF31C08091C5
:103070007705882301F18091E2279091E3279093CF
:103080008E0580938D0580917A05813071F483E8F7
:1030900091E067E070E00E94E23888E197E00E94EA
:1030A0000E3480E18093DB27FEC18F5F80937A0529
:1030B00010927B05F8C1809193059091940562E38D
:1030C00070E00E94570A88E197E00E940E34EBC13D
:1030D00081FFB4C1C090E027D090E127E090CB22DF
:1030E000F090CC22BBEF4B2EBFEF5B2EAA24A39413
:1030F00080917B05813009F45DC0813008F4FFC008
:10310000823009F0D0C140917D0550917E05970134
:10311000240F351F80918305909184052817390766
:1031200080F1242F10E009C0A80FB91FF601E10FAC
:10313000F11D80818C932F5F1F5F822F90E0609143
:10314000830570918405A0919305B091940586172D
:10315000970750F3CD010E941115019709F0A3C103
:1031600088E197E00E940E3410927B05812F90E059
:103170008E159F050CF097C1C80ED91EE81AF90AE2
:10318000B7CF942F20E00CC0E0919305F091940507
:10319000E90FF11DAC0DBD1D8C9180839F5F2F5FEA
:1031A000A22FB0E0AE15BF057CF390937D05109281
:1031B0007E0579C180917D0590917E058E0D9F1DC4
:1031C000059710F0BB2431C020E00DC0E0919305BD
:1031D000F0919405EA0FFB1FE80FF91FAC0DBD1D20
:1031E0008C9180832F5FA22FB0E080917D0590911C
:1031F0007E05AE15BF0554F38E0D9F1D90937E0581
:1032000080937D0550C1A80FB91FAC0FBD1FCC0D19
:10321000DD1D88818C9380917D0590917E050196BE
:1032200090937E0580937D05B39480917D05909168
:103230007E05A0919305B0919405CB2DD0E085300B
:10324000910508F313969C901397882414968C91FB
:103250009401280F311D309384052093830588E164
:1032600097E00E940E3487010C1B1D0B60918305B3
:10327000709184050617170740F588E197E00E94D2
:103280004934892B09F498C080911C0790911D073F
:1032900090939405809393050BC0E0919305F09172
:1032A0009405E80FF91FAC0DBD1D8C918083B3947C
:1032B000AB2DB0E0CD018C1B9D0BAE15BF056CF3A3
:1032C00090937E0580937D059DC0C6018C0F9D1F48
:1032D0000E941115019709F0E6C0209183053091F5
:1032E00084052017310708F0DEC010927B05C20F5D
:1032F000D31FCC0EDD1E7801E21AF30AF9CEF601D7
:103300008081853119F4A092850512C090919705AE
:10331000953049F0973051F0863151F082E06AE003
:103320000E94600AC0C0843119F0F8CF8731B1F72C
:10333000F5E0EF16F10454F581E080937B0588E118
:1033400097E065E070E00E944934892BA9F18091F3
:103350001C0790911D07909394058093930590E02E
:103360000BC0E0919305F0919405EA0FFB1FAC0DA3
:10337000BD1D8C9180839F5FA92FB0E0AE15BF0566
:1033800084F3F0927E05E0927D058DC0F601738096
:1033900066248481B301680F711D70938405609366
:1033A0008305CB010596E816F90680F588E197E0DC
:1033B0000E944934892B19F482E060E5B1CF8091F5
:1033C0001C0790911D07909394058093930595E0B9
:1033D0000CC0E0919305F0919405EA0FFB1F35971F
:1033E000AC0DBD1D8C9180839F5FA92FB0E0AE1501
:1033F000BF057CF32BEF3FEFE20EF31EF0927E054C
:10340000E0927D0582E080937B054DC0C601059664
:103410000E941115019709F046C020918305309153
:103420008405C90105968E159F05E8F5C80ED91EBD
:10343000C201821B930BE80EF91E5ACE84FF33C0E3
:1034400080917705882339F080917A0581508093A7
:103450007A0582E001C081E08093970510927B0598
:1034600010927C0510927E0510927D0510927F05CA
:1034700010928005109281051092820580918A0138
:10348000882321F482E197E00E940E3411E010932A
:103490008A018AE297E00E940E3484E297E00E945B
:1034A0000E3410937605DF91CF911F910F91FF900D
:1034B000EF90DF90CF90BF90AF909F908F907F90D4
:1034C0006F905F904F900895CF93DF93EC01FA01D6
:1034D000288139812115310521F0215C344029F5FD
:1034E00016C080913807909139079093900580938A
:1034F0008F05818190810E94D34588EF95E00E94DD
:10350000ED2181EC94E09983888381E011C0862FBE
:10351000BA010E94D01780917605882391F310920A
:10352000760580E18093DB27ECCF1982188283E057
:10353000DF91CF910895CF93DF93EC01888199813A
:10354000009729F08D5A944009F059C049C08091E4
:103550003807909139079093900580938F05FA0171
:10356000728163818081918140E050E00E94F0454A
:1035700090938E0580938D0588EF95E00E94ED2154
:1035800088E197E062E370E00E9449340197B9F561
:1035900080911C0790911D0790939405809393054B
:1035A0000E94811DE0919305F0919405A8EBB5E090
:1035B0003B9680E201900D928150E1F76091930576
:1035C000709194056B5F7F4F88EF95E04DE250E07E
:1035D0000E94B9228DEA94E09983888381E012C029
:1035E00080917605882331F080E18093DB2710926B
:1035F000760505C0862FBA010E94D017EBCF19823D
:10360000188283E0DF91CF910895DF93CF9300D0AC
:10361000CDB7DEB79A8389836230D0F581E080939D
:10362000770582E08093970560938C058AE297E0A6
:1036300068E070E00E944934892B51F180912E0797
:1036400090912F07909305078093040784E297E0F9
:1036500064E070E00E944934892BD1F08091280702
:103660009091290790930307809302078091380770
:1036700090913907909392058093910589E791E0A5
:10368000BE016F5F7F4F0E94BB3320E030E002C07D
:103690002FEF3FEFC9010F900F90CF91DF91089569
:1036A000DF93CF9300D000D0CDB7DEB7109277056F
:1036B00021E0209397059A8389837C836B838AE238
:1036C00097E068E070E00E944934892BF9F080911E
:1036D0002E0790912F07909305078093040784E2AB
:1036E00097E064E070E00E944934892B79F0809182
:1036F00028079091290790930307809302078DE68E
:1037000091E0BE016F5F7F4F0E94BB330F900F901F
:103710000F900F90CF91DF910895CF92DF92EF92AB
:10372000FF920F931F93CF93DF937C016B01EA010C
:10373000FC0186E1819383E0D70111968C93DF0130
:1037400011968183FD013196CA01069611969C93CC
:10375000DF0111968183FD01319680E111968C93F2
:103760008F010F5F1F4F22969E0140E050E022978D
:103770001182B8016F5F7F4FBB27A52F942F832F36
:10378000F8018183FB013196DB0111962C93D183E3
:10379000C283D70120E030E009C0F601E20FF31F39
:1037A00080811A968C931A972F5F3F4F11962C1792
:1037B0003D0798F3DF91CF911F910F91FF90EF900C
:1037C000DF90CF900895FB01E80FF91FDF0184E13E
:1037D0008D9383E08183FD01319611968C93DF01F7
:1037E0001196118281E011968C93119712968C9309
:1037F00008954F925F927F928F929F92AF92BF9265
:10380000CF92DF92EF92FF920F931F93DB01B02EC6
:10381000A22E932E842E752EA80FB91FFD0186E1CE
:10382000819383E011968C93DF0111968183FD01D2
:10383000319611961C926F010894C11CD11C80E234
:10384000818326010894411C511C9701402F512F60
:103850006A2D792D882D972D08E30E942F86F60179
:10386000218362010894C11CD11C97014B2D512F5B
:103870006A2D792D882D972D00E30E942F86F20165
:10388000218326010894411C511C97014B2D512F77
:103890006A2D792D882D972D08E20E942F86F6013A
:1038A000218362010894C11CD11C97014B2D512F1B
:1038B0006A2D792D882D972D00E20E942F86F20126
:1038C000218326010894411C511C97014B2D512F37
:1038D0006A2D792D882D972D08E10E942F86F601FB
:1038E000218362010894C11CD11C97014B2D512FDB
:1038F0006A2D792D882D972D00E10E942F86F201E7
:10390000218397014B2D512F6A2D792D882D972DCD
:1039100008E00E942F86F60121830894C11CD11C67
:10392000F601E1821F910F91FF90EF90DF90CF9011
:10393000BF90AF909F908F907F905F904F90089531
:10394000DC01FC0185E1819383E011968C93DF011A
:1039500011968183FD01319611961C92DF0111961B
:1039600082E0818311966C93119712964C9308957F
:103970002F923F924F925F926F927F928F929F927F
:10398000AF92BF92CF92DF92EF92FF920F931F936D
:10399000DF93CF93CDB7DEB7C254D3400FB6F894C0
:1039A000DEBF0FBECDBF2C014901CF5BDC4F0883CA
:1039B000C154D340CE5BDC4F1883C254D3401701AF
:1039C00036018E010F5D1F4FC8010E940F24D401E4
:1039D0000D900020E9F71197A819B909C801B401A1
:1039E000AD010E94AF23C801CF5BDC4F6881C15499
:1039F000D340CE5BDC4F7881C254D340A7010E94F4
:103A0000AF235E010894A11CB11CC801B50140E2BE
:103A100050E00E94B223CC24DD24F02E012FC501FA
:103A2000EA2C192F4EC08F2D902F0E94FA238F2D34
:103A3000902F6E2D712F40E250E00E94AF23D401F1
:103A40000D900020E9F71197A819B9098F2D902F33
:103A5000B401AD010E94AF238F2D902FCF5BDC4FBF
:103A60006881C154D340CE5BDC4F7881C254D340CF
:103A7000A1010E94AF23B2016C0D7D1DA3014C1961
:103A80005D094132510514F040E250E08F2D902F36
:103A90000E94B2238F2D902F0E94FA238F2D902FFA
:103AA0006E2D712F40E250E00E94AF238F2D902F9A
:103AB000B50140E250E00E94B22380E290E0C80EDF
:103AC000D91EC614D7040CF4AECF81E090E0CE5BD3
:103AD000DC4F0FB6F894DEBF0FBECDBFCF91DF91A4
:103AE0001F910F91FF90EF90DF90CF90BF90AF901C
:103AF0009F908F907F906F905F904F903F902F900E
:103B00000895CF92DF92EF92FF920F931F93CF937E
:103B1000DF936C01FC0186E1819393E0D60111965D
:103B20009C93DF0111969183FD01319611961C92B1
:103B30009F012F5F3F4F8DE28183D901119681E074
:103B4000F9018183FD01319611961C92DF011196D6
:103B500011829D012F5F3F4F89E211968C93F901ED
:103B60003196D90111969C938F010F5F1F4F91835E
:103B700078010894E11CF11C0E94A458292F3327D6
:103B800044275527F8012183D70111969C0144272A
:103B90005527F7012183FD013196272F382F492F13
:103BA000552711962C9361838F010E5F1F4F0E9442
:103BB000F7690E941C37E6019CE1E92EF12CEC0C20
:103BC000FD1C0E9419378F778F872196CE15DF0550
:103BD000C1F7D8015C961C925C975D961C925D972C
:103BE00082E05E968C935E975F961C925F9788EA60
:103BF00090968C93909781E091968C939197929662
:103C00001C92DF91CF911F910F91FF90EF90DF9069
:103C1000CF900895CF92DF92EF92FF920F931F9370
:103C2000CF93DF936C01FC0186E1819393E0D60191
:103C300011969C93DF0111969183FD0131961196A7
:103C40001C929F012F5F3F4F8AE28183D901119619
:103C500082E0F9018183FD01319611961C92DF010A
:103C6000119611829D012F5F3F4F86E211968C9332
:103C7000F9013196D90111969C938F010F5F1F4F67
:103C8000918378010894E11CF11C0E94A458292F0B
:103C9000332744275527F8012183D70111969C012A
:103CA00044275527F7012183FD013196272F382F0F
:103CB000492F552711962C936183EF0122960E947C
:103CC000F7690E941C3786015CE1E52EF12CEC0CB3
:103CD000FD1C0E9419378F77D8011F968C930F5FB8
:103CE0001F4F0E151F05A9F71C8E1D8E88EA8E8F9B
:103CF0001F8E86E188A383E089A38AA31BA284E0A8
:103D00008CA38EE08DA31EA21FA218A6DF91CF91D7
:103D10001F910F91FF90EF90DF90CF9008952F9219
:103D20003F924F925F926F927F928F929F92AF924B
:103D3000BF92CF92DF92EF92FF920F931F93DF9388
:103D4000CF93CDB7DEB7CE53D1400FB6F894DEBFD8
:103D50000FBECDBFC15DDE4F79836883CF52D140A6
:103D6000CF5CDE4F59834883C153D140C75DDE4FDE
:103D700019821882C952D1409E012F5D3F4FC35C0A
:103D8000DE4F39832883CD53D140A9014C5D5F4F6D
:103D9000C95CDE4F59834883C753D140DE01AB5F16
:103DA000BE4FC55CDE4FB983A883CB53D140885743
:103DB0009F4FC75CDE4F99838883C953D140E3C2CC
:103DC000C75DDE4F08811981C952D14026E0000F3E
:103DD000111F2A95E1F7C15DDE4FE881F981CF52CD
:103DE000D1400E0F1F1F9E012F5D3F4FCD5DDE4F57
:103DF00039832883C352D140790160E070E0FB0130
:103E0000EE0FFF1FEE0FFF1FE00FF11F208130E0CC
:103E100040E050E0522F442733272227838190E04F
:103E2000A0E0B0E0282B392B4A2B5B2B828190E05D
:103E3000A0E0B0E0BA2FA92F982F8827282B392B84
:103E40004A2B5B2B818190E0A0E0B0E0DC01992758
:103E50008827282B392B4A2B5B2BD7012D933D9399
:103E60004D935D937D016F5F7F4F6031710539F632
:103E7000C95CDE4FE881F981C753D140A488B58879
:103E8000C688D788CD5DDE4FA881B981C352D140A5
:103E900014966D907D908D909C9017972D903D90ED
:103EA0004D905D90CD5DDE4FB983A883C352D14064
:103EB00080819181A281B381280E391E4A1E5B1E2A
:103EC000D601C50103E1B695A795979587950A9503
:103ED000D1F7A60195011DE0220F331F441F551F86
:103EE0001A95D1F7822B932BA42BB52BA601950104
:103EF00071E156954795379527957A95D1F78601C3
:103F000075016FE0EE0CFF1C001F111F6A95D1F7C1
:103F10002E293F29402B512B82279327A427B527F1
:103F20002AE0D694C794B794A7942A95D1F78A2506
:103F30009B25AC25BD25280E391E4A1E5B1ED401CB
:103F4000C30102E1B695A795979587950A95D1F794
:103F5000A40193011EE0220F331F441F551F1A9521
:103F6000D1F7822B932BA42BB52BA401930177E0DF
:103F700056954795379527957A95D1F78401730122
:103F800069E1EE0CFF1C001F111F6A95D1F72E2965
:103F90003F29402B512B82279327A427B52723E0C5
:103FA00096948794779467942A95D1F786259725D8
:103FB000A825B925280E391E4A1E5B1E248E358E73
:103FC000468E578E3496C55CDE4F28813981CB539F
:103FD000D140E217F30709F051CFC75CDE4F4881AB
:103FE0005981C953D140C95DDE4F59834883C752B7
:103FF000D140CE010196CB5DDE4F99838883C552B7
:10400000D140FA01CF5DDE4F99838883C152D14000
:104010002191319141915191CF5DDE4FA881B981BC
:10402000C152D1402D933D934D935D93CF5DDE4FB3
:10403000B983A883C152D140C35CDE4F2881398146
:10404000CD53D140A217B30719F760E070E0A988FB
:10405000BA88CB88DC88898D9A8DAB8DBC8DC55D87
:10406000DE4F88839983AA83BB83CB52D140FB0167
:10407000E752FE4F20803180428053808D8D9E8D8F
:10408000AF8DB8A1280E391E4A1E5B1EE1E2F0E09A
:10409000EC0FFD1FE60FF71F80819181A281B38194
:1040A000280E391E4A1E5B1EA60195010BE056958F
:1040B0004795379527950A95D1F7D601C50115E1A2
:1040C000880F991FAA1FBB1F1A95D1F7282B392BD0
:1040D0004A2B5B2BD601C501F6E0B695A7959795BF
:1040E0008795FA95D1F786017501EAE1EE0CFF1C80
:1040F000001F111FEA95D1F78E299F29A02BB12B04
:10410000282739274A275B27D601C501F9E1B6954B
:10411000A79597958795FA95D1F786017501E7E000
:10412000EE0CFF1C001F111FEA95D1F78E299F2965
:10413000A02BB12B282739274A275B27220E331EB5
:10414000441E551ED601C50180959095A095B09549
:10415000C55DDE4F288139814A815B81CB52D140D8
:1041600082239323A423B5232D893E894F89588D1B
:10417000CD5CDE4F288339834A835B83C353D140B0
:104180002A213B214C215D2182279327A427B52793
:10419000280E391E4A1E5B1E69807A808B809C80A7
:1041A000ED80FE800F81188529853A854B855C85D9
:1041B000C55DDE4F88819981AA81BB81CB52D140F8
:1041C0008D8F9E8FAF8FB8A3CD5CDE4F8881998194
:1041D000AA81BB81C353D140898F9A8FAB8FBC8F8B
:1041E000AD8ABE8ACF8AD88E8D859E85AF85B889E7
:1041F000820D931DA41DB51D898B9A8BAB8BBC8B37
:104200002D873E874F87588BE986FA860B871C8758
:104210006D827E828F82988657016801A226B3261E
:10422000C426D526A620B720C820D9202E213F217C
:1042300040235123A226B326C426D526A4019301E8
:104240000DE056954795379527950A95D1F7D401F6
:10425000C30113E1880F991FAA1FBB1F1A95D1F73D
:10426000282B392B4A2B5B2BD401C301F2E0B695E6
:10427000A79597958795FA95D1F784017301EEE19B
:10428000EE0CFF1C001F111FEA95D1F78E299F2904
:10429000A02BB12B282739274A275B27D401C3013C
:1042A000FAE0880F991FAA1FBB1FFA95D1F7E6E124
:1042B0009694879477946794EA95D1F786299729FD
:1042C000A829B929282739274A275B27A20EB31E18
:1042D000C41ED51EA20CB31CC41CD51CA982BA8254
:1042E000CB82DC826C5F7F4F91E06030790709F010
:1042F000AECEC95DDE4FE881F981C752D1408081E1
:104300009181A281B381CB5DDE4FE881F981C552F5
:10431000D1402191319141915191CB5DDE4FF98393
:10432000E883C552D140820F931FA41FB51FC95DFA
:10433000DE4FE881F981C752D14081939193A193D7
:10434000B193C95DDE4FF983E883C752D140CB5D9D
:10435000DE4F28813981C552D140CF5DDE4F488183
:104360005981C152D1402417350719F6C75DDE4F78
:1043700088819981C952D1400196C75DDE4F9983EA
:104380008883C952D140C75DDE4FA881B981C95227
:10439000D140CF5CDE4FE881F981C153D140AE17E7
:1043A000BF070CF40DCDC25CDE4F0FB6F894DEBF34
:1043B0000FBECDBFCF91DF911F910F91FF90EF9076
:1043C000DF90CF90BF90AF909F908F907F906F9035
:1043D0005F904F903F902F900895CF93DF93EC0123
:1043E000E9EBF1E09C0128573F4F419151916191D8
:1043F0007191D9014D935D936D937D939D01B1E0D2
:10440000E93DFB0791F71C821D821E821F821882E4
:1044100019821A821B82DF91CF9108954F925F9289
:104420006F927F928F929F92AF92BF92CF92DF92C4
:10443000EF92FF920F931F93CF93DF93EC012B0129
:104440002C813D814E815F81DA01C9018F739070AB
:10445000A070B070C897A105B10530F471E0672E67
:10446000712C812C912C05C062E0662E712C812C60
:10447000912CA880B980CA80DB80A20EB31EC41E16
:10448000D51E93E0AA0CBB1CCC1CDD1C9A95D1F761
:104490008401730186E0EE0CFF1C001F111F8A953A
:1044A000D1F7F701E21BF30B285F3F4F2C0F3D1FA5
:1044B000C90160E070E0AF010E94C88CEC81FD8111
:1044C000EC0FFD1F80E88087EC0EFD1EF701A78230
:1044D000BB27AD2D9C2D8B2D8683C601AA27BB271C
:1044E0008583AD2CBB24CC24DD24A482CE01289668
:1044F000BE01A3010E948F1EC058DF4F20E030E0B4
:10450000F901EE0FFF1FEE0FFF1FE40DF51D88816F
:10451000838388819981AA81BB81892F9A2FAB2FB0
:10452000BB27828388819981AA81BB81CD01AA277B
:10453000BB27818389919991A991B9918B2F992753
:10454000AA27BB2780832F5F3F4F28303105C1F654
:10455000DF91CF911F910F91FF90EF90DF90CF905F
:10456000BF90AF909F908F907F906F905F904F9093
:1045700008954F925F926F927F928F929F92AF9227
:10458000BF92CF92DF92EF92FF920F931F93CF9340
:10459000DF93EC016B010C811D812E813F814A016B
:1045A000AA24BB2480E490E0A0E0B0E0801B910B43
:1045B000A20BB30B2401350188159905AA05BB058B
:1045C00010F42C013D019801285F3F4F2C0F3D1F37
:1045D000C901B601A2010E94AD8C8C819D81AE8182
:1045E000BF81880D991DAA1DBB1D80349105A105B1
:1045F000B10528F48C839D83AE83BF8350C084189B
:104600009508A608B70885017401B6E016950795C8
:10461000F794E794BA95D1F74C0C5D1CA8E06A2E8C
:10462000712C6C0E7D1ECE01B30141E050E00E9462
:104630008F1E6701CE01B201A7010E948F1E8FE37A
:1046400090E0A0E0B0E088229922AA22BB22F6E006
:10465000CC0CDD1CFA95E1F7C40CD51CC301B601E6
:10466000A4010E94AD8C8C829D82AE82BF82089490
:10467000E11CF11C011D111DE6E0EE0CFF1C001FEA
:10468000111FEA95D1F788819981AA81BB818E0D8E
:104690009F1DA01FB11F88839983AA83BB83DF91CD
:1046A000CF911F910F91FF90EF90DF90CF90BF902F
:1046B000AF909F908F907F906F905F904F900895F4
:1046C000AF92BF92CF92DF92EF92FF920F931F9320
:1046D000DF93CF93CDB7DEB7C85AD0400FB6F8946A
:1046E000DEBF0FBECDBF7C016B015A01E9EBF1E0EB
:1046F0009E0127573F4F4191519161917191D9018D
:104700004D935D936D937D939D01B1E0E93DFB0772
:1047100091F71D821E821F82188619821A821B82BF
:104720001C828E010F5F1F4FC801B701A6010E94B6
:10473000B922C801B5010E940E22C855DF4F0FB63D
:10474000F894DEBF0FBECDBFCF91DF911F910F91C7
:10475000FF90EF90DF90CF90BF90AF9008950E94B0
:10476000B9220895AF92BF92CF92DF92EF92FF925B
:104770000F931F93DF93CF93CDB7DEB7C054D040D4
:104780000FB6F894DEBF0FBECDBF7C01D62EC72E6C
:10479000B42EA52E8E010F5F1F4FB8010E940E226E
:1047A00088EA90E0E80EF91EC701B80140E250E047
:1047B0000E94B9228E010F5D1F4FC701B8010E94F0
:1047C0000E228D2D9C2DB8014B2D5A2D0E94AD8CA3
:1047D000C05CDF4F0FB6F894DEBF0FBECDBFCF91E8
:1047E000DF911F910F91FF90EF90DF90CF90BF90DE
:1047F000AF900895DC01FC01E05BFE4F28EA0190D8
:104800000D922150E1F7DC01A855BF4FFC01E850A3
:10481000FE4F88EA01900D928150E1F70895AF9222
:10482000BF92CF92DF92EF92FF920F931F93DF938D
:10483000CF93CDB7DEB7A0970FB6F894DEBF0FBE0B
:10484000CDBF6C014034510529F45B0190E4E92EA1
:10485000F12C34C04134510518F47A015B010CC0CD
:10486000CB01BA018E010F5F1F4FA8010E94602388
:1048700080E2E82EF12C580100E410E00E191F0927
:1048800080EA92E0E80EF91E96012E0D3F1DC90147
:1048900066E370E0A8010E94C88C80E490E0E80E16
:1048A000F91E96012E0D3F1D80E29DEFE80EF91EC8
:1048B000C9016CE570E0A8010E94C88CD501860191
:1048C00000561D4FF80120E030E046E39CE50BC0A8
:1048D0008C9184278083E05CFF4F8D9189278083B2
:1048E0002F5F3F4FFF972E153F0594F3C6010E949F
:1048F000ED21C601B80140E450E00E94B9228601D2
:1049000008551F4FC8010E94ED21B60160527D4F2E
:10491000C80140E450E00E94B922D601A05BBE4F1E
:10492000F60188EA01900D928150E1F7D601A85076
:10493000BE4FF80188EA01900D928150E1F7A096F0
:104940000FB6F894DEBF0FBECDBFCF91DF911F91A0
:104950000F91FF90EF90DF90CF90BF90AF900895B0
:104960008F929F92AF92BF92CF92DF92EF92FF927F
:104970000F931F93DF93CF93CDB7DEB7C052D340D1
:104980000FB6F894DEBF0FBECDBFFC01DB015A01AC
:1049900049016E010894C11CD11CC601BF01AD01C3
:1049A0000E940F24C601B501A4010E94B922C601CC
:1049B000B801A7010E94B223C05EDC4F0FB6F89485
:1049C000DEBF0FBECDBFCF91DF911F910F91FF9042
:1049D000EF90DF90CF90BF90AF909F908F90089511
:1049E000FC01EE0FFF1FEE0FFF1FE457F34F259161
:1049F000359145915491B901CA010895FC01EE0F1A
:104A0000FF1FEE0FFF1FE457F74F2591359145919A
:104A10005491B901CA010895FC01EE0FFF1FEE0F7A
:104A2000FF1FE457FB4F2591359145915491B901F2
:104A3000CA010895FC01EE0FFF1FEE0FFF1FE457A0
:104A4000FF4F2591359145915491B901CA010895BF
:104A50002F923F924F925F926F927F928F929F928E
:104A6000AF92BF92CF92DF92EF92FF920F931F937C
:104A7000DF93CF9300D000D000D0CDB7DEB7FC01DC
:104A8000009709F47FC16115710509F47BC160517C
:104A90007F4F8AE0DB018C93605F7040238130E0C0
:104AA00040E050E0808190E0A0E0B0E0B82FAA277D
:104AB00099278827282739274A275B27818190E073
:104AC000A0E0B0E0DC0199278827282739274A276A
:104AD0005B27828190E0A0E0B0E0BA2FA92F982F49
:104AE0008827282739274A275B27DB012D933D9309
:104AF0004D935C931397248130E040E050E0522FB7
:104B0000442733272227858190E0A0E0B0E0DC0134
:104B100099278827282739274A275B27878190E00C
:104B2000A0E0B0E0282739274A275B27868190E05C
:104B3000A0E0B0E0BA2FA92F982F8827282739277F
:104B40004A275B27DB0114962D933D934D935C938D
:104B50001797208530E040E050E0522F442733275C
:104B60002227818590E0A0E0B0E0DC01992788272A
:104B7000282739274A275B27838590E0A0E0B0E00B
:104B8000282739274A275B27828590E0A0E0B0E0FC
:104B9000BA2FA92F982F8827282739274A275B273C
:104BA000DB0118962D933D934D935C931B972485C1
:104BB00030E040E050E0522F4427332722278585FC
:104BC00090E0A0E0B0E0DC0199278827282739276A
:104BD0004A275B27878590E0A0E0B0E028273927A7
:104BE0004A275B27868590E0A0E0B0E0BA2FA92F86
:104BF000982F8827282739274A275B27FB012487F6
:104C00003587468757877E836D8369ED72E0AD8176
:104C1000BE811C962D913D914D915C911F972983EA
:104C20003A834B835C83CA01AA27BB27FC01F0703F
:104C3000EE0FFF1FEE0FFF1FE457FB4F259035903F
:104C400045905490BB27A52F942F832FFC01F07023
:104C5000EE0FFF1FEE0FFF1FE457FF4F659075909B
:104C60008590949089819A819070880F991F880F00
:104C7000991F8457934FFC01A590B590C590D4908F
:104C8000852F9927AA27BB27FC01EE0FFF1FEE0FE8
:104C9000FF1FE457F74FE590F59005911491FB0144
:104CA00081919191A191B191BF01ED81FE8120810E
:104CB00031814281538182279327A427B52720E0A1
:104CC00030E040E05FEF2222332244225522822549
:104CD0009325A425B52520E030E04FEF50E0622277
:104CE00073228422952286259725A825B92520E0C0
:104CF0003FEF40E050E0A222B322C422D5228A2511
:104D00009B25AC25BD252FEF30E040E050E0E222AE
:104D1000F322042315238E259F25A027B127808BFE
:104D2000918BA28BB38B24813581468157812827B3
:104D300039274A275B27248B358B468B578B8085F9
:104D40009185A285B38582279327A427B527808FD5
:104D5000918FA28FB38F29813A814B815C81822709
:104D60009327A427B527848F958FA68FB78F70962A
:104D7000FE83ED83F3E061307F0709F048CF20E048
:104D800030E002C02FEF3FEFC90126960FB6F8942E
:104D9000DEBF0FBECDBFCF91DF911F910F91FF906E
:104DA000EF90DF90CF90BF90AF909F908F907F90CB
:104DB0006F905F904F903F902F9008952F923F9269
:104DC0004F925F926F927F928F929F92AF92BF921B
:104DD000CF92DF92EF92FF920F931F93DF93CF93C7
:104DE000CDB7DEB7C555D0400FB6F894DEBF0FBEC5
:104DF000CDBF4C0162967FAF6EAF62975A834983F5
:104E0000DC018C91482E552466247724D42CCC24A4
:104E1000BB24AA2413968C91482E5524662477240B
:104E2000A424B524C624D724DA012D913D914D91B7
:104E30005C91A226B326C426D526F401818190E098
:104E4000A0E0B0E0DC0199278827A826B926CA2669
:104E5000DB26828190E0A0E0B0E0BA2FA92F982F46
:104E60008827A826B926CA26DB26AD8EBE8ECF8E11
:104E7000D8A28781A82EBB24CC24DD24E981FA8125
:104E800084819581A681B781A826B926CA26DB260A
:104E9000D40114968C9190E0A0E0B0E0B82FAA273E
:104EA00099278827A826B926CA26DB26F4018581FA
:104EB00090E0A0E0B0E0DC0199278827A826B92679
:104EC000CA26DB26868190E0A0E0B0E0BA2FA92FA9
:104ED000982F8827A826B926CA26DB26A98EBA8E3F
:104EE000CB8EDC8E8385A82EBB24CC24DD24E981E7
:104EF000FA8180859185A285B385A826B926CA2620
:104F0000DB26D40118968C9190E0A0E0B0E0B82F99
:104F1000AA2799278827A826B926CA26DB26F401BE
:104F2000818590E0A0E0B0E0DC0199278827A826E1
:104F3000B926CA26DB26828590E0A0E0B0E0BA2F31
:104F4000A92F982F8827A826B926CA26DB26AD8A3E
:104F5000BE8ACF8AD88E8785A82EBB24CC24DD2498
:104F6000E981FA8184859585A685B785A826B92625
:104F7000CA26DB26D4011C968C9190E0A0E0B0E01C
:104F8000B82FAA2799278827A826B926CA26DB265C
:104F9000F401858590E0A0E0B0E0DC019927882746
:104FA000A826B926CA26DB26868590E0A0E0B0E0D8
:104FB000BA2FA92F982F8827A826B926CA26DB261C
:104FC000A98ABA8ACB8ADC8A29813A8120513F4F4B
:104FD000D901BC91205F30403A832983B695B9A3AB
:104FE000EB2FF0E0F88BEF87B9016D8C7E8C8F8C06
:104FF00098A0892D9927AA27BB27FC01EE0FFF1F38
:10500000EE0FFF1FE457F34F2590359045905490D5
:10501000898C9A8CAB8CBC8CC501AA27BB27FC0160
:10502000F070EE0FFF1FEE0FFF1FE457F74FA59034
:10503000B590C590D4902D893E894F89588DBB2756
:10504000A52F942F832FFC01F070EE0FFF1FEE0FA2
:10505000FF1FE457FB4FE590F59005911491898966
:105060009A899070880F991F880F991F84579F4FB6
:10507000FC0125913591459154912A243B244C24DF
:105080005D24FB0180899189A289B389282639266C
:105090004A265B262E243F244026512622263326EC
:1050A00044265526698C7A8C8B8C9C8C892D99276B
:1050B000AA27BB27FC01EE0FFF1FEE0FFF1FE457CF
:1050C000F34FA590B590C590D4902D893E894F8916
:1050D000588DCA01AA27BB27FC01F070EE0FFF1FF5
:1050E000EE0FFF1FE457F74F6590759085909490F1
:1050F00029893A894B895C89BB27A52F942F832F57
:10510000FC01F070EE0FFF1FEE0FFF1FE457FB4F87
:10511000E590F590059114918D8D9E8D9070880F7E
:10512000991F880F991F84579F4FFC012591359136
:1051300045915491A624B724C824D924FB0184891D
:105140009589A689B789A826B926CA26DB26AE2462
:10515000BF24C026D126A226B326C426D5266D8814
:105160007E888F88988C892D9927AA27BB27FC01D8
:10517000EE0FFF1FEE0FFF1FE457F34FE590F59082
:105180000591149129893A894B895C89CA01AA271A
:10519000BB279C013070220F331F220F331F24576F
:1051A000374FF90185919591A591B4918B879C8793
:1051B000AD87BE876D8C7E8C8F8C98A0BB27A92D68
:1051C000982D872DFC01F070EE0FFF1FEE0FFF1FD3
:1051D000E457FB4F6590759085909490898D9A8DDA
:1051E0009070880F991F880F991F84579F4FFC015B
:1051F00025913591459154918B859C85AD85BE85D2
:10520000E826F9260A271B27FB01808D918DA28DA8
:10521000B38DE826F9260A271B27E624F72408255C
:105220001925E226F3260427152769887A888B88B2
:105230009C88892D9927AA27BB27FC01EE0FFF1F09
:10524000EE0FFF1FE457F34F25913591459154918F
:105250006D8C7E8C8F8C98A0C401AA27BB27EFEFA2
:105260008E2E912C88229922880C991C880C991CCE
:105270008CE898E0880E991EF40185919591A5918E
:10528000B4918F839887A987BA87698C7A8C8B8C25
:105290009C8CBB27A92D982D872DAFEF8A2E912CA2
:1052A00088229922880C991C880C991C8CE894E01F
:1052B000880E991EF40185919591A591B4918B83E7
:1052C0009C83AD83BE838D899E899070880F991FC2
:1052D000880F991F84579F4FFC01659075908590AA
:1052E00094908F819885A985BA85282739274A27E0
:1052F0005B27FB01848D958DA68DB78D28273927D7
:105300004A275B278B819C81AD81BE812827392765
:105310004A275B272625372548255925605E7F4F7C
:10532000AF85B8891197B88BAF87652C772488240F
:10533000992466966CAE7DAE8EAE9FAE66973601B2
:1053400088249924BB27A12F902F8F2D8AA39BA35C
:10535000ACA3BDA3D901B070BFA3AEA38D2D992777
:10536000AA27BB2788A799A7AAA7BBA7C801AA27CE
:10537000BB278CA79DA7AEA7BFA7BB27A52F942FA0
:10538000832F88AB99ABAAABBBABD101B070BDABDF
:10539000ACAB812F9927AA27BB278EAB9FABA8AFB9
:1053A000B9AFCA01AA27BB278AAF9BAFACAFBDAFCD
:1053B000BB27A52D942D832D22968CAF9DAFAEAF2C
:1053C000BFAF2297D501B0702496BFAFAEAF249780
:1053D000852F9927AA27BB2728968CAF9DAFAEAF04
:1053E000BFAF289712014424552455274D2D3C2D3D
:1053F0002B2D2C962CAF3DAF4EAF5FAF2C97A70156
:1054000050702E965FAF4EAF2E978F859889892B5F
:1054100009F456C164962EAD3FAD6497220F331F39
:10542000220F331F2457334FF901A590B590C59033
:10543000D490F301F070EE0FFF1FEE0FFF1FE45743
:10544000F74F65907590859094902AA13BA130709C
:10545000220F331F220F331F24573B4FF901E590D2
:10546000F59005911491EEA1FFA1EE0FFF1FEE0F35
:10547000FF1FE457FF4F2591359145915491A62484
:10548000B724C824D924FB0180819181A281B381F2
:10549000A826B926CA26DB26AE24BF24C026D126DC
:1054A000A226B326C426D526AD8EBE8ECF8ED8A218
:1054B00028A539A5220F331F220F331F2457334F3E
:1054C000F9016590759085909490698E7A8E8B8E97
:1054D0009C8E2CA53DA53070220F331F220F331F49
:1054E0002457374FF901659075908590949028A9BD
:1054F00039A93070220F331F220F331F24573B4F1F
:10550000F901E590F59005911491ECA9FDA9EE0F34
:10551000FF1FEE0FFF1FE457FF4F25913591459177
:105520005491A98CBA8CCB8CDC8CA624B724C824CB
:10553000D924FB0184819581A681B781A826B9264B
:10554000CA26DB26AE24BF24C026D126A226B32637
:10555000C426D526A98EBA8ECB8EDC8E2EA93FA965
:10556000220F331F220F331F2457334FF901659049
:105570007590859094906D8A7E8A8F8A988E2AADD8
:105580003BAD3070220F331F220F331F2457374F8C
:10559000F90165907590859094902EAD3FAD307077
:1055A000220F331F220F331F24573B4FF901E59081
:1055B000F590059114912496EEADFFAD2497EE0F72
:1055C000FF1FEE0FFF1FE457FF4F259135914591C7
:1055D0005491AD88BE88CF88D88CA624B724C8241F
:1055E000D924FB0180859185A285B385A826B9269B
:1055F000CA26DB26AE24BF24C026D126A226B32687
:10560000C426D526AD8ABE8ACF8AD88E26962EADE0
:105610003FAD2697220F331F220F331F2457334FDE
:10562000F9016590759085909490698A7A8A8B8A41
:105630009C8AF101F070EE0FFF1FEE0FFF1FE45781
:10564000F74F65907590859094902A96EEADFFADDA
:105650002A97F070EE0FFF1FEE0FFF1FE457FB4F6E
:10566000E590F590059114912E96EEADFFAD2E9735
:10567000EE0FFF1FEE0FFF1FE457FF4F25913591EF
:1056800045915491A988BA88CB88DC88A624B72490
:10569000C824D924FB0184859585A685B785A826CD
:1056A000B926CA26DB26AE24BF24C026D126A226D0
:1056B000B326C426D526A98ABA8ACB8ADC8A95CC99
:1056C000B9A0AB2CBB2415E0AA0CBB1C1A95E1F7C2
:1056D000C980DA80AC0CBD1C6096BFAEAEAE6097E0
:1056E00064968EAD9FAD6497880F991F880F991FA0
:1056F00084579B4FFC012591359145915491B301FD
:105700007070660F771F660F771F64577F4FFB011E
:1057100065907590859094906AA17BA17070660FDA
:10572000771F660F771F6457734FFB01A590B590E5
:10573000C590D4906EA17FA1660F771F660F771F6B
:105740006457774FFB01E590F59005911491207017
:105750003070407080E090E0AFEFB0E068227922D6
:105760008A229B2226253725482559256096EEADAD
:10577000FFAD609780819181A281B381282739276D
:105780004A275B27612C6FEF762E812C912CA62067
:10579000B720C820D9202A253B254C255D259FEF21
:1057A000892E912CA12CB12CE820F9200A211B2153
:1057B0002E253F2540275127852F9927AA27BB272C
:1057C0006296EEADFFAD62978083CA01AA27BB2720
:1057D0008183BB27A52F942F832F8283238388A5C2
:1057E00099A5880F991F880F991F84579B4FFC011B
:1057F00025913591459154916CA57DA57070660FEA
:10580000771F660F771F64577F4FFB016590759078
:105810008590949068A979A97070660F771F660FBC
:10582000771F6457734FFB01A590B590C590D49036
:105830006CA97DA9660F771F660F771F6457774F96
:10584000FB01E590F5900591149120703070407047
:1058500080E090E0AFEFB0E0682279228A229B22BC
:1058600026253725482559256096EEADFFAD609772
:1058700084819581A681B781282739274A275B270C
:10588000612C6FEF762E812C912CA620B720C8209A
:10589000D9202A253B254C255D259FEF892E912C6B
:1058A000A12CB12CE820F9200A211B212E253F250F
:1058B00040275127852F9927AA27BB276296EEAD4F
:1058C000FFAD62978483CA01AA27BB278583BB27C4
:1058D000A52F942F832F868327838EA99FA9880FB6
:1058E000991F880F991F84579B4FFC012591359173
:1058F000459154916AAD7BAD7070660F771F660F4E
:10590000771F64577F4FFB01659075908590949049
:105910006EAD7FAD7070660F771F660F771F64578F
:10592000734FFB01A590B590C590D49024966EADB1
:105930007FAD2497660F771F660F771F6457774FE9
:10594000FB01E590F5900591149120703070407046
:1059500080E090E0AFEFB0E0682279228A229B22BB
:1059600026253725482559256096EEADFFAD609771
:1059700080859185A285B385282739274A275B270B
:10598000612C6FEF762E812C912CA620B720C82099
:10599000D9202A253B254C255D259FEF892E912C6A
:1059A000A12CB12CE820F9200A211B212E253F250E
:1059B00040275127852F9927AA27BB276296EEAD4E
:1059C000FFAD62978087CA01AA27BB278187BB27C3
:1059D000A52F942F832F8287238726968EAD9FAD88
:1059E0002697880F991F880F991F84579B4FFC019A
:1059F0002591359145915491B1017070660F771FD3
:105A0000660F771F64577F4FFB0185919591A59194
:105A1000B4912A966EAD7FAD2A977070660F771F8E
:105A2000660F771F6457734FFB01A590B590C59023
:105A3000D4902E966EAD7FAD2E97660F771F660FB2
:105A4000771F6457774FFB01E590F590059114910E
:105A500020703070407080709070B07028273927A7
:105A60004A275B276096EEADFFAD609784859585EC
:105A7000A685B785282739274A275B27612C7FEF22
:105A8000772E812C912CA620B720C820D9202A253A
:105A90003B254C255D256FEF862E912CA12CB12C3A
:105AA000E820F9200A211B212E253F2540275127D8
:105AB000852F9927AA27BB276296EEADFFAD629787
:105AC0008487CA01AA27BB278587BB27A52F942FC8
:105AD000832F86872787CB5ADF4F0FB6F894DEBF18
