:100000000C9419090C9438090C9438090C9438098B
:100010000C9438090C9438090C9438090C9438095C
:100020000C9438090C9450640C9438090C943809D9
:100030000C94727C0C9438090C9438090C945B7CF9
:100040000C94B1740C9438090C9438090C94380948
:100050000C94FF740C9438090C94F3740C943809C4
:100060000C9438090C9438090C9438090C9438090C
:100070000C943D750C9438090C9431750C94380926
:100080000C94DD840C9438090C943809C6A563637C
:10009000F8847C7CEE997777F68D7B7BFF0DF2F20E
:1000A000D6BD6B6BDEB16F6F9154C5C560503030FB
:1000B00002030101CEA96767567D2B2BE719FEFECF
:1000C000B562D7D74DE6ABABEC9A76768F45CACA08
:1000D0001F9D82828940C9C9FA877D7DEF15FAFA92
:1000E000B2EB59598EC94747FB0BF0F041ECADAD6F
:1000F000B367D4D45FFDA2A245EAAFAF23BF9C9CF7
:1001000053F7A4A4E49672729B5BC0C075C2B7B7E4
:10011000E11CFDFD3DAE93934C6A26266C5A3636A3
:100120007E413F3FF502F7F7834FCCCC685C343417
:1001300051F4A5A5D134E5E5F908F1F1E293717127
:10014000AB73D8D8625331312A3F1515080C04041B
:100150009552C7C7466523239D5EC3C33028181830
:1001600037A196960A0F05052FB59A9A0E0907072B
:10017000243612121B9B8080DF3DE2E2CD26EBEBA2
:100180004E6927277FCDB2B2EA9F7575121B090908
:100190001D9E838358742C2C342E1A1A362D1B1B4B
:1001A000DCB26E6EB4EE5A5A5BFBA0A0A4F65252BB
:1001B000764D3B3BB761D6D67DCEB3B3527B292972
:1001C000DD3EE3E35E712F2F13978484A6F553532E
:1001D000B968D1D100000000C12CEDED40602020B5
:1001E000E31FFCFC79C8B1B1B6ED5B5BD4BE6A6AB3
:1001F0008D46CBCB67D9BEBE724B393994DE4A4AA5
:1002000098D44C4CB0E85858854ACFCFBB6BD0D06F
:10021000C52AEFEF4FE5AAAAED16FBFB86C54343BF
:100220009AD74D4D66553333119485858ACF454510
:10023000E910F9F904060202FE817F7FA0F0505018
:1002400078443C3C25BA9F9F4BE3A8A8A2F35151A8
:100250005DFEA3A380C04040058A8F8F3FAD929280
:1002600021BC9D9D70483838F104F5F563DFBCBCB6
:1002700077C1B6B6AF75DADA4263212120301010AB
:10028000E51AFFFFFD0EF3F3BF6DD2D2814CCDCD49
:1002900018140C0C26351313C32FECECBEE15F5F72
:1002A00035A2979788CC44442E3917179357C4C466
:1002B00055F2A7A7FC827E7E7A473D3DC8AC6464B8
:1002C000BAE75D5D322B1919E6957373C0A06060C3
:1002D000199881819ED14F4FA37FDCDC4466222296
:1002E000547E2A2A3BAB90900B8388888CCA464662
:1002F000C729EEEE6BD3B8B8283C1414A779DEDE1C
:10030000BCE25E5E161D0B0BAD76DBDBDB3BE0E09B
:1003100064563232744E3A3A141E0A0A92DB494944
:100320000C0A0606486C2424B8E45C5C9F5DC2C2DB
:10033000BD6ED3D343EFACACC4A6626239A8919131
:1003400031A49595D337E4E4F28B7979D532E7E798
:100350008B43C8C86E593737DAB76D6D018C8D8DF8
:10036000B164D5D59CD24E4E49E0A9A9D8B46C6CE5
:10037000ACFA5656F307F4F4CF25EAEACAAF65653E
:10038000F48E7A7A47E9AEAE101808086FD5BABA7B
:10039000F08878784A6F25255C722E2E38241C1C34
:1003A00057F1A6A673C7B4B49751C6C6CB23E8E8E5
:1003B000A17CDDDDE89C74743E211F1F96DD4B4B54
:1003C00061DCBDBD0D868B8B0F858A8AE0907070D5
:1003D0007C423E3E71C4B5B5CCAA666690D848480A
:1003E00006050303F701F6F61C120E0EC2A36161A7
:1003F0006A5F3535AEF9575769D0B9B91791868616
:100400009958C1C13A271D1D27B99E9ED938E1E1EF
:10041000EB13F8F82BB3989822331111D2BB69690A
:10042000A970D9D907898E8E33A794942DB69B9B3A
:100430003C221E1E15928787C920E9E98749CECE46
:10044000AAFF555550782828A57ADFDF038F8C8CBA
:1004500059F8A1A1098089891A170D0D65DABFBF66
:10046000D731E6E684C64242D0B8686882C34141CB
:1004700029B099995A772D2D1E110F0F7BCBB0B053
:10048000A8FC54546DD6BBBB2C3A161663C6A563A4
:100490007CF8847C77EE99777BF68D7BF2FF0DF20A
:1004A0006BD6BD6B6FDEB16FC59154C530605030F7
:1004B0000102030167CEA9672B567D2BFEE719FECB
:1004C000D7B562D7AB4DE6AB76EC9A76CA8F45CA04
:1004D000821F9D82C98940C97DFA877DFAEF15FA8E
:1004E00059B2EB59478EC947F0FB0BF0AD41ECAD6B
:1004F000D4B367D4A25FFDA2AF45EAAF9C23BF9CF3
:10050000A453F7A472E49672C09B5BC0B775C2B7E0
:10051000FDE11CFD933DAE93264C6A26366C5A369F
:100520003F7E413FF7F502F7CC834FCC34685C3413
:10053000A551F4A5E5D134E5F1F908F171E2937123
:10054000D8AB73D831625331152A3F1504080C0417
:10055000C79552C723466523C39D5EC3183028182C
:100560009637A196050A0F059A2FB59A070E090727
:1005700012243612801B9B80E2DF3DE2EBCD26EB9E
:10058000274E6927B27FCDB275EA9F7509121B0904
:10059000831D9E832C58742C1A342E1A1B362D1B47
:1005A0006EDCB26E5AB4EE5AA05BFBA052A4F652B7
:1005B0003B764D3BD6B761D6B37DCEB329527B296E
:1005C000E3DD3EE32F5E712F8413978453A6F5532A
:1005D000D1B968D100000000EDC12CED20406020B1
:1005E000FCE31FFCB179C8B15BB6ED5B6AD4BE6AAF
:1005F000CB8D46CBBE67D9BE39724B394A94DE4AA1
:100600004C98D44C58B0E858CF854ACFD0BB6BD06B
:10061000EFC52AEFAA4FE5AAFBED16FB4386C543BB
:100620004D9AD74D3366553385119485458ACF450C
:10063000F9E910F9020406027FFE817F50A0F05014
:100640003C78443C9F25BA9FA84BE3A851A2F351A4
:10065000A35DFEA34080C0408F058A8F923FAD927C
:100660009D21BC9D38704838F5F104F5BC63DFBCB2
:10067000B677C1B6DAAF75DA2142632110203010A7
:10068000FFE51AFFF3FD0EF3D2BF6DD2CD814CCD45
:100690000C18140C13263513ECC32FEC5FBEE15F6E
:1006A0009735A2974488CC44172E3917C49357C462
:1006B000A755F2A77EFC827E3D7A473D64C8AC64B4
:1006C0005DBAE75D19322B1973E6957360C0A060BF
:1006D000811998814F9ED14FDCA37FDC2244662292
:1006E0002A547E2A903BAB90880B8388468CCA465E
:1006F000EEC729EEB86BD3B814283C14DEA779DE18
:100700005EBCE25E0B161D0BDBAD76DBE0DB3BE097
:10071000326456323A744E3A0A141E0A4992DB4940
:10072000060C0A0624486C245CB8E45CC29F5DC2D7
:10073000D3BD6ED3AC43EFAC62C4A6629139A8912D
:100740009531A495E4D337E479F28B79E7D532E794
:10075000C88B43C8376E59376DDAB76D8D018C8DF4
:10076000D5B164D54E9CD24EA949E0A96CD8B46CE1
:1007700056ACFA56F4F307F4EACF25EA65CAAF653A
:100780007AF48E7AAE47E9AE08101808BA6FD5BA77
:1007900078F08878254A6F252E5C722E1C38241C30
:1007A000A657F1A6B473C7B4C69751C6E8CB23E8E1
:1007B000DDA17CDD74E89C741F3E211F4B96DD4B50
:1007C000BD61DCBD8B0D868B8A0F858A70E09070D1
:1007D0003E7C423EB571C4B566CCAA664890D84806
:1007E00003060503F6F701F60E1C120E61C2A361A3
:1007F000356A5F3557AEF957B969D0B98617918612
:10080000C19958C11D3A271D9E27B99EE1D938E1EB
:10081000F8EB13F8982BB3981122331169D2BB6906
:10082000D9A970D98E07898E9433A7949B2DB69B36
:100830001E3C221E87159287E9C920E9CE8749CE42
:1008400055AAFF5528507828DFA57ADF8C038F8CB6
:10085000A159F8A1890980890D1A170DBF65DABF62
:10086000E6D731E64284C64268D0B8684182C341C7
:100870009929B0992D5A772D0F1E110FB07BCBB04F
:1008800054A8FC54BB6DD6BB162C3A166363C6A5A0
:100890007C7CF8847777EE997B7BF68DF2F2FF0D06
:1008A0006B6BD6BD6F6FDEB1C5C5915430306050F3
:1008B000010102036767CEA92B2B567DFEFEE719C7
:1008C000D7D7B562ABAB4DE67676EC9ACACA8F4500
:1008D00082821F9DC9C989407D7DFA87FAFAEF158A
:1008E0005959B2EB47478EC9F0F0FB0BADAD41EC67
:1008F000D4D4B367A2A25FFDAFAF45EA9C9C23BFEF
:10090000A4A453F77272E496C0C09B5BB7B775C2DC
:10091000FDFDE11C93933DAE26264C6A36366C5A9B
:100920003F3F7E41F7F7F502CCCC834F3434685C0F
:10093000A5A551F4E5E5D134F1F1F9087171E2931F
:10094000D8D8AB733131625315152A3F0404080C13
:10095000C7C7955223234665C3C39D5E1818302828
:10096000969637A105050A0F9A9A2FB507070E0923
:100970001212243680801B9BE2E2DF3DEBEBCD269A
:1009800027274E69B2B27FCD7575EA9F0909121B00
:1009900083831D9E2C2C58741A1A342E1B1B362D43
:1009A0006E6EDCB25A5AB4EEA0A05BFB5252A4F6B3
:1009B0003B3B764DD6D6B761B3B37DCE2929527B6A
:1009C000E3E3DD3E2F2F5E71848413975353A6F526
:1009D000D1D1B96800000000EDEDC12C20204060AD
:1009E000FCFCE31FB1B179C85B5BB6ED6A6AD4BEAB
:1009F000CBCB8D46BEBE67D93939724B4A4A94DE9D
:100A00004C4C98D45858B0E8CFCF854AD0D0BB6B67
:100A1000EFEFC52AAAAA4FE5FBFBED16434386C5B7
:100A20004D4D9AD7333366558585119445458ACF08
:100A3000F9F9E910020204067F7FFE815050A0F010
:100A40003C3C78449F9F25BAA8A84BE35151A2F3A0
:100A5000A3A35DFE404080C08F8F058A92923FAD78
:100A60009D9D21BC38387048F5F5F104BCBC63DFAE
:100A7000B6B677C1DADAAF752121426310102030A3
:100A8000FFFFE51AF3F3FD0ED2D2BF6DCDCD814C41
:100A90000C0C181413132635ECECC32F5F5FBEE16A
:100AA000979735A2444488CC17172E39C4C493575E
:100AB000A7A755F27E7EFC823D3D7A476464C8ACB0
:100AC0005D5DBAE71919322B7373E6956060C0A0BB
:100AD000818119984F4F9ED1DCDCA37F222244668E
:100AE0002A2A547E90903BAB88880B8346468CCA5A
:100AF000EEEEC729B8B86BD31414283CDEDEA77914
:100B00005E5EBCE20B0B161DDBDBAD76E0E0DB3B93
:100B1000323264563A3A744E0A0A141E494992DB3C
:100B200006060C0A2424486C5C5CB8E4C2C29F5DD3
:100B3000D3D3BD6EACAC43EF6262C4A6919139A829
:100B4000959531A4E4E4D3377979F28BE7E7D53290
:100B5000C8C88B4337376E596D6DDAB78D8D018CF0
:100B6000D5D5B1644E4E9CD2A9A949E06C6CD8B4DD
:100B70005656ACFAF4F4F307EAEACF256565CAAF36
:100B80007A7AF48EAEAE47E908081018BABA6FD573
:100B90007878F08825254A6F2E2E5C721C1C38242C
:100BA000A6A657F1B4B473C7C6C69751E8E8CB23DD
:100BB000DDDDA17C7474E89C1F1F3E214B4B96DD4C
:100BC000BDBD61DC8B8B0D868A8A0F857070E090CD
:100BD0003E3E7C42B5B571C46666CCAA484890D802
:100BE00003030605F6F6F7010E0E1C126161C2A39F
:100BF00035356A5F5757AEF9B9B969D0868617910E
:100C0000C1C199581D1D3A279E9E27B9E1E1D938E7
:100C1000F8F8EB1398982BB3111122336969D2BB02
:100C2000D9D9A9708E8E0789949433A79B9B2DB632
:100C30001E1E3C2287871592E9E9C920CECE87493E
:100C40005555AAFF28285078DFDFA57A8C8C038FB2
:100C5000A1A159F8898909800D0D1A17BFBF65DA5E
:100C6000E6E6D731424284C66868D0B8414182C3C3
:100C7000999929B02D2D5A770F0F1E11B0B07BCB4B
:100C80005454A8FCBBBB6DD616162C3AA56363C69C
:100C9000847C7CF8997777EE8D7B7BF60DF2F2FF02
:100CA000BD6B6BD6B16F6FDE54C5C59150303060EF
:100CB00003010102A96767CE7D2B2B5619FEFEE7C3
:100CC00062D7D7B5E6ABAB4D9A7676EC45CACA8FFC
:100CD0009D82821F40C9C989877D7DFA15FAFAEF86
:100CE000EB5959B2C947478E0BF0F0FBECADAD4163
:100CF00067D4D4B3FDA2A25FEAAFAF45BF9C9C23EB
:100D0000F7A4A453967272E45BC0C09BC2B7B775D8
:100D10001CFDFDE1AE93933D6A26264C5A36366C97
:100D2000413F3F7E02F7F7F54FCCCC835C3434680B
:100D3000F4A5A55134E5E5D108F1F1F9937171E21B
:100D400073D8D8AB533131623F15152A0C0404080F
:100D500052C7C795652323465EC3C39D2818183024
:100D6000A19696370F05050AB59A9A2F0907070E1F
:100D7000361212249B80801B3DE2E2DF26EBEBCD96
:100D80006927274ECDB2B27F9F7575EA1B090912FC
:100D90009E83831D742C2C582E1A1A342D1B1B363F
:100DA000B26E6EDCEE5A5AB4FBA0A05BF65252A4AF
:100DB0004D3B3B7661D6D6B7CEB3B37D7B29295266
:100DC0003EE3E3DD712F2F5E97848413F55353A622
:100DD00068D1D1B9000000002CEDEDC160202040A9
:100DE0001FFCFCE3C8B1B179ED5B5BB6BE6A6AD4A7
:100DF00046CBCB8DD9BEBE674B393972DE4A4A9499
:100E0000D44C4C98E85858B04ACFCF856BD0D0BB63
:100E10002AEFEFC5E5AAAA4F16FBFBEDC5434386B3
:100E2000D74D4D9A5533336694858511CF45458A04
:100E300010F9F9E906020204817F7FFEF05050A00C
:100E4000443C3C78BA9F9F25E3A8A84BF35151A29C
:100E5000FEA3A35DC04040808A8F8F05AD92923F74
:100E6000BC9D9D214838387004F5F5F1DFBCBC63AA
:100E7000C1B6B67775DADAAF63212142301010209F
:100E80001AFFFFE50EF3F3FD6DD2D2BF4CCDCD813D
:100E9000140C0C18351313262FECECC3E15F5FBE66
:100EA000A2979735CC4444883917172E57C4C4935A
:100EB000F2A7A755827E7EFC473D3D7AAC6464C8AC
:100EC000E75D5DBA2B191932957373E6A06060C0B7
:100ED00098818119D14F4F9E7FDCDCA3662222448A
:100EE0007E2A2A54AB90903B8388880BCA46468C56
:100EF00029EEEEC7D3B8B86B3C14142879DEDEA710
:100F0000E25E5EBC1D0B0B1676DBDBAD3BE0E0DB8F
:100F1000563232644E3A3A741E0A0A14DB49499238
:100F20000A06060C6C242448E45C5CB85DC2C29FCF
:100F30006ED3D3BDEFACAC43A66262C4A891913925
:100F4000A495953137E4E4D38B7979F232E7E7D58C
:100F500043C8C88B5937376EB76D6DDA8C8D8D01EC
:100F600064D5D5B1D24E4E9CE0A9A949B46C6CD8D9
:100F7000FA5656AC07F4F4F325EAEACFAF6565CA32
:100F80008E7A7AF4E9AEAE4718080810D5BABA6F6F
:100F9000887878F06F25254A722E2E5C241C1C3828
:100FA000F1A6A657C7B4B47351C6C69723E8E8CBD9
:100FB0007CDDDDA19C7474E8211F1F3EDD4B4B9648
:100FC000DCBDBD61868B8B0D858A8A0F907070E0C9
:100FD000423E3E7CC4B5B571AA6666CCD8484890FE
:100FE0000503030601F6F6F7120E0E1CA36161C29B
:100FF0005F35356AF95757AED0B9B969918686170A
:1010000058C1C199271D1D3AB99E9E2738E1E1D9E3
:1010100013F8F8EBB398982B33111122BB6969D2FE
:1010200070D9D9A9898E8E07A7949433B69B9B2D2E
:10103000221E1E3C9287871520E9E9C949CECE873A
:10104000FF5555AA782828507ADFDFA58F8C8C03AE
:10105000F8A1A15980898909170D0D1ADABFBF655A
:1010600031E6E6D7C6424284B86868D0C3414182BF
:10107000B0999929772D2D5A110F0F1ECBB0B07B47
:10108000FC5454A8D6BBBB6D3A16162C6E74706413
:101090002070726F6365737320737461727465641A
:1010A0000A0008000000000000000000000000002E
:1010B0000000000000000000000000000000000030
:1010C0000000000000000000000000000000000020
:1010D0000000257325730A004F6E6C696E650A0067
:1010E0000A002C20636865636B207261746520259B
:1010F0007520487A0025732025732C206368616E63
:101100006E656C202575000A2A2A2A2A2A2A2A4274
:101110006F6F74696E672025732A2A2A2A2A2A2A61
:101120000A004641494C3A2D343720746F74616C83
:101130005F726561643D25640A004641494C3A2D61
:10114000343620723D25640A004641494C3A2D341C
:10115000352C20746F74616C5F726561643D256429
:1011600020723D25640A00436F756E743A25642C25
:1011700020723D25640A004641494C3A2D34312005
:10118000746F74616C5F726561643D25640A00462A
:1011900041494C3A2D343020723D25640A004641C5
:1011A000494C3A2D33392C20746F74616C5F726531
:1011B00061643D256420723D25640A00436F756EAD
:1011C000743A25642C20723D25640A004641494C3E
:1011D0003A2D333520746F74616C5F726561643DC4
:1011E00025640A004641494C3A2D333520723D258D
:1011F000640A00436F756E743A25642C20723D2595
:10120000640A006275665B25645D20213D202564CB
:101210000A0072203D2025640A00723D25642E20BC
:101220006275665B725D3D25640A00723D25640A45
:10123000000011241FBECFEFD0E4DEBFCDBF15E00C
:10124000A0E0B1E0E6E9F3E201E00BBF02C00790E5
:101250000D92A83DB107D9F713E3A8EDB5E001C0A1
:101260001D92AD3DB107E1F70E9441670C94C99111
:101270000C9400000F931F93DF93CF93CDB7DEB78D
:1012800060970FB6F894DEBF0FBECDBF8C01FC0196
:10129000808191818233910509F442C083339105A5
:1012A00008F093C0009721F08D9709F08EC009C017
:1012B0008AED95E061E772E00E9489378DE290E067
:1012C0002AC0683859F580E291E09A83898386E0E4
:1012D00098E39C838B8387E099E09E838D8380E0F5
:1012E0009AE098878F8380E091E19A87898782E2EC
:1012F0009FEF9C878B878EEF97E19E878D8784EA8F
:1013000096EC988B8F87CE0101966BEB71E00E9473
:10131000CB1B82E390E0F8019183808381E059C088
:1013200080914123681781F58091422380FF1EC080
:101330005093D9054093D8058AED95E06AEF70E0A7
:101340000E9489376091740170917501FB01DF0182
:101350000D900020E9F71197AE1BBF0B8091D805C7
:101360009091D905AD010E943B0CD3CF81FFD1CF25
:10137000E0913F23F091402380913D2390913E23C3
:10138000E80FF91F1082C5CF683819F68AED95E08D
:101390000E942236892B09F4BCCF609174017091B0
:1013A0007501FB01DF010D900020E9F71197AE1BDD
:1013B000BF0B8091D8059091D905AD010E943B0CDF
:1013C0008AED95E00E947337A4CFF8011182108254
:1013D00083E060960FB6F894DEBF0FBECDBFCF910D
:1013E000DF911F910F910895DC01233069F12530C1
:1013F00071F12130C1F550E0FC01E40FF51F80814F
:10140000833059F5FD01E40FF51F8181833029F503
:10141000FD01E40FF51F82A1992787FD90954D5D91
:101420005F4F480F591FFD01E40FF51F808188238E
:10143000B1F4FA013196EA0FFB1F8081883A79F402
:101440008181882381F00BC0672B69F00AC0A40F4B
:10145000B11D8C91813029F406C08FE2089588E295
:10146000089582E3089581E00895CF93DF93EC011E
:10147000243009F470C0253009F482C0223009F00C
:101480008BC050E0FC01E40FF51F8081833009F030
:101490007DC0FE01E40FF51F8181833009F076C025
:1014A000FE01E40FF51F22A1332727FD30954D5D86
:1014B0005F4F240F351F43525040DE01A20FB31F70
:1014C00011968C911197E82FFF27E7FDF0958C91ED
:1014D000992787FD9095982F8827E80FF91F2E5F91
:1014E0003F4FCB01821B930B841B950B8E179F07DD
:1014F00008F44EC0E0FF23C04BC012968C911297A7
:101500008823C9F413968C911397883AA1F42E0F6F
:101510003F1FFE01E20FF31F8081A82FBB27A7FD0D
:10152000B09561507040641B750B621B730B6A179A
:101530007B0770F42DC032972E5F3F4F1296E2303A
:10154000F105D8F627C081813196882329F11197BA
:101550001097C9F71FC0FC01E40FF11D218133274B
:1015600027FD30958081992787FD9095982F8827B2
:10157000280F391F625070402617370749F40CC0F6
:10158000C40FD11D8881813019F406C08FE205C0D7
:1015900082E303C088E201C081E0DF91CF9108952A
:1015A0000E945D398091F7059091F8050E940744EB
:1015B00008950F931F93082F162F8091E30588231A
:1015C00029F08091E60581508093E6051092E705A9
:1015D0001092E8051092EA051092E9051092EB05C9
:1015E0001092EC051092ED051092EE0582E696E061
:1015F0000E9468228091F601882321F48CE797E00D
:101600000E94893481E08093F601103541F080E733
:1016100097E067E070E00E94C434892B39F48FEEC4
:1016200091E067E070E00E94D00A18C080917407D2
:10163000909175079093FE058093FD05602F412FD3
:101640000E941B1D8091FD059091FE0567E070E0F2
:101650000E94D00A80E797E00E94893481E080935D
:10166000E2051F910F910895FC018281938190936F
:10167000F8058093F70581E060E00E94D90A08959B
:101680000F931F93CF93DF93E4E0F2E0EF01099013
:101690000020E9F72197CE1BDF0B40910A075091FC
:1016A0000B070D2FFA01D0831C2FC18390E09A0104
:1016B0002C0F3D1F0CC0FA01EA0FFB1F1282F9012B
:1016C000EA0FFB1FA60FB71F8C9184839F5FA92F82
:1016D000B0E0AC17BD0778F3F90102831383DF9103
:1016E000CF911F910F910895CF92DF92EF92FF92C9
:1016F0000F931F93DF93CF93CDB7DEB7C054D04085
:101700000FB6F894DEBF0FBECDBFDE011196E2E248
:10171000F6E080E201900D928150E1F7DE019196B2
:10172000E2E0F6E080E201900D928150E1F7E4E022
:10173000F2E001900020E9F760910A0770910B0731
:10174000E350F240EE0FFF1F8CE097E0AF0126E779
:1017500031E08E010F5F1F4FF0E4EF2EF12CE0E33C
:10176000CE2ED12C0E94331DC05CDF4F0FB6F894F3
:10177000DEBF0FBECDBFCF91DF911F910F91FF90C4
:10178000EF90DF90CF900895AF92BF92CF92DF920B
:10179000EF92FF920F931F93DF93CF93CDB7DEB7F6
:1017A000C856D0400FB6F894DEBF0FBECDBFDE01E5
:1017B0009996E2E0F6E080E201900D928150E1F727
:1017C000DE01A75BBF4FE2E2F6E080E201900D92FE
:1017D0008150E1F75E010894A11CB11CC5016CE0C9
:1017E00077E040E350E024E831E08E01075D1F4FD1
:1017F000E0E4EE2EF12CB8E2CB2ED12C0E94331D6A
:10180000ACE3B7E0F50180E101900D928150E1F782
:10181000A0E5B7E0FE01719680E101900D92815044
:10182000E1F789A19AA1ABA1BCA180934C07909349
:101830004D07A0934E07B0934F078DA19EA1AFA176
:10184000B8A58093600790936107A0936207B09357
:101850006307C859DF4F0FB6F894DEBF0FBECDBF88
:10186000CF91DF911F910F91FF90EF90DF90CF907C
:10187000BF90AF9008952F923F924F925F926F92D8
:101880007F928F929F92AF92BF92CF92DF92EF9210
:10189000FF920F931F93DF93CF93CDB7DEB76E9771
:1018A0000FB6F894DEBF0FBECDBFFC012B015D8FDC
:1018B0004C8F80910106873009F077C08281938137
:1018C0009093F8058093F7058091E305882359F1FB
:1018D0008091600790916107A0916207B0916307C2
:1018E0008B839C83AD83BE83809164078E8F209011
:1018F0006507309066076090670770906807809072
:10190000690790906A0710916B070FE0A02EB12C29
:10191000AC0EBD1EB7E0CB2ED12CCC0EDD1EA8E345
:10192000EA2EF12C09C080914C0790914D07A091AF
:101930004E07B0914F07D4CF2E8D322D432D562D0B
:10194000672D782D892D912F0E2D0E943E87F50150
:1019500021935F01F60121936F0188EF9FEFE80E5D
:10196000F91E98EFE9169FEFF90631F787E18F8BA3
:1019700083E089838A83FFE0EF2EF12CEC0EFD1EBD
:1019800089819A81998F888F8C8D9D8D9B8F8A8F6D
:10199000BC016B5E7F4F80E797E00E94C434892BC7
:1019A00039F482E060E50E94D90A2FEF3FEF1CC1B5
:1019B000C0907407D09075078091E305AE014D5F2C
:1019C0005F4F0C8D1D8D9601235F3F4F882321F0C3
:1019D000C90160E577E003C0C9016CE377E09201DB
:1019E0000E94002E892B29F480E797E00E94893419
:1019F000DCCF87E1F601808383E0818382838C8D55
:101A00009D8D409693838C8D805F848320916407A5
:101A100030916507409166075091670760916807AC
:101A20007091690780916A0790916B0708E30E94A3
:101A30003E87F60125832091640730916507409128
:101A400066075091670760916807709169078091F8
:101A50006A0790916B0700E30E943E87F601268398
:101A600020916407309165074091660750916707A0
:101A7000609168077091690780916A0790916B0780
:101A800008E20E943E87F601278320916407309187
:101A900065074091660750916707609168077091EC
:101AA000690780916A0790916B0700E20E943E8768
:101AB000F601208720916407309165074091660701
:101AC00050916707609168077091690780916A0774
:101AD00090916B0708E10E943E87F60121872091D3
:101AE00064073091650740916607509167076091E0
:101AF00068077091690780916A0790916B0700E110
:101B00000E943E87F6012287209164073091650785
:101B10004091660750916707609168077091690767
:101B200080916A0790916B0708E00E943E87F6015A
:101B300023878091640784878091640720916507DB
:101B4000309166074091670760916807E0916907E7
:101B5000A0916A0710916B07B82FBF5F91E0B8178B
:101B600008F090E0F92FF20F81E0F21708F080E022
:101B7000782F730F81E0731708F080E0582F540F0F
:101B800081E0541708F080E0382F360F81E03617D7
:101B900008F080E0282F2E0F81E02E1708F080E05B
:101BA000982F9A0F81E09A1708F080E0810FB09388
:101BB0006407F09365077093660750936707309347
:101BC00068072093690790936A0780936B076C8D71
:101BD0007D8D6B5E7F4FC6010E94D00A80E797E043
:101BE0000E94893421E030E0C9016E960FB6F89466
:101BF000DEBF0FBECDBFCF91DF911F910F91FF9040
:101C0000EF90DF90CF90BF90AF909F908F907F909C
:101C10006F905F904F903F902F9008958F929F927A
:101C2000AF92BF92CF92DF92EF92FF920F931F93EA
:101C3000DF93CF93CDB7DEB72C970FB6F894DEBF06
:101C40000FBECDBFFC018081843109F050C081817D
:101C5000882309F04CC08281882309F048C0838121
:101C60008C3009F044C08091E3055E010894A11C0A
:101C7000B11C14E0812E912C8E0E9F1E8823C1F082
:101C8000C5016CE077E040E350E022E931E002E496
:101C900016E0B0E2EB2EF12CACE0CA2ED12C0E9463
:101CA000331DC401B5014CE050E00E94F28D17C015
:101CB000C5016CE077E040E350E022EA31E002E465
:101CC00016E0F0E2EF2EF12CECE0CE2ED12C0E94AB
:101CD000331DC401B5014CE050E00E94F28D9C011F
:101CE00090E0232B09F091E081E0982701C090E07B
:101CF000892F2C960FB6F894DEBF0FBECDBFCF91C3
:101D0000DF911F910F91FF90EF90DF90CF90BF90E8
:101D1000AF909F908F9008958F929F92AF92BF92B5
:101D2000CF92DF92EF92FF920F931F93DF93CF93A7
:101D3000CDB7DEB7C95DD0400FB6F894DEBF0FBE99
:101D4000CDBF7C015B018A01D09001068091E30543
:101D500097E0D91609F09AC0882349F080914C0782
:101D600090914D07A0914E07B0914F0708C0809108
:101D7000600790916107A0916207B091630789871E
:101D80009A87AB87BC879701200F311FDE011D9614
:101D9000F90188E001900D928150E1F7DE0155963E
:101DA000F90188E001900D928150E1F787E18D8F74
:101DB00083E089838A8389819A819F8F8E8FA0EFA8
:101DC000CA2EAFEFDA2ECA0CDB1C9C2C8D2CCB82DA
:101DD000DC828B819C8199A388A38091F601882362
:101DE00021F48CE797E00E9489341092F6018CE789
:101DF00097E0692D782D0E94C434892B09F417C40B
:101E000060918007709181077093402360933F2316
:101E10008091E305AE01475F5F4FFE017596980123
:101E2000285F3F4F8501085010408823A9F02E0DF0
:101E30003F1DCB016CE377E07F010E943030892B9E
:101E400089F48CE797E00E94893482E064E10E9483
:101E5000D90A20E030E0DFC52E0D3F1DCB0160E543
:101E600077E0EACFD0923E23C0923D2382E0809378
:101E700042238091FB059091FC056091412340E055
:101E800050E00E94033421E030E0C5C5882309F406
:101E900074C3C7012D2D0E94350A982E82E0D816F2
:101EA00089F491E0991671F40E5F1F4FA2E2B6E03B
:101EB000F701E00FF11F0250104080E201900D92F7
:101EC0008150E1F780910106843039F581E0981660
:101ED00009F0A3C0F701E00FF11F2181332727FD8F
:101EE00030958081992787FD9095982F8827280F16
:101EF000391F3093F8012093F7010E5F1F4FA701A0
:101F0000400F511F02501040809102029091030235
:101F1000BA01A9010E94BC8D04C091E0991609F094
:101F20007CC080910106863009F08AC580914C07FB
:101F300090914D07A0914E07B0914F0789879A87DE
:101F4000AB87BC879701200F311FDE011D96F90179
:101F500088E001900D928150E1F7DE015596F9017C
:101F600088E001900D928150E1F786E18D8F83E04A
:101F700089838A8389819A819F8F8E8F80E190E007
:101F80009C838B8399A388A3B5016051704080E73F
:101F900097E00E94C434892B09F449C3C0907407A8
:101FA000D0907507085F1F4FE00EF11E88EF9FEF7E
:101FB000A80EB91EC6016CE377E0AE01475F5F4F24
:101FC00097018501E5E1EE2EF12CEC0EFD1E0E943D
:101FD0003030892B09F44BC3DE01D296E2E6F6E0FD
:101FE00088EA01900D928150E1F7CE01C29662E439
:101FF00076E00E948922C6010E940E0E813009F00F
:102000003EC380E797E00E94893482E696E0B601FD
:1020100040E150E00E94342313C582E0692D17CFC0
:1020200080E797E068E370E00E94C434892B09F4EC
:1020300020C480917407909175079093FE0580935A
:10204000FD050E94851EE091FD05F091FE05A2E0D0
:10205000B6E03B9680E201900D928150E1F76091ED
:10206000FD057091FE056B5F7F4F82E696E04AE2C8
:1020700050E00E9434236091FD057091FE056C5C78
:102080007F4F82E696E044E050E00E94342384E0F3
:10209000809301068091FD059091FE0568E370E054
:1020A0000E945D3980E797E00E948934ACC482EBDE
:1020B00091E061E070E00E94DA6B6C0197FD1AC15B
:1020C000A0900202B090030260E070E040E050E0B7
:1020D0000E9469678E010B5F1F4FC601B80141E086
:1020E00050E00E944D69FF24F394E12E12C0882332
:1020F00009F400C1C6016F2D70E040E050E00E947D
:102100006967C601602F7E2D41E050E00E944D6955
:10211000F3948D818C3359F7C6016F2D70E040E048
:1021200050E00E946967C601602F7E2D44E050E0B8
:102130000E944D69802F9E2D6EEB71E00E94E98D0B
:10214000009731F71F2D1C5FC601612F70E040E042
:1021500050E00E946967C601602F7E2D41E050E08B
:102160000E944D6935E0E32EF12CEC0EFD1E11C0EE
:10217000882309F4CBC01F5FC601612F70E040E0E7
:1021800050E00E946967C601B70141E050E00E943B
:102190004D698D818C3361F71F5FC601612F70E03F
:1021A00040E050E00E946967C601B70144E050E09A
:1021B0000E944D69C70163EC71E00E94E98D0097B0
:1021C00041F7135FC601612F70E040E050E00E94CC
:1021D0006967C601B70141E050E00E944D6900E027
:1021E00015C0F501E00FF11D8081981791F61F5F72
:1021F0000F5FC601612F70E040E050E00E94696708
:10220000C601B70141E050E00E944D699D819C33B9
:1022100041F725E0E22EF12CEC0EFD1E1F5FC601FA
:10222000612F70E040E050E00E946967C601B7018D
:1022300041E050E00E944D698D818C3379F71F5F3A
:10224000C601612F70E040E050E00E946967C6015E
:10225000B70144E050E00E944D69C70168EC71E0AD
:102260000E94E98D0097D1F61C5FA12EBB24C60108
:10227000B50140E050E00E946967C601B70141E046
:1022800050E00E944D6995E0E92EF12CEC0EFD1E08
:102290000EC01F5FC601612F70E040E050E00E9459
:1022A0006967C601B70141E050E00E944D698D8128
:1022B0008C3379F7E12EFF24EA18FB0886E797E0D4
:1022C000B7010E94C434892B09F4DAC300917A075C
:1022D00010917B07C601B50140E050E00E9469679C
:1022E000C601B801A7010E944D699FEFE9169FEF53
:1022F000F90649F486E797E061E070E00E94C43493
:1023000004E012E010C0E114F10419F482E063E784
:10231000B2C28EEFE8168FEFF80609F4AAC2009158
:102320007A0710917B07F80101900020E9F7E01B84
:10233000F10B3196EE0FFF1F80E797E0BF010E947F
:10234000C434892B09F495C2809174079091750764
:1023500090930B0780930A07B8010E94400B0E94DC
:10236000740B86E797E00E94893480E797E00E942B
:1023700089340DC30E94C40B0CC380E797E06BE265
:1023800070E00E94C434892B09F473C280917407F1
:10239000909175079093FE058093FD0560E070E0D5
:1023A0000E945E1C82E696E062E476E00E9489224A
:1023B00084E18AA31BA21CA28CE08DA3CE01869689
:1023C0006CE077E040E350E022EA31E002E416E01E
:1023D000B0E2EB2EF12CACE0CA2ED12C0E94331DC2
:1023E00010926407109265071092660710926707B3
:1023F000109268071092690710926A0710926B0793
:102400008091600790916107A0916207B091630786
:1024100089879A87AB87BC87DE011D96E4E6F7E0E3
:1024200088E001900D928150E1F7DE015596E4E6D7
:10243000F7E088E001900D928150E1F786E18D8F01
:1024400083E089838A8389819A819F8F8E8F80E13F
:1024500090E09C838B8399A388A38091FD05909144
:10246000FE05439660E577E0AE01475F5F4F9E0152
:102470002E5D3F4F00E110E0F5E1EF2EF12CEC0E68
:10248000FD1E0E94002E892B09F4EFC1E090640725
:10249000F090650700916607109167072091680723
:1024A0003091690740916A0750916B078091FD0553
:1024B0009091FE0566E070E0EDECCE2EE1E0DE2EC0
:1024C0000E94741C81E08093E4058091FD05909149
:1024D000FE056BE270E00E94D00A80E797E00E9460
:1024E0008934809164072091650730916607409197
:1024F000670760916807E0916907A0916A071091EA
:102500006B07B82FBF5F91E0B81708F090E0F92F84
:10251000F20F81E0F21708F080E0782F730F81E06E
:10252000731708F080E0582F540F81E0541708F01B
:1025300080E0382F360F81E0361708F080E0282F32
:102540002E0F81E02E1708F080E0982F9A0F81E07F
:102550009A1708F080E0810FB0936407F093650745
:102560007093660750936707309368072093690755
:1025700090936A0780936B0746C2C7012D2D0E9476
:10258000F409982E91E0D91691F4891709F045CDF8
:102590000E5F1F4FA2E0B6E0F701E00FF11F0250FF
:1025A000104080E201900D928150E1F704C081E07B
:1025B000981609F032CD80910106863009F050C29C
:1025C0008091600790916107A0916207B0916307C5
:1025D00089879A87AB87BC879701200F311FDE015F
:1025E0001D96F90188E001900D928150E1F7DE011E
:1025F0005596F90188E001900D928150E1F786E14E
:102600008D8F83E089838A8389819A819F8F8E8FC2
:1026100080E190E09C838B8399A388A3B5016051EE
:10262000704080E797E00E94C434892B19F482E05F
:1026300060E50DCCC0907407D0907507085F1F4F00
:10264000E00EF11E88EF9FEFA80EB91EC60160E5EF
:1026500077E0AE01475F5F4F97018501B5E1EB2E53
:10266000F12CEC0EFD1E0E943030892B19F480E70E
:1026700097E0E9CBC6010E940E0E813049F082E05E
:1026800068E20E94D90A80E797E00E948934E1CB92
:1026900080E797E00E948934E3C104E012E0F8018A
:1026A00001900020E9F7E350F240EE0FFF1F80E7B2
:1026B00097E0BF010E94C434892B09F4DAC08091ED
:1026C00074079091750790930B0780930A07B801E0
:1026D0000E94400B0E94740B80E797E00E948934AF
:1026E00083E08FC16091F7017091F8016A5C7F4FC0
:1026F00080E797E00E94C434892B09F4BAC0809126
:102700007407909175079093FE058093FD05609185
:102710000202709103024091F7015091F8010E946A
:10272000081C6091FD057091FE056B5F7F4F409125
:10273000F7015091F8014A5F5F4F82E696E00E94F0
:1027400034236091F7017091F801655F7F4F8091AC
:10275000FD059091FE050E945E1CDE01D296E2E628
:10276000F6E088EA01900D928150E1F782E696E06A
:1027700062E476E00E94892284E18AA31BA21CA263
:102780008CE08DA3CE0186966CE077E040E350E0CC
:1027900022E931E002E416E0E0E2EE2EF12CBCE0AA
:1027A000CB2ED12C0E94331D0E94C40B10926407C3
:1027B00010926507109266071092670710926807DB
:1027C0001092690710926A0710926B0780914C076C
:1027D00090914D07A0914E07B0914F0789879A8736
:1027E000AB87BC87DE011D96E4E6F7E088E0019048
:1027F0000D928150E1F7DE015596E4E6F7E088E0BE
:1028000001900D928150E1F786E18D8F83E08983FD
:102810008A8389819A819F8F8E8F80E190E09C834B
:102820008B8399A388A32091F7013091F801225E50
:102830003F4F8091FD059091FE05A2E2CA2ED12C5A
:10284000CC0EDD1E820F931F6CE377E0AE01475F75
:102850005F4F960100E110E0F5E1EF2EF12CEC0E58
:10286000FD1E0E94002E892B49F480E797E00E940C
:10287000893482E060E50E94D90AC5C08E010E5CF1
:102880001F4FC801B60140E150E00E943423C80147
:1028900062E476E00E9489226091F7017091F8016C
:1028A0006F5E7F4FE0906407F090650700916607C8
:1028B00010916707209168073091690740916A0776
:1028C00050916B078091FD059091FE05EDECCE2EA9
:1028D000E1E0DE2E0E94741C6091F7017091F80116
:1028E0006A5C7F4F8091FD059091FE050E94D00AA1
:1028F00080E797E00E948934809164072091650702
:10290000309166074091670760916807E091690719
:10291000A0916A0710916B07B82FBF5F91E0B817BD
:1029200008F090E0F92FF20F81E0F21708F080E054
:10293000782F730F81E0731708F080E0582F540F41
:1029400081E0541708F080E0382F360F81E0361709
:1029500008F080E0282F2E0F81E02E1708F080E08D
:10296000982F9A0F81E09A1708F080E0810FB093BA
:102970006407F09365077093660750936707309379
:1029800068072093690790936A0780936B0785E037
:1029900038C086E036C011E01093E505E0916E077F
:1029A000F0916F078CE497E09583848380E697E04D
:1029B000978386838CE397E09183808380E597E01B
:1029C00093838283A0916C07B0916D071196FC935D
:1029D000EE938091F7059091F80513969C938E9352
:1029E00012970E94A832682F8093412310934223AC
:1029F00040916C0750916D0780E090E00E94033495
:102A000087E08093010690E081E0981291E081E0F8
:102A10009827292F30E0C901C752DF4F0FB6F8942D
:102A2000DEBF0FBECDBFCF91DF911F910F91FF9001
:102A3000EF90DF90CF90BF90AF909F908F900895D0
:102A400080910106843009F432CB853018F482304D
:102A5000D1F6E6CA853009F48DCC8630A1F68DCC4E
:102A600080910106833009F43DCE843018F4813022
:102A700051F613CE853009F48CCF863021F68BCFFA
:102A80000EEFE02E0FEFF02E44CC7F928F929F92AC
:102A9000AF92BF92CF92DF92EF92FF920F931F936C
:102AA000CF93DF935C014B018091F105882351F1B5
:102AB0001092F105F5018181882319F481E060E02D
:102AC00035C28091E305882329F08091E605815085
:102AD0008093E6051092E7051092E8051092EA054A
:102AE0001092E9051092EB051092EC051092ED059D
:102AF0001092EE0582E696E00E94682281E08093C3
:102B0000E2056EC290910106892F8650823058F4FA
:102B1000C50140E050E00E948C0E20E030E00197BB
:102B200009F063C260C2953031F082E696E0B501EB
:102B3000A4010E9434238091E805813009F478C013
:102B4000813008F459C1823009F04DC2E090EB05A4
:102B5000F090EC050091ED051091EE05C401AA2757
:102B600097FDA095BA2F8E0D9F1DA01FB11F20911C
:102B7000F2053091F3054091F4055091F505821767
:102B80009307A407B507D8F16E2D10E009C0C60F52
:102B9000D11DF501E10FF11D808188836F5F1F5FFB
:102BA0002091F2053091F3054091F4055091F5051F
:102BB000862F90E0A0E0B0E0C091FF05D091000624
:102BC00082179307A407B50710F3CE01B90140E0BF
:102BD00050E00E948C0E019709F002C288E897E04D
:102BE0000E9489341092E705812F90E0881599059D
:102BF0000CF0F9C1881A990A8A0D9B1D33C19E2DCC
:102C000020E00CC0E091FF05F0910006E90FF11DF6
:102C1000AA0DBB1D8C9180839F5F2F5FA22FB0E018
:102C2000A815B9057CF3892F90E0A0E0B0E04BC176
:102C30009401442737FD4095542F8091EB059091E6
:102C4000EC05A091ED05B091EE05820F931FA41F36
:102C5000B51F0497A105B10510F0772445C060E0C9
:102C600011C0E091FF05F0910006EA0FFB1F809173
:102C7000EB059091EC05E80FF91FAA0DBB1D8C9197
:102C800080836F5FA62FB0E0A815B90554F380913B
:102C9000EB059091EC05A091ED05B091EE05820F4A
:102CA000931FA41FB51F0FC1E091FF05F09100060F
:102CB000EC0FFD1FE80FF91FCA0DDB1D8881808313
:102CC0008091EB059091EC05A091ED05B091EE059A
:102CD0000196A11DB11D8093EB059093EC05A09387
:102CE000ED05B093EE0573948091EB059091EC05A2
:102CF000A091ED05B091EE05C72DD0E0843091058F
:102D0000A105B10588F2F50183818093F2058281E6
:102D10008093F60581818093FA0588E897E00E9408
:102D2000893484010C1B1D0B6801EE24D7FCE09450
:102D3000FE2C2091F2053091F3054091F40550915D
:102D4000F505C216D306E406F506A8F588E897E06F
:102D5000B9010E94C434892B09F4E6C080918C0724
:102D600090918D07909300068093FF050BC0E09132
:102D7000FF05F0910006E20FF31FAA0DBB1D8C9119
:102D800080837394A72DB0E09D012C1B3D0BA815EB
:102D9000B9056CF3C901AA2797FDA095BA2F8093B6
:102DA000EB059093EC05A093ED05B093EE0582E062
:102DB0008093E70518C1C501B901AE010E948C0ED0
:102DC000019709F00DC18091F2059091F305A09152
:102DD000F405B091F5058C159D05AE05BF0508F00D
:102DE00002C11092E805C80FD91F081B190BC501B5
:102DF0008C0F9D1FB801F1C080910106823029F42B
:102E0000F50180818130A9F42FC0843029F4F501C7
:102E10008081803171F428C0813029F4F5018081EE
:102E2000823039F421C0833039F4F50180818E304D
:102E3000D9F082E06AE07AC08530B1F4C50161E082
:102E400070E040E050E00E948C0E019709F0C8C08D
:102E5000F2E08F1691040CF4C6C008948108910822
:102E6000C5010196B401B9C084E088169104A4F5A7
:102E700081E08093E80588E897E064E070E00E94D4
:102E8000C434892B09F450C080918C0790918D0730
:102E9000909300068093FF0590E00BC0E091FF0542
:102EA000F0910006EA0FFB1FAA0DBB1D8C918083D9
:102EB0009F5FA92FB0E0A815B90584F3C401AA2724
:102EC00097FDA095BA2F8093EB059093EC05A09306
:102ED000ED05B093EE0587C0F50183818093F2057F
:102EE00082818093F60581818093FA057401002721
:102EF000F7FC0095102F2091F2053091F3054091D9
:102F0000F4055091F505DA01C9010496A11DB11D22
:102F1000E816F9060A071B07E0F588E897E0B9010B
:102F20000E94C434892B29F482E060E50E94D90A0A
:102F300057C080918C0790918D07909300068093E5
:102F4000FF0594E00CC0E091FF05F0910006EA0F48
:102F5000FB1F3497AA0DBB1D8C9180839F5FA92F07
:102F6000B0E0A815B9057CF38CEF9FEF880E991E91
:102F7000C401AA2797FDA095BA2F8093EB059093E3
:102F8000EC05A093ED05B093EE0582E08093E80593
:102F90002AC0C501B90144E050E00E948C0E01979F
:102FA000F9F42091F2053091F3054091F405509128
:102FB000F505DA01C9010496A11DB11D8E159F0505
:102FC000A007B10780F4C90104966CEF7FEF621B84
:102FD000730B680D791D8A0D9B1D0E94451503C05A
:102FE00020E030E002C021E030E0C901DF91CF9164
:102FF0001F910F91FF90EF90DF90CF90BF90AF9017
:103000009F908F907F9008952F923F924F925F9262
:103010006F927F928F929F92AF92BF92CF92DF92E8
:10302000EF92FF920F931F93DF93CF9300D000D0C6
:103030000F92CDB7DEB7282FAB0180918C292817CE
:1030400009F0A5C28091E305882339F08091FB0542
:103050009091FC05622F0E9403348091E40588233F
:10306000E9F111E01093E505E0916E07F0916F072B
:103070008CE497E09583848380E697E0978386834A
:103080008CE397E09183808380E597E0938382834C
:10309000A0916C07B0916D071196FC93EE9380910F
:1030A000F7059091F80513969C938E9312970E94C2
:1030B000A832682F809341231093422340916C07DC
:1030C00050916D078091FB059091FC050E9403349F
:1030D00087E0809301061092E40559C2809155283B
:1030E00086FF31C08091E305882301F180915C283F
:1030F00090915D289093F8058093F7058091E605FF
:10310000813071F48FEE91E067E070E00E945D39EC
:1031100082E897E00E94893480E18093552837C285
:103120008F5F8093E6051092E70531C28091FD051F
:103130009091FE0562E370E00E94D00A82E897E079
:103140000E94893424C281FFEDC12DB73EB72A50B9
:1031500030400FB6F8943EBF0FBE2DBFEDB7FEB79F
:1031600031968E010F5F1F4FADB7BEB712961C93FD
:103170000E9311978EEC91E0938382838091D71404
:103180009091D814958384838091E1149091E214F6
:10319000978386838091DF149091E01491878087D4
:1031A0000E94428EEDB7FEB73A960FB6F894FEBF76
:1031B0000FBEEDBFC8010E948864A0905A28B0904D
:1031C0005B28C0904523D0904623BBEF2B2EBFEF4A
:1031D0003B2E882483948091E705813009F45DC0FB
:1031E000813008F400C1823009F0D1C14091E90575
:1031F0005091EA059601240F351F8091EF059091BB
:10320000F0052817390780F1242F10E009C0A80F16
:10321000B91FF501E10FF11D80818C932F5F1F5FB6
:10322000822F90E06091EF057091F005A091FD056F
:10323000B091FE058617970750F3CD010E94451502
:10324000019709F0A4C182E897E00E9489341092A6
:10325000E705812F90E08C159D050CF098C1A80E14
:10326000B91EC81AD90AB7CF942F20E00CC0E0913C
:10327000FD05F091FE05E90FF11DAA0DBB1D8C9116
:1032800080839F5F2F5FA22FB0E0AC15BD057CF35C
:103290009093E9051092EA057AC18091E905909131
:1032A000EA058C0D9D1D059710F0992432C020E091
:1032B0000DC0E091FD05F091FE05EA0FFB1FE80F40
:1032C000F91FAA0DBB1D8C9180832F5FA22FB0E048
:1032D0008091E9059091EA05AC15BD0554F38C0D7C
:1032E0009D1D9093EA058093E90551C1A80FB91F70
:1032F000A00FB11F0A0D1B1DF80180818C938091D6
:10330000E9059091EA0501969093EA058093E90515
:1033100093948091E9059091EA05A091FD05B09103
:10332000FE05092D10E08530910500F313967C9081
:103330001397662414968C919301280F311D3093B6
:10334000F0052093EF0582E897E00E94893476012A
:10335000E01AF10A6091EF057091F005E616F706A4
:1033600040F582E897E00E94C434892B09F498C0A4
:1033700080918607909187079093FE058093FD05C5
:103380000BC0E091FD05F091FE05E80FF91FAA0DB5
:10339000BB1D8C9180839394A92DB0E0CD01801B3F
:1033A000910BAC15BD056CF39093EA058093E9058C
:1033B0009DC0C501800F911F0E944515019709F01E
:1033C000E6C02091EF053091F0052E153F0508F07D
:1033D000DEC01092E705020F131FA00EB11E670199
:1033E000C21AD30AF8CED5018C91853119F4809296
:1033F000F10512C090910106953049F0973051F0D7
:10340000863151F082E06AE00E94D90AC0C084315E
:1034100019F0F8CF8731B1F7B5E0CB16D10454F5E8
:1034200081E08093E70582E897E065E070E00E9424
:10343000C434892BA9F180918607909187079093D6
:10344000FE058093FD0590E00BC0E091FD05F09135
:10345000FE05EA0FFB1FAA0DBB1D8C9180839F5FA9
:10346000A92FB0E0AC15BD0584F3D092EA05C09257
:10347000E9058DC0F501538044248481B201680FB1
:10348000711D7093F0056093EF05CB010596C8168A
:10349000D90680F582E897E00E94C434892B19F49C
:1034A00082E060E5B1CF8091860790918707909385
:1034B000FE058093FD0595E00CC0E091FD05F091BF
:1034C000FE05EA0FFB1F3597AA0DBB1D8C9180836B
:1034D0009F5FA92FB0E0AC15BD057CF32BEF3FEF4C
:1034E000C20ED31ED092EA05C092E90582E0809315
:1034F000E7054DC0C50105960E944515019709F0E5
:1035000046C02091EF053091F005C90105968C1554
:103510009D05E8F5A80EB91EC101821B930BC80ECC
:10352000D91E59CE84FF33C08091E305882339F03A
:103530008091E60581508093E60582E001C081E03C
:10354000809301061092E7051092E8051092EA05B3
:103550001092E9051092EB051092EC051092ED0522
:103560001092EE058091F601882321F48CE797E014
:103570000E94893411E01093F60184E997E00E94DB
:1035800089348EE897E00E9489341093E2050F9009
:103590000F900F900F900F90CF91DF911F910F918F
:1035A000FF90EF90DF90CF90BF90AF909F908F9063
:1035B0007F906F905F904F903F902F900895CF93A2
:1035C000DF93EC01FA01288139812115310521F0C1
:1035D000275C344029F516C08091A2079091A3077B
:1035E0009093FA058093F905818190810E94A74606
:1035F00082E696E00E94682287EC94E099838883B3
:1036000081E011C0862FBA010E9404188091E20562
:10361000882391F31092E20580E180935528ECCF46
:103620001982188283E0DF91CF910895CF93DF93C1
:10363000EC0188819981009729F0835B944009F01F
:1036400059C049C08091A2079091A3079093FA05B1
:103650008093F905FA01728163818081918140E054
:1036600050E00E94C4469093F8058093F70582E6E7
:1036700096E00E94682282E897E062E370E00E9490
:10368000C4340197B9F5809186079091870790938C
:10369000FE058093FD050E94FC1DE091FD05F09163
:1036A000FE05A2E2B6E03B9680E201900D928150C9
:1036B000E1F76091FD057091FE056B5F7F4F82E63B
:1036C00096E04DE250E00E94342383EB94E099832E
:1036D000888381E012C08091E205882331F080E187
:1036E000809355281092E20505C0862FBA010E94EA
:1036F0000418EBCF1982188283E0DF91CF910895EF
:10370000DF93CF9300D0CDB7DEB79A838983623041
:10371000D0F581E08093E30582E080930106609319
:10372000F60584E997E068E070E00E94C434892BD4
:1037300051F1809198079091990790936F0780932A
:103740006E078EE897E064E070E00E94C434892B35
:10375000D1F0809192079091930790936D07809399
:103760006C078091A2079091A3079093FC0580932A
:10377000FB0585EE91E0BE016F5F7F4F0E943634FE
:1037800020E030E002C02FEF3FEFC9010F900F9013
:10379000CF91DF910895DF93CF9300D000D0CDB7C4
:1037A000DEB71092E30521E0209301069A83898316
:1037B0007C836B8384E997E068E070E00E94C43406
:1037C000892BF9F0809198079091990790936F0752
:1037D00080936E078EE897E064E070E00E94C43446
:1037E000892B79F0809192079091930790936D07C0
:1037F00080936C0789ED91E0BE016F5F7F4F0E945F
:1038000036340F900F900F900F90CF91DF91089565
:10381000CF92DF92EF92FF920F931F93CF93DF939C
:103820007C016B01EA01FC0186E1819383E0D70111
:1038300011968C93DF0111968183FD013196CA01A7
:10384000069611969C93DF0111968183FD013196B6
:1038500080E111968C938F010F5F1F4F22969E017E
:1038600040E050E022971182B8016F5F7F4FBB2785
:10387000A52F942F832FF8018183FB013196DB0163
:1038800011962C93D183C283D70120E030E009C088
:10389000F601E20FF31F80811A968C931A972F5F1F
:1038A0003F4F11962C173D0798F3DF91CF911F9151
:1038B0000F91FF90EF90DF90CF900895FB01E80FFC
:1038C000F91FDF0184E18D9383E08183FD0131964F
:1038D00011968C93DF011196118281E011968C93E1
:1038E000119712968C9308954F925F927F928F92C8
:1038F0009F92AF92BF92CF92DF92EF92FF920F937F
:103900001F93DB01B02EA22E932E842E752EA80FAE
:10391000B91FFD0186E1819383E011968C93DF014D
:1039200011968183FD01319611961C926F010894C6
:10393000C11CD11C80E2818326010894411C511CCA
:103940009701402F512F6A2D792D882D972D08E34F
:103950000E943E87F601218362010894C11CD11C9C
:1039600097014B2D512F6A2D792D882D972D00E32E
:103970000E943E87F201218326010894411C511CBC
:1039800097014B2D512F6A2D792D882D972D08E207
:103990000E943E87F601218362010894C11CD11C5C
:1039A00097014B2D512F6A2D792D882D972D00E2EF
:1039B0000E943E87F201218326010894411C511C7C
:1039C00097014B2D512F6A2D792D882D972D08E1C8
:1039D0000E943E87F601218362010894C11CD11C1C
:1039E00097014B2D512F6A2D792D882D972D00E1B0
:1039F0000E943E87F201218397014B2D512F6A2DA2
:103A0000792D882D972D08E00E943E87F6012183AD
:103A10000894C11CD11CF601E1821F910F91FF9007
:103A2000EF90DF90CF90BF90AF909F908F907F905E
:103A30005F904F900895DC01FC0185E1819383E064
:103A400011968C93DF0111968183FD0131961196B9
:103A50001C92DF01119682E0818311966C9311977D
:103A600012964C9308952F923F924F925F926F92CD
:103A70007F928F929F92AF92BF92CF92DF92EF92FE
:103A8000FF920F931F93DF93CF93CDB7DEB7C2544E
:103A9000D3400FB6F894DEBF0FBECDBF2C01490155
:103AA000CF5BDC4F0883C154D340CE5BDC4F18831F
:103AB000C254D340170136018E010F5D1F4FC8015C
:103AC0000E948A24D4010D900020E9F71197A819CB
:103AD000B909C801B401AD010E942A24C801CF5B15
:103AE000DC4F6881C154D340CE5BDC4F7881C25437
:103AF000D340A7010E942A245E010894A11CB11C96
:103B0000C801B50140E250E00E942D24CC24DD2400
:103B1000F02E012FC501EA2C192F4EC08F2D902FAA
:103B20000E9475248F2D902F6E2D712F40E250E052
:103B30000E942A24D4010D900020E9F71197A819BA
:103B4000B9098F2D902FB401AD010E942A248F2D29
:103B5000902FCF5BDC4F6881C154D340CE5BDC4FEC
:103B60007881C254D340A1010E942A24B2016C0D75
:103B70007D1DA3014C195D094132510514F040E24D
:103B800050E08F2D902F0E942D248F2D902F0E947A
:103B900075248F2D902F6E2D712F40E250E00E94E2
:103BA0002A248F2D902FB50140E250E00E942D2451
:103BB00080E290E0C80ED91EC614D7040CF4AECF34
:103BC00081E090E0CE5BDC4F0FB6F894DEBF0FBE15
:103BD000CDBFCF91DF911F910F91FF90EF90DF90BC
:103BE000CF90BF90AF909F908F907F906F905F909D
:103BF0004F903F902F900895CF92DF92EF92FF92D7
:103C00000F931F93CF93DF936C01FC0186E18193A7
:103C100093E0D60111969C93DF0111969183FD01EB
:103C2000319611961C929F012F5F3F4F8DE2818349
:103C3000D901119681E0F9018183FD013196119638
:103C40001C92DF01119611829D012F5F3F4F89E287
:103C500011968C93F9013196D90111969C938F019D
:103C60000F5F1F4F918378010894E11CF11C0E94A3
:103C70001063292F332744275527F8012183D701C3
:103C800011969C0144275527F7012183FD013196A8
:103C9000272F382F492F552711962C9361838F0199
:103CA0000E5F1F4F0E9463740E949737E6019CE1EC
:103CB000E92EF12CEC0CFD1C0E9494378F778F8736
:103CC0002196CE15DF05C1F7D8015C961C925C9752
:103CD0005D961C925D9782E05E968C935E975F96F0
:103CE0001C925F9788EA90968C93909781E09196CA
:103CF0008C93919792961C92DF91CF911F910F9187
:103D0000FF90EF90DF90CF900895CF92DF92EF92E7
:103D1000FF920F931F93CF93DF936C01FC0186E119
:103D2000819393E0D60111969C93DF0111969183C4
:103D3000FD01319611961C929F012F5F3F4F8AE241
:103D40008183D901119682E0F9018183FD013196C9
:103D500011961C92DF01119611829D012F5F3F4F3A
:103D600086E211968C93F9013196D90111969C93B4
:103D70008F010F5F1F4F918378010894E11CF11CA4
:103D80000E941063292F332744275527F8012183E8
:103D9000D70111969C0144275527F7012183FD0186
:103DA0003196272F382F492F552711962C93618351
:103DB000EF0122960E9463740E94973786015CE1AE
:103DC000E52EF12CEC0CFD1C0E9494378F77D80166
:103DD0001F968C930F5F1F4F0E151F05A9F71C8EA2
:103DE0001D8E88EA8E8F1F8E86E188A383E089A3CB
:103DF0008AA31BA284E08CA38EE08DA31EA21FA227
:103E000018A6DF91CF911F910F91FF90EF90DF9057
:103E1000CF9008952F923F924F925F926F927F9230
:103E20008F929F92AF92BF92CF92DF92EF92FF92CA
:103E30000F931F93DF93CF93CDB7DEB7CE53D1400F
:103E40000FB6F894DEBF0FBECDBFC15DDE4F7983E4
:103E50006883CF52D140CF5CDE4F59834883C15332
:103E6000D140C75DDE4F19821882C952D1409E01F0
:103E70002F5D3F4FC35CDE4F39832883CD53D14044
:103E8000A9014C5D5F4FC95CDE4F59834883C7531E
:103E9000D140DE01AB5FBE4FC55CDE4FB983A88366
:103EA000CB53D14088579F4FC75CDE4F998388839F
:103EB000C953D140E3C2C75DDE4F08811981C952A1
:103EC000D14026E0000F111F2A95E1F7C15DDE4FBA
:103ED000E881F981CF52D1400E0F1F1F9E012F5D47
:103EE0003F4FCD5DDE4F39832883C352D1407901E6
:103EF00060E070E0FB01EE0FFF1FEE0FFF1FE00F11
:103F0000F11F208130E040E050E0522F442733275A
:103F10002227838190E0A0E0B0E0282B392B4A2BA8
:103F20005B2B828190E0A0E0B0E0BA2FA92F982F00
:103F30008827282B392B4A2B5B2B818190E0A0E02E
:103F4000B0E0DC0199278827282B392B4A2B5B2BE3
:103F5000D7012D933D934D935D937D016F5F7F4F0F
:103F60006031710539F6C95CDE4FE881F981C753CC
:103F7000D140A488B588C688D788CD5DDE4FA8819A
:103F8000B981C352D14014966D907D908D909C90D4
:103F900017972D903D904D905D90CD5DDE4FB9838C
:103FA000A883C352D14080819181A281B381280E20
:103FB000391E4A1E5B1ED601C50103E1B695A795C1
:103FC000979587950A95D1F7A60195011DE0220FD7
:103FD000331F441F551F1A95D1F7822B932BA42B07
:103FE000B52BA601950171E1569547953795279513
:103FF0007A95D1F7860175016FE0EE0CFF1C001F6A
:10400000111F6A95D1F72E293F29402B512B82276A
:104010009327A427B5272AE0D694C794B794A794EA
:104020002A95D1F78A259B25AC25BD25280E391E5A
:104030004A1E5B1ED401C30102E1B695A795979570
:1040400087950A95D1F7A40193011EE0220F331F33
:10405000441F551F1A95D1F7822B932BA42BB52BF8
:10406000A401930177E056954795379527957A9562
:10407000D1F78401730169E1EE0CFF1C001F111FD1
:104080006A95D1F72E293F29402B512B8227932760
:10409000A427B52723E096948794779467942A956C
:1040A000D1F786259725A825B925280E391E4A1E41
:1040B0005B1E248E358E468E578E3496C55CDE4F41
:1040C00028813981CB53D140E217F30709F051CF52
:1040D000C75CDE4F48815981C953D140C95DDE4F6D
:1040E00059834883C752D140CE010196CB5DDE4F44
:1040F00099838883C552D140FA01CF5DDE4F998301
:104100008883C152D1402191319141915191CF5D2C
:10411000DE4FA881B981C152D1402D933D934D937B
:104120005D93CF5DDE4FB983A883C152D140C35C9C
:10413000DE4F28813981CD53D140A217B30719F73B
:1041400060E070E0A988BA88CB88DC88898D9A8D78
:10415000AB8DBC8DC55DDE4F88839983AA83BB83FD
:10416000CB52D140FB01EB5BFD4F20803180428080
:1041700053808D8D9E8DAF8DB8A1280E391E4A1E9D
:104180005B1EE1E2F0E0EC0FFD1FE60FF71F808100
:104190009181A281B381280E391E4A1E5B1EA601A1
:1041A00095010BE056954795379527950A95D1F7D8
:1041B000D601C50115E1880F991FAA1FBB1F1A95CB
:1041C000D1F7282B392B4A2B5B2BD601C501F6E002
:1041D000B695A79597958795FA95D1F786017501BC
:1041E000EAE1EE0CFF1C001F111FEA95D1F78E29A2
:1041F0009F29A02BB12B282739274A275B27D601D7
:10420000C501F9E1B695A79597958795FA95D1F7E8
:1042100086017501E7E0EE0CFF1C001F111FEA95F7
:10422000D1F78E299F29A02BB12B282739274A2780
:104230005B27220E331E441E551ED601C5018095F4
:104240009095A095B095C55DDE4F288139814A8152
:104250005B81CB52D14082239323A423B5232D89A4
:104260003E894F89588DCD5CDE4F288339834A8340
:104270005B83C353D1402A213B214C215D218227FE
:104280009327A427B527280E391E4A1E5B1E698076
:104290007A808B809C80ED80FE800F811885298537
:1042A0003A854B855C85C55DDE4F88819981AA8101
:1042B000BB81CB52D1408D8F9E8FAF8FB8A3CD5C89
:1042C000DE4F88819981AA81BB81C353D140898FF8
:1042D0009A8FAB8FBC8FAD8ABE8ACF8AD88E8D85E0
:1042E0009E85AF85B889820D931DA41DB51D898B50
:1042F0009A8BAB8BBC8B2D873E874F87588BE9867B
:10430000FA860B871C876D827E828F829886570182
:104310006801A226B326C426D526A620B720C82029
:10432000D9202E213F2140235123A226B326C42683
:10433000D526A40193010DE056954795379527950D
:104340000A95D1F7D401C30113E1880F991FAA1F61
:10435000BB1F1A95D1F7282B392B4A2B5B2BD40185
:10436000C301F2E0B695A79597958795FA95D1F791
:1043700084017301EEE1EE0CFF1C001F111FEA9592
:10438000D1F78E299F29A02BB12B282739274A271F
:104390005B27D401C301FAE0880F991FAA1FBB1F36
:1043A000FA95D1F7E6E19694879477946794EA9525
:1043B000D1F786299729A829B929282739274A27F3
:1043C0005B27A20EB31EC41ED51EA20CB31CC41CB8
:1043D000D51CA982BA82CB82DC826C5F7F4F91E0D0
:1043E0006030790709F0AECEC95DDE4FE881F98112
:1043F000C752D14080819181A281B381CB5DDE4FD4
:10440000E881F981C552D140219131914191519179
:10441000CB5DDE4FF983E883C552D140820F931FF5
:10442000A41FB51FC95DDE4FE881F981C752D14095
:1044300081939193A193B193C95DDE4FF983E88392
:10444000C752D140CB5DDE4F28813981C552D14062
:10445000CF5DDE4F48815981C152D14024173507C5
:1044600019F6C75DDE4F88819981C952D140019606
:10447000C75DDE4F99838883C952D140C75DDE4F47
:10448000A881B981C952D140CF5CDE4FE881F98162
:10449000C153D140AE17BF070CF40DCDC25CDE4F47
:1044A0000FB6F894DEBF0FBECDBFCF91DF911F9145
:1044B0000F91FF90EF90DF90CF90BF90AF909F90C3
:1044C0008F907F906F905F904F903F902F900895C6
:1044D000CF93DF93EC01E5E2F2E09C0128573F4FD8
:1044E0004191519161917191D9014D935D936D937A
:1044F0007D939D01B2E0E534FB0791F71C821D829C
:104500001E821F82188219821A821B82DF91CF912C
:1045100008954F925F926F927F928F929F92AF9287
:10452000BF92CF92DF92EF92FF920F931F93CF93A0
:10453000DF93EC012B012C813D814E815F81DA01FB
:10454000C9018F739070A070B070C897A105B105B4
:1045500030F471E0672E712C812C912C05C062E043
:10456000662E712C812C912CA880B980CA80DB80AA
:10457000A20EB31EC41ED51E93E0AA0CBB1CCC1CFD
:10458000DD1C9A95D1F78401730186E0EE0CFF1CC7
:10459000001F111F8A95D1F7F701E21BF30B285F6B
:1045A0003F4F2C0F3D1FC90160E070E0AF010E943A
:1045B000D78DEC81FD81EC0FFD1F80E88087EC0E2C
:1045C000FD1EF701A782BB27AD2D9C2D8B2D868369
:1045D000C601AA27BB278583AD2CBB24CC24DD24B0
:1045E000A482CE012896BE01A3010E940A1FC058D2
:1045F000DF4F20E030E0F901EE0FFF1FEE0FFF1F4D
:10460000E40DF51D8881838388819981AA81BB810E
:10461000892F9A2FAB2FBB27828388819981AA810A
:10462000BB81CD01AA27BB27818389919991A9914B
:10463000B9918B2F9927AA27BB2780832F5F3F4FE4
:1046400028303105C1F6DF91CF911F910F91FF9076
:10465000EF90DF90CF90BF90AF909F908F907F9022
:104660006F905F904F9008954F925F926F927F92FC
:104670008F929F92AF92BF92CF92DF92EF92FF9272
:104680000F931F93CF93DF93EC016B010C811D817E
:104690002E813F814A01AA24BB2480E490E0A0E05F
:1046A000B0E0801B910BA20BB30B240135018815E0
:1046B0009905AA05BB0510F42C013D019801285F5E
:1046C0003F4F2C0F3D1FC901B601A2010E94BC8DB6
:1046D0008C819D81AE81BF81880D991DAA1DBB1D56
:1046E00080349105A105B10528F48C839D83AE83A8
:1046F000BF8350C084189508A608B70885017401C7
:10470000B6E016950795F794E794BA95D1F74C0C57
:104710005D1CA8E06A2E712C6C0E7D1ECE01B301CB
:1047200041E050E00E940A1F6701CE01B201A701DB
:104730000E940A1F8FE390E0A0E0B0E08822992257
:10474000AA22BB22F6E0CC0CDD1CFA95E1F7C40CE2
:10475000D51CC301B601A4010E94BC8D8C829D8230
:10476000AE82BF820894E11CF11C011D111DE6E020
:10477000EE0CFF1C001F111FEA95D1F7888199816B
:10478000AA81BB818E0D9F1DA01FB11F88839983B5
:10479000AA83BB83DF91CF911F910F91FF90EF9080
:1047A000DF90CF90BF90AF909F908F907F906F9051
:1047B0005F904F900895AF92BF92CF92DF92EF92A9
:1047C000FF920F931F93DF93CF93CDB7DEB7C85AF5
:1047D000D0400FB6F894DEBF0FBECDBF7C016B0199
:1047E0005A01E5E2F2E09E0127573F4F4191519176
:1047F00061917191D9014D935D936D937D939D016D
:10480000B2E0E534FB0791F71D821E821F821886F5
:1048100019821A821B821C828E010F5F1F4FC801F2
:10482000B701A6010E943423C801B5010E94892264
:10483000C855DF4F0FB6F894DEBF0FBECDBFCF9186
:10484000DF911F910F91FF90EF90DF90CF90BF907D
:10485000AF9008950E9434230895AF92BF92CF92F3
:10486000DF92EF92FF920F931F93DF93CF93CDB719
:10487000DEB7C054D0400FB6F894DEBF0FBECDBF38
:104880007C01D62EC72EB42EA52E8E010F5F1F4F92
:10489000B8010E94892288EA90E0E80EF91EC7015B
:1048A000B80140E250E00E9434238E010F5D1F4F9B
:1048B000C701B8010E9489228D2D9C2DB8014B2D76
:1048C0005A2D0E94BC8DC05CDF4F0FB6F894DEBF3E
:1048D0000FBECDBFCF91DF911F910F91FF90EF9051
:1048E000DF90CF90BF90AF900895DC01FC01E05BBA
:1048F000FE4F28EA01900D922150E1F7DC01A85506
:10490000BF4FFC01E850FE4F88EA01900D928150A4
:10491000E1F70895AF92BF92CF92DF92EF92FF92AC
:104920000F931F93DF93CF93CDB7DEB7A0970FB64A
:10493000F894DEBF0FBECDBF6C014034510529F4A1
:104940005B0190E4E92EF12C34C04134510518F498
:104950007A015B010CC0CB01BA018E010F5F1F4FC2
:10496000A8010E94DB2380E2E82EF12C580100E42C
:1049700010E00E191F0980EA92E0E80EF91E960178
:104980002E0D3F1DC90166E370E0A8010E94D78D7E
:1049900080E490E0E80EF91E96012E0D3F1D80E2A6
:1049A0009DEFE80EF91EC9016CE570E0A8010E94B8
:1049B000D78DD501860100561D4FF80120E030E06B
:1049C00046E39CE50BC08C9184278083E05CFF4F1D
:1049D0008D91892780832F5F3F4FFF972E153F05CD
:1049E00094F3C6010E946822C601B80140E450E079
:1049F0000E943423860108551F4FC8010E94682277
:104A0000B60160527D4FC80140E450E00E9434235B
:104A1000D601A05BBE4FF60188EA01900D9281504D
:104A2000E1F7D601A850BE4FF80188EA01900D9237
:104A30008150E1F7A0960FB6F894DEBF0FBECDBF50
:104A4000CF91DF911F910F91FF90EF90DF90CF906A
:104A5000BF90AF9008958F929F92AF92BF92CF92E6
:104A6000DF92EF92FF920F931F93DF93CF93CDB717
:104A7000DEB7C052D3400FB6F894DEBF0FBECDBF35
:104A8000FC01DB015A0149016E010894C11CD11CD3
:104A9000C601BF01AD010E948A24C601B501A4016F
:104AA0000E943423C601B801A7010E942D24C05ED4
:104AB000DC4F0FB6F894DEBF0FBECDBFCF91DF91B4
:104AC0001F910F91FF90EF90DF90CF90BF90AF902C
:104AD0009F908F900895FC01EE0FFF1FEE0FFF1FB8
:104AE000E457F34F2591359145915491B901CA018D
:104AF0000895FC01EE0FFF1FEE0FFF1FE457F74F65
:104B00002591359145915491B901CA010895FC014F
:104B1000EE0FFF1FEE0FFF1FE457FB4F259135915E
:104B200045915491B901CA010895FC01EE0FFF1F90
:104B3000EE0FFF1FE457FF4F25913591459154919A
:104B4000B901CA0108952F923F924F925F926F92DE
:104B50007F928F929F92AF92BF92CF92DF92EF920D
:104B6000FF920F931F93DF93CF9300D000D000D01C
:104B7000CDB7DEB7FC01009709F47FC1611571055F
:104B800009F47BC160517F4F8AE0DB018C93605F49
:104B90007040238130E040E050E0808190E0A0E070
:104BA000B0E0B82FAA2799278827282739274A272E
:104BB0005B27818190E0A0E0B0E0DC0199278827A5
:104BC000282739274A275B27828190E0A0E0B0E0C0
:104BD000BA2FA92F982F8827282739274A275B27FC
:104BE000DB012D933D934D935C931397248130E02B
:104BF00040E050E0522F442733272227858190E060
:104C0000A0E0B0E0DC0199278827282739274A2728
:104C10005B27878190E0A0E0B0E0282739274A276A
:104C20005B27868190E0A0E0B0E0BA2FA92F982FF3
:104C30008827282739274A275B27DB0114962D93DD
:104C40003D934D935C931797208530E040E050E012
:104C5000522F442733272227818590E0A0E0B0E03F
:104C6000DC0199278827282739274A275B2783854E
:104C700090E0A0E0B0E0282739274A275B2782850B
:104C800090E0A0E0B0E0BA2FA92F982F882728271E
:104C900039274A275B27DB0118962D933D934D93C7
:104CA0005C931B97248530E040E050E0522F44276E
:104CB00033272227858590E0A0E0B0E0DC0199272A
:104CC0008827282739274A275B27878590E0A0E097
:104CD000B0E0282739274A275B27868590E0A0E0A7
:104CE000B0E0BA2FA92F982F8827282739274A27DD
:104CF0005B27FB0124873587468757877E836D8333
:104D000065E473E0AD81BE811C962D913D914D917E
:104D10005C911F9729833A834B835C83CA01AA273E
:104D2000BB27FC01F070EE0FFF1FEE0FFF1FE457D3
:104D3000FB4F2590359045905490BB27A52F942F7D
:104D4000832FFC01F070EE0FFF1FEE0FFF1FE457E3
:104D5000FF4F659075908590949089819A819070AD
:104D6000880F991F880F991F8457934FFC01A590B6
:104D7000B590C590D490852F9927AA27BB27FC0111
:104D8000EE0FFF1FEE0FFF1FE457F74FE590F59072
:104D900005911491FB0181919191A191B191BF0174
:104DA000ED81FE81208131814281538182279327C9
:104DB000A427B52720E030E040E05FEF2222332235
:104DC0004422552282259325A425B52520E030E0F4
:104DD0004FEF50E062227322842295228625972588
:104DE000A825B92520E03FEF40E050E0A222B32201
:104DF000C422D5228A259B25AC25BD252FEF30E086
:104E000040E050E0E222F322042315238E259F2563
:104E1000A027B127808B918BA28BB38B2481358106
:104E200046815781282739274A275B27248B358BD2
:104E3000468B578B80859185A285B38582279327E2
:104E4000A427B527808F918FA28FB38F29813A81B4
:104E50004B815C8182279327A427B527848F958F68
:104E6000A68FB78F7096FE83ED83F3E06D367F07D4
:104E700009F048CF20E030E002C02FEF3FEFC9013A
:104E800026960FB6F894DEBF0FBECDBFCF91DF914F
:104E90001F910F91FF90EF90DF90CF90BF90AF9058
:104EA0009F908F907F906F905F904F903F902F904A
:104EB00008952F923F924F925F926F927F928F92BE
:104EC0009F92AF92BF92CF92DF92EF92FF920F9399
:104ED0001F93DF93CF93CDB7DEB7C555D0400FB644
:104EE000F894DEBF0FBECDBF4C0162967FAF6EAFB0
:104EF00062975A834983DC018C91482E552466249D
:104F00007724D42CCC24BB24AA2413968C91482E2D
:104F1000552466247724A424B524C624D724DA0192
:104F20002D913D914D915C91A226B326C426D526A4
:104F3000F401818190E0A0E0B0E0DC0199278827AE
:104F4000A826B926CA26DB26828190E0A0E0B0E040
:104F5000BA2FA92F982F8827A826B926CA26DB267C
:104F6000AD8EBE8ECF8ED8A28781A82EBB24CC2436
:104F7000DD24E981FA8184819581A681B781A82603
:104F8000B926CA26DB26D40114968C9190E0A0E0C5
:104F9000B0E0B82FAA2799278827A826B926CA26BD
:104FA000DB26F401858190E0A0E0B0E0DC019927E8
:104FB0008827A826B926CA26DB26868190E0A0E0AD
:104FC000B0E0BA2FA92F982F8827A826B926CA267D
:104FD000DB26A98EBA8ECB8EDC8E8385A82EBB24D1
:104FE000CC24DD24E981FA8180859185A285B38571
:104FF000A826B926CA26DB26D40118968C9190E003
:10500000A0E0B0E0B82FAA2799278827A826B926BC
:10501000CA26DB26F401818590E0A0E0B0E0DC0147
:1050200099278827A826B926CA26DB26828590E0FC
:10503000A0E0B0E0BA2FA92F982F8827A826B9267C
:10504000CA26DB26AD8ABE8ACF8AD88E8785A82E4F
:10505000BB24CC24DD24E981FA8184859585A6854D
:10506000B785A826B926CA26DB26D4011C968C91C2
:1050700090E0A0E0B0E0B82FAA2799278827A826BB
:10508000B926CA26DB26F401858590E0A0E0B0E0D1
:10509000DC0199278827A826B926CA26DB2686851B
:1050A00090E0A0E0B0E0BA2FA92F982F8827A8267B
:1050B000B926CA26DB26A98ABA8ACB8ADC8A298144
:1050C0003A8120513F4FD901BC91205F30403A8353
:1050D0002983B695B9A3EB2FF0E0F88BEF87B901E0
:1050E0006D8C7E8C8F8C98A0892D9927AA27BB2741
:1050F000FC01EE0FFF1FEE0FFF1FE457F34F25904B
:10510000359045905490898C9A8CAB8CBC8CC501A1
:10511000AA27BB27FC01F070EE0FFF1FEE0FFF1F49
:10512000E457F74FA590B590C590D4902D893E894E
:105130004F89588DBB27A52F942F832FFC01F0702A
:10514000EE0FFF1FEE0FFF1FE457FB4FE590F590AA
:105150000591149189899A899070880F991F880FF9
:10516000991F84579F4FFC0125913591459154918A
:105170002A243B244C245D24FB0180899189A28947
:10518000B389282639264A265B262E243F2440262A
:1051900051262226332644265526698C7A8C8B8C00
:1051A0009C8C892D9927AA27BB27FC01EE0FFF1F96
:1051B000EE0FFF1FE457F34FA590B590C590D49024
:1051C0002D893E894F89588DCA01AA27BB27FC012A
:1051D000F070EE0FFF1FEE0FFF1FE457F74F6590C3
:1051E00075908590949029893A894B895C89BB2771
:1051F000A52F942F832FFC01F070EE0FFF1FEE0FF1
:10520000FF1FE457FB4FE590F590059114918D8DAC
:105210009E8D9070880F991F880F991F84579F4FFC
:10522000FC012591359145915491A624B724C824B9
:10523000D924FB0184899589A689B789A826B9262E
:10524000CA26DB26AE24BF24C026D126A226B3263A
:10525000C426D5266D887E888F88988C892D9927BD
:10526000AA27BB27FC01EE0FFF1FEE0FFF1FE4571D
:10527000F34FE590F5900591149129893A894B896E
:105280005C89CA01AA27BB279C013070220F331FFB
:10529000220F331F2457374FF90185919591A5911E
:1052A000B4918B879C87AD87BE876D8C7E8C8F8CED
:1052B00098A0BB27A92D982D872DFC01F070EE0F2B
:1052C000FF1FEE0FFF1FE457FB4F65907590859011
:1052D0009490898D9A8D9070880F991F880F991FCF
:1052E00084579F4FFC0125913591459154918B85B1
:1052F0009C85AD85BE85E826F9260A271B27FB017C
:10530000808D918DA28DB38DE826F9260A271B2763
:10531000E624F72408251925E226F3260427152775
:1053200069887A888B889C88892D9927AA27BB272A
:10533000FC01EE0FFF1FEE0FFF1FE457F34F259107
:105340003591459154916D8C7E8C8F8C98A0C401C1
:10535000AA27BB27EFEF8E2E912C88229922880C4A
:10536000991C880C991C8CE898E0880E991EF40111
:1053700085919591A591B4918F839887A987BA87D4
:10538000698C7A8C8B8C9C8CBB27A92D982D872DB2
:10539000AFEF8A2E912C88229922880C991C880CB8
:1053A000991C8CE894E0880E991EF40185919591E2
:1053B000A591B4918B839C83AD83BE838D899E8997
:1053C0009070880F991F880F991F84579F4FFC0179
:1053D00065907590859094908F819885A985BA8500
:1053E000282739274A275B27FB01848D958DA68DB9
:1053F000B78D282739274A275B278B819C81AD8170
:10540000BE81282739274A275B27262537254825A7
:105410005925605E7F4FAF85B8891197B88BAF87EC
:10542000652C77248824992466966CAE7DAE8EAE6A
:105430009FAE6697360188249924BB27A12F902F11
:105440008F2D8AA39BA3ACA3BDA3D901B070BFA32A
:10545000AEA38D2D9927AA27BB2788A799A7AAA70E
:10546000BBA7C801AA27BB278CA79DA7AEA7BFA72C
:10547000BB27A52F942F832F88AB99ABAAABBBABCF
:10548000D101B070BDABACAB812F9927AA27BB2748
:105490008EAB9FABA8AFB9AFCA01AA27BB278AAF13
:1054A0009BAFACAFBDAFBB27A52D942D832D22960E
:1054B0008CAF9DAFAEAFBFAF2297D501B070249631
:1054C000BFAFAEAF2497852F9927AA27BB27289671
:1054D0008CAF9DAFAEAFBFAF2897120144245524C7
:1054E00055274D2D3C2D2B2D2C962CAF3DAF4EAF7F
:1054F0005FAF2C97A70150702E965FAF4EAF2E97DF
:105500008F859889892B09F456C164962EAD3FADDD
:105510006497220F331F220F331F2457334FF90193
:10552000A590B590C590D490F301F070EE0FFF1FD9
:10553000EE0FFF1FE457F74F65907590859094909C
:105540002AA13BA13070220F331F220F331F245793
:105550003B4FF901E590F59005911491EEA1FFA163
:10556000EE0FFF1FEE0FFF1FE457FF4F2591359100
:1055700045915491A624B724C824D924FB018081E5
:105580009181A281B381A826B926CA26DB26AE2442
:10559000BF24C026D126A226B326C426D526AD8E8A
:1055A000BE8ECF8ED8A228A539A5220F331F220F79
:1055B000331F2457334FF90165907590859094906F
:1055C000698E7A8E8B8E9C8E2CA53DA53070220F15
:1055D000331F220F331F2457374FF9016590759001
:1055E0008590949028A939A93070220F331F220F7B
:1055F000331F24573B4FF901E590F5900591149125
:10560000ECA9FDA9EE0FFF1FEE0FFF1FE457FF4FA0
:105610002591359145915491A98CBA8CCB8CDC8C19
:10562000A624B724C824D924FB0184819581A681AE
:10563000B781A826B926CA26DB26AE24BF24C026F9
:10564000D126A226B326C426D526A98EBA8ECB8E05
:10565000DC8E2EA93FA9220F331F220F331F2457A0
:10566000334FF90165907590859094906D8A7E8A8C
:105670008F8A988E2AAD3BAD3070220F331F220FD8
:10568000331F2457374FF90165907590859094909A
:105690002EAD3FAD3070220F331F220F331F245722
:1056A0003B4FF901E590F590059114912496EEADEC
:1056B000FFAD2497EE0FFF1FEE0FFF1FE457FF4FC4
:1056C0002591359145915491AD88BE88CF88D88C6D
:1056D000A624B724C824D924FB0180859185A285FE
:1056E000B385A826B926CA26DB26AE24BF24C02649
:1056F000D126A226B326C426D526AD8ABE8ACF8A55
:10570000D88E26962EAD3FAD2697220F331F220F3F
:10571000331F2457334FF90165907590859094900D
:10572000698A7A8A8B8A9C8AF101F070EE0FFF1FDA
:10573000EE0FFF1FE457F74F65907590859094909A
:105740002A96EEADFFAD2A97F070EE0FFF1FEE0F19
:10575000FF1FE457FB4FE590F590059114912E96AD
:10576000EEADFFAD2E97EE0FFF1FEE0FFF1FE457BC
:10577000FF4F2591359145915491A988BA88CB88DE
:10578000DC88A624B724C824D924FB018485958508
:10579000A685B785A826B926CA26DB26AE24BF244F
:1057A000C026D126A226B326C426D526A98ABA8A1F
:1057B000CB8ADC8A95CCB9A0AB2CBB2415E0AA0C13
:1057C000BB1C1A95E1F7C980DA80AC0CBD1C609651
:1057D000BFAEAEAE609764968EAD9FAD6497880FF6
:1057E000991F880F991F84579B4FFC012591359174
:1057F00045915491B3017070660F771F660F771F44
:1058000064577F4FFB0165907590859094906AA1D5
:105810007BA17070660F771F660F771F6457734FF9
:10582000FB01A590B590C590D4906EA17FA1660FA5
:10583000771F660F771F6457774FFB01E590F59050
:105840000591149120703070407080E090E0AFEFCF
:10585000B0E0682279228A229B2226253725482516
:1058600059256096EEADFFAD609780819181A28150
:10587000B381282739274A275B27612C6FEF762EC3
:10588000812C912CA620B720C820D9202A253B2581
:105890004C255D259FEF892E912CA12CB12CE82061
:1058A000F9200A211B212E253F2540275127852F2E
:1058B0009927AA27BB276296EEADFFAD629780833A
:1058C000CA01AA27BB278183BB27A52F942F832F2B
:1058D0008283238388A599A5880F991F880F991F14
:1058E00084579B4FFC0125913591459154916CA5AE
:1058F0007DA57070660F771F660F771F64577F4F07
:10590000FB01659075908590949068A979A9707055
:10591000660F771F660F771F6457734FFB01A590C3
:10592000B590C590D4906CA97DA9660F771F660FBE
:10593000771F6457774FFB01E590F590059114911F
:1059400020703070407080E090E0AFEFB0E06822EF
:1059500079228A229B2226253725482559256096BB
:10596000EEADFFAD609784819581A681B781282730
:1059700039274A275B27612C6FEF762E812C912CDB
:10598000A620B720C820D9202A253B254C255D25F7
:105990009FEF892E912CA12CB12CE820F9200A210F
:1059A0001B212E253F2540275127852F9927AA27E0
:1059B000BB276296EEADFFAD62978483CA01AA272A
:1059C000BB278583BB27A52F942F832F868327830F
:1059D0008EA99FA9880F991F880F991F84579B4FE5
:1059E000FC0125913591459154916AAD7BAD707064
:1059F000660F771F660F771F64577F4FFB01659017
:105A00007590859094906EAD7FAD7070660F771F26
:105A1000660F771F6457734FFB01A590B590C59033
:105A2000D49024966EAD7FAD2497660F771F660FD6
:105A3000771F6457774FFB01E590F590059114911E
:105A400020703070407080E090E0AFEFB0E06822EE
:105A500079228A229B2226253725482559256096BA
:105A6000EEADFFAD609780859185A285B38528272F
:105A700039274A275B27612C6FEF762E812C912CDA
:105A8000A620B720C820D9202A253B254C255D25F6
:105A90009FEF892E912CA12CB12CE820F9200A210E
:105AA0001B212E253F2540275127852F9927AA27DF
:105AB000BB276296EEADFFAD62978087CA01AA2729
:105AC000BB278187BB27A52F942F832F828723870E
:105AD00026968EAD9FAD2697880F991F880F991F28
