:100000000C9491080C94B0080C94B0080C94B008AF
:100010000C94B0080C94B0080C94B0080C94B00880
:100020000C94B0080C94DF670C94B0080C94B008E2
:100030000C9436730C94B0080C94B0080C941F7395
:100040000C94756B0C94B0080C94B0080C94B00828
:100050000C94C36B0C94B0080C94B76B0C94B00860
:100060000C94B0080C94B0080C94B0080C94B00830
:100070000C94016C0C94B0080C94F56B0C94B008C3
:100080000C94D7840C94B0080C94B008C6A5636394
:10009000F8847C7CEE997777F68D7B7BFF0DF2F20E
:1000A000D6BD6B6BDEB16F6F9154C5C560503030FB
:1000B00002030101CEA96767567D2B2BE719FEFECF
:1000C000B562D7D74DE6ABABEC9A76768F45CACA08
:1000D0001F9D82828940C9C9FA877D7DEF15FAFA92
:1000E000B2EB59598EC94747FB0BF0F041ECADAD6F
:1000F000B367D4D45FFDA2A245EAAFAF23BF9C9CF7
:1001000053F7A4A4E49672729B5BC0C075C2B7B7E4
:10011000E11CFDFD3DAE93934C6A26266C5A3636A3
:100120007E413F3FF502F7F7834FCCCC685C343417
:1001300051F4A5A5D134E5E5F908F1F1E293717127
:10014000AB73D8D8625331312A3F1515080C04041B
:100150009552C7C7466523239D5EC3C33028181830
:1001600037A196960A0F05052FB59A9A0E0907072B
:10017000243612121B9B8080DF3DE2E2CD26EBEBA2
:100180004E6927277FCDB2B2EA9F7575121B090908
:100190001D9E838358742C2C342E1A1A362D1B1B4B
:1001A000DCB26E6EB4EE5A5A5BFBA0A0A4F65252BB
:1001B000764D3B3BB761D6D67DCEB3B3527B292972
:1001C000DD3EE3E35E712F2F13978484A6F553532E
:1001D000B968D1D100000000C12CEDED40602020B5
:1001E000E31FFCFC79C8B1B1B6ED5B5BD4BE6A6AB3
:1001F0008D46CBCB67D9BEBE724B393994DE4A4AA5
:1002000098D44C4CB0E85858854ACFCFBB6BD0D06F
:10021000C52AEFEF4FE5AAAAED16FBFB86C54343BF
:100220009AD74D4D66553333119485858ACF454510
:10023000E910F9F904060202FE817F7FA0F0505018
:1002400078443C3C25BA9F9F4BE3A8A8A2F35151A8
:100250005DFEA3A380C04040058A8F8F3FAD929280
:1002600021BC9D9D70483838F104F5F563DFBCBCB6
:1002700077C1B6B6AF75DADA4263212120301010AB
:10028000E51AFFFFFD0EF3F3BF6DD2D2814CCDCD49
:1002900018140C0C26351313C32FECECBEE15F5F72
:1002A00035A2979788CC44442E3917179357C4C466
:1002B00055F2A7A7FC827E7E7A473D3DC8AC6464B8
:1002C000BAE75D5D322B1919E6957373C0A06060C3
:1002D000199881819ED14F4FA37FDCDC4466222296
:1002E000547E2A2A3BAB90900B8388888CCA464662
:1002F000C729EEEE6BD3B8B8283C1414A779DEDE1C
:10030000BCE25E5E161D0B0BAD76DBDBDB3BE0E09B
:1003100064563232744E3A3A141E0A0A92DB494944
:100320000C0A0606486C2424B8E45C5C9F5DC2C2DB
:10033000BD6ED3D343EFACACC4A6626239A8919131
:1003400031A49595D337E4E4F28B7979D532E7E798
:100350008B43C8C86E593737DAB76D6D018C8D8DF8
:10036000B164D5D59CD24E4E49E0A9A9D8B46C6CE5
:10037000ACFA5656F307F4F4CF25EAEACAAF65653E
:10038000F48E7A7A47E9AEAE101808086FD5BABA7B
:10039000F08878784A6F25255C722E2E38241C1C34
:1003A00057F1A6A673C7B4B49751C6C6CB23E8E8E5
:1003B000A17CDDDDE89C74743E211F1F96DD4B4B54
:1003C00061DCBDBD0D868B8B0F858A8AE0907070D5
:1003D0007C423E3E71C4B5B5CCAA666690D848480A
:1003E00006050303F701F6F61C120E0EC2A36161A7
:1003F0006A5F3535AEF9575769D0B9B91791868616
:100400009958C1C13A271D1D27B99E9ED938E1E1EF
:10041000EB13F8F82BB3989822331111D2BB69690A
:10042000A970D9D907898E8E33A794942DB69B9B3A
:100430003C221E1E15928787C920E9E98749CECE46
:10044000AAFF555550782828A57ADFDF038F8C8CBA
:1004500059F8A1A1098089891A170D0D65DABFBF66
:10046000D731E6E684C64242D0B8686882C34141CB
:1004700029B099995A772D2D1E110F0F7BCBB0B053
:10048000A8FC54546DD6BBBB2C3A161663C6A563A4
:100490007CF8847C77EE99777BF68D7BF2FF0DF20A
:1004A0006BD6BD6B6FDEB16FC59154C530605030F7
:1004B0000102030167CEA9672B567D2BFEE719FECB
:1004C000D7B562D7AB4DE6AB76EC9A76CA8F45CA04
:1004D000821F9D82C98940C97DFA877DFAEF15FA8E
:1004E00059B2EB59478EC947F0FB0BF0AD41ECAD6B
:1004F000D4B367D4A25FFDA2AF45EAAF9C23BF9CF3
:10050000A453F7A472E49672C09B5BC0B775C2B7E0
:10051000FDE11CFD933DAE93264C6A26366C5A369F
:100520003F7E413FF7F502F7CC834FCC34685C3413
:10053000A551F4A5E5D134E5F1F908F171E2937123
:10054000D8AB73D831625331152A3F1504080C0417
:10055000C79552C723466523C39D5EC3183028182C
:100560009637A196050A0F059A2FB59A070E090727
:1005700012243612801B9B80E2DF3DE2EBCD26EB9E
:10058000274E6927B27FCDB275EA9F7509121B0904
:10059000831D9E832C58742C1A342E1A1B362D1B47
:1005A0006EDCB26E5AB4EE5AA05BFBA052A4F652B7
:1005B0003B764D3BD6B761D6B37DCEB329527B296E
:1005C000E3DD3EE32F5E712F8413978453A6F5532A
:1005D000D1B968D100000000EDC12CED20406020B1
:1005E000FCE31FFCB179C8B15BB6ED5B6AD4BE6AAF
:1005F000CB8D46CBBE67D9BE39724B394A94DE4AA1
:100600004C98D44C58B0E858CF854ACFD0BB6BD06B
:10061000EFC52AEFAA4FE5AAFBED16FB4386C543BB
:100620004D9AD74D3366553385119485458ACF450C
:10063000F9E910F9020406027FFE817F50A0F05014
:100640003C78443C9F25BA9FA84BE3A851A2F351A4
:10065000A35DFEA34080C0408F058A8F923FAD927C
:100660009D21BC9D38704838F5F104F5BC63DFBCB2
:10067000B677C1B6DAAF75DA2142632110203010A7
:10068000FFE51AFFF3FD0EF3D2BF6DD2CD814CCD45
:100690000C18140C13263513ECC32FEC5FBEE15F6E
:1006A0009735A2974488CC44172E3917C49357C462
:1006B000A755F2A77EFC827E3D7A473D64C8AC64B4
:1006C0005DBAE75D19322B1973E6957360C0A060BF
:1006D000811998814F9ED14FDCA37FDC2244662292
:1006E0002A547E2A903BAB90880B8388468CCA465E
:1006F000EEC729EEB86BD3B814283C14DEA779DE18
:100700005EBCE25E0B161D0BDBAD76DBE0DB3BE097
:10071000326456323A744E3A0A141E0A4992DB4940
:10072000060C0A0624486C245CB8E45CC29F5DC2D7
:10073000D3BD6ED3AC43EFAC62C4A6629139A8912D
:100740009531A495E4D337E479F28B79E7D532E794
:10075000C88B43C8376E59376DDAB76D8D018C8DF4
:10076000D5B164D54E9CD24EA949E0A96CD8B46CE1
:1007700056ACFA56F4F307F4EACF25EA65CAAF653A
:100780007AF48E7AAE47E9AE08101808BA6FD5BA77
:1007900078F08878254A6F252E5C722E1C38241C30
:1007A000A657F1A6B473C7B4C69751C6E8CB23E8E1
:1007B000DDA17CDD74E89C741F3E211F4B96DD4B50
:1007C000BD61DCBD8B0D868B8A0F858A70E09070D1
:1007D0003E7C423EB571C4B566CCAA664890D84806
:1007E00003060503F6F701F60E1C120E61C2A361A3
:1007F000356A5F3557AEF957B969D0B98617918612
:10080000C19958C11D3A271D9E27B99EE1D938E1EB
:10081000F8EB13F8982BB3981122331169D2BB6906
:10082000D9A970D98E07898E9433A7949B2DB69B36
:100830001E3C221E87159287E9C920E9CE8749CE42
:1008400055AAFF5528507828DFA57ADF8C038F8CB6
:10085000A159F8A1890980890D1A170DBF65DABF62
:10086000E6D731E64284C64268D0B8684182C341C7
:100870009929B0992D5A772D0F1E110FB07BCBB04F
:1008800054A8FC54BB6DD6BB162C3A166363C6A5A0
:100890007C7CF8847777EE997B7BF68DF2F2FF0D06
:1008A0006B6BD6BD6F6FDEB1C5C5915430306050F3
:1008B000010102036767CEA92B2B567DFEFEE719C7
:1008C000D7D7B562ABAB4DE67676EC9ACACA8F4500
:1008D00082821F9DC9C989407D7DFA87FAFAEF158A
:1008E0005959B2EB47478EC9F0F0FB0BADAD41EC67
:1008F000D4D4B367A2A25FFDAFAF45EA9C9C23BFEF
:10090000A4A453F77272E496C0C09B5BB7B775C2DC
:10091000FDFDE11C93933DAE26264C6A36366C5A9B
:100920003F3F7E41F7F7F502CCCC834F3434685C0F
:10093000A5A551F4E5E5D134F1F1F9087171E2931F
:10094000D8D8AB733131625315152A3F0404080C13
:10095000C7C7955223234665C3C39D5E1818302828
:10096000969637A105050A0F9A9A2FB507070E0923
:100970001212243680801B9BE2E2DF3DEBEBCD269A
:1009800027274E69B2B27FCD7575EA9F0909121B00
:1009900083831D9E2C2C58741A1A342E1B1B362D43
:1009A0006E6EDCB25A5AB4EEA0A05BFB5252A4F6B3
:1009B0003B3B764DD6D6B761B3B37DCE2929527B6A
:1009C000E3E3DD3E2F2F5E71848413975353A6F526
:1009D000D1D1B96800000000EDEDC12C20204060AD
:1009E000FCFCE31FB1B179C85B5BB6ED6A6AD4BEAB
:1009F000CBCB8D46BEBE67D93939724B4A4A94DE9D
:100A00004C4C98D45858B0E8CFCF854AD0D0BB6B67
:100A1000EFEFC52AAAAA4FE5FBFBED16434386C5B7
:100A20004D4D9AD7333366558585119445458ACF08
:100A3000F9F9E910020204067F7FFE815050A0F010
:100A40003C3C78449F9F25BAA8A84BE35151A2F3A0
:100A5000A3A35DFE404080C08F8F058A92923FAD78
:100A60009D9D21BC38387048F5F5F104BCBC63DFAE
:100A7000B6B677C1DADAAF752121426310102030A3
:100A8000FFFFE51AF3F3FD0ED2D2BF6DCDCD814C41
:100A90000C0C181413132635ECECC32F5F5FBEE16A
:100AA000979735A2444488CC17172E39C4C493575E
:100AB000A7A755F27E7EFC823D3D7A476464C8ACB0
:100AC0005D5DBAE71919322B7373E6956060C0A0BB
:100AD000818119984F4F9ED1DCDCA37F222244668E
:100AE0002A2A547E90903BAB88880B8346468CCA5A
:100AF000EEEEC729B8B86BD31414283CDEDEA77914
:100B00005E5EBCE20B0B161DDBDBAD76E0E0DB3B93
:100B1000323264563A3A744E0A0A141E494992DB3C
:100B200006060C0A2424486C5C5CB8E4C2C29F5DD3
:100B3000D3D3BD6EACAC43EF6262C4A6919139A829
:100B4000959531A4E4E4D3377979F28BE7E7D53290
:100B5000C8C88B4337376E596D6DDAB78D8D018CF0
:100B6000D5D5B1644E4E9CD2A9A949E06C6CD8B4DD
:100B70005656ACFAF4F4F307EAEACF256565CAAF36
:100B80007A7AF48EAEAE47E908081018BABA6FD573
:100B90007878F08825254A6F2E2E5C721C1C38242C
:100BA000A6A657F1B4B473C7C6C69751E8E8CB23DD
:100BB000DDDDA17C7474E89C1F1F3E214B4B96DD4C
:100BC000BDBD61DC8B8B0D868A8A0F857070E090CD
:100BD0003E3E7C42B5B571C46666CCAA484890D802
:100BE00003030605F6F6F7010E0E1C126161C2A39F
:100BF00035356A5F5757AEF9B9B969D0868617910E
:100C0000C1C199581D1D3A279E9E27B9E1E1D938E7
:100C1000F8F8EB1398982BB3111122336969D2BB02
:100C2000D9D9A9708E8E0789949433A79B9B2DB632
:100C30001E1E3C2287871592E9E9C920CECE87493E
:100C40005555AAFF28285078DFDFA57A8C8C038FB2
:100C5000A1A159F8898909800D0D1A17BFBF65DA5E
:100C6000E6E6D731424284C66868D0B8414182C3C3
:100C7000999929B02D2D5A770F0F1E11B0B07BCB4B
:100C80005454A8FCBBBB6DD616162C3AA56363C69C
:100C9000847C7CF8997777EE8D7B7BF60DF2F2FF02
:100CA000BD6B6BD6B16F6FDE54C5C59150303060EF
:100CB00003010102A96767CE7D2B2B5619FEFEE7C3
:100CC00062D7D7B5E6ABAB4D9A7676EC45CACA8FFC
:100CD0009D82821F40C9C989877D7DFA15FAFAEF86
:100CE000EB5959B2C947478E0BF0F0FBECADAD4163
:100CF00067D4D4B3FDA2A25FEAAFAF45BF9C9C23EB
:100D0000F7A4A453967272E45BC0C09BC2B7B775D8
:100D10001CFDFDE1AE93933D6A26264C5A36366C97
:100D2000413F3F7E02F7F7F54FCCCC835C3434680B
:100D3000F4A5A55134E5E5D108F1F1F9937171E21B
:100D400073D8D8AB533131623F15152A0C0404080F
:100D500052C7C795652323465EC3C39D2818183024
:100D6000A19696370F05050AB59A9A2F0907070E1F
:100D7000361212249B80801B3DE2E2DF26EBEBCD96
:100D80006927274ECDB2B27F9F7575EA1B090912FC
:100D90009E83831D742C2C582E1A1A342D1B1B363F
:100DA000B26E6EDCEE5A5AB4FBA0A05BF65252A4AF
:100DB0004D3B3B7661D6D6B7CEB3B37D7B29295266
:100DC0003EE3E3DD712F2F5E97848413F55353A622
:100DD00068D1D1B9000000002CEDEDC160202040A9
:100DE0001FFCFCE3C8B1B179ED5B5BB6BE6A6AD4A7
:100DF00046CBCB8DD9BEBE674B393972DE4A4A9499
:100E0000D44C4C98E85858B04ACFCF856BD0D0BB63
:100E10002AEFEFC5E5AAAA4F16FBFBEDC5434386B3
:100E2000D74D4D9A5533336694858511CF45458A04
:100E300010F9F9E906020204817F7FFEF05050A00C
:100E4000443C3C78BA9F9F25E3A8A84BF35151A29C
:100E5000FEA3A35DC04040808A8F8F05AD92923F74
:100E6000BC9D9D214838387004F5F5F1DFBCBC63AA
:100E7000C1B6B67775DADAAF63212142301010209F
:100E80001AFFFFE50EF3F3FD6DD2D2BF4CCDCD813D
:100E9000140C0C18351313262FECECC3E15F5FBE66
:100EA000A2979735CC4444883917172E57C4C4935A
:100EB000F2A7A755827E7EFC473D3D7AAC6464C8AC
:100EC000E75D5DBA2B191932957373E6A06060C0B7
:100ED00098818119D14F4F9E7FDCDCA3662222448A
:100EE0007E2A2A54AB90903B8388880BCA46468C56
:100EF00029EEEEC7D3B8B86B3C14142879DEDEA710
:100F0000E25E5EBC1D0B0B1676DBDBAD3BE0E0DB8F
:100F1000563232644E3A3A741E0A0A14DB49499238
:100F20000A06060C6C242448E45C5CB85DC2C29FCF
:100F30006ED3D3BDEFACAC43A66262C4A891913925
:100F4000A495953137E4E4D38B7979F232E7E7D58C
:100F500043C8C88B5937376EB76D6DDA8C8D8D01EC
:100F600064D5D5B1D24E4E9CE0A9A949B46C6CD8D9
:100F7000FA5656AC07F4F4F325EAEACFAF6565CA32
:100F80008E7A7AF4E9AEAE4718080810D5BABA6F6F
:100F9000887878F06F25254A722E2E5C241C1C3828
:100FA000F1A6A657C7B4B47351C6C69723E8E8CBD9
:100FB0007CDDDDA19C7474E8211F1F3EDD4B4B9648
:100FC000DCBDBD61868B8B0D858A8A0F907070E0C9
:100FD000423E3E7CC4B5B571AA6666CCD8484890FE
:100FE0000503030601F6F6F7120E0E1CA36161C29B
:100FF0005F35356AF95757AED0B9B969918686170A
:1010000058C1C199271D1D3AB99E9E2738E1E1D9E3
:1010100013F8F8EBB398982B33111122BB6969D2FE
:1010200070D9D9A9898E8E07A7949433B69B9B2D2E
:10103000221E1E3C9287871520E9E9C949CECE873A
:10104000FF5555AA782828507ADFDFA58F8C8C03AE
:10105000F8A1A15980898909170D0D1ADABFBF655A
:1010600031E6E6D7C6424284B86868D0C3414182BF
:10107000B0999929772D2D5A110F0F1ECBB0B07B47
:10108000FC5454A8D6BBBB6D3A16162C6E74706413
:101090002070726F6365737320737461727465641A
:1010A0000A0008000000000000000000000000002E
:1010B0000000000000000000000000000000000030
:1010C0000000000000000000000000000000000020
:1010D0000000257325730A004F6E6C696E650A0067
:1010E0000A002C20636865636B207261746520259B
:1010F0007520487A0025732025732C206368616E63
:101100006E656C202575000A2A2A2A2A2A2A2A4274
:101110006F6F74696E672025732A2A2A2A2A2A2A61
:101120000A0011241FBECFEFD0E4DEBFCDBF16E012
:10113000A0E0B1E0E2E6F3E201E00BBF02C00790FD
:101140000D92A432B107D9F713E3A4E2B6E001C0CF
:101150001D92AF3CB107E1F70E94D06A0C94AF91A9
:101160000C940000CF93DF93EC0188819981009764
:1011700019F04F9739F50BC08BEB91E061E00E94BD
:1011800004258FE190E09983888381E01EC08091DF
:101190002F236817B1F78091322380FF05C0509349
:1011A000250640932406EDCF81FFEBCFE09133235A
:1011B000F09134238091302390913123E80FF91F6F
:1011C0001082DFCF1982188283E0DF91CF910895DA
:1011D0009C01AB0181E080932D0680915B0690918C
:1011E0005C06B9010E94A7538FE496E067E771E0BF
:1011F0000E944E4408957F928F929F92AF92BF9229
:10120000CF92DF92EF92FF920F931F93782E862E4C
:1012100080913906882329F080914406815080937B
:10122000440690912B0680912C0680939301909315
:10123000940190902E0610912F06F0903006E090C9
:101240003106D0903206C0903306B0903406A0909C
:101250003506292D312F4F2D5E2D6D2D7C2D8B2D9B
:101260009A2D08E20E94388720939501292D312F6D
:101270004F2D5E2D6D2D7C2D8B2D9A2D00E20E9421
:10128000388720939601292D312F4F2D5E2D6D2DFE
:101290007C2D8B2D9A2D08E10E9438872093970191
:1012A000292D312F4F2D5E2D6D2D7C2D8B2D9A2DBF
:1012B00000E10E94388720939801292D312F4F2D6E
:1012C0005E2D6D2D7C2D8B2D9A2D08E00E94388788
:1012D0002093990190929A0180E5881699F0809167
:1012E0006E01882321F483EB97E00E944E4181E058
:1012F00080936E0183EB97E06FE070E00E9489417C
:10130000892B59F480915B0690915C0660E971E04D
:101310004FE050E00E94A75330C08091B7079091F2
:10132000B8079093D8078093D70700912E061091A5
:101330002F062091300630913106409132065091AF
:1013400033066091340670913506E0902B06F090DC
:101350002C06C72CA82C0E9493286091D707709167
:10136000D80780915B0690915C064FE050E00E94A8
:10137000A75383EB97E00E944E4181E080932606BD
:10138000809238061F910F91FF90EF90DF90CF90E1
:10139000BF90AF909F908F907F900895CF92DF92F3
:1013A000EF92FF920F931F9380916E01882321F497
:1013B00083EB97E00E944E4181E080936E01809123
:1013C0006D01882321F485EC97E00E944E4181E075
:1013D00080936D0181E696E00E941E2F8091390670
:1013E000882309F48CC083EB97E069E170E00E94E8
:1013F0008941892B09F495C08091B7079091B8076E
:101400009093D8078093D70700912E0610912F064E
:1014100020913006309131064091320650913306CA
:101420006091340670913506E0902B06F0902C0602
:101430000E946B2680912E0620912F063091300657
:101440004091310660913206E0913306A091340656
:1014500010913506B82FBF5F91E0B81708F090E003
:10146000F92FF20F81E0F21708F080E0782F730F68
:1014700081E0731708F080E0582F540F81E0541773
:1014800008F080E0382F360F81E0361708F080E052
:10149000282F2E0F81E02E1708F080E0982F9A0F4A
:1014A00081E09A1708F080E0810FB0932E06F09348
:1014B0002F067093300650933106309332062093F6
:1014C000330690933406809335068091D707909128
:1014D000D80769E170E00E94E80882E080936C011F
:1014E000109228061092270610922A0610922906BA
:1014F0001092360683EB97E00E944E41A1C01092F5
:1015000028061092270610922A0610922906109299
:10151000360683EB97E063E470E00E948941892BF3
:1015200029F482E060E50E94FB0898C08091B7072B
:101530009091B8079093D8078093D70700912E0613
:1015400010912F06209130063091310640913206DD
:10155000509133066091340670913506E0902B0669
:10156000F0902C06C0902706D09028060E947A2A78
:1015700080912E0620912F06309130064091310641
:1015800060913206E0913306A09134061091350641
:10159000B82FBF5F91E0B81708F090E0F92FF20F75
:1015A00081E0F21708F080E0782F730F81E0731765
:1015B00008F080E0582F540F81E0541708F080E0C5
:1015C000382F360F81E0361708F080E0282F2E0FD5
:1015D00081E02E1708F080E0982F9A0F81E09A178B
:1015E00008F080E0810FB0932E06F0932F067093E1
:1015F0003006509331063093320620933306909391
:101600003406809335064091D7075091D807CA0118
:10161000DC01E0E7F1E05B968C915B97819311969A
:1016200081E0E039F807B9F7CA0163E470E00E948D
:10163000E80883EB97E00E944E4189E080936C01BB
:1016400088E0809332230E946D3F682F80932F2380
:1016500080E090E040E050E00E94C8401F910F9170
:10166000FF90EF90DF90CF90089581E060E00E94BE
:10167000FB0808950F931F93CF93DF93EB0109901D
:101680000020E9F72197C61BD70B4091B107509175
:10169000B2070D2FFA01D0831C2FC18390E09A016D
:1016A0002C0F3D1F0CC0FA01EA0FFB1F1282F9013B
:1016B000EA0FFB1FA60FB71F8C9184839F5FA92F92
:1016C000B0E0AC17BD0778F3F90102831383DF9113
:1016D000CF911F910F9108958F929F92AF92BF92D9
:1016E000CF92DF92EF92FF920F931F93DF93CF93EE
:1016F000CDB7DEB72C970FB6F894DEBF0FBECDBFC7
:10170000FC018081843109F074C08181882309F053
:1017100070C08281882309F06CC083818C3009F00D
:1017200068C02091290690912A068481891709F0C2
:1017300060C08581821709F05CC08681882309F02A
:1017400058C08781882309F054C08085882309F018
:1017500050C08185882309F04CC08285882309F018
:1017600048C083858C3009F044C0809139065E0101
:101770000894A11CB11C1CE0812E912C8E0E9F1E82
:101780008823C1F0C5016EE472E040E350E020E13F
:1017900031E004EE11E0B0E2EB2EF12CACE0CA2E09
:1017A000D12C0E94BB28C401B5014CE050E00E943E
:1017B000D88D17C0C5016EE472E040E350E020E22E
:1017C00031E004EE11E0F0E2EF2EF12CECE0CE2E51
:1017D000D12C0E94BB28C401B5014CE050E00E940E
:1017E000D88D9C0190E0232B09F091E081E09827AF
:1017F00001C090E0892F2C960FB6F894DEBF0FBE83
:10180000CDBFCF91DF911F910F91FF90EF90DF90AF
:10181000CF90BF90AF909F908F900895CF92DF921E
:10182000EF92FF920F931F93DF93CF93CDB7DEB765
:10183000C054D0400FB6F894DEBF0FBECDBFDE015E
:101840001196E0E7F1E080E201900D928150E1F71E
:10185000DE019196E4E0F2E080E201900D92815089
:10186000E1F76091B1077091B2078EE492E046E132
:1018700050E020E331E08E010F5F1F4FF0E4EF2EC8
:10188000F12CE0E3CE2ED12C0E94BB28C05CDF4FB0
:101890000FB6F894DEBF0FBECDBFCF91DF911F9181
:1018A0000F91FF90EF90DF90CF900895AF92BF928D
:1018B000CF92DF92EF92FF920F931F93DF93CF931C
:1018C000CDB7DEB7C856D0400FB6F894DEBF0FBE16
:1018D000CDBFDE019996E4E0F2E080E201900D9246
:1018E0008150E1F7DE01A75BBF4FE0E7F1E080E266
:1018F00001900D928150E1F75E010894A11CB11C8A
:10190000C5016EE472E040E350E02EE331E08E0169
:10191000075D1F4FB0E4EB2EF12CA8E2CA2ED12CAC
:101920000E94BB28A0ECB1E0F50180E101900D928E
:101930008150E1F7A0EDB1E0FE01719680E10190E8
:101940000D928150E1F789A19AA1ABA1BCA180932E
:101950009F019093A001A093A101B093A2018DA13A
:101960009EA1AFA1B8A58093AF019093B001A093C1
:10197000B101B093B201C859DF4F0FB6F894DEBF82
:101980000FBECDBFCF91DF911F910F91FF90EF90D0
:10199000DF90CF90BF90AF9008956F927F928F921B
:1019A0009F92AF92BF92CF92DF92EF92FF920F93EE
:1019B0001F93DF93CF93CDB7DEB7C85CD3400FB68C
:1019C000F894DEBF0FBECDBF6C013B0140916C01AE
:1019D000473009F0C7C0A3EAB1E020E030E08091D1
:1019E0003906882321F0F901E156FE4F03C0F901C1
:1019F000E155FE4F80818C932F5F3F4F119624302D
:101A0000310569F780913B068093A7018093B3016C
:101A100080913A068093A8018093B401BEEA8B2E90
:101A2000B1E09B2EAAEBAA2EA1E0BA2EEE24FF2451
:101A300020913C0630913D0640913E0650913F0674
:101A40006091400670914106809142069091430654
:101A50000E2D0E943887F401208320913C0630919E
:101A60003D0640913E0650913F06609140067091C0
:101A7000410680914206909143060E943887F50105
:101A8000208388E090E0E80EF91E08948108910810
:101A90000894A108B10890E3E916F10449F687E13A
:101AA0008093BB018EEF8093BC018DEF8093BD01CD
:101AB000F0EFAF2EFFEFBF2EA60CB71C1A2D0B2D8B
:101AC000B092BE01862D80518093BF0180916D013F
:101AD000882321F485EC97E00E944E4110926D011D
:101AE00085EC97E0612F702F0E948941892B09F4C2
:101AF0002CC74091C9075091CA0750933423409393
:101B00003323809139069601285F3F4F83010850A7
:101B10001040882321F0CA0160EC71E003C0CA01C3
:101B200060ED71E043EA51E0E3EBEE2EE1E0FE2EE2
:101B30000E94F53C892B19F485EC97E001C2B09224
:101B40003123A092302382E0809332230E946D3FA4
:101B5000682F80932F2380915D0690915E0640E070
:101B600050E0DDC580913906882309F4DBC5423099
:101B700019F0483009F0FCC0F60180818E3F09F071
:101B8000EEC081818D3F09F0EAC082A1E82EFF24DA
:101B9000E7FCF09483E290E0E80EF91E6E147F04F7
:101BA00008F4E0C0423081F40E94276B0E945C443C
:101BB00004E212E00E9459448F77F80181938F016B
:101BC000F2E00C321F07B1F78E0107551F4FC80115
:101BD00064E272E048E050E00E944031F60142A128
:101BE000552747FD50954D5D5F4FC801B6010E94D6
:101BF000E030F601EE0DFF1DE081EE2319F0E0313B
:101C000009F0ADC087010F5F1F4F80916C018230DA
:101C100051F4B601600F711FA301401B510BCE019F
:101C200087559F4F11C0883089F481E190E0E80E1C
:101C3000F91EEC0CFD1CA30140515040401B510B00
:101C4000CE0187559F4FB7010E94E03079EAE72E19
:101C5000F12CEC0EFD1EC7016FE473E240E150E091
:101C60000E94E03089EB97E060E170E00E948941DA
:101C7000892B19F460E570E07DC06091BD0770911B
:101C8000BE077093E3016093E201C70140E150E0B9
:101C90000E94E33080916C01883081F4B601600FBE
:101CA000711F8091E2019091E30140E150E00E94B8
:101CB000D88D009719F082E080936C01F601E00F57
:101CC000F11F31972081332727FD3095200F311FD9
:101CD000F601E20FF31F8181482F552747FD5095EC
:101CE0008081992787FD9095982F8827480F591F45
:101CF0002E5F3F4FC301821B930B8417950790F112
:101D000040FF1FC02FC082818823B1F483818D3FA3
:101D100099F4240F351FF601E20FF31F8081482F3D
:101D2000552747FD5095089461087108621A730A97
:101D30006416750680F416C0425050402E5F3F4F27
:101D4000329642305105F8F610C0818131968823D1
:101D500079F04150504041155105B9F706C06FE286
:101D600070E008C062E370E005C068E270E002C0A5
:101D700061E070E0162F80916C01883071F4613061
:101D800061F4D601E0E7F1E012968C91129781930D
:101D9000119691E0E039F907B9F780916C01843030
:101DA000C9F51130B9F5F6016181772767FD7095A6
:101DB0008081992787FD9095982F8827680F791F34
:101DC0007093E1016093E00189EB97E00E94894103
:101DD000892B09F4BAC58091BD079091BE079093F5
:101DE000E3018093E20120E00CC0E091E201F09178
:101DF000E301EA0FFB1FAC0DBD1D12968C91808391
:101E00002F5FA22FB0E08091E0019091E101A8172F
:101E1000B90758F380916C01863009F0B7C01130D2
:101E200009F0C4C580919F018093A3018091A00116
:101E30008093A4018091A1018093A5018091A201CA
:101E40008093A60180913B068093A7018093B30104
:101E500080913A068093A8018093B4010EEA802E07
:101E600001E0902E1AEBA12E11E0B12EEE24FF24FA
:101E700020913C0630913D0640913E0650913F0630
:101E80006091400670914106809142069091430610
:101E90000E2D0E943887F401208320913C0630915A
:101EA0003D0640913E0650913F066091400670917C
:101EB000410680914206909143060E943887F501C1
:101EC000208388E090E0E80EF91E089481089108CC
:101ED0000894A108B10890E3E916F10449F686E1F7
:101EE0008093BB018EEF8093BC018DEF8093BD0189
:101EF0001092BE0188E18093BF0183EB97E068E117
:101F000070E00E948941892B09F41FC5A090B70792
:101F1000B090B807E8E0F0E0CE0EDF1EC50160EC3F
:101F200071E043EA51E0960100E210E0B3EBEB2EE2
:101F3000B1E0FB2E0E94F53C892B39F483EB97E04E
:101F40000E944E4182E064E133C5DE011196E1E674
:101F5000F6E088EA01900D928150E1F7CE010196FA
:101F600064EE71E00E943F2FC5010E946C0B81302E
:101F700009F00CC581E696E0B50148E150E00E9409
:101F8000EA2F83EB97E00E944E4103C0113009F025
:101F90000DC580916C01853009F4D2C1863038F4CA
:101FA000823069F0843011F00C947D1896C186302F
:101FB00009F4C9C1883011F00C947D188CC083EBF2
:101FC00097E06CE270E00E948941892B09F4C8C750
:101FD0008091B7079091B8079093D8078093D7075F
:101FE0006091E2017091E301E0902E06F0902F06DF
:101FF000009130061091310620913206309133065F
:102000004091340650913506C0902B06D0902C0696
:10201000A0902706B09028060E9492268091D707AC
:102020009091D8076CE270E00E94E80880912E063B
:1020300020912F0630913006409131066091320692
:10204000E0913306A091340610913506B82FBF5F9A
:1020500091E0B81708F090E0F92FF20F81E0F21745
:1020600008F080E0782F730F81E0731708F080E0AC
:10207000582F540F81E0541708F080E0382F360FA6
:1020800081E0361708F080E0282F2E0F81E02E1710
:1020900008F080E0982F9A0F81E09A1708F080E00E
:1020A000810FB0932E06F0932F0670933006509355
:1020B0003106309332062093330690933406809392
:1020C000350683EB97E00E944E4189EB97E00E9432
:1020D0004E4188E0D7C783EB97E068E570E00E9447
:1020E0008941892B09F43CC78091B7079091B807C3
:1020F0009093D8078093D70700912E0610912F0652
:1021000020913006309131064091320650913306CD
:102110006091340670913506E0902B06F0902C0605
:10212000C0902706D09028060E94A32B80912E06EF
:1021300020912F0630913006409131066091320691
:10214000E0913306A091340610913506B82FBF5F99
:1021500091E0B81708F090E0F92FF20F81E0F21744
:1021600008F080E0782F730F81E0731708F080E0AB
:10217000582F540F81E0541708F080E0382F360FA5
:1021800081E0361708F080E0282F2E0F81E02E170F
:1021900008F080E0982F9A0F81E09A1708F080E00D
:1021A000810FB0932E06F0932F0670933006509354
:1021B0003106309332062093330690933406809391
:1021C00035062BE130E0F901E751FE4F6091D7076A
:1021D0007091D807DB01A20FB31F8C9180832F5F12
:1021E0003F4F2B33310579F7635F7F4F81E696E0F0
:1021F00042E350E00E94EA2F6091D7077091D80720
:10220000645B7F4F81E696E04CE050E00E94EA2F4D
:1022100084E080936C01E091D707F091D80782E0C9
:1022200085878091D7079091D80768E570E00E9474
:10223000E80880912E0620912F06309130064091BB
:10224000310660913206E0913306A0913406109178
:102250003506B82FBF5F91E0B81708F090E0F92F6E
:10226000F20F81E0F21708F080E0782F730F81E021
:10227000731708F080E0582F540F81E0541708F0CE
:1022800080E0382F360F81E0361708F080E0282FE5
:102290002E0F81E02E1708F080E0982F9A0F81E032
:1022A0009A1708F080E0810FB0932E06F0932F0666
:1022B00070933006509331063093320620933306E4
:1022C000909334068093350683EB97E00E944E414D
:1022D00089EB97E00E944E4110C78091E2019091F6
:1022E000E3016CE471E044E050E00E94D88D009777
:1022F00019F082E063E736C689EB97E00E944E4111
:102300000CE212E0F80101900020E9F7EB52F240F4
:10231000EE0FFF1F83EB97E0BF010E948941892BDD
:1023200009F41EC68091B7079091B8079093B20741
:102330008093B107B8010E943A0B0E940E0C9BC615
:102340000E94560C9EC683EB97E063E470E00E9407
:102350008941892B09F404C68091B7079091B80789
:102360009093D8078093D70700912E0610912F06DF
:10237000209130063091310640913206509133065B
:102380006091340670913506E0902B06F0902C0693
:102390000E94382780912E0620912F06309130061A
:1023A0004091310660913206E0913306A0913406E7
:1023B00010913506B82FBF5F91E0B81708F090E094
:1023C000F92FF20F81E0F21708F080E0782F730FF9
:1023D00081E0731708F080E0582F540F81E0541704
:1023E00008F080E0382F360F81E0361708F080E0E3
:1023F000282F2E0F81E02E1708F080E0982F9A0FDB
:1024000081E09A1708F080E0810FB0934506F093C1
:10241000460670934706509348063093490620932A
:102420004A0690934B0680934C0680912B06909120
:102430002C06019690932C0680932B0610922E0664
:1024400010922F061092300610923106109232062A
:1024500010923306109234061092350681E696E00B
:1024600064EE71E00E943F2F84E180933602109267
:102470003702109238022CE020933902809127060F
:1024800090912806019690933A02809127068F5FDB
:1024900080933B0210923C0210923D0210923E0249
:1024A00010923F02109240022093410282E492E097
:1024B0006EE472E040E350E020E231E004EE11E02F
:1024C000E0E2EE2EF12CBCE0CB2ED12C0E94BB28FA
:1024D0008091AF018093A3018091B0018093A4010A
:1024E0008091B1018093A5018091B2018093A601F2
:1024F00080912C068093A7018093B30180912B06D5
:102500008093A8018093B401AEEAAA2EA1E0BA2E6E
:10251000FAEBCF2EF1E0DF2EEE24FF2420912E06E1
:1025200030912F064091300650913106609132066D
:102530007091330680913406909135060E2D0E94DD
:102540003887F501208320912E0630912F06409187
:1025500030065091310660913206709133068091B9
:102560003406909135060E943887F601208388E072
:1025700090E0E80EF91E0894A108B1080894C1087B
:10258000D10890E3E916F10449F686E18093BB0196
:102590008EEF8093BC018DEF8093BD011092BE0140
:1025A00088E18093BF018091D7079091D8078396E7
:1025B00060ED71E043EA51E026E332E008E110E02B
:1025C000E3EBEE2EE1E0FE2E0E94C53A892B09F4E2
:1025D000C3C48091D7079091D80700912E0610911F
:1025E0002F062091300630913106409132065091ED
:1025F00033066091340670913506E0902B06F0901A
:102600002C060E960E9459278091D7079091D807E3
:1026100063E470E00E94E80880912E0620912F0666
:10262000309130064091310660913206E0913306D8
:10263000A091340610913506B82FBF5F91E0B8170E
:1026400008F090E0F92FF20F81E0F21708F080E037
:10265000782F730F81E0731708F080E0582F540F24
:1026600081E0541708F080E0382F360F81E03617EC
:1026700008F080E0282F2E0F81E02E1708F080E070
:10268000982F9A0F81E09A1708F080E0810FB0939D
:102690002E06F0932F067093300650933106309338
:1026A000320620933306909334068093350683EBED
:1026B00097E00E944E4187E080936C01E0915706BD
:1026C000F09158068FE991E0958384838FEA91E039
:1026D0009783868380EC91E09183808380ED91E005
:1026E00093838283A0915906B0915A061196FC9368
:1026F000EE9380915B0690915C0613969C938E936B
:1027000012970E946D3F682F80932F2381E0809362
:1027100032234091590650915A0680E090E00E9481
:10272000C840EBC44330C1F1493021F0413009F0D9
:102730003FC013C0F60180818E3FA1F581818F3F9C
:1027400011F08D3F79F5F6018281992787FD9095EB
:1027500003966816790631F52BC0F60180818E3F0D
:1027600009F581818F3F11F08D3FE1F4F60182A1DF
:10277000282F332727FD3095E20FF31F83A18823ED
:10278000A1F4F901B496EC0DFD1D80818D3F69F433
:102790008181882351F40CC06115710549F062E311
:1027A00070E008C06FE270E005C068E270E002C04F
:1027B00061E070E0162F413091F4613081F4D60170
:1027C000E4E0F2E012968C9112978193119682E0E8
:1027D000E432F807B9F789EB97E00E944E41809107
:1027E0006C018930B9F51130A9F5F6018281682FA5
:1027F000772767FD70957093E1016093E0016115A3
:10280000710541F189EB97E00E948941892B19F408
:1028100020E530E074C48091BD079091BE0790938D
:10282000E3018093E20120E00CC0E091E201F0912D
:10283000E301EA0FFB1FAC0DBD1D13968C91808345
:102840002F5FA22FB0E08091E0019091E101A817E5
:10285000B90758F380916C01863009F0A5C011309A
:1028600009F0A4C08091AF018093A3018091B001D1
:102870008093A4018091B1018093A5018091B20160
:102880008093A60180913B068093A7018093B301BA
:1028900080913A068093A8018093B4010EEA802EBD
:1028A00001E0902E1AEBA12E11E0B12EEE24FF24B0
:1028B00020913C0630913D0640913E0650913F06E6
:1028C00060914006709141068091420690914306C6
:1028D0000E2D0E943887F401208320913C06309110
:1028E0003D0640913E0650913F0660914006709132
:1028F000410680914206909143060E943887F50177
:10290000208388E090E0E80EF91E08948108910881
:102910000894A108B10890E3E916F10449F686E1AC
:102920008093BB018EEF8093BC018DEF8093BD013E
:102930001092BE0188E18093BF0183EB97E068E1CC
:1029400070E00E948941892B19F482E060E530C073
:10295000A090B707B090B807E8E0F0E0CE0EDF1E19
:10296000C50160ED71E043EA51E0960100E210E03C
:10297000B3EBEB2EB1E0FB2E0E94F53C892B09F462
:10298000DDCAC5010E946C0B813049F082E068E22B
:102990000E94FB0883EB97E00E944E410BC083EB43
:1029A00097E00E944E4109C0113039F082E0612F5A
:1029B0000E94FB0820E030E0A2C380916C018530CA
:1029C00009F45FC3863038F4813009F4B5C0833030
:1029D00009F093C3D8C0863009F457C3893009F091
:1029E0008CC36091E0017091E1016D5B7F4F83EBDF
:1029F00097E00E948941892B09F4B2C28091B70700
:102A00009091B8079093D8078093D70700D0409152
:102A1000E2015091E301A0902E06B0902F06C090E5
:102A20003006D0903106E0903206F09033060091E7
:102A300034061091350680902B0690902C0620913C
:102A4000270630912806EDB7FEB73283218360E771
:102A500071E02091E0010E94522A0F900F90609146
:102A6000D7077091D807635F7F4F4091E001509185
:102A7000E1014A5C5F4F81E696E00E94EA2F609197
:102A8000E0017091E1016D5B7F4F8091D7079091DC
:102A9000D8070E94E80880912E0620912F063091D9
:102AA00030064091310660913206E0913306A091E4
:102AB000340610913506B82FBF5F91E0B81708F0C3
:102AC00090E0F92FF20F81E0F21708F080E0782F04
:102AD000730F81E0731708F080E0582F540F81E0E6
:102AE000541708F080E0382F360F81E0361708F0D1
:102AF00080E0282F2E0F81E02E1708F080E0982F1D
:102B00009A0F81E09A1708F080E0810FB0932E06AB
:102B1000F0932F06709330065093310630933206AF
:102B200020933306909334068093350683EB97E029
:102B30000E944E4181E0A6C20CE212E0F801019031
:102B40000020E9F7EB52F240EE0FFF1F83EB97E016
:102B5000BF010E948941892B09F402C28091B70705
:102B60009091B8079093B2078093B107B8010E9483
:102B70003A0B0E940E0C0E94560C83EB97E00E94C9
:102B80004E4183E07FC28CE491E09093E301809317
:102B9000E20184E090E09093E1018093E00183EB17
:102BA00097E062E670E00E948941892B09F4D8C160
:102BB0008091B7079091B8079093D8078093D70773
:102BC0006091E2017091E3014091E0015091E101D7
:102BD000C0902E06D0902F06E0903006F09031067F
:102BE000009132061091330620913406309135065B
:102BF000A0902B06B0902C06809027069090280677
:102C00000E94D82680912E0620912F063091300602
:102C10004091310660913206E0913306A09134066E
:102C200010913506B82FBF5F91E0B81708F090E01B
:102C3000F92FF20F81E0F21708F080E0782F730F80
:102C400081E0731708F080E0582F540F81E054178B
:102C500008F080E0382F360F81E0361708F080E06A
:102C6000282F2E0F81E02E1708F080E0982F9A0F62
:102C700081E09A1708F080E0810FB0932E06F09360
:102C80002F0670933006509331063093320620930E
:102C9000330690933406809335066091D707709180
:102CA000D807635F7F4F4091E0015091E101425F9F
:102CB0005F4F81E696E00E94EA2FE091E001F091FB
:102CC000E1017B968091D7079091D80700912E065D
:102CD00010912F0620913006309131064091320636
:102CE000509133066091340670913506E0902B06C2
:102CF000F0902C068E0F9F1F0E94382780912E0681
:102D000020912F06309130064091310660913206B5
:102D1000E0913306A091340610913506B82FBF5FBD
:102D200091E0B81708F090E0F92FF20F81E0F21768
:102D300008F080E0782F730F81E0731708F080E0CF
:102D4000582F540F81E0541708F080E0382F360FC9
:102D500081E0361708F080E0282F2E0F81E02E1733
:102D600008F080E0982F9A0F81E09A1708F080E031
:102D7000810FB0934506F093460670934706509333
:102D800048063093490620934A0690934B06809359
:102D90004C0680912B0690912C06019690932C0660
:102DA00080932B0610922E0610922F06109230065A
:102DB00010923106109232061092330610923406A9
:102DC00010923506A9E0B7E0E1E6F6E088EA019066
:102DD0000D928150E1F781E696E064EE71E00E9489
:102DE0003F2F84E18093360210923702109238020E
:102DF0002CE02093390280912706909128060196B5
:102E000090933A02809127068F5F80933B02109245
:102E10003C0210923D0210923E0210923F0210922C
:102E200040022093410282E492E06EE472E040E3CB
:102E300050E020E131E004EE11E0E0E2EE2EF12C72
:102E4000BCE0CB2ED12C0E94BB2880919F018093A7
:102E5000A3018091A0018093A4018091A10180939E
:102E6000A5018091A2018093A60180912C068093F8
:102E7000A7018093B30180912B068093A8018093D2
:102E8000B401AEEAAA2EA1E0BA2EFAEBCF2EF1E001
:102E9000DF2EEE24FF2420912E0630912F06409144
:102EA0003006509131066091320670913306809160
:102EB0003406909135060E2D0E943887F501208347
:102EC00020912E0630912F06409130065091310608
:102ED00060913206709133068091340690913506E8
:102EE0000E943887F601208388E090E0E80EF91E02
:102EF0000894A108B1080894C108D10890E3E91624
:102F0000F10449F686E18093BB018EEF8093BC010A
:102F10008DEF8093BD011092BE0188E18093BF01C7
:102F20002091E0013091E101225C3F4F8091D70771
:102F30009091D807820F931F60EC71E043EA51E053
:102F400026E332E008E110E0E3EBEE2EE1E0FE2EB6
:102F50000E94C53A892B49F483EB97E00E944E41C9
:102F600082E060E50E94FB08C8C089E097E066E364
:102F700072E048E150E00E94EA2F89E097E064EEB9
:102F800071E00E943F2FE091E001F091E101B996DC
:102F90008091D7079091D80700912E0610912F06A7
:102FA000209130063091310640913206509133061F
:102FB0006091340670913506E0902B06F0902C0657
:102FC0008E0F9F1F0E9459276091E0017091E101CF
:102FD000625A7F4F8091D7079091D8070E94E808E6
:102FE00080912E0620912F063091300640913106B7
:102FF00060913206E0913306A091340610913506B7
:10300000B82FBF5F91E0B81708F090E0F92FF20FEA
:1030100081E0F21708F080E0782F730F81E07317DA
:1030200008F080E0582F540F81E0541708F080E03A
:10303000382F360F81E0361708F080E0282F2E0F4A
:1030400081E02E1708F080E0982F9A0F81E09A1700
:1030500008F080E0810FB0932E06F0932F06709356
:103060003006509331063093320620933306909306
:1030700034068093350683EB97E00E944E4185E04D
:1030800001C086E080936C0138C0E0915706F09152
:1030900058068FE991E0958384838FEA91E09783C6
:1030A000868380EC91E09183808380ED91E093832F
:1030B0008283A0915906B0915A061196FC93EE9323
:1030C00080915B0690915C0613969C938E93129769
:1030D0000E946D3F682F80932F2311E010933223BD
:1030E0004091590650915A0680E090E00E94C840F5
:1030F00087E080936C011093360621E030E0C9012F
:10310000C853DC4F0FB6F894DEBF0FBECDBFCF91D2
:10311000DF911F910F91FF90EF90DF90CF90BF90C4
:10312000AF909F908F907F906F900895AF92BF92D5
:10313000CF92DF92EF92FF920F931F93DF93CF9383
:10314000CDB7DEB768970FB6F894DEBF0FBECDBF20
:103150006C015B0180912606882309F003C28091EF
:1031600037068823D9F0109237068FE496E00E9444
:103170004C43D60111968C91882319F481E060E0CC
:103180005EC080913906882329F0809144068150E1
:103190008093440681E080932606E4C1809139063D
:1031A000882371F480913606882351F0F6018081DE
:1031B000882331F46C30710519F40E94CE09D2C114
:1031C00090916C01892F8550833060F4C601B50160
:1031D0000E94CD0C019709F0C5C18FE496E00E94D2
:1031E0004C43C0C1923019F4D6018C9112C0943076
:1031F00029F4F60180818031E1F424C0993029F46A
:10320000D6018C91833061F41DC0983029F4F60109
:103210008081813071F416C0913029F4D6018C91EF
:10322000823039F40FC0933069F4F60180818E301A
:1032300049F060913806662309F494C182E00E9447
:10324000FB0890C18FE496E00E944C4380913806C1
:10325000882311F01092380680916C01823079F049
:1032600080912D06813059F480912706909128068F
:103270000196909328068093270610922D06D6017A
:103280008C91823019F481E080936C0119821A824A
:103290001B821C82FE013196D6011B968C911B97D6
:1032A00089831A968C911A97818319968C91199714
:1032B00082831D821E821F821886FE013596189613
:1032C0008C9118978D8317968C91179781831696FA
:1032D0008C911697828319861A861B861C86FE019E
:1032E000399613968C911397898712968C91129721
:1032F000818311968C91828380916F01882311F4D0
:1033000060E0A7C049855A856B857C8589819A8153
:10331000AB81BC8184179507A607B70708F048C0A2
:103320008FEB97E0BA010E948941892B19F482E062
:1033300060E585CF8091C3079091C4079093D8072B
:103340008093D70760E012C0A62FB0E0E091D707C6
:10335000F091D807EA0FFB1F8D819E81E80FF91FBE
:10336000AC0DBD1D1C968C9180836F5F29813A81C5
:103370004B815C81862F90E0A0E0B0E0821793073C
:10338000A407B50708F310926F01B5016C507040A7
:10339000CB01AA2797FDA095BA2F281739074A070E
:1033A0005B0708F0DFC0C9010C96621B730BD6C027
:1033B00080916C01823059F0893049F0853039F0C4
:1033C000445F5F4F81E696E0B6010E94EA2F69856F
:1033D0007A85C6010C960E94CD0C019709F0C2C0F7
:1033E0008091290690912A06019690932A0680934F
:1033F000290629853A854B855C85E4EFFFEFAE0E03
:10340000BF1EC501AA2797FDA095BA2F6CE070E0FA
:10341000A60EB71E281739074A075B0708F0A2C097
:10342000C9010C9664EF7FEF621B730B95C0A62F4A
:10343000B0E0E091D707F091D807EA0FFB1F8D812C
:103440009E81E80FF91FAC0DBD1D1C968C918083E9
:103450006F5F29813A814B815C81862F90E0A0E0EB
:10346000B0E082179307A407B50708F38D819E810A
:10347000AF81B885280F391F4A1F5B1F89859A8540
:10348000AB85BC85281739074A075B0709F06AC076
:1034900020E030E0BE01635F7F4FFB01E20FF31FCE
:1034A000D601A20FB31F8C9180832F5F3F4F2C302A
:1034B000310599F71D8A1C8A1B8AD60111968C91B9
:1034C00011978E8B12968C9112978F8B13968C91ED
:1034D000888F81E696E04CE050E00E94EA2F6091F0
:1034E000D7077091D80749855A8581E696E00E94F2
:1034F000EA2F69857A858091D7079091D8070E9435
:10350000CD0C019779F58091290690912A060196B4
:1035100090932A06809329068FEB97E00E944E41F4
:10352000E980FA800B811C819501442737FD409585
:10353000542FD801C7010C96A11DB11D8217930706
:10354000A407B50778F481E080936F01C7010C965A
:1035500064EF7FEF6E197F096A0D7B1D8C0D9D1D39
:103560000E94961868960FB6F894DEBF0FBECDBFC6
:10357000CF91DF911F910F91FF90EF90DF90CF904F
:10358000BF90AF9008955F926F927F928F929F92BB
:10359000AF92BF92CF92DF92EF92FF920F931F9361
:1035A000CF93DF9380916C01823069F0833020F4F7
:1035B000813009F02BC20FC1843009F455C1893024
:1035C00009F024C279C083EB97E069E170E00E94C2
:1035D0008941892B09F47FC58091B7079091B8077D
:1035E0009093D8078093D70700912E0610912F064D
:1035F00020913006309131064091320650913306C9
:103600006091340670913506E0902B06F0902C0600
:103610000E946B2680912E0620912F063091300655
:103620004091310660913206E0913306A091340654
:1036300010913506B82FBF5F91E0B81708F090E001
:10364000F92FF20F81E0F21708F080E0782F730F66
:1036500081E0731708F080E0582F540F81E0541771
:1036600008F080E0382F360F81E0361708F080E050
:10367000282F2E0F81E02E1708F080E0982F9A0F48
:1036800081E09A1708F080E0810FB0932E06F09346
:103690002F067093300650933106309332062093F4
:1036A000330690933406809335068091D707909126
:1036B000D80769E170E08CC083EB97E063E470E0C9
:1036C0000E948941892B29F482E060E50E94FB0871
:1036D0009DC18091B7079091B8079093D8078093C8
:1036E000D70700D0A0902E06B0902F06C0903006CD
:1036F000D0903106E0903206F09033060091340607
:103700001091350680902B0690902C06209127066C
:1037100030912806EDB7FEB73283218360E771E070
:1037200040E050E020E00E94522A80912E06209135
:103730002F06309130064091310660913206E091BB
:103740003306A091340610913506B82FBF5F91E083
:103750000F900F90B81708F090E0F92FF20F81E06A
:10376000F21708F080E0782F730F81E0731708F0EC
:1037700080E0582F540F81E0541708F080E0382F74
:10378000360F81E0361708F080E0282F2E0F81E0F9
:103790002E1708F080E0982F9A0F81E09A1708F012
:1037A00080E0810FB0932E06F0932F0670933006C1
:1037B00050933106309332062093330690933406AB
:1037C000809335068091D7079091D80763E470E025
:1037D0000E94E80817C16091E0017091E1016D5B02
:1037E0007F4F83EB97E00E948941892B09F473C4D2
:1037F0008091B7079091B8079093D8078093D70727
:1038000000D04091E2015091E301A0902E06B090CB
:103810002F06C0903006D0903106E0903206F0902E
:103820003306009134061091350680902B06909057
:103830002C062091270630912806EDB7FEB732837B
:10384000218360E771E02091E0010E94522A0F90ED
:103850000F906091E0017091E1016D5B7F4F80916D
:10386000D7079091D80781C083EB97E068E570E0B7
:103870000E948941892B09F42EC48091B707909149
:10388000B8079093D8078093D707E0902E06F09062
:103890002F060091300610913106209132063091AA
:1038A00033064091340650913506C0902B06D090D7
:1038B0002C06A0902706B090280664E072E00E94D3
:1038C000902B80912E0620912F063091300640914A
:1038D000310660913206E0913306A09134061091D2
:1038E0003506B82FBF5F91E0B81708F090E0F92FC8
:1038F000F20F81E0F21708F080E0782F730F81E07B
:10390000731708F080E0582F540F81E0541708F027
:1039100080E0382F360F81E0361708F080E0282F3E
:103920002E0F81E02E1708F080E0982F9A0F81E08B
:103930009A1708F080E0810FB0932E06F0932F06BF
:10394000709330065093310630933206209333063D
:103950009093340680933506E091D707F091D8070D
:1039600082E08587CF0168E570E00E94E8088091D9
:103970002E0620912F06309130064091310660913D
:103980003206E0913306A091340610913506B82F27
:10399000BF5F91E0B81708F090E0F92FF20F81E0D7
:1039A000F21708F080E0782F730F81E0731708F0AA
:1039B00080E0582F540F81E0541708F080E0382F32
:1039C000360F81E0361708F080E0282F2E0F81E0B7
:1039D0002E1708F080E0982F9A0F81E09A1708F0D0
:1039E00080E0810FB0932E06F0932F06709330067F
:1039F0005093310630933206209333069093340669
:103A00008093350683EB97E00E944E418091390602
:103A100090916C01882309F021C2953009F0D2C33E
:103A200080912B0690912C06019790932C06809301
:103A30002B066091E0017091E101625A7F4F83EBA8
:103A400097E00E948941892B09F445C38091B7070B
:103A50009091B8079093D8078093D7076091E201BF
:103A60007091E3014091E0015091E101C090450661
:103A7000D0904606E0904706F0904806009149062F
:103A800010914A0620914B0630914C06A0902B06CF
:103A9000B0902C0680902706909028060E94D82689
:103AA0008091450690914606409147065091480600
:103AB0006091490670914A06A0914B06B0914C0660
:103AC000082F0F5F11E0081708F010E0190F21E030
:103AD000191708F020E0F22FF40F31E0F41708F086
:103AE00030E0E32FE50F41E0E51708F040E0460F36
:103AF00051E0461708F050E0570F61E0571708F003
:103B000060E06A0F71E06A1708F070E07B0F0093C5
:103B1000450610934606F0934706E0934806409307
:103B2000490650934A0660934B0670934C062091C9
:103B3000E0013091E101255E3F4F8091D7079091E0
:103B4000D807E0902B06F0902C06820F931F2F2FA2
:103B50003E2F0E94382780914506209146063091DD
:103B600047064091480660914906E0914A06A091B7
:103B70004B0610914C06B82FBF5F91E0B81708F0C4
:103B800090E0F92FF20F81E0F21708F080E0782F33
:103B9000730F81E0731708F080E0582F540F81E015
:103BA000541708F080E0382F360F81E0361708F000
:103BB00080E0282F2E0F81E02E1708F080E0982F4C
:103BC0009A0F81E09A1708F080E0810FB0934506C4
:103BD000F093460670934706509348063093490683
:103BE00020934A0690934B0680934C0680912B06B7
:103BF00090912C06019690932C0680932B0684E1DD
:103C00008093360210923702109238022CE02093F3
:103C10003902909127068091280680933A0290936A
:103C20003B0210923C0210923D0210923E02109212
:103C30003F02109240022093410281E696E064EE3A
:103C400071E00E943F2F82E492E06EE472E040E374
:103C500050E020E131E004EE11E0F0E2EF2EF12C33
:103C6000ECE0CE2ED12C0E94BB2880919F01809346
:103C7000A3018091A0018093A4018091A101809370
:103C8000A5018091A2018093A60180912B069091BD
:103C90002C069093A8018093A7019093B401809380
:103CA000B30150902E0660902F06709030068090E1
:103CB000310690903206A0903306B09034061091F1
:103CC0003506B9EACB2EB1E0DB2EA5EBEA2EA1E05A
:103CD000FA2EC0E0D0E0252D362D472D582D692D28
:103CE0007A2D8B2D912F0C2F0E943887F60121936E
:103CF0006F01F70121937F012896C033D10559F751
:103D000086E18093BB018EEF8093BC018DEF8093A1
:103D1000BD011092BE0188E18093BF012091E001B6
:103D20003091E101225C3F4F8091D7079091D807F5
:103D3000820F931F60EC71E043EA51E026E332E02A
:103D400008E110E0F3EBEF2EF1E0FF2E0E94C53A00
:103D5000892B09F4BCC1E091E001F091E101B99631
:103D60008091D7079091D80700912E0610912F06C9
:103D70002091300630913106409132065091330641
:103D80006091340670913506E0902B06F0902C0679
:103D90008E0F9F1F0E9459276091E0017091E101F1
:103DA000625A7F4F8091D7079091D8070E94E80808
:103DB00080912E0620912F063091300640913106D9
:103DC00060913206E0913306A091340610913506D9
:103DD000B82FBF5F91E0B81708F090E0F92FF20F0D
:103DE00081E0F21708F080E0782F730F81E07317FD
:103DF00008F080E0582F540F81E0541708F080E05D
:103E0000382F360F81E0361708F080E0282F2E0F6C
:103E100081E02E1708F080E0982F9A0F81E09A1722
:103E200008F080E0810FB0932E06F0932F06709378
:103E30003006509331063093320620933306909328
:103E400034068093350683EB97E00E944E4189E06B
:103E500097E064EE71E00E943F2FB4C1973009F003
:103E6000B1C180912B0690912C06019790932C065E
:103E700080932B0680916E01882339F483EB97E0C1
:103E80000E944E4181E080936E0183EB97E063E4F2
:103E900070E00E948941892B09F41DC18091B70708
:103EA0009091B8079093D8078093D7070091450663
:103EB00010914606209147063091480640914906E8
:103EC00050914A0660914B0670914C06E0902B068B
:103ED000F0902C060E9438278091450620914606D6
:103EE000309147064091480660914906E0914A06A4
:103EF000A0914B0610914C06B82FBF5F91E0B81708
:103F000008F090E0F92FF20F81E0F21708F080E05E
:103F1000782F730F81E0731708F080E0582F540F4B
:103F200081E0541708F080E0382F360F81E0361713
:103F300008F080E0282F2E0F81E02E1708F080E097
:103F4000982F9A0F81E09A1708F080E0810FB093C4
:103F50004506F09346067093470650934806309303
:103F6000490620934A0690934B0680934C06809115
:103F70002B0690912C06019690932C0680932B068D
:103F800081E696E064EE71E00E943F2F84E1809329
:103F9000360210923702109238022CE02093390238
:103FA0008091270690912806019690933A020197F6
:103FB0008F5F80933B0210923C0210923D02109260
:103FC0003E0210923F02109240022093410282E48E
:103FD00092E06EE472E040E350E020E231E004EE73
:103FE00011E0E0E2EE2EF12CBCE0CB2ED12C0E94B1
:103FF000BB288091AF018093A3018091B001809391
:10400000A4018091B1018093A5018091B2018093B8
:10401000A60180912B0690912C069093A801809385
:10402000A7019093B4018093B30150902E06609045
:104030002F06709030068090310690903206A09046
:104040003306B090340610913506A9EACA2EA1E0D5
:10405000DA2EF5EBEF2EF1E0FF2EC0E0D0E0252DBB
:10406000362D472D582D692D7A2D8B2D912F0C2F04
:104070000E943887F60121936F01F70121937F0198
:104080002896C033D10559F786E18093BB018EEFA6
:104090008093BC018DEF8093BD011092BE0188E139
:1040A0008093BF018091D7079091D807839660EDE8
:1040B00071E043EA51E026E332E008E110E0E3EB8F
:1040C000EE2EE1E0FE2E0E94C53A892B49F483EBE7
:1040D00097E00E944E4182E060E50E94FB0872C0BA
:1040E0008091D7079091D80700912E0610912F0646
:1040F00020913006309131064091320650913306BE
:104100006091340670913506E0902B06F0902C06F5
:104110000E960E9459278091D7079091D80763E4A3
:1041200070E00E94E80880912E0620912F063091C1
:1041300030064091310660913206E0913306A0913D
:10414000340610913506B82FBF5F91E0B81708F01C
:1041500090E0F92FF20F81E0F21708F080E0782F5D
:10416000730F81E0731708F080E0582F540F81E03F
:10417000541708F080E0382F360F81E0361708F02A
:1041800080E0282F2E0F81E02E1708F080E0982F76
:104190009A0F81E09A1708F080E0810FB0932E0605
:1041A000F0932F0670933006509331063093320609
:1041B00020933306909334068093350683EB97E083
:1041C0000E944E41DF91CF911F910F91FF90EF9090
:1041D000DF90CF90BF90AF909F908F907F906F9027
:1041E0005F9008956F927F928F929F92AF92BF924D
:1041F000CF92DF92EF92FF920F931F93CF93DF93B3
:10420000282FAB0180917E29281709F0C6C0809124
:104210003906882339F080915D0690915E06622F01
:104220000E94C8408091472881FFC9C0809139060B
:104230008823B9F080915B0690915C069C01D901BE
:10424000EFE4F3E280E101900D928150E1F7E0911B
:104250005B06F0915C0680916F2390917023938BA5
:10426000828B00914C2810914D28A0903723B0905C
:1042700038239924939482E0882EBAE36B2EB6E01B
:104280007B2EACE3CA2EA6E0DA2E2091390622233B
:1042900069F080916C01873049F48091360688235B
:1042A00029F4F8018081863109F487C0F801808102
:1042B000853119F49092370639C090916C01953090
:1042C00019F0973071F503C0843181F178C08731DE
:1042D00059F1222331F1863109F071C080926C01CD
:1042E00081E696E00E941E2F109228061092270663
:1042F00010922A061092290685EC97E00E944E4102
:1043000080916E01882321F483EB97E00E944E4157
:1043100090926E0190926D011092360610922D06C9
:1043200005C0863119F04BC090923606F8018481A1
:1043300080933A068381F3018183F801828580931B
:104340003C068185F6018183F8018085F601828330
:10435000F8018781F6018383F8018681F601848361
:10436000F8018581F6018583F801F384EE248485C4
:10437000E701C80FD11DC8010D96BE010E94961815
:10438000C5010D97C817D907D0F42D960C0F1D1F26
:104390002D975C01AC1ABD0A78CF283881F48FE4E0
:1043A00096E00E94E742892B51F0809139068823DC
:1043B00021F080916C01873011F00E94C31ADF91C7
:1043C000CF911F910F91FF90EF90DF90CF90BF9012
:1043D000AF909F908F907F906F900895CF93DF93D1
:1043E000EC01288139812115310529F02B5C3540FC
:1043F00009F06DC023C08091E1079091E20790938E
:10440000600680935F0680E090E060E070E040E04E
:1044100050E00E942053FC0190935C0680935B0661
:1044200081E09BEB918B808B81E696E00E941E2FB2
:104430008BEC95E09983888381E04CC0862FBA018C
:104440000E94F22090912606913091F71092260654
:1044500082E080936C011092280610922706109239
:104460002A061092290610922C0610922B06109202
:104470002D0610922E0610922F06109230061092E2
:1044800031061092320610923306109234061092C2
:10449000350690936E0110923606109237061092F0
:1044A000380690936D0181E696E00E941E2FE09100
:1044B0005B06F0915C0680E1DF011D928A95E9F7C9
:1044C000E0915B06F0915C06138A128AB1CF1982E3
:1044D000188283E0DF91CF910895CF92DF92EF921F
:1044E000FF920F931F93CF93DF93EC018881998103
:1044F000009729F0855B954009F0DAC0CDC0809126
:10450000E1079091E2079093600680935F06FA01BD
:10451000728163818081918140E050E00E9420534C
:1045200090935C0680935B0610922C0610922B06EB
:1045300010922E0610922F0610923006109231061D
:1045400010923206109233061092340610923506FD
:10455000109228061092270610922A061092290619
:104560001092360681E696E00E941E2F83EB97E0BC
:1045700063E470E00E948941019709F099C080913D
:10458000B7079091B8079093D8078093D707009109
:104590002E0610912F062091300630913106409161
:1045A0003206509133066091340670913506E090E2
:1045B0002B06F0902C06C0902706D09028060E946B
:1045C0007A2A80912E0620912F0630913006409154
:1045D000310660913206E0913306A09134061091C5
:1045E0003506B82FBF5F91E0B81708F090E0F92FBB
:1045F000F20F81E0F21708F080E0782F730F81E06E
:10460000731708F080E0582F540F81E0541708F01A
:1046100080E0382F360F81E0361708F080E0282F31
:104620002E0F81E02E1708F080E0982F9A0F81E07E
:104630009A1708F080E0810FB0932E06F0932F06B2
:104640007093300650933106309332062093330630
:1046500090933406809335064091D7075091D80740
:10466000CA01DC01E0E7F1E05B968C915B978193F6
:10467000119681E0E039F807B9F7CA0163E470E008
:104680000E94E80883EB97E00E944E4185EB95E09D
:104690009983888381E00FC080912606882319F0D2
:1046A0001092260605C0862FBA010E94F220EECF96
:1046B0001982188283E0DF91CF911F910F91FF90B3
:1046C000EF90DF90CF9008952F923F924F925F929C
:1046D0006F927F928F929F92AF92BF92CF92DF9212
:1046E000EF92FF920F931F93DF93CF93CDB7DEB777
:1046F00028970FB6F894DEBF0FBECDBFFC013B017B
:104700004A0180916C01873009F09DC080912E068E
:104710008E8390912F069F83A0913006A8872090CA
:104720003106309032064090330650903406109196
:1047300035068A3089F4992379F4AA2369F4222072
:1047400059F4332049F4442039F4552029F4112335
:1047500019F40E94CE093CC18281938190935C063A
:1047600080935B0690913906A3EAB1E020E030E047
:10477000992321F0F901E155FE4F03C0F901E156FB
:10478000FE4F80818C932F5F3F4F1196243031056F
:1047900079F790912B0680912C068093A701809346
:1047A000B3019093A8019093B401BEEAAB2EB1E09F
:1047B000BB2EAAEBCA2EA1E0DA2EEE24FF242E8116
:1047C0003F814885522D632D742D852D912F0E2DFF
:1047D0000E943887F5012083D6012C93E8E0F0E0B1
:1047E000EE0EFF1E0894A108B1080894C108D10874
:1047F000F0E3EF16F10419F787E18093BB018EEF28
:104800008093BC018DEF8093BD019092BE01809298
:10481000BF0180916E01882321F483EB97E00E9411
:104820004E4110926E01FDE14F2E512C480C591C47
:1048300083EB97E0B2010E948941892B39F482E031
:1048400060E50E94FB082FEF3FEFC4C0A090B707C0
:10485000B090B8070E94276B90934E0680934D0648
:104860008091390695012B5E3F4F882321F0C901C5
:1048700060ED71E003C0C90160EC71E043EA51E012
:1048800093018401E3EBEE2EE1E0FE2E0E94C53A97
:10489000892B29F483EB97E00E944E41D0CF0E94F0
:1048A000276B00D000D000D0EDB7FEB731968E0157
:1048B0000F5F1F4FADB7BEB712961C930E931197A3
:1048C00021E531E03383228320914D0630914E065D
:1048D000821B930B958384830E94288EEDB7FEB7CD
:1048E00036960FB6F894FEBF0FBEEDBFC8010E940A
:1048F000176880E190E0880E991EE0902E06F090F7
:104900002F06009130061091310620913206309129
:1049100033064091340650913506C0902B06D09056
:104920002C06C501B4010E94FC2780912E0620911F
:104930002F06309130064091310660913206E091A9
:104940003306A091340610913506B82FBF5F91E071
:10495000B81708F090E0F92FF20F81E0F21708F095
:1049600080E0782F730F81E0731708F080E0582FF4
:10497000540F81E0541708F080E0382F360F81E0A3
:10498000361708F080E0282F2E0F81E02E1708F050
:1049900080E0982F9A0F81E09A1708F080E0810F4D
:1049A000B0932E06F0932F06709330065093310685
:1049B0003093320620933306909334068093350665
:1049C000C501B2010E94E8088FE496E00E944C43C2
:1049D00020E030E0C90128960FB6F894DEBF0FBE84
:1049E000CDBFCF91DF911F910F91FF90EF90DF909E
:1049F000CF90BF90AF909F908F907F906F905F907F
:104A00004F903F902F900895DF93CF9300D0CDB774
:104A1000DEB79A8389836230D0F581E080933906CE
:104A200082E080936C0160937E028BEC97E068E0FB
:104A300070E00E948941892B51F18091CF079091BC
:104A4000D007909358068093570681ED97E064E075
:104A500070E00E948941892BD1F08091D507909117
:104A6000D60790935A06809359068091E10790915A
:104A7000E20790935E0680935D0682E691E0BE01B8
:104A80006F5F7F4F0E94FB4020E030E002C02FEFBD
:104A90003FEFC9010F900F90CF91DF910895DF9301
:104AA000CF9300D000D0CDB7DEB71092390629E001
:104AB00020936C019A8389837C836B838BEC97E0D2
:104AC00068E070E00E948941892B39F18091CF071D
:104AD0009091D007909358068093570681ED97E008
:104AE00064E070E00E948941892BB9F08091D5077C
:104AF0009091D60790935A06809359068091E107CA
:104B00009091E20790935E0680935D0686E591E0C2
:104B1000BE016F5F7F4F0E94FB400F900F900F9080
:104B20000F90CF91DF9108953F924F925F926F92D5
:104B30007F928F929F92AF92BF92CF92DF92EF922D
:104B4000FF920F931F93DC01702E622E532E442E82
:104B5000352EFC0161938EEF11968C93DF01119637
:104B60008DEF8183FD0131961196DC924F010894FF
:104B7000811C911CC18264010894C11CD11C970145
:104B8000402F512F662D752D842D932D08E20E9404
:104B90003887F401218346010894811C911C9701F8
:104BA000472D512F662D752D842D932D00E20E94E7
:104BB0003887F601218364010894C11CD11C970138
:104BC000472D512F662D752D842D932D08E10E94C0
:104BD0003887F401218346010894811C911C9701B8
:104BE000472D512F662D752D842D932D00E10E94A8
:104BF0003887F601218364010894C11CD11C9701F8
:104C0000472D512F662D752D842D932D08E00E9480
:104C10003887F4012183D6011196F601E182FD0166
:104C200031961196BC92A1823296CF011F910F91BD
:104C3000FF90EF90DF90CF90BF90AF909F908F90BC
:104C40007F906F905F904F903F9008958F929F92CA
:104C5000AF92BF92CF92DF92EF92FF920F931F938A
:104C6000DC01FC0161934901AA24BB2411968C92BA
:104C7000DF011196C12ED22EE32EFF24C182FD0149
:104C8000319611960C93DF0111965183FD013196F7
:104C900011964C93DF0111961182FD013196119608
:104CA0001C92DF0111961182CD01019611968C9212
:104CB000FC013196DC011196CC9201833296CF0132
:104CC0001F910F91FF90EF90DF90CF90BF90AF902A
:104CD0009F908F900895AF92BF92CF92DF92EF9204
:104CE000FF920F931F93E62F670166E17801890118
:104CF0009A014E2F572F7CE0A72EB12C0E949425AD
:104D000060E040E050E000E010E020E030E00E9491
:104D100026261F910F91FF90EF90DF90CF90BF90CC
:104D2000AF9008956F927F928F929F92AF92BF92B1
:104D3000CF92DF92EF92FF920F931F93CF93DF9367
:104D4000762E672E450166E1EFE1AE2EB12C0E9472
:104D5000942563E0A40103E110E020E030E00E942C
:104D60002626DC01FC018EEF81938FEF11968C9348
:104D7000119780E18183272D362DC901EC01FD01BA
:104D80009D01205F3F4F899183833196E217F3079E
:104D9000D1F7DF91CF911F910F91FF90EF90DF90AE
:104DA000CF90BF90AF909F908F907F906F9008951D
:104DB0002F923F924F925F927F928F929F92AF92EB
:104DC000BF92CF92DF92EF92FF920F931F93DF93E8
:104DD000CF93CDB7DEB71B012A017C2DED2DFE2D23
:104DE000AF2DB02F712EA90165012EE030E0420EEB
:104DF000531E66E1E72EFE2E0F2F1A2F2B2F372D75
:104E000052010E94942544EF5FEF440E551E82012B
:104E100020E030E04EEF5FEF440E551E60E1A4014C
:104E20000E942626FC0150824182DC0120E030E015
:104E300009C0F101E20FF31F808111968C93119745
:104E40002F5F3F4F11962415350598F3CF91DF91D1
:104E50001F910F91FF90EF90DF90CF90BF90AF9098
:104E60009F908F907F905F904F903F902F900895EC
:104E7000AF92BF92CF92DF92EF92FF920F931F9368
:104E8000E62F670164E1780189019A014E2F572FBF
:104E9000F1E0AF2EB12C0E949425FC0181E08083CB
:104EA0001F910F91FF90EF90DF90CF90BF90AF9048
:104EB00008952F923F924F925F926F927F928F92BE
:104EC0009F92AF92BF92CF92DF92EF92FF920F9399
:104ED0001F93DF93CF9300D0CDB7DEB7902E712E06
:104EE000622E532E442E352E262E7983EA828F2C65
:104EF00066E1E02EF12E022F132F242F352F422DA5
:104F0000572FCA80D82CA8E2AA2EB12C0E94942533
:104F1000FC01DC018D927D01BA81B18367010894A7
:104F2000C11CD11C292D372D462D552D642D732DD7
:104F3000822D998108E20E943887F701218376014A
:104F40000894E11CF11C292D372D462D552D642D7B
:104F5000732D822D998100E20E943887D601119627
:104F60002C9367010894C11CD11C292D372D462D87
:104F7000552D642D732D822D998108E10E9438876B
:104F8000F701218376010894E11CF11C292D372DAE
:104F9000462D552D642D732D822D998100E10E949F
:104FA0003887D60111962C93292D372D462D552D56
:104FB000642D732D822D998108E00E943887F701B6
:104FC00021830894E11CF11CD70111969C920F904B
:104FD0000F90CF91DF911F910F91FF90EF90DF9095
:104FE000CF90BF90AF909F908F907F906F905F9089
:104FF0004F903F902F9008952F923F924F925F9243
:105000006F927F928F929F92AF92BF92CF92DF92D8
:10501000EF92FF920F931F93DF93CF9300D0CDB702
:10502000DEB75B019E2C7F2C602E512E422E332E3C
:10503000242E5983CA828D2C67E10E949425FC019D
:10504000DC018D927D01BA81B18367010894C11C96
:10505000D11C292D372D462D552D642D732D822DD4
:10506000998108E20E943887F7012183760108942C
:10507000E11CF11C292D372D462D552D642D732D46
:10508000822D998100E20E943887D60111962C93D7
:1050900067010894C11CD11C292D372D462D552D93
:1050A000642D732D822D998108E10E943887F701C4
:1050B000218376010894E11CF11C292D372D462D02
:1050C000552D642D732D822D998100E10E94388722
:1050D000D60111962C93292D372D462D552D642D53
:1050E000732D822D998108E00E943887F701218372
:1050F0000894E11CF11CD70111969C920F900F901F
:10510000CF91DF911F910F91FF90EF90DF90CF90A3
:10511000BF90AF909F908F907F906F905F904F90D7
:105120003F902F9008958F929F92AF92BF92CF920F
:10513000DF92EF92FF920F931F93A62FF7019C2C03
:105140008A2C65E1780189019A014A2F572F6F0156
:10515000B2E0AB2EB12C0E949425FC01908281829A
:105160001F910F91FF90EF90DF90CF90BF90AF9085
:105170009F908F9008952F923F924F925F926F92DF
:105180007F928F929F92AF92BF92CF92DF92EF92D7
:10519000FF920F931F93DF93CF93CDB7DEB7C25427
:1051A000D3400FB6F894DEBF0FBECDBF2C0149012E
:1051B000CF5BDC4F0883C154D340CE5BDC4F1883F8
:1051C000C254D340170136018E010F5D1F4FC80135
:1051D0000E944031D4010D900020E9F71197A819E1
:1051E000B909C801B401AD010E94E030C801CF5B2C
:1051F000DC4F6881C154D340CE5BDC4F7881C25410
:10520000D340A7010E94E0305E010894A11CB11CAC
:10521000C801B50140E250E00E94E330CC24DD2417
:10522000F02E012FC501EA2C192F4EC08F2D902F83
:105230000E942B318F2D902F6E2D712F40E250E068
:105240000E94E030D4010D900020E9F71197A819D1
:10525000B9098F2D902FB401AD010E94E0308F2D40
:10526000902FCF5BDC4F6881C154D340CE5BDC4FC5
:105270007881C254D340A1010E94E030B2016C0D8C
:105280007D1DA3014C195D094132510514F040E226
:1052900050E08F2D902F0E94E3308F2D902F0E9491
:1052A0002B318F2D902F6E2D712F40E250E00E94F8
:1052B000E0308F2D902FB50140E250E00E94E330A6
:1052C00080E290E0C80ED91EC614D7040CF4AECF0D
:1052D00081E090E0CE5BDC4F0FB6F894DEBF0FBEEE
:1052E000CDBFCF91DF911F910F91FF90EF90DF9095
:1052F000CF90BF90AF909F908F907F906F905F9076
:105300004F903F902F9008953F924F925F926F92EF
:105310007F928F929F92AF92BF92CF92DF92EF9245
:10532000FF920F931F93DF93CF9300D0CDB7DEB7DB
:105330002B015A834983322E7C2DED2D9701A80134
:105340006401632C7724A6E3B0E06A0E7B1E66E15D
:105350007501072F1E2F53010E949425E4EFFFEFE4
:105360006E0E7F1E882477FC8094982C61E04E8915
:105370005F89940183010E9426266C018EEFD6017D
:105380008D938D018DEFF60181837D010894E11CE1
:10539000F11C41145104B1F50E949F66292F332757
:1053A00044275527D80111962C93D70111969C01BB
:1053B00044275527F7012183FD013196272F382FE8
:1053C000492F552711962C93618392E0A92EB12C79
:1053D000AE0EBF1E0E94276B0E945C4486018CE1CA
:1053E000E82EF12CEC0CFD1C0E9459448F77D8015B
:1053F00016968C930F5F1F4F0E151F05A9F7D50149
:105400005C960DC0D201F6019601205E3F4F8D9152
:1054100082833196E217F307D1F7D7019096FD0109
:10542000119211963C921197AF014F5F5F4FE98146
:10543000FA81EF2B91F020E030E00AC0E981FA8197
:10544000E20FF31F808111968C9311972F5F3F4FCE
:105450001196231598F3430D511DFA01119282E024
:10546000DA0111968C93DF0111961182FD013196BC
:105470008DEF11968C9381E0818312820F900F90B3
:10548000CF91DF911F910F91FF90EF90DF90CF9020
:10549000BF90AF909F908F907F906F905F904F9054
:1054A0003F9008958F929F92AF92BF92CF92DF92DA
:1054B000EF92FF920F931F93DF93CF93CDB7DEB799
:1054C00000D0EF85F889ADB7BEB71296FC93EE9386
:1054D00011970E9484290F900F90CF91DF911F9117
:1054E0000F91FF90EF90DF90CF90BF90AF909F9083
:1054F0008F9008957F928F929F92AF92BF92CF929A
:10550000DF92EF92FF920F931F93CF93DF93E22FDF
:10551000F42FA52FB62F772E470100D0CDB7DEB7D9
:10552000DA82C98260E070E040E050E020E058019B
:10553000CE2ED32EEF2EFA2E0B2F172D0E9484295C
:105540000F900F90DF91CF911F910F91FF90EF90EF
:10555000DF90CF90BF90AF909F908F907F900895F5
:105560002F923F924F925F926F927F928F929F9273
:10557000AF92BF92CF92DF92EF92FF920F931F9361
:10558000DF93CF9300D000D000D0CDB7DEB73B0182
:105590005E2C4F2C302E212E2B833C834D835E833B
:1055A000DA82C982450166E172E3A72EB12C0E941E
:1055B000942562E0A40106E210E020E030E00E94C1
:1055C00026267C018EEFF70181936F018DEFF701A5
:1055D000818386010F5F1F4F6114710491F50E9452
:1055E0009F66292F332744275527F6012183D801A9
:1055F00011969C0144275527F8012183FD0131961E
:10560000272F382F492F552711962C936183A2E01D
:10561000CA2ED12CCE0EDF1E0E94276B0E945C4446
:105620008701045E1F4F0E9459448F77F7018683DC
:105630000894E11CF11CE016F106A9F7D6015C966E
:105640000DC0D301F7019701205E3F4F8D918283FA
:105650003196E217F307D1F7D8019096FD01119228
:1056600011961C92DF0111968DEF818311961C9289
:105670001197CD010296E52CE39421E0E51408F0A2
:1056800020E0F22EF40C01E0F41408F000E0030D29
:1056900011E0031508F010E0120D21E0121508F0DA
:1056A00020E0FB812F0F31E02F1708F030E04C8114
:1056B000340F41E05C81351708F040E06D81460F02
:1056C00051E0461708F050E0EE815E0F66E1C980B8
:1056D000DA807CE0A72EB12C0E9494256EE042E097
:1056E00050E000E010E020E030E00E942626269600
:1056F0000FB6F894DEBF0FBECDBFCF91DF911F91E3
:105700000F91FF90EF90DF90CF90BF90AF909F9060
:105710008F907F906F905F904F903F902F90089563
:10572000AF92BF92CF92DF92EF92FF920F931F93AF
:105730000E94B02A1F910F91FF90EF90DF90CF90C1
:10574000BF90AF900895AF92BF92CF92DF92EF9249
:10575000FF920F931F93DB01F701560160E070E0A9
:10576000780189019A01AD016F010E94B02A1F9151
:105770000F91FF90EF90DF90CF90BF90AF90089582
:105780002F923F924F925F926F927F928F929F9251
:10579000AF92BF92CF92DF92EF92FF920F931F933F
:1057A000DF93CF93CDB7DEB7CE53D1400FB6F89489
:1057B000DEBF0FBECDBFC15DDE4F79836883CF52A0
:1057C000D140CF5CDE4F59834883C153D140C75D80
:1057D000DE4F19821882C952D1409E012F5D3F4F82
:1057E000C35CDE4F39832883CD53D140A9014C5D82
:1057F0005F4FC95CDE4F59834883C753D140DE01F8
:10580000AB5FBE4FC55CDE4FB983A883CB53D1409D
:1058100088579F4FC75CDE4F99838883C953D14017
:10582000E3C2C75DDE4F08811981C952D14026E02D
:10583000000F111F2A95E1F7C15DDE4FE881F98164
:10584000CF52D1400E0F1F1F9E012F5D3F4FCD5DE8
:10585000DE4F39832883C352D140790160E070E084
:10586000FB01EE0FFF1FEE0FFF1FE00FF11F208166
:1058700030E040E050E0522F442733272227838135
:1058800090E0A0E0B0E0282B392B4A2B5B2B8281E3
:1058900090E0A0E0B0E0BA2FA92F982F8827282BFE
:1058A000392B4A2B5B2B818190E0A0E0B0E0DC013A
:1058B00099278827282B392B4A2B5B2BD7012D932F
:1058C0003D934D935D937D016F5F7F4F6031710517
:1058D00039F6C95CDE4FE881F981C753D140A4880D
:1058E000B588C688D788CD5DDE4FA881B981C352FF
:1058F000D14014966D907D908D909C9017972D902F
:105900003D904D905D90CD5DDE4FB983A883C3522D
:10591000D14080819181A281B381280E391E4A1E17
:105920005B1ED601C50103E1B695A79597958795AE
:105930000A95D1F7A60195011DE0220F331F441FE0
:10594000551F1A95D1F7822B932BA42BB52BA601AB
:10595000950171E156954795379527957A95D1F739
:10596000860175016FE0EE0CFF1C001F111F6A9588
:10597000D1F72E293F29402B512B82279327A4278B
:10598000B5272AE0D694C794B794A7942A95D1F75F
:105990008A259B25AC25BD25280E391E4A1E5B1E77
:1059A000D401C30102E1B695A795979587950A950D
:1059B000D1F7A40193011EE0220F331F441F551F8E
:1059C0001A95D1F7822B932BA42BB52BA40193010D
:1059D00077E056954795379527957A95D1F78401C5
:1059E000730169E1EE0CFF1C001F111F6A95D1F7CE
:1059F0002E293F29402B512B82279327A427B527F7
:105A000023E096948794779467942A95D1F7862516
:105A10009725A825B925280E391E4A1E5B1E248EFF
:105A2000358E468E578E3496C55CDE4F288139817F
:105A3000CB53D140E217F30709F051CFC75CDE4FDB
:105A400048815981C953D140C95DDE4F598348838C
:105A5000C752D140CE010196CB5DDE4F998388833A
:105A6000C552D140FA01CF5DDE4F99838883C15280
:105A7000D1402191319141915191CF5DDE4FA8816B
:105A8000B981C152D1402D933D934D935D93CF5D2C
:105A9000DE4FB983A883C152D140C35CDE4F288159
:105AA0003981CD53D140A217B30719F760E070E0F8
:105AB000A988BA88CB88DC88898D9A8DAB8DBC8DFE
:105AC000C55DDE4F88839983AA83BB83CB52D140C7
:105AD000FB01E156FD4F20803180428053808D8D47
