:100000000C9491080C94B0080C94B0080C94B008AF
:100010000C94B0080C94B0080C94B0080C94B00880
:100020000C94B0080C9473680C94B0080C94B0084D
:100030000C94CA730C94B0080C94B0080C94B3736D
:100040000C94096C0C94B0080C94B0080C94B00893
:100050000C94576C0C94B0080C944B6C0C94B00836
:100060000C94B0080C94B0080C94B0080C94B00830
:100070000C94956C0C94B0080C94896C0C94B0089A
:100080000C946B850C94B0080C94B008C6A56363FF
:10009000F8847C7CEE997777F68D7B7BFF0DF2F20E
:1000A000D6BD6B6BDEB16F6F9154C5C560503030FB
:1000B00002030101CEA96767567D2B2BE719FEFECF
:1000C000B562D7D74DE6ABABEC9A76768F45CACA08
:1000D0001F9D82828940C9C9FA877D7DEF15FAFA92
:1000E000B2EB59598EC94747FB0BF0F041ECADAD6F
:1000F000B367D4D45FFDA2A245EAAFAF23BF9C9CF7
:1001000053F7A4A4E49672729B5BC0C075C2B7B7E4
:10011000E11CFDFD3DAE93934C6A26266C5A3636A3
:100120007E413F3FF502F7F7834FCCCC685C343417
:1001300051F4A5A5D134E5E5F908F1F1E293717127
:10014000AB73D8D8625331312A3F1515080C04041B
:100150009552C7C7466523239D5EC3C33028181830
:1001600037A196960A0F05052FB59A9A0E0907072B
:10017000243612121B9B8080DF3DE2E2CD26EBEBA2
:100180004E6927277FCDB2B2EA9F7575121B090908
:100190001D9E838358742C2C342E1A1A362D1B1B4B
:1001A000DCB26E6EB4EE5A5A5BFBA0A0A4F65252BB
:1001B000764D3B3BB761D6D67DCEB3B3527B292972
:1001C000DD3EE3E35E712F2F13978484A6F553532E
:1001D000B968D1D100000000C12CEDED40602020B5
:1001E000E31FFCFC79C8B1B1B6ED5B5BD4BE6A6AB3
:1001F0008D46CBCB67D9BEBE724B393994DE4A4AA5
:1002000098D44C4CB0E85858854ACFCFBB6BD0D06F
:10021000C52AEFEF4FE5AAAAED16FBFB86C54343BF
:100220009AD74D4D66553333119485858ACF454510
:10023000E910F9F904060202FE817F7FA0F0505018
:1002400078443C3C25BA9F9F4BE3A8A8A2F35151A8
:100250005DFEA3A380C04040058A8F8F3FAD929280
:1002600021BC9D9D70483838F104F5F563DFBCBCB6
:1002700077C1B6B6AF75DADA4263212120301010AB
:10028000E51AFFFFFD0EF3F3BF6DD2D2814CCDCD49
:1002900018140C0C26351313C32FECECBEE15F5F72
:1002A00035A2979788CC44442E3917179357C4C466
:1002B00055F2A7A7FC827E7E7A473D3DC8AC6464B8
:1002C000BAE75D5D322B1919E6957373C0A06060C3
:1002D000199881819ED14F4FA37FDCDC4466222296
:1002E000547E2A2A3BAB90900B8388888CCA464662
:1002F000C729EEEE6BD3B8B8283C1414A779DEDE1C
:10030000BCE25E5E161D0B0BAD76DBDBDB3BE0E09B
:1003100064563232744E3A3A141E0A0A92DB494944
:100320000C0A0606486C2424B8E45C5C9F5DC2C2DB
:10033000BD6ED3D343EFACACC4A6626239A8919131
:1003400031A49595D337E4E4F28B7979D532E7E798
:100350008B43C8C86E593737DAB76D6D018C8D8DF8
:10036000B164D5D59CD24E4E49E0A9A9D8B46C6CE5
:10037000ACFA5656F307F4F4CF25EAEACAAF65653E
:10038000F48E7A7A47E9AEAE101808086FD5BABA7B
:10039000F08878784A6F25255C722E2E38241C1C34
:1003A00057F1A6A673C7B4B49751C6C6CB23E8E8E5
:1003B000A17CDDDDE89C74743E211F1F96DD4B4B54
:1003C00061DCBDBD0D868B8B0F858A8AE0907070D5
:1003D0007C423E3E71C4B5B5CCAA666690D848480A
:1003E00006050303F701F6F61C120E0EC2A36161A7
:1003F0006A5F3535AEF9575769D0B9B91791868616
:100400009958C1C13A271D1D27B99E9ED938E1E1EF
:10041000EB13F8F82BB3989822331111D2BB69690A
:10042000A970D9D907898E8E33A794942DB69B9B3A
:100430003C221E1E15928787C920E9E98749CECE46
:10044000AAFF555550782828A57ADFDF038F8C8CBA
:1004500059F8A1A1098089891A170D0D65DABFBF66
:10046000D731E6E684C64242D0B8686882C34141CB
:1004700029B099995A772D2D1E110F0F7BCBB0B053
:10048000A8FC54546DD6BBBB2C3A161663C6A563A4
:100490007CF8847C77EE99777BF68D7BF2FF0DF20A
:1004A0006BD6BD6B6FDEB16FC59154C530605030F7
:1004B0000102030167CEA9672B567D2BFEE719FECB
:1004C000D7B562D7AB4DE6AB76EC9A76CA8F45CA04
:1004D000821F9D82C98940C97DFA877DFAEF15FA8E
:1004E00059B2EB59478EC947F0FB0BF0AD41ECAD6B
:1004F000D4B367D4A25FFDA2AF45EAAF9C23BF9CF3
:10050000A453F7A472E49672C09B5BC0B775C2B7E0
:10051000FDE11CFD933DAE93264C6A26366C5A369F
:100520003F7E413FF7F502F7CC834FCC34685C3413
:10053000A551F4A5E5D134E5F1F908F171E2937123
:10054000D8AB73D831625331152A3F1504080C0417
:10055000C79552C723466523C39D5EC3183028182C
:100560009637A196050A0F059A2FB59A070E090727
:1005700012243612801B9B80E2DF3DE2EBCD26EB9E
:10058000274E6927B27FCDB275EA9F7509121B0904
:10059000831D9E832C58742C1A342E1A1B362D1B47
:1005A0006EDCB26E5AB4EE5AA05BFBA052A4F652B7
:1005B0003B764D3BD6B761D6B37DCEB329527B296E
:1005C000E3DD3EE32F5E712F8413978453A6F5532A
:1005D000D1B968D100000000EDC12CED20406020B1
:1005E000FCE31FFCB179C8B15BB6ED5B6AD4BE6AAF
:1005F000CB8D46CBBE67D9BE39724B394A94DE4AA1
:100600004C98D44C58B0E858CF854ACFD0BB6BD06B
:10061000EFC52AEFAA4FE5AAFBED16FB4386C543BB
:100620004D9AD74D3366553385119485458ACF450C
:10063000F9E910F9020406027FFE817F50A0F05014
:100640003C78443C9F25BA9FA84BE3A851A2F351A4
:10065000A35DFEA34080C0408F058A8F923FAD927C
:100660009D21BC9D38704838F5F104F5BC63DFBCB2
:10067000B677C1B6DAAF75DA2142632110203010A7
:10068000FFE51AFFF3FD0EF3D2BF6DD2CD814CCD45
:100690000C18140C13263513ECC32FEC5FBEE15F6E
:1006A0009735A2974488CC44172E3917C49357C462
:1006B000A755F2A77EFC827E3D7A473D64C8AC64B4
:1006C0005DBAE75D19322B1973E6957360C0A060BF
:1006D000811998814F9ED14FDCA37FDC2244662292
:1006E0002A547E2A903BAB90880B8388468CCA465E
:1006F000EEC729EEB86BD3B814283C14DEA779DE18
:100700005EBCE25E0B161D0BDBAD76DBE0DB3BE097
:10071000326456323A744E3A0A141E0A4992DB4940
:10072000060C0A0624486C245CB8E45CC29F5DC2D7
:10073000D3BD6ED3AC43EFAC62C4A6629139A8912D
:100740009531A495E4D337E479F28B79E7D532E794
:10075000C88B43C8376E59376DDAB76D8D018C8DF4
:10076000D5B164D54E9CD24EA949E0A96CD8B46CE1
:1007700056ACFA56F4F307F4EACF25EA65CAAF653A
:100780007AF48E7AAE47E9AE08101808BA6FD5BA77
:1007900078F08878254A6F252E5C722E1C38241C30
:1007A000A657F1A6B473C7B4C69751C6E8CB23E8E1
:1007B000DDA17CDD74E89C741F3E211F4B96DD4B50
:1007C000BD61DCBD8B0D868B8A0F858A70E09070D1
:1007D0003E7C423EB571C4B566CCAA664890D84806
:1007E00003060503F6F701F60E1C120E61C2A361A3
:1007F000356A5F3557AEF957B969D0B98617918612
:10080000C19958C11D3A271D9E27B99EE1D938E1EB
:10081000F8EB13F8982BB3981122331169D2BB6906
:10082000D9A970D98E07898E9433A7949B2DB69B36
:100830001E3C221E87159287E9C920E9CE8749CE42
:1008400055AAFF5528507828DFA57ADF8C038F8CB6
:10085000A159F8A1890980890D1A170DBF65DABF62
:10086000E6D731E64284C64268D0B8684182C341C7
:100870009929B0992D5A772D0F1E110FB07BCBB04F
:1008800054A8FC54BB6DD6BB162C3A166363C6A5A0
:100890007C7CF8847777EE997B7BF68DF2F2FF0D06
:1008A0006B6BD6BD6F6FDEB1C5C5915430306050F3
:1008B000010102036767CEA92B2B567DFEFEE719C7
:1008C000D7D7B562ABAB4DE67676EC9ACACA8F4500
:1008D00082821F9DC9C989407D7DFA87FAFAEF158A
:1008E0005959B2EB47478EC9F0F0FB0BADAD41EC67
:1008F000D4D4B367A2A25FFDAFAF45EA9C9C23BFEF
:10090000A4A453F77272E496C0C09B5BB7B775C2DC
:10091000FDFDE11C93933DAE26264C6A36366C5A9B
:100920003F3F7E41F7F7F502CCCC834F3434685C0F
:10093000A5A551F4E5E5D134F1F1F9087171E2931F
:10094000D8D8AB733131625315152A3F0404080C13
:10095000C7C7955223234665C3C39D5E1818302828
:10096000969637A105050A0F9A9A2FB507070E0923
:100970001212243680801B9BE2E2DF3DEBEBCD269A
:1009800027274E69B2B27FCD7575EA9F0909121B00
:1009900083831D9E2C2C58741A1A342E1B1B362D43
:1009A0006E6EDCB25A5AB4EEA0A05BFB5252A4F6B3
:1009B0003B3B764DD6D6B761B3B37DCE2929527B6A
:1009C000E3E3DD3E2F2F5E71848413975353A6F526
:1009D000D1D1B96800000000EDEDC12C20204060AD
:1009E000FCFCE31FB1B179C85B5BB6ED6A6AD4BEAB
:1009F000CBCB8D46BEBE67D93939724B4A4A94DE9D
:100A00004C4C98D45858B0E8CFCF854AD0D0BB6B67
:100A1000EFEFC52AAAAA4FE5FBFBED16434386C5B7
:100A20004D4D9AD7333366558585119445458ACF08
:100A3000F9F9E910020204067F7FFE815050A0F010
:100A40003C3C78449F9F25BAA8A84BE35151A2F3A0
:100A5000A3A35DFE404080C08F8F058A92923FAD78
:100A60009D9D21BC38387048F5F5F104BCBC63DFAE
:100A7000B6B677C1DADAAF752121426310102030A3
:100A8000FFFFE51AF3F3FD0ED2D2BF6DCDCD814C41
:100A90000C0C181413132635ECECC32F5F5FBEE16A
:100AA000979735A2444488CC17172E39C4C493575E
:100AB000A7A755F27E7EFC823D3D7A476464C8ACB0
:100AC0005D5DBAE71919322B7373E6956060C0A0BB
:100AD000818119984F4F9ED1DCDCA37F222244668E
:100AE0002A2A547E90903BAB88880B8346468CCA5A
:100AF000EEEEC729B8B86BD31414283CDEDEA77914
:100B00005E5EBCE20B0B161DDBDBAD76E0E0DB3B93
:100B1000323264563A3A744E0A0A141E494992DB3C
:100B200006060C0A2424486C5C5CB8E4C2C29F5DD3
:100B3000D3D3BD6EACAC43EF6262C4A6919139A829
:100B4000959531A4E4E4D3377979F28BE7E7D53290
:100B5000C8C88B4337376E596D6DDAB78D8D018CF0
:100B6000D5D5B1644E4E9CD2A9A949E06C6CD8B4DD
:100B70005656ACFAF4F4F307EAEACF256565CAAF36
:100B80007A7AF48EAEAE47E908081018BABA6FD573
:100B90007878F08825254A6F2E2E5C721C1C38242C
:100BA000A6A657F1B4B473C7C6C69751E8E8CB23DD
:100BB000DDDDA17C7474E89C1F1F3E214B4B96DD4C
:100BC000BDBD61DC8B8B0D868A8A0F857070E090CD
:100BD0003E3E7C42B5B571C46666CCAA484890D802
:100BE00003030605F6F6F7010E0E1C126161C2A39F
:100BF00035356A5F5757AEF9B9B969D0868617910E
:100C0000C1C199581D1D3A279E9E27B9E1E1D938E7
:100C1000F8F8EB1398982BB3111122336969D2BB02
:100C2000D9D9A9708E8E0789949433A79B9B2DB632
:100C30001E1E3C2287871592E9E9C920CECE87493E
:100C40005555AAFF28285078DFDFA57A8C8C038FB2
:100C5000A1A159F8898909800D0D1A17BFBF65DA5E
:100C6000E6E6D731424284C66868D0B8414182C3C3
:100C7000999929B02D2D5A770F0F1E11B0B07BCB4B
:100C80005454A8FCBBBB6DD616162C3AA56363C69C
:100C9000847C7CF8997777EE8D7B7BF60DF2F2FF02
:100CA000BD6B6BD6B16F6FDE54C5C59150303060EF
:100CB00003010102A96767CE7D2B2B5619FEFEE7C3
:100CC00062D7D7B5E6ABAB4D9A7676EC45CACA8FFC
:100CD0009D82821F40C9C989877D7DFA15FAFAEF86
:100CE000EB5959B2C947478E0BF0F0FBECADAD4163
:100CF00067D4D4B3FDA2A25FEAAFAF45BF9C9C23EB
:100D0000F7A4A453967272E45BC0C09BC2B7B775D8
:100D10001CFDFDE1AE93933D6A26264C5A36366C97
:100D2000413F3F7E02F7F7F54FCCCC835C3434680B
:100D3000F4A5A55134E5E5D108F1F1F9937171E21B
:100D400073D8D8AB533131623F15152A0C0404080F
:100D500052C7C795652323465EC3C39D2818183024
:100D6000A19696370F05050AB59A9A2F0907070E1F
:100D7000361212249B80801B3DE2E2DF26EBEBCD96
:100D80006927274ECDB2B27F9F7575EA1B090912FC
:100D90009E83831D742C2C582E1A1A342D1B1B363F
:100DA000B26E6EDCEE5A5AB4FBA0A05BF65252A4AF
:100DB0004D3B3B7661D6D6B7CEB3B37D7B29295266
:100DC0003EE3E3DD712F2F5E97848413F55353A622
:100DD00068D1D1B9000000002CEDEDC160202040A9
:100DE0001FFCFCE3C8B1B179ED5B5BB6BE6A6AD4A7
:100DF00046CBCB8DD9BEBE674B393972DE4A4A9499
:100E0000D44C4C98E85858B04ACFCF856BD0D0BB63
:100E10002AEFEFC5E5AAAA4F16FBFBEDC5434386B3
:100E2000D74D4D9A5533336694858511CF45458A04
:100E300010F9F9E906020204817F7FFEF05050A00C
:100E4000443C3C78BA9F9F25E3A8A84BF35151A29C
:100E5000FEA3A35DC04040808A8F8F05AD92923F74
:100E6000BC9D9D214838387004F5F5F1DFBCBC63AA
:100E7000C1B6B67775DADAAF63212142301010209F
:100E80001AFFFFE50EF3F3FD6DD2D2BF4CCDCD813D
:100E9000140C0C18351313262FECECC3E15F5FBE66
:100EA000A2979735CC4444883917172E57C4C4935A
:100EB000F2A7A755827E7EFC473D3D7AAC6464C8AC
:100EC000E75D5DBA2B191932957373E6A06060C0B7
:100ED00098818119D14F4F9E7FDCDCA3662222448A
:100EE0007E2A2A54AB90903B8388880BCA46468C56
:100EF00029EEEEC7D3B8B86B3C14142879DEDEA710
:100F0000E25E5EBC1D0B0B1676DBDBAD3BE0E0DB8F
:100F1000563232644E3A3A741E0A0A14DB49499238
:100F20000A06060C6C242448E45C5CB85DC2C29FCF
:100F30006ED3D3BDEFACAC43A66262C4A891913925
:100F4000A495953137E4E4D38B7979F232E7E7D58C
:100F500043C8C88B5937376EB76D6DDA8C8D8D01EC
:100F600064D5D5B1D24E4E9CE0A9A949B46C6CD8D9
:100F7000FA5656AC07F4F4F325EAEACFAF6565CA32
:100F80008E7A7AF4E9AEAE4718080810D5BABA6F6F
:100F9000887878F06F25254A722E2E5C241C1C3828
:100FA000F1A6A657C7B4B47351C6C69723E8E8CBD9
:100FB0007CDDDDA19C7474E8211F1F3EDD4B4B9648
:100FC000DCBDBD61868B8B0D858A8A0F907070E0C9
:100FD000423E3E7CC4B5B571AA6666CCD8484890FE
:100FE0000503030601F6F6F7120E0E1CA36161C29B
:100FF0005F35356AF95757AED0B9B969918686170A
:1010000058C1C199271D1D3AB99E9E2738E1E1D9E3
:1010100013F8F8EBB398982B33111122BB6969D2FE
:1010200070D9D9A9898E8E07A7949433B69B9B2D2E
:10103000221E1E3C9287871520E9E9C949CECE873A
:10104000FF5555AA782828507ADFDFA58F8C8C03AE
:10105000F8A1A15980898909170D0D1ADABFBF655A
:1010600031E6E6D7C6424284B86868D0C3414182BF
:10107000B0999929772D2D5A110F0F1ECBB0B07B47
:10108000FC5454A8D6BBBB6D3A16162C6E74706413
:101090002070726F6365737320737461727465641A
:1010A0000A0008000000000000000000000000002E
:1010B0000000000000000000000000000000000030
:1010C0000000000000000000000000000000000020
:1010D0000000257325730A004F6E6C696E650A0067
:1010E0000A002C20636865636B207261746520259B
:1010F0007520487A0025732025732C206368616E63
:101100006E656C202575000A2A2A2A2A2A2A2A4274
:101110006F6F74696E672025732A2A2A2A2A2A2A61
:101120000A0011241FBECFEFD0E4DEBFCDBF16E012
:10113000A0E0B1E0EAE8F4E201E00BBF02C00790F2
:101140000D92AA38B107D9F714E3AAE8B6E001C0B6
:101150001D92A535B107E1F70E94646B0C94439290
:101160000C940000CF93DF93EC0188819981813446
:10117000910509F440C08634910509F450C0892BCB
:1011800009F0B4C080E291E090939D0680939C06A4
:1011900086E098E390939F0680939E0687E099E00F
:1011A0009093A1068093A00680E09AE09093A30616
:1011B0008093A20680E091E19093A5068093A40617
:1011C00082E29FEF9093A7068093A6068EEF97E1A9
:1011D0009093A9068093A80684EA96EC9093AB06B8
:1011E0008093AA068CE896E062EE74E00E94E244E6
:1011F00081E490E010C0683881F484E996E068E901
:101200007AE30E94E2448CE996E061E571E10E9494
:10121000E32586E490E09983888381E06AC0809129
:10122000B5236817A1F58091B82383FF03C08CE82C
:1012300096E059C080FF17C050938B0640938A06F2
:101240008CE896E06DE770E00E94E24460917501E1
:101250007091760180918A0690918B0644E650E069
:101260000E94F823D6CF81FFD4CFE091B923F0912B
:10127000BA2315828091B9239091BA230E94AB685A
:101280008CE896E068E97AE30E94E244C2CF6838CD
:1012900009F0BFCF8CE896E00E947B43892B81F058
:1012A000609175017091760180918A0690918B060C
:1012B00044E650E00E94F8238CE896E00E94D74470
:1012C00084E996E00E947B43892B09F4A2CF8091A8
:1012D0008A0690918B060E94C90B8CE896E00E94CA
:1012E000E04384E996E00E94E04393CF198218829C
:1012F00083E0DF91CF9108959C01AB0181E0809361
:10130000B3068091E1069091E206B9010E943B5438
:1013100085ED96E067E771E00E94E24408957F92D0
:101320008F929F92AF92BF92CF92DF92EF92FF92F5
:101330000F931F93782E862E8091BF06882329F065
:101340008091CA0681508093CA069091B10680911F
:10135000B2068093FA019093FB019090B40610912D
:10136000B506F090B606E090B706D090B806C090EB
:10137000B906B090BA06A090BB06292D312F4F2D8B
:101380005E2D6D2D7C2D8B2D9A2D08E20E94CC8731
:101390002093FC01292D312F4F2D5E2D6D2D7C2D9D
:1013A0008B2D9A2D00E20E94CC872093FD01292DE0
:1013B000312F4F2D5E2D6D2D7C2D8B2D9A2D08E11B
:1013C0000E94CC872093FE01292D312F4F2D5E2DB9
:1013D0006D2D7C2D8B2D9A2D00E10E94CC872093C2
:1013E000FF01292D312F4F2D5E2D6D2D7C2D8B2D45
:1013F0009A2D08E00E94CC8720930002909201026F
:1014000080E5881699F08091D501882321F489E33D
:1014100098E00E94E24181E08093D50189E398E061
:101420006FE070E00E941D42892B59F48091E10623
:101430009091E20667EF71E04FE050E00E943B546C
:1014400030C080913D0890913E0890935E08809353
:101450005D080091B4061091B5062091B606309152
:10146000B7064091B8065091B9066091BA067091DE
:10147000BB06E090B106F090B206C72CA82C0E94E3
:10148000272960915D0870915E088091E106909136
:10149000E2064FE050E00E943B5489E398E00E944E
:1014A000E24181E08093AC068092BE061F910F91CD
:1014B000FF90EF90DF90CF90BF90AF909F908F9074
:1014C0007F900895CF92DF92EF92FF920F931F9338
:1014D0008091D501882321F489E398E00E94E241BC
:1014E00081E08093D5018091D401882321F48BE49D
:1014F00098E00E94E24181E08093D40187EE96E07B
:101500000E94B22F8091BF06882309F48CC089E322
:1015100098E069E170E00E941D42892B09F495C0B2
:1015200080913D0890913E0890935E0880935D08FD
:101530000091B4061091B5062091B6063091B70619
:101540004091B8065091B9066091BA067091BB06F9
:10155000E090B106F090B2060E94FF268091B4069A
:101560002091B5063091B6064091B7066091B80655
:10157000E091B906A091BA061091BB06B82FBF5FE3
:1015800091E0B81708F090E0F92FF20F81E0F21720
:1015900008F080E0782F730F81E0731708F080E087
:1015A000582F540F81E0541708F080E0382F360F81
:1015B00081E0361708F080E0282F2E0F81E02E17EB
:1015C00008F080E0982F9A0F81E09A1708F080E0E9
:1015D000810FB093B406F093B5067093B60650939E
:1015E000B7063093B8062093B9069093BA06809355
:1015F000BB0680915D0890915E0869E170E00E94F1
:101600007C0982E08093D3011092AE061092AD0661
:101610001092B0061092AF061092BC0689E398E0D3
:101620000E94E241A1C01092AE061092AD06109247
:10163000B0061092AF061092BC0689E398E063E40E
:1016400070E00E941D42892B29F482E060E50E942F
:101650008F0998C080913D0890913E0890935E0854
:1016600080935D080091B4061091B5062091B606EE
:101670003091B7064091B8065091B9066091BA060C
:101680007091BB06E090B106F090B206C090AD0636
:10169000D090AE060E940E2B8091B4062091B50624
:1016A0003091B6064091B7066091B806E091B90650
:1016B000A091BA061091BB06B82FBF5F91E0B81792
:1016C00008F090E0F92FF20F81E0F21708F080E0C7
:1016D000782F730F81E0731708F080E0582F540FB4
:1016E00081E0541708F080E0382F360F81E036177C
:1016F00008F080E0282F2E0F81E02E1708F080E000
:10170000982F9A0F81E09A1708F080E0810FB0932C
:10171000B406F093B5067093B6065093B7063093AF
:10172000B8062093B9069093BA068093BB06409101
:101730005D0850915E08CA01DC01E7EDF1E05B96BF
:101740008C915B978193119681E0E73FF807B9F799
:10175000CA0163E470E00E947C0989E398E00E947A
:10176000E24189E08093D30188E08093B8230E940E
:101770000140682F8093B52380E090E040E050E086
:101780000E945C411F910F91FF90EF90DF90CF90EE
:10179000089581E060E00E948F0908950F931F93E0
:1017A000CF93DF93EB0109900020E9F72197C61B47
:1017B000D70B40913708509138080D2FFA01D0838C
:1017C0001C2FC18390E09A012C0F3D1F0CC0FA0121
:1017D000EA0FFB1F1282F901EA0FFB1FA60FB71FCA
:1017E0008C9184839F5FA92FB0E0AC17BD0778F37D
:1017F000F90102831383DF91CF911F910F91089517
:101800008F929F92AF92BF92CF92DF92EF92FF9210
:101810000F931F93DF93CF93CDB7DEB72C970FB6FF
:10182000F894DEBF0FBECDBFFC018081843109F08A
:1018300074C08181882309F070C08281882309F0F7
:101840006CC083818C3009F068C02091AF06909104
:10185000B0068481891709F060C08581821709F07C
:101860005CC08681882309F058C08781882309F0ED
:1018700054C08085882309F050C08185882309F0F1
:101880004CC08285882309F048C083858C3009F0DC
:1018900044C08091BF065E010894A11CB11C1CE0ED
:1018A000812E912C8E0E9F1E8823C1F0C50165EB01
:1018B00072E040E350E027E731E00BE412E0B0E2F1
:1018C000EB2EF12CACE0CA2ED12C0E944F29C40182
:1018D000B5014CE050E00E946C8E17C0C50165EB6D
:1018E00072E040E350E027E831E00BE412E0F0E280
:1018F000EF2EF12CECE0CE2ED12C0E944F29C4010A
:10190000B5014CE050E00E946C8E9C0190E0232BCE
:1019100009F091E081E0982701C090E0892F2C9692
:101920000FB6F894DEBF0FBECDBFCF91DF911F91F0
:101930000F91FF90EF90DF90CF90BF90AF909F906E
:101940008F900895CF92DF92EF92FF920F931F93A3
:10195000DF93CF93CDB7DEB7C054D0400FB6F89425
:10196000DEBF0FBECDBFDE011196E7EDF1E080E2F4
:1019700001900D928150E1F7DE019196EBE6F2E0E5
:1019800080E201900D928150E1F7609137087091EB
:10199000380885EB92E046E150E027E931E08E011E
:1019A0000F5F1F4FF0E4EF2EF12CE0E3CE2ED12C91
:1019B0000E944F29C05CDF4F0FB6F894DEBF0FBE08
:1019C000CDBFCF91DF911F910F91FF90EF90DF90EE
:1019D000CF900895AF92BF92CF92DF92EF92FF9295
:1019E0000F931F93DF93CF93CDB7DEB7C856D04088
:1019F0000FB6F894DEBF0FBECDBFDE019996EBE6C1
:101A0000F2E080E201900D928150E1F7DE01A75BE8
:101A1000BF4FE7EDF1E080E201900D928150E1F7D8
:101A20005E010894A11CB11CC50165EB72E040E3A6
:101A300050E025EA31E08E01075D1F4FB0E4EB2E48
:101A4000F12CA8E2CA2ED12C0E944F29A7E2B2E0C5
:101A5000F50180E101900D928150E1F7A7E3B2E03A
:101A6000FE01719680E101900D928150E1F789A10C
:101A70009AA1ABA1BCA18093060290930702A09308
:101A80000802B09309028DA19EA1AFA1B8A58093D1
:101A9000160290931702A0931802B0931902C85926
:101AA000DF4F0FB6F894DEBF0FBECDBFCF91DF91F1
:101AB0001F910F91FF90EF90DF90CF90BF90AF906C
:101AC00008956F927F928F929F92AF92BF92CF9222
:101AD000DF92EF92FF920F931F93DF93CF93CDB7D7
:101AE000DEB7C85CD3400FB6F894DEBF0FBECDBFE3
:101AF0006C013B014091D301473009F0C7C0AAE017
:101B0000B2E020E030E08091BF06882321F0F901A7
:101B1000EA5FFD4F03C0F901EA5EFD4F80818C93BF
:101B20002F5F3F4F11962430310569F78091C10630
:101B300080930E0280931A028091C00680930F0258
:101B400080931B02B5E18B2EB2E09B2EA1E2AA2E60
:101B5000A2E0BA2EEE24FF242091C2063091C306E3
:101B60004091C4065091C5066091C6067091C706A3
:101B70008091C8069091C9060E2D0E94CC87F40171
:101B800020832091C2063091C3064091C406509133
:101B9000C5066091C6067091C7068091C8069091EF
:101BA000C9060E94CC87F501208388E090E0E80E0A
:101BB000F91E0894810891080894A108B10890E3DF
:101BC000E916F10449F687E1809322028EEF8093B3
:101BD00023028DEF80932402F0EFAF2EFFEFBF2E94
:101BE000A60CB71C1A2D0B2DB0922502862D805104
:101BF000809326028091D401882321F48BE498E01D
:101C00000E94E2411092D4018BE498E0612F702F82
:101C10000E941D42892B09F42CC740914F08509116
:101C200050085093BA234093B9238091BF06960180
:101C3000285F3F4F830108501040882321F0CA01DC
:101C400067E272E003C0CA0167E372E04AE052E073
:101C5000EAE1EE2EE2E0FE2E0E94893D892B19F486
:101C60008BE498E001C2B092B723A092B62382E041
:101C70008093B8230E940140682F8093B523809100
:101C8000E3069091E40640E050E0DDC58091BF0698
:101C9000882309F4DBC5423019F0483009F0FCC054
:101CA000F60180818E3F09F0EEC081818D3F09F001
:101CB000EAC082A1E82EFF24E7FCF09483E290E0E2
:101CC000E80EF91E6E147F0408F4E0C0423081F47F
:101CD0000E94BB6B0E94F0440BE812E00E94ED44AE
:101CE0008F77F80181938F01F2E003391F07B1F775
:101CF0008E0107551F4FC8016BE872E048E050E0C5
:101D00000E94D431F60142A1552747FD50954D5D03
:101D10005F4FC801B6010E947431F601EE0DFF1D40
:101D2000E081EE2319F0E03109F0ADC087010F5FCB
:101D30001F4F8091D301823051F4B601600F711FA3
:101D4000A301401B510BCE0187559F4F11C0883016
:101D500089F481E190E0E80EF91EEC0CFD1CA30172
:101D600040515040401B510BCE0187559F4FB7014A
:101D70000E94743179EAE72EF12CEC0EFD1EC701AA
:101D800065ED73E240E150E00E9474318FE398E02A
:101D900060E170E00E941D42892B19F460E570E05B
:101DA0007DC0609143087091440870934A0260932B
:101DB0004902C70140E150E00E9477318091D30190
:101DC000883081F4B601600F711F809149029091B3
:101DD0004A0240E150E00E946C8E009719F082E0C8
:101DE0008093D301F601E00FF11F31972081332753
:101DF00027FD3095200F311FF601E20FF31F81817F
:101E0000482F552747FD50958081992787FD90954C
:101E1000982F8827480F591F2E5F3F4FC301821B01
:101E2000930B8417950790F140FF1FC02FC082814C
:101E30008823B1F483818D3F99F4240F351FF60177
:101E4000E20FF31F8081482F552747FD50950894D6
:101E500061087108621A730A6416750680F416C068
:101E6000425050402E5F3F4F329642305105F8F6B7
:101E700010C081813196882379F04150504041153E
:101E80005105B9F706C06FE270E008C062E370E088
:101E900005C068E270E002C061E070E0162F80913A
:101EA000D301883071F4613061F4D601E7EDF1E0DF
:101EB00012968C9112978193119691E0E73FF90762
:101EC000B9F78091D3018430C9F51130B9F5F60125
:101ED0006181772767FD70958081992787FD9095AF
:101EE000982F8827680F791F7093480260934702E4
:101EF0008FE398E00E941D42892B09F4BAC58091B6
:101F000043089091440890934A028093490220E04C
:101F10000CC0E0914902F0914A02EA0FFB1FAC0DA0
:101F2000BD1D12968C9180832F5FA22FB0E080910F
:101F3000470290914802A817B90758F38091D3013E
:101F4000863009F0B7C0113009F0C4C5809106028F
:101F500080930A028091070280930B02809108020D
:101F600080930C028091090280930D028091C1063A
:101F700080930E0280931A028091C00680930F0214
:101F800080931B0205E1802E02E0902E11E2A12E2B
:101F900012E0B12EEE24FF242091C2063091C30638
:101FA0004091C4065091C5066091C6067091C7065F
:101FB0008091C8069091C9060E2D0E94CC87F4012D
:101FC00020832091C2063091C3064091C4065091EF
:101FD000C5066091C6067091C7068091C8069091AB
:101FE000C9060E94CC87F501208388E090E0E80EC6
:101FF000F91E0894810891080894A108B10890E39B
:10200000E916F10449F686E1809322028EEF80936F
:1020100023028DEF809324021092250288E18093A1
:10202000260289E398E068E170E00E941D42892B56
:1020300009F41FC5A0903D08B0903E08E8E0F0E02C
:10204000CE0EDF1EC50167E272E04AE052E0960163
:1020500000E210E0BAE1EB2EB2E0FB2E0E94893DD7
:10206000892B39F489E398E00E94E24182E064E13F
:1020700033C5DE011196E7EEF6E088EA01900D9295
:102080008150E1F7CE0101966BE472E00E94D32FFC
:10209000C5010E94000C813009F00CC587EE96E066
:1020A000B50148E150E00E947E3089E398E00E944B
:1020B000E24103C0113009F00DC58091D301853094
:1020C00009F4D2C1863038F4823069F0843011F0DE
:1020D0000C94111996C1863009F4C9C1883011F0E9
:1020E0000C9411198CC089E398E06CE270E00E94B6
:1020F0001D42892B09F4C8C780913D0890913E0884
:1021000090935E0880935D086091490270914A0245
:10211000E090B406F090B5060091B6061091B706AF
:102120002091B8063091B9064091BA065091BB068D
:10213000C090B106D090B206A090AD06B090AE06A9
:102140000E94262780915D0890915E086CE270E005
:102150000E947C098091B4062091B5063091B606A4
:102160004091B7066091B806E091B906A091BA0611
:102170001091BB06B82FBF5F91E0B81708F090E050
:10218000F92FF20F81E0F21708F080E0782F730F3B
:1021900081E0731708F080E0582F540F81E0541746
:1021A00008F080E0382F360F81E0361708F080E025
:1021B000282F2E0F81E02E1708F080E0982F9A0F1D
:1021C00081E09A1708F080E0810FB093B406F09395
:1021D000B5067093B6065093B7063093B8062093B1
:1021E000B9069093BA068093BB0689E398E00E94F3
:1021F000E2418FE398E00E94E24188E0D7C789E39B
:1022000098E068E570E00E941D42892B09F43CC704
:1022100080913D0890913E0890935E0880935D0800
:102220000091B4061091B5062091B6063091B7061C
:102230004091B8065091B9066091BA067091BB06FC
:10224000E090B106F090B206C090AD06D090AE0618
:102250000E94372C8091B4062091B5063091B606C5
:102260004091B7066091B806E091B906A091BA0610
:102270001091BB06B82FBF5F91E0B81708F090E04F
:10228000F92FF20F81E0F21708F080E0782F730F3A
:1022900081E0731708F080E0582F540F81E0541745
:1022A00008F080E0382F360F81E0361708F080E024
:1022B000282F2E0F81E02E1708F080E0982F9A0F1C
:1022C00081E09A1708F080E0810FB093B406F09394
:1022D000B5067093B6065093B7063093B8062093B0
:1022E000B9069093BA068093BB062BE130E0F90162
:1022F000E05BFD4F60915D0870915E08DB01A20F0D
:10230000B31F8C9180832F5F3F4F2B33310579F7BB
:10231000635F7F4F87EE96E042E350E00E947E309D
:1023200060915D0870915E08645B7F4F87EE96E078
:102330004CE050E00E947E3084E08093D301E09135
:102340005D08F0915E0882E0858780915D0890913C
:102350005E0868E570E00E947C098091B4062091D7
:10236000B5063091B6064091B7066091B806E09187
:10237000B906A091BA061091BB06B82FBF5F91E0D5
:10238000B81708F090E0F92FF20F81E0F21708F08B
:1023900080E0782F730F81E0731708F080E0582FEA
:1023A000540F81E0541708F080E0382F360F81E099
:1023B000361708F080E0282F2E0F81E02E1708F046
:1023C00080E0982F9A0F81E09A1708F080E0810F43
:1023D000B093B406F093B5067093B6065093B70663
:1023E0003093B8062093B9069093BA068093BB0643
:1023F00089E398E00E94E2418FE398E00E94E24185
:1024000010C78091490290914A0263EB71E044E069
:1024100050E00E946C8E009719F082E063E736C6A8
:102420008FE398E00E94E24103E912E0F801019095
:102430000020E9F7E259F240EE0FFF1F89E398E030
:10244000BF010E941D42892B09F41EC680913D08E0
:1024500090913E089093380880933708B8010E9405
:10246000CE0B0E94A20C9BC60E94EA0C9EC689E37A
:1024700098E063E470E00E941D42892B09F404C6D1
:1024800080913D0890913E0890935E0880935D088E
:102490000091B4061091B5062091B6063091B706AA
:1024A0004091B8065091B9066091BA067091BB068A
:1024B000E090B106F090B2060E94CC278091B4065D
:1024C0002091B5063091B6064091B7066091B806E6
:1024D000E091B906A091BA061091BB06B82FBF5F74
:1024E00091E0B81708F090E0F92FF20F81E0F217B1
:1024F00008F080E0782F730F81E0731708F080E018
:10250000582F540F81E0541708F080E0382F360F11
:1025100081E0361708F080E0282F2E0F81E02E177B
:1025200008F080E0982F9A0F81E09A1708F080E079
:10253000810FB093CB06F093CC067093CD065093E9
:10254000CE063093CF062093D0069093D106809389
:10255000D2068091B1069091B20601969093B20690
:102560008093B1061092B4061092B5061092B6068A
:102570001092B7061092B8061092B9061092BA06D9
:102580001092BB0687EE96E06BE472E00E94D32FB8
:1025900084E180939D0210929E0210929F022CE093
:1025A0002093A0028091AD069091AE060196909383
:1025B000A1028091AD068F5F8093A2021092A302C8
:1025C0001092A4021092A5021092A6021092A702E5
:1025D0002093A80289EA92E065EB72E040E350E0C4
:1025E00027E831E00BE412E0E0E2EE2EF12CBCE053
:1025F000CB2ED12C0E944F298091160280930A0283
:102600008091170280930B028091180280930C0234
:102610008091190280930D028091B20680930E0280
:1026200080931A028091B10680930F0280931B025F
:10263000A5E1AA2EA2E0BA2EF1E2CF2EF2E0DF2E23
:10264000EE24FF242091B4063091B5064091B606E1
:102650005091B7066091B8067091B9068091BA069C
:102660009091BB060E2D0E94CC87F501208320910E
:10267000B4063091B5064091B6065091B706609108
:10268000B8067091B9068091BA069091BB060E9477
:10269000CC87F601208388E090E0E80EF91E0894CC
:1026A000A108B1080894C108D10890E3E916F10423
:1026B00049F686E1809322028EEF809323028DEF0C
:1026C000809324021092250288E180932602809153
:1026D0005D0890915E08839667E372E04AE052E0FD
:1026E0002DE932E008E110E0EAE1EE2EE2E0FE2E14
:1026F0000E94593B892B09F4C3C480915D089091D5
:102700005E080091B4061091B5062091B60630918E
:10271000B7064091B8065091B9066091BA0670911B
:10272000BB06E090B106F090B2060E960E94ED272F
:1027300080915D0890915E0863E470E00E947C09DE
:102740008091B4062091B5063091B6064091B70647
:102750006091B806E091B906A091BA061091BB0647
:10276000B82FBF5F91E0B81708F090E0F92FF20F93
:1027700081E0F21708F080E0782F730F81E0731783
:1027800008F080E0582F540F81E0541708F080E0E3
:10279000382F360F81E0361708F080E0282F2E0FF3
:1027A00081E02E1708F080E0982F9A0F81E09A17A9
:1027B00008F080E0810FB093B406F093B5067093F3
:1027C000B6065093B7063093B8062093B906909397
:1027D000BA068093BB0689E398E00E94E24187E055
:1027E0008093D301E091DD06F091DE0686E092E071
:1027F0009583848386E192E09783868387E292E0E3
:102800009183808387E392E093838283A091DF06A4
:10281000B091E0061196FC93EE938091E1069091C1
:10282000E20613969C938E9312970E940140682FA4
:102830008093B52381E08093B8234091DF065091C7
:10284000E00680E090E00E945C41EBC44330C1F1BF
:10285000493021F0413009F03FC013C0F6018081BA
:102860008E3FA1F581818F3F11F08D3F79F5F60103
:102870008281992787FD909503966816790631F530
:102880002BC0F60180818E3F09F581818F3F11F0C9
:102890008D3FE1F4F60182A1282F332727FD3095E3
:1028A000E20FF31F83A18823A1F4F901B496EC0D84
:1028B000FD1D80818D3F69F48181882351F40CC016
:1028C0006115710549F062E370E008C06FE270E0E5
:1028D00005C068E270E002C061E070E0162F413090
:1028E00091F4613081F4D601EBE6F2E012968C911E
:1028F00012978193119682E0EB38F807B9F78FE3CE
:1029000098E00E94E2418091D3018930B9F51130FD
:10291000A9F5F6018281682F772767FD709570937E
:102920004802609347026115710541F18FE398E019
:102930000E941D42892B19F420E530E074C4809177
:1029400043089091440890934A028093490220E002
:102950000CC0E0914902F0914A02EA0FFB1FAC0D56
:10296000BD1D13968C9180832F5FA22FB0E08091C4
:10297000470290914802A817B90758F38091D301F4
:10298000863009F0A5C0113009F0A4C0809116026C
:1029900080930A028091170280930B0280911802A3
:1029A00080930C028091190280930D028091C106E0
:1029B00080930E0280931A028091C00680930F02CA
:1029C00080931B0205E1802E02E0902E11E2A12EE1
:1029D00012E0B12EEE24FF242091C2063091C306EE
:1029E0004091C4065091C5066091C6067091C70615
:1029F0008091C8069091C9060E2D0E94CC87F401E3
:102A000020832091C2063091C3064091C4065091A4
:102A1000C5066091C6067091C7068091C806909160
:102A2000C9060E94CC87F501208388E090E0E80E7B
:102A3000F91E0894810891080894A108B10890E350
:102A4000E916F10449F686E1809322028EEF809325
:102A500023028DEF809324021092250288E1809357
:102A6000260289E398E068E170E00E941D42892B0C
:102A700019F482E060E530C0A0903D08B0903E08B7
:102A8000E8E0F0E0CE0EDF1EC50167E372E04AE049
:102A900052E0960100E210E0BAE1EB2EB2E0FB2E2C
:102AA0000E94893D892B09F4DDCAC5010E94000CF2
:102AB000813049F082E068E20E948F0989E398E062
:102AC0000E94E2410BC089E398E00E94E24109C004
:102AD000113039F082E0612F0E948F0920E030E050
:102AE000A2C38091D301853009F45FC3863038F4E6
:102AF000813009F4B5C0833009F093C3D8C0863063
:102B000009F457C3893009F08CC360914702709172
:102B100048026D5B7F4F89E398E00E941D42892B3C
:102B200009F4B2C280913D0890913E0890935E08EE
:102B300080935D0800D04091490250914A02A090D4
:102B4000B406B090B506C090B606D090B706E09037
:102B5000B806F090B9060091BA061091BB068090B5
:102B6000B1069090B2062091AD063091AE06EDB759
:102B7000FEB73283218367ED71E0209147020E9406
:102B8000E62A0F900F9060915D0870915E08635F78
:102B90007F4F40914702509148024A5C5F4F87EE59
:102BA00096E00E947E3060914702709148026D5B12
:102BB0007F4F80915D0890915E080E947C09809112
:102BC000B4062091B5063091B6064091B7066091E3
:102BD000B806E091B906A091BA061091BB06B82FCD
:102BE000BF5F91E0B81708F090E0F92FF20F81E095
:102BF000F21708F080E0782F730F81E0731708F068
:102C000080E0582F540F81E0541708F080E0382FEF
:102C1000360F81E0361708F080E0282F2E0F81E074
:102C20002E1708F080E0982F9A0F81E09A1708F08D
:102C300080E0810FB093B406F093B5067093B606AA
:102C40005093B7063093B8062093B9069093BA060E
:102C50008093BB0689E398E00E94E24181E0A6C22E
:102C600003E912E0F80101900020E9F7E259F2408F
:102C7000EE0FFF1F89E398E0BF010E941D42892BE0
:102C800009F402C280913D0890913E089093380863
:102C900080933708B8010E94CE0B0E94A20C0E94BC
:102CA000EA0C89E398E00E94E24183E07FC283EB73
:102CB00091E090934A028093490284E090E09093DF
:102CC00048028093470289E398E062E670E00E9440
:102CD0001D42892B09F4D8C180913D0890913E088E
:102CE00090935E0880935D086091490270914A025A
:102CF0004091470250914802C090B406D090B5066A
:102D0000E090B606F090B7060091B8061091B906AB
:102D10002091BA063091BB06A090B106B090B206E1
:102D20008090AD069090AE060E946C278091B4060C
:102D30002091B5063091B6064091B7066091B8066D
:102D4000E091B906A091BA061091BB06B82FBF5FFB
:102D500091E0B81708F090E0F92FF20F81E0F21738
:102D600008F080E0782F730F81E0731708F080E09F
:102D7000582F540F81E0541708F080E0382F360F99
:102D800081E0361708F080E0282F2E0F81E02E1703
:102D900008F080E0982F9A0F81E09A1708F080E001
:102DA000810FB093B406F093B5067093B6065093B6
:102DB000B7063093B8062093B9069093BA0680936D
:102DC000BB0660915D0870915E08635F7F4F409124
:102DD000470250914802425F5F4F87EE96E00E94A3
:102DE0007E30E0914702F09148027B9680915D0829
:102DF00090915E080091B4061091B5062091B60638
:102E00003091B7064091B8065091B9066091BA0664
:102E10007091BB06E090B106F090B2068E0F9F1F36
:102E20000E94CC278091B4062091B5063091B60659
:102E30004091B7066091B806E091B906A091BA0634
:102E40001091BB06B82FBF5F91E0B81708F090E073
:102E5000F92FF20F81E0F21708F080E0782F730F5E
:102E600081E0731708F080E0582F540F81E0541769
:102E700008F080E0382F360F81E0361708F080E048
:102E8000282F2E0F81E02E1708F080E0982F9A0F40
:102E900081E09A1708F080E0810FB093CB06F093A1
:102EA000CC067093CD065093CE063093CF06209378
:102EB000D0069093D1068093D2068091B10690916E
:102EC000B20601969093B2068093B1061092B406B2
:102ED0001092B5061092B6061092B7061092B80678
:102EE0001092B9061092BA061092BB06AFE8B7E08E
:102EF000E7EEF6E088EA01900D928150E1F787EE67
:102F000096E06BE472E00E94D32F84E180939D02EF
:102F100010929E0210929F022CE02093A0028091BA
:102F2000AD069091AE0601969093A1028091AD06F8
:102F30008F5F8093A2021092A3021092A4021092BB
:102F4000A5021092A6021092A7022093A80289EA75
:102F500092E065EB72E040E350E027E731E00BE4FC
:102F600012E0E0E2EE2EF12CBCE0CB2ED12C0E9440
:102F70004F298091060280930A0280910702809374
:102F80000B028091080280930C02809109028093C9
:102F90000D028091B20680930E0280931A028091F6
:102FA000B10680930F0280931B02A5E1AA2EA2E036
:102FB000BA2EF1E2CF2EF2E0DF2EEE24FF24209194
:102FC000B4063091B5064091B6065091B7066091AF
:102FD000B8067091B9068091BA069091BB060E2D85
:102FE0000E94CC87F50120832091B4063091B5066C
:102FF0004091B6065091B7066091B8067091B90637
:103000008091BA069091BB060E94CC87F60120837E
:1030100088E090E0E80EF91E0894A108B108089431
:10302000C108D10890E3E916F10449F686E18093DE
:1030300022028EEF809323028DEF80932402109260
:10304000250288E1809326022091470230914802B0
:10305000225C3F4F80915D0890915E08820F931F24
:1030600067E272E04AE052E02DE932E008E110E068
:10307000EAE1EE2EE2E0FE2E0E94593B892B49F454
:1030800089E398E00E94E24182E060E50E948F09B6
:10309000C8C08FE897E06DE972E048E150E00E9417
:1030A0007E308FE897E06BE472E00E94D32FE091CE
:1030B0004702F0914802B99680915D0890915E08B0
:1030C0000091B4061091B5062091B6063091B7066E
:1030D0004091B8065091B9066091BA067091BB064E
:1030E000E090B106F090B2068E0F9F1F0E94ED2770
:1030F0006091470270914802625A7F4F80915D084B
:1031000090915E080E947C098091B4062091B506DA
:103110003091B6064091B7066091B806E091B906C5
:10312000A091BA061091BB06B82FBF5F91E0B81707
:1031300008F090E0F92FF20F81E0F21708F080E03C
:10314000782F730F81E0731708F080E0582F540F29
:1031500081E0541708F080E0382F360F81E03617F1
:1031600008F080E0282F2E0F81E02E1708F080E075
:10317000982F9A0F81E09A1708F080E0810FB093A2
:10318000B406F093B5067093B6065093B706309325
:10319000B8062093B9069093BA068093BB0689E3DC
:1031A00098E00E94E24185E001C086E08093D3016F
:1031B00038C0E091DD06F091DE0686E092E095836E
:1031C000848386E192E09783868387E292E091830D
:1031D000808387E392E093838283A091DF06B0919E
:1031E000E0061196FC93EE938091E1069091E20641
:1031F00013969C938E9312970E940140682F8093A0
:10320000B52311E01093B8234091DF065091E006FA
:1032100080E090E00E945C4187E08093D3011093AE
:10322000BC0621E030E0C901C853DC4F0FB6F8946A
:10323000DEBF0FBECDBFCF91DF911F910F91FF90E9
:10324000EF90DF90CF90BF90AF909F908F907F9046
:103250006F900895AF92BF92CF92DF92EF92FF925C
:103260000F931F93DF93CF93CDB7DEB768970FB659
:10327000F894DEBF0FBECDBF6C015B018091AC0640
:10328000882309F003C28091BD068823D9F01092EB
:10329000BD0685ED96E00E94E043D60111968C9123
:1032A000882319F481E060E05EC08091BF06882326
:1032B00029F08091CA0681508093CA0681E08093EC
:1032C000AC06E4C18091BF06882371F48091BC06EE
:1032D000882351F0F6018081882331F46C30710528
:1032E00019F40E94620AD2C19091D301892F8550AE
:1032F000833060F4C601B5010E94610D019709F0A9
:10330000C5C185ED96E00E94E043C0C1923019F43A
:10331000D6018C9112C0943029F4F601808180315D
:10332000E1F424C0993029F4D6018C91833061F402
:103330001DC0983029F4F6018081813071F416C0E7
:10334000913029F4D6018C91823039F40FC093303A
:1033500069F4F60180818E3049F06091BE066623E3
:1033600009F494C182E00E948F0990C185ED96E036
:103370000E94E0438091BE06882311F01092BE06A1
:103380008091D301823079F08091B306813059F475
:103390008091AD069091AE0601969093AE06809313
:1033A000AD061092B306D6018C91823019F481E0FB
:1033B0008093D30119821A821B821C82FE013196EE
:1033C000D6011B968C911B9789831A968C911A971C
:1033D000818319968C91199782831D821E821F8288
:1033E0001886FE01359618968C9118978D8317963E
:1033F0008C911797818316968C91169782831986E4
:103400001A861B861C86FE01399613968C9113979B
:10341000898712968C911297818311968C91828361
:103420008091D601882311F460E0A7C049855A85B0
:103430006B857C8589819A81AB81BC8184179507D6
:10344000A607B70708F048C085E498E0BA010E94D3
:103450001D42892B19F482E060E585CF80914908EF
:1034600090914A0890935E0880935D0860E012C0D6
:10347000A62FB0E0E0915D08F0915E08EA0FFB1F17
:103480008D819E81E80FF91FAC0DBD1D1C968C919E
:1034900080836F5F29813A814B815C81862F90E028
:1034A000A0E0B0E082179307A407B50708F31092D5
:1034B000D601B5016C507040CB01AA2797FDA095AD
:1034C000BA2F281739074A075B0708F0DFC0C90180
:1034D0000C96621B730BD6C08091D301823059F0D9
:1034E000893049F0853039F0445F5F4F87EE96E0D0
:1034F000B6010E947E3069857A85C6010C960E94CD
:10350000610D019709F0C2C08091AF069091B0069D
:1035100001969093B0068093AF0629853A854B8536
:103520005C85E4EFFFEFAE0EBF1EC501AA2797FD35
:10353000A095BA2F6CE070E0A60EB71E28173907C9
:103540004A075B0708F0A2C0C9010C9664EF7FEF41
:10355000621B730B95C0A62FB0E0E0915D08F0915F
:103560005E08EA0FFB1F8D819E81E80FF91FAC0DED
:10357000BD1D1C968C9180836F5F29813A814B81A0
:103580005C81862F90E0A0E0B0E082179307A4074B
:10359000B50708F38D819E81AF81B885280F391F4B
:1035A0004A1F5B1F89859A85AB85BC85281739071B
:1035B0004A075B0709F06AC020E030E0BE01635FA4
:1035C0007F4FFB01E20FF31FD601A20FB31F8C91B7
:1035D00080832F5F3F4F2C30310599F71D8A1C8A5D
:1035E0001B8AD60111968C9111978E8B12968C9115
:1035F00012978F8B13968C91888F87EE96E04CE014
:1036000050E00E947E3060915D0870915E084985AF
:103610005A8587EE96E00E947E3069857A85809192
:103620005D0890915E080E94610D019779F5809187
:10363000AF069091B00601969093B0068093AF06C6
:1036400085E498E00E94E241E980FA800B811C81C8
:103650009501442737FD4095542FD801C7010C969A
:10366000A11DB11D82179307A407B50778F481E067
:103670008093D601C7010C9664EF7FEF6E197F0926
:103680006A0D7B1D8C0D9D1D0E942A1968960FB630
:10369000F894DEBF0FBECDBFCF91DF911F910F9188
:1036A000FF90EF90DF90CF90BF90AF9008955F9222
:1036B0006F927F928F929F92AF92BF92CF92DF9242
:1036C000EF92FF920F931F93CF93DF938091D301DB
:1036D000823069F0833020F4813009F02BC20FC1B1
:1036E000843009F455C1893009F024C279C089E3D6
:1036F00098E069E170E00E941D42892B09F47FC5C2
:1037000080913D0890913E0890935E0880935D08FB
:103710000091B4061091B5062091B6063091B70617
:103720004091B8065091B9066091BA067091BB06F7
:10373000E090B106F090B2060E94FF268091B40698
:103740002091B5063091B6064091B7066091B80653
:10375000E091B906A091BA061091BB06B82FBF5FE1
:1037600091E0B81708F090E0F92FF20F81E0F2171E
:1037700008F080E0782F730F81E0731708F080E085
:10378000582F540F81E0541708F080E0382F360F7F
:1037900081E0361708F080E0282F2E0F81E02E17E9
:1037A00008F080E0982F9A0F81E09A1708F080E0E7
:1037B000810FB093B406F093B5067093B60650939C
:1037C000B7063093B8062093B9069093BA06809353
:1037D000BB0680915D0890915E0869E170E08CC045
:1037E00089E398E063E470E00E941D42892B29F48C
:1037F00082E060E50E948F099DC180913D08909113
:103800003E0890935E0880935D0800D0A090B406B7
:10381000B090B506C090B606D090B706E090B80656
:10382000F090B9060091BA061091BB068090B106DF
:103830009090B2062091AD063091AE06EDB7FEB77E
:103840003283218367ED71E040E050E020E00E9488
:10385000E62A8091B4062091B5063091B6064091D3
:10386000B7066091B806E091B906A091BA0610912A
:10387000BB06B82FBF5F91E00F900F90B81708F00C
:1038800090E0F92FF20F81E0F21708F080E0782F36
:10389000730F81E0731708F080E0582F540F81E018
:1038A000541708F080E0382F360F81E0361708F003
:1038B00080E0282F2E0F81E02E1708F080E0982F4F
:1038C0009A0F81E09A1708F080E0810FB093B40658
:1038D000F093B5067093B6065093B7063093B806CA
:1038E0002093B9069093BA068093BB0680915D0839
:1038F00090915E0863E470E00E947C0917C16091BA
:103900004702709148026D5B7F4F89E398E00E9407
:103910001D42892B09F473C480913D0890913E08A3
:1039200090935E0880935D0800D0409149025091C9
:103930004A02A090B406B090B506C090B606D090EA
:10394000B706E090B806F090B9060091BA0610915B
:10395000BB068090B1069090B2062091AD063091E2
:10396000AE06EDB7FEB73283218367ED71E020919B
:1039700047020E94E62A0F900F90609147027091D3
:1039800048026D5B7F4F80915D0890915E0881C019
:1039900089E398E068E570E00E941D42892B09F4F4
:1039A0002EC480913D0890913E0890935E088093CC
:1039B0005D08E090B406F090B5060091B60610914F
:1039C000B7062091B8063091B9064091BA065091D9
:1039D000BB06C090B106D090B206A090AD06B090E4
:1039E000AE066BE672E00E94242C8091B406209112
:1039F000B5063091B6064091B7066091B806E091E1
:103A0000B906A091BA061091BB06B82FBF5F91E02E
:103A1000B81708F090E0F92FF20F81E0F21708F0E4
:103A200080E0782F730F81E0731708F080E0582F43
:103A3000540F81E0541708F080E0382F360F81E0F2
:103A4000361708F080E0282F2E0F81E02E1708F09F
:103A500080E0982F9A0F81E09A1708F080E0810F9C
:103A6000B093B406F093B5067093B6065093B706BC
:103A70003093B8062093B9069093BA068093BB069C
:103A8000E0915D08F0915E0882E08587CF0168E5EE
:103A900070E00E947C098091B4062091B5063091B7
:103AA000B6064091B7066091B806E091B906A091BC
:103AB000BA061091BB06B82FBF5F91E0B81708F0A7
:103AC00090E0F92FF20F81E0F21708F080E0782FF4
:103AD000730F81E0731708F080E0582F540F81E0D6
:103AE000541708F080E0382F360F81E0361708F0C1
:103AF00080E0282F2E0F81E02E1708F080E0982F0D
:103B00009A0F81E09A1708F080E0810FB093B40615
:103B1000F093B5067093B6065093B7063093B80687
:103B20002093B9069093BA068093BB0689E398E088
:103B30000E94E2418091BF069091D301882309F051
:103B400021C2953009F0D2C38091B1069091B2069E
:103B500001979093B2068093B106609147027091ED
:103B60004802625A7F4F89E398E00E941D42892BE8
:103B700009F445C380913D0890913E0890935E08FA
:103B800080935D086091490270914A02409147021A
:103B900050914802C090CB06D090CC06E090CD0664
:103BA000F090CE060091CF061091D0062091D1065C
:103BB0003091D206A090B106B090B2068090AD06CA
:103BC0009090AE060E946C278091CB069091CC0617
:103BD0004091CD065091CE066091CF067091D006EF
:103BE000A091D106B091D206082F0F5F11E00817FF
:103BF00008F010E0190F21E0191708F020E0F22F6B
:103C0000F40F31E0F41708F030E0E32FE50F41E066
:103C1000E51708F040E0460F51E0461708F050E085
:103C2000570F61E0571708F060E06A0F71E06A17FC
:103C300008F070E07B0F0093CB061093CC06F09356
:103C4000CD06E093CE064093CF065093D006609306
:103C5000D1067093D2062091470230914802255E2A
:103C60003F4F80915D0890915E08E090B106F09022
:103C7000B206820F931F2F2F3E2F0E94CC278091D8
:103C8000CB062091CC063091CD064091CE066091B6
:103C9000CF06E091D006A091D1061091D206B82FA0
:103CA000BF5F91E0B81708F090E0F92FF20F81E0C4
:103CB000F21708F080E0782F730F81E0731708F097
:103CC00080E0582F540F81E0541708F080E0382F1F
:103CD000360F81E0361708F080E0282F2E0F81E0A4
:103CE0002E1708F080E0982F9A0F81E09A1708F0BD
:103CF00080E0810FB093CB06F093CC067093CD0695
:103D00005093CE063093CF062093D0069093D106E1
:103D10008093D2068091B1069091B206019690935D
:103D2000B2068093B10684E180939D0210929E02B8
:103D300010929F022CE02093A0029091AD068091FA
:103D4000AE068093A1029093A2021092A302109259
:103D5000A4021092A5021092A6021092A70220932C
:103D6000A80287EE96E06BE472E00E94D32F89EA06
:103D700092E065EB72E040E350E027E731E00BE4CE
:103D800012E0F0E2EF2EF12CECE0CE2ED12C0E94CE
:103D90004F298091060280930A0280910702809346
:103DA0000B028091080280930C028091090280939B
:103DB0000D028091B1069091B20690930F0280930C
:103DC0000E0290931B0280931A025090B4066090EA
:103DD000B5067090B6068090B7069090B806A09091
:103DE000B906B090BA061091BB06B0E1CB2EB2E096
:103DF000DB2EACE1EA2EA2E0FA2EC0E0D0E0252DC9
:103E0000362D472D582D692D7A2D8B2D912F0C2F66
:103E10000E94CC87F60121936F01F70121937F0166
:103E20002896C033D10559F786E1809322028EEFA0
:103E3000809323028DEF809324021092250288E163
:103E4000809326022091470230914802225C3F4F26
:103E500080915D0890915E08820F931F67E272E087
:103E60004AE052E02DE932E008E110E0FAE1EF2EFD
:103E7000F2E0FF2E0E94593B892B09F4BCC1E0916E
:103E80004702F0914802B99680915D0890915E08D2
:103E90000091B4061091B5062091B6063091B70690
:103EA0004091B8065091B9066091BA067091BB0670
:103EB000E090B106F090B2068E0F9F1F0E94ED2792
:103EC0006091470270914802625A7F4F80915D086D
:103ED00090915E080E947C098091B4062091B506FD
:103EE0003091B6064091B7066091B806E091B906E8
:103EF000A091BA061091BB06B82FBF5F91E0B8172A
:103F000008F090E0F92FF20F81E0F21708F080E05E
:103F1000782F730F81E0731708F080E0582F540F4B
:103F200081E0541708F080E0382F360F81E0361713
:103F300008F080E0282F2E0F81E02E1708F080E097
:103F4000982F9A0F81E09A1708F080E0810FB093C4
:103F5000B406F093B5067093B6065093B706309347
:103F6000B8062093B9069093BA068093BB0689E3FE
:103F700098E00E94E2418FE897E06BE472E00E94D3
:103F8000D32FB4C1973009F0B1C18091B10690919F
:103F9000B20601979093B2068093B1068091D50145
:103FA000882339F489E398E00E94E24181E080931C
:103FB000D50189E398E063E470E00E941D42892BFB
:103FC00009F41DC180913D0890913E0890935E08D0
:103FD00080935D080091CB061091CC062091CD0610
:103FE0003091CE064091CF065091D0066091D10617
:103FF0007091D206E090B106F090B2060E94CC27F4
:104000008091CB062091CC063091CD064091CE0612
:104010006091CF06E091D006A091D1061091D20612
:10402000B82FBF5F91E0B81708F090E0F92FF20FBA
:1040300081E0F21708F080E0782F730F81E07317AA
:1040400008F080E0582F540F81E0541708F080E00A
:10405000382F360F81E0361708F080E0282F2E0F1A
:1040600081E02E1708F080E0982F9A0F81E09A17D0
:1040700008F080E0810FB093CB06F093CC067093EC
:10408000CD065093CE063093CF062093D006909362
:10409000D1068093D2068091B1069091B206019626
:1040A0009093B2068093B10687EE96E06BE472E0DF
:1040B0000E94D32F84E180939D0210929E02109261
:1040C0009F022CE02093A0028091AD069091AE0655
:1040D00001969093A10201978F5F8093A2021092A4
:1040E000A3021092A4021092A5021092A6021092AE
:1040F000A7022093A80289EA92E065EB72E040E310
:1041000050E027E831E00BE412E0E0E2EE2EF12C83
:10411000BCE0CB2ED12C0E944F29809116028093B7
:104120000A028091170280930B02809118028093FB
:104130000C028091190280930D028091B10690913A
:10414000B20690930F0280930E0290931B0280930D
:104150001A025090B4066090B5067090B606809032
:10416000B7069090B806A090B906B090BA06109124
:10417000BB06A0E1CA2EA2E0DA2EFCE1EF2EF2E0AF
:10418000FF2EC0E0D0E0252D362D472D582D692D6E
:104190007A2D8B2D912F0C2F0E94CC87F601219325
:1041A0006F01F70121937F012896C033D10559F79C
:1041B00086E1809322028EEF809323028DEF80931D
:1041C00024021092250288E18093260280915D08E6
:1041D00090915E08839667E372E04AE052E02DE931
:1041E00032E008E110E0EAE1EE2EE2E0FE2E0E946D
:1041F000593B892B49F489E398E00E94E24182E02F
:1042000060E50E948F0972C080915D0890915E0800
:104210000091B4061091B5062091B6063091B7060C
:104220004091B8065091B9066091BA067091BB06EC
:10423000E090B106F090B2060E960E94ED278091B4
:104240005D0890915E0863E470E00E947C098091B3
:10425000B4062091B5063091B6064091B70660913C
:10426000B806E091B906A091BA061091BB06B82F26
:10427000BF5F91E0B81708F090E0F92FF20F81E0EE
:10428000F21708F080E0782F730F81E0731708F0C1
:1042900080E0582F540F81E0541708F080E0382F49
:1042A000360F81E0361708F080E0282F2E0F81E0CE
:1042B0002E1708F080E0982F9A0F81E09A1708F0E7
:1042C00080E0810FB093B406F093B5067093B60604
:1042D0005093B7063093B8062093B9069093BA0668
:1042E0008093BB0689E398E00E94E241DF91CF9181
:1042F0001F910F91FF90EF90DF90CF90BF90AF9004
:104300009F908F907F906F905F9008956F927F92B3
:104310008F929F92AF92BF92CF92DF92EF92FF92D5
:104320000F931F93CF93DF93282FAB018091042A23
:10433000281709F0C6C08091BF06882339F0809104
:10434000E3069091E406622F0E945C418091CD28A3
:1043500081FFC9C08091BF068823B9F08091E10632
:104360009091E2069C01D901E5EDF3E280E1019034
:104370000D928150E1F7E091E106F091E206809123
:10438000F5239091F623938B828B0091D228109184
:10439000D328A090BD23B090BE239924939482E0AB
:1043A000882EB0EC6B2EB6E07B2EA2ECCA2EA6E0D7
:1043B000DA2E2091BF06222369F08091D301873045
:1043C00049F48091BC06882329F4F8018081863164
:1043D00009F487C0F8018081853119F49092BD06F7
:1043E00039C09091D301953019F0973071F503C021
:1043F000843181F178C0873159F1222331F186313E
:1044000009F071C08092D30187EE96E00E94B22F2E
:104410001092AE061092AD061092B0061092AF0642
:104420008BE498E00E94E2418091D501882321F439
:1044300089E398E00E94E2419092D5019092D401E4
:104440001092BC061092B30605C0863119F04BC01D
:104450009092BC06F80184818093C0068381F301A9
:104460008183F80182858093C2068185F60181836C
:10447000F8018085F6018283F8018781F601838344
:10448000F8018681F6018483F8018581F601858330
:10449000F801F384EE248485E701C80FD11DC8011B
:1044A0000D96BE010E942A19C5010D97C817D9079C
:1044B000D0F42D960C0F1D1F2D975C01AC1ABD0A70
:1044C00078CF283881F485ED96E00E947B43892BD4
:1044D00051F08091BF06882321F08091D30187306D
:1044E00011F00E94571BDF91CF911F910F91FF9008
:1044F000EF90DF90CF90BF90AF909F908F907F9084
:104500006F900895CF93DF93EC01288139812115B5
:10451000310529F02B5C354009F06DC023C0809136
:104520006708909168089093E6068093E50680E01E
:1045300090E060E070E040E050E00E94B453FC0185
:104540009093E2068093E10681E09BEB918B808B58
:1045500087EE96E00E94B22F8BEC95E099838883DA
:1045600081E04CC0862FBA010E9486219091AC0652
:10457000913091F71092AC0682E08093D3011092B3
:10458000AE061092AD061092B0061092AF061092D1
:10459000B2061092B1061092B3061092B4061092B1
:1045A000B5061092B6061092B7061092B806109291
:1045B000B9061092BA061092BB069093D5011092DC
:1045C000BC061092BD061092BE069093D40187EEF1
:1045D00096E00E94B22FE091E106F091E20680E1C0
:1045E000DF011D928A95E9F7E091E106F091E2067C
:1045F000138A128AB1CF1982188283E0DF91CF919A
:104600000895CF92DF92EF92FF920F931F93CF9373
:10461000DF93EC0188819981009729F0855B9540B3
:1046200009F0DAC0CDC08091670890916808909336
:10463000E6068093E506FA017281638180819181AB
:1046400040E050E00E94B4539093E2068093E1066C
:104650001092B2061092B1061092B4061092B506EE
:104660001092B6061092B7061092B8061092B906CC
:104670001092BA061092BB061092AE061092AD06CA
:104680001092B0061092AF061092BC0687EE96E02C
:104690000E94B22F89E398E063E470E00E941D421B
:1046A000019709F099C080913D0890913E08909340
:1046B0005E0880935D080091B4061091B5062091C4
:1046C000B6063091B7064091B8065091B906609190
:1046D000BA067091BB06E090B106F090B206C090A9
:1046E000AD06D090AE060E940E2B8091B4062091AC
:1046F000B5063091B6064091B7066091B806E091D4
:10470000B906A091BA061091BB06B82FBF5F91E021
:10471000B81708F090E0F92FF20F81E0F21708F0D7
:1047200080E0782F730F81E0731708F080E0582F36
:10473000540F81E0541708F080E0382F360F81E0E5
:10474000361708F080E0282F2E0F81E02E1708F092
:1047500080E0982F9A0F81E09A1708F080E0810F8F
:10476000B093B406F093B5067093B6065093B706AF
:104770003093B8062093B9069093BA068093BB068F
:1047800040915D0850915E08CA01DC01E7EDF1E05F
:104790005B968C915B978193119681E0E73FF807D8
:1047A000B9F7CA0163E470E00E947C0989E398E0EC
:1047B0000E94E24185EB95E09983888381E00FC0F8
:1047C0008091AC06882319F01092AC0605C0862FA4
:1047D000BA010E948621EECF1982188283E0DF9110
:1047E000CF911F910F91FF90EF90DF90CF900895A0
:1047F0002F923F924F925F926F927F928F929F92F1
:10480000AF92BF92CF92DF92EF92FF920F931F93DE
:10481000DF93CF93CDB7DEB728970FB6F894DEBFFE
:104820000FBECDBFFC013B014A018091D30187300F
:1048300009F09DC08091B4068E839091B5069F8348
:10484000A091B606A8872090B7063090B806409091
:10485000B9065090BA061091BB068A3089F49923A4
:1048600079F4AA2369F4222059F4332049F444202E
:1048700039F4552029F4112319F40E94620A3CC12D
:10488000828193819093E2068093E1069091BF0626
:10489000AAE0B2E020E030E0992321F0F901EA5EDD
:1048A000FD4F03C0F901EA5FFD4F80818C932F5FBC
:1048B0003F4F11962430310579F79091B1068091E0
:1048C000B20680930E0280931A0290930F02909387
:1048D0001B02B5E1AB2EB2E0BB2EA1E2CA2EA2E0D4
:1048E000DA2EEE24FF242E813F814885522D632D40
:1048F000742D852D912F0E2D0E94CC87F5012083DC
:10490000D6012C93E8E0F0E0EE0EFF1E0894A1081B
:10491000B1080894C108D108F0E3EF16F10419F7C3
:1049200087E1809322028EEF809323028DEF8093A4
:10493000240290922502809226028091D50188233C
:1049400021F489E398E00E94E2411092D501FDE153
:104950004F2E512C480C591C89E398E0B2010E945B
:104960001D42892B39F482E060E50E948F092FEF08
:104970003FEFC4C0A0903D08B0903E080E94BB6BC2
:104980009093D4068093D3068091BF0695012B5E49
:104990003F4F882321F0C90167E372E003C0C901DA
:1049A00067E272E04AE052E093018401EAE1EE2E10
:1049B000E2E0FE2E0E94593B892B29F489E398E01E
:1049C0000E94E241D0CF0E94BB6B00D000D000D04B
:1049D000EDB7FEB731968E010F5F1F4FADB7BEB773
:1049E00012961C930E93119728EB31E033832283A8
:1049F0002091D3063091D406821B930B9583848338
:104A00000E94BC8EEDB7FEB736960FB6F894FEBF87
:104A10000FBEEDBFC8010E94AB6880E190E0880E38
:104A2000991EE090B406F090B5060091B60610917C
:104A3000B7062091B8063091B9064091BA06509158
:104A4000BB06C090B106D090B206C501B4010E9469
:104A500090288091B4062091B5063091B606409119
:104A6000B7066091B806E091B906A091BA06109118
:104A7000BB06B82FBF5F91E0B81708F090E0F92FA0
:104A8000F20F81E0F21708F080E0782F730F81E0D9
:104A9000731708F080E0582F540F81E0541708F086
:104AA00080E0382F360F81E0361708F080E0282F9D
:104AB0002E0F81E02E1708F080E0982F9A0F81E0EA
:104AC0009A1708F080E0810FB093B406F093B50612
:104AD0007093B6065093B7063093B8062093B90684
:104AE0009093BA068093BB06C501B2010E947C096F
:104AF00085ED96E00E94E04320E030E0C901289671
:104B00000FB6F894DEBF0FBECDBFCF91DF911F91DE
:104B10000F91FF90EF90DF90CF90BF90AF909F905C
:104B20008F907F906F905F904F903F902F9008955F
:104B3000DF93CF9300D0CDB7DEB79A8389836230FD
:104B4000D0F581E08093BF0682E08093D30160932B
:104B5000E50281E598E068E070E00E941D42892B43
:104B600051F180915508909156089093DE068093FC
:104B7000DD0687E598E064E070E00E941D42892B25
:104B8000D1F080915B0890915C089093E00680934F
:104B9000DF0680916708909168089093E4068093FF
:104BA000E30689EC91E0BE016F5F7F4F0E948F4169
:104BB00020E030E002C02FEF3FEFC9010F900F90CF
:104BC000CF91DF910895DF93CF9300D000D0CDB780
:104BD000DEB71092BF0629E02093D3019A83898320
:104BE0007C836B8381E598E068E070E00E941D4261
:104BF000892B39F180915508909156089093DE06E3
:104C00008093DD0687E598E064E070E00E941D4235
:104C1000892BB9F080915B0890915C089093E00635
:104C20008093DF0680916708909168089093E4066E
:104C30008093E3068DEB91E0BE016F5F7F4F0E9492
:104C40008F410F900F900F900F90CF91DF910895AB
:104C50003F924F925F926F927F928F929F92AF920C
:104C6000BF92CF92DF92EF92FF920F931F93DC01DE
:104C7000702E622E532E442E352EFC0161938EEF42
:104C800011968C93DF0111968DEF8183FD01319692
:104C90001196DC924F010894811C911CC182640121
:104CA0000894C11CD11C9701402F512F662D752DE2
:104CB000842D932D08E20E94CC87F40121834601C4
:104CC0000894811C911C9701472D512F662D752D3D
:104CD000842D932D00E20E94CC87F601218364018C
:104CE0000894C11CD11C9701472D512F662D752D9D
:104CF000842D932D08E10E94CC87F4012183460185
:104D00000894811C911C9701472D512F662D752DFC
:104D1000842D932D00E10E94CC87F601218364014C
:104D20000894C11CD11C9701472D512F662D752D5C
:104D3000842D932D08E00E94CC87F4012183D601B5
:104D40001196F601E182FD0131961196BC92A18285
:104D50003296CF011F910F91FF90EF90DF90CF908F
:104D6000BF90AF909F908F907F906F905F904F908B
:104D70003F9008958F929F92AF92BF92CF92DF9211
:104D8000EF92FF920F931F93DC01FC0161934901A5
:104D9000AA24BB2411968C92DF011196C12ED22E2B
:104DA000E32EFF24C182FD01319611960C93DF01A1
:104DB00011965183FD01319611964C93DF011196A6
:104DC0001182FD01319611961C92DF01119611821C
:104DD000CD01019611968C92FC013196DC01119661
:104DE000CC9201833296CF011F910F91FF90EF90EB
:104DF000DF90CF90BF90AF909F908F900895AF922B
:104E0000BF92CF92DF92EF92FF920F931F93E62F04
:104E1000670166E1780189019A014E2F572F7CE0E6
:104E2000A72EB12C0E94282660E040E050E000E070
:104E300010E020E030E00E94BA261F910F91FF9011
:104E4000EF90DF90CF90BF90AF9008956F927F92D8
:104E50008F929F92AF92BF92CF92DF92EF92FF928A
:104E60000F931F93CF93DF93762E672E450166E154
:104E7000EFE1AE2EB12C0E94282663E0A40103E1ED
:104E800010E020E030E00E94BA26DC01FC018EEF49
:104E900081938FEF11968C93119780E18183272D59
:104EA000362DC901EC01FD019D01205F3F4F899125
:104EB00083833196E217F307D1F7DF91CF911F91EA
:104EC0000F91FF90EF90DF90CF90BF90AF909F90A9
:104ED0008F907F906F9008952F923F924F925F92A4
:104EE0007F928F929F92AF92BF92CF92DF92EF927A
:104EF000FF920F931F93DF93CF93CDB7DEB71B01C4
:104F00002A017C2DED2DFE2DAF2DB02F712EA90184
:104F100065012EE030E0420E531E66E1E72EFE2EC4
:104F20000F2F1A2F2B2F372D52010E94282644EFC6
:104F30005FEF440E551E820120E030E04EEF5FEF40
:104F4000440E551E60E1A4010E94BA26FC01508265
:104F50004182DC0120E030E009C0F101E20FF31FE3
:104F6000808111968C9311972F5F3F4F11962415D6
:104F7000350598F3CF91DF911F910F91FF90EF903E
:104F8000DF90CF90BF90AF909F908F907F905F9079
:104F90004F903F902F900895AF92BF92CF92DF92A3
:104FA000EF92FF920F931F93E62F670164E1780160
:104FB00089019A014E2F572FF1E0AF2EB12C0E949C
:104FC0002826FC0181E080831F910F91FF90EF90D4
:104FD000DF90CF90BF90AF9008952F923F924F9265
:104FE0005F926F927F928F929F92AF92BF92CF9279
:104FF000DF92EF92FF920F931F93DF93CF9300D036
:10500000CDB7DEB7902E712E622E532E442E352E44
:10501000262E7983EA828F2C66E1E02EF12E022F74
:10502000132F242F352F422D572FCA80D82CA8E2BA
:10503000AA2EB12C0E942826FC01DC018D927D0154
:10504000BA81B18367010894C11CD11C292D372D69
:10505000462D552D642D732D822D998108E20E94D5
:10506000CC87F701218376010894E11CF11C292DDE
:10507000372D462D552D642D732D822D998100E2FB
:105080000E94CC87D60111962C9367010894C11C0D
:10509000D11C292D372D462D552D642D732D822D94
:1050A000998108E10E94CC87F70121837601089459
:1050B000E11CF11C292D372D462D552D642D732D06
:1050C000822D998100E10E94CC87D60111962C9304
:1050D000292D372D462D552D642D732D822D998127
:1050E00008E00E94CC87F70121830894E11CF11CA1
:1050F000D70111969C920F900F90CF91DF911F9145
:105100000F91FF90EF90DF90CF90BF90AF909F9066
:105110008F907F906F905F904F903F902F90089569
:105120002F923F924F925F926F927F928F929F92B7
:10513000AF92BF92CF92DF92EF92FF920F931F93A5
:10514000DF93CF9300D0CDB7DEB75B019E2C7F2CD1
:10515000602E512E422E332E242E5983CA828D2C3E
:1051600067E10E942826FC01DC018D927D01BA8155
:10517000B18367010894C11CD11C292D372D462D00
:10518000552D642D732D822D998108E20E94CC87C4
:10519000F701218376010894E11CF11C292D372D9C
:1051A000462D552D642D732D822D998100E20E948C
:1051B000CC87D60111962C9367010894C11CD11C91
:1051C000292D372D462D552D642D732D822D998136
:1051D00008E10E94CC87F701218376010894E11C45
:1051E000F11C292D372D462D552D642D732D822D23
:1051F000998100E10E94CC87D60111962C93292D2C
:10520000372D462D552D642D732D822D998108E063
:105210000E94CC87F70121830894E11CF11CD7017F
:1052200011969C920F900F90CF91DF911F910F914B
:10523000FF90EF90DF90CF90BF90AF909F908F90B6
:105240007F906F905F904F903F902F9008958F9236
:105250009F92AF92BF92CF92DF92EF92FF920F9305
:105260001F93A62FF7019C2C8A2C65E178018901F8
:105270009A014A2F572F6F01B2E0AB2EB12C0E943A
:105280002826FC01908281821F910F91FF90EF9060
:10529000DF90CF90BF90AF909F908F9008952F9206
:1052A0003F924F925F926F927F928F929F92AF92B6
:1052B000BF92CF92DF92EF92FF920F931F93DF93F3
:1052C000CF93CDB7DEB7C254D3400FB6F894DEBF4C
:1052D0000FBECDBF2C014901CF5BDC4F0883C15409
:1052E000D340CE5BDC4F1883C254D3401701360144
:1052F0008E010F5D1F4FC8010E94D431D4010D9063
:105300000020E9F71197A819B909C801B401AD0146
:105310000E947431C801CF5BDC4F6881C154D34017
:10532000CE5BDC4F7881C254D340A7010E94743118
:105330005E010894A11CB11CC801B50140E250E017
:105340000E947731CC24DD24F02E012FC501EA2CF8
:10535000192F4EC08F2D902F0E94BF318F2D902F6F
:105360006E2D712F40E250E00E947431D4010D90F7
:105370000020E9F71197A819B9098F2D902FB401D2
:10538000AD010E9474318F2D902FCF5BDC4F68816F
:10539000C154D340CE5BDC4F7881C254D340A101CD
:1053A0000E947431B2016C0D7D1DA3014C195D0981
:1053B0004132510514F040E250E08F2D902F0E94B1
:1053C00077318F2D902F0E94BF318F2D902F6E2D12
:1053D000712F40E250E00E9474318F2D902FB50163
:1053E00040E250E00E94773180E290E0C80ED91E82
:1053F000C614D7040CF4AECF81E090E0CE5BDC4F56
:105400000FB6F894DEBF0FBECDBFCF91DF911F91D5
:105410000F91FF90EF90DF90CF90BF90AF909F9053
:105420008F907F906F905F904F903F902F90089556
:105430003F924F925F926F927F928F929F92AF9224
:10544000BF92CF92DF92EF92FF920F931F93DF9361
:10545000CF9300D0CDB7DEB72B015A834983322ECC
:105460007C2DED2D9701A8016401632C7724A6E320
:10547000B0E06A0E7B1E66E17501072F1E2F5301F7
:105480000E942826E4EFFFEF6E0E7F1E882477FC33
:105490008094982C61E04E895F89940183010E9479
:1054A000BA266C018EEFD6018D938D018DEFF6013A
:1054B00081837D010894E11CF11C41145104B1F574
:1054C0000E943367292F332744275527D801119687
:1054D0002C93D70111969C0144275527F70121836E
:1054E000FD013196272F382F492F552711962C93E0
:1054F000618392E0A92EB12CAE0EBF1E0E94BB6B41
:105500000E94F04486018CE1E82EF12CEC0CFD1C8D
:105510000E94ED448F77D80116968C930F5F1F4F32
:105520000E151F05A9F7D5015C960DC0D201F60135
:105530009601205E3F4F8D9182833196E217F307EB
:10554000D1F7D7019096FD01119211963C921197D7
:10555000AF014F5F5F4FE981FA81EF2B91F020E0BF
:1055600030E00AC0E981FA81E20FF31F80811196D1
:105570008C9311972F5F3F4F1196231598F3430D8E
:10558000511DFA01119282E0DA0111968C93DF012C
:1055900011961182FD0131968DEF11968C9381E069
:1055A000818312820F900F90CF91DF911F910F9105
:1055B000FF90EF90DF90CF90BF90AF909F908F9033
:1055C0007F906F905F904F903F9008958F929F9241
:1055D000AF92BF92CF92DF92EF92FF920F931F9301
:1055E000DF93CF93CDB7DEB700D0EF85F889ADB7A5
:1055F000BEB71296FC93EE9311970E94182A0F9053
:105600000F90CF91DF911F910F91FF90EF90DF905E
:10561000CF90BF90AF909F908F9008957F928F9280
:105620009F92AF92BF92CF92DF92EF92FF920F9331
:105630001F93CF93DF93E22FF42FA52FB62F772E52
:10564000470100D0CDB7DEB7DA82C98260E070E0F2
:1056500040E050E020E05801CE2ED32EEF2EFA2E5F
:105660000B2F172D0E94182A0F900F90DF91CF91CA
:105670001F910F91FF90EF90DF90CF90BF90AF9070
:105680009F908F907F9008952F923F924F925F92BC
:105690006F927F928F929F92AF92BF92CF92DF9242
:1056A000EF92FF920F931F93DF93CF9300D000D020
:1056B00000D0CDB7DEB73B015E2C4F2C302E212E13
:1056C0002B833C834D835E83DA82C982450166E188
:1056D00072E3A72EB12C0E94282662E0A40106E204
:1056E00010E020E030E00E94BA267C018EEFF70146
:1056F00081936F018DEFF701818386010F5F1F4F4B
:105700006114710491F50E943367292F33274427D0
:105710005527F6012183D80111969C01442755276E
:10572000F8012183FD013196272F382F492F552766
:1057300011962C936183A2E0CA2ED12CCE0EDF1ECF
:105740000E94BB6B0E94F0448701045E1F4F0E94C1
:10575000ED448F77F70186830894E11CF11CE01675
:10576000F106A9F7D6015C960DC0D301F7019701A8
:10577000205E3F4F8D9182833196E217F307D1F778
:10578000D8019096FD01119211961C92DF0111969D
:105790008DEF818311961C921197CD010296E52C15
:1057A000E39421E0E51408F020E0F22EF40C01E08F
:1057B000F41408F000E0030D11E0031508F010E008
:1057C000120D21E0121508F020E0FB812F0F31E0CF
:1057D0002F1708F030E04C81340F41E05C81351721
:1057E00008F040E06D81460F51E0461708F050E0A8
:1057F000EE815E0F66E1C980DA807CE0A72EB12CD5
:105800000E9428266EE042E050E000E010E020E038
:1058100030E00E94BA2626960FB6F894DEBF0FBE7F
:10582000CDBFCF91DF911F910F91FF90EF90DF904F
:10583000CF90BF90AF909F908F907F906F905F9030
:105840004F903F902F900895AF92BF92CF92DF92EA
:10585000EF92FF920F931F930E94442B1F910F9181
:10586000FF90EF90DF90CF90BF90AF900895AF92F0
:10587000BF92CF92DF92EF92FF920F931F93DB01C3
:10588000F701560160E070E0780189019A01AD01ED
:105890006F010E94442B1F910F91FF90EF90DF90BA
:1058A000CF90BF90AF9008952F923F924F925F920A
:1058B0006F927F928F929F92AF92BF92CF92DF9220
:1058C000EF92FF920F931F93DF93CF93CDB7DEB785
:1058D000CE53D1400FB6F894DEBF0FBECDBFC15D31
:1058E000DE4F79836883CF52D140CF5CDE4F59833E
:1058F0004883C153D140C75DDE4F19821882C95217
:10590000D1409E012F5D3F4FC35CDE4F398328831A
:10591000CD53D140A9014C5D5F4FC95CDE4F598327
:105920004883C753D140DE01AB5FBE4FC55CDE4F3D
:10593000B983A883CB53D14088579F4FC75CDE4FB4
:1059400099838883C953D140E3C2C75DDE4F088184
:105950001981C952D14026E0000F111F2A95E1F7A5
:10596000C15DDE4FE881F981CF52D1400E0F1F1F7C
:105970009E012F5D3F4FCD5DDE4F39832883C3529B
:10598000D140790160E070E0FB01EE0FFF1FEE0FE8
:10599000FF1FE00FF11F208130E040E050E0522F68
:1059A000442733272227838190E0A0E0B0E0282B12
:1059B000392B4A2B5B2B828190E0A0E0B0E0BA2F1C
:1059C000A92F982F8827282B392B4A2B5B2B8181D5
:1059D00090E0A0E0B0E0DC0199278827282B392B44
:1059E0004A2B5B2BD7012D933D934D935D937D0106
:1059F0006F5F7F4F6031710539F6C95CDE4FE8811A
:105A0000F981C753D140A488B588C688D788CD5DB1
:105A1000DE4FA881B981C352D14014966D907D901C
:105A20008D909C9017972D903D904D905D90CD5D01
:105A3000DE4FB983A883C352D14080819181A28176
:105A4000B381280E391E4A1E5B1ED601C50103E133
:105A5000B695A795979587950A95D1F7A6019501D3
:105A60001DE0220F331F441F551F1A95D1F7822BBB
:105A7000932BA42BB52BA601950171E15695479563
:105A8000379527957A95D1F7860175016FE0EE0C71
:105A9000FF1C001F111F6A95D1F72E293F29402BAB
:105AA000512B82279327A427B5272AE0D694C794A1
:105AB000B794A7942A95D1F78A259B25AC25BD25B7
:105AC000280E391E4A1E5B1ED401C30102E1B695A1
:105AD000A795979587950A95D1F7A40193011EE0A4
