:100000000C9491080C94B0080C94B0080C94B008AF
:100010000C94B0080C94B0080C94B0080C94B00880
:100020000C94B0080C94716D0C94B0080C94B0084A
:100030000C94087A0C94B0080C94B0080C94F179E4
:100040000C9447720C94B0080C94B0080C94B0084F
:100050000C9495720C94B0080C9489720C94B008AE
:100060000C94B0080C94B0080C94B0080C94B00830
:100070000C94D3720C94B0080C94C7720C94B00812
:100080000C946E8B0C94B0080C94B008C6A56363F6
:10009000F8847C7CEE997777F68D7B7BFF0DF2F20E
:1000A000D6BD6B6BDEB16F6F9154C5C560503030FB
:1000B00002030101CEA96767567D2B2BE719FEFECF
:1000C000B562D7D74DE6ABABEC9A76768F45CACA08
:1000D0001F9D82828940C9C9FA877D7DEF15FAFA92
:1000E000B2EB59598EC94747FB0BF0F041ECADAD6F
:1000F000B367D4D45FFDA2A245EAAFAF23BF9C9CF7
:1001000053F7A4A4E49672729B5BC0C075C2B7B7E4
:10011000E11CFDFD3DAE93934C6A26266C5A3636A3
:100120007E413F3FF502F7F7834FCCCC685C343417
:1001300051F4A5A5D134E5E5F908F1F1E293717127
:10014000AB73D8D8625331312A3F1515080C04041B
:100150009552C7C7466523239D5EC3C33028181830
:1001600037A196960A0F05052FB59A9A0E0907072B
:10017000243612121B9B8080DF3DE2E2CD26EBEBA2
:100180004E6927277FCDB2B2EA9F7575121B090908
:100190001D9E838358742C2C342E1A1A362D1B1B4B
:1001A000DCB26E6EB4EE5A5A5BFBA0A0A4F65252BB
:1001B000764D3B3BB761D6D67DCEB3B3527B292972
:1001C000DD3EE3E35E712F2F13978484A6F553532E
:1001D000B968D1D100000000C12CEDED40602020B5
:1001E000E31FFCFC79C8B1B1B6ED5B5BD4BE6A6AB3
:1001F0008D46CBCB67D9BEBE724B393994DE4A4AA5
:1002000098D44C4CB0E85858854ACFCFBB6BD0D06F
:10021000C52AEFEF4FE5AAAAED16FBFB86C54343BF
:100220009AD74D4D66553333119485858ACF454510
:10023000E910F9F904060202FE817F7FA0F0505018
:1002400078443C3C25BA9F9F4BE3A8A8A2F35151A8
:100250005DFEA3A380C04040058A8F8F3FAD929280
:1002600021BC9D9D70483838F104F5F563DFBCBCB6
:1002700077C1B6B6AF75DADA4263212120301010AB
:10028000E51AFFFFFD0EF3F3BF6DD2D2814CCDCD49
:1002900018140C0C26351313C32FECECBEE15F5F72
:1002A00035A2979788CC44442E3917179357C4C466
:1002B00055F2A7A7FC827E7E7A473D3DC8AC6464B8
:1002C000BAE75D5D322B1919E6957373C0A06060C3
:1002D000199881819ED14F4FA37FDCDC4466222296
:1002E000547E2A2A3BAB90900B8388888CCA464662
:1002F000C729EEEE6BD3B8B8283C1414A779DEDE1C
:10030000BCE25E5E161D0B0BAD76DBDBDB3BE0E09B
:1003100064563232744E3A3A141E0A0A92DB494944
:100320000C0A0606486C2424B8E45C5C9F5DC2C2DB
:10033000BD6ED3D343EFACACC4A6626239A8919131
:1003400031A49595D337E4E4F28B7979D532E7E798
:100350008B43C8C86E593737DAB76D6D018C8D8DF8
:10036000B164D5D59CD24E4E49E0A9A9D8B46C6CE5
:10037000ACFA5656F307F4F4CF25EAEACAAF65653E
:10038000F48E7A7A47E9AEAE101808086FD5BABA7B
:10039000F08878784A6F25255C722E2E38241C1C34
:1003A00057F1A6A673C7B4B49751C6C6CB23E8E8E5
:1003B000A17CDDDDE89C74743E211F1F96DD4B4B54
:1003C00061DCBDBD0D868B8B0F858A8AE0907070D5
:1003D0007C423E3E71C4B5B5CCAA666690D848480A
:1003E00006050303F701F6F61C120E0EC2A36161A7
:1003F0006A5F3535AEF9575769D0B9B91791868616
:100400009958C1C13A271D1D27B99E9ED938E1E1EF
:10041000EB13F8F82BB3989822331111D2BB69690A
:10042000A970D9D907898E8E33A794942DB69B9B3A
:100430003C221E1E15928787C920E9E98749CECE46
:10044000AAFF555550782828A57ADFDF038F8C8CBA
:1004500059F8A1A1098089891A170D0D65DABFBF66
:10046000D731E6E684C64242D0B8686882C34141CB
:1004700029B099995A772D2D1E110F0F7BCBB0B053
:10048000A8FC54546DD6BBBB2C3A161663C6A563A4
:100490007CF8847C77EE99777BF68D7BF2FF0DF20A
:1004A0006BD6BD6B6FDEB16FC59154C530605030F7
:1004B0000102030167CEA9672B567D2BFEE719FECB
:1004C000D7B562D7AB4DE6AB76EC9A76CA8F45CA04
:1004D000821F9D82C98940C97DFA877DFAEF15FA8E
:1004E00059B2EB59478EC947F0FB0BF0AD41ECAD6B
:1004F000D4B367D4A25FFDA2AF45EAAF9C23BF9CF3
:10050000A453F7A472E49672C09B5BC0B775C2B7E0
:10051000FDE11CFD933DAE93264C6A26366C5A369F
:100520003F7E413FF7F502F7CC834FCC34685C3413
:10053000A551F4A5E5D134E5F1F908F171E2937123
:10054000D8AB73D831625331152A3F1504080C0417
:10055000C79552C723466523C39D5EC3183028182C
:100560009637A196050A0F059A2FB59A070E090727
:1005700012243612801B9B80E2DF3DE2EBCD26EB9E
:10058000274E6927B27FCDB275EA9F7509121B0904
:10059000831D9E832C58742C1A342E1A1B362D1B47
:1005A0006EDCB26E5AB4EE5AA05BFBA052A4F652B7
:1005B0003B764D3BD6B761D6B37DCEB329527B296E
:1005C000E3DD3EE32F5E712F8413978453A6F5532A
:1005D000D1B968D100000000EDC12CED20406020B1
:1005E000FCE31FFCB179C8B15BB6ED5B6AD4BE6AAF
:1005F000CB8D46CBBE67D9BE39724B394A94DE4AA1
:100600004C98D44C58B0E858CF854ACFD0BB6BD06B
:10061000EFC52AEFAA4FE5AAFBED16FB4386C543BB
:100620004D9AD74D3366553385119485458ACF450C
:10063000F9E910F9020406027FFE817F50A0F05014
:100640003C78443C9F25BA9FA84BE3A851A2F351A4
:10065000A35DFEA34080C0408F058A8F923FAD927C
:100660009D21BC9D38704838F5F104F5BC63DFBCB2
:10067000B677C1B6DAAF75DA2142632110203010A7
:10068000FFE51AFFF3FD0EF3D2BF6DD2CD814CCD45
:100690000C18140C13263513ECC32FEC5FBEE15F6E
:1006A0009735A2974488CC44172E3917C49357C462
:1006B000A755F2A77EFC827E3D7A473D64C8AC64B4
:1006C0005DBAE75D19322B1973E6957360C0A060BF
:1006D000811998814F9ED14FDCA37FDC2244662292
:1006E0002A547E2A903BAB90880B8388468CCA465E
:1006F000EEC729EEB86BD3B814283C14DEA779DE18
:100700005EBCE25E0B161D0BDBAD76DBE0DB3BE097
:10071000326456323A744E3A0A141E0A4992DB4940
:10072000060C0A0624486C245CB8E45CC29F5DC2D7
:10073000D3BD6ED3AC43EFAC62C4A6629139A8912D
:100740009531A495E4D337E479F28B79E7D532E794
:10075000C88B43C8376E59376DDAB76D8D018C8DF4
:10076000D5B164D54E9CD24EA949E0A96CD8B46CE1
:1007700056ACFA56F4F307F4EACF25EA65CAAF653A
:100780007AF48E7AAE47E9AE08101808BA6FD5BA77
:1007900078F08878254A6F252E5C722E1C38241C30
:1007A000A657F1A6B473C7B4C69751C6E8CB23E8E1
:1007B000DDA17CDD74E89C741F3E211F4B96DD4B50
:1007C000BD61DCBD8B0D868B8A0F858A70E09070D1
:1007D0003E7C423EB571C4B566CCAA664890D84806
:1007E00003060503F6F701F60E1C120E61C2A361A3
:1007F000356A5F3557AEF957B969D0B98617918612
:10080000C19958C11D3A271D9E27B99EE1D938E1EB
:10081000F8EB13F8982BB3981122331169D2BB6906
:10082000D9A970D98E07898E9433A7949B2DB69B36
:100830001E3C221E87159287E9C920E9CE8749CE42
:1008400055AAFF5528507828DFA57ADF8C038F8CB6
:10085000A159F8A1890980890D1A170DBF65DABF62
:10086000E6D731E64284C64268D0B8684182C341C7
:100870009929B0992D5A772D0F1E110FB07BCBB04F
:1008800054A8FC54BB6DD6BB162C3A166363C6A5A0
:100890007C7CF8847777EE997B7BF68DF2F2FF0D06
:1008A0006B6BD6BD6F6FDEB1C5C5915430306050F3
:1008B000010102036767CEA92B2B567DFEFEE719C7
:1008C000D7D7B562ABAB4DE67676EC9ACACA8F4500
:1008D00082821F9DC9C989407D7DFA87FAFAEF158A
:1008E0005959B2EB47478EC9F0F0FB0BADAD41EC67
:1008F000D4D4B367A2A25FFDAFAF45EA9C9C23BFEF
:10090000A4A453F77272E496C0C09B5BB7B775C2DC
:10091000FDFDE11C93933DAE26264C6A36366C5A9B
:100920003F3F7E41F7F7F502CCCC834F3434685C0F
:10093000A5A551F4E5E5D134F1F1F9087171E2931F
:10094000D8D8AB733131625315152A3F0404080C13
:10095000C7C7955223234665C3C39D5E1818302828
:10096000969637A105050A0F9A9A2FB507070E0923
:100970001212243680801B9BE2E2DF3DEBEBCD269A
:1009800027274E69B2B27FCD7575EA9F0909121B00
:1009900083831D9E2C2C58741A1A342E1B1B362D43
:1009A0006E6EDCB25A5AB4EEA0A05BFB5252A4F6B3
:1009B0003B3B764DD6D6B761B3B37DCE2929527B6A
:1009C000E3E3DD3E2F2F5E71848413975353A6F526
:1009D000D1D1B96800000000EDEDC12C20204060AD
:1009E000FCFCE31FB1B179C85B5BB6ED6A6AD4BEAB
:1009F000CBCB8D46BEBE67D93939724B4A4A94DE9D
:100A00004C4C98D45858B0E8CFCF854AD0D0BB6B67
:100A1000EFEFC52AAAAA4FE5FBFBED16434386C5B7
:100A20004D4D9AD7333366558585119445458ACF08
:100A3000F9F9E910020204067F7FFE815050A0F010
:100A40003C3C78449F9F25BAA8A84BE35151A2F3A0
:100A5000A3A35DFE404080C08F8F058A92923FAD78
:100A60009D9D21BC38387048F5F5F104BCBC63DFAE
:100A7000B6B677C1DADAAF752121426310102030A3
:100A8000FFFFE51AF3F3FD0ED2D2BF6DCDCD814C41
:100A90000C0C181413132635ECECC32F5F5FBEE16A
:100AA000979735A2444488CC17172E39C4C493575E
:100AB000A7A755F27E7EFC823D3D7A476464C8ACB0
:100AC0005D5DBAE71919322B7373E6956060C0A0BB
:100AD000818119984F4F9ED1DCDCA37F222244668E
:100AE0002A2A547E90903BAB88880B8346468CCA5A
:100AF000EEEEC729B8B86BD31414283CDEDEA77914
:100B00005E5EBCE20B0B161DDBDBAD76E0E0DB3B93
:100B1000323264563A3A744E0A0A141E494992DB3C
:100B200006060C0A2424486C5C5CB8E4C2C29F5DD3
:100B3000D3D3BD6EACAC43EF6262C4A6919139A829
:100B4000959531A4E4E4D3377979F28BE7E7D53290
:100B5000C8C88B4337376E596D6DDAB78D8D018CF0
:100B6000D5D5B1644E4E9CD2A9A949E06C6CD8B4DD
:100B70005656ACFAF4F4F307EAEACF256565CAAF36
:100B80007A7AF48EAEAE47E908081018BABA6FD573
:100B90007878F08825254A6F2E2E5C721C1C38242C
:100BA000A6A657F1B4B473C7C6C69751E8E8CB23DD
:100BB000DDDDA17C7474E89C1F1F3E214B4B96DD4C
:100BC000BDBD61DC8B8B0D868A8A0F857070E090CD
:100BD0003E3E7C42B5B571C46666CCAA484890D802
:100BE00003030605F6F6F7010E0E1C126161C2A39F
:100BF00035356A5F5757AEF9B9B969D0868617910E
:100C0000C1C199581D1D3A279E9E27B9E1E1D938E7
:100C1000F8F8EB1398982BB3111122336969D2BB02
:100C2000D9D9A9708E8E0789949433A79B9B2DB632
:100C30001E1E3C2287871592E9E9C920CECE87493E
:100C40005555AAFF28285078DFDFA57A8C8C038FB2
:100C5000A1A159F8898909800D0D1A17BFBF65DA5E
:100C6000E6E6D731424284C66868D0B8414182C3C3
:100C7000999929B02D2D5A770F0F1E11B0B07BCB4B
:100C80005454A8FCBBBB6DD616162C3AA56363C69C
:100C9000847C7CF8997777EE8D7B7BF60DF2F2FF02
:100CA000BD6B6BD6B16F6FDE54C5C59150303060EF
:100CB00003010102A96767CE7D2B2B5619FEFEE7C3
:100CC00062D7D7B5E6ABAB4D9A7676EC45CACA8FFC
:100CD0009D82821F40C9C989877D7DFA15FAFAEF86
:100CE000EB5959B2C947478E0BF0F0FBECADAD4163
:100CF00067D4D4B3FDA2A25FEAAFAF45BF9C9C23EB
:100D0000F7A4A453967272E45BC0C09BC2B7B775D8
:100D10001CFDFDE1AE93933D6A26264C5A36366C97
:100D2000413F3F7E02F7F7F54FCCCC835C3434680B
:100D3000F4A5A55134E5E5D108F1F1F9937171E21B
:100D400073D8D8AB533131623F15152A0C0404080F
:100D500052C7C795652323465EC3C39D2818183024
:100D6000A19696370F05050AB59A9A2F0907070E1F
:100D7000361212249B80801B3DE2E2DF26EBEBCD96
:100D80006927274ECDB2B27F9F7575EA1B090912FC
:100D90009E83831D742C2C582E1A1A342D1B1B363F
:100DA000B26E6EDCEE5A5AB4FBA0A05BF65252A4AF
:100DB0004D3B3B7661D6D6B7CEB3B37D7B29295266
:100DC0003EE3E3DD712F2F5E97848413F55353A622
:100DD00068D1D1B9000000002CEDEDC160202040A9
:100DE0001FFCFCE3C8B1B179ED5B5BB6BE6A6AD4A7
:100DF00046CBCB8DD9BEBE674B393972DE4A4A9499
:100E0000D44C4C98E85858B04ACFCF856BD0D0BB63
:100E10002AEFEFC5E5AAAA4F16FBFBEDC5434386B3
:100E2000D74D4D9A5533336694858511CF45458A04
:100E300010F9F9E906020204817F7FFEF05050A00C
:100E4000443C3C78BA9F9F25E3A8A84BF35151A29C
:100E5000FEA3A35DC04040808A8F8F05AD92923F74
:100E6000BC9D9D214838387004F5F5F1DFBCBC63AA
:100E7000C1B6B67775DADAAF63212142301010209F
:100E80001AFFFFE50EF3F3FD6DD2D2BF4CCDCD813D
:100E9000140C0C18351313262FECECC3E15F5FBE66
:100EA000A2979735CC4444883917172E57C4C4935A
:100EB000F2A7A755827E7EFC473D3D7AAC6464C8AC
:100EC000E75D5DBA2B191932957373E6A06060C0B7
:100ED00098818119D14F4F9E7FDCDCA3662222448A
:100EE0007E2A2A54AB90903B8388880BCA46468C56
:100EF00029EEEEC7D3B8B86B3C14142879DEDEA710
:100F0000E25E5EBC1D0B0B1676DBDBAD3BE0E0DB8F
:100F1000563232644E3A3A741E0A0A14DB49499238
:100F20000A06060C6C242448E45C5CB85DC2C29FCF
:100F30006ED3D3BDEFACAC43A66262C4A891913925
:100F4000A495953137E4E4D38B7979F232E7E7D58C
:100F500043C8C88B5937376EB76D6DDA8C8D8D01EC
:100F600064D5D5B1D24E4E9CE0A9A949B46C6CD8D9
:100F7000FA5656AC07F4F4F325EAEACFAF6565CA32
:100F80008E7A7AF4E9AEAE4718080810D5BABA6F6F
:100F9000887878F06F25254A722E2E5C241C1C3828
:100FA000F1A6A657C7B4B47351C6C69723E8E8CBD9
:100FB0007CDDDDA19C7474E8211F1F3EDD4B4B9648
:100FC000DCBDBD61868B8B0D858A8A0F907070E0C9
:100FD000423E3E7CC4B5B571AA6666CCD8484890FE
:100FE0000503030601F6F6F7120E0E1CA36161C29B
:100FF0005F35356AF95757AED0B9B969918686170A
:1010000058C1C199271D1D3AB99E9E2738E1E1D9E3
:1010100013F8F8EBB398982B33111122BB6969D2FE
:1010200070D9D9A9898E8E07A7949433B69B9B2D2E
:10103000221E1E3C9287871520E9E9C949CECE873A
:10104000FF5555AA782828507ADFDFA58F8C8C03AE
:10105000F8A1A15980898909170D0D1ADABFBF655A
:1010600031E6E6D7C6424284B86868D0C3414182BF
:10107000B0999929772D2D5A110F0F1ECBB0B07B47
:10108000FC5454A8D6BBBB6D3A16162C6E74706413
:101090002070726F6365737320737461727465641A
:1010A0000A0008000000000000000000000000002E
:1010B0000000000000000000000000000000000030
:1010C0000000000000000000000000000000000020
:1010D0000000257325730A004F6E6C696E650A0067
:1010E0000A002C20636865636B207261746520259B
:1010F0007520487A0025732025732C206368616E63
:101100006E656C202575000A2A2A2A2A2A2A2A4274
:101110006F6F74696E672025732A2A2A2A2A2A2A61
:101120000A0011241FBECFEFD0E4DEBFCDBF15E013
:10113000A0E0B1E0E4E2F0E301E00BBF02C0079001
:101140000D92AC36B107D9F717E3ACE6B5E001C0B4
:101150001D92AF36B107E1F70E94A2710C9410986E
:101160000C9400000F931F93CF93DF93EC018A013F
:10117000888199818333910509F455C084339105A1
:1011800008F076C0009721F08E9709F071C039C041
:1011900080E291E0909377058093760586E098E36E
:1011A000909379058093780587E099E090937B058B
:1011B00080937A0580E09AE090937D0580937C058A
:1011C00080E091E190937F0580937E0582E29FEF1E
:1011D00090938105809380058EEF97E1909383052E
:1011E0008093820584EA96EC90938505809384052C
:1011F0008EE695E062EE74E00E94794B8EE290E01C
:101200000EC0683871F480E091E00E94A96D86E715
:1012100095E061E571E10E94A82783E390E099835E
:10122000888381E028C08091CE266817B1F780912D
:10123000D22680FF09C086E091E00E94A96D10933C
:101240006D0500936C05E9CF81FFE7CFE091D326D0
:10125000F091D4268091D0269091D126E80FF91FE5
:1012600010828091D3269091D4260E94A96DD5CF6B
:101270001982188283E0DF91CF911F910F91089519
:101280009C01AB0181E080938D0580915206909185
:101290005306B9010E94795A86E496E067E771E047
:1012A0000E94794B08957F928F929F92AF92BF9246
:1012B000CF92DF92EF92FF920F931F93782E862E9C
:1012C00080919905882329F08091A405815080930D
:1012D000A40590918B0580918C0580939601909345
:1012E000970190908E0510918F05F0909005E090F9
:1012F0009105D0909205C0909305B0909405A09070
:101300009505292D312F4F2D5E2D6D2D7C2D8B2D8B
:101310009A2D08E20E94CF8D20939801292D312F1C
:101320004F2D5E2D6D2D7C2D8B2D9A2D00E20E9470
:10133000CF8D20939901292D312F4F2D5E2D6D2DAD
:101340007C2D8B2D9A2D08E10E94CF8D20939A0140
:10135000292D312F4F2D5E2D6D2D7C2D8B2D9A2D0E
:1013600000E10E94CF8D20939B01292D312F4F2D1D
:101370005E2D6D2D7C2D8B2D9A2D08E00E94CF8D3A
:1013800020939C0190929D0180E5881699F08091B0
:101390009101882321F482E69BE00E94794881E054
:1013A0008093910182E69BE06FE070E00E94B44878
:1013B000892B59F4809152069091530663E971E0AC
:1013C0004FE050E00E94795A30C08091660B9091B6
:1013D000670B9093870B8093860B00918E0510917D
:1013E0008F05209190053091910540919205509183
:1013F00093056091940570919505E0908B05F090B0
:101400008C05C72CA82C0E94E42A6091860B709151
:10141000870B80915206909153064FE050E00E9456
:10142000795A82E69BE00E94794881E080938605A4
:10143000809298051F910F91FF90EF90DF90CF90D1
:10144000BF90AF909F908F907F900895CF92DF9242
:10145000EF92FF920F931F9380919101882321F4C3
:1014600082E69BE00E94794881E08093910180911F
:101470009001882321F484E79BE00E94794881E071
:101480008093900188E596E00E94C0328091990592
:10149000882309F48CC082E69BE069E170E00E9439
:1014A000B448892B09F495C08091660B9091670B25
:1014B0009093870B8093860B00918E0510918F057A
:1014C000209190053091910540919205509193059E
:1014D0006091940570919505E0908B05F0908C05D6
:1014E0000E94BC2880918E0520918F053091900537
:1014F0004091910560919205E0919305A09194052A
:1015000010919505B82FBF5F91E0B81708F090E0F3
:10151000F92FF20F81E0F21708F080E0782F730FB7
:1015200081E0731708F080E0582F540F81E05417C2
:1015300008F080E0382F360F81E0361708F080E0A1
:10154000282F2E0F81E02E1708F080E0982F9A0F99
:1015500081E09A1708F080E0810FB0938E05F09338
:101560008F057093900550939105309392052093C9
:10157000930590939405809395058091860B9091A7
:10158000870B69E170E00E94400982E080938F013F
:10159000109288051092870510928A05109289058D
:1015A0001092960582E69BE00E947948A1C01092B5
:1015B00088051092870510928A051092890510926D
:1015C000960582E69BE063E470E00E94B448892BB4
:1015D00029F482E060E50E94530998C08091660B6F
:1015E0009091670B9093870B8093860B00918E05EB
:1015F00010918F05209190053091910540919205B1
:10160000509193056091940570919505E0908B053C
:10161000F0908C05C0908705D09088050E941C2E04
:1016200080918E0520918F05309190054091910514
:1016300060919205E0919305A09194051091950514
:10164000B82FBF5F91E0B81708F090E0F92FF20FC4
:1016500081E0F21708F080E0782F730F81E07317B4
:1016600008F080E0582F540F81E0541708F080E014
:10167000382F360F81E0361708F080E0282F2E0F24
:1016800081E02E1708F080E0982F9A0F81E09A17DA
:1016900008F080E0810FB0938E05F0938F05709372
:1016A0009005509391053093920520939305909364
:1016B0009405809395054091860B5091870BCA0144
:1016C000DC01EDECF5E05B968C915B9781931196D4
:1016D00085E0ED3EF807B9F7CA0163E470E00E94C7
:1016E000400982E69BE00E94794889E080938F015F
:1016F00088E08093D2260E949846682F8093CE2659
:1017000080E090E040E050E00E94F3471F910F918D
:10171000FF90EF90DF90CF90089581E060E00E940D
:10172000530908950F931F93CF93DF93EB01099013
:101730000020E9F72197C61BD70B4091C80A5091AA
:10174000C90A0D2FFA01D0831C2FC18390E09A01A2
:101750002C0F3D1F0CC0FA01EA0FFB1F1282F9018A
:10176000EA0FFB1FA60FB71F8C9184839F5FA92FE1
:10177000B0E0AC17BD0778F3F90102831383DF9162
:10178000CF911F910F9108956F927F928F929F92A8
:10179000AF92BF92CF92DF92EF92FF920F931F937F
:1017A000DF93CF93CDB7DEB72C970FB6F894DEBF9B
:1017B0000FBECDBFFC018081843109F09AC08181C8
:1017C000882309F096C08281882309F092C0838122
:1017D0008C3009F08EC02091890590918A05848112
:1017E000891709F086C08581821709F082C0868139
:1017F000882309F07EC08781882309F07AC080851C
:10180000882309F076C08185882309F072C082851B
:10181000882309F06EC083858C3009F06AC08091FE
:1018200099054E010894811C911C1CE0612E712CBD
:101830006E0E7F1E882359F100D000D08CE090E01E
:10184000A0E0B0E0EDB7FEB781839283A383B483B9
:10185000C4016AEC7AE020E330E040E050E002E3CB
:1018600011E0B6E2EB2EB6E0FB2EA0E2AA2EB12CE0
:10187000C12CD12C0E940C2B0F900F900F900F9029
:10188000C301B4014CE050E00E946F942AC000D024
:1018900000D08CE090E0A0E0B0E0EDB7FEB781832F
:1018A0009283A383B483C4016AEC7AE020E330E03E
:1018B00040E050E002E411E0F6E2EF2EF6E0FF2E09
:1018C000E0E2AE2EB12CC12CD12C0E940C2B0F903B
:1018D0000F900F900F90C301B4014CE050E00E94B4
:1018E0006F949C0190E0232B09F091E081E0982710
:1018F00001C090E0892F2C960FB6F894DEBF0FBE82
:10190000CDBFCF91DF911F910F91FF90EF90DF90AE
:10191000CF90BF90AF909F908F907F906F900895E1
:101920002F923F924F925F926F927F928F929F92EF
:10193000AF92BF92CF92DF92EF92FF920F931F93DD
:10194000DF93CF93CDB7DEB7C252D3400FB6F89432
:10195000DEBF0FBECDBF88E69BE06DEE70E00E945B
:10196000B448892B09F4FBC0E0906C0BF0906D0B30
:101970008DEEF70111928A95E9F7E114F10409F46B
:10198000EEC06091C80A7091C90A8E010F5F1F4FA7
:10199000C80144E450E00E94E234C80162E571E00D
:1019A0004DE050E00E948C33C8016DEC75E040E2E0
:1019B00050E00E948C33C8016DEA75E040E250E0CF
:1019C0000E948C33C80162E27BE00E94E1328E010A
:1019D00007551F4FC80162E27BE040E250E00E94E1
:1019E0008C33C80162E47BE00E94E132D701E2E47B
:1019F000FBE080E201900D928150E1F7AA24BB2424
:101A000040E4642E712C6E0C7F1CC701805A9F4FDE
:101A1000CF5DDC4F99838883C152D3403DE6232EAE
:101A2000312C2E0C3F1C2DE8422E512C4E0C5F1CED
:101A30008E010F5F1F4F99EAC92ED12CCC0EDD1EEF
:101A400080E2882E912C8E0C9F1C92E0A91609F43E
:101A500078C0D301F70180E201900D928150E1F747
:101A6000CF5DDC4FA881B981C152D340E2E5F1E0FE
:101A70008DE001900D928150E1F7D101EDECF5E0A0
:101A800080E201900D928150E1F7D201EDEAF5E09C
:101A900080E201900D928150E1F7C8010E94CD349F
:101AA000C801B3014DE650E00E948C33C80162E2E8
:101AB0007BE00E94E132C60162E27BE040E250E05E
:101AC0000E948C33C60162E47BE00E94E132D401C3
:101AD000E2E4FBE080E201900D928150E1F7C80161
:101AE0000E94CD34C801B70140E250E00E948C331F
:101AF000C80162E27BE00E94E132C60162E27BE063
:101B000040E250E00E948C33C60162E47BE00E9418
:101B1000E132D701E2E4FBE080E201900D928150D6
:101B2000E1F7EB2DF0E0E355FF4FEE0DFF1DD40183
:101B300080E20D9001928150E1F7E0E2BE0EA394A5
:101B400084CFAAECBAE0F701E355FF4F80E30190A0
:101B50000D928150E1F788E69BE00E947948CE5DC6
:101B6000DC4F0FB6F894DEBF0FBECDBFCF91DF9133
:101B70001F910F91FF90EF90DF90CF90BF90AF90AB
:101B80009F908F907F906F905F904F903F902F909D
:101B900008952F923F924F925F926F927F928F9211
:101BA0009F92AF92BF92CF92DF92EF92FF920F93EC
:101BB0001F93DF93CF93CDB7DEB7C252D3400FB69A
:101BC000F894DEBF0FBECDBF88E69BE06DEE70E0FF
:101BD0000E94B448892B09F420C1E0906C0BF0906E
:101BE0006D0B8DEEF70111928A95E9F7E114F1047E
:101BF00009F413C18E010F5F1F4FC8016AEC7AE030
:101C000040E350E00E94E234C80160E671E04DE03C
:101C100050E00E948C33C8016DEC75E040E250E06A
:101C20000E948C33C8016DEA75E040E250E00E94EA
:101C30008C33C80162E27BE00E94E1328E010755DD
:101C40001F4FC80162E27BE040E250E00E948C330B
:101C5000C80162E47BE00E94E132D701E2E4FBE0EC
:101C600080E201900D928150E1F7AA24BB24F0E4B8
:101C70006F2E712C6E0C7F1CC701805A9F4FCF5D59
:101C8000DC4F99838883C152D340EDE62E2E312C50
:101C90002E0C3F1C7DE8472E512C4E0C5F1C8E01F4
:101CA0000F5F1F4F69EAC62ED12CCC0EDD1E50E20D
:101CB000852E912C8E0C9F1C92E0A91609F478C0F9
:101CC000D301F70180E201900D928150E1F7CF5DE1
:101CD000DC4FA881B981C152D340E0E6F1E08DE04C
:101CE00001900D928150E1F7D101EDECF5E080E239
:101CF00001900D928150E1F7D201EDEAF5E080E22A
:101D000001900D928150E1F7C8010E94CD34C801C5
:101D1000B3014DE650E00E948C33C80162E27BE0E3
:101D20000E94E132C60162E27BE040E250E00E94A4
:101D30008C33C60162E47BE00E94E132D401E2E42C
:101D4000FBE080E201900D928150E1F7C8010E9412
:101D5000CD34C801B70140E250E00E948C33C80185
:101D600062E27BE00E94E132C60162E27BE040E297
:101D700050E00E948C33C60162E47BE00E94E132B5
:101D8000D701E2E4FBE080E201900D928150E1F79F
:101D9000EB2DF0E0E355FF4FEE0DFF1DD40180E287
:101DA0000D9001928150E1F7E0E2BE0EA39484CF42
:101DB000AAEFBAE0F701E355FF4F80E101900D92E1
:101DC0008150E1F7AEE0BBE0F701E354FF4F80E163
:101DD00001900D928150E1F78DEC90E0E80EF91E34
:101DE000F70181919191A191B19180930A0B909308
:101DF0000B0BA0930C0BB0930D0B80819181A281F2
:101E0000B38180931E0B90931F0BA093200BB09374
:101E1000210B88E69BE00E947948CE5DDC4F0FB62F
:101E2000F894DEBF0FBECDBFCF91DF911F910F9110
:101E3000FF90EF90DF90CF90BF90AF909F908F90EA
:101E40007F906F905F904F903F902F9008956F928A
:101E50007F928F929F92AF92BF92CF92DF92EF923A
:101E6000FF920F931F93DF93CF93CDB7DEB7C85A7E
:101E7000D0400FB6F894DEBF0FBECDBF6C014B0152
:101E800040918F01473009F0C5C0A5E0B6E020E0E1
:101E900030E080919905882321F0F901E65FF44F45
:101EA00003C0F901E25EF44F80818C932F5F3F4FB6
:101EB00011962430310569F780919A0590919B0520
:101EC00090930A0680930906909312068093110658
:101ED000BBE06B2EB6E07B2EA3E1AA2EA6E0BA2EC5
:101EE000EE24FF2420919C0530919D0540919E0594
:101EF00050919F056091A0057091A1058091A20568
:101F00009091A3050E2D0E94CF8DF30121933F01E7
:101F100020919C0530919D0540919E0550919F0513
:101F20006091A0057091A1058091A2059091A305F3
:101F30000E94CF8DF50121935F0188E090E0E80ECB
:101F4000F91E90E3E916F10469F687E1809319061A
:101F50008EEF80931A068DEF80931B06882D80519B
:101F600080931C06F0EFAF2EFFEFBF2EA80CB91C1C
:101F70001A2D0B2DB0921D0680919001882321F41B
:101F800084E79BE00E9479481092900184E79BE0EF
:101F9000612F702F0E94B448892B09F425C7209126
:101FA000780B3091790B3093D4262093D3268091EF
:101FB00099058601085F1F4FF4013897882331F097
:101FC000C90160E070E04AEF5AE005C0C90160E075
:101FD00070E04EE05BE025E036E07F01E1E1CE2EEF
:101FE000E6E0DE2E0E94673E892B19F484E79BE031
:101FF000F8C1B092D126A092D02682E08093D2265A
:102000000E949846682F8093CE2680E090E040E0C2
:1020100050E0D8C580919905882309F4D6C542308F
:1020200019F0483009F0F6C0F60180818E3F09F0C2
:10203000E8C081818D3F09F0E4C082A1E82EFF2431
:10204000E7FCF09483E290E0E80EF91E8E149F0402
:1020500008F4DAC0423081F40E94F9710E94874B83
:102060000EE116E00E94844B8F77F80181938F0177
:10207000F6E006321F07B1F788EA97E06EE176E0F6
:1020800048E050E00E94E234F60142A1552747FDA6
:1020900050954D5D5F4F88EA97E0B6010E9482340B
:1020A000F601EE0DFF1DE081EE2319F0E03109F09D
:1020B000A8C087010F5F1F4F80918F01823049F4C4
:1020C000B601600F711FA401401B510B88EA97E015
:1020D00010C0883081F481E190E0E80EF91EEC0C2C
:1020E000FD1CA40140515040401B510B88EA97E071
:1020F000B7010E94823488EA97E06FEE76E240E111
:1021000050E00E94823488E69BE060E170E00E942B
:10211000B448892B19F460E570E07EC060916C0BC7
:1021200070916D0B7093A5016093A40188EA97E00C
:1021300040E150E00E94853480918F01883081F425
:10214000B601600F711F8091A4019091A50140E13B
:1021500050E00E946F94009719F082E080938F0105
:10216000F601E00FF11F31972081332727FD3095CD
:10217000200F311FF601E20FF31F8181482F5527F1
:1021800047FD50958081992787FD9095982F882746
:10219000480F591F2E5F3F4FC401821B930B8417BA
:1021A000950790F140FF1FC02FC082818823B1F4B2
:1021B0008381883A99F4240F351FF601E20FF31F4B
:1021C0008081482F552747FD509508948108910834
:1021D000821A930A8416950680F416C04250504025
:1021E0002E5F3F4F329642305105F8F610C0818184
:1021F0003196882379F04150504041155105B9F787
:1022000006C06FE270E008C062E370E005C068E2FB
:1022100070E002C061E070E0162F80918F0188307D
:1022200071F4613061F4D601EDECF5E012968C9119
:1022300012978193119695E0ED3EF907B9F78091D9
:102240008F018430C9F51130B9F5F6016181772726
:1022500067FD70958081992787FD9095982F882735
:10226000680F791F7093A3016093A20188E69BE039
:102270000E94B448892B09F4B7C580916C0B9091EA
:102280006D0B9093A5018093A40120E00CC0E09118
:10229000A401F091A501EA0FFB1FAC0DBD1D129624
:1022A0008C9180832F5FA22FB0E08091A20190914A
:1022B000A301A817B90758F380918F01863009F060
:1022C000B6C0113009F0C4C580910A0B8093050691
:1022D00080910B0B8093060680910C0B8093070670
:1022E00080910D0B8093080680919A0590919B0533
:1022F00090930A0680930906909312068093110624
:10230000ABE08A2EA6E09A2EF3E1AF2EF6E0BF2EC8
:10231000EE24FF2420919C0530919D0540919E055F
:1023200050919F056091A0057091A1058091A20533
:102330009091A3050E2D0E94CF8DF40121934F01A2
:1023400020919C0530919D0540919E0550919F05DF
:102350006091A0057091A1058091A2059091A305BF
:102360000E94CF8DF50121935F0188E090E0E80E97
:10237000F91E90E3E916F10469F686E180931906E7
:102380008EEF80931A068DEF80931B0610921C0629
:1023900088E180931D0682E69BE068E170E00E9480
:1023A000B448892B09F420C5A090660BB090670B48
:1023B000E8E0F0E0CE0EDF1EC50160E070E04AEF1D
:1023C0005AE025E036E08601E0E2EE2EF12CB1E1A4
:1023D000CB2EB6E0DB2E0E94673E892B39F482E6D5
:1023E0009BE00E94794882E064E134C5DE011196E9
:1023F000E8E5F6E088EA01900D928150E1F7CE0120
:10240000019666E276E00E94E132C5010E94C40BAB
:10241000813009F00DC588E596E0B50148E150E04E
:102420000E948C3382E69BE00E94794803C0113001
:1024300009F00EC580918F01853009F4C3C1863043
:1024400038F4823069F0843011F00C94DD1A96C1B2
:10245000863009F4BAC1883011F00C94DD1A8CC0B2
:1024600082E69BE06CE270E00E94B448892B09F49C
:10247000D7C78091660B9091670B9093870B8093E1
:10248000860B6091A4017091A501E0908E05F090FB
:102490008F05009190051091910520919205309142
:1024A00093054091940550919505C0908B05D0906F
:1024B0008C05A0908705B09088050E94E328809144
:1024C000860B9091870B6CE270E00E94400980912E
:1024D0008E0520918F053091900540919105609176
:1024E0009205E0919305A091940510919505B82F60
:1024F000BF5F91E0B81708F090E0F92FF20F81E08C
:10250000F21708F080E0782F730F81E0731708F05E
:1025100080E0582F540F81E0541708F080E0382FE6
:10252000360F81E0361708F080E0282F2E0F81E06B
:102530002E1708F080E0982F9A0F81E09A1708F084
:1025400080E0810FB0938E05F0938F057093900516
:1025500050939105309392052093930590939405A1
:102560008093950582E69BE00E94794888E69BE08F
:102570000E94794888E0E6C782E69BE068E570E063
:102580000E94B448892B09F44BC78091660B909147
:10259000670B9093870B8093860B00918E051091AB
:1025A0008F052091900530919105409192055091B1
:1025B00093056091940570919505E0908B05F090DE
:1025C0008C05C0908705D09088050E94452F80918A
:1025D0008E0520918F053091900540919105609175
:1025E0009205E0919305A091940510919505B82F5F
:1025F000BF5F91E0B81708F090E0F92FF20F81E08B
:10260000F21708F080E0782F730F81E0731708F05D
:1026100080E0582F540F81E0541708F080E0382FE5
:10262000360F81E0361708F080E0282F2E0F81E06A
:102630002E1708F080E0982F9A0F81E09A1708F083
:1026400080E0810FB0938E05F0938F057093900515
:1026500050939105309392052093930590939405A0
:10266000809395052BE130E0F901EE56FA4F609129
:10267000860B7091870BDB01A20FB31F8C918083B7
:102680002F5F3F4F2B33310579F7635F7F4F88E52D
:1026900096E042E350E00E948C336091860B70918B
:1026A000870B645B7F4F88E596E04CE050E00E942A
:1026B0008C3384E080938F01E091860BF091870B3F
:1026C00082E085878091860B9091870B68E570E0AA
:1026D0000E94400980918E0520918F0530919005D0
:1026E0004091910560919205E0919305A091940528
:1026F00010919505B82FBF5F91E0B81708F090E0F2
:10270000F92FF20F81E0F21708F080E0782F730FB5
:1027100081E0731708F080E0582F540F81E05417C0
:1027200008F080E0382F360F81E0361708F080E09F
:10273000282F2E0F81E02E1708F080E0982F9A0F97
:1027400081E09A1708F080E0810FB0938E05F09336
:102750008F057093900550939105309392052093C7
:102760009305909394058093950582E69BE00E94E3
:10277000794888E69BE00E9479481FC788E69BE07D
:102780000E94794806EA11E0F80101900020E9F77B
:10279000E55AF140EE0FFF1F82E69BE0BF010E9469
:1027A000B448892B09F43CC68091660B9091670B65
:1027B0009093C90A8093C80AB8010E94920B0E94A4
:1027C000900CB9C60E94C90DBCC682E69BE063E4CA
:1027D00070E00E94B448892B09F422C68091660BF0
:1027E0009091670B9093870B8093860B00918E05D9
:1027F00010918F052091900530919105409192059F
:10280000509193056091940570919505E0908B052A
:10281000F0908C050E94892980918E0520918F056A
:10282000309190054091910560919205E09193055A
:10283000A091940510919505B82FBF5F91E0B8174E
:1028400008F090E0F92FF20F81E0F21708F080E035
:10285000782F730F81E0731708F080E0582F540F22
:1028600081E0541708F080E0382F360F81E03617EA
:1028700008F080E0282F2E0F81E02E1708F080E06E
:10288000982F9A0F81E09A1708F080E0810FB0939B
:10289000A505F093A6057093A7055093A80530935E
:1028A000A9052093AA059093AB058093AC05809170
:1028B0008B0590918C05019690938C0580938B05E8
:1028C00010928E0510928F0510929005109291052E
:1028D000109292051092930510929405109295050E
:1028E00088E596E066E276E00E94E13284E180933A
:1028F000ED051092EE051092EF052CE02093F00507
:10290000809187059091880501969093F1058091BB
:1029100087058F5F8093F2051092F3051092F405FE
:102920001092F5051092F6051092F7052093F80520
:1029300000D000D08CE090E0A0E0B0E0EDB7FEB7B2
:1029400081839283A383B48389EF95E06AEC7AE074
:1029500020E330E040E050E002E411E0E6E2EE2E59
:10296000E6E0FE2EB0E2AB2EB12CC12CD12C0E94A1
:102970000C2B80911E0B8093050680911F0B80937A
:1029800006068091200B809307068091210B80938F
:10299000080680918B0590918C0590930A06809390
:1029A00009069093120680931106ABE0AA2EA6E0CA
:1029B000BA2EF3E1CF2EF6E0DF2EEE24FF240F90A7
:1029C0000F900F900F9020918E0530918F054091C0
:1029D00090055091910560919205709193058091B9
:1029E0009405909195050E2D0E94CF8DF5012193B0
:1029F0005F0120918E0530918F0540919005509197
:102A00009105609192057091930580919405909144
:102A100095050E94CF8DF60121936F0188E090E02B
:102A2000E80EF91E90E3E916F10469F686E1809359
:102A300019068EEF80931A068DEF80931B06109275
:102A40001C0688E180931D068091860B9091870B70
:102A500063E270E04EE05BE025E036E00DEE15E06D
:102A6000E8E1EE2EF12CB1E1CB2EB6E0DB2E0E9498
:102A70007E42892B09F4D0C48091860B9091870BFC
:102A800000918E0510918F05209190053091910550
:102A90004091920550919305609194057091950530
:102AA000E0908B05F0908C050E960E94AA298091EB
:102AB000860B9091870B63E470E00E94400980913F
:102AC0008E0520918F053091900540919105609180
:102AD0009205E0919305A091940510919505B82F6A
:102AE000BF5F91E0B81708F090E0F92FF20F81E096
:102AF000F21708F080E0782F730F81E0731708F069
:102B000080E0582F540F81E0541708F080E0382FF0
:102B1000360F81E0361708F080E0282F2E0F81E075
:102B20002E1708F080E0982F9A0F81E09A1708F08E
:102B300080E0810FB0938E05F0938F057093900520
:102B400050939105309392052093930590939405AB
:102B50008093950582E69BE00E94794887E0809308
:102B60008F01E0914E06F0914F068AE09BE095833D
:102B700084838EE19BE0978386838AEF9AE091833A
:102B800080838EE09BE093838283A0915006B09176
:102B900051061196FC93EE93809152069091530644
:102BA00013969C938E9312970E949846682F809359
:102BB000CE2681E08093D226409150065091510656
:102BC00080E090E00E94F347F8C44330C1F14930FF
:102BD00021F0413009F03FC013C0F60180818E3FE3
:102BE000A1F581818F3F11F08D3F79F5F60182814A
:102BF000992787FD909503968816990631F52BC085
:102C0000F60180818E3F09F581818F3F11F08D3F64
:102C1000E1F4F60182A1282F332727FD3095E20F3A
:102C2000F31F83A18823A1F4F901B496EC0DFD1DD7
:102C30008081883A69F48181882351F40CC0611540
:102C4000710549F062E370E008C06FE270E005C012
:102C500068E270E002C061E070E0162F413091F44C
:102C6000613081F4D601EDEAF5E012968C9112976D
:102C70008193119685E0ED3CF807B9F788E69BE073
:102C80000E94794880918F018930B9F51130A9F5FA
:102C9000F6018281682F772767FD70957093A301F5
:102CA0006093A2016115710541F188E69BE00E94E5
:102CB000B448892B19F420E530E081C480916C0B75
:102CC00090916D0B9093A5018093A40120E00CC01E
:102CD000E091A401F091A501EA0FFB1FAC0DBD1D11
:102CE00013968C9180832F5FA22FB0E08091A20178
:102CF0009091A301A817B90758F380918F018630EE
:102D000009F0A4C0113009F0A3C080911E0B80937C
:102D1000050680911F0B809306068091200B8093FF
:102D200007068091210B8093080680919A05909167
:102D30009B0590930A068093090690931206809350
:102D40001106ABE08A2EA6E09A2EF3E1AF2EF6E054
:102D5000BF2EEE24FF2420919C0530919D054091CB
:102D60009E0550919F056091A0057091A1058091ED
:102D7000A2059091A3050E2D0E94CF8DF401219301
:102D80004F0120919C0530919D0540919E055091E9
:102D90009F056091A0057091A1058091A205909179
:102DA000A3050E94CF8DF50121935F0188E090E09B
:102DB000E80EF91E90E3E916F10469F686E18093C6
:102DC00019068EEF80931A068DEF80931B061092E2
:102DD0001C0688E180931D0682E69BE068E170E0B6
:102DE0000E94B448892B19F482E060E533C0A090BA
:102DF000660BB090670BE8E0F0E0CE0EDF1EC50179
:102E000060E070E04EE05BE025E036E08601E0E265
:102E1000EE2EF12CB1E1CB2EB6E0DB2E0E94673E08
:102E2000892B09F4DCCAC5010E94C40B813049F02A
:102E300082E068E20E94530982E69BE00E947948A2
:102E40000BC082E69BE00E94794809C0113039F03E
:102E500082E0612F0E94530920E030E0B0C38091EE
:102E60008F01853009F46DC3863038F4813009F460
:102E7000B5C0833009F0A1C3D8C0863009F465C35A
:102E8000893009F09AC36091A2017091A3016D5B32
:102E90007F4F82E69BE00E94B448892B09F4C0C2B0
:102EA0008091660B9091670B9093870B8093860BB4
:102EB00000D04091A4015091A501A0908E05B09042
:102EC0008F05C0909005D0909105E0909205F0900C
:102ED0009305009194051091950580908B05909035
:102EE0008C052091870530918805EDB7FEB73283B8
:102EF00021836DEC75E02091A2010E94F42D0F90CA
:102F00000F906091860B7091870B635F7F4F4091AC
:102F1000A2015091A3014A5C5F4F88E596E00E94B0
:102F20008C336091A2017091A3016D5B7F4F809102
:102F3000860B9091870B0E94400980918E0520910D
:102F40008F05309190054091910560919205E09137
:102F50009305A091940510919505B82FBF5F91E05E
:102F6000B81708F090E0F92FF20F81E0F21708F09F
:102F700080E0782F730F81E0731708F080E0582FFE
:102F8000540F81E0541708F080E0382F360F81E0AD
:102F9000361708F080E0282F2E0F81E02E1708F05A
:102FA00080E0982F9A0F81E09A1708F080E0810F57
:102FB000B0938E05F0938F05709390055093910513
:102FC00030939205209393059093940580939505F3
:102FD00082E69BE00E94794881E0B4C206EA11E0F3
:102FE000F80101900020E9F7E55AF140EE0FFF1FCC
:102FF00082E69BE0BF010E94B448892B09F410C20D
:103000008091660B9091670B9093C90A8093C80AD0
:10301000B8010E94920B0E94900C0E94C90D82E69A
:103020009BE00E94794883E08DC28EE691E0909308
:10303000A5018093A40188E090E09093A301809380
:10304000A20182E69BE066E670E00E94B448892B0C
:1030500009F4E6C18091660B9091670B9093870B02
:103060008093860B6091A4017091A5014091A2010B
:103070005091A301C0908E05D0908F05E0909005EF
:10308000F09091050091920510919305209194057F
:1030900030919505A0908B05B0908C0580908705A8
:1030A000909088050E94292980918E0520918F0596
:1030B000309190054091910560919205E0919305C2
:1030C000A091940510919505B82FBF5F91E0B817B6
:1030D00008F090E0F92FF20F81E0F21708F080E09D
:1030E000782F730F81E0731708F080E0582F540F8A
:1030F00081E0541708F080E0382F360F81E0361752
:1031000008F080E0282F2E0F81E02E1708F080E0D5
:10311000982F9A0F81E09A1708F080E0810FB09302
:103120008E05F0938F057093900550939105309321
:103130009205209393059093940580939505609153
:10314000860B7091870B635F7F4F4091A201509176
:10315000A301425F5F4F88E596E00E948C33E091C7
:10316000A201F091A3017B968091860B9091870B31
:1031700000918E0510918F05209190053091910559
:103180004091920550919305609194057091950539
:10319000E0908B05F0908C058E0F9F1F0E9489296F
:1031A00080918E0520918F05309190054091910579
:1031B00060919205E0919305A09194051091950579
:1031C000B82FBF5F91E0B81708F090E0F92FF20F29
:1031D00081E0F21708F080E0782F730F81E0731719
:1031E00008F080E0582F540F81E0541708F080E079
:1031F000382F360F81E0361708F080E0282F2E0F89
:1032000081E02E1708F080E0982F9A0F81E09A173E
:1032100008F080E0810FB093A505F093A6057093A8
:10322000A7055093A8053093A9052093AA0590936C
:10323000AB058093AC0580918B0590918C05019630
:1032400090938C0580938B0510928E0510928F05BC
:10325000109290051092910510929205109293058C
:103260001092940510929505A0E0B7E0E8E5F6E02D
:1032700088EA01900D928150E1F788E596E066E2D8
:1032800076E00E94E13284E18093ED051092EE0534
:103290001092EF052CE02093F00580918705909126
:1032A000880501969093F105809187058F5F809343
:1032B000F2051092F3051092F4051092F5051092A4
:1032C000F6051092F7052093F80500D000D08CE0A9
:1032D00090E0A0E0B0E0EDB7FEB781839283A383D6
:1032E000B48389EF95E06AEC7AE020E330E040E0D7
:1032F00050E002E311E0F6E2EF2EF6E0FF2EE0E20E
:10330000AE2EB12CC12CD12C0E940C2B80910A0B1B
:103310008093050680910B0B8093060680910C0B21
:103320008093070680910D0B8093080680918B0592
:1033300090918C0590930A0680930906909312064B
:10334000809311060BE0A02E06E0B02E13E1C12EF3
:1033500016E0D12EEE24FF240F900F900F900F90C7
:1033600020918E0530918F054091900550919105E7
:1033700060919205709193058091940590919505C7
:103380000E2D0E94CF8DF50121935F0120918E05B6
:1033900030918F0540919005509191056091920573
:1033A0007091930580919405909195050E94CF8D21
:1033B000F60121936F0188E090E0E80EF91E90E39A
:1033C000E916F10469F686E1809319068EEF809381
:1033D0001A068DEF80931B0610921C0688E18093DD
:1033E0001D066091A2017091A301625C7F4F8091E4
:1033F000860B9091870B4AEF5AE025E036E00DEE00
:1034000015E0B8E1EB2EF12CA1E1CA2EA6E0DA2EF0
:103410000E947E42892B49F482E69BE00E94794813
:1034200082E060E50E945309C8C080E097E06DEE3D
:1034300075E048E150E00E948C3380E097E066E25E
:1034400076E00E94E132E091A201F091A301B996E9
:103450008091860B9091870B00918E0510918F05BE
:1034600020919005309191054091920550919305DE
:103470006091940570919505E0908B05F0908C0516
:103480008E0F9F1F0E94AA296091A2017091A30133
:10349000625A7F4F8091860B9091870B0E94400962
:1034A00080918E0520918F05309190054091910576
:1034B00060919205E0919305A09194051091950576
:1034C000B82FBF5F91E0B81708F090E0F92FF20F26
:1034D00081E0F21708F080E0782F730F81E0731716
:1034E00008F080E0582F540F81E0541708F080E076
:1034F000382F360F81E0361708F080E0282F2E0F86
:1035000081E02E1708F080E0982F9A0F81E09A173B
:1035100008F080E0810FB0938E05F0938F057093D3
:1035200090055093910530939205209393059093C5
:1035300094058093950582E69BE00E94794885E09A
:1035400001C086E080938F0138C0E0914E06F09173
:103550004F068AE09BE0958384838EE19BE097830E
:1035600086838AEF9AE0918380838EE09BE0938349
:103570008283A0915006B09151061196FC93EE9370
:10358000809152069091530613969C938E931297B6
:103590000E949846682F8093CE2611E01093D22681
:1035A000409150065091510680E090E00E94F34710
:1035B00087E080938F011093960521E030E0C901E8
:1035C000C855DF4F0FB6F894DEBF0FBECDBFCF9109
:1035D000DF911F910F91FF90EF90DF90CF90BF9000
:1035E000AF909F908F907F906F900895AF92BF9211
:1035F000CF92DF92EF92FF920F931F93DF93CF93BF
:10360000CDB7DEB768970FB6F894DEBF0FBECDBF5B
:103610006C015B0180918605882309F003C28091CB
:1036200097058823D9F01092970586E496E00E94CA
:10363000774AD60111968C91882319F481E060E0D5
:103640005EC080919905882329F08091A40581505E
:103650008093A40581E080938605E4C1809199055B
:10366000882371F480919605882351F0F6018081BA
:10367000882331F46C30710519F40E94260AD2C1F6
:1036800090918F01892F8550833060F4C601B50178
:103690000E94270F019709F0C5C186E496E00E94B9
:1036A000774AC0C1923019F4D6018C9112C094307F
:1036B00029F4F60180818031E1F424C0993029F4A5
:1036C000D6018C91833061F41DC0983029F4F60145
:1036D0008081813071F416C0913029F4D6018C912B
:1036E000823039F40FC0933069F4F60180818E3056
:1036F00049F060919805662309F494C182E00E9424
:10370000530990C186E496E00E94774A809198051B
:10371000882311F01092980580918F01823079F002
:1037200080918D05813059F48091870590918805AD
:103730000196909388058093870510928D05D60198
:103740008C91823019F481E080938F0119821A8262
:103750001B821C82FE013196D6011B968C911B9711
:1037600089831A968C911A97818319968C9119974F
:1037700082831D821E821F821886FE01359618964E
:103780008C9118978D8317968C9117978183169635
:103790008C911697828319861A861B861C86FE01D9
:1037A000399613968C911397898712968C9112975C
:1037B000818311968C91828380919201882311F4E8
:1037C00060E0A7C049855A856B857C8589819A818F
:1037D000AB81BC8184179507A607B70708F048C0DE
:1037E0008EE69BE0BA010E94B448892B19F482E06E
:1037F00060E585CF8091720B9091730B9093870B4E
:103800008093860B60E012C0A62FB0E0E091860B9B
:10381000F091870BEA0FFB1F8D819E81E80FF91F46
:10382000AC0DBD1D1C968C9180836F5F29813A8100
:103830004B815C81862F90E0A0E0B0E08217930777
:10384000A407B50708F310929201B5016C507040BF
:10385000CB01AA2797FDA095BA2F281739074A0749
:103860005B0708F0DFC0C9010C96621B730BD6C062
:1038700080918F01823059F0893049F0853039F0DC
:10388000445F5F4F88E596E0B6010E948C336985FE
:103890007A85C6010C960E94270F019709F0C2C0D5
:1038A0008091890590918A05019690938A0580936D
:1038B000890529853A854B855C85E4EFFFEFAE0EDF
:1038C000BF1EC501AA2797FDA095BA2F6CE070E036
:1038D000A60EB71E281739074A075B0708F0A2C0D3
:1038E000C9010C9664EF7FEF621B730B95C0A62F86
:1038F000B0E0E091860BF091870BEA0FFB1F8D8102
:103900009E81E80FF91FAC0DBD1D1C968C91808324
:103910006F5F29813A814B815C81862F90E0A0E026
:10392000B0E082179307A407B50708F38D819E8145
:10393000AF81B885280F391F4A1F5B1F89859A857B
:10394000AB85BC85281739074A075B0709F06AC0B1
:1039500020E030E0BE01635F7F4FFB01E20FF31F09
:10396000D601A20FB31F8C9180832F5F3F4F2C3065
:10397000310599F71D8A1C8A1B8AD60111968C91F4
:1039800011978E8B12968C9112978F8B13968C9128
:10399000888F88E596E04CE050E00E948C3360917F
:1039A000860B7091870B49855A8588E596E00E94C1
:1039B0008C3369857A858091860B9091870B0E9464
:1039C000270F019779F58091890590918A050196D5
:1039D00090938A05809389058EE69BE00E94794842
:1039E000E980FA800B811C819501442737FD4095C1
:1039F000542FD801C7010C96A11DB11D8217930742
:103A0000A407B50778F481E080939201C7010C9672
:103A100064EF7FEF6E197F096A0D7B1D8C0D9D1D74
:103A20000E94F61A68960FB6F894DEBF0FBECDBF9F
:103A3000CF91DF911F910F91FF90EF90DF90CF908A
:103A4000BF90AF9008955F926F927F928F929F92F6
:103A5000AF92BF92CF92DF92EF92FF920F931F939C
:103A6000CF93DF9380918F01823069F0833020F40F
:103A7000813009F02BC20FC1843009F455C189305F
:103A800009F024C279C082E69BE069E170E00E94FF
:103A9000B448892B09F4A6C58091660B9091670BF9
:103AA0009093870B8093860B00918E0510918F0564
:103AB0002091900530919105409192055091930588
:103AC0006091940570919505E0908B05F0908C05C0
:103AD0000E94BC2880918E0520918F053091900521
:103AE0004091910560919205E0919305A091940514
:103AF00010919505B82FBF5F91E0B81708F090E0DE
:103B0000F92FF20F81E0F21708F080E0782F730FA1
:103B100081E0731708F080E0582F540F81E05417AC
:103B200008F080E0382F360F81E0361708F080E08B
:103B3000282F2E0F81E02E1708F080E0982F9A0F83
:103B400081E09A1708F080E0810FB0938E05F09322
:103B50008F057093900550939105309392052093B3
:103B6000930590939405809395058091860B909191
:103B7000870B69E170E08CC082E69BE063E470E053
:103B80000E94B448892B29F482E060E50E94530921
:103B90009DC18091660B9091670B9093870B8093EA
:103BA000860B00D0A0908E05B0908F05C090900538
:103BB000D0909105E0909205F090930500919405C6
:103BC0001091950580908B0590908C05209187052C
:103BD00030918805EDB7FEB7328321836DEC75E037
:103BE00040E050E020E00E94F42D80918E0520916D
:103BF0008F05309190054091910560919205E0917B
:103C00009305A091940510919505B82FBF5F91E0A1
:103C10000F900F90B81708F090E0F92FF20F81E0A5
:103C2000F21708F080E0782F730F81E0731708F027
:103C300080E0582F540F81E0541708F080E0382FAF
:103C4000360F81E0361708F080E0282F2E0F81E034
:103C50002E1708F080E0982F9A0F81E09A1708F04D
:103C600080E0810FB0938E05F0938F0570939005DF
:103C7000509391053093920520939305909394056A
:103C8000809395058091860B9091870B63E470E09B
:103C90000E94400917C16091A2017091A3016D5B60
:103CA0007F4F82E69BE00E94B448892B09F49AC4B6
:103CB0008091660B9091670B9093870B8093860B96
:103CC00000D04091A4015091A501A0908E05B09024
:103CD0008F05C0909005D0909105E0909205F090EE
:103CE0009305009194051091950580908B05909017
:103CF0008C052091870530918805EDB7FEB732839A
:103D000021836DEC75E02091A2010E94F42D0F90AB
:103D10000F906091A2017091A3016D5B7F4F809124
:103D2000860B9091870B81C082E69BE068E570E08E
:103D30000E94B448892B09F455C48091660B909178
:103D4000670B9093870B8093860BE0908E05F09025
:103D50008F05009190051091910520919205309169
:103D600093054091940550919505C0908B05D09096
:103D70008C05A0908705B09088056DEA75E00E94DB
:103D8000322F80918E0520918F05309190054091C2
:103D9000910560919205E0919305A0919405109191
:103DA0009505B82FBF5F91E0B81708F090E0F92FA4
:103DB000F20F81E0F21708F080E0782F730F81E0B6
:103DC000731708F080E0582F540F81E0541708F063
:103DD00080E0382F360F81E0361708F080E0282F7A
:103DE0002E0F81E02E1708F080E0982F9A0F81E0C7
:103DF0009A1708F080E0810FB0938E05F0938F053D
:103E000070939005509391053093920520939305FC
:103E10009093940580939505E091860BF091870B24
:103E200082E08587CF0168E570E00E9440098091BB
:103E30008E0520918F0530919005409191056091FC
:103E40009205E0919305A091940510919505B82FE6
:103E5000BF5F91E0B81708F090E0F92FF20F81E012
:103E6000F21708F080E0782F730F81E0731708F0E5
:103E700080E0582F540F81E0541708F080E0382F6D
:103E8000360F81E0361708F080E0282F2E0F81E0F2
:103E90002E1708F080E0982F9A0F81E09A1708F00B
:103EA00080E0810FB0938E05F0938F05709390059D
:103EB0005093910530939205209393059093940528
:103EC0008093950582E69BE00E9479488091990550
:103ED00090918F01882309F033C2953009F0F9C31E
:103EE00080918B0590918C05019790938C05809320
:103EF0008B056091A2017091A301625A7F4F82E607
:103F00009BE00E94B448892B09F46CC38091660B36
:103F10009091670B9093870B8093860B6091A4011F
:103F20007091A5014091A2015091A301C090A505F7
:103F3000D090A605E090A705F090A8050091A905EE
:103F40001091AA052091AB053091AC05A0908B058E
:103F5000B0908C0580908705909088050E94292953
:103F60008091A5059091A6054091A7055091A805BF
:103F70006091A9057091AA05A091AB05B091AC051F
:103F8000082F0F5F11E0081708F010E0190F21E06B
:103F9000191708F020E0F22FF40F31E0F41708F0C1
:103FA00030E0E32FE50F41E0E51708F040E0460F71
:103FB00051E0461708F050E0570F61E0571708F03E
:103FC00060E06A0F71E06A1708F070E07B0F009301
:103FD000A5051093A605F093A705E093A8054093C7
:103FE000A9055093AA056093AB057093AC05209189
:103FF000A2013091A301255E3F4F8091860B9091E5
:10400000870BE0908B05F0908C05820F931F2F2F6C
:104010003E2F0E9489298091A5052091A605309107
:10402000A7054091A8056091A905E091AA05A09176
:10403000AB051091AC05B82FBF5F91E0B81708F041
:1040400090E0F92FF20F81E0F21708F080E0782F6E
:10405000730F81E0731708F080E0582F540F81E050
:10406000541708F080E0382F360F81E0361708F03B
:1040700080E0282F2E0F81E02E1708F080E0982F87
:104080009A0F81E09A1708F080E0810FB093A505A0
:10409000F093A6057093A7055093A8053093A90542
:1040A0002093AA059093AB058093AC0580918B0576
:1040B00090918C05019690938C0580938B0584E1FB
:1040C0008093ED051092EE051092EF052CE0209301
:1040D000F00590918705809188058093F105909374
:1040E000F2051092F3051092F4051092F505109266
:1040F000F6051092F7052093F80588E596E066E24C
:1041000076E00E94E13200D000D08CE090E0A0E0A8
:10411000B0E0EDB7FEB781839283A383B48389EFC8
:1041200095E06AEC7AE020E330E040E050E002E322
:1041300011E0F6E2EF2EF6E0FF2EE0E2AE2EB12C1B
:10414000C12CD12C0E940C2B80910A0B8093050668
:1041500080910B0B8093060680910C0B80930706D1
:1041600080910D0B8093080680918B0590918C05B2
:1041700090930A0680930906909312068093110685
:1041800050908E0560908F057090900580909105FD
:1041900090909205A0909305B0909405109195058C
:1041A0008BE0C82E86E0D82E03E1E02E06E0F02E4C
:1041B000C0E0D0E00F900F900F900F90252D362D7E
:1041C000472D582D692D7A2D8B2D912F0C2F0E9464
:1041D000CF8DF60121936F01F70121937F0128967E
:1041E000C033D10559F786E1809319068EEF80938D
:1041F0001A068DEF80931B0610921C0688E18093AF
:104200001D066091A2017091A301625C7F4F8091B5
:10421000860B9091870B4AEF5AE025E036E00DEED1
:1042200015E0B8E1EB2EF12CA1E1CA2EA6E0DA2EC2
:104230000E947E42892B09F4D1C1E091A201F09144
:10424000A301B9968091860B9091870B00918E0502
:1042500010918F0520919005309191054091920524
:10426000509193056091940570919505E0908B05B0
:10427000F0908C058E0F9F1F0E94AA296091A201C9
:104280007091A301625A7F4F8091860B9091870BAA
:104290000E94400980918E0520918F0530919005F4
:1042A0004091910560919205E0919305A09194054C
:1042B00010919505B82FBF5F91E0B81708F090E016
:1042C000F92FF20F81E0F21708F080E0782F730FDA
:1042D00081E0731708F080E0582F540F81E05417E5
:1042E00008F080E0382F360F81E0361708F080E0C4
:1042F000282F2E0F81E02E1708F080E0982F9A0FBC
:1043000081E09A1708F080E0810FB0938E05F0935A
:104310008F057093900550939105309392052093EB
:104320009305909394058093950582E69BE00E9407
:10433000794880E097E066E276E00E94E132C9C108
:10434000973009F0C6C180918B0590918C0501973B
:1043500090938C0580938B0580919101882339F48B
:1043600082E69BE00E94794881E08093910182E699
:104370009BE063E470E00E94B448892B09F432C1E9
:104380008091660B9091670B9093870B8093860BBF
:104390000091A5051091A6052091A7053091A805CB
:1043A0004091A9055091AA056091AB057091AC05AB
:1043B000E0908B05F0908C050E9489298091A505DD
:1043C0002091A6053091A7054091A8056091A90507
:1043D000E091AA05A091AB051091AC05B82FBF5F85
:1043E00091E0B81708F090E0F92FF20F81E0F21792
:1043F00008F080E0782F730F81E0731708F080E0F9
:10440000582F540F81E0541708F080E0382F360FF2
:1044100081E0361708F080E0282F2E0F81E02E175C
:1044200008F080E0982F9A0F81E09A1708F080E05A
:10443000810FB093A505F093A6057093A70550933F
:10444000A8053093A9052093AA059093AB05809306
:10445000AC0580918B0590918C05019690938C050D
:1044600080938B0588E596E066E276E00E94E13273
:1044700084E18093ED051092EE051092EF052CE09B
:104480002093F0058091870590918805019690937F
:10449000F10501978F5F8093F2051092F30510925A
:1044A000F4051092F5051092F6051092F705209389
:1044B000F80500D000D08CE090E0A0E0B0E0EDB7CF
:1044C000FEB781839283A383B48389EF95E06AEC7E
:1044D0007AE020E330E040E050E002E411E0F6E270
:1044E000EF2EF6E0FF2EE0E2AE2EB12CC12CD12C47
:1044F0000E940C2B80911E0B8093050680911F0B50
:10450000809306068091200B809307068091210BF3
:104510008093080680918B0590918C0590930A06F4
:1045200080930906909312068093110650908E0591
:1045300060908F0570909005809091059090920505
:10454000A0909305B090940510919505BBE0CB2EFB
:10455000B6E0DB2EA3E1EA2EA6E0FA2EC0E0D0E022
:104560000F900F900F900F90252D362D472D582D21
:10457000692D7A2D8B2D912F0C2F0E94CF8DF60156
:1045800021936F01F70121937F012896C033D10554
:1045900059F786E1809319068EEF80931A068DEF06
:1045A00080931B0610921C0688E180931D06809163
:1045B000860B9091870B63E270E04EE05BE025E0B4
:1045C00036E00DEE15E0F8E1EF2EF12CE1E1CE2E14
:1045D000E6E0DE2E0E947E42892B49F482E69BE0D3
:1045E0000E94794882E060E50E94530972C0809180
:1045F000860B9091870B00918E0510918F0520916D
:1046000090053091910540919205509193056091EC
:10461000940570919505E0908B05F0908C050E96B1
:104620000E94AA298091860B9091870B63E470E029
:104630000E94400980918E0520918F053091900550
:104640004091910560919205E0919305A0919405A8
:1046500010919505B82FBF5F91E0B81708F090E072
:10466000F92FF20F81E0F21708F080E0782F730F36
:1046700081E0731708F080E0582F540F81E0541741
:1046800008F080E0382F360F81E0361708F080E020
:10469000282F2E0F81E02E1708F080E0982F9A0F18
:1046A00081E09A1708F080E0810FB0938E05F093B7
:1046B0008F05709390055093910530939205209348
:1046C0009305909394058093950582E69BE00E9464
:1046D0007948DF91CF911F910F91FF90EF90DF907C
:1046E000CF90BF90AF909F908F907F906F905F9092
:1046F00008956F927F928F929F92AF92BF92CF92C6
:10470000DF92EF92FF920F931F93CF93DF93282FA7
:10471000AB0180911E2D281709F0C6C08091990524
:10472000882339F08091540690915506622F0E949B
:10473000F3478091E72B81FFC3C0809199058823BF
:10474000B9F080915206909153069C01D901EFEE89
:10475000F6E280E101900D928150E1F7E09152067E
:10476000F091530680910F2790911027938B828BA5
:104770000091EC2B1091ED2BA090D726B090D8266D
:104780009924939482E0882EBAE96B2EB5E07B2EB3
:10479000ACE9CA2EA5E0DA2E20919905222369F012
:1047A00080918F01873049F480919605882329F400
:1047B000F8018081863109F481C0F801808185315A
:1047C00019F49092970539C090918F01953019F0A6
:1047D000973071F503C0843181F172C0873159F18E
:1047E000222331F1863109F06BC080928F0188E578
:1047F00096E00E94C03210928805109287051092B0
:104800008A051092890584E79BE00E94794880918F
:104810009101882321F482E69BE00E9479489092DE
:104820009101909290011092960510928D0505C00D
:10483000863119F045C090929605F80184818093E5
:104840009A058381F3018183F801828580939C0519
:104850008185F6018183F8018085F6018283F80164
:104860008781F6018383F8018681F6018483F8014C
:104870008581F6018583F801F384EE248485E701C0
:10488000C80FD11DC8010D96BE010E94F61AC501C0
:104890000D97C817D907A0F42D960C0F1D1F2D9743
:1048A0005C01AC1ABD0A78CF283851F48091990583
:1048B000882321F080918F01873011F00E94231D01
:1048C000DF91CF911F910F91FF90EF90DF90CF90EC
:1048D000BF90AF909F908F907F906F9008950F93AF
:1048E0001F93CF93DF93EC01FA01288139812115C1
:1048F000310529F0295C354009F06DC023C0809155
:10490000900B9091910B90935706809356060081DF
:10491000118180E090E060E070E040E050E00E94B3
:10492000F259FC019093530680935206108B018B31
:1049300088E596E00E94C03289EC95E099838883EF
:1049400081E04CC0862FBA010E94792390918605A0
:10495000913091F71092860582E080938F0110923A
:1049600088051092870510928A0510928905109289
:104970008C0510928B0510928D0510928E05109269
:104980008F05109290051092910510929205109249
:1049900093051092940510929505909391011092B1
:1049A000960510929705109298059093900188E5CE
:1049B00096E00E94C032E0915206F091530680E1E9
:1049C000DF011D928A95E9F7E0915206F0915306B6
:1049D000138A128AB1CF1982188283E0DF91CF91B6
:1049E0001F910F910895CF92DF92EF92FF920F9354
:1049F0001F93CF93DF93EC0188819981009729F071
:104A0000845B954009F0DAC0CDC08091900B909105
:104A1000910B9093570680935606FA017281638139
:104A20008081918140E050E00E94F25990935306BA
:104A30008093520610928C0510928B0510928E0571
:104A400010928F0510929005109291051092920588
:104A50001092930510929405109295051092880576
:104A60001092870510928A0510928905109296057A
:104A700088E596E00E94C03282E69BE063E470E045
:104A80000E94B448019709F099C08091660B9091FB
:104A9000670B9093870B8093860B00918E05109186
:104AA0008F0520919005309191054091920550918C
:104AB00093056091940570919505E0908B05F090B9
:104AC0008C05C0908705D09088050E941C2E80918F
:104AD0008E0520918F053091900540919105609150
:104AE0009205E0919305A091940510919505B82F3A
:104AF000BF5F91E0B81708F090E0F92FF20F81E066
:104B0000F21708F080E0782F730F81E0731708F038
:104B100080E0582F540F81E0541708F080E0382FC0
:104B2000360F81E0361708F080E0282F2E0F81E045
:104B30002E1708F080E0982F9A0F81E09A1708F05E
:104B400080E0810FB0938E05F0938F0570939005F0
:104B5000509391053093920520939305909394057B
:104B6000809395054091860B5091870BCA01DC011B
:104B7000EDECF5E05B968C915B978193119685E067
:104B8000ED3EF807B9F7CA0163E470E00E944009FE
:104B900082E69BE00E94794884EB95E099838883C4
:104BA00081E00FC080918605882319F01092860558
:104BB00005C0862FBA010E947923EECF1982188290
:104BC00083E0DF91CF911F910F91FF90EF90DF90E5
:104BD000CF9008953F924F925F926F927F928F9203
:104BE0009F92AF92BF92CF92DF92EF92FF920F937C
:104BF0001F93DF93CF9300D000D0CDB7DEB7FC0179
:104C00007A8369835A0180918F01873009F0A5C0AA
:104C100080918E058A30F9F480918F058823D9F42C
:104C2000809190058823B9F480919105882399F4A7
:104C300080919205882379F480919305882359F413
:104C400080919405882339F480919505882319F47F
:104C50000E94260A19C18281938190935306809302
:104C6000520690919905A5E0B6E020E030E0992346
:104C700021F0F901E25EF44F03C0F901E65FF44F61
:104C800080818C932F5F3F4F11962430310579F747
:104C900080918B0590918C0590930A06809309066C
:104CA000909312068093110630908E0540908F05E8
:104CB00050909005609091057090920580909305BA
:104CC0009090940510919505BBE0CB2EB6E0DB2EBD
:104CD000A3E1EA2EA6E0FA2E1C821B82232D342D9E
:104CE000452D562D672D782D892D912F0B810E94F2
:104CF000CF8DD6012D936D01F70121937F018B811B
:104D00009C8108969C838B83C09741F787E18093B1
:104D100019068EEF80931A068DEF80931B06A092E2
:104D20001C06B0921D0680919101882321F482E631
:104D30009BE00E94794810929101FDE18F2E912C09
:104D40008A0C9B1C82E69BE0B4010E94B448892B2C
:104D500039F482E060E50E9453092FEF3FEF96C0DF
:104D60006090660B7090670B80919905882331F0F5
:104D7000C30165E170E04EE05BE005C0C30165E1A1
:104D800070E04AEF5AE025E036E009811A817501AA
:104D9000E1E1CE2EE6E0DE2E0E947E42892B29F450
:104DA00082E69BE00E947948D4CFA0E1B0E0AA0E51
:104DB000BB1EE0908E05F0908F050091900510913C
:104DC0009105209192053091930540919405509161
:104DD0009505C0908B05D0908C05C301B5010E944C
:104DE0004D2A80918E0520918F053091900540913C
:104DF000910560919205E0919305A0919405109121
:104E00009505B82FBF5F91E0B81708F090E0F92F33
:104E1000F20F81E0F21708F080E0782F730F81E045
:104E2000731708F080E0582F540F81E0541708F0F2
:104E300080E0382F360F81E0361708F080E0282F09
:104E40002E0F81E02E1708F080E0982F9A0F81E056
:104E50009A1708F080E0810FB0938E05F0938F05CC
:104E6000709390055093910530939205209393058C
:104E70009093940580939505C301B4010E94400965
:104E800086E496E00E94774A20E030E0C9010F9066
:104E90000F900F900F90CF91DF911F910F91FF9086
:104EA000EF90DF90CF90BF90AF909F908F907F90CA
:104EB0006F905F904F903F900895DF93CF9300D015
:104EC000CDB7DEB79A8389836230D0F581E08093D5
:104ED000990582E080938F016093C7018AE79BE088
:104EE00068E070E00E94B448892B51F180917E0BFC
:104EF00090917F0B90934F0680934E0680E89BE045
:104F000064E070E00E94B448892BD1F08091840B5A
:104F10009091850B90935106809350068091900B51
:104F20009091910B909355068093540685E891E0FB
:104F3000BE016F5F7F4F0E94264820E030E002C034
:104F40002FEF3FEFC9010F900F90CF91DF910895A0
:104F5000DF93CF9300D000D0CDB7DEB71092990584
:104F600029E020938F019A8389837C836B838AE76E
:104F70009BE068E070E00E94B448892BF9F08091D2
:104F80007E0B90917F0B90934F0680934E0680E8A6
:104F90009BE064E070E00E94B448892B79F0809136
:104FA000840B9091850B909351068093500689E76E
:104FB00091E0BE016F5F7F4F0E9426480F900F90D7
:104FC0000F900F90CF91DF9108953F924F925F9293
:104FD0006F927F928F929F92AF92BF92CF92DF9209
:104FE000EF92FF920F931F93DC01702E622E532ECF
:104FF000442E352EFC0161938EEF11968C93DF01C8
:1050000011968DEF8183FD0131961196DC924F014F
:105010000894811C911CC18264010894C11CD11C9C
:105020009701402F512F662D752D842D932D08E269
:105030000E94CF8DF401218346010894811C911CAC
:105040009701472D512F662D752D842D932D00E24C
:105050000E94CF8DF601218364010894C11CD11CEC
:105060009701472D512F662D752D842D932D08E125
:105070000E94CF8DF401218346010894811C911C6C
:105080009701472D512F662D752D842D932D00E10D
:105090000E94CF8DF601218364010894C11CD11CAC
:1050A0009701472D512F662D752D842D932D08E0E6
:1050B0000E94CF8DF4012183D6011196F601E18281
:1050C000FD0131961196BC92A1823296CF011F91BB
:1050D0000F91FF90EF90DF90CF90BF90AF909F9097
:1050E0008F907F906F905F904F903F9008958F9238
:1050F0009F92AF92BF92CF92DF92EF92FF920F9367
:105100001F93DC01FC0161934901AA24BB24119681
:105110008C92DF011196C12ED22EE32EFF24C18284
:10512000FD01319611960C93DF0111965183FD011B
:10513000319611964C93DF0111961182FD01319643
:1051400011961C92DF0111961182CD0101961196E4
:105150008C92FC013196DC011196CC92018332963F
:10516000CF011F910F91FF90EF90DF90CF90BF90F4
:10517000AF909F908F900895AF92BF92CF92DF92A1
:10518000EF92FF920F931F93E62F670166E178017C
:1051900089019A014E2F572F7CE0A72EB12C0E9437
:1051A000E52760E040E050E000E010E020E030E083
:1051B0000E9477281F910F91FF90EF90DF90CF9082
:1051C000BF90AF9008956F927F928F929F92AF920F
:1051D000BF92CF92DF92EF92FF920F931F93CF93E4
:1051E000DF93762E672E450166E1EFE1AE2EB12CFE
:1051F0000E94E52763E0A40103E110E020E030E035
:105200000E947728DC01FC018EEF81938FEF1196CD
:105210008C93119780E18183272D362DC901EC01F4
:10522000FD019D01205F3F4F899183833196E217F5
:10523000F307D1F7DF91CF911F910F91FF90EF907E
:10524000DF90CF90BF90AF909F908F907F906F90A6
:1052500008952F923F924F925F927F928F929F92EA
:10526000AF92BF92CF92DF92EF92FF920F931F9374
:10527000DF93CF93CDB7DEB71B012A017C2DED2D37
:10528000FE2DAF2DB02F712EA90165012EE030E06B
:10529000420E531E66E1E72EFE2E0F2F1A2F2B2FE4
:1052A000372D52010E94E52744EF5FEF440E551E53
:1052B000820120E030E04EEF5FEF440E551E60E1CA
:1052C000A4010E947728FC0150824182DC0120E089
:1052D00030E009C0F101E20FF31F808111968C9339
:1052E00011972F5F3F4F11962415350598F3CF91F5
:1052F000DF911F910F91FF90EF90DF90CF90BF90C3
:10530000AF909F908F907F905F904F903F902F90A5
:105310000895AF92BF92CF92DF92EF92FF920F93D8
:105320001F93E62F670164E1780189019A014E2FEE
:10533000572FF1E0AF2EB12C0E94E527FC0181E050
:1053400080831F910F91FF90EF90DF90CF90BF90DF
:10535000AF9008952F923F924F925F926F927F92FB
:105360008F929F92AF92BF92CF92DF92EF92FF9275
:105370000F931F93DF93CF9300D0CDB7DEB7902E5E
:10538000712E622E532E442E352E262E7983EA82DC
:105390008F2C66E1E02EF12E022F132F242F352FB4
:1053A000422D572FCA80D82CA8E2AA2EB12C0E94D9
:1053B000E527FC01DC018D927D01BA81B183670193
:1053C0000894C11CD11C292D372D462D552D642D37
:1053D000732D822D998108E20E94CF8DF7012183E0
:1053E00076010894E11CF11C292D372D462D552DF1
:1053F000642D732D822D998100E20E94CF8DD601FC
:1054000011962C9367010894C11CD11C292D372DAE
:10541000462D552D642D732D822D998108E10E9412
:10542000CF8DF701218376010894E11CF11C292D11
:10543000372D462D552D642D732D822D998100E138
:105440000E94CF8DD60111962C93292D372D462DF4
:10545000552D642D732D822D998108E00E94CF8DEA
:10546000F70121830894E11CF11CD70111969C924D
:105470000F900F90CF91DF911F910F91FF90EF90C0
:10548000DF90CF90BF90AF909F908F907F906F9064
:105490005F904F903F902F9008952F923F924F92A0
:1054A0005F926F927F928F929F92AF92BF92CF92B4
:1054B000DF92EF92FF920F931F93DF93CF9300D071
:1054C000CDB7DEB75B019E2C7F2C602E512E422E75
:1054D000332E242E5983CA828D2C67E10E94E52742
:1054E000FC01DC018D927D01BA81B18367010894D2
:1054F000C11CD11C292D372D462D552D642D732D02
:10550000822D998108E20E94CF8DF70121837601D7
:105510000894E11CF11C292D372D462D552D642DA5
:10552000732D822D998100E20E94CF8DD6011196B4
:105530002C9367010894C11CD11C292D372D462DB1
:10554000552D642D732D822D998108E10E94CF8DF8
:10555000F701218376010894E11CF11C292D372DD8
:10556000462D552D642D732D822D998100E10E94C9
:10557000CF8DD60111962C93292D372D462D552DE3
:10558000642D732D822D998108E00E94CF8DF70143
:1055900021830894E11CF11CD70111969C920F9075
:1055A0000F90CF91DF911F910F91FF90EF90DF90BF
:1055B000CF90BF90AF909F908F907F906F905F90B3
:1055C0004F903F902F9008958F929F92AF92BF92ED
:1055D000CF92DF92EF92FF920F931F93A62FF701C6
:1055E0009C2C8A2C65E1780189019A014A2F572F5A
:1055F0006F01B2E0AB2EB12C0E94E527FC01908236
:1056000081821F910F91FF90EF90DF90CF90BF901C
:10561000AF909F908F9008952F923F924F925F92FC
:105620006F927F928F929F92AF92BF92CF92DF92B2
:10563000EF92FF920F931F93DF93CF93CDB7DEB717
:10564000CA53D3400FB6F894DEBF0FBECDBFC15DC5
:10565000DC4F8883CF52D340C05DDC4F9883C0536A
:10566000D340CF5CDC4F6883C153D340CE5CDC4F6A
:105670007883C253D340C55DDC4F288339834A8386
:105680005B83CB52D340302E212ECD5CDC4FE882A1
:10569000C353D340CC5CDC4FF882C453D3402501C4
:1056A0003601C15BDC4F88819981AA81BB81CF54CF
:1056B000D3408F719070A070B070C15BDC4F2881B7
:1056C00039814A815B81CF54D34015E05695479587
:1056D000379527951A95D1F70097A105B10519F4CB
:1056E000DA01C90105C0DA01C9010196A11DB11D88
:1056F0000396A11DB11DF5E0880F991FAA1FBB1FBE
:10570000FA95D1F78C01A32DB22DFD010190002057
:10571000E9F73197EA1BFB0BC75DDC4F59824882E2
:10572000C952D340E40DF51DE00FF11FCE010196E3
:10573000BF010E94B448892B09F46BC1CD80DE8083
:10574000A32DB22DFD0101900020E9F73197EA1B4E
:10575000FB0BC75DDC4FA881B981C952D340EA0F6A
:10576000FB1FE00FF11FC60160E070E0AF010E9477
:105770006894C114D10409F44CC1C55DDC4F888123
:105780009981CB52D340C95DDC4F99838883C7523E
:10579000D3408E01095F1F4FC801CF5CDC4F688189
:1057A000C153D340CE5CDC4F7881C253D340C55D3A
:1057B000DC4F48815981CB52D3400E94E234E32D23
:1057C000F22DDF010D900020E9F71197AE1BBF0B02
:1057D000C801632D722DAD010E948234C801CD5CD9
:1057E000DC4F6881C353D340CC5CDC4F7881C45319
:1057F000D340A2010E948234C801B60140E250E0C9
:105800000E948534882499245401D601A05CBF4F9E
:10581000CB5CDC4FB983A883C553D340C601805A03
:105820009F4FC95CDC4F99838883C753D340D6010F
:105830009096C75CDC4FB983A883C953D340C15B42
:10584000DC4F88819981AA81BB81CF54D3408816CF
:105850009906AA06BB0608F0B4C0CB5CDC4FA88151
:10586000B981C553D340F60180E201900D92815079
:10587000E1F7E32DF22DDF010D900020E9F71197FC
:10588000AE1BBF0BC95CDC4F8881C753D340C85CDB
:10589000DC4F9881C853D340632D722DAD010E9417
:1058A0004D94A32DB22DFD0101900020E9F7EA1BD4
:1058B000FB0BE15AFF4FEC0DFD1DCF01CD5CDC4F22
:1058C0006881C353D340CC5CDC4F7881C453D34050
:1058D000C75DDC4F4881C952D340C65DDC4F58815B
:1058E000CA52D3400E944D94E32DF22DDF010D905A
:1058F0000020E9F7AE1BBF0B5F96C75DDC4F8881C8
:105900009981C952D340A80FB91FCF5CDC4F888161
:10591000C153D340CE5CDC4F9881C253D340C95DA4
:10592000DC4F68817981C752D340CB5CDC4F488122
:105930005981C553D3409D01C75CDC4F0881198153
:10594000C953D340E0E2EE2EF12C0E949235CF5C99
:10595000DC4F8881C153D340CE5CDC4F9881C25369
:10596000D340C95DDC4F68817981C752D340A6011D
:1059700020E230E086010E949235E32DF22DDF0116
:105980000D900020E9F7AE1BBF0BA15ABF4FA40D2D
:10599000B51DA80DB91DAC0DBD1DC75CDC4FE88160
:1059A000F981C953D34080E201900D928150E1F713
:1059B00080E290E0A0E0B0E0880E991EAA1EBB1E17
:1059C0003ECFA32DB22DFD0101900020E9F7EA1B87
:1059D000FB0BE15AFF4FE40DF51DEC0DFD1DC15D04
:1059E000DC4F8881CF52D340C05DDC4F9881C053DB
:1059F000D340BF01C15BDC4F48815981CF54D340B4
:105A00000E944D94CE0101960E94794821E030E039
:105A100002C02FEF3FEFC901C65CDC4F0FB6F89410
:105A2000DEBF0FBECDBFCF91DF911F910F91FF90D1
:105A3000EF90DF90CF90BF90AF909F908F907F902E
:105A40006F905F904F903F902F9008953F924F92AC
:105A50005F926F927F928F929F92AF92BF92CF92FE
:105A6000DF92EF92FF920F931F93DF93CF9300D0BB
:105A7000CDB7DEB72B015A834983322E7C2DED2D15
:105A80009701A8016401632C7724A6E3B0E06A0EB5
:105A90007B1E66E17501072F1E2F53010E94E5272B
:105AA000E4EFFFEF6E0E7F1E882477FC8094982C25
:105AB00061E04E895F89940183010E9477286C011F
:105AC0008EEFD6018D938D018DEFF60181837D01DF
:105AD0000894E11CF11C41145104B1F50E940E6FB1
