:100000000C9491080C94B0080C94B0080C94B008AF
:100010000C94B0080C94B0080C94B0080C94B00880
:100020000C94B0080C946F6D0C94B0080C94B0084C
:100030000C94067A0C94B0080C94B0080C94EF79E8
:100040000C9445720C94B0080C94B0080C94B00851
:100050000C9493720C94B0080C9487720C94B008B2
:100060000C94B0080C94B0080C94B0080C94B00830
:100070000C94D1720C94B0080C94C5720C94B00816
:100080000C946C8B0C94B0080C94B008C6A56363F8
:10009000F8847C7CEE997777F68D7B7BFF0DF2F20E
:1000A000D6BD6B6BDEB16F6F9154C5C560503030FB
:1000B00002030101CEA96767567D2B2BE719FEFECF
:1000C000B562D7D74DE6ABABEC9A76768F45CACA08
:1000D0001F9D82828940C9C9FA877D7DEF15FAFA92
:1000E000B2EB59598EC94747FB0BF0F041ECADAD6F
:1000F000B367D4D45FFDA2A245EAAFAF23BF9C9CF7
:1001000053F7A4A4E49672729B5BC0C075C2B7B7E4
:10011000E11CFDFD3DAE93934C6A26266C5A3636A3
:100120007E413F3FF502F7F7834FCCCC685C343417
:1001300051F4A5A5D134E5E5F908F1F1E293717127
:10014000AB73D8D8625331312A3F1515080C04041B
:100150009552C7C7466523239D5EC3C33028181830
:1001600037A196960A0F05052FB59A9A0E0907072B
:10017000243612121B9B8080DF3DE2E2CD26EBEBA2
:100180004E6927277FCDB2B2EA9F7575121B090908
:100190001D9E838358742C2C342E1A1A362D1B1B4B
:1001A000DCB26E6EB4EE5A5A5BFBA0A0A4F65252BB
:1001B000764D3B3BB761D6D67DCEB3B3527B292972
:1001C000DD3EE3E35E712F2F13978484A6F553532E
:1001D000B968D1D100000000C12CEDED40602020B5
:1001E000E31FFCFC79C8B1B1B6ED5B5BD4BE6A6AB3
:1001F0008D46CBCB67D9BEBE724B393994DE4A4AA5
:1002000098D44C4CB0E85858854ACFCFBB6BD0D06F
:10021000C52AEFEF4FE5AAAAED16FBFB86C54343BF
:100220009AD74D4D66553333119485858ACF454510
:10023000E910F9F904060202FE817F7FA0F0505018
:1002400078443C3C25BA9F9F4BE3A8A8A2F35151A8
:100250005DFEA3A380C04040058A8F8F3FAD929280
:1002600021BC9D9D70483838F104F5F563DFBCBCB6
:1002700077C1B6B6AF75DADA4263212120301010AB
:10028000E51AFFFFFD0EF3F3BF6DD2D2814CCDCD49
:1002900018140C0C26351313C32FECECBEE15F5F72
:1002A00035A2979788CC44442E3917179357C4C466
:1002B00055F2A7A7FC827E7E7A473D3DC8AC6464B8
:1002C000BAE75D5D322B1919E6957373C0A06060C3
:1002D000199881819ED14F4FA37FDCDC4466222296
:1002E000547E2A2A3BAB90900B8388888CCA464662
:1002F000C729EEEE6BD3B8B8283C1414A779DEDE1C
:10030000BCE25E5E161D0B0BAD76DBDBDB3BE0E09B
:1003100064563232744E3A3A141E0A0A92DB494944
:100320000C0A0606486C2424B8E45C5C9F5DC2C2DB
:10033000BD6ED3D343EFACACC4A6626239A8919131
:1003400031A49595D337E4E4F28B7979D532E7E798
:100350008B43C8C86E593737DAB76D6D018C8D8DF8
:10036000B164D5D59CD24E4E49E0A9A9D8B46C6CE5
:10037000ACFA5656F307F4F4CF25EAEACAAF65653E
:10038000F48E7A7A47E9AEAE101808086FD5BABA7B
:10039000F08878784A6F25255C722E2E38241C1C34
:1003A00057F1A6A673C7B4B49751C6C6CB23E8E8E5
:1003B000A17CDDDDE89C74743E211F1F96DD4B4B54
:1003C00061DCBDBD0D868B8B0F858A8AE0907070D5
:1003D0007C423E3E71C4B5B5CCAA666690D848480A
:1003E00006050303F701F6F61C120E0EC2A36161A7
:1003F0006A5F3535AEF9575769D0B9B91791868616
:100400009958C1C13A271D1D27B99E9ED938E1E1EF
:10041000EB13F8F82BB3989822331111D2BB69690A
:10042000A970D9D907898E8E33A794942DB69B9B3A
:100430003C221E1E15928787C920E9E98749CECE46
:10044000AAFF555550782828A57ADFDF038F8C8CBA
:1004500059F8A1A1098089891A170D0D65DABFBF66
:10046000D731E6E684C64242D0B8686882C34141CB
:1004700029B099995A772D2D1E110F0F7BCBB0B053
:10048000A8FC54546DD6BBBB2C3A161663C6A563A4
:100490007CF8847C77EE99777BF68D7BF2FF0DF20A
:1004A0006BD6BD6B6FDEB16FC59154C530605030F7
:1004B0000102030167CEA9672B567D2BFEE719FECB
:1004C000D7B562D7AB4DE6AB76EC9A76CA8F45CA04
:1004D000821F9D82C98940C97DFA877DFAEF15FA8E
:1004E00059B2EB59478EC947F0FB0BF0AD41ECAD6B
:1004F000D4B367D4A25FFDA2AF45EAAF9C23BF9CF3
:10050000A453F7A472E49672C09B5BC0B775C2B7E0
:10051000FDE11CFD933DAE93264C6A26366C5A369F
:100520003F7E413FF7F502F7CC834FCC34685C3413
:10053000A551F4A5E5D134E5F1F908F171E2937123
:10054000D8AB73D831625331152A3F1504080C0417
:10055000C79552C723466523C39D5EC3183028182C
:100560009637A196050A0F059A2FB59A070E090727
:1005700012243612801B9B80E2DF3DE2EBCD26EB9E
:10058000274E6927B27FCDB275EA9F7509121B0904
:10059000831D9E832C58742C1A342E1A1B362D1B47
:1005A0006EDCB26E5AB4EE5AA05BFBA052A4F652B7
:1005B0003B764D3BD6B761D6B37DCEB329527B296E
:1005C000E3DD3EE32F5E712F8413978453A6F5532A
:1005D000D1B968D100000000EDC12CED20406020B1
:1005E000FCE31FFCB179C8B15BB6ED5B6AD4BE6AAF
:1005F000CB8D46CBBE67D9BE39724B394A94DE4AA1
:100600004C98D44C58B0E858CF854ACFD0BB6BD06B
:10061000EFC52AEFAA4FE5AAFBED16FB4386C543BB
:100620004D9AD74D3366553385119485458ACF450C
:10063000F9E910F9020406027FFE817F50A0F05014
:100640003C78443C9F25BA9FA84BE3A851A2F351A4
:10065000A35DFEA34080C0408F058A8F923FAD927C
:100660009D21BC9D38704838F5F104F5BC63DFBCB2
:10067000B677C1B6DAAF75DA2142632110203010A7
:10068000FFE51AFFF3FD0EF3D2BF6DD2CD814CCD45
:100690000C18140C13263513ECC32FEC5FBEE15F6E
:1006A0009735A2974488CC44172E3917C49357C462
:1006B000A755F2A77EFC827E3D7A473D64C8AC64B4
:1006C0005DBAE75D19322B1973E6957360C0A060BF
:1006D000811998814F9ED14FDCA37FDC2244662292
:1006E0002A547E2A903BAB90880B8388468CCA465E
:1006F000EEC729EEB86BD3B814283C14DEA779DE18
:100700005EBCE25E0B161D0BDBAD76DBE0DB3BE097
:10071000326456323A744E3A0A141E0A4992DB4940
:10072000060C0A0624486C245CB8E45CC29F5DC2D7
:10073000D3BD6ED3AC43EFAC62C4A6629139A8912D
:100740009531A495E4D337E479F28B79E7D532E794
:10075000C88B43C8376E59376DDAB76D8D018C8DF4
:10076000D5B164D54E9CD24EA949E0A96CD8B46CE1
:1007700056ACFA56F4F307F4EACF25EA65CAAF653A
:100780007AF48E7AAE47E9AE08101808BA6FD5BA77
:1007900078F08878254A6F252E5C722E1C38241C30
:1007A000A657F1A6B473C7B4C69751C6E8CB23E8E1
:1007B000DDA17CDD74E89C741F3E211F4B96DD4B50
:1007C000BD61DCBD8B0D868B8A0F858A70E09070D1
:1007D0003E7C423EB571C4B566CCAA664890D84806
:1007E00003060503F6F701F60E1C120E61C2A361A3
:1007F000356A5F3557AEF957B969D0B98617918612
:10080000C19958C11D3A271D9E27B99EE1D938E1EB
:10081000F8EB13F8982BB3981122331169D2BB6906
:10082000D9A970D98E07898E9433A7949B2DB69B36
:100830001E3C221E87159287E9C920E9CE8749CE42
:1008400055AAFF5528507828DFA57ADF8C038F8CB6
:10085000A159F8A1890980890D1A170DBF65DABF62
:10086000E6D731E64284C64268D0B8684182C341C7
:100870009929B0992D5A772D0F1E110FB07BCBB04F
:1008800054A8FC54BB6DD6BB162C3A166363C6A5A0
:100890007C7CF8847777EE997B7BF68DF2F2FF0D06
:1008A0006B6BD6BD6F6FDEB1C5C5915430306050F3
:1008B000010102036767CEA92B2B567DFEFEE719C7
:1008C000D7D7B562ABAB4DE67676EC9ACACA8F4500
:1008D00082821F9DC9C989407D7DFA87FAFAEF158A
:1008E0005959B2EB47478EC9F0F0FB0BADAD41EC67
:1008F000D4D4B367A2A25FFDAFAF45EA9C9C23BFEF
:10090000A4A453F77272E496C0C09B5BB7B775C2DC
:10091000FDFDE11C93933DAE26264C6A36366C5A9B
:100920003F3F7E41F7F7F502CCCC834F3434685C0F
:10093000A5A551F4E5E5D134F1F1F9087171E2931F
:10094000D8D8AB733131625315152A3F0404080C13
:10095000C7C7955223234665C3C39D5E1818302828
:10096000969637A105050A0F9A9A2FB507070E0923
:100970001212243680801B9BE2E2DF3DEBEBCD269A
:1009800027274E69B2B27FCD7575EA9F0909121B00
:1009900083831D9E2C2C58741A1A342E1B1B362D43
:1009A0006E6EDCB25A5AB4EEA0A05BFB5252A4F6B3
:1009B0003B3B764DD6D6B761B3B37DCE2929527B6A
:1009C000E3E3DD3E2F2F5E71848413975353A6F526
:1009D000D1D1B96800000000EDEDC12C20204060AD
:1009E000FCFCE31FB1B179C85B5BB6ED6A6AD4BEAB
:1009F000CBCB8D46BEBE67D93939724B4A4A94DE9D
:100A00004C4C98D45858B0E8CFCF854AD0D0BB6B67
:100A1000EFEFC52AAAAA4FE5FBFBED16434386C5B7
:100A20004D4D9AD7333366558585119445458ACF08
:100A3000F9F9E910020204067F7FFE815050A0F010
:100A40003C3C78449F9F25BAA8A84BE35151A2F3A0
:100A5000A3A35DFE404080C08F8F058A92923FAD78
:100A60009D9D21BC38387048F5F5F104BCBC63DFAE
:100A7000B6B677C1DADAAF752121426310102030A3
:100A8000FFFFE51AF3F3FD0ED2D2BF6DCDCD814C41
:100A90000C0C181413132635ECECC32F5F5FBEE16A
:100AA000979735A2444488CC17172E39C4C493575E
:100AB000A7A755F27E7EFC823D3D7A476464C8ACB0
:100AC0005D5DBAE71919322B7373E6956060C0A0BB
:100AD000818119984F4F9ED1DCDCA37F222244668E
:100AE0002A2A547E90903BAB88880B8346468CCA5A
:100AF000EEEEC729B8B86BD31414283CDEDEA77914
:100B00005E5EBCE20B0B161DDBDBAD76E0E0DB3B93
:100B1000323264563A3A744E0A0A141E494992DB3C
:100B200006060C0A2424486C5C5CB8E4C2C29F5DD3
:100B3000D3D3BD6EACAC43EF6262C4A6919139A829
:100B4000959531A4E4E4D3377979F28BE7E7D53290
:100B5000C8C88B4337376E596D6DDAB78D8D018CF0
:100B6000D5D5B1644E4E9CD2A9A949E06C6CD8B4DD
:100B70005656ACFAF4F4F307EAEACF256565CAAF36
:100B80007A7AF48EAEAE47E908081018BABA6FD573
:100B90007878F08825254A6F2E2E5C721C1C38242C
:100BA000A6A657F1B4B473C7C6C69751E8E8CB23DD
:100BB000DDDDA17C7474E89C1F1F3E214B4B96DD4C
:100BC000BDBD61DC8B8B0D868A8A0F857070E090CD
:100BD0003E3E7C42B5B571C46666CCAA484890D802
:100BE00003030605F6F6F7010E0E1C126161C2A39F
:100BF00035356A5F5757AEF9B9B969D0868617910E
:100C0000C1C199581D1D3A279E9E27B9E1E1D938E7
:100C1000F8F8EB1398982BB3111122336969D2BB02
:100C2000D9D9A9708E8E0789949433A79B9B2DB632
:100C30001E1E3C2287871592E9E9C920CECE87493E
:100C40005555AAFF28285078DFDFA57A8C8C038FB2
:100C5000A1A159F8898909800D0D1A17BFBF65DA5E
:100C6000E6E6D731424284C66868D0B8414182C3C3
:100C7000999929B02D2D5A770F0F1E11B0B07BCB4B
:100C80005454A8FCBBBB6DD616162C3AA56363C69C
:100C9000847C7CF8997777EE8D7B7BF60DF2F2FF02
:100CA000BD6B6BD6B16F6FDE54C5C59150303060EF
:100CB00003010102A96767CE7D2B2B5619FEFEE7C3
:100CC00062D7D7B5E6ABAB4D9A7676EC45CACA8FFC
:100CD0009D82821F40C9C989877D7DFA15FAFAEF86
:100CE000EB5959B2C947478E0BF0F0FBECADAD4163
:100CF00067D4D4B3FDA2A25FEAAFAF45BF9C9C23EB
:100D0000F7A4A453967272E45BC0C09BC2B7B775D8
:100D10001CFDFDE1AE93933D6A26264C5A36366C97
:100D2000413F3F7E02F7F7F54FCCCC835C3434680B
:100D3000F4A5A55134E5E5D108F1F1F9937171E21B
:100D400073D8D8AB533131623F15152A0C0404080F
:100D500052C7C795652323465EC3C39D2818183024
:100D6000A19696370F05050AB59A9A2F0907070E1F
:100D7000361212249B80801B3DE2E2DF26EBEBCD96
:100D80006927274ECDB2B27F9F7575EA1B090912FC
:100D90009E83831D742C2C582E1A1A342D1B1B363F
:100DA000B26E6EDCEE5A5AB4FBA0A05BF65252A4AF
:100DB0004D3B3B7661D6D6B7CEB3B37D7B29295266
:100DC0003EE3E3DD712F2F5E97848413F55353A622
:100DD00068D1D1B9000000002CEDEDC160202040A9
:100DE0001FFCFCE3C8B1B179ED5B5BB6BE6A6AD4A7
:100DF00046CBCB8DD9BEBE674B393972DE4A4A9499
:100E0000D44C4C98E85858B04ACFCF856BD0D0BB63
:100E10002AEFEFC5E5AAAA4F16FBFBEDC5434386B3
:100E2000D74D4D9A5533336694858511CF45458A04
:100E300010F9F9E906020204817F7FFEF05050A00C
:100E4000443C3C78BA9F9F25E3A8A84BF35151A29C
:100E5000FEA3A35DC04040808A8F8F05AD92923F74
:100E6000BC9D9D214838387004F5F5F1DFBCBC63AA
:100E7000C1B6B67775DADAAF63212142301010209F
:100E80001AFFFFE50EF3F3FD6DD2D2BF4CCDCD813D
:100E9000140C0C18351313262FECECC3E15F5FBE66
:100EA000A2979735CC4444883917172E57C4C4935A
:100EB000F2A7A755827E7EFC473D3D7AAC6464C8AC
:100EC000E75D5DBA2B191932957373E6A06060C0B7
:100ED00098818119D14F4F9E7FDCDCA3662222448A
:100EE0007E2A2A54AB90903B8388880BCA46468C56
:100EF00029EEEEC7D3B8B86B3C14142879DEDEA710
:100F0000E25E5EBC1D0B0B1676DBDBAD3BE0E0DB8F
:100F1000563232644E3A3A741E0A0A14DB49499238
:100F20000A06060C6C242448E45C5CB85DC2C29FCF
:100F30006ED3D3BDEFACAC43A66262C4A891913925
:100F4000A495953137E4E4D38B7979F232E7E7D58C
:100F500043C8C88B5937376EB76D6DDA8C8D8D01EC
:100F600064D5D5B1D24E4E9CE0A9A949B46C6CD8D9
:100F7000FA5656AC07F4F4F325EAEACFAF6565CA32
:100F80008E7A7AF4E9AEAE4718080810D5BABA6F6F
:100F9000887878F06F25254A722E2E5C241C1C3828
:100FA000F1A6A657C7B4B47351C6C69723E8E8CBD9
:100FB0007CDDDDA19C7474E8211F1F3EDD4B4B9648
:100FC000DCBDBD61868B8B0D858A8A0F907070E0C9
:100FD000423E3E7CC4B5B571AA6666CCD8484890FE
:100FE0000503030601F6F6F7120E0E1CA36161C29B
:100FF0005F35356AF95757AED0B9B969918686170A
:1010000058C1C199271D1D3AB99E9E2738E1E1D9E3
:1010100013F8F8EBB398982B33111122BB6969D2FE
:1010200070D9D9A9898E8E07A7949433B69B9B2D2E
:10103000221E1E3C9287871520E9E9C949CECE873A
:10104000FF5555AA782828507ADFDFA58F8C8C03AE
:10105000F8A1A15980898909170D0D1ADABFBF655A
:1010600031E6E6D7C6424284B86868D0C3414182BF
:10107000B0999929772D2D5A110F0F1ECBB0B07B47
:10108000FC5454A8D6BBBB6D3A16162C6E74706413
:101090002070726F6365737320737461727465641A
:1010A0000A0008000000000000000000000000002E
:1010B0000000000000000000000000000000000030
:1010C0000000000000000000000000000000000020
:1010D0000000257325730A004F6E6C696E650A0067
:1010E0000A002C20636865636B207261746520259B
:1010F0007520487A0025732025732C206368616E63
:101100006E656C202575000A2A2A2A2A2A2A2A4274
:101110006F6F74696E672025732A2A2A2A2A2A2A61
:101120000A0011241FBECFEFD0E4DEBFCDBF15E013
:10113000A0E0B1E0E0E2F0E301E00BBF02C0079005
:101140000D92AE36B107D9F717E3AEE6B5E001C0B0
:101150001D92A136B107E1F70E94A0710C940E9880
:101160000C9400000F931F93CF93DF938C01EA013F
:10117000FC0180819181009721F08D9709F075C065
:101180000CC08BEB91E061E00E945B278DE290E068
:10119000F8019183808381E06CC08091C02668173C
:1011A00009F041C08091C42683FF05C080E795E027
:1011B0000E94754AEBCF80FF22C080E091E00E9440
:1011C000A76DD0936F05C0936E0580E795E06DE73E
:1011D00070E00E94774B6091320170913301FB0106
:1011E000DF010D900020E9F71197AE1BBF0B809136
:1011F0006E0590916F05AD010E94E825C7CF81FF74
:10120000C5CFE091C526F091C6268091C226909167
:10121000C326E80FF91F10828091C5269091C6263B
:101220000E94A76DB3CF683809F0B0CF80E795E092
:101230000E94104A892B09F4A9CF60913201709164
:101240003301FB01DF010D900020E9F71197AE1B80
:10125000BF0B80916E0590916F05AD010E94E8254E
:1012600080E795E00E946C4B91CFF80111821082CB
:1012700083E0DF91CF911F910F9108959C01AB0105
:1012800081E080937F058091440690914506B901E5
:101290000E94775A88E396E067E771E00E94774BF7
:1012A00008957F928F929F92AF92BF92CF92DF92DA
:1012B000EF92FF920F931F93782E862E80918B05CD
:1012C000882329F08091960581508093960590910E
:1012D0007D0580917E05809398019093990190906F
:1012E000800510918105F0908205E0908305D090F3
:1012F0008405C0908505B0908605A0908705292DAE
:10130000312F4F2D5E2D6D2D7C2D8B2D9A2D08E2CA
:101310000E94CD8D20939A01292D312F4F2D5E2DC6
:101320006D2D7C2D8B2D9A2D00E20E94CD8D20936A
:101330009B01292D312F4F2D5E2D6D2D7C2D8B2D59
:101340009A2D08E10E94CD8D20939C01292D312FEB
:101350004F2D5E2D6D2D7C2D8B2D9A2D00E10E9441
:10136000CD8D20939D01292D312F4F2D5E2D6D2D7B
:101370007C2D8B2D9A2D08E00E94CD8D20939E010F
:1013800090929F0180E5881699F0809193018823BF
:1013900021F484E59BE00E94774881E080939301EB
:1013A00084E59BE06FE070E00E94B248892B59F41D
:1013B000809144069091450665E971E04FE050E068
:1013C0000E94775A30C08091580B9091590B90939E
:1013D000790B8093780B0091800510918105209105
:1013E0008205309183054091840550918505609177
:1013F000860570918705E0907D05F0907E05C72CED
:10140000A82C0E94E22A6091780B7091790B809150
:101410004406909145064FE050E00E94775A84E5DB
:101420009BE00E94774881E08093780580928A054E
:101430001F910F91FF90EF90DF90CF90BF90AF90F2
:101440009F908F907F900895CF92DF92EF92FF92BE
:101450000F931F9380919301882321F484E59BE0EF
:101460000E94774881E080939301809192018823C4
:1014700021F486E69BE00E94774881E08093920108
:101480008AE496E00E94BE3280918B05882309F49D
:101490008CC084E59BE069E170E00E94B248892B32
:1014A00009F495C08091580B9091590B9093790B4A
:1014B0008093780B00918005109181052091820521
:1014C0003091830540918405509185056091860592
:1014D00070918705E0907D05F0907E050E94BA2806
:1014E000809180052091810530918205409183058E
:1014F00060918405E0918505A0918605109187058E
:10150000B82FBF5F91E0B81708F090E0F92FF20F05
:1015100081E0F21708F080E0782F730F81E07317F5
:1015200008F080E0582F540F81E0541708F080E055
:10153000382F360F81E0361708F080E0282F2E0F65
:1015400081E02E1708F080E0982F9A0F81E09A171B
:1015500008F080E0810FB0938005F09381057093CF
:1015600082055093830530938405209385059093DD
:101570008605809387058091780B9091790B69E1BE
:1015800070E00E943E0982E08093910110927A05FA
:101590001092790510927C0510927B0510928805B7
:1015A00084E59BE00E947748A1C010927A051092D2
:1015B000790510927C0510927B051092880584E5D0
:1015C0009BE063E470E00E94B248892B29F482E03A
:1015D00060E50E94510998C08091580B9091590B79
:1015E0009093790B8093780B009180051091810581
:1015F00020918205309183054091840550918505A5
:101600006091860570918705E0907D05F0907E05DC
:10161000C0907905D0907A050E941A2E809180059D
:101620002091810530918205409183056091840568
:10163000E0918505A091860510918705B82FBF5FC1
:1016400091E0B81708F090E0F92FF20F81E0F2175F
:1016500008F080E0782F730F81E0731708F080E0C6
:10166000582F540F81E0541708F080E0382F360FC0
:1016700081E0361708F080E0282F2E0F81E02E172A
:1016800008F080E0982F9A0F81E09A1708F080E028
:10169000810FB0938005F09381057093820550937C
:1016A0008305309384052093850590938605809368
:1016B00087054091780B5091790BCA01DC01EFEB63
:1016C000F5E05B968C915B978193119685E0EF3DF9
:1016D000F807B9F7CA0163E470E00E943E0984E5A7
:1016E0009BE00E94774889E08093910188E0809395
:1016F000C4260E949646682F8093C02680E090E022
:1017000040E050E00E94F1471F910F91FF90EF9051
:10171000DF90CF90089581E060E00E945109089524
:101720000F931F93CF93DF93EB0109900020E9F70C
:101730002197C61BD70B4091BA0A5091BB0A0D2FB7
:10174000FA01D0831C2FC18390E09A012C0F3D1F1A
:101750000CC0FA01EA0FFB1F1282F901EA0FFB1F0E
:10176000A60FB71F8C9184839F5FA92FB0E0AC17A1
:10177000BD0778F3F90102831383DF91CF911F91A5
:101780000F9108956F927F928F929F92AF92BF9226
:10179000CF92DF92EF92FF920F931F93DF93CF933D
:1017A000CDB7DEB72C970FB6F894DEBF0FBECDBF16
:1017B000FC018081843109F09AC08181882309F07D
:1017C00096C08281882309F092C083818C3009F011
:1017D0008EC020917B0590917C058481891709F04A
:1017E00086C08581821709F082C08681882309F02E
:1017F0007EC08781882309F07AC08085882309F01C
:1018000076C08185882309F072C08285882309F01B
:101810006EC083858C3009F06AC080918B054E01C3
:101820000894811C911C1CE0612E712C6E0E7F1E91
:10183000882359F100D000D08CE090E0A0E0B0E027
:10184000EDB7FEB781839283A383B483C4016CEBAD
:101850007AE020E330E040E050E004E311E0B8E15A
:10186000EB2EB6E0FB2EA0E2AA2EB12CC12CD12C7F
:101870000E940A2B0F900F900F900F90C301B4019C
:101880004CE050E00E946D942AC000D000D08CE063
:1018900090E0A0E0B0E0EDB7FEB781839283A38330
:1018A000B483C4016CEB7AE020E330E040E050E028
:1018B00004E411E0F8E1EF2EF6E0FF2EE0E2AE2EB8
:1018C000B12CC12CD12C0E940A2B0F900F900F909D
:1018D0000F90C301B4014CE050E00E946D949C0154
:1018E00090E0232B09F091E081E0982701C090E07F
:1018F000892F2C960FB6F894DEBF0FBECDBFCF91C7
:10190000DF911F910F91FF90EF90DF90CF90BF90EC
:10191000AF909F908F907F906F9008952F923F92FD
:101920004F925F926F927F928F929F92AF92BF92EF
:10193000CF92DF92EF92FF920F931F93DF93CF939B
:10194000CDB7DEB7C252D3400FB6F894DEBF0FBE9C
:10195000CDBF8AE59BE06DEE70E00E94B248892B16
:1019600009F4FBC0E0905E0BF0905F0B8DEEF70189
:1019700011928A95E9F7E114F10409F4EEC060913F
:10198000BA0A7091BB0A8E010F5F1F4FC80144E471
:1019900050E00E94E034C80164E571E04DE050E0A1
:1019A0000E948A33C8016FEB75E040E250E00E946C
:1019B0008A33C8016FE975E040E250E00E948A3343
:1019C000C80164E17BE00E94DF328E0107551F4FA2
:1019D000C80164E17BE040E250E00E948A33C80124
:1019E00064E37BE00E94DF32D701E4E3FBE080E2C6
:1019F00001900D928150E1F7AA24BB2440E4642EAB
:101A0000712C6E0C7F1CC701805A9F4FCF5DDC4F3D
:101A100099838883C152D3403DE6232E312C2E0C6E
:101A20003F1C2DE8422E512C4E0C5F1C8E010F5F87
:101A30001F4F99EAC92ED12CCC0EDD1E80E2882ED4
:101A4000912C8E0C9F1C92E0A91609F478C0D3014A
:101A5000F70180E201900D928150E1F7CF5DDC4FFC
:101A6000A881B981C152D340E4E5F1E08DE0019055
:101A70000D928150E1F7D101EFEBF5E080E20190AA
:101A80000D928150E1F7D201EFE9F5E080E201909B
:101A90000D928150E1F7C8010E94CB34C801B30117
:101AA0004DE650E00E948A33C80164E17BE00E9469
:101AB000DF32C60164E17BE040E250E00E948A33FD
:101AC000C60164E37BE00E94DF32D401E4E3FBE083
:101AD00080E201900D928150E1F7C8010E94CB3461
:101AE000C801B70140E250E00E948A33C80164E1B6
:101AF0007BE00E94DF32C60164E17BE040E250E01F
:101B00000E948A33C60164E37BE00E94DF32D70182
:101B1000E4E3FBE080E201900D928150E1F7EB2DD0
:101B2000F0E0E355FF4FEE0DFF1DD40180E20D9074
:101B300001928150E1F7E0E2BE0EA39484CFACEBBA
:101B4000BAE0F701E355FF4F80E301900D92815019
:101B5000E1F78AE59BE00E947748CE5DDC4F0FB647
:101B6000F894DEBF0FBECDBFCF91DF911F910F91D3
:101B7000FF90EF90DF90CF90BF90AF909F908F90AD
:101B80007F906F905F904F903F902F9008952F928D
:101B90003F924F925F926F927F928F929F92AF92FD
:101BA000BF92CF92DF92EF92FF920F931F93DF933A
:101BB000CF93CDB7DEB7C252D3400FB6F894DEBF95
:101BC0000FBECDBF8AE59BE06DEE70E00E94B2488B
:101BD000892B09F420C1E0905E0BF0905F0B8DEE35
:101BE000F70111928A95E9F7E114F10409F413C1A0
:101BF0008E010F5F1F4FC8016CEB7AE040E350E0AD
:101C00000E94E034C80162E671E04DE050E00E94BD
:101C10008A33C8016FEB75E040E250E00E948A33DE
:101C2000C8016FE975E040E250E00E948A33C801C4
:101C300064E17BE00E94DF328E0107551F4FC8012F
:101C400064E17BE040E250E00E948A33C80164E333
:101C50007BE00E94DF32D701E4E3FBE080E2019009
:101C60000D928150E1F7AA24BB24F0E46F2E712C71
:101C70006E0C7F1CC701805A9F4FCF5DDC4F99834C
:101C80008883C152D340EDE62E2E312C2E0C3F1C02
:101C90007DE8472E512C4E0C5F1C8E010F5F1F4FAD
:101CA00069EAC62ED12CCC0EDD1E50E2852E912C79
:101CB0008E0C9F1C92E0A91609F478C0D301F7019D
:101CC00080E201900D928150E1F7CF5DDC4FA88159
:101CD000B981C152D340E2E6F1E08DE001900D926E
:101CE0008150E1F7D101EFEBF5E080E201900D9238
:101CF0008150E1F7D201EFE9F5E080E201900D9229
:101D00008150E1F7C8010E94CB34C801B3014DE610
:101D100050E00E948A33C80164E17BE00E94DF3218
:101D2000C60164E17BE040E250E00E948A33C601D4
:101D300064E37BE00E94DF32D401E4E3FBE080E275
:101D400001900D928150E1F7C8010E94CB34C80187
:101D5000B70140E250E00E948A33C80164E17BE0B1
:101D60000E94DF32C60164E17BE040E250E00E9465
:101D70008A33C60164E37BE00E94DF32D701E4E3EB
:101D8000FBE080E201900D928150E1F7EB2DF0E055
:101D9000E355FF4FEE0DFF1DD40180E20D9001923F
:101DA0008150E1F7E0E2BE0EA39484CFACEEBAE03E
:101DB000F701E355FF4F80E101900D928150E1F76B
:101DC000A0E0BBE0F701E354FF4F80E101900D92EA
:101DD0008150E1F78DEC90E0E80EF91EF70181915A
:101DE0009191A191B1918093FC0A9093FD0AA093E7
:101DF000FE0AB093FF0A80819181A281B381809312
:101E0000100B9093110BA093120BB093130B8AE558
:101E10009BE00E947748CE5DDC4F0FB6F894DEBFA2
:101E20000FBECDBFCF91DF911F910F91FF90EF902B
:101E3000DF90CF90BF90AF909F908F907F906F90EA
:101E40005F904F903F902F9008956F927F928F9266
:101E50009F92AF92BF92CF92DF92EF92FF920F9339
:101E60001F93DF93CF93CDB7DEB7C85AD0400FB6DC
:101E7000F894DEBF0FBECDBF6C014B0140919101C4
:101E8000473009F0C5C0A7EFB5E020E030E0809111
:101E90008B05882321F0F901E450F54F03C0F901C7
:101EA000E05FF44F80818C932F5F3F4F1196243079
:101EB000310569F780918C0590918D059093FC0513
:101EC0008093FB059093040680930306BDEF6B2E71
:101ED000B5E07B2EA5E0AA2EA6E0BA2EEE24FF24C4
:101EE00020918E0530918F0540919005509191057C
:101EF000609192057091930580919405909195055C
:101F00000E2D0E94CD8DF30121933F0120918E056E
:101F100030918F0540919005509191056091920507
:101F20007091930580919405909195050E94CD8DB7
:101F3000F50121935F0188E090E0E80EF91E90E33F
:101F4000E916F10469F687E180930B068EEF809322
:101F50000C068DEF80930D06882D805180930E0620
:101F6000F0EFAF2EFFEFBF2EA80CB91C1A2D0B2DD2
:101F7000B0920F0680919201882321F486E69BE0BF
:101F80000E9477481092920186E69BE0612F702FA5
:101F90000E94B248892B09F425C720916A0B309121
:101FA0006B0B3093C6262093C52680918B05860146
:101FB000085F1F4FF4013897882331F0C90160E0B2
:101FC00070E04CEE5AE005C0C90160E070E040E00E
:101FD0005BE027EF35E07F01E3E0CE2EE6E0DE2E8A
:101FE0000E94653E892B19F486E69BE0F8C1B09209
:101FF000C326A092C22682E08093C4260E94964601
:10200000682F8093C02680E090E040E050E0D8C583
:1020100080918B05882309F4D6C5423019F04830E9
:1020200009F0F6C0F60180818E3F09F0E8C0818199
:102030008D3F09F0E4C082A1E82EFF24E7FCF09474
:1020400083E290E0E80EF91E8E149F0408F4DAC0D3
:10205000423081F40E94F7710E94854B00E116E046
:102060000E94824B8F77F80181938F01F6E008314F
:102070001F07B1F78AE997E060E176E048E050E0B9
:102080000E94E034F60142A1552747FD50954D5D71
:102090005F4F8AE997E0B6010E948034F601EE0DA9
:1020A000FF1DE081EE2319F0E03109F0A8C087019F
:1020B0000F5F1F4F80919101823049F4B601600F8C
:1020C000711FA401401B510B8AE997E010C08830B2
:1020D00081F481E190E0E80EF91EEC0CFD1CA401F6
:1020E00040515040401B510B8AE997E0B7010E94D4
:1020F00080348AE997E061EE76E240E150E00E94A8
:1021000080348AE59BE060E170E00E94B248892B50
:1021100019F460E570E07EC060915E0B70915F0B1A
:102120007093A7016093A6018AE997E040E150E02F
:102130000E94833480919101883081F4B601600F50
:10214000711F8091A6019091A70140E150E00E948B
:102150006D94009719F082E080939101F601E00FF1
:10216000F11F31972081332727FD3095200F311F34
:10217000F601E20FF31F8181482F552747FD509547
:102180008081992787FD9095982F8827480F591FA0
:102190002E5F3F4FC401821B930B8417950790F16C
:1021A00040FF1FC02FC082818823B1F48381883A09
:1021B00099F4240F351FF601E20FF31F8081482F99
:1021C000552747FD5095089481089108821A930A73
:1021D0008416950680F416C0425050402E5F3F4F43
:1021E000329642305105F8F610C08181319688232D
:1021F00079F04150504041155105B9F706C06FE2E2
:1022000070E008C062E370E005C068E270E002C000
:1022100061E070E0162F80919101883071F4613097
:1022200061F4D601EFEBF5E012968C911297819351
:10223000119695E0EF3DF907B9F78091910184304F
:10224000C9F51130B9F5F6016181772767FD709501
:102250008081992787FD9095982F8827680F791F8F
:102260007093A5016093A4018AE59BE00E94B248A7
:10227000892B09F4B7C580915E0B90915F0B909309
:10228000A7018093A60120E00CC0E091A601F09187
:10229000A701EA0FFB1FAC0DBD1D12968C91808328
:1022A0002F5FA22FB0E08091A4019091A501A81703
:1022B000B90758F380919101863009F0B6C011300A
:1022C00009F0C4C58091FC0A8093F7058091FD0A4E
:1022D0008093F8058091FE0A8093F9058091FF0AAA
:1022E0008093FA0580918C0590918D059093FC0563
:1022F0008093FB059093040680930306ADEF8A2E2E
:10230000A5E09A2EF5E0AF2EF6E0BF2EEE24FF24D6
:1023100020918E0530918F05409190055091910547
:102320006091920570919305809194059091950527
:102330000E2D0E94CD8DF40121934F0120918E0529
:1023400030918F05409190055091910560919205D3
:102350007091930580919405909195050E94CD8D83
:10236000F50121935F0188E090E0E80EF91E90E30B
:10237000E916F10469F686E180930B068EEF8093EF
:102380000C068DEF80930D0610920E0688E1809367
:102390000F0684E59BE068E170E00E94B248892B5B
:1023A00009F420C5A090580BB090590BE8E0F0E07C
:1023B000CE0EDF1EC50160E070E04CEE5AE027EF64
:1023C00035E08601E0E2EE2EF12CB3E0CB2EB6E054
:1023D000DB2E0E94653E892B39F484E59BE00E9448
:1023E000774882E064E134C5DE011196EAE4F6E064
:1023F00088EA01900D928150E1F7CE01019668E1E3
:1024000076E00E94DF32C5010E94C20B813009F0E4
:102410000DC58AE496E0B50148E150E00E948A3398
:1024200084E59BE00E94774803C0113009F00EC597
:1024300080919101853009F4C3C1863038F482302F
:1024400069F0843011F00C94DB1A96C1863009F4DF
:10245000BAC1883011F00C94DB1A8CC084E59BE083
:102460006CE270E00E94B248892B09F4D7C78091D2
:10247000580B9091590B9093790B8093780B609146
:10248000A6017091A701E0908005F0908105009170
:102490008205109183052091840530918505409136
:1024A000860550918705C0907D05D0907E05A0904F
:1024B0007905B0907A050E94E1288091780B90917F
:1024C000790B6CE270E00E943E09809180052091BA
:1024D0008105309182054091830560918405E091EA
:1024E0008505A091860510918705B82FBF5F91E003
:1024F000B81708F090E0F92FF20F81E0F21708F01A
:1025000080E0782F730F81E0731708F080E0582F78
:10251000540F81E0541708F080E0382F360F81E027
:10252000361708F080E0282F2E0F81E02E1708F0D4
:1025300080E0982F9A0F81E09A1708F080E0810FD1
:10254000B0938005F09381057093820550938305C5
:1025500030938405209385059093860580938705A5
:1025600084E59BE00E9477488AE59BE00E947748DB
:1025700088E0E6C784E59BE068E570E00E94B24829
:10258000892B09F44BC78091580B9091590B90936C
:10259000790B8093780B0091800510918105209133
:1025A00082053091830540918405509185056091A5
:1025B000860570918705E0907D05F0907E05C090BE
:1025C0007905D0907A050E94432F80918005209153
:1025D0008105309182054091830560918405E091E9
:1025E0008505A091860510918705B82FBF5F91E002
:1025F000B81708F090E0F92FF20F81E0F21708F019
:1026000080E0782F730F81E0731708F080E0582F77
:10261000540F81E0541708F080E0382F360F81E026
:10262000361708F080E0282F2E0F81E02E1708F0D3
:1026300080E0982F9A0F81E09A1708F080E0810FD0
:10264000B0938005F09381057093820550938305C4
:1026500030938405209385059093860580938705A4
:102660002BE130E0F901EC57FA4F6091780B709153
:10267000790BDB01A20FB31F8C9180832F5F3F4F3B
:102680002B33310579F7635F7F4F8AE496E042E3AD
:1026900050E00E948A336091780B7091790B645BF3
:1026A0007F4F8AE496E04CE050E00E948A3384E059
:1026B00080939101E091780BF091790B82E085870E
:1026C0008091780B9091790B68E570E00E943E094B
:1026D000809180052091810530918205409183058C
:1026E00060918405E0918505A0918605109187058C
:1026F000B82FBF5F91E0B81708F090E0F92FF20F04
:1027000081E0F21708F080E0782F730F81E07317F3
:1027100008F080E0582F540F81E0541708F080E053
:10272000382F360F81E0361708F080E0282F2E0F63
:1027300081E02E1708F080E0982F9A0F81E09A1719
:1027400008F080E0810FB0938005F09381057093CD
:1027500082055093830530938405209385059093DB
:1027600086058093870584E59BE00E9477488AE58B
:102770009BE00E9477481FC78AE59BE00E9477484C
:1027800008EA11E0F80101900020E9F7E75AF1406A
:10279000EE0FFF1F84E59BE0BF010E94B248892B2A
:1027A00009F43CC68091580B9091590B9093BB0A49
:1027B0008093BA0AB8010E94900B0E948E0CB9C691
:1027C0000E94C70DBCC684E59BE063E470E00E94F4
:1027D000B248892B09F422C68091580B9091590B6D
:1027E0009093790B8093780B00918005109181056F
:1027F0002091820530918305409184055091850593
:102800006091860570918705E0907D05F0907E05CA
:102810000E94872980918005209181053091820551
:102820004091830560918405E0918505A09186051E
:1028300010918705B82FBF5F91E0B81708F090E0BE
:10284000F92FF20F81E0F21708F080E0782F730F74
:1028500081E0731708F080E0582F540F81E054177F
:1028600008F080E0382F360F81E0361708F080E05E
:10287000282F2E0F81E02E1708F080E0982F9A0F56
:1028800081E09A1708F080E0810FB0939705F093EC
:1028900098057093990550939A0530939B05209362
:1028A0009C0590939D0580939E0580917D05909158
:1028B0007E05019690937E0580937D05109280059C
:1028C0001092810510928205109283051092840562
:1028D0001092850510928605109287058AE496E08D
:1028E00068E176E00E94DF3284E18093DF05109298
:1028F000E0051092E1052CE02093E2058091790536
:1029000090917A0501969093E305809179058F5F08
:102910008093E4051092E5051092E6051092E70514
:102920001092E8051092E9052093EA0500D000D046
:102930008CE090E0A0E0B0E0EDB7FEB78183928339
:10294000A383B4838BEE95E06CEB7AE020E330E078
:1029500040E050E004E411E0E8E1EE2EE6E0FE2E77
:10296000B0E2AB2EB12CC12CD12C0E940A2B80914D
:10297000100B8093F7058091110B8093F8058091DF
:10298000120B8093F9058091130B8093FA058091C7
:102990007D0590917E059093FC058093FB059093B7
:1029A000040680930306ADEFAA2EA5E0BA2EF5E04B
:1029B000CF2EF6E0DF2EEE24FF240F900F900F9025
:1029C0000F902091800530918105409182055091B2
:1029D00083056091840570918505809186059091AD
:1029E00087050E2D0E94CD8DF50121935F01209169
:1029F0008005309181054091820550918305609159
:102A000084057091850580918605909187050E94C7
:102A1000CD8DF60121936F0188E090E0E80EF91E5C
:102A200090E3E916F10469F686E180930B068EEFD8
:102A300080930C068DEF80930D0610920E0688E1B0
:102A400080930F068091780B9091790B63E270E090
:102A500040E05BE027EF35E00FED15E0E8E1EE2E1A
:102A6000F12CB3E0CB2EB6E0DB2E0E947C42892B0A
:102A700009F4D0C48091780B9091790B0091800576
:102A80001091810520918205309183054091840544
:102A9000509185056091860570918705E0907D05D0
:102AA000F0907E050E960E94A8298091780B909157
:102AB000790B63E470E00E943E09809180052091CB
:102AC0008105309182054091830560918405E091F4
:102AD0008505A091860510918705B82FBF5F91E00D
:102AE000B81708F090E0F92FF20F81E0F21708F024
:102AF00080E0782F730F81E0731708F080E0582F83
:102B0000540F81E0541708F080E0382F360F81E031
:102B1000361708F080E0282F2E0F81E02E1708F0DE
:102B200080E0982F9A0F81E09A1708F080E0810FDB
:102B3000B0938005F09381057093820550938305CF
:102B400030938405209385059093860580938705AF
:102B500084E59BE00E94774887E080939101E091B3
:102B60004006F09141068CEF9AE09583848380E1E2
:102B70009BE0978386838CEE9AE09183808380E04C
:102B80009BE093838283A0914206B0914306119605
:102B9000FC93EE93809144069091450613969C9386
:102BA0008E9312970E949646682F8093C02681E0EC
:102BB0008093C426409142065091430680E090E005
:102BC0000E94F147F8C44330C1F1493021F041304F
:102BD00009F03FC013C0F60180818E3FA1F58181CD
:102BE0008F3F11F08D3F79F5F6018281992787FD9E
:102BF000909503968816990631F52BC0F6018081D1
:102C00008E3F09F581818F3F11F08D3FE1F4F60190
:102C100082A1282F332727FD3095E20FF31F83A1D0
:102C20008823A1F4F901B496EC0DFD1D8081883A4A
:102C300069F48181882351F40CC06115710549F054
:102C400062E370E008C06FE270E005C068E270E027
:102C500002C061E070E0162F413091F4613081F4E0
:102C6000D601EFE9F5E012968C91129781931196B7
:102C700085E0EF3BF807B9F78AE59BE00E947748CB
:102C8000809191018930B9F51130A9F5F601828161
:102C9000682F772767FD70957093A5016093A40155
:102CA0006115710541F18AE59BE00E94B248892BCC
:102CB00019F420E530E081C480915E0B90915F0BA8
:102CC0009093A7018093A60120E00CC0E091A6019B
:102CD000F091A701EA0FFB1FAC0DBD1D13968C915F
:102CE00080832F5FA22FB0E08091A4019091A50175
:102CF000A817B90758F380919101863009F0A4C054
:102D0000113009F0A3C08091100B8093F7058091DA
:102D1000110B8093F8058091120B8093F905809137
:102D2000130B8093FA0580918C0590918D059093FB
:102D3000FC058093FB059093040680930306ADEF9A
:102D40008A2EA5E09A2EF5E0AF2EF6E0BF2EEE24F7
:102D5000FF2420918E0530918F0540919005509170
:102D600091056091920570919305809194059091E1
:102D700095050E2D0E94CD8DF40121934F012091D8
:102D80008E0530918F05409190055091910560918D
:102D900092057091930580919405909195050E94FC
:102DA000CD8DF50121935F0188E090E0E80EF91EDA
:102DB00090E3E916F10469F686E180930B068EEF45
:102DC00080930C068DEF80930D0610920E0688E11D
:102DD00080930F0684E59BE068E170E00E94B248B2
:102DE000892B19F482E060E533C0A090580BB090B5
:102DF000590BE8E0F0E0CE0EDF1EC50160E070E0A8
:102E000040E05BE027EF35E08601E0E2EE2EF12CBA
:102E1000B3E0CB2EB6E0DB2E0E94653E892B09F491
:102E2000DCCAC5010E94C20B813049F082E068E231
:102E30000E94510984E59BE00E9477480BC084E51D
:102E40009BE00E94774809C0113039F082E0612F81
:102E50000E94510920E030E0B0C38091910185309B
:102E600009F46DC3863038F4813009F4B5C083307D
:102E700009F0A1C3D8C0863009F465C3893009F0D0
:102E80009AC36091A4017091A5016D5B7F4F84E5A9
:102E90009BE00E94B248892B09F4C0C28091580B74
:102EA0009091590B9093790B8093780B00D04091BF
:102EB000A6015091A701A0908005B0908105C09017
:102EC0008205D0908305E0908405F09085050091FF
:102ED00086051091870580907D0590907E05209154
:102EE000790530917A05EDB7FEB7328321836FEB18
:102EF00075E02091A4010E94F22D0F900F90609137
:102F0000780B7091790B635F7F4F4091A4015091D2
:102F1000A5014A5C5F4F8AE496E00E948A33609183
:102F2000A4017091A5016D5B7F4F8091780B90910A
:102F3000790B0E943E098091800520918105309196
:102F400082054091830560918405E0918505A091FB
:102F5000860510918705B82FBF5F91E0B81708F07C
:102F600090E0F92FF20F81E0F21708F080E0782F5F
:102F7000730F81E0731708F080E0582F540F81E041
:102F8000541708F080E0382F360F81E0361708F02C
:102F900080E0282F2E0F81E02E1708F080E0982F78
:102FA0009A0F81E09A1708F080E0810FB0938005B6
:102FB000F0938105709382055093830530938405C7
:102FC00020938505909386058093870584E59BE093
:102FD0000E94774881E0B4C208EA11E0F80101904C
:102FE0000020E9F7E75AF140EE0FFF1F84E59BE070
:102FF000BF010E94B248892B09F410C28091580B7E
:103000009091590B9093BB0A8093BA0AB8010E9421
:10301000900B0E948E0C0E94C70D84E59BE00E94DD
:10302000774883E08DC280E791E09093A701809379
:10303000A60188E090E09093A5018093A40184E527
:103040009BE066E670E00E94B248892B09F4E6C175
:103050008091580B9091590B9093790B8093780B3A
:103060006091A6017091A7014091A4015091A50122
:10307000C0908005D0908105E0908205F090830596
:103080000091840510918505209186053091870572
:10309000A0907D05B0907E058090790590907A058E
:1030A0000E94272980918005209181053091820519
:1030B0004091830560918405E0918505A091860586
:1030C00010918705B82FBF5F91E0B81708F090E026
:1030D000F92FF20F81E0F21708F080E0782F730FDC
:1030E00081E0731708F080E0582F540F81E05417E7
:1030F00008F080E0382F360F81E0361708F080E0C6
:10310000282F2E0F81E02E1708F080E0982F9A0FBD
:1031100081E09A1708F080E0810FB0938005F0936A
:103120008105709382055093830530938405209325
:10313000850590938605809387056091780B709143
:10314000790B635F7F4F4091A4015091A501425FCD
:103150005F4F8AE496E00E948A33E091A401F091E7
:10316000A5017B968091780B9091790B0091800559
:10317000109181052091820530918305409184054D
:10318000509185056091860570918705E0907D05D9
:10319000F0907E058E0F9F1F0E94872980918005E9
:1031A00020918105309182054091830560918405CD
:1031B000E0918505A091860510918705B82FBF5F26
:1031C00091E0B81708F090E0F92FF20F81E0F217C4
:1031D00008F080E0782F730F81E0731708F080E02B
:1031E000582F540F81E0541708F080E0382F360F25
:1031F00081E0361708F080E0282F2E0F81E02E178F
:1032000008F080E0982F9A0F81E09A1708F080E08C
:10321000810FB0939705F09398057093990550939B
:103220009A0530939B0520939C0590939D05809370
:103230009E0580917D0590917E05019690937E0577
:1032400080937D0510928005109281051092820571
:1032500010928305109284051092850510928605C0
:1032600010928705A2EFB6E0EAE4F6E088EA019062
:103270000D928150E1F78AE496E068E176E00E94E1
:10328000DF3284E18093DF051092E0051092E105C2
:103290002CE02093E2058091790590917A050196C2
:1032A0009093E305809179058F5F8093E4051092F8
:1032B000E5051092E6051092E7051092E8051092D8
:1032C000E9052093EA0500D000D08CE090E0A0E072
:1032D000B0E0EDB7FEB781839283A383B4838BEE16
:1032E00095E06CEB7AE020E330E040E050E004E36E
:1032F00011E0F8E1EF2EF6E0FF2EE0E2AE2EB12C69
:10330000C12CD12C0E940A2B8091FC0A8093F705D6
:103310008091FD0A8093F8058091FE0A8093F9055B
:103320008091FF0A8093FA0580917D0590917E053A
:103330009093FC058093FB0590930406809303060D
:103340000DEFA02E05E0B02E15E0C12E16E0D12E17
:10335000EE24FF240F900F900F900F902091800586
:1033600030918105409182055091830560918405DB
:103370007091850580918605909187050E2D0E949C
:10338000CD8DF50121935F0120918005309181055C
:103390004091820550918305609184057091850567
:1033A00080918605909187050E94CD8DF60121932D
:1033B0006F0188E090E0E80EF91E90E3E916F10451
:1033C00069F686E180930B068EEF80930C068DEFF5
:1033D00080930D0610920E0688E180930F0660918F
:1033E000A4017091A501625C7F4F8091780B909150
:1033F000790B4CEE5AE027EF35E00FED15E0B8E120
:10340000EB2EF12CA3E0CA2EA6E0DA2E0E947C421D
:10341000892B49F484E59BE00E94774882E060E5CF
:103420000E945109C8C082EF96E06FED75E048E157
:1034300050E00E948A3382EF96E068E176E00E94D5
:10344000DF32E091A401F091A501B9968091780B4B
:103450009091790B00918005109181052091820552
:1034600030918305409184055091850560918605D2
:1034700070918705E0907D05F0907E058E0F9F1F6F
:103480000E94A8296091A4017091A501625A7F4F02
:103490008091780B9091790B0E943E098091800574
:1034A00020918105309182054091830560918405CA
:1034B000E0918505A091860510918705B82FBF5F23
:1034C00091E0B81708F090E0F92FF20F81E0F217C1
:1034D00008F080E0782F730F81E0731708F080E028
:1034E000582F540F81E0541708F080E0382F360F22
:1034F00081E0361708F080E0282F2E0F81E02E178C
:1035000008F080E0982F9A0F81E09A1708F080E089
:10351000810FB0938005F0938105709382055093DD
:1035200083053093840520938505909386058093C9
:10353000870584E59BE00E94774885E001C086E02E
:103540008093910138C0E0914006F09141068CEFE4
:103550009AE09583848380E19BE0978386838CEE59
:103560009AE09183808380E09BE093838283A091A3
:103570004206B09143061196FC93EE938091440667
:103580009091450613969C938E9312970E949646AF
:10359000682F8093C02611E01093C4264091420604
:1035A0005091430680E090E00E94F14787E08093CD
:1035B00091011093880521E030E0C901C855DF4F23
:1035C0000FB6F894DEBF0FBECDBFCF91DF911F9134
:1035D0000F91FF90EF90DF90CF90BF90AF909F90B2
:1035E0008F907F906F900895AF92BF92CF92DF92AD
:1035F000EF92FF920F931F93DF93CF93CDB7DEB778
:1036000068970FB6F894DEBF0FBECDBF6C015B01AB
:1036100080917805882309F003C280918905882369
:10362000D9F01092890588E396E00E94754AD60188
:1036300011968C91882319F481E060E05EC080913E
:103640008B05882329F080919605815080939605FB
:1036500081E080937805E4C180918B05882371F423
:1036600080918805882351F0F6018081882331F408
:103670006C30710519F40E94240AD2C19091910115
:10368000892F8550833060F4C601B5010E94250F53
:10369000019709F0C5C188E396E00E94754AC0C150
:1036A000923019F4D6018C9112C0943029F4F601AD
:1036B00080818031E1F424C0993029F4D6018C91C5
:1036C000833061F41DC0983029F4F6018081813087
:1036D00071F416C0913029F4D6018C91823039F4FE
:1036E0000FC0933069F4F60180818E3049F060910B
:1036F0008A05662309F494C182E00E94510990C1B1
:1037000088E396E00E94754A80918A05882311F02B
:1037100010928A0580919101823079F080917F0525
:10372000813059F48091790590917A0501969093B2
:103730007A058093790510927F05D6018C918230AD
:1037400019F481E08093910119821A821B821C82F4
:10375000FE013196D6011B968C911B9789831A9690
:103760008C911A97818319968C91199782831D8267
:103770001E821F821886FE01359618968C91189726
:103780008D8317968C911797818316968C91169737
:10379000828319861A861B861C86FE01399613962B
:1037A0008C911397898712968C9112978183119629
:1037B0008C91828380919401882311F460E0A7C0EA
:1037C00049855A856B857C8589819A81AB81BC81CD
:1037D00084179507A607B70708F048C080E69BE066
:1037E000BA010E94B248892B19F482E060E585CFC6
:1037F0008091640B9091650B9093790B8093780B7B
:1038000060E012C0A62FB0E0E091780BF091790B48
:10381000EA0FFB1F8D819E81E80FF91FAC0DBD1DC6
:103820001C968C9180836F5F29813A814B815C81EA
:10383000862F90E0A0E0B0E082179307A407B507B9
:1038400008F310929401B5016C507040CB01AA2787
:1038500097FDA095BA2F281739074A075B0708F08C
:10386000DFC0C9010C96621B730BD6C08091910119
:10387000823059F0893049F0853039F0445F5F4F2C
:103880008AE496E0B6010E948A3369857A85C6018A
:103890000C960E94250F019709F0C2C080917B050C
:1038A00090917C05019690937C0580937B052985FA
:1038B0003A854B855C85E4EFFFEFAE0EBF1EC50178
:1038C000AA2797FDA095BA2F6CE070E0A60EB71E50
:1038D000281739074A075B0708F0A2C0C9010C96F0
:1038E00064EF7FEF621B730B95C0A62FB0E0E091F1
:1038F000780BF091790BEA0FFB1F8D819E81E80F09
:10390000F91FAC0DBD1D1C968C9180836F5F2981C2
:103910003A814B815C81862F90E0A0E0B0E0821775
:103920009307A407B50708F38D819E81AF81B88501
:10393000280F391F4A1F5B1F89859A85AB85BC8577
:10394000281739074A075B0709F06AC020E030E012
:10395000BE01635F7F4FFB01E20FF31FD601A20F91
:10396000B31F8C9180832F5F3F4F2C30310599F727
:103970001D8A1C8A1B8AD60111968C9111978E8BF9
:1039800012968C9112978F8B13968C91888F8AE464
:1039900096E04CE050E00E948A336091780B709181
:1039A000790B49855A858AE496E00E948A336985B5
:1039B0007A858091780B9091790B0E94250F019761
:1039C00079F580917B0590917C05019690937C051B
:1039D00080937B0580E69BE00E947748E980FA802F
:1039E0000B811C819501442737FD4095542FD80148
:1039F000C7010C96A11DB11D82179307A407B50737
:103A000078F481E080939401C7010C9664EF7FEF16
:103A10006E197F096A0D7B1D8C0D9D1D0E94F41A85
:103A200068960FB6F894DEBF0FBECDBFCF91DF9181
:103A30001F910F91FF90EF90DF90CF90BF90AF90CC
:103A400008955F926F927F928F929F92AF92BF92F2
:103A5000CF92DF92EF92FF920F931F93CF93DF935A
:103A600080919101823069F0833020F4813009F037
:103A70002BC20FC1843009F455C1893009F024C22A
:103A800079C084E59BE069E170E00E94B248892B2F
:103A900009F4A6C58091580B9091590B9093790B1E
:103AA0008093780B0091800510918105209182050B
:103AB000309183054091840550918505609186057C
:103AC00070918705E0907D05F0907E050E94BA28F0
:103AD0008091800520918105309182054091830578
:103AE00060918405E0918505A09186051091870578
:103AF000B82FBF5F91E0B81708F090E0F92FF20FF0
:103B000081E0F21708F080E0782F730F81E07317DF
:103B100008F080E0582F540F81E0541708F080E03F
:103B2000382F360F81E0361708F080E0282F2E0F4F
:103B300081E02E1708F080E0982F9A0F81E09A1705
:103B400008F080E0810FB0938005F09381057093B9
:103B500082055093830530938405209385059093C7
:103B60008605809387058091780B9091790B69E1A8
:103B700070E08CC084E59BE063E470E00E94B24892
:103B8000892B29F482E060E50E9451099DC1809152
:103B9000580B9091590B9093790B8093780B00D030
:103BA000A0908005B0908105C0908205D0908305DB
:103BB000E0908405F09085050091860510918705B9
:103BC00080907D0590907E052091790530917A0551
:103BD000EDB7FEB7328321836FEB75E040E050E034
:103BE00020E00E94F22D8091800520918105309186
:103BF00082054091830560918405E0918505A0913F
:103C0000860510918705B82FBF5F91E00F900F9048
:103C1000B81708F090E0F92FF20F81E0F21708F0E2
:103C200080E0782F730F81E0731708F080E0582F41
:103C3000540F81E0541708F080E0382F360F81E0F0
:103C4000361708F080E0282F2E0F81E02E1708F09D
:103C500080E0982F9A0F81E09A1708F080E0810F9A
:103C6000B0938005F093810570938205509383058E
:103C7000309384052093850590938605809387056E
:103C80008091780B9091790B63E470E00E943E097B
:103C900017C16091A4017091A5016D5B7F4F84E510
:103CA0009BE00E94B248892B09F49AC48091580B7A
:103CB0009091590B9093790B8093780B00D04091A1
:103CC000A6015091A701A0908005B0908105C090F9
:103CD0008205D0908305E0908405F09085050091E1
:103CE00086051091870580907D0590907E05209136
:103CF000790530917A05EDB7FEB7328321836FEBFA
:103D000075E02091A4010E94F22D0F900F90609118
:103D1000A4017091A5016D5B7F4F8091780B90910C
:103D2000790B81C084E59BE068E570E00E94B248B1
:103D3000892B09F455C48091580B9091590B90939D
:103D4000790B8093780BE0908005F09081050091CD
:103D5000820510918305209184053091850540915D
:103D6000860550918705C0907D05D0907E05A09076
:103D70007905B0907A056FE975E00E94302F809147
:103D800080052091810530918205409183056091E5
:103D90008405E0918505A091860510918705B82FCF
:103DA000BF5F91E0B81708F090E0F92FF20F81E0C3
:103DB000F21708F080E0782F730F81E0731708F096
:103DC00080E0582F540F81E0541708F080E0382F1E
:103DD000360F81E0361708F080E0282F2E0F81E0A3
:103DE0002E1708F080E0982F9A0F81E09A1708F0BC
:103DF00080E0810FB0938005F09381057093820578
:103E00005093830530938405209385059093860510
:103E100080938705E091780BF091790B82E085879C
:103E2000CF0168E570E00E943E09809180052091F5
:103E30008105309182054091830560918405E09170
:103E40008505A091860510918705B82FBF5F91E089
:103E5000B81708F090E0F92FF20F81E0F21708F0A0
:103E600080E0782F730F81E0731708F080E0582FFF
:103E7000540F81E0541708F080E0382F360F81E0AE
:103E8000361708F080E0282F2E0F81E02E1708F05B
:103E900080E0982F9A0F81E09A1708F080E0810F58
:103EA000B0938005F093810570938205509383054C
:103EB000309384052093850590938605809387052C
:103EC00084E59BE00E94774880918B059091910159
:103ED000882309F033C2953009F0F9C380917D053C
:103EE00090917E05019790937E0580937D0560916A
:103EF000A4017091A501625A7F4F84E59BE00E9466
:103F0000B248892B09F46CC38091580B9091590BDE
:103F10009093790B8093780B6091A6017091A70123
:103F20004091A4015091A501C0909705D0909805AB
:103F3000E0909905F0909A0500919B0510919C05E1
:103F400020919D0530919E05A0907D05B0907E0545
:103F50008090790590907A050E9427298091970595
:103F6000909198054091990550919A0560919B0513
:103F700070919C05A0919D05B0919E05082F0F5F43
:103F800011E0081708F010E0190F21E0191708F0E8
:103F900020E0F22FF40F31E0F41708F030E0E32FC7
:103FA000E50F41E0E51708F040E0460F51E0461705
:103FB00008F050E0570F61E0571708F060E06A0F13
:103FC00071E06A1708F070E07B0F0093970510937B
:103FD0009805F0939905E0939A0540939B055093BB
:103FE0009C0560939D0570939E052091A4013091DE
:103FF000A501255E3F4F8091780B9091790BE09061
:104000007D05F0907E05820F931F2F2F3E2F0E947B
:1040100087298091970520919805309199054091C5
:104020009A0560919B05E0919C05A0919D051091DA
:104030009E05B82FBF5F91E0B81708F090E0F92F08
:10404000F20F81E0F21708F080E0782F730F81E023
:10405000731708F080E0582F540F81E0541708F0D0
:1040600080E0382F360F81E0361708F080E0282FE7
:104070002E0F81E02E1708F080E0982F9A0F81E034
:104080009A1708F080E0810FB0939705F093980598
:104090007093990550939A0530939B0520939C0546
:1040A00090939D0580939E0580917D0590917E055E
:1040B000019690937E0580937D0584E18093DF05D2
:1040C0001092E0051092E1052CE02093E20590911A
:1040D000790580917A058093E3059093E405109229
:1040E000E5051092E6051092E7051092E80510929A
:1040F000E9052093EA058AE496E068E176E00E940B
:10410000DF3200D000D08CE090E0A0E0B0E0EDB76E
:10411000FEB781839283A383B4838BEE95E06CEB2F
:104120007AE020E330E040E050E004E311E0F8E121
:10413000EF2EF6E0FF2EE0E2AE2EB12CC12CD12CFA
:104140000E940A2B8091FC0A8093F7058091FD0A5A
:104150008093F8058091FE0A8093F9058091FF0A0B
:104160008093FA0580917D0590917E059093FC05E2
:104170008093FB059093040680930306509080057E
:1041800060908105709082058090830590908405F1
:10419000A0908505B0908605109187058DEFC82EFB
:1041A00085E0D82E05E0E02E06E0F02EC0E0D0E05D
:1041B0000F900F900F900F90252D362D472D582DD5
:1041C000692D7A2D8B2D912F0C2F0E94CD8DF6010C
:1041D00021936F01F70121937F012896C033D10508
:1041E00059F786E180930B068EEF80930C068DEFD6
:1041F00080930D0610920E0688E180930F06609161
:10420000A4017091A501625C7F4F8091780B909121
:10421000790B4CEE5AE027EF35E00FED15E0B8E1F1
:10422000EB2EF12CA3E0CA2EA6E0DA2E0E947C42EF
:10423000892B09F4D1C1E091A401F091A501B996AF
:104240008091780B9091790B0091800510918105F8
:104250002091820530918305409184055091850518
:104260006091860570918705E0907D05F0907E0550
:104270008E0F9F1F0E94A8296091A4017091A50133
:10428000625A7F4F8091780B9091790B0E943E0982
:1042900080918005209181053091820540918305B0
:1042A00060918405E0918505A091860510918705B0
:1042B000B82FBF5F91E0B81708F090E0F92FF20F28
:1042C00081E0F21708F080E0782F730F81E0731718
:1042D00008F080E0582F540F81E0541708F080E078
:1042E000382F360F81E0361708F080E0282F2E0F88
:1042F00081E02E1708F080E0982F9A0F81E09A173E
:1043000008F080E0810FB0938005F09381057093F1
:1043100082055093830530938405209385059093FF
:1043200086058093870584E59BE00E94774882EFAD
:1043300096E068E176E00E94DF32C9C1973009F06B
:10434000C6C180917D0590917E05019790937E0571
:1043500080937D0580919301882339F484E59BE067
:104360000E94774881E08093930184E59BE063E4B9
:1043700070E00E94B248892B09F432C18091580B39
:104380009091590B9093790B8093780B009197053E
:10439000109198052091990530919A0540919B05BF
:1043A00050919C0560919D0570919E05E0907D0562
:1043B000F0907E050E9487298091970520919805AD
:1043C0003091990540919A0560919B05E0919C057B
:1043D000A0919D0510919E05B82FBF5F91E0B81781
:1043E00008F090E0F92FF20F81E0F21708F080E07A
:1043F000782F730F81E0731708F080E0582F540F67
:1044000081E0541708F080E0382F360F81E036172E
:1044100008F080E0282F2E0F81E02E1708F080E0B2
:10442000982F9A0F81E09A1708F080E0810FB093DF
:104430009705F09398057093990550939A053093DA
:104440009B0520939C0590939D0580939E058091EC
:104450007D0590917E05019690937E0580937D0564
:104460008AE496E068E176E00E94DF3284E180939E
:10447000DF051092E0051092E1052CE02093E205A3
:104480008091790590917A0501969093E3050197C3
:104490008F5F8093E4051092E5051092E605109277
:1044A000E7051092E8051092E9052093EA0500D08F
:1044B00000D08CE090E0A0E0B0E0EDB7FEB78183E3
:1044C0009283A383B4838BEE95E06CEB7AE020E3D8
:1044D00030E040E050E004E411E0F8E1EF2EF6E0D7
:1044E000FF2EE0E2AE2EB12CC12CD12C0E940A2B63
:1044F0008091100B8093F7058091110B8093F80544
:104500008091120B8093F9058091130B8093FA052B
:1045100080917D0590917E059093FC058093FB052D
:104520009093040680930306509080056090810567
:10453000709082058090830590908405A0908505F9
:10454000B090860510918705BDEFCB2EB5E0DB2E30
:10455000A5E0EA2EA6E0FA2EC0E0D0E00F900F9082
:104560000F900F90252D362D472D582D692D7A2D22
:104570008B2D912F0C2F0E94CD8DF60121936F0171
:10458000F70121937F012896C033D10559F786E1C1
:1045900080930B068EEF80930C068DEF80930D06B3
:1045A00010920E0688E180930F068091780B90910F
:1045B000790B63E270E040E05BE027EF35E00FED60
:1045C00015E0F8E1EF2EF12CE3E0CE2EE6E0DE2E52
:1045D0000E947C42892B49F484E59BE00E94774845
:1045E00082E060E50E94510972C08091780B909141
:1045F000790B009180051091810520918205309101
:1046000083054091840550918505609186057091E0
:104610008705E0907D05F0907E050E960E94A82902
:104620008091780B9091790B63E470E00E943E09D1
:10463000809180052091810530918205409183050C
:1046400060918405E0918505A0918605109187050C
:10465000B82FBF5F91E0B81708F090E0F92FF20F84
:1046600081E0F21708F080E0782F730F81E0731774
:1046700008F080E0582F540F81E0541708F080E0D4
:10468000382F360F81E0361708F080E0282F2E0FE4
:1046900081E02E1708F080E0982F9A0F81E09A179A
:1046A00008F080E0810FB0938005F093810570934E
:1046B000820550938305309384052093850590935C
:1046C00086058093870584E59BE00E947748DF910B
:1046D000CF911F910F91FF90EF90DF90CF90BF90FF
:1046E000AF909F908F907F906F905F9008956F92A2
:1046F0007F928F929F92AF92BF92CF92DF92EF9272
:10470000FF920F931F93CF93DF93282FAB018091DC
:10471000102D281709F0C6C080918B05882339F029
:104720008091460690914706622F0E94F147809142
:10473000D92B81FFC3C080918B058823B9F080916C
:104740004406909145069C01D901E1EEF6E280E134
:1047500001900D928150E1F7E0914406F0914506F9
:104760008091012790910227938B828B0091DE2B01
:104770001091DF2BA090C926B090CA26992493945B
:1047800082E0882EBCE86B2EB5E07B2EAEE8CA2E08
:10479000A5E0DA2E20918B05222369F0809191010A
:1047A000873049F480918805882329F4F8018081B5
:1047B000863109F481C0F8018081853119F4909225
:1047C000890539C090919101953019F0973071F5B4
:1047D00003C0843181F172C0873159F1222331F154
:1047E000863109F06BC0809291018AE496E00E94C4
:1047F000BE3210927A051092790510927C051092C3
:104800007B0586E69BE00E94774880919301882390
:1048100021F484E59BE00E94774890929301909266
:1048200092011092880510927F0505C0863119F01B
:1048300045C090928805F801848180938C0583811E
:10484000F3018183F801828580938E058185F601CD
:104850008183F8018085F6018283F8018781F60162
:104860008383F8018681F6018483F8018581F6014E
:104870008583F801F384EE248485E701C80FD11DF8
:10488000C8010D96BE010E94F41AC5010D97C81704
:10489000D907A0F42D960C0F1D1F2D975C01AC1AA3
:1048A000BD0A78CF283851F480918B05882321F0F8
:1048B00080919101873011F00E94211DDF91CF91ED
:1048C0001F910F91FF90EF90DF90CF90BF90AF902E
:1048D0009F908F907F906F9008950F931F93CF9329
:1048E000DF93EC01FA01288139812115310529F086
:1048F0002F5B354009F06DC023C08091820B9091F1
:10490000830B90934906809348060081118180E0D3
:1049100090E060E070E040E050E00E94F059FC015F
:104920009093450680934406108B018B8AE496E0B1
:104930000E94BE328FEB95E09983888381E04CC062
:10494000862FBA010E94772390917805913091F7D4
:104950001092780582E08093910110927A0510926E
:10496000790510927C0510927B0510927E051092BD
:104970007D0510927F05109280051092810510929E
:10498000820510928305109284051092850510927D
:1049900086051092870590939301109288051092D6
:1049A000890510928A05909392018AE496E00E940C
:1049B000BE32E0914406F091450680E1DF011D9290
:1049C0008A95E9F7E0914406F0914506138A128A28
:1049D000B1CF1982188283E0DF91CF911F910F919F
:1049E0000895CF92DF92EF92FF920F931F93CF9390
:1049F000DF93EC0188819981009729F08A5A9540CC
:104A000009F0DAC0CDC08091820B9091830B909316
:104A1000490680934806FA01728163818081918101
:104A200040E050E00E94F059909345068093440680
:104A300010927E0510927D051092800510928105DE
:104A400010928205109283051092840510928505BC
:104A5000109286051092870510927A0510927905BA
:104A600010927C0510927B05109288058AE496E0EE
:104A70000E94BE3284E59BE063E470E00E94B2488D
:104A8000019709F099C08091580B9091590B909320
:104A9000790B8093780B009180051091810520910E
:104AA0008205309183054091840550918505609180
:104AB000860570918705E0907D05F0907E05C09099
:104AC0007905D0907A050E941A2E80918005209158
:104AD0008105309182054091830560918405E091C4
:104AE0008505A091860510918705B82FBF5F91E0DD
:104AF000B81708F090E0F92FF20F81E0F21708F0F4
:104B000080E0782F730F81E0731708F080E0582F52
:104B1000540F81E0541708F080E0382F360F81E001
:104B2000361708F080E0282F2E0F81E02E1708F0AE
:104B300080E0982F9A0F81E09A1708F080E0810FAB
:104B4000B0938005F093810570938205509383059F
:104B5000309384052093850590938605809387057F
:104B60004091780B5091790BCA01DC01EFEBF5E035
:104B70005B968C915B978193119685E0EF3DF807EA
:104B8000B9F7CA0163E470E00E943E0984E59BE046
:104B90000E9477488AEA95E09983888381E00FC074
:104BA00080917805882319F01092780505C0862F2A
:104BB000BA010E947723EECF1982188283E0DF9139
:104BC000CF911F910F91FF90EF90DF90CF900895BC
:104BD0003F924F925F926F927F928F929F92AF928D
:104BE000BF92CF92DF92EF92FF920F931F93DF93CA
:104BF000CF9300D000D0CDB7DEB7FC017A836983B4
:104C00005A0180919101873009F0A5C080918005FB
:104C10008A30F9F4809181058823D9F48091820546
:104C20008823B9F480918305882399F480918405C1
:104C3000882379F480918505882359F4809186052D
:104C4000882339F480918705882319F40E94240A67
:104C500019C1828193819093450680934406909177
:104C60008B05A7EFB5E020E030E0992321F0F901B2
:104C7000E05FF44F03C0F901E450F54F80818C935D
:104C80002F5F3F4F11962430310579F780917D05D4
:104C900090917E059093FC058093FB05909304060C
:104CA00080930306309080054090810550908205E6
:104CB00060908305709084058090850590908605AE
:104CC00010918705BDEFCB2EB5E0DB2EA5E0EA2ED7
:104CD000A6E0FA2E1C821B82232D342D452D562D45
:104CE000672D782D892D912F0B810E94CD8DD601B6
:104CF0002D936D01F70121937F018B819C81089693
:104D00009C838B83C09741F787E180930B068EEFDE
:104D100080930C068DEF80930D06A0920E06B09244
:104D20000F0680919301882321F484E59BE00E9483
:104D3000774810929301FDE18F2E912C8A0C9B1CD9
:104D400084E59BE0B4010E94B248892B39F482E0EB
:104D500060E50E9451092FEF3FEF96C06090580B1D
:104D60007090590B80918B05882331F0C30165E168
:104D700070E040E05BE005C0C30165E170E04CEE2F
:104D80005AE027EF35E009811A817501E3E0CE2E64
:104D9000E6E0DE2E0E947C42892B29F484E59BE02C
:104DA0000E947748D4CFA0E1B0E0AA0EBB1EE090ED
:104DB0008005F09081050091820510918305209176
:104DC0008405309185054091860550918705C090F6
:104DD0007D05D0907E05C301B5010E944B2A8091CC
:104DE0008005209181053091820540918305609175
:104DF0008405E0918505A091860510918705B82F5F
:104E0000BF5F91E0B81708F090E0F92FF20F81E052
:104E1000F21708F080E0782F730F81E0731708F025
:104E200080E0582F540F81E0541708F080E0382FAD
:104E3000360F81E0361708F080E0282F2E0F81E032
:104E40002E1708F080E0982F9A0F81E09A1708F04B
:104E500080E0810FB0938005F09381057093820507
:104E600050938305309384052093850590938605A0
:104E700080938705C301B4010E943E0988E396E050
:104E80000E94754A20E030E0C9010F900F900F900A
:104E90000F90CF91DF911F910F91FF90EF90DF90D6
:104EA000CF90BF90AF909F908F907F906F905F90CA
:104EB0004F903F900895DF93CF9300D0CDB7DEB7EA
:104EC0009A8389836230D0F581E080938B0582E0FC
:104ED000809391016093C9018CE69BE068E070E0EB
:104EE0000E94B248892B51F18091700B9091710B07
:104EF000909341068093400682E79BE064E070E077
:104F00000E94B248892BD1F08091760B9091770B5B
:104F100090934306809342068091820B9091830B7D
:104F2000909347068093460687E891E0BE016F5F45
:104F30007F4F0E94244820E030E002C02FEF3FEF77
:104F4000C9010F900F90CF91DF910895DF93CF9318
:104F500000D000D0CDB7DEB710928B0529E02093AA
:104F600091019A8389837C836B838CE69BE068E064
:104F700070E00E94B248892BF9F08091700B9091FB
:104F8000710B909341068093400682E79BE064E0BA
:104F900070E00E94B248892B79F08091760B909155
:104FA000770B90934306809342068BE791E0BE0116
:104FB0006F5F7F4F0E9424480F900F900F900F90CB
:104FC000CF91DF9108953F924F925F926F927F92BF
:104FD0008F929F92AF92BF92CF92DF92EF92FF9209
:104FE0000F931F93DC01702E622E532E442E352E0C
:104FF000FC0161938EEF11968C93DF0111968DEF7A
:105000008183FD0131961196DC924F010894811C39
:10501000911CC18264010894C11CD11C9701402FCE
:10502000512F662D752D842D932D08E20E94CD8D74
:10503000F401218346010894811C911C9701472D9E
:10504000512F662D752D842D932D00E20E94CD8D5C
:10505000F601218364010894C11CD11C9701472DDE
:10506000512F662D752D842D932D08E10E94CD8D35
:10507000F401218346010894811C911C9701472D5E
:10508000512F662D752D842D932D00E10E94CD8D1D
:10509000F601218364010894C11CD11C9701472D9E
:1050A000512F662D752D842D932D08E00E94CD8DF6
:1050B000F4012183D6011196F601E182FD013196BA
:1050C0001196BC92A1823296CF011F910F91FF9051
:1050D000EF90DF90CF90BF90AF909F908F907F9098
:1050E0006F905F904F903F9008958F929F92AF92F4
:1050F000BF92CF92DF92EF92FF920F931F93DC014A
:10510000FC0161934901AA24BB2411968C92DF0112
:105110001196C12ED22EE32EFF24C182FD013196BD
:1051200011960C93DF0111965183FD013196119672
:105130004C93DF0111961182FD01319611961C925C
:10514000DF0111961182CD01019611968C92FC011E
:105150003196DC011196CC9201833296CF011F91DA
:105160000F91FF90EF90DF90CF90BF90AF909F9006
:105170008F900895AF92BF92CF92DF92EF92FF92FD
:105180000F931F93E62F670166E1780189019A0169
:105190004E2F572F7CE0A72EB12C0E94E32760E012
:1051A00040E050E000E010E020E030E00E94752890
:1051B0001F910F91FF90EF90DF90CF90BF90AF9035
:1051C00008956F927F928F929F92AF92BF92CF92EB
:1051D000DF92EF92FF920F931F93CF93DF93762E80
:1051E000672E450166E1EFE1AE2EB12C0E94E32768
:1051F00063E0A40103E110E020E030E00E947528A4
:10520000DC01FC018EEF81938FEF11968C93119747
:1052100080E18183272D362DC901EC01FD019D011F
:10522000205F3F4F899183833196E217F307D1F7CF
:10523000DF91CF911F910F91FF90EF90DF90CF9072
:10524000BF90AF909F908F907F906F9008952F9216
:105250003F924F925F927F928F929F92AF92BF92B6
:10526000CF92DF92EF92FF920F931F93DF93CF9332
:10527000CDB7DEB71B012A017C2DED2DFE2DAF2D04
:10528000B02F712EA90165012EE030E0420E531EB1
:1052900066E1E72EFE2E0F2F1A2F2B2F372D5201EE
:1052A0000E94E32744EF5FEF440E551E820120E089
:1052B00030E04EEF5FEF440E551E60E1A4010E9406
:1052C0007528FC0150824182DC0120E030E009C0F9
:1052D000F101E20FF31F808111968C9311972F5FDC
:1052E0003F4F11962415350598F3CF91DF911F910B
:1052F0000F91FF90EF90DF90CF90BF90AF909F9075
:105300008F907F905F904F903F902F900895AF9235
:10531000BF92CF92DF92EF92FF920F931F93E62FEF
:10532000670164E1780189019A014E2F572FF1E05E
:10533000AF2EB12C0E94E327FC0181E080831F91F6
:105340000F91FF90EF90DF90CF90BF90AF900895B6
:105350002F923F924F925F926F927F928F929F9285
:10536000AF92BF92CF92DF92EF92FF920F931F9373
:10537000DF93CF9300D0CDB7DEB7902E712E622E83
:10538000532E442E352E262E7983EA828F2C66E109
:10539000E02EF12E022F132F242F352F422D572FC1
:1053A000CA80D82CA8E2AA2EB12C0E94E327FC01C7
:1053B000DC018D927D01BA81B18367010894C11C23
:1053C000D11C292D372D462D552D642D732D822D61
:1053D000998108E20E94CD8DF7012183760108941E
:1053E000E11CF11C292D372D462D552D642D732DD3
:1053F000822D998100E20E94CD8DD60111962C93C9
:1054000067010894C11CD11C292D372D462D552D1F
:10541000642D732D822D998108E10E94CD8DF701B5
:10542000218376010894E11CF11C292D372D462D8E
:10543000552D642D732D822D998100E10E94CD8D13
:10544000D60111962C93292D372D462D552D642DDF
:10545000732D822D998108E00E94CD8DF701218363
:105460000894E11CF11CD70111969C920F900F90AB
:10547000CF91DF911F910F91FF90EF90DF90CF9030
:10548000BF90AF909F908F907F906F905F904F9064
:105490003F902F9008952F923F924F925F926F927C
:1054A0007F928F929F92AF92BF92CF92DF92EF92B4
:1054B000FF920F931F93DF93CF9300D0CDB7DEB74A
:1054C0005B019E2C7F2C602E512E422E332E242EDB
:1054D0005983CA828D2C67E10E94E327FC01DC011D
:1054E0008D927D01BA81B18367010894C11CD11CE2
:1054F000292D372D462D552D642D732D822D998103
:1055000008E20E94CD8DF701218376010894E11C09
:10551000F11C292D372D462D552D642D732D822DEF
:10552000998100E20E94CD8DD60111962C936701DE
:105530000894C11CD11C292D372D462D552D642DC5
:10554000732D822D998108E10E94CD8DF701218371
:1055500076010894E11CF11C292D372D462D552D7F
:10556000642D732D822D998100E10E94CD8DD6018D
:1055700011962C93292D372D462D552D642D732DE5
:10558000822D998108E00E94CD8DF7012183089436
:10559000E11CF11CD70111969C920F900F90CF91B6
:1055A000DF911F910F91FF90EF90DF90CF90BF9010
:1055B000AF909F908F907F906F905F904F903F90B3
:1055C0002F9008958F929F92AF92BF92CF92DF92C9
:1055D000EF92FF920F931F93A62FF7019C2C8A2C1A
:1055E00065E1780189019A014A2F572F6F01B2E0D6
:1055F000AB2EB12C0E94E327FC01908281821F9187
:105600000F91FF90EF90DF90CF90BF90AF909F9061
:105610008F9008952F923F924F925F926F927F9258
:105620008F929F92AF92BF92CF92DF92EF92FF92B2
:105630000F931F93DF93CF93CDB7DEB7CA53D340F9
:105640000FB6F894DEBF0FBECDBFC15DDC4F8883BF
:10565000CF52D340C05DDC4F9883C053D340CF5C62
:10566000DC4F6883C153D340CE5CDC4F7883C25398
:10567000D340C55DDC4F288339834A835B83CB529B
:10568000D340302E212ECD5CDC4FE882C353D34073
:10569000CC5CDC4FF882C453D34025013601C15B9A
:1056A000DC4F88819981AA81BB81CF54D3408F710F
:1056B0009070A070B070C15BDC4F288139814A8145
:1056C0005B81CF54D34015E0569547953795279584
:1056D0001A95D1F70097A105B10519F4DA01C901AE
:1056E00005C0DA01C9010196A11DB11D0396A11DD6
:1056F000B11DF5E0880F991FAA1FBB1FFA95D1F7BE
:105700008C01A32DB22DFD0101900020E9F7319706
:10571000EA1BFB0BC75DDC4F59824882C952D3405C
:10572000E40DF51DE00FF11FCE010196BF010E94AF
:10573000B248892B09F46BC1CD80DE80A32DB22D38
:10574000FD0101900020E9F73197EA1BFB0BC75DD3
:10575000DC4FA881B981C952D340EA0FFB1FE00F8B
:10576000F11FC60160E070E0AF010E946694C114B1
:10577000D10409F44CC1C55DDC4F88819981CB52BD
:10578000D340C95DDC4F99838883C752D3408E01D3
:10579000095F1F4FC801CF5CDC4F6881C153D34004
:1057A000CE5CDC4F7881C253D340C55DDC4F48816D
:1057B0005981CB52D3400E94E034E32DF22DDF011A
:1057C0000D900020E9F71197AE1BBF0BC801632DA8
:1057D000722DAD010E948034C801CD5CDC4F688120
:1057E000C353D340CC5CDC4F7881C453D340A20177
:1057F0000E948034C801B60140E250E00E94833428
:10580000882499245401D601A05CBF4FCB5CDC4FA7
:10581000B983A883C553D340C601805A9F4FC95C42
:10582000DC4F99838883C753D340D6019096C75CD9
:10583000DC4FB983A883C953D340C15BDC4F888157
:105840009981AA81BB81CF54D34088169906AA06B4
:10585000BB0608F0B4C0CB5CDC4FA881B981C5534E
:10586000D340F60180E201900D928150E1F7E32DE3
:10587000F22DDF010D900020E9F71197AE1BBF0B51
:10588000C95CDC4F8881C753D340C85CDC4F98812A
:10589000C853D340632D722DAD010E944B94A32DAC
:1058A000B22DFD0101900020E9F7EA1BFB0BE15A44
:1058B000FF4FEC0DFD1DCF01CD5CDC4F6881C35364
:1058C000D340CC5CDC4F7881C453D340C75DDC4F00
:1058D0004881C952D340C65DDC4F5881CA52D3407B
:1058E0000E944B94E32DF22DDF010D900020E9F78B
:1058F000AE1BBF0B5F96C75DDC4F88819981C95293
:10590000D340A80FB91FCF5CDC4F8881C153D3406F
:10591000CE5CDC4F9881C253D340C95DDC4F6881B7
:105920007981C752D340CB5CDC4F48815981C55344
:10593000D3409D01C75CDC4F08811981C953D34016
:10594000E0E2EE2EF12C0E949035CF5CDC4F888196
:10595000C153D340CE5CDC4F9881C253D340C95D64
:10596000DC4F68817981C752D340A60120E230E044
:1059700086010E949035E32DF22DDF010D9000206D
:10598000E9F7AE1BBF0BA15ABF4FA40DB51DA80D63
:10599000B91DAC0DBD1DC75CDC4FE881F981C95351
:1059A000D34080E201900D928150E1F780E290E0D7
:1059B000A0E0B0E0880E991EAA1EBB1E3ECFA32D0C
:1059C000B22DFD0101900020E9F7EA1BFB0BE15A23
:1059D000FF4FE40DF51DEC0DFD1DC15DDC4F888111
:1059E000CF52D340C05DDC4F9881C053D340BF013C
:1059F000C15BDC4F48815981CF54D3400E944B9406
:105A0000CE0101960E94774821E030E002C02FEFDE
:105A10003FEFC901C65CDC4F0FB6F894DEBF0FBE86
:105A2000CDBFCF91DF911F910F91FF90EF90DF904D
:105A3000CF90BF90AF909F908F907F906F905F902E
:105A40004F903F902F9008953F924F925F926F92A8
:105A50007F928F929F92AF92BF92CF92DF92EF92FE
:105A6000FF920F931F93DF93CF9300D0CDB7DEB794
:105A70002B015A834983322E7C2DED2D9701A801ED
:105A80006401632C7724A6E3B0E06A0E7B1E66E116
:105A90007501072F1E2F53010E94E327E4EFFFEF4C
:105AA0006E0E7F1E882477FC8094982C61E04E89CE
:105AB0005F89940183010E9475286C018EEFD601E5
:105AC0008D938D018DEFF60181837D010894E11C9A
:105AD000F11C41145104B1F50E940C6F292F33279A
