:100000000C9491080C94B0080C94B0080C94B008AF
:100010000C94B0080C94B0080C94B0080C94B00880
:100020000C94B0080C9449680C94B0080C94B00877
:100030000C94A0730C94B0080C94B0080C948973C1
:100040000C94DF6B0C94B0080C94B0080C94B008BE
:100050000C942D6C0C94B0080C94216C0C94B0088A
:100060000C94B0080C94B0080C94B0080C94B00830
:100070000C946B6C0C94B0080C945F6C0C94B008EE
:100080000C9406850C94B0080C94B008C6A5636364
:10009000F8847C7CEE997777F68D7B7BFF0DF2F20E
:1000A000D6BD6B6BDEB16F6F9154C5C560503030FB
:1000B00002030101CEA96767567D2B2BE719FEFECF
:1000C000B562D7D74DE6ABABEC9A76768F45CACA08
:1000D0001F9D82828940C9C9FA877D7DEF15FAFA92
:1000E000B2EB59598EC94747FB0BF0F041ECADAD6F
:1000F000B367D4D45FFDA2A245EAAFAF23BF9C9CF7
:1001000053F7A4A4E49672729B5BC0C075C2B7B7E4
:10011000E11CFDFD3DAE93934C6A26266C5A3636A3
:100120007E413F3FF502F7F7834FCCCC685C343417
:1001300051F4A5A5D134E5E5F908F1F1E293717127
:10014000AB73D8D8625331312A3F1515080C04041B
:100150009552C7C7466523239D5EC3C33028181830
:1001600037A196960A0F05052FB59A9A0E0907072B
:10017000243612121B9B8080DF3DE2E2CD26EBEBA2
:100180004E6927277FCDB2B2EA9F7575121B090908
:100190001D9E838358742C2C342E1A1A362D1B1B4B
:1001A000DCB26E6EB4EE5A5A5BFBA0A0A4F65252BB
:1001B000764D3B3BB761D6D67DCEB3B3527B292972
:1001C000DD3EE3E35E712F2F13978484A6F553532E
:1001D000B968D1D100000000C12CEDED40602020B5
:1001E000E31FFCFC79C8B1B1B6ED5B5BD4BE6A6AB3
:1001F0008D46CBCB67D9BEBE724B393994DE4A4AA5
:1002000098D44C4CB0E85858854ACFCFBB6BD0D06F
:10021000C52AEFEF4FE5AAAAED16FBFB86C54343BF
:100220009AD74D4D66553333119485858ACF454510
:10023000E910F9F904060202FE817F7FA0F0505018
:1002400078443C3C25BA9F9F4BE3A8A8A2F35151A8
:100250005DFEA3A380C04040058A8F8F3FAD929280
:1002600021BC9D9D70483838F104F5F563DFBCBCB6
:1002700077C1B6B6AF75DADA4263212120301010AB
:10028000E51AFFFFFD0EF3F3BF6DD2D2814CCDCD49
:1002900018140C0C26351313C32FECECBEE15F5F72
:1002A00035A2979788CC44442E3917179357C4C466
:1002B00055F2A7A7FC827E7E7A473D3DC8AC6464B8
:1002C000BAE75D5D322B1919E6957373C0A06060C3
:1002D000199881819ED14F4FA37FDCDC4466222296
:1002E000547E2A2A3BAB90900B8388888CCA464662
:1002F000C729EEEE6BD3B8B8283C1414A779DEDE1C
:10030000BCE25E5E161D0B0BAD76DBDBDB3BE0E09B
:1003100064563232744E3A3A141E0A0A92DB494944
:100320000C0A0606486C2424B8E45C5C9F5DC2C2DB
:10033000BD6ED3D343EFACACC4A6626239A8919131
:1003400031A49595D337E4E4F28B7979D532E7E798
:100350008B43C8C86E593737DAB76D6D018C8D8DF8
:10036000B164D5D59CD24E4E49E0A9A9D8B46C6CE5
:10037000ACFA5656F307F4F4CF25EAEACAAF65653E
:10038000F48E7A7A47E9AEAE101808086FD5BABA7B
:10039000F08878784A6F25255C722E2E38241C1C34
:1003A00057F1A6A673C7B4B49751C6C6CB23E8E8E5
:1003B000A17CDDDDE89C74743E211F1F96DD4B4B54
:1003C00061DCBDBD0D868B8B0F858A8AE0907070D5
:1003D0007C423E3E71C4B5B5CCAA666690D848480A
:1003E00006050303F701F6F61C120E0EC2A36161A7
:1003F0006A5F3535AEF9575769D0B9B91791868616
:100400009958C1C13A271D1D27B99E9ED938E1E1EF
:10041000EB13F8F82BB3989822331111D2BB69690A
:10042000A970D9D907898E8E33A794942DB69B9B3A
:100430003C221E1E15928787C920E9E98749CECE46
:10044000AAFF555550782828A57ADFDF038F8C8CBA
:1004500059F8A1A1098089891A170D0D65DABFBF66
:10046000D731E6E684C64242D0B8686882C34141CB
:1004700029B099995A772D2D1E110F0F7BCBB0B053
:10048000A8FC54546DD6BBBB2C3A161663C6A563A4
:100490007CF8847C77EE99777BF68D7BF2FF0DF20A
:1004A0006BD6BD6B6FDEB16FC59154C530605030F7
:1004B0000102030167CEA9672B567D2BFEE719FECB
:1004C000D7B562D7AB4DE6AB76EC9A76CA8F45CA04
:1004D000821F9D82C98940C97DFA877DFAEF15FA8E
:1004E00059B2EB59478EC947F0FB0BF0AD41ECAD6B
:1004F000D4B367D4A25FFDA2AF45EAAF9C23BF9CF3
:10050000A453F7A472E49672C09B5BC0B775C2B7E0
:10051000FDE11CFD933DAE93264C6A26366C5A369F
:100520003F7E413FF7F502F7CC834FCC34685C3413
:10053000A551F4A5E5D134E5F1F908F171E2937123
:10054000D8AB73D831625331152A3F1504080C0417
:10055000C79552C723466523C39D5EC3183028182C
:100560009637A196050A0F059A2FB59A070E090727
:1005700012243612801B9B80E2DF3DE2EBCD26EB9E
:10058000274E6927B27FCDB275EA9F7509121B0904
:10059000831D9E832C58742C1A342E1A1B362D1B47
:1005A0006EDCB26E5AB4EE5AA05BFBA052A4F652B7
:1005B0003B764D3BD6B761D6B37DCEB329527B296E
:1005C000E3DD3EE32F5E712F8413978453A6F5532A
:1005D000D1B968D100000000EDC12CED20406020B1
:1005E000FCE31FFCB179C8B15BB6ED5B6AD4BE6AAF
:1005F000CB8D46CBBE67D9BE39724B394A94DE4AA1
:100600004C98D44C58B0E858CF854ACFD0BB6BD06B
:10061000EFC52AEFAA4FE5AAFBED16FB4386C543BB
:100620004D9AD74D3366553385119485458ACF450C
:10063000F9E910F9020406027FFE817F50A0F05014
:100640003C78443C9F25BA9FA84BE3A851A2F351A4
:10065000A35DFEA34080C0408F058A8F923FAD927C
:100660009D21BC9D38704838F5F104F5BC63DFBCB2
:10067000B677C1B6DAAF75DA2142632110203010A7
:10068000FFE51AFFF3FD0EF3D2BF6DD2CD814CCD45
:100690000C18140C13263513ECC32FEC5FBEE15F6E
:1006A0009735A2974488CC44172E3917C49357C462
:1006B000A755F2A77EFC827E3D7A473D64C8AC64B4
:1006C0005DBAE75D19322B1973E6957360C0A060BF
:1006D000811998814F9ED14FDCA37FDC2244662292
:1006E0002A547E2A903BAB90880B8388468CCA465E
:1006F000EEC729EEB86BD3B814283C14DEA779DE18
:100700005EBCE25E0B161D0BDBAD76DBE0DB3BE097
:10071000326456323A744E3A0A141E0A4992DB4940
:10072000060C0A0624486C245CB8E45CC29F5DC2D7
:10073000D3BD6ED3AC43EFAC62C4A6629139A8912D
:100740009531A495E4D337E479F28B79E7D532E794
:10075000C88B43C8376E59376DDAB76D8D018C8DF4
:10076000D5B164D54E9CD24EA949E0A96CD8B46CE1
:1007700056ACFA56F4F307F4EACF25EA65CAAF653A
:100780007AF48E7AAE47E9AE08101808BA6FD5BA77
:1007900078F08878254A6F252E5C722E1C38241C30
:1007A000A657F1A6B473C7B4C69751C6E8CB23E8E1
:1007B000DDA17CDD74E89C741F3E211F4B96DD4B50
:1007C000BD61DCBD8B0D868B8A0F858A70E09070D1
:1007D0003E7C423EB571C4B566CCAA664890D84806
:1007E00003060503F6F701F60E1C120E61C2A361A3
:1007F000356A5F3557AEF957B969D0B98617918612
:10080000C19958C11D3A271D9E27B99EE1D938E1EB
:10081000F8EB13F8982BB3981122331169D2BB6906
:10082000D9A970D98E07898E9433A7949B2DB69B36
:100830001E3C221E87159287E9C920E9CE8749CE42
:1008400055AAFF5528507828DFA57ADF8C038F8CB6
:10085000A159F8A1890980890D1A170DBF65DABF62
:10086000E6D731E64284C64268D0B8684182C341C7
:100870009929B0992D5A772D0F1E110FB07BCBB04F
:1008800054A8FC54BB6DD6BB162C3A166363C6A5A0
:100890007C7CF8847777EE997B7BF68DF2F2FF0D06
:1008A0006B6BD6BD6F6FDEB1C5C5915430306050F3
:1008B000010102036767CEA92B2B567DFEFEE719C7
:1008C000D7D7B562ABAB4DE67676EC9ACACA8F4500
:1008D00082821F9DC9C989407D7DFA87FAFAEF158A
:1008E0005959B2EB47478EC9F0F0FB0BADAD41EC67
:1008F000D4D4B367A2A25FFDAFAF45EA9C9C23BFEF
:10090000A4A453F77272E496C0C09B5BB7B775C2DC
:10091000FDFDE11C93933DAE26264C6A36366C5A9B
:100920003F3F7E41F7F7F502CCCC834F3434685C0F
:10093000A5A551F4E5E5D134F1F1F9087171E2931F
:10094000D8D8AB733131625315152A3F0404080C13
:10095000C7C7955223234665C3C39D5E1818302828
:10096000969637A105050A0F9A9A2FB507070E0923
:100970001212243680801B9BE2E2DF3DEBEBCD269A
:1009800027274E69B2B27FCD7575EA9F0909121B00
:1009900083831D9E2C2C58741A1A342E1B1B362D43
:1009A0006E6EDCB25A5AB4EEA0A05BFB5252A4F6B3
:1009B0003B3B764DD6D6B761B3B37DCE2929527B6A
:1009C000E3E3DD3E2F2F5E71848413975353A6F526
:1009D000D1D1B96800000000EDEDC12C20204060AD
:1009E000FCFCE31FB1B179C85B5BB6ED6A6AD4BEAB
:1009F000CBCB8D46BEBE67D93939724B4A4A94DE9D
:100A00004C4C98D45858B0E8CFCF854AD0D0BB6B67
:100A1000EFEFC52AAAAA4FE5FBFBED16434386C5B7
:100A20004D4D9AD7333366558585119445458ACF08
:100A3000F9F9E910020204067F7FFE815050A0F010
:100A40003C3C78449F9F25BAA8A84BE35151A2F3A0
:100A5000A3A35DFE404080C08F8F058A92923FAD78
:100A60009D9D21BC38387048F5F5F104BCBC63DFAE
:100A7000B6B677C1DADAAF752121426310102030A3
:100A8000FFFFE51AF3F3FD0ED2D2BF6DCDCD814C41
:100A90000C0C181413132635ECECC32F5F5FBEE16A
:100AA000979735A2444488CC17172E39C4C493575E
:100AB000A7A755F27E7EFC823D3D7A476464C8ACB0
:100AC0005D5DBAE71919322B7373E6956060C0A0BB
:100AD000818119984F4F9ED1DCDCA37F222244668E
:100AE0002A2A547E90903BAB88880B8346468CCA5A
:100AF000EEEEC729B8B86BD31414283CDEDEA77914
:100B00005E5EBCE20B0B161DDBDBAD76E0E0DB3B93
:100B1000323264563A3A744E0A0A141E494992DB3C
:100B200006060C0A2424486C5C5CB8E4C2C29F5DD3
:100B3000D3D3BD6EACAC43EF6262C4A6919139A829
:100B4000959531A4E4E4D3377979F28BE7E7D53290
:100B5000C8C88B4337376E596D6DDAB78D8D018CF0
:100B6000D5D5B1644E4E9CD2A9A949E06C6CD8B4DD
:100B70005656ACFAF4F4F307EAEACF256565CAAF36
:100B80007A7AF48EAEAE47E908081018BABA6FD573
:100B90007878F08825254A6F2E2E5C721C1C38242C
:100BA000A6A657F1B4B473C7C6C69751E8E8CB23DD
:100BB000DDDDA17C7474E89C1F1F3E214B4B96DD4C
:100BC000BDBD61DC8B8B0D868A8A0F857070E090CD
:100BD0003E3E7C42B5B571C46666CCAA484890D802
:100BE00003030605F6F6F7010E0E1C126161C2A39F
:100BF00035356A5F5757AEF9B9B969D0868617910E
:100C0000C1C199581D1D3A279E9E27B9E1E1D938E7
:100C1000F8F8EB1398982BB3111122336969D2BB02
:100C2000D9D9A9708E8E0789949433A79B9B2DB632
:100C30001E1E3C2287871592E9E9C920CECE87493E
:100C40005555AAFF28285078DFDFA57A8C8C038FB2
:100C5000A1A159F8898909800D0D1A17BFBF65DA5E
:100C6000E6E6D731424284C66868D0B8414182C3C3
:100C7000999929B02D2D5A770F0F1E11B0B07BCB4B
:100C80005454A8FCBBBB6DD616162C3AA56363C69C
:100C9000847C7CF8997777EE8D7B7BF60DF2F2FF02
:100CA000BD6B6BD6B16F6FDE54C5C59150303060EF
:100CB00003010102A96767CE7D2B2B5619FEFEE7C3
:100CC00062D7D7B5E6ABAB4D9A7676EC45CACA8FFC
:100CD0009D82821F40C9C989877D7DFA15FAFAEF86
:100CE000EB5959B2C947478E0BF0F0FBECADAD4163
:100CF00067D4D4B3FDA2A25FEAAFAF45BF9C9C23EB
:100D0000F7A4A453967272E45BC0C09BC2B7B775D8
:100D10001CFDFDE1AE93933D6A26264C5A36366C97
:100D2000413F3F7E02F7F7F54FCCCC835C3434680B
:100D3000F4A5A55134E5E5D108F1F1F9937171E21B
:100D400073D8D8AB533131623F15152A0C0404080F
:100D500052C7C795652323465EC3C39D2818183024
:100D6000A19696370F05050AB59A9A2F0907070E1F
:100D7000361212249B80801B3DE2E2DF26EBEBCD96
:100D80006927274ECDB2B27F9F7575EA1B090912FC
:100D90009E83831D742C2C582E1A1A342D1B1B363F
:100DA000B26E6EDCEE5A5AB4FBA0A05BF65252A4AF
:100DB0004D3B3B7661D6D6B7CEB3B37D7B29295266
:100DC0003EE3E3DD712F2F5E97848413F55353A622
:100DD00068D1D1B9000000002CEDEDC160202040A9
:100DE0001FFCFCE3C8B1B179ED5B5BB6BE6A6AD4A7
:100DF00046CBCB8DD9BEBE674B393972DE4A4A9499
:100E0000D44C4C98E85858B04ACFCF856BD0D0BB63
:100E10002AEFEFC5E5AAAA4F16FBFBEDC5434386B3
:100E2000D74D4D9A5533336694858511CF45458A04
:100E300010F9F9E906020204817F7FFEF05050A00C
:100E4000443C3C78BA9F9F25E3A8A84BF35151A29C
:100E5000FEA3A35DC04040808A8F8F05AD92923F74
:100E6000BC9D9D214838387004F5F5F1DFBCBC63AA
:100E7000C1B6B67775DADAAF63212142301010209F
:100E80001AFFFFE50EF3F3FD6DD2D2BF4CCDCD813D
:100E9000140C0C18351313262FECECC3E15F5FBE66
:100EA000A2979735CC4444883917172E57C4C4935A
:100EB000F2A7A755827E7EFC473D3D7AAC6464C8AC
:100EC000E75D5DBA2B191932957373E6A06060C0B7
:100ED00098818119D14F4F9E7FDCDCA3662222448A
:100EE0007E2A2A54AB90903B8388880BCA46468C56
:100EF00029EEEEC7D3B8B86B3C14142879DEDEA710
:100F0000E25E5EBC1D0B0B1676DBDBAD3BE0E0DB8F
:100F1000563232644E3A3A741E0A0A14DB49499238
:100F20000A06060C6C242448E45C5CB85DC2C29FCF
:100F30006ED3D3BDEFACAC43A66262C4A891913925
:100F4000A495953137E4E4D38B7979F232E7E7D58C
:100F500043C8C88B5937376EB76D6DDA8C8D8D01EC
:100F600064D5D5B1D24E4E9CE0A9A949B46C6CD8D9
:100F7000FA5656AC07F4F4F325EAEACFAF6565CA32
:100F80008E7A7AF4E9AEAE4718080810D5BABA6F6F
:100F9000887878F06F25254A722E2E5C241C1C3828
:100FA000F1A6A657C7B4B47351C6C69723E8E8CBD9
:100FB0007CDDDDA19C7474E8211F1F3EDD4B4B9648
:100FC000DCBDBD61868B8B0D858A8A0F907070E0C9
:100FD000423E3E7CC4B5B571AA6666CCD8484890FE
:100FE0000503030601F6F6F7120E0E1CA36161C29B
:100FF0005F35356AF95757AED0B9B969918686170A
:1010000058C1C199271D1D3AB99E9E2738E1E1D9E3
:1010100013F8F8EBB398982B33111122BB6969D2FE
:1010200070D9D9A9898E8E07A7949433B69B9B2D2E
:10103000221E1E3C9287871520E9E9C949CECE873A
:10104000FF5555AA782828507ADFDFA58F8C8C03AE
:10105000F8A1A15980898909170D0D1ADABFBF655A
:1010600031E6E6D7C6424284B86868D0C3414182BF
:10107000B0999929772D2D5A110F0F1ECBB0B07B47
:10108000FC5454A8D6BBBB6D3A16162C6E74706413
:101090002070726F6365737320737461727465641A
:1010A0000A0008000000000000000000000000002E
:1010B0000000000000000000000000000000000030
:1010C0000000000000000000000000000000000020
:1010D0000000257325730A004F6E6C696E650A0067
:1010E0000A002C20636865636B207261746520259B
:1010F0007520487A0025732025732C206368616E63
:101100006E656C202575000A2A2A2A2A2A2A2A4274
:101110006F6F74696E672025732A2A2A2A2A2A2A61
:101120000A0011241FBECFEFD0E4DEBFCDBF16E012
:10113000A0E0B1E0E0ECF3E201E00BBF02C00790F9
:101140000D92AC33B107D9F713E3ACE3B6E001C0BD
:101150001D92A73FB107E1F70E943A6B0C94DE9114
:101160000C940000CF93DF93EC0188819981863540
:10117000910509F440C08A35910509F450C0892BC6
:1011800009F0ADC080E291E090934F0680934E0647
:1011900086E098E3909351068093500687E099E0AB
:1011A000909353068093520680E09AE09093550600
:1011B0008093540680E091E1909357068093560601
:1011C00082E29FEF90935906809358068EEF97E145
:1011D00090935B0680935A0684EA96EC90935D06A2
:1011E00080935C068EE396E062EE74E00E94114507
:1011F00086E590E010C0683881F486E496E068E9FE
:101200007AE30E9411458EE496E061E571E10E9467
:1012100012268AE590E09983888381E063C08091FB
:101220005723681771F580915A2383FF03C08EE31B
:1012300096E052C080FF17C050933D0640933C0695
:101240008EE396E06DE770E00E9411456091260103
:101250007091270180913C0690913D064BE050E053
:101260000E946124D6CF81FFD4CFE0915B23F0911F
:101270005C238091582390915923E80FF91F108225
:10128000C8CF683831F68EE396E00E94AA43892BD6
:1012900081F0609126017091270180913C06909128
:1012A0003D064BE050E00E9461248EE396E00E94F0
:1012B000064586E496E00E94AA43892B09F4A9CF4B
:1012C00080913C0690913D060E94C20B8EE396E011
:1012D0000E940F4486E496E00E940F449ACF198240
:1012E000188283E0DF91CF9108959C01AB0181E0EA
:1012F000809365068091930690919406B9010E94AF
:10130000115487E896E067E771E00E94114508955F
:101310007F928F929F92AF92BF92CF92DF92EF9285
:10132000FF920F931F93782E862E8091710688234B
:1013300029F080917E06815080937E06909163060D
:10134000809164068093AB019093AC019090660607
:1013500010916706F0906806E0906906D0906A06E2
:10136000C0906B06B0906C06A0906D06292D312FB1
:101370004F2D5E2D6D2D7C2D8B2D9A2D08E20E9418
:1013800067872093AD01292D312F4F2D5E2D6D2DB7
:101390007C2D8B2D9A2D00E20E9467872093AE0151
:1013A000292D312F4F2D5E2D6D2D7C2D8B2D9A2DBE
:1013B00008E10E9467872093AF01292D312F4F2D1F
:1013C0005E2D6D2D7C2D8B2D9A2D00E10E9467875F
:1013D0002093B001292D312F4F2D5E2D6D2D7C2DA9
:1013E0008B2D9A2D08E00E9467872093B10190927F
:1013F000B20180E5881699F080918601882321F456
:101400008BEE97E00E94114281E0809386018BEE83
:1014100097E06FE070E00E944C42892B59F4809174
:1014200093069091940668EA71E04FE050E00E94C4
:10143000115430C08091EF079091F00790931008FD
:1014400080930F0800916606109167062091680648
:101450003091690640916A0650916B0660916C0666
:1014600070916D06E0906306F0906406C72CA82C7E
:101470000E94562960910F08709110088091930680
:10148000909194064FE050E00E9411548BEE97E04B
:101490000E94114281E080935E06809270061F9147
:1014A0000F91FF90EF90DF90CF90BF90AF909F9003
:1014B0008F907F900895CF92DF92EF92FF920F93DB
:1014C0001F9380918601882321F48BEE97E00E9480
:1014D000114281E08093860180918501882321F467
:1014E0008DEF97E00E94114281E08093850189E9A8
:1014F00096E00E94E12F80917106882309F48CC048
:101500008BEE97E069E170E00E944C42892B09F470
:1015100095C08091EF079091F00790931008809309
:101520000F080091660610916706209168063091B9
:10153000690640916A0650916B0660916C06709145
:101540006D06E0906306F09064060E942E2780915D
:1015500066062091670630916806409169066091A1
:101560006A06E0916B06A0916C0610916D06B82F8B
:10157000BF5F91E0B81708F090E0F92FF20F81E01B
:10158000F21708F080E0782F730F81E0731708F0EE
:1015900080E0582F540F81E0541708F080E0382F76
:1015A000360F81E0361708F080E0282F2E0F81E0FB
:1015B0002E1708F080E0982F9A0F81E09A1708F014
:1015C00080E0810FB0936606F0936706709368061B
:1015D0005093690630936A0620936B0690936C06CD
:1015E00080936D0680910F089091100869E170E07A
:1015F0000E94750982E08093840110926006109227
:101600005F06109262061092610610926E068BEED3
:1016100097E00E941142A1C01092600610925F06EE
:10162000109262061092610610926E068BEE97E0A1
:1016300063E470E00E944C42892B29F482E060E56B
:101640000E94880998C08091EF079091F0079093CD
:10165000100880930F08009166061091670620918C
:1016600068063091690640916A0650916B06609158
:101670006C0670916D06E0906306F0906406C09071
:101680005F06D09060060E943D2B809166062091F7
:101690006706309168064091690660916A06E0919C
:1016A0006B06A0916C0610916D06B82FBF5F91E09C
:1016B000B81708F090E0F92FF20F81E0F21708F068
:1016C00080E0782F730F81E0731708F080E0582FC7
:1016D000540F81E0541708F080E0382F360F81E076
:1016E000361708F080E0282F2E0F81E02E1708F023
:1016F00080E0982F9A0F81E09A1708F080E0810F20
:10170000B0936606F0936706709368065093690677
:1017100030936A0620936B0690936C0680936D0657
:1017200040910F0850911008CA01DC01E8E8F1E08F
:101730005B968C915B978193119681E0E83AF8076C
:10174000B9F7CA0163E470E00E9475098BEE97E077
:101750000E94114289E08093840188E080935A239B
:101760000E943040682F8093572380E090E040E053
:1017700050E00E948B411F910F91FF90EF90DF90FE
:10178000CF90089581E060E00E94880908950F934A
:101790001F93CF93DF93EB0109900020E9F7219786
:1017A000C61BD70B4091E9075091EA070D2FFA01AC
:1017B000D0831C2FC18390E09A012C0F3D1F0CC0D9
:1017C000FA01EA0FFB1F1282F901EA0FFB1FA60FB5
:1017D000B71F8C9184839F5FA92FB0E0AC17BD0722
:1017E00078F3F90102831383DF91CF911F910F9159
:1017F00008958F929F92AF92BF92CF92DF92EF9215
:10180000FF920F931F93DF93CF93CDB7DEB72C9743
:101810000FB6F894DEBF0FBECDBFFC0180818431CE
:1018200009F074C08181882309F070C08281882307
:1018300009F06CC083818C3009F068C0209161068A
:10184000909162068481891709F060C085818217B2
:1018500009F05CC08681882309F058C087818823FD
:1018600009F054C08085882309F050C08185882301
:1018700009F04CC08285882309F048C083858C30EC
:1018800009F044C0809171065E010894A11CB11C4E
:101890001CE0812E912C8E0E9F1E8823C1F0C50165
:1018A00066E672E040E350E028E231E00CEF11E040
:1018B000B0E2EB2EF12CACE0CA2ED12C0E947E2996
:1018C000C401B5014CE050E00E94078E17C0C5016D
:1018D00066E672E040E350E028E331E00CEF11E00F
:1018E000F0E2EF2EF12CECE0CE2ED12C0E947E29DE
:1018F000C401B5014CE050E00E94078E9C0190E0CD
:10190000232B09F091E081E0982701C090E0892F16
:101910002C960FB6F894DEBF0FBECDBFCF91DF91EE
:101920001F910F91FF90EF90DF90CF90BF90AF90FD
:101930009F908F900895CF92DF92EF92FF920F9336
:101940001F93DF93CF93CDB7DEB7C054D0400FB60F
:10195000F894DEBF0FBECDBFDE011196E8E8F1E0DE
:1019600080E201900D928150E1F7DE019196ECE169
:10197000F2E080E201900D928150E1F76091E90779
:101980007091EA0786E692E046E150E028E431E013
:101990008E010F5F1F4FF0E4EF2EF12CE0E3CE2E0F
:1019A000D12C0E947E29C05CDF4F0FB6F894DEBFB9
:1019B0000FBECDBFCF91DF911F910F91FF90EF90A0
:1019C000DF90CF900895AF92BF92CF92DF92EF92C7
:1019D000FF920F931F93DF93CF93CDB7DEB7C85617
:1019E000D0400FB6F894DEBF0FBECDBFDE01999692
:1019F000ECE1F2E080E201900D928150E1F7DE012E
:101A0000A75BBF4FE8E8F1E080E201900D928150C2
:101A1000E1F75E010894A11CB11CC50166E672E005
:101A200040E350E026E531E08E01075D1F4FB0E452
:101A3000EB2EF12CA8E2CA2ED12C0E947E29A8ED13
:101A4000B1E0F50180E101900D928150E1F7A8EE3F
:101A5000B1E0FE01719680E101900D928150E1F7B5
:101A600089A19AA1ABA1BCA18093B7019093B801C1
:101A7000A093B901B093BA018DA19EA1AFA1B8A561
:101A80008093C7019093C801A093C901B093CA0184
:101A9000C859DF4F0FB6F894DEBF0FBECDBFCF9150
:101AA000DF911F910F91FF90EF90DF90CF90BF904B
:101AB000AF9008956F927F928F929F92AF92BF9254
:101AC000CF92DF92EF92FF920F931F93DF93CF930A
:101AD000CDB7DEB7CD5CD3400FB6F894DEBF0FBEF6
:101AE000CDBF6C013B0140918401473009F0C7C074
:101AF000ABEBB1E020E030E080917106882321F06B
:101B0000F901E954FE4F03C0F901E953FE4F80810A
:101B10008C932F5F3F4F11962430310569F78091E8
:101B200075068093BF018093CB01809174068093EA
:101B3000C0018093CC01B6EC8B2EB1E09B2EA2EDC0
:101B4000AA2EA1E0BA2EEE24FF2420917606309131
:101B50007706409178065091790660917A067091E7
:101B60007B0680917C0690917D060E2D0E946787F2
:101B7000D4012C9320917606309177064091780617
:101B80005091790660917A0670917B0680917C066F
:101B900090917D060E946787F501208388E090E0A0
:101BA000E80EF91E0894810891080894A108B1086C
:101BB00090E3E916F10449F687E18093D3018EEFB3
:101BC0008093D4018DEF8093D501F0EFAF2EFFEF1E
:101BD000BF2EA60CB71C1A2D0B2DB092D601862D48
:101BE00080518093D70180918501882321F48DEF66
:101BF00097E00E941142109285018DEF97E0612FCE
:101C0000702F0E944C42892B09F43CC74091010877
:101C10005091020850935C2340935B23809171069E
:101C20009601285F3F4F830108501040882321F020
:101C3000CA0168ED71E003C0CA0168EE71E04BEBC8
:101C400051E0EBECEE2EE1E0FE2E0E94B83D892B38
:101C500019F48DEF97E006C2B0925923A092582351
:101C600082E080935A230E943040682F809357234C
:101C7000809195069091960640E050E0E4C58091F1
:101C80007106882309F4E2C5423019F0483009F0A2
:101C9000FFC0D6018C918E3F09F0F1C011968C9156
:101CA00011978D3F09F0EBC092968C91E82EFF249E
:101CB000E7FCF094E3E2F0E0EE0EFF1E6E147F040A
:101CC00008F4E0C0423081F40E94916B0E941F45ED
:101CD0000CE312E00E941C458F77D8018D938D0193
:101CE000B2E004341B07B1F78E0102551F4FC80143
:101CF0006CE372E048E050E00E940332F60142A13A
:101D0000552747FD50954D5D5F4FC801B6010E94B4
:101D1000A331F601EE0DFF1DE081EE2319F0E03155
:101D200009F0ADC087010F5F1F4F809184018230A1
:101D300051F4B601600F711FA301401B510BCE017E
:101D400082559F4F11C0883089F481E190E0E80E00
:101D5000F91EEC0CFD1CA30140515040401B510BDF
:101D6000CE0182559F4FB7010E94A3317EEAE72E34
:101D7000F12CEC0EFD1EC70167E773E240E150E075
:101D80000E94A33181EF97E060E170E00E944C4235
:101D9000892B19F460E570E07DC06091F5077091C2
:101DA000F6077093FB016093FA01C70140E150E030
:101DB0000E94A63180918401883081F4B601600FC1
:101DC000711F8091FA019091FB0140E150E00E9467
:101DD000078E009719F082E080938401F601E00FEE
:101DE000F11F31972081332727FD3095200F311FB8
:101DF000F601E20FF31F8181482F552747FD5095CB
:101E00008081992787FD9095982F8827480F591F23
:101E10002E5F3F4FC301821B930B8417950790F1F0
:101E200040FF1FC02FC082818823B1F483818D3F82
:101E300099F4240F351FF601E20FF31F8081482F1C
:101E4000552747FD5095089461087108621A730A76
:101E50006416750680F416C0425050402E5F3F4F06
:101E6000329642305105F8F610C0818131968823B0
:101E700079F04150504041155105B9F706C06FE265
:101E800070E008C062E370E005C068E270E002C084
:101E900061E070E0162F80918401883071F4613028
:101EA00061F4D601E8E8F1E012968C9112978193E3
:101EB000119691E0E83AF907B9F7809184018430EE
:101EC000D9F51130C9F5D60111966C911197772784
:101ED00067FD70958C91992787FD9095982F88279D
:101EE000680F791F7093F9016093F80181EF97E013
:101EF0000E944C42892B09F4C5C58091F507909149
:101F0000F6079093FB018093FA0120E00CC0E0916A
:101F1000FA01F091FB01EA0FFB1FAC0DBD1D1296FB
:101F20008C9180832F5FA22FB0E08091F801909177
:101F3000F901A817B90758F380918401863009F098
:101F4000B7C0113009F0F9C58091B7018093BB018A
:101F50008091B8018093BC018091B9018093BD014B
:101F60008091BA018093BE01809175068093BF0174
:101F70008093CB01809174068093C0018093CC0143
:101F800006EC802E01E0902E12EDA12E11E0B12E74
:101F9000EE24FF2420917606309177064091780652
:101FA0005091790660917A0670917B0680917C064B
:101FB00090917D060E2D0E946787F4012083209169
:101FC00076063091770640917806509179066091B7
:101FD0007A0670917B0680917C0690917D060E9426
:101FE0006787D5012C93E8E0F0E0EE0EFF1E089421
:101FF000810891080894A108B108F0E3EF16F104F4
:1020000049F686E18093D3018EEF8093D4018DEF62
:102010008093D5011092D60188E18093D7018BEE91
:1020200097E068E170E00E944C42892B09F42AC5D0
:10203000A090EF07B090F00788E090E0C80ED91E9E
:10204000C50168ED71E04BEB51E0960100E210E054
:10205000BBECEB2EB1E0FB2E0E94B83D892B39F48E
:102060008BEE97E00E94114282E064E168C5DE01D8
:102070001696E9E9F6E088EA01900D928150E1F7C1
:10208000CE0106966CEF71E00E940230C5010E94FD
:10209000F90B813009F017C589E996E0B50148E1EF
:1020A00050E00E94AD308BEE97E00E94114203C0D9
:1020B000113009F042C580918401853009F4D4C102
:1020C000863038F4823069F0843011F00C94701945
:1020D00098C1863009F4CBC1883011F00C94701986
:1020E0008EC08BEE97E06CE270E00E944C42892B30
:1020F00011F40C9479188091EF079091F007909368
:10210000100880930F086091FA017091FB01E09034
:102110006606F090670600916806109169062091A6
:102120006A0630916B0640916C0650916D06C09026
:102130006306D0906406A0905F06B09060060E948F
:10214000552780910F08909110086CE270E00E9472
:102150007509809166062091670630916806409166
:10216000690660916A06E0916B06A0916C06109179
:102170006D06B82FBF5F91E0B81708F090E0F92F17
:10218000F20F81E0F21708F080E0782F730F81E002
:10219000731708F080E0582F540F81E0541708F0AF
:1021A00080E0382F360F81E0361708F080E0282FC6
:1021B0002E0F81E02E1708F080E0982F9A0F81E013
:1021C0009A1708F080E0810FB0936606F0936706D7
:1021D000709368065093690630936A0620936B06E5
:1021E00090936C0680936D068BEE97E00E941142EF
:1021F00081EF97E00E94114288E00C940B198BEE5E
:1022000097E068E570E00E944C42892B09F471C7A1
:102210008091EF079091F0079093100880930F083A
:102220000091660610916706209168063091690654
:1022300040916A0650916B0660916C0670916D0634
:10224000E0906306F0906406C0905F06D090600650
:102250000E94662C80916606209167063091680680
:102260004091690660916A06E0916B06A0916C0648
:1022700010916D06B82FBF5F91E0B81708F090E09D
:10228000F92FF20F81E0F21708F080E0782F730F3A
:1022900081E0731708F080E0582F540F81E0541745
:1022A00008F080E0382F360F81E0361708F080E024
:1022B000282F2E0F81E02E1708F080E0982F9A0F1C
:1022C00081E09A1708F080E0810FB0936606F093E2
:1022D0006706709368065093690630936A062093E8
:1022E0006B0690936C0680936D062BE130E0F9014C
:1022F000EF5FFD4F60910F0870911008DB01A20F96
:10230000B31F8C9180832F5F3F4F2B33310579F7BB
:10231000635F7F4F89E996E042E350E00E94AD3071
:1023200060910F0870911008645B7F4F89E996E017
:102330004CE050E00E94AD3084E080938401E09155
:102340000F08F091100882E0858780910F08909126
:10235000100868E570E00E9475098091660620917A
:102360006706309168064091690660916A06E091BF
:102370006B06A0916C0610916D06B82FBF5F91E0BF
:10238000B81708F090E0F92FF20F81E0F21708F08B
:1023900080E0782F730F81E0731708F080E0582FEA
:1023A000540F81E0541708F080E0382F360F81E099
:1023B000361708F080E0282F2E0F81E02E1708F046
:1023C00080E0982F9A0F81E09A1708F080E0810F43
:1023D000B0936606F093670670936806509369069B
:1023E00030936A0620936B0690936C0680936D067B
:1023F0008BEE97E00E94114281EF97E00E9411421C
:102400006FC78091FA019091FB0164E671E044E0AE
:1024100050E00E94078E009719F082E063E76BC6D8
:1024200081EF97E00E94114204E412E0F80101906C
:102430000020E9F7E354F240EE0FFF1F8BEE97E028
:10244000BF010E944C42892B09F453C68091EF07CB
:102450009091F0079093EA078093E907B8010E94F2
:10246000C70B0E949B0CD0C60E94E30CD3C68BEE18
:1024700097E063E470E00E944C42892B09F439C66E
:102480008091EF079091F0079093100880930F08C8
:1024900000916606109167062091680630916906E2
:1024A00040916A0650916B0660916C0670916D06C2
:1024B000E0906306F09064060E94FB278091660618
:1024C00020916706309168064091690660916A061E
:1024D000E0916B06A0916C0610916D06B82FBF5F5E
:1024E00091E0B81708F090E0F92FF20F81E0F217B1
:1024F00008F080E0782F730F81E0731708F080E018
:10250000582F540F81E0541708F080E0382F360F11
:1025100081E0361708F080E0282F2E0F81E02E177B
:1025200008F080E0982F9A0F81E09A1708F080E079
:10253000810FB0937F06F0938006709381065093CD
:1025400082063093830620938406909385068093B9
:1025500086068091630690916406019690936406C6
:1025600080936306109266061092670610926806C2
:102570001092690610926A0610926B0610926C0611
:1025800010926D0689E996E06CEF71E00E940230CE
:1025900084E180934E0210924F02109250022CE080
:1025A0002093510280915F0690916006019690936E
:1025B000520280915F068F5F809353021092540203
:1025C0001092550210925602109257021092580221
:1025D000209359028AE592E066E672E040E350E01B
:1025E00028E331E00CEF11E0E0E2EE2EF12CBCE04C
:1025F000CB2ED12C0E947E298091C7018093BB01F4
:102600008091C8018093BC018091C9018093BD0174
:102610008091CA018093BE01809164068093BF01BE
:102620008093CB01809163068093C0018093CC019D
:10263000A6ECAA2EA1E0BA2EF2EDCF2EF1E0DF2E0D
:10264000EE24FF24209166063091670640916806CB
:102650005091690660916A0670916B0680916C06D4
:1026600090916D060E2D0E946787D5012C932091C5
:102670006606309167064091680650916906609140
:102680006A0670916B0680916C0690916D060E94AF
:102690006787F601208388E090E0E80EF91E089431
:1026A000A108B1080894C108D10890E3E916F10423
:1026B00049F686E18093D3018EEF8093D4018DEFAC
:1026C0008093D5011092D60188E18093D701809143
:1026D0000F0890911008839668EE71E04BEB51E083
:1026E0002EE432E008E110E0EBECEE2EE1E0FE2E0D
:1026F0000E94883B892B09F4F8C480910F089091BF
:1027000010080091660610916706209168063091C6
:10271000690640916A0650916B0660916C06709153
:102720006D06E0906306F09064060E960E941C28E9
:1027300080910F089091100863E470E00E94750981
:10274000809166062091670630916806409169067F
:1027500060916A06E0916B06A0916C0610916D067F
:10276000B82FBF5F91E0B81708F090E0F92FF20F93
:1027700081E0F21708F080E0782F730F81E0731783
:1027800008F080E0582F540F81E0541708F080E0E3
:10279000382F360F81E0361708F080E0282F2E0FF3
:1027A00081E02E1708F080E0982F9A0F81E09A17A9
:1027B00008F080E0810FB0936606F093670670938F
:1027C00068065093690630936A0620936B069093CF
:1027D0006C0680936D068BEE97E00E94114287E0B5
:1027E00080938401E0918F06F091900687EB91E051
:1027F0009583848387EC91E09783868388ED91E0CD
:102800009183808388EE91E093838283A0919106E7
:10281000B09192061196FC93EE938091930690915D
:10282000940613969C938E9312970E943040682FC3
:102830008093572381E080935A23409191065091D1
:10284000920680E090E00E948B414AC54330D1F16E
:10285000493021F0413009F041C014C0D6018C91BB
:102860008E3FB1F511968C918F3F11F08D3F81F520
:10287000F6018281992787FD90950396681679065F
:1028800039F52CC0D6018C918E3F11F511968C91A3
:102890008F3F11F08D3FE1F4F60182A1282F3327FD
:1028A00027FD3095E20FF31F83A18823A1F4F901DE
:1028B000B496EC0DFD1D80818D3F69F481818823E4
:1028C00051F40CC06115710549F062E370E008C075
:1028D0006FE270E005C068E270E002C061E070E0A5
:1028E000162F413091F4613081F4D601ECE1F2E031
:1028F00012968C9112978193119682E0EC33F8072F
:10290000B9F781EF97E00E941142809184018930EC
:10291000C1F51130B1F5D60112968C91682F772749
:1029200067FD70957093F9016093F8016115710569
:1029300041F181EF97E00E944C42892B19F420E588
:1029400030E0D0C48091F5079091F6079093FB0199
:102950008093FA0120E00CC0E091FA01F091FB01B4
:10296000EA0FFB1FAC0DBD1D13968C9180832F5F6A
:10297000A22FB0E08091F8019091F901A817B90752
:1029800058F380918401863009F0D5C0113009F0E8
:10299000D4C00E94916B90937306809372068091CD
:1029A000C7018093BB018091C8018093BC018091D5
:1029B000C9018093BD018091CA018093BE018091BD
:1029C00075068093BF018093CB018091740680933C
:1029D000C0018093CC0106EC802E01E0902E12ED18
:1029E000A12E11E0B12EEE24FF2420917606309125
:1029F0007706409178065091790660917A06709139
:102A00007B0680917C0690917D060E2D0E94678743
:102A1000F401208320917606309177064091780664
:102A20005091790660917A0670917B0680917C06C0
:102A300090917D060E946787D5012C93E8E0F0E035
:102A4000EE0EFF1E0894810891080894A108B108B1
:102A5000F0E3EF16F10449F686E18093D3018EEF9F
:102A60008093D4018DEF8093D5011092D60188E137
:102A70008093D7018BEE97E068E170E00E944C42B2
:102A8000892B19F482E060E55AC0A090EF07B0905E
:102A9000F00788E090E0C80ED91EC50168EE71E02D
:102AA0004BEB51E0960100E210E0BBECEB2EB1E005
:102AB000FB2E0E94B83D892B09F4D2CAC5010E94A1
:102AC000F90B813049F082E068E20E9488098BEEC0
:102AD00097E00E94114235C08BEE97E00E941142B0
:102AE0000E94916B00D000D000D0EDB7FEB73196B8
:102AF0008E010F5F1F4FADB7BEB712961C930E939A
:102B0000119729E631E033832283209172063091B8
:102B10007306821B930B958384830E94578EEDB7B7
:102B2000FEB736960FB6F894FEBF0FBEEDBFC801D4
:102B30000E94816809C0113039F082E0612F0E9443
:102B4000880920E030E0CEC380918401853009F40B
:102B500061C3863038F4813009F4B7C0833009F09E
:102B6000BFC3DAC0863009F459C3893009F0B8C34D
:102B70006091F8017091F9016D5B7F4F8BEE97E0EA
:102B80000E944C42892B09F4B4C28091EF079091C6
:102B9000F0079093100880930F0800D04091FA013D
:102BA0005091FB01A0906606B0906706C090680641
:102BB000D0906906E0906A06F0906B0600916C0672
:102BC00010916D06809063069090640620915F06D8
:102BD00030916006ADB7BEB712963C932E93119715
:102BE00068E871E02091F8010E94152B0F900F907A
:102BF00060910F0870911008635F7F4F4091F8015A
:102C00005091F9014A5C5F4F89E996E00E94AD302E
:102C10006091F8017091F9016D5B7F4F80910F0811
:102C2000909110080E9475098091660620916706B0
:102C3000309168064091690660916A06E0916B06E2
:102C4000A0916C0610916D06B82FBF5F91E0B81788
:102C500008F090E0F92FF20F81E0F21708F080E021
:102C6000782F730F81E0731708F080E0582F540F0E
:102C700081E0541708F080E0382F360F81E03617D6
:102C800008F080E0282F2E0F81E02E1708F080E05A
:102C9000982F9A0F81E09A1708F080E0810FB09387
:102CA0006606F09367067093680650936906309342
:102CB0006A0620936B0690936C0680936D068BEEEC
:102CC00097E00E94114281E0A6C204E412E0F801FC
:102CD00001900020E9F7E354F240EE0FFF1F8BEE66
:102CE00097E0BF010E944C42892B09F402C28091F7
:102CF000EF079091F0079093EA078093E907B801F6
:102D00000E94C70B0E949B0C0E94E30C8BEE97E085
:102D10000E94114283E07FC284E691E09093FB0120
:102D20008093FA0184E090E09093F9018093F80198
:102D30008BEE97E062E670E00E944C42892B09F42A
:102D4000D8C18091EF079091F0079093100880937D
:102D50000F086091FA017091FB014091F8015091C8
:102D6000F901C0906606D0906706E0906806F09082
:102D7000690600916A0610916B0620916C063091ED
:102D80006D06A0906306B090640680905F069090F8
:102D900060060E949B27809166062091670630910D
:102DA00068064091690660916A06E0916B06A09101
:102DB0006C0610916D06B82FBF5F91E0B81708F050
:102DC00090E0F92FF20F81E0F21708F080E0782F01
:102DD000730F81E0731708F080E0582F540F81E0E3
:102DE000541708F080E0382F360F81E0361708F0CE
:102DF00080E0282F2E0F81E02E1708F080E0982F1A
:102E00009A0F81E09A1708F080E0810FB093660670
:102E1000F0936706709368065093690630936A06CC
:102E200020936B0690936C0680936D0660910F085B
:102E300070911008635F7F4F4091F8015091F90144
:102E4000425F5F4F89E996E00E94AD30E091F80162
:102E5000F091F9017B9680910F08909110080091F4
:102E600066061091670620916806309169064091C8
:102E70006A0650916B0660916C0670916D06E09049
:102E80006306F09064068E0F9F1F0E94FB278091BF
:102E90006606209167063091680640916906609148
:102EA0006A06E0916B06A0916C0610916D06B82F32
:102EB000BF5F91E0B81708F090E0F92FF20F81E0C2
:102EC000F21708F080E0782F730F81E0731708F095
:102ED00080E0582F540F81E0541708F080E0382F1D
:102EE000360F81E0361708F080E0282F2E0F81E0A2
:102EF0002E1708F080E0982F9A0F81E09A1708F0BB
:102F000080E0810FB0937F06F09380067093810676
:102F1000509382063093830620938406909385060F
:102F20008093860680916306909164060196909343
:102F300064068093630610926606109267061092EC
:102F400068061092690610926A0610926B0610923B
:102F50006C0610926D06A1E4B7E0E9E9F6E088EAB4
:102F600001900D928150E1F789E996E06CEF71E0F4
:102F70000E94023084E180934E0210924F02109220
:102F800050022CE02093510280915F0690916006E0
:102F900001969093520280915F068F5F8093530257
:102FA000109254021092550210925602109257023B
:102FB00010925802209359028AE592E066E672E088
:102FC00040E350E028E231E00CEF11E0E0E2EE2EC9
:102FD000F12CBCE0CB2ED12C0E947E298091B70130
:102FE0008093BB018091B8018093BC018091B901AD
:102FF0008093BD018091BA018093BE0180916406E7
:103000008093BF018093CB01809163068093C001C0
:103010008093CC01A6ECAA2EA1E0BA2EF2EDCF2E21
:10302000F1E0DF2EEE24FF24209166063091670642
:10303000409168065091690660916A0670916B062E
:1030400080916C0690916D060E2D0E946787F501A8
:103050002083209166063091670640916806509162
:10306000690660916A0670916B0680916C0690917A
:103070006D060E946787D6012C93E8E0F0E0EE0E23
:10308000FF1E0894A108B1080894C108D108F0E314
:10309000EF16F10449F686E18093D3018EEF809319
:1030A000D4018DEF8093D5011092D60188E18093F1
:1030B000D7012091F8013091F901225C3F4F8091B6
:1030C0000F0890911008820F931F68ED71E04BEB91
:1030D00051E02EE432E008E110E0EBECEE2EE1E00E
:1030E000FE2E0E94883B892B49F48BEE97E00E94CC
:1030F000114282E060E50E948809F2C081E497E015
:103100006EE472E048E150E00E94AD3081E497E067
:103110006CEF71E00E940230E091F801F091F9014A
:10312000B99680910F089091100800916606109151
:103130006706209168063091690640916A065091B1
:103140006B0660916C0670916D06E0906306F090DE
:1031500064068E0F9F1F0E941C286091F8017091D9
:10316000F901625A7F4F80910F08909110080E94D8
:103170007509809166062091670630916806409136
:10318000690660916A06E0916B06A0916C06109149
:103190006D06B82FBF5F91E0B81708F090E0F92FE7
:1031A000F20F81E0F21708F080E0782F730F81E0D2
:1031B000731708F080E0582F540F81E0541708F07F
:1031C00080E0382F360F81E0361708F080E0282F96
:1031D0002E0F81E02E1708F080E0982F9A0F81E0E3
:1031E0009A1708F080E0810FB0936606F0936706A7
:1031F000709368065093690630936A0620936B06B5
:1032000090936C0680936D068BEE97E00E941142BE
:1032100085E001C086E08093840162C0E0918F0662
:10322000F091900687EB91E09583848387EC91E0A1
:103230009783868388ED91E09183808388EE91E087
:1032400093838283A0919106B09192061196FC938C
:10325000EE93809193069091940613969C938E938F
:1032600012970E943040682F8093572311E01093EB
:103270005A23409191065091920680E090E00E947E
:103280008B4187E08093840110936E060E94916BBE
:1032900000D000D000D0EDB7FEB731968E010F5FA1
:1032A0001F4FADB7BEB712961C930E93119729E628
:1032B00031E0338322832091720630917306821BA2
:1032C000930B958384830E94578EEDB7FEB7369695
:1032D0000FB6F894FEBF0FBEEDBFC8010E94816813
:1032E00021E030E0C901C353DC4F0FB6F894DEBFD4
:1032F0000FBECDBFCF91DF911F910F91FF90EF9047
:10330000DF90CF90BF90AF909F908F907F906F9005
:103310000895AF92BF92CF92DF92EF92FF920F93F8
:103320001F93DF93CF93CDB7DEB768970FB6F894AE
:10333000DEBF0FBECDBF6C015B0180915E068823AE
:1033400009F003C280916F068823D9F010926F06AE
:1033500087E896E00E940F44D60111968C9188234D
:1033600019F481E060E05EC080917106882329F045
:1033700080917E06815080937E0681E080935E0678
:10338000E4C180917106882371F480916E068823D0
:1033900051F0F6018081882331F46C30710519F405
:1033A0000E945B0AD2C190918401892F855083309D
:1033B00060F4C601B5010E945A0D019709F0C5C11C
:1033C00087E896E00E940F44C0C1923019F4D601FC
:1033D0008C9112C0943029F4F60180818031E1F49F
:1033E00024C0993029F4D6018C91833061F41DC03A
:1033F000983029F4F6018081813071F416C0913043
:1034000029F4D6018C91823039F40FC0933069F4DD
:10341000F60180818E3049F060917006662309F4D0
:1034200094C182E00E94880990C187E896E00E94DA
:103430000F4480917006882311F0109270068091DD
:103440008401823079F080916506813059F4809151
:103450005F069091600601969093600680935F06E8
:1034600010926506D6018C91823019F481E0809328
:10347000840119821A821B821C82FE013196D601B8
:103480001B968C911B9789831A968C911A9781832E
:1034900019968C91199782831D821E821F8218862D
:1034A000FE01359618968C9118978D8317968C91FE
:1034B0001797818316968C911697828319861A86A0
:1034C0001B861C86FE01399613968C91139789876B
:1034D00012968C911297818311968C9182838091A0
:1034E0008701882311F460E0A7C049855A856B8560
:1034F0007C8589819A81AB81BC8184179507A60759
:10350000B70708F048C087EF97E0BA010E944C4225
:10351000892B19F482E060E585CF8091FB079091BB
:10352000FC079093100880930F0860E012C0A62F4C
:10353000B0E0E0910F08F0911008EA0FFB1F8D81B9
:103540009E81E80FF91FAC0DBD1D1C968C918083E8
:103550006F5F29813A814B815C81862F90E0A0E0EA
:10356000B0E082179307A407B50708F3109287010C
:10357000B5016C507040CB01AA2797FDA095BA2FDA
:10358000281739074A075B0708F0DFC0C9010C9606
:10359000621B730BD6C080918401823059F0893050
:1035A00049F0853039F0445F5F4F89E996E0B60114
:1035B0000E94AD3069857A85C6010C960E945A0D2D
:1035C000019709F0C2C08091610690916206019650
:1035D000909362068093610629853A854B855C85C8
:1035E000E4EFFFEFAE0EBF1EC501AA2797FDA09521
:1035F000BA2F6CE070E0A60EB71E281739074A07ED
:103600005B0708F0A2C0C9010C9664EF7FEF621B54
:10361000730B95C0A62FB0E0E0910F08F091100851
:10362000EA0FFB1F8D819E81E80FF91FAC0DBD1DB8
:103630001C968C9180836F5F29813A814B815C81DC
:10364000862F90E0A0E0B0E082179307A407B507AB
:1036500008F38D819E81AF81B885280F391F4A1FDD
:103660005B1F89859A85AB85BC85281739074A0772
:103670005B0709F06AC020E030E0BE01635F7F4F66
:10368000FB01E20FF31FD601A20FB31F8C918083C1
:103690002F5F3F4F2C30310599F71D8A1C8A1B8AFA
:1036A000D60111968C9111978E8B12968C91129750
:1036B0008F8B13968C91888F89E996E04CE050E0CF
:1036C0000E94AD3060910F087091100849855A85AD
:1036D00089E996E00E94AD3069857A8580910F086E
:1036E000909110080E945A0D019779F5809161061A
:1036F000909162060196909362068093610687EF2F
:1037000097E00E941142E980FA800B811C819501AB
:10371000442737FD4095542FD801C7010C96A11DB1
:10372000B11D82179307A407B50778F481E0809351
:103730008701C7010C9664EF7FEF6E197F096A0D50
:103740007B1D8C0D9D1D0E94891968960FB6F894FB
:10375000DEBF0FBECDBFCF91DF911F910F91FF90C4
:10376000EF90DF90CF90BF90AF9008955F926F92EF
:103770007F928F929F92AF92BF92CF92DF92EF9201
:10378000FF920F931F93CF93DF9380918401823038
:1037900069F0833020F4813009F02BC20FC18430EE
:1037A00009F455C1893009F024C279C08BEE97E045
:1037B00069E170E00E944C42892B09F47FC5809139
:1037C000EF079091F0079093100880930F080091F5
:1037D000660610916706209168063091690640914F
:1037E0006A0650916B0660916C0670916D06E090D0
:1037F0006306F09064060E942E2780916606209151
:103800006706309168064091690660916A06E0910A
:103810006B06A0916C0610916D06B82FBF5F91E00A
:10382000B81708F090E0F92FF20F81E0F21708F0D6
:1038300080E0782F730F81E0731708F080E0582F35
:10384000540F81E0541708F080E0382F360F81E0E4
:10385000361708F080E0282F2E0F81E02E1708F091
:1038600080E0982F9A0F81E09A1708F080E0810F8E
:10387000B0936606F09367067093680650936906E6
:1038800030936A0620936B0690936C0680936D06C6
:1038900080910F089091100869E170E08CC08BEE68
:1038A00097E063E470E00E944C42892B29F482E0A7
:1038B00060E50E9488099DC18091EF079091F00713
:1038C0009093100880930F0800D0A0906606B090E7
:1038D0006706C0906806D0906906E0906A06F0908E
:1038E0006B0600916C0610916D06809063069090B7
:1038F000640620915F0630916006EDB7FEB7328313
:10390000218368E871E040E050E020E00E94152B40
:10391000809166062091670630916806409169069D
:1039200060916A06E0916B06A0916C0610916D069D
:10393000B82FBF5F91E00F900F90B81708F090E09C
:10394000F92FF20F81E0F21708F080E0782F730F63
:1039500081E0731708F080E0582F540F81E054176E
:1039600008F080E0382F360F81E0361708F080E04D
:10397000282F2E0F81E02E1708F080E0982F9A0F45
:1039800081E09A1708F080E0810FB0936606F0930B
:103990006706709368065093690630936A06209311
:1039A0006B0690936C0680936D0680910F08909142
:1039B000100863E470E00E94750917C16091F80176
:1039C0007091F9016D5B7F4F8BEE97E00E944C4246
:1039D000892B09F473C48091EF079091F0079093BD
:1039E000100880930F0800D04091FA015091FB011C
:1039F000A0906606B0906706C0906806D0906906F1
:103A0000E0906A06F0906B0600916C0610916D06CE
:103A1000809063069090640620915F063091600666
:103A2000EDB7FEB73283218368E871E02091F80199
:103A30000E94152B0F900F906091F8017091F90181
:103A40006D5B7F4F80910F089091100881C08BEEC5
:103A500097E068E570E00E944C42892B09F42EC47F
:103A60008091EF079091F0079093100880930F08D2
:103A7000E0906606F090670600916806109169066E
:103A800020916A0630916B0640916C0650916D064C
:103A9000C0906306D0906406A0905F06B090600668
:103AA0006CE172E00E94532C8091660620916706BB
:103AB000309168064091690660916A06E0916B0654
:103AC000A0916C0610916D06B82FBF5F91E0B817FA
:103AD00008F090E0F92FF20F81E0F21708F080E093
:103AE000782F730F81E0731708F080E0582F540F80
:103AF00081E0541708F080E0382F360F81E0361748
:103B000008F080E0282F2E0F81E02E1708F080E0CB
:103B1000982F9A0F81E09A1708F080E0810FB093F8
:103B20006606F093670670936806509369063093B3
:103B30006A0620936B0690936C0680936D06E09165
:103B40000F08F091100882E08587CF0168E570E0EA
:103B50000E9475098091660620916706309168067B
:103B60004091690660916A06E0916B06A0916C062F
:103B700010916D06B82FBF5F91E0B81708F090E084
:103B8000F92FF20F81E0F21708F080E0782F730F21
:103B900081E0731708F080E0582F540F81E054172C
:103BA00008F080E0382F360F81E0361708F080E00B
:103BB000282F2E0F81E02E1708F080E0982F9A0F03
:103BC00081E09A1708F080E0810FB0936606F093C9
:103BD0006706709368065093690630936A062093CF
:103BE0006B0690936C0680936D068BEE97E00E94B7
:103BF00011428091710690918401882309F021C2BD
:103C0000953009F0D2C380916306909164060197C4
:103C100090936406809363066091F8017091F901B6
:103C2000625A7F4F8BEE97E00E944C42892B09F439
:103C300045C38091EF079091F0079093100880930F
:103C40000F086091FA017091FB014091F8015091C9
:103C5000F901C0907F06D0908006E0908106F09038
:103C6000820600918306109184062091850630918A
:103C70008606A0906306B090640680905F069090E0
:103C800060060E949B2780917F069091800640915C
:103C90008106509182066091830670918406A091FE
:103CA0008506B0918606082F0F5F11E0081708F00F
:103CB00010E0190F21E0191708F020E0F22FF40F9F
:103CC00031E0F41708F030E0E32FE50F41E0E517AD
:103CD00008F040E0460F51E0461708F050E0570F5B
:103CE00061E0571708F060E06A0F71E06A1708F0AA
:103CF00070E07B0F00937F0610938006F09381069F
:103D0000E093820640938306509384066093850671
:103D1000709386062091F8013091F901255E3F4F9E
:103D200080910F0890911008E0906306F09064066F
:103D3000820F931F2F2F3E2F0E94FB2780917F061B
:103D40002091800630918106409182066091830621
:103D5000E0918406A091850610918606B82FBF5F7A
:103D600091E0B81708F090E0F92FF20F81E0F21718
:103D700008F080E0782F730F81E0731708F080E07F
:103D8000582F540F81E0541708F080E0382F360F79
:103D900081E0361708F080E0282F2E0F81E02E17E3
:103DA00008F080E0982F9A0F81E09A1708F080E0E1
:103DB000810FB0937F06F093800670938106509335
:103DC0008206309383062093840690938506809321
:103DD000860680916306909164060196909364062E
:103DE0008093630684E180934E0210924F021092FA
:103DF00050022CE02093510290915F068091600662
:103E000080935202909353021092540210925502E2
:103E100010925602109257021092580220935902A3
:103E200089E996E06CEF71E00E9402308AE592E049
:103E300066E672E040E350E028E231E00CEF11E08A
:103E4000F0E2EF2EF12CECE0CE2ED12C0E947E2958
:103E50008091B7018093BB018091B8018093BC0130
:103E60008091B9018093BD018091BA018093BE0118
:103E700080916306909164069093C0018093BF0186
:103E80009093CC018093CB015090660660906706BA
:103E9000709068068090690690906A06A0906B0604
:103EA000B0906C0610916D06B1ECCB2EB1E0DB2E1C
:103EB000ADECEA2EA1E0FA2EC0E0D0E0252D362DA3
:103EC000472D582D692D7A2D8B2D912F0C2F0E9467
:103ED0006787F60121936F01F70121937F012896EF
:103EE000C033D10559F786E18093D3018EEF8093DB
:103EF000D4018DEF8093D5011092D60188E1809393
:103F0000D7012091F8013091F901225C3F4F809157
:103F10000F0890911008820F931F68ED71E04BEB32
:103F200051E02EE432E008E110E0FBECEF2EF1E08E
:103F3000FF2E0E94883B892B09F4BCC1E091F80157
:103F4000F091F901B99680910F08909110080091B5
:103F500066061091670620916806309169064091C7
:103F60006A0650916B0660916C0670916D06E09048
:103F70006306F09064068E0F9F1F0E941C286091BC
:103F8000F8017091F901625A7F4F80910F0890916A
:103F900010080E947509809166062091670630918D
:103FA00068064091690660916A06E0916B06A091EF
:103FB0006C0610916D06B82FBF5F91E0B81708F03E
:103FC00090E0F92FF20F81E0F21708F080E0782FEF
:103FD000730F81E0731708F080E0582F540F81E0D1
:103FE000541708F080E0382F360F81E0361708F0BC
:103FF00080E0282F2E0F81E02E1708F080E0982F08
:104000009A0F81E09A1708F080E0810FB09366065E
:10401000F0936706709368065093690630936A06BA
:1040200020936B0690936C0680936D068BEE97E061
:104030000E94114281E497E06CEF71E00E9402302F
:10404000B4C1973009F0B1C18091630690916406C4
:10405000019790936406809363068091860188237C
:1040600039F48BEE97E00E94114281E08093860143
:104070008BEE97E063E470E00E944C42892B09F4D8
:104080001DC18091EF079091F007909310088093E5
:104090000F0800917F0610918006209181063091D3
:1040A0008206409183065091840660918506709146
:1040B0008606E0906306F09064060E94FB278091DC
:1040C0007F062091800630918106409182066091A2
:1040D0008306E0918406A091850610918606B82F8C
:1040E000BF5F91E0B81708F090E0F92FF20F81E080
:1040F000F21708F080E0782F730F81E0731708F053
:1041000080E0582F540F81E0541708F080E0382FDA
:10411000360F81E0361708F080E0282F2E0F81E05F
:104120002E1708F080E0982F9A0F81E09A1708F078
:1041300080E0810FB0937F06F09380067093810634
:1041400050938206309383062093840690938506CD
:104150008093860680916306909164060196909301
:1041600064068093630689E996E06CEF71E00E9433
:10417000023084E180934E0210924F02109250025E
:104180002CE02093510280915F0690916006019689
:104190009093520201978F5F8093530210925402C2
:1041A0001092550210925602109257021092580225
:1041B000209359028AE592E066E672E040E350E01F
:1041C00028E331E00CEF11E0E0E2EE2EF12CBCE050
:1041D000CB2ED12C0E947E298091C7018093BB01F8
:1041E0008091C8018093BC018091C9018093BD0179
:1041F0008091CA018093BE0180916306909164060C
:104200009093C0018093BF019093CC018093CB0128
:104210005090660660906706709068068090690608
:1042200090906A06A0906B06B0906C0610916D0697
:10423000A1ECCA2EA1E0DA2EFDECEF2EF1E0FF2E6C
:10424000C0E0D0E0252D362D472D582D692D7A2D33
:104250008B2D912F0C2F0E946787F60121936F0100
:10426000F70121937F012896C033D10559F786E1E4
:104270008093D3018EEF8093D4018DEF8093D5018D
:104280001092D60188E18093D70180910F08909118
:104290001008839668EE71E04BEB51E02EE432E0BB
:1042A00008E110E0EBECEE2EE1E0FE2E0E94883BF0
:1042B000892B49F48BEE97E00E94114282E060E581
:1042C0000E94880972C080910F0890911008009197
:1042D0006606109167062091680630916906409144
:1042E0006A0650916B0660916C0670916D06E090C5
:1042F0006306F09064060E960E941C2880910F08B9
:104300009091100863E470E00E9475098091660640
:1043100020916706309168064091690660916A06AF
:10432000E0916B06A0916C0610916D06B82FBF5FEF
:1043300091E0B81708F090E0F92FF20F81E0F21742
:1043400008F080E0782F730F81E0731708F080E0A9
:10435000582F540F81E0541708F080E0382F360FA3
:1043600081E0361708F080E0282F2E0F81E02E170D
:1043700008F080E0982F9A0F81E09A1708F080E00B
:10438000810FB0936606F0936706709368065093AA
:10439000690630936A0620936B0690936C068093AF
:1043A0006D068BEE97E00E941142DF91CF911F9135
:1043B0000F91FF90EF90DF90CF90BF90AF909F90C4
:1043C0008F907F906F905F9008956F927F928F9201
:1043D0009F92AF92BF92CF92DF92EF92FF920F9394
:1043E0001F93CF93DF93282FAB018091A629281725
:1043F00009F0D0C080917106882339F0809195062C
:1044000090919606622F0E948B4180916F2881FFC8
:10441000D3C080918401853031F40E94916B9093D8
:10442000730680937206809171068823B9F080919B
:104430009306909194069C01D901E7E7F3E280E1AD
:1044400001900D928150E1F7E0919306F09194066E
:104450008091972390919823938B828B009174285D
:1044600010917528A0905F23B090602399249394B5
:1044700082E0882EB4E76B2EB6E07B2EA6E7CA2E2C
:10448000A6E0DA2E20917106222369F08091840142
:10449000873049F480916E06882329F4F8018081E1
:1044A000863109F487C0F8018081853119F4909232
:1044B0006F0639C090918401953019F0973071F5ED
:1044C00003C0843181F178C0873159F1222331F161
:1044D000863109F071C08092840189E996E00E94DA
:1044E000E12F1092600610925F0610926206109201
:1044F00061068DEF97E00E9411428091860188232A
:1045000021F48BEE97E00E941142909286019092E6
:10451000850110926E061092650605C0863119F06D
:104520004BC090926E06F80184818093740683815B
:10453000F3018183F8018285809376068185F601F7
:104540008183F8018085F6018283F8018781F60175
:104550008383F8018681F6018483F8018581F60161
:104560008583F801F384EE248485E701C80FD11D0B
:10457000C8010D96BE010E948919C5010D97C81783
:10458000D907D0F42D960C0F1D1F2D975C01AC1A86
:10459000BD0A78CF283881F487E896E00E94AA43C4
:1045A000892B51F080917106882321F0809184013C
:1045B000873011F00E94B61BDF91CF911F910F91B0
:1045C000FF90EF90DF90CF90BF90AF909F908F9033
:1045D0007F906F900895CF93DF93EC01288139810C
:1045E0002115310529F02D5C354009F06DC023C03F
:1045F0008091190890911A089093980680939706D5
:1046000080E090E060E070E040E050E00E948A537B
:10461000FC01909394068093930681E09BEB918B31
:10462000808B89E996E00E94E12F8DEC95E09983DB
:10463000888381E04CC0862FBA010E94E5219091C9
:104640005E06913091F710925E0682E080938401BD
:104650001092600610925F06109262061092610638
:104660001092640610926306109265061092660618
:1046700010926706109268061092690610926A06F8
:1046800010926B0610926C0610926D069093860144
:1046900010926E0610926F0610927006909385012C
:1046A00089E996E00E94E12FE0919306F09194064B
:1046B00080E1DF011D928A95E9F7E0919306F09180
:1046C0009406138A128AB1CF1982188283E0DF918F
:1046D000CF910895CF92DF92EF92FF920F931F93A5
:1046E000CF93DF93EC0188819981009729F0875B54
:1046F000954009F0DAC0CDC08091190890911A0850
:104700009093980680939706FA0172816381808165
:10471000918140E050E00E948A53909394068093E8
:104720009306109264061092630610926606109229
:104730006706109268061092690610926A06109237
:104740006B0610926C0610926D0610926006109225
:104750005F06109262061092610610926E0689E959
:1047600096E00E94E12F8BEE97E063E470E00E94F8
:104770004C42019709F099C08091EF079091F007A2
:104780009093100880930F080091660610916706B9
:10479000209168063091690640916A0650916B0637
:1047A00060916C0670916D06E0906306F09064066F
:1047B000C0905F06D09060060E943D2B80916606F7
:1047C00020916706309168064091690660916A06FB
:1047D000E0916B06A0916C0610916D06B82FBF5F3B
:1047E00091E0B81708F090E0F92FF20F81E0F2178E
:1047F00008F080E0782F730F81E0731708F080E0F5
:10480000582F540F81E0541708F080E0382F360FEE
:1048100081E0361708F080E0282F2E0F81E02E1758
:1048200008F080E0982F9A0F81E09A1708F080E056
:10483000810FB0936606F0936706709368065093F5
:10484000690630936A0620936B0690936C068093FA
:104850006D0640910F0850911008CA01DC01E8E88C
:10486000F1E05B968C915B978193119681E0E83A39
:10487000F807B9F7CA0163E470E00E9475098BEE8E
:1048800097E00E94114287EB95E09983888381E04D
:104890000FC080915E06882319F010925E0605C055
:1048A000862FBA010E94E521EECF1982188283E09B
:1048B000DF91CF911F910F91FF90EF90DF90CF90FC
:1048C00008952F923F924F925F926F927F928F92B4
:1048D0009F92AF92BF92CF92DF92EF92FF920F938F
:1048E0001F93DF93CF9300D00F92CDB7DEB7FC01BB
:1048F0003B015A0180918401873009F09AC0809170
:1049000066068983209067063090680640906906A5
:1049100050906A0680906B0690906C0610916D0620
:104920008A3089F4222079F4332069F4442059F440
:10493000552049F4882039F4992029F4112319F4D9
:104940000E945B0A0BC182819381909394068093AD
:10495000930690917106ABEBB1E020E030E0992333
:1049600021F0F901E953FE4F03C0F901E954FE4F6C
:1049700080818C932F5F3F4F11962430310579F75A
:1049800090916306809164068093BF018093CB0170
:104990009093C0019093CC01B6ECCB2EB1E0DB2E0E
:1049A000A2EDEA2EA1E0FA2E1B821A822981322D75
:1049B000432D542D652D782D892D912F0A810E942C
:1049C0006787D6012C93F70120838A819B81089603
:1049D0009B838A830894C108D1080894E108F108F0
:1049E000C09721F787E18093D3018EEF8093D401A4
:1049F0008DEF8093D501B092D601A092D70180911E
:104A00008601882321F48BEE97E00E9411421092D8
:104A10008601FDE18F2E912C8A0C9B1C8BEE97E07A
:104A2000B4010E944C42892B39F482E060E50E9477
:104A300088092FEF3FEF94C04090EF075090F007A8
:104A40008091710692012B5E3F4F882321F0C901AE
:104A500068EE71E003C0C90168ED71E04BEB51E015
:104A600093018501EBECEE2EE1E0FE2E0E94883BE7
:104A7000892B29F48BEE97E00E941142D6CFA0E15A
:104A8000B0E0AA0EBB1EE0906606F09067060091AB
:104A900068061091690620916A0630916B06409174
:104AA0006C0650916D06C0906306D0906406C201FA
:104AB000B5010E94BF28809166062091670630915B
:104AC00068064091690660916A06E0916B06A091C4
:104AD0006C0610916D06B82FBF5F91E0B81708F013
:104AE00090E0F92FF20F81E0F21708F080E0782FC4
:104AF000730F81E0731708F080E0582F540F81E0A6
:104B0000541708F080E0382F360F81E0361708F090
:104B100080E0282F2E0F81E02E1708F080E0982FDC
:104B20009A0F81E09A1708F080E0810FB093660633
:104B3000F0936706709368065093690630936A068F
:104B400020936B0690936C0680936D06C201B401AE
:104B50000E94750987E896E00E940F4420E030E04B
:104B6000C9010F900F900F90CF91DF911F910F917E
:104B7000FF90EF90DF90CF90BF90AF909F908F907D
:104B80007F906F905F904F903F902F900895DF93AC
:104B9000CF9300D0CDB7DEB79A8389836230D0F54A
:104BA00081E08093710682E0809384016093960295
:104BB00083E098E068E070E00E944C42892B51F15C
:104BC00080910708909108089093900680938F0633
:104BD00089E098E064E070E00E944C42892BD1F0BB
:104BE00080910D0890910E08909392068093910603
:104BF0008091190890911A089093960680939506D3
:104C00008AE791E0BE016F5F7F4F0E94BE4120E0C6
:104C100030E002C02FEF3FEFC9010F900F90CF910E
:104C2000DF910895DF93CF9300D000D0CDB7DEB7EA
:104C30001092710629E0209384019A8389837C83F2
:104C40006B8383E098E068E070E00E944C42892B1F
:104C500039F180910708909108089093900680930D
:104C60008F0689E098E064E070E00E944C42892B56
:104C7000B9F080910D0890910E0890939206809360
:104C800091068091190890911A0890939606809346
:104C900095068EE691E0BE016F5F7F4F0E94BE4198
:104CA0000F900F900F900F90CF91DF9108953F924A
:104CB0004F925F926F927F928F929F92AF92BF922C
:104CC000CF92DF92EF92FF920F931F93DC01702E31
:104CD000622E532E442E352EFC0161938EEF1196D9
:104CE0008C93DF0111968DEF8183FD013196119632
:104CF000DC924F010894811C911CC18264010894CC
:104D0000C11CD11C9701402F512F662D752D842D6C
:104D1000932D08E20E946787F401218346010894DD
:104D2000811C911C9701472D512F662D752D842DC7
:104D3000932D00E20E946787F601218364010894A5
:104D4000C11CD11C9701472D512F662D752D842D27
:104D5000932D08E10E946787F4012183460108949E
:104D6000811C911C9701472D512F662D752D842D87
:104D7000932D00E10E946787F60121836401089466
:104D8000C11CD11C9701472D512F662D752D842DE7
:104D9000932D08E00E946787F4012183D6011196C4
:104DA000F601E182FD0131961196BC92A182329604
:104DB000CF011F910F91FF90EF90DF90CF90BF90A8
:104DC000AF909F908F907F906F905F904F903F90AB
:104DD00008958F929F92AF92BF92CF92DF92EF92FF
:104DE000FF920F931F93DC01FC0161934901AA24F8
:104DF000BB2411968C92DF011196C12ED22EE32E88
:104E0000FF24C182FD01319611960C93DF011196AA
:104E10005183FD01319611964C93DF011196118259
:104E2000FD01319611961C92DF0111961182CD0180
:104E3000019611968C92FC013196DC011196CC9270
:104E400001833296CF011F910F91FF90EF90DF9079
:104E5000CF90BF90AF909F908F900895AF92BF92E8
:104E6000CF92DF92EF92FF920F931F93E62F67018D
:104E700066E1780189019A014E2F572F7CE0A72E19
:104E8000B12C0E94572660E040E050E000E010E0C6
:104E900020E030E00E94E9261F910F91FF90EF90F3
:104EA000DF90CF90BF90AF9008956F927F928F92D6
:104EB0009F92AF92BF92CF92DF92EF92FF920F93A9
:104EC0001F93CF93DF93762E672E450166E1EFE1C6
:104ED000AE2EB12C0E94572663E0A40103E110E03E
:104EE00020E030E00E94E926DC01FC018EEF819396
:104EF0008FEF11968C93119780E18183272D362DAA
:104F0000C901EC01FD019D01205F3F4F8991838321
:104F10003196E217F307D1F7DF91CF911F910F91EF
:104F2000FF90EF90DF90CF90BF90AF909F908F90C9
:104F30007F906F9008952F923F924F925F927F9251
:104F40008F929F92AF92BF92CF92DF92EF92FF9299
:104F50000F931F93DF93CF93CDB7DEB71B012A01C9
:104F60007C2DED2DFE2DAF2DB02F712EA9016501E9
:104F70002EE030E0420E531E66E1E72EFE2E0F2F8C
:104F80001A2F2B2F372D52010E94572644EF5FEF27
:104F9000440E551E820120E030E04EEF5FEF440EDC
:104FA000551E60E1A4010E94E926FC015082418265
:104FB000DC0120E030E009C0F101E20FF31F808145
:104FC00011968C9311972F5F3F4F1196241535053D
:104FD00098F3CF91DF911F910F91FF90EF90DF90A9
:104FE000CF90BF90AF909F908F907F905F904F90A9
:104FF0003F902F900895AF92BF92CF92DF92EF92A1
:10500000FF920F931F93E62F670164E178018901F6
:105010009A014E2F572FF1E0AF2EB12C0E94572648
:10502000FC0181E080831F910F91FF90EF90DF9052
:10503000CF90BF90AF9008952F923F924F925F9282
:105040006F927F928F929F92AF92BF92CF92DF9298
:10505000EF92FF920F931F93DF93CF9300D0CDB7C2
:10506000DEB7902E712E622E532E442E352E262E14
:105070007983EA828F2C66E1E02EF12E022F132F26
:10508000242F352F422D572FCA80D82CA8E2AA2EC4
:10509000B12C0E945726FC01DC018D927D01BA8162
:1050A000B18367010894C11CD11C292D372D462DD1
:1050B000552D642D732D822D998108E20E946787FA
:1050C000F701218376010894E11CF11C292D372D6D
:1050D000462D552D642D732D822D998100E20E945D
:1050E0006787D60111962C9367010894C11CD11CC7
:1050F000292D372D462D552D642D732D822D998107
:1051000008E10E946787F701218376010894E11C7A
:10511000F11C292D372D462D552D642D732D822DF3
:10512000998100E10E946787D60111962C93292D61
:10513000372D462D552D642D732D822D998108E034
:105140000E946787F70121830894E11CF11CD701B5
:1051500011969C920F900F90CF91DF911F910F911C
:10516000FF90EF90DF90CF90BF90AF909F908F9087
:105170007F906F905F904F903F902F9008952F9267
:105180003F924F925F926F927F928F929F92AF92D7
:10519000BF92CF92DF92EF92FF920F931F93DF9314
:1051A000CF9300D0CDB7DEB75B019E2C7F2C602E55
:1051B000512E422E332E242E5983CA828D2C67E124
:1051C0000E945726FC01DC018D927D01BA81B183DA
:1051D00067010894C11CD11C292D372D462D552D52
:1051E000642D732D822D998108E20E946787F70153
:1051F000218376010894E11CF11C292D372D462DC1
:10520000552D642D732D822D998100E20E946787B0
:10521000D60111962C9367010894C11CD11C292D2D
:10522000372D462D552D642D732D822D998108E142
:105230000E946787F701218376010894E11CF11C25
:10524000292D372D462D552D642D732D822D9981B5
:1052500000E10E946787D60111962C93292D372DE6
:10526000462D552D642D732D822D998108E00E94C5
:105270006787F70121830894E11CF11CD70111967F
:105280009C920F900F90CF91DF911F910F91FF9003
:10529000EF90DF90CF90BF90AF909F908F907F90D6
:1052A0006F905F904F903F902F9008958F929F92B4
:1052B000AF92BF92CF92DF92EF92FF920F931F9324
:1052C000A62FF7019C2C8A2C65E1780189019A01AF
:1052D0004A2F572F6F01B2E0AB2EB12C0E945726F8
:1052E000FC01908281821F910F91FF90EF90DF90DF
:1052F000CF90BF90AF909F908F9008952F923F9244
:105300004F925F926F927F928F929F92AF92BF92D5
:10531000CF92DF92EF92FF920F931F93DF93CF9381
:10532000CDB7DEB7C254D3400FB6F894DEBF0FBE80
:10533000CDBF2C014901CF5BDC4F0883C154D34062
:10534000CE5BDC4F1883C254D340170136018E0167
:105350000F5D1F4FC8010E940332D4010D90002041
:10536000E9F71197A819B909C801B401AD010E9464
:10537000A331C801CF5BDC4F6881C154D340CE5B01
:10538000DC4F7881C254D340A7010E94A3315E0153
:105390000894A11CB11CC801B50140E250E00E9474
:1053A000A631CC24DD24F02E012FC501EA2C192FC3
:1053B0004EC08F2D902F0E94EE318F2D902F6E2D8D
:1053C000712F40E250E00E94A331D4010D900020E3
:1053D000E9F71197A819B9098F2D902FB401AD01E4
:1053E0000E94A3318F2D902FCF5BDC4F6881C15479
:1053F000D340CE5BDC4F7881C254D340A1010E94E0
:10540000A331B2016C0D7D1DA3014C195D09413220
:10541000510514F040E250E08F2D902F0E94A631EC
:105420008F2D902F0E94EE318F2D902F6E2D712F8A
:1054300040E250E00E94A3318F2D902FB50140E251
:1054400050E00E94A63180E290E0C80ED91EC6143A
:10545000D7040CF4AECF81E090E0CE5BDC4F0FB60A
:10546000F894DEBF0FBECDBFCF91DF911F910F919A
:10547000FF90EF90DF90CF90BF90AF909F908F9074
:105480007F906F905F904F903F902F9008953F9244
:105490004F925F926F927F928F929F92AF92BF9244
:1054A000CF92DF92EF92FF920F931F93DF93CF93F0
:1054B00000D0CDB7DEB72B015A834983322E7C2D25
:1054C000ED2D9701A8016401632C7724A6E3B0E0D9
:1054D0006A0E7B1E66E17501072F1E2F53010E9485
:1054E0005726E4EFFFEF6E0E7F1E882477FC809432
:1054F000982C61E04E895F89940183010E94E9261E
:105500006C018EEFD6018D938D018DEFF6018183B5
:105510007D010894E11CF11C41145104B1F50E9475
:105520000967292F332744275527D80111962C9333
:10553000D70111969C0144275527F7012183FD01CE
:105540003196272F382F492F552711962C93618399
:1055500092E0A92EB12CAE0EBF1E0E94916B0E944C
:105560001F4586018CE1E82EF12CEC0CFD1C0E94FD
:105570001C458F77D80116968C930F5F1F4F0E1521
:105580001F05A9F7D5015C960DC0D201F601960161
:10559000205E3F4F8D9182833196E217F307D1F75A
:1055A000D7019096FD01119211963C921197AF018F
:1055B0004F5F5F4FE981FA81EF2B91F020E030E0FF
:1055C0000AC0E981FA81E20FF31F808111968C9362
:1055D00011972F5F3F4F1196231598F3430D511DDF
:1055E000FA01119282E0DA0111968C93DF01119693
:1055F0001182FD0131968DEF11968C9381E08183AC
:1056000012820F900F90CF91DF911F910F91FF9019
:10561000EF90DF90CF90BF90AF909F908F907F9052
:105620006F905F904F903F9008958F929F92AF92AE
:10563000BF92CF92DF92EF92FF920F931F93DF936F
:10564000CF93CDB7DEB700D0EF85F889ADB7BEB741
:105650001296FC93EE9311970E94472A0F900F9099
:10566000CF91DF911F910F91FF90EF90DF90CF903E
:10567000BF90AF909F908F9008957F928F929F924E
:10568000AF92BF92CF92DF92EF92FF920F931F9350
:10569000CF93DF93E22FF42FA52FB62F772E47015C
:1056A00000D0CDB7DEB7DA82C98260E070E040E0BA
:1056B00050E020E05801CE2ED32EEF2EFA2E0B2FE5
:1056C000172D0E94472A0F900F90DF91CF911F91C5
:1056D0000F91FF90EF90DF90CF90BF90AF909F9091
:1056E0008F907F9008952F923F924F925F926F928A
:1056F0007F928F929F92AF92BF92CF92DF92EF9262
:10570000FF920F931F93DF93CF9300D000D000D070
:10571000CDB7DEB73B015E2C4F2C302E212E2B83D4
:105720003C834D835E83DA82C982450166E172E380
:10573000A72EB12C0E94572662E0A40106E210E0D9
:1057400020E030E00E94E9267C018EEFF701819392
:105750006F018DEFF701818386010F5F1F4F611489
:10576000710491F50E940967292F33274427552793
:10577000F6012183D80111969C0144275527F80191
:105780002183FD013196272F382F492F5527119658
:105790002C936183A2E0CA2ED12CCE0EDF1E0E9474
:1057A000916B0E941F458701045E1F4F0E941C459C
:1057B0008F77F70186830894E11CF11CE016F1064F
:1057C000A9F7D6015C960DC0D301F7019701205EC1
:1057D0003F4F8D9182833196E217F307D1F7D801BD
:1057E0009096FD01119211961C92DF0111968DEF9A
:1057F000818311961C921197CD010296E52CE394BA
:1058000021E0E51408F020E0F22EF40C01E0F4149D
:1058100008F000E0030D11E0031508F010E0120D90
:1058200021E0121508F020E0FB812F0F31E02F1747
:1058300008F030E04C81340F41E05C81351708F00E
:1058400040E06D81460F51E0461708F050E0EE81D0
:105850005E0F66E1C980DA807CE0A72EB12C0E9441
:1058600057266EE042E050E000E010E020E030E03B
:105870000E94E92626960FB6F894DEBF0FBECDBF74
:10588000CF91DF911F910F91FF90EF90DF90CF901C
:10589000BF90AF909F908F907F906F905F904F9050
:1058A0003F902F900895AF92BF92CF92DF92EF92E8
:1058B000FF920F931F930E94732B1F910F91FF90E4
:1058C000EF90DF90CF90BF90AF900895AF92BF92CE
:1058D000CF92DF92EF92FF920F931F93DB01F701BC
:1058E000560160E070E0780189019A01AD016F0115
:1058F0000E94732B1F910F91FF90EF90DF90CF903C
:10590000BF90AF9008952F923F924F925F926F9207
:105910007F928F929F92AF92BF92CF92DF92EF923F
:10592000FF920F931F93DF93CF93CDB7DEB7CE5384
:10593000D1400FB6F894DEBF0FBECDBFC15DDE4FC4
:1059400079836883CF52D140CF5CDE4F598348833F
:10595000C153D140C75DDE4F19821882C952D14070
:105960009E012F5D3F4FC35CDE4F39832883CD53AB
:10597000D140A9014C5D5F4FC95CDE4F598348831C
:10598000C753D140DE01AB5FBE4FC55CDE4FB9836C
:10599000A883CB53D14088579F4FC75CDE4F998374
:1059A0008883C953D140E3C2C75DDE4F08811981A6
:1059B000C952D14026E0000F111F2A95E1F7C15DC1
:1059C000DE4FE881F981CF52D1400E0F1F1F9E019B
:1059D0002F5D3F4FCD5DDE4F39832883C352D140C9
:1059E000790160E070E0FB01EE0FFF1FEE0FFF1F7B
:1059F000E00FF11F208130E040E050E0522F4427BB
:105A000033272227838190E0A0E0B0E0282B392BB8
:105A10004A2B5B2B828190E0A0E0B0E0BA2FA92F47
:105A2000982F8827282B392B4A2B5B2B818190E0DC
:105A3000A0E0B0E0DC0199278827282B392B4A2BDE
:105A40005B2BD7012D933D934D935D937D016F5F4C
:105A50007F4F6031710539F6C95CDE4FE881F9810D
:105A6000C753D140A488B588C688D788CD5DDE4F9E
:105A7000A881B981C352D14014966D907D908D90CC
:105A80009C9017972D903D904D905D90CD5DDE4F91
:105A9000B983A883C352D14080819181A281B3810F
:105AA000280E391E4A1E5B1ED601C50103E1B695BC
:105AB000A795979587950A95D1F7A60195011DE0C1
:105AC000220F331F441F551F1A95D1F7822B932B9A
:105AD000A42BB52BA601950171E1569547953795F5
