:100000000C946E000C948D000C948D000C948D005B
:100010000C948D000C948D000C948D000C948D002C
:100020000C948D000C94DE240C948D000C948D00A7
:100030000C9435300C948D000C948D000C941E3073
:100040000C9474280C948D000C948D000C948D00ED
:100050000C94C2280C948D000C94B6280C948D003E
:100060000C948D000C948D000C948D000C948D00DC
:100070000C9400290C948D000C94F4280C948D00A1
:100080000C94C2440C948D000C948D002573257340
:100090000A004F6E6C696E650A000A002C206368C6
:1000A00065636B207261746520257520487A002590
:1000B000732025732C206368616E6E656C20257536
:1000C000000A2A2A2A2A2A2A2A426F6F74696E672E
:1000D0002025732A2A2A2A2A2A2A0A0011241FBE26
:1000E000CFEFD0E4DEBFCDBF12E0A0E0B1E0E2E9A7
:1000F000F6E900E00BBF02C007900D92A23BB107EA
:10010000D9F71CE3A2EBB2E001C01D92A338B107FE
:10011000E1F70E94CF270C94474B0C940000CF933B
:10012000DF93EC0188819981009729F0823691054F
:1001300009F06BC012C08BEB92E06BE079EB40E012
:1001400050E00E9412129093B8028093B70282E6A8
:1001500090E09983888381E05BC08091303268179A
:10016000B1F78091F93086FF0FC080E091E06CE03C
:1001700070E00E9404058091B7029091B8020E943D
:10018000550F81E090E028C081FFE1CFE091FE3083
:10019000F091FF308091E92B9091EA2BE80FF91F45
:1001A00010828091FE309091FF300E941625809140
:1001B000B2029091B3028130910599F48DE091E003
:1001C0006CE170E00E9404058091B7029091B80242
:1001D0000E94550F82E090E09093B3028093B202A8
:1001E000B6CF029709F0B3CF81E090E09093B502CB
:1001F0008093B4028091B9029091BA026091B602E4
:1002000040E050E00E94CB02A2CF1982188283E026
:10021000DF91CF910895CF93DF93EC01888199818D
:10022000009729F08535910509F054C044C080E25B
:1002300091E09093BC028093BB0286E098E3909398
:10024000BE028093BD0287E099E09093C002809344
:10025000BF0280E090E19093C2028093C10282E0ED
:100260009BE19093C4028093C30287E79FEF909332
:10027000C6028093C5028EEF95EB9093C8028093DF
:10028000C70287ED93E49093CA028093C9028091DC
:10029000CD029091CE029093BA028093B90280E68B
:1002A00091E060E070E00E94FE0285E590E09983B5
:1002B000888381E012C08091B6026817B1F78091FF
:1002C000B4029091B502892B81F38AE291E00E94F9
:1002D0001625EBCF1982188283E0DF91CF91089524
:1002E0008091D7028F5F8093D702815008951F932A
:1002F000CF93DF93EC01162F888580FF1CC0EC8123
:10030000FD813097C1F0D093CE02C093CD0282E040
:100310008887CE0106960995992787FD90950297C3
:10032000029710F0133829F4CE01BE010E949F01FC
:1003300002C081E08887DF91CF911F910895CF920D
:10034000DF92EF92FF920F931F93CF93DF93EC0115
:100350007B01C090CD02D090CE020091CB021091D3
:10036000CC02F80103C00190F081E02DEC17FD07ED
:1003700019F03097C1F746C0209709F443C088852B
:10038000882309F118860BC0C017D10729F0C801CE
:1003900067E8AE010E947701F80100811181011523
:1003A000110591F7EC81FD81309769F0CE15DF05DD
:1003B00051F0D093CE02C093CD02CE01069663E8F1
:1003C00040E050E00995E091CB02F091CC02CE17CD
:1003D000DF0791F4888199819093CC028093CB02BE
:1003E0000DC0808191818C179D0729F488819981A6
:1003F0009183808303C0FC01309799F7D092CE029D
:10040000C092CD02DF91CF911F910F91FF90EF909D
:10041000DF90CF9008956091CD027091CE020E943E
:100420009F0108958AE88093D7021092D902109212
:10043000D8021092CC021092CB021092CE021092EF
:10044000CD0208951F93CF93DF9380917A03882381
:10045000C1F010927A03C091CB02D091CC0211E08E
:100460000EC08985882341F018871986CE0162E87D
:1004700040E050E00E9477010990D881C02D20977C
:1004800081F72091D802222309F470C08091D9020B
:1004900090E0FC01EE0FFF1FEE0FFF1FE80FF91FAA
:1004A000E652FD4F60816093D602418152815093A4
:1004B000D5024093D4020380F481E02DF093D3025F
:1004C000E093D20201968F7190708093D9022150EF
:1004D0002093D802309709F042C08091CB029091CE
:1004E000CC029093D1028093D00211E031C0809170
:1004F0007A038823B9F010927A03C091CB02D0918D
:10050000CC020EC08985882341F018871986CE0158
:1005100062E840E050E00E9477010990D881C02D48
:10052000209781F74091D4025091D5028091D0025A
:100530009091D1026091D6020E947701E091D002A1
:10054000F091D102808191819093D1028093D00269
:100550008091D0029091D102892B49F607C0613871
:1005600011F481E08087CF010E94770180917A03A6
:100570002091D80230E0280F311DC901DF91CF91C1
:100580001F91089580917A032091D80230E0280FBE
:10059000311DC9010895DC012091D802203219F4DF
:1005A00021E030E01AC08091D902820F8F718093D0
:1005B000CF0290E0FC01EE0FFF1FEE0FFF1FE80FD0
:1005C000F91FE652FD4F608352834183B483A383B6
:1005D0002F5F2093D80220E030E0C90108950F93E7
:1005E0001F930091CD021091CE020E9477011093CB
:1005F000CE020093CD021F910F910895CF93DF9308
:10060000DC01EB016091CB024091CC02862F942F4C
:100610009C01F90103C00190F081E02DEA17FB076E
:10062000B9F03097C1F76C9311964C931197B09332
:10063000CC02A093CB0281E018968C931897179662
:100640001C921E921697CD0161E8AE010E94EF0246
:10065000DF91CF910895FC01009741F08085815092
:10066000823020F481E0818780937A03089520E02E
:1006700030E0FC018085882311F021E030E0C901E1
:100680000895FC015381560F5093F02B272F3327E9
:100690004281420F4093EF2BA181A093EE2BE0818A
:1006A000E093ED2B842F90E08217930748F48A2F74
:1006B0008F5F8093EE2B882319F4EF5FE093ED2B8F
:1006C000852F90E070708617970790F4842F8F5FC6
:1006D0008093EF2B882361F48091EE2B8F5F8093C2
:1006E000EE2B882329F48091ED2B8F5F8093ED2BE7
:1006F0000895FC0161507040680F791F20E030E0E0
:100700000EC0508140E08181DA01A80FB11D2A0F8F
:100710003B1F2A173B0710F42F5F3F4F3296E61717
:10072000F70778F3E617F70749F4908180E0280F80
:10073000391F2817390710F42F5F3F4F832F922F4F
:100740000895E9EFFBE240E050E0308120E0818154
:10075000B901680F711D460F571F4617570710F450
:100760004F5F5F4F32967CE2E032F70770F38CE226
:10077000E032F80751F4908180E0480F591F481784
:10078000590718F44F5F5F4F06C04115510519F422
:100790002FEF3FEF02C0342F252FC9010895CF93CB
:1007A000DF9390917C03A92FB0E03091FD2B20E0E6
:1007B0002A1B3B0B9091FE2B290F311DA901480FDD
:1007C000511DE1E0FCE2708160E08181EB01C80F26
:1007D000D11D4C0F5D1F4C175D0710F44F5F5F4F2D
:1007E00032968CE2E032F80770F38CE2E032F807E0
:1007F00049F4908180E0480F591F4817590710F4B9
:100800004F5F5F4FFD01EF5DF34D215030402E0FE4
:100810003F1F0EC0708160E08181DB01A80FB11D18
:100820004A0F5B1F4A175B0710F44F5F5F4F32960A
:10083000E217F30778F3E217F30751F4908180E0B1
:10084000480F591F4817590718F44F5F5F4F06C0EC
:100850004115510519F42FEF3FEF02C0342F252F1A
:10086000C901DF91CF9108958AE30E94CF030895D3
:1008700086E00E94CF03089581E10E94CF0308958E
:10088000CF93DF93582FA92F40912731E091123158
:10089000F091133120917F03309180032F5F3F4F00
:1008A000BDE720303B0710F020E030E1922F832F8E
:1008B000442319F0E817F90789F320937F03309355
:1008C000800380E090E0442329F410927E03E2E06C
:1008D000F1E30AC0473011F482E091E3FC0181E0CA
:1008E00080937E03309771F182E085A3809181032C
:1008F000808F80918203818F80918303828F80918A
:100900008403838F84EC94E0978F868F91A380A3D8
:1009100081E090E0958F848F17A281E086A383E029
:1009200084A312A280E183A3308B218B738B628B13
:10093000EF01252F3A2FC901DC0180E10D900992CA
:100940008150E1F7CF01DF91CF91089520913231AD
:10095000309133312817390739F410927E03109201
:10096000333110923231089581E080937E030895EF
:100970009C018091323190913331892B39F410925E
:100980007E033093333120933231089581E0809398
:100990007E030895BC01809100319091013144960D
:1009A0000E944103E0910031F09101318091ED2BE3
:1009B000848B8091EE2B858B8091EF2B868B8091A1
:1009C000F02B878B0895282F892F922F0895EF926F
:1009D000FF920F931F939C0144275527F22EE32E7D
:1009E00000E010E0362F272F40E050E0A901332728
:1009F0002227E22AF32A042B152BB701C8011F91E5
:100A00000F91FF90EF900895FC014091EB2B5091D6
:100A1000EC2B29EF30E3241B350B621773070CF422
:100A20009B011216130664F4209334313093353150
:100A3000E417F50729F0CA01BF01A9010E949247F6
:100A4000089582E080937D03A0917C032A2F30E0FB
:100A5000F901EF5DF34D8181682F70E043E0660F8F
:100A6000771F4A95E1F7695F7F4F42E0285D3F4F6E
:100A70003CC0F901E80FF91FE750F44D808188234D
:100A800019F0813019F42EC04F5F2FC090E0807CA8
:100A900090708038910549F0803C910549F0803490
:100AA000910501F540937D0309C040937D0308C083
:100AB00040937D038091112C8F3F11F481E00895C4
:100AC000242F30E040E050E02A0F311D411D511D20
:100AD000285D3F4F4F4F5F4F84E062E00E945E13FE
:100AE00082E0089581818E5F480F842F90E068171F
:100AF00079070CF0BECF40937D0380E00895CF923C
:100B0000DF92EF92FF920F931F93CF93DF93C091E9
:100B10000031D0910131843009F471C205E31CE247
:100B20001093FF300093FE301093EC2B0093EB2BCF
:100B3000833099F48DA1282F30E02F70307023304E
:100B4000310529F48C8D9D8D892B09F496C02230B6
:100B5000310511F00C94DB0D7FC0823009F091C09B
:100B60001092EA2B1092E92B109235311092343109
:100B7000809184038F5F80938403882399F480910C
:100B800083038F5F80938303882361F480918203C2
:100B90008F5F80938203882329F4809181038F5F84
:100BA000809381032DA1273011F0253051F48EA1BF
:100BB0008F5F8EA3853011F00C94DB0D1DA20C9479
:100BC000DB0D222311F40C94DB0D8C8D9D8D892B74
:100BD00009F44FC08EA181508EA38F5F09F0EBC73F
:100BE0003FA1383029F02150223048F4353039F413
:100BF0001DA280E88093F9300E94F40E87C635303C
:100C000010F080E307C083E090E002C0880F991FD6
:100C10003A95E2F78EA38FA18F5F8FA38DA190E00D
:100C20008F70907083309105F1F08430910544F419
:100C30008130910509F4FEC3029709F0BCC70CC0CE
:100C40008630910509F476C68830910509F472C69C
:100C5000049709F0B0C76EC6E0917C03F0E0EF5D49
:100C6000F34D1586EEC384E08093F9300E94F40EB4
:100C70008FC62F70233009F09EC788E08093F9302B
:100C800039C6853019F5E091FC30F091FD3080894E
:100C90009189892B09F48FC710920131109200318C
:100CA000C8010C979093FF308093FE309093EC2B0B
:100CB0008093EB2B10923531109234311092EA2B45
:100CC0001092E92B88E08093F93097C18091F92B3D
:100CD000807F803609F06FC79091FD2B80E02091D6
:100CE000FE2BAC01420F511D9A018091E92B90918E
:100CF000EA2B8417950708F45EC7285D3F4F3093B1
:100D0000EA2B2093E92B8091012C8F3F09F453C7E4
:100D1000C80184970E941720892B59F4C801849731
:100D20000E947D1F892B29F48091112C8F3F09F09F
:100D300042C78FEF9BE29093FB308093FA30109282
:100D40007C0310927B03E091FA30F091FB308081BC
:100D50008B3209F44BC08C3248F4863009F4BFC1A1
:100D6000813109F4B4C0882389F06BC08A3309F457
:100D700074C08B3320F48C3209F063C01CC78B33F2
:100D800009F419C78C3309F05CC006C080917B035D
:100D900080FD57C0816009C080917B0381FF04C042
:100DA00086FD4FC0806401C0826080937B030E94F7
:100DB0002105813009F4FFC6813018F0823019F620
:100DC00002C720917C03E22FF0E0CF018F5D934DAD
:100DD0009093FB308093FA30285FFC018181880F6B
:100DE000880F880F280F20937C03ADCF80917B0361
:100DF00082FD27C0846080937B0390917C03E92F60
:100E0000F0E0DF01AF5DB34D13968C91139788230B
:100E100049F0BA969F01442737FD4095542F84E04E
:100E200060E018C0B093FB30A093FA30985FEF5D9C
:100E3000F34D8181880F880F880F980F90937C0362
:100E400082CFE95FFB429F01442737FD4095542F35
:100E500084E061E00E945E13B6C60E9434048F5F96
:100E60009F4F09F0A8C6E0917C03F0E0E750F44DF5
:100E700080A50E943E0FE0917C03F0E0E750F44D26
:100E800080A58538C1F0863818F48038A1F410C0E8
:100E9000873829F0873848F0883869F403C00E9401
:100EA000CB190DC00E9465180AC00E94381407C0F3
:100EB0000E94F11204C01092EA2B1092E92B80914B
:100EC000E92B9091EA2B892B09F475C67CC6809199
:100ED000E92B9091EA2BC0979093EA2B8093E92B12
:100EE00089E29CE29093FF308093FE30E0917C0396
:100EF000F0E0EF5DF34D86819781892B31F00E9400
:100F00003C048F5F9F4F09F056C6E0917C03F0E0F0
:100F1000EF5DF34D82819381892B09F44CC686E302
:100F200091E39093FD308093FC3048C02889398943
:100F300021153105F1F180917C03E82FF0E0EF5DA0
:100F4000F34D828193818217930799F52A893B8912
:100F50002115310529F0808191818217930749F588
:100F600088819981892BE1F48A819B81892BC1F445
:100F70008C819D81892BA1F48E819F81892B81F4A5
:100F800088859985892B61F48A859B85892B41F415
:100F90008C859D85892B21F48E859F85892BC1F0B9
:100FA00081E09CE2BE0140E150E00E94854700974D
:100FB00079F06996D093FD30C093FC30C091FC303D
:100FC000D091FD30B2E3C033DB0708F4AFCFF3C5F7
:100FD000109201311092003182E08093F93089E261
:100FE0009CE29093FF308093FE309093EC2B8093A3
:100FF000EB2B10923531109234310E94F40E209177
:101000003431309135312115310509F4D4C5C90188
:10101000C0969093EA2B8093E92B285F3F4F309343
:10102000FD2B88528093FE2B4091FC305091FD3077
:10103000EA018C898093002C81E18093FF2BE09161
:101040007C03F0E0E750F44DDF01989614963C9352
:10105000149715962C93159717961C921E92169717
:101060008889998991A780A78A899B8913969C93DF
:101070008E931297A1E1BCE22091FC303091FD30BB
:10108000C901FC0180E101900D928150E1F781E0FE
:101090009CE261E17CE20E94E51C85E39CE2909386
:1010A000FF308093FE3080917C03C82FD0E0CF5D6D
:1010B000D34D0E943C04809590959F838E838091B0
:1010C0007C03E82FF0E0EF5DF34D86819781892B5B
:1010D00009F067C58FEF9FEF9783868362C50E94F3
:1010E00038048F5F9F4F09F066C580917C03082FFD
:1010F00010E00F5D134DD8011296ED90FC90139700
:10110000E114F10409F457C5CD90DC90C114D10469
:1011100009F451C5C2E0D1E38DA18823A1F08889EB
:101120009989E816F90679F48A899B89C816D9063F
:1011300051F481E09CE2BE0140E150E00E9485470D
:10114000009709F49BC1AC96B1E3C230DB0721F3F1
:1011500018F3E8018D858F738230D1F4F092870304
:10116000E092860310927E0341E00EC02091860338
:1011700030918703809132319091333128173907AC
:1011800009F48AC040937E0380917E03882371F323
:1011900080917C03E82FF0E0DF01AF5DB34D1D9639
:1011A0008C911D9782FD07C584E11D968C931D9738
:1011B0008CE390E09093EA2B8093E92BFD0180E58E
:1011C000848797811B968C911B9717968C93179702
:1011D000938796811A968C911A9716968C931697E8
:1011E0009287958119968C91199715968C931597DE
:1011F0009187948190937E0318968C9118971496FA
:101200008C93149790871B968C911B978F5F1B96DE
:101210008C931B978823C1F41A968C911A978F5F31
:101220001A968C931A97882379F419968C911997AA
:101230008F5F19968C931997882331F418968C91A7
:1012400018978F5F18968C93E0917C03F0E0DF0194
:10125000A750B44D98962D913C9199973093870360
:1012600020938603EF5DF34D828193819183808388
:101270009B963C932E939A97E1E1FCE2DF01509715
:1012800080E10D9001928150E1F781E09CE261E103
:101290007CE20E94E51C5FC410927E03C0E0D0E0B7
:1012A00021E014C080912731882319F4C2E0D1E3F2
:1012B00014C0873049F4209729F0909128318EA1ED
:1012C000891710F4C2E0D1E320937E0380917E035E
:1012D000882341F3209709F46EC4D0930131C09361
:1012E000003183E08EA38CA31AA284E08BA31FA2FB
:1012F000E0917C03F0E0E750F44D82A593A5998B33
:10130000888B80A591A59B8B8A8BDE01E1E0FCE2B6
:1013100080E101900D928150E1F781E08DA38091F1
:101320008103888F80918203898F809183038A8FC4
:10133000809184038B8F81E090E09D8F8C8FE09172
:101340007C03F0E0EF5DF34D87818F8BE0917C03B0
:10135000F0E0EF5DF34D86818E8BE0917C03F0E051
:10136000EF5DF34D85818D8BE0917C03F0E0EF5DC7
:10137000F34D84818C8B81E090E00E94CA04E0915F
:101380007C03F0E0EF5DF34D848590E0807F90700A
:10139000813591050CF44EC010927E0335C0F901E1
:1013A000E750F44D84AD80938503882309F442C04F
:1013B000813021F44F5F40937E0326C08230C1F418
:1013C00085AD8430A9F436AD20E087AD90E0822B66
:1013D000932B9093870380938603E4E0853C9E07DC
:1013E00010F084EC94E09F8F8E8F99A388A322C085
:1013F00080917E03E82FF0E0EA5CF34DE081EE237C
:10140000C9F0E80FE0937E0340917E03242F30E083
:10141000E0917C03F0E0EF5DF34D848582958F7061
:1014200090E00597880F991F880F991F2817390793
:101430000CF4B5CFE0917C03F0E0EF5DF34D80E17B
:101440008587E0917C03F0E0DF01AF5DB34D1D9631
:101450008C911D9782601D968C931D97FD0182E0F3
:10146000848B84E0858B868B84EC878B80E490E092
:101470009093EA2B8093E92B80E628C3D093013127
:10148000C09300311092F93080917C03E82FF0E096
:10149000DF01AF5DB34D1D968C911D9782FF03C098
:1014A0001DA280E2ABC21C968C9182958F70880F32
:1014B000880F80937E032091E92B3091EA2B2852EC
:1014C0003040281B31093093EA2B2093E92B8DA162
:1014D00090E08F7090708230910539F4EF5DF34D9C
:1014E00085858F73823149F42FC0019731F4EF5D08
:1014F000F34D85858F73823039F1232B59F4E091B8
:101500007C03F0E0EF5DF34D858590E08370907093
:10151000892BD1F080917C03E82FF0E0EF5DF34D53
:1015200094818C89981761F495818D89981741F47D
:1015300096818E89981721F497818F89981721F0C9
:10154000858581FD77CFAFC2E0917C03F0E0EF5D50
:10155000F34D858584FF52C06C8D7D8D61157105BD
:1015600009F44CC0CE0148960E94410380917C034F
:10157000E82FF0E0EF5DF34D20858091ED2B2817EB
:10158000E9F591858091EE2B9817C1F592858091B0
:10159000EF2B981799F593858091F02B981771F59B
:1015A000288F8091EE2B898F8091EF2B8A8F8091ED
:1015B000F02B8B8F8FA18823D1F42AA19CA18EA11F
:1015C000981B822F869586958695981B392F320F0A
:1015D0003AA38BA1282F26952695821B97FD9195DE
:1015E000890F8BA3369536953695830F8CA381E0B2
:1015F0008093F9308CA18EA31D8E1C8E8DA1282F77
:1016000030E0C9018F7090708430910509F4FBC1FE
:101610008530910564F48230910509F43DC0833032
:1016200091050CF0D5C0019709F0C5C210C08630F5
:10163000910509F430C2863091050CF408C2873058
:10164000910509F430C2089709F0B5C2D1C1809163
:10165000F93080FF16C083E08DA380E48093F930D9
:101660001D8E1C8E2091E92B3091EA2B211531051E
:1016700009F43CC182E48093F930C9010E94CA0494
:1016800035C1E0917C03F0E0EF5DF34D85858F730C
:10169000823009F090C2CECE8091F93080FF8DC0AB
:1016A00080917C03E82FF0E0EF5DF34D85858F732B
:1016B000823109F082C0848590E0807F907081350E
:1016C00091050CF44EC010927E0335C0F901E7502D
:1016D000F44D84AD80938503882309F442C08130A2
:1016E00021F44F5F40937E0326C08230C1F485AD64
:1016F0008430A9F436AD20E087AD90E0822B932BA7
:101700009093870380938603F4E0853C9F0710F055
:1017100084EC94E09F8F8E8F99A388A322C0809140
:101720007E03E82FF0E0EA5CF34DE081EE23C9F0A0
:10173000E80FE0937E0340917E03242F30E0E09198
:101740007C03F0E0EF5DF34D848582958F7090E02F
:101750000597880F991F880F991F281739070CF4D0
:10176000B5CF83E08DA3E0917C03F0E0EF5DF34D16
:1017700084818C8BE0917C03F0E0EF5DF34D8581FB
:101780008D8BE0917C03F0E0EF5DF34D86818E8BD5
:10179000E0917C03F0E0EF5DF34D87818F8B81E07A
:1017A00090E00E94CA0482E48093F9301D8E1C8E62
:1017B0001092EA2B1092E92B99C080E28093F930C5
:1017C0000E94F40EE0910031F091013115A2E0CCBD
:1017D00080917C03E82FF0E0EF5DF34D858580FF7D
:1017E00025C024FD23C08C8D9D8D892B09F0E3C17C
:1017F0008091E92B9091EA2B01960E94CA042091D6
:10180000F930822F80618093F9308091E92B90919B
:10181000EA2B892B19F022612093F9300E94F40EF3
:1018200081E090E09D8F8C8F88E082C085FF25C08D
:10183000328920E0838990E0282B392B8091FE307B
:101840009091FF30820F931F9093FF308093FE3072
:10185000E0917C03F0E0EF5DF34D328920E0838975
:1018600090E0282B392B8091E92B9091EA2B821B59
:10187000930B9093EA2B8093E92B2091E92B3091E5
:10188000EA2B2115310559F08DA184FD08C0809106
:10189000F93082608093F930C9010E94CA04E09156
:1018A0007C03F0E0EF5DF34D968580E02785820FA5
:1018B000911D909387038093860328A139A128174F
:1018C000390710F0892B21F4309387032093860386
:1018D00080918603909187039F8F8E8F8091F9303E
:1018E00090E083709070892B09F465C110923531B6
:1018F000109234310E94F40E8091F930282F85FF28
:101900000CC010923531109234311DA2E0917C034D
:10191000F0E0EF5DF34D84E1CCC084FF12C0109283
:1019200035311092343181E090E09D8F8C8F84E0CE
:101930008DA31FA2E0917C03F0E0EF5DF34D81E108
:10194000B8C08091343190913531892B01F120FF5D
:1019500002C01D8E1C8E8C8D9D8D0097A1F42E8D46
:101960003F8D80913431909135312817390720F41B
:101970003093353120933431809134319091353129
:101980009D8F8C8F04C090933531809334311FA28A
:101990008091EB2B9091EC2B9093FF308093FE3055
:1019A0008091343190913531892B81F08C8D9D8DD2
:1019B000009761F0CC969093EA2B8093E92BE0910D
:1019C0007C03F0E0EF5DF34D88E110C08091F930C9
:1019D00081FFF1C08CE390E09093EA2B8093E92B98
:1019E000E0917C03F0E0EF5DF34D80E1858768C016
:1019F0008091F93080FFDFC01DA280E18093F93033
:101A00000E94F40ED8C08091E92B9091EA2B0097A8
:101A100011F00E94CA04E0917C03F0E0EF5DF34D09
:101A200085859091F93080FF0BC090FF06C087E05C
:101A30008DA31EA21D8E1C8E1DC086E08DA31AC014
:101A400090FF22C085E08DA31D8E1C8EB4C08091B6
:101A5000E92B9091EA2B009711F00E94CA04E091C3
:101A60007C03F0E0EF5DF34D858580FF0DC087E0DE
:101A70008DA31EA281E090E00E94CA0480E18093C1
:101A8000F9300E94F40E0FC08091E92B9091EA2B5F
:101A9000892B49F490C08091F93080FF8CC087E099
:101AA0008DA31EA288C0E0917C03F0E0EF5DF34DB2
:101AB00080E185878CE390E09093EA2B8093E92B7B
:101AC000E0917C03F0E0EF5DF34D80E58487A09129
:101AD0007C03B0E0A750B44DFD01B8968C89808797
:101AE0008D8981878E8982878F898387888D84837A
:101AF000898D85838A8D86838B8D878386E080930D
:101B0000FF2B8889998999969C938E9398978A89B7
:101B10009B8993838283A1E1BCE2FE0180E1019075
:101B20000D928150E1F781E09CE261E17CE20E944C
:101B3000E51C8DA1E0917C0384FF06C0F0E0EF5D21
:101B4000F34D1786168607C0F0E0EF5DF34D84E095
:101B5000868784EC8787809136328093002C809131
:101B6000E92B9091EA2B88979093FD2B8091E92B9C
:101B700088528093FE2BE0917C03F0E08F010F5D93
:101B8000134DD80153961C92539752961C92F8010C
:101B9000118A108A0E94380480959095E801998BEB
:101BA000888B80E68093F92B1092FA2B1092FC2BF5
:101BB0001092FB2B08C01092EA2B1092E92B109286
:101BC0007C0310927B031092F930DF91CF911F912B
:101BD0000F91FF90EF90DF90CF9008950F931F9398
:101BE000CF93DF938C0120917F0330918003C9E173
:101BF000D0E02F5F3F4F8DE72030380710F020E016
:101C000030E1522F432FA0E011C08A2F90E08C9F2B
:101C1000F0018D9FF00D9C9FF00D1124EA5CFE4CAD
:101C200080899189AF5F8417950719F3AA3069F706
:101C300020937F033093800310927E0340E0A9E15C
:101C4000B0E01CC0542F5F5F842F90E08A9FF001AA
:101C50008B9FF00D9A9FF00D1124EA5CFE4C808959
:101C60009189892B51F440937E0389E1489FD001EB
:101C70001124AA5CBE4C49F427C0452F4A3010F30A
:101C800040937E03A0E0B0E01FC050963C93509775
:101C900051962C93519753967C936E9352970115BE
:101CA000110531F480E1ED0119928A95E9F707C039
:101CB000ED01F80180E1019009928150E1F78091F6
:101CC000363254968C935497CD01DF91CF911F916A
:101CD0000F9108950E9430221092333110923231C8
:101CE0001092273180E094E09093800380937F03EB
:101CF00020E049E150E00EC0822F90E0849FF00187
:101D0000859FF00D949FF00D1124EA5CFE4C118A22
:101D1000108A2F5F2A3080F320937E030895E0918C
:101D20009B03F0919C03309711F480E0089509958E
:101D3000089590939C0380939B030895FC018091E8
:101D4000CD029091CE0291A780A773A762A70895B4
:101D5000FC018091CD029091CE02968B858B708F85
:101D6000678B08959C0180912E3190912F31892BA2
:101D700011F081E008958091CD029091CE02909370
:101D80002F3180932E31309331312093303180E0E8
:101D900008952091CD023091CE024091950350914B
:101DA00096034817590789F48091970390919803F7
:101DB0008217930751F410928C031092960310929D
:101DC0009503CA010E94A604089581E080938C03C4
:101DD00008958DE893E00E94EE34892B21F08DE880
:101DE00093E00E943F360895CF93DF93E091003156
:101DF000F0910131309719F0EF01A89605C0C0911C
:101E0000FC30D091FD3065968091F93086FF1BC083
:101E100010928A03209195033091960380899189CD
:101E20002817390759F480919703909198030097E8
:101E300029F0998388831B821A8203C081E08093F2
:101E40008A030E94E90E88819981009731F04A81C6
:101E50005B81609130320E94EF02DF91CF91089553
:101E60008BE791E062E040E050E00E94EF021092C8
:101E7000EA2B1092E92B10927C030895DF93CF9305
:101E80000F92CDB7DEB7898380912E3190912F319B
:101E9000009739F060913132AE014F5F5F4F0E9481
:101EA000EF020F90CF91DF910895AC018BE791E0A5
:101EB00060E00E94CB020895AC018BE791E061E005
:101EC0000E94CB0208950F931F93CF93DF938091CD
:101ED000E92B9091EA2B009709F41FC1815095409E
:101EE00008F00CC101E11CE28091112C9091122CA0
:101EF000892B59F58091132C9091142C892B29F55D
:101F00008091152C9091162C892BF9F48091172C27
:101F10009091182C892BC9F48091192C90911A2C2E
:101F2000892B99F480911B2C90911C2C892B69F49E
:101F300080911D2C90911E2C892B39F480911F2C9F
:101F40009091202C892B09F4D9C08091112C8F3FBE
:101F500009F4D9C081E19CE20E94651E882379F4CE
:101F600081E19CE20E94241E009731F40E948F20A0
:101F70008C01009721F4C2C08C010D5E1F4FC80177
:101F80000E947120EC01009709F051C0C80160E087
:101F900070E040E020E00E94FA228C01009709F4F2
:101FA000ADC0EC01AE96CE0164EF71E00E94491C19
:101FB000892B99F0CE010E94FC1B29EF3BE2409156
:101FC000E92B5091EA2BB9010E9492476091E92BCD
:101FD0007091EA2BCE010E94181C81E09CE20E94C5
:101FE0001720A8014F5F5F4F892B19F081E09CE219
:101FF00002C080E090E060E070E00E94B317609162
:102000003F3270914032809141329091423228EEBD
:1020100033E040E050E00E94D34AC8018196BA0103
:10202000A9010E94573881E0F80183A76CC08DA5F3
:102030008823E9F4AE96CE0164EF71E00E94491C5A
:10204000892B09F45BC0CE010E94FC1B29EF3BE207
:102050004091E92B5091EA2BB9010E94924760917F
:10206000E92B7091EA2BCE010E94181C47C08230E8
:1020700059F483E08DA7CE01499645E050E060E039
:1020800070E00E9457381BA660913F327091403239
:10209000809141329091423228EE33E040E050E0AE
:1020A0000E94D34ACE018196BA01A9010E945738F5
:1020B0008E010F5E1F4FC8010E948F0EAE96CE019B
:1020C0000E94081C892BD1F0CE010E94081C90931D
:1020D000EA2B8093E92BCE010E94FC1BBC0129EF67
:1020E0003BE24091E92B5091EA2BC9010E949247B3
:1020F000CE010E94231CC8010E948F0E1092EA2B71
:102100001092E92B0AC080E090E00E948F0E10929E
:10211000EA2B1092E92B10927C03DF91CF911F9153
:102120000F910895DF92EF92FF920F931F93CF9339
:10213000DF937C018A01FC0180819181009729F065
:102140008F50934009F0F9C026C010929603109268
:10215000950381E0809388038091CD029091CE0217
:1021600090939A03809399030E9470018093303278
:102170000E947001809331328DE893E06EE370E04D
:102180000E9455360E946A0E8FE093E0F70191831A
:10219000808381E0D6C0623009F4B1C0633030F48E
:1021A000662309F48EC0613079F79BC0673819F057
:1021B000683851F73CC010928903C5E9D3E013C0D9
:1021C0008A819B818017910741F4888199810E94BF
:1021D000A604198218821B821A8224968091890390
:1021E0008F5F8093890380918903882349F3E7E215
:1021F000F1E3838194818017910719F4148213828B
:102200001082BC96CF0185978E52914390F3E6E3FE
:10221000F1E308C0858996898017910711F4118A26
:10222000108A799682E3E033F807A1F7ADCFE3E0B7
:102230004D385E0759F5CA010E94EE34892B31F101
:10224000109289038CE2D82E1DC0809127318823FB
:10225000A1F08DE893E00E943F36809189038D9D27
:10226000C00111248E5F9E4C909301318093003108
:1022700082E00E947F050E94630F809189038F5F37
:1022800080938903809189038823F9F2F7E3053865
:102290001F0749F4C8010E94EE34892B21F00E94E7
:1022A000CA200E94630F23E30938120709F06CCF9C
:1022B000C8010E94EE34892B09F466CF0E949E2348
:1022C0001BC04115510509F45FCF50930131409374
:1022D000003183E00E947F050E94630F0E94E90E97
:1022E00053CF4115510509F44FCF5093FD30409322
:1022F000FC3085E00E947F050E94630F45CF8091EE
:10230000E92B9091EA2B892B09F43ECF8091FF2B8A
:10231000863031F480912E2C81FF02C00E94E90E9C
:1023200081E00E947F058091E92B9091EA2B892B17
:1023300009F42ACF0E94301227CFF70111821082B0
:1023400083E0DF91CF911F910F91FF90EF90DF908D
:102350000895CF93DF93EA010E94EE0DFC010097F0
:1023600041F08091CD029091CE02968B858BD08FDB
:10237000C78BCF01DF91CF9108950F931F93DF9308
:10238000CF93CDB7DEB760970FB6F894DEBF0FBE20
:10239000CDBF8C01AB018FEF92E09A8389831C82C1
:1023A0001B821E821D8218861F821A8619861C8631
:1023B0001B861E861D8680E091E0988B8F87CE015C
:1023C0000196B8010E94A911FC01009711F0118B30
:1023D000008BCF0160960FB6F894DEBF0FBECDBF65
:1023E000CF91DF911F910F9108959C0180919503EA
:1023F00090919603892B91F410928B03309396035E
:10240000209395038091CD029091CE0290939803F2
:1024100080939703C9010E94B804089581E08093D6
:102420008B0308950F931F93CF93DF938A010E942C
:102430004004EC01009771F08091CD029091CE02A2
:1024400099A788A71BA70AA78BE791E060E0AE01D8
:102450000E94CB02CE01DF91CF911F910F91089581
:10246000EF92FF920F931F938091FF2B863009F01C
:102470005DC08091E92B9091EA2B8050954009F046
:1024800055C00EE912E01093EA2B0093E92B92E07D
:10249000E92EE092FD2B86E7F82EF092FE2B1092AB
:1024A000322C1092312C0E94380480959095909394
:1024B000322C8093312C0E94630F1093EA2B0093EF
:1024C000E92BE092FD2BF092FE2B2091FE30309113
:1024D000FF30C901FC01DC01AE59BD4F82E692E03C
:1024E0000D9001920197E1F785E29CE262E672E0CD
:1024F0000E9441038091ED2B8093252C8091EE2B3F
:102500008093262C8091EF2B8093272C8091F02BA9
:102510008093282C1092322C1092312C0E94380477
:10252000809590959093322C8093312C0E94630F6C
:102530001F910F91FF90EF900895EF92FF920F93EC
:102540001F93CF93DF93F62EE42E890120E620938C
:10255000F92B1092FA2B1092FC2B1092FB2B2AE3F2
:102560002093FF2B209136322093002C0C5F1F4FBD
:10257000212F332727FD3A95045010402093FD2B3F
:10258000202F2C5F2093FE2BA1E1BCE2FC0180E117
:1025900001900D928150E1F781E09CE261E17CE2E3
:1025A0000E94E51C80917C03C82FD0E0CF5DD34D05
:1025B000F882E9821B821A820E94340480959095E9
:1025C0009B838A83045D1F4F1093EA2B0093E92BB2
:1025D0000E94630FDF91CF911F910F91FF90EF90B9
:1025E000089529EF3BE2809136328093002C809150
:1025F000112C8F3F81F4D9015896F901389680E16A
:1026000001900D928150E1F781E09CE261E17CE272
:102610000E94E51C1BC0ADE9B3E0F901389680E1EA
:1026200001900D928150E1F7E1E0FCE2DF0150966C
:1026300080E10D9001928150E1F7A1E1BCE2EDE96A
:10264000F3E080E101900D928150E1F760917C030D
:10265000662301F18AE38093FF2B70E04091E92B20
:102660005091EA2B461B570B5093EA2B4093E92BD2
:10267000485250405093FD2B485D5F4F842F885245
:102680008093FE2B6B5D734D4C52504085E29CE273
:102690000E949B4710927C0381E88093212C10922A
:1026A000222C1092242C1092232C0E94340480950A
:1026B00090959093242C8093232C0895CF92DF92B1
:1026C000EF92FF920F931F93CF93DF93D82EC62ED6
:1026D00079018A0110927C038091FF2B8A3321F4C7
:1026E0008091212C87FF81C0ADE9B3E0E1E1FCE2FC
:1026F00080E101900D928150E1F78091E92B90915A
:10270000EA2BC0969093EA2B8093E92B8150954059
:1027100030F080E095E09093EA2B8093E92B409194
:10272000E92B5091EA2B4053504089E29CE269EF3B
:102730007BE20E949B4780E68093F92B1092FA2B54
:102740001092FC2B1092FB2B8AE38093FF2B80913D
:1027500036328093002C8091012C9091022C892B91
:1027600051F58091032C9091042C892B21F58091B7
:10277000052C9091062C892BF1F48091072C9091D7
:10278000082C892BC1F48091092C90910A2C892B5B
:1027900091F480910B2C90910C2C892B61F48091F9
:1027A0000D2C90910E2C892B31F480910F2C90914F
:1027B000102C892BD1F0E1E1FCE2DF01509780E1A0
:1027C0000D9001928150E1F780919D038F3F91F42C
:1027D00084E0D81651F422E0C21639F481E09CE27C
:1027E0006DE973E00E94E51C0EC01092EA2B109276
:1027F000E92B35C0A1E0BCE2EDE9F3E080E1019016
:102800000D928150E1F7E0917C03CE2FD0E0FE01E4
:10281000EF5DF34DD082C182C801B7010E94E70489
:10282000CB5DD34D688379838A839B838091E92B29
:102830009091EA2B88979093FD2B889688528093ED
:10284000FE2B80917C03C82FD0E0CF5DD34D1B823F
:102850001A820E943404809590959B838A83DF912D
:10286000CF911F910F91FF90EF90DF90CF9008953F
:10287000DF92EF92FF920F931F93CF93DF9380919C
:10288000002C8F3F09F0B2C28091012C8E3F09F0DD
:10289000ADC28091022C803809F0A8C280917C03DF
:1028A000A82FB0E0FD01EF5DF34D8181882309F091
:1028B0009DC2A750B44D9C968C91882311F08093B3
:1028C0003632E0917C03F0E0EB5DF34D648175817D
:1028D00086819781611571058105910561F1E0900F
:1028E0003732F09038320091393210913A320E94EA
:1028F000E704E616F70608071907E9F0E0917C03FC
:10290000F0E0EB5DF34D64817581868197810E94D3
:10291000E704609337327093383280933932909362
:102920003A320E947D1D60933B3270933C3280931B
:102930003D3290933E32E0917C03F0E0EB5DF34D4D
:102940006085718582859385611571058105910585
:1029500051F00E94E70460933F32709340328093BD
:102960004132909342328CE08093AD0382E0D82EC6
:10297000B6C1F901E750F44D8181882309F436C2CC
:102980008081833009F45FC0853009F44DC0813007
:1029900009F095C1F093AF03E093AE0381E09CE2B0
:1029A0000E947120FC019093C5038093C40300979B
:1029B00089F46091AE037091AF036E5F7F4F81E049
:1029C0009CE241E022E00E94FA229093C5038093AA
:1029D000C40375C185A5882309F4D5A6C091AE03AB
:1029E000D091AF0322960091C4031091C5030F5EEE
:1029F0001F4FCE01B80148E050E00E948547009784
:102A000061F0D801FE0188E001900D928150E1F75C
:102A1000E091C403F091C503D5A6E091C403F09101
:102A2000C50381E084A74BC164817581868197814C
:102A30000E94E704609332327093333280933432D1
:102A4000909335323CC1F093B103E093B0036481BD
:102A50007581868197810E94E7047B018C01E0915A
:102A6000B003F091B10360857185828593850E94E2
:102A7000E704E616F7060807190708F420C1E091F5
:102A8000B003F091B10380898E3F21F481898038B1
:102A900009F415C1838187FF5FC0CF014096628131
:102AA0000E943520EC019093C3038093C203E09110
:102AB000B003F091B103009749F564817581868177
:102AC0009781611571058105910509F445C0EF01F4
:102AD00060966F3F2FEF72072FEF82072FEF92075D
:102AE00041F012810E94E7049B01AC01CE01612FED
:102AF00006C0CE01628120E030E040E050E00E945C
:102B00007D219093C3038093C20326C064817581A5
:102B100086819781611571058105910549F06F3FA7
:102B20003FEF73073FEF83073FEF930741F404C084
:102B3000CE010E94731C10C081E08A8F0DC00E94DC
:102B4000E704AB01BC01CE0142960E945738E091E8
:102B5000C203F091C303128EE091B003F091B10370
:102B6000838186FFACC084819581A681B78100975F
:102B7000A105B10509F4A3C08281803409F09FC08A
:102B8000A2EBB3E0709680E101900D928150E1F7E5
:102B900082EB93E061EF7BE20E94E41D82EB93E025
:102BA0000E941720DC019093C9038093C80300970B
:102BB00009F45EC052962C915297213009F058C00A
:102BC000E091B003F091B1036481758186819781B2
:102BD0006F3F3FEF73073FEF83073FEF930709F422
:102BE00044C00E94E70461527C4180409040C0F4A0
:102BF000E091B003F091B103648175818681978182
:102C00000E94E7047B018C018091C8039091C90365
:102C100044960E94FB376E157F0580079107A0F44C
:102C20000091C8031091C9030C5E1F4FE091B003DF
:102C3000F091B10364817581868197810E94E704D8
:102C4000AB01BC01C80109C08091C8039091C903C0
:102C5000449640E25CE160E070E00E945738E09109
:102C6000C803F091C903138A2AC053962C9327C036
:102C7000E091B003F091B103648175818681978101
:102C80000E94E7046F5F7F4F8F4F9F4F39F482EBB5
:102C900093E040E050E060E070E00EC0E091B003EF
:102CA000F091B10364817581868197810E94E70468
:102CB000AB01BC0182EB93E021E00E94E520809112
:102CC000AD03E0917C03F0E0E750F44DE80FF11D17
:102CD00095A5990F990F990F980F9093AD03909127
:102CE0007C038091AD03282F30E0290F311D245D36
:102CF0003F4F8091E92B9091EA2B2817390708F470
:102D000038CE81E09CE20E9453209C019093C7033F
:102D10008093C603E0917C03F0E0EB5DF34D82818C
:102D20009381892B71F1E091C403F091C503309731
:102D300011F081E084A7C091C603D091C703E09150
:102D40007C03209779F4F0E0EB5DF34D8281938171
:102D50000E94E304AC0160E070E081E09CE20E942C
:102D6000D32115C0F0E0EB5DF34D828193810E9489
:102D7000E304AC0160E070E0CE0141960E94573858
:102D800006C02115310519F0C9010E946E1C809101
:102D9000C4039091C503009749F18E960E94081CC8
:102DA000892B21F18091C4039091C5038E960E94D6
:102DB000081C9093EA2B8093E92B8091C403909197
:102DC000C5038E960E94FC1BBC0129EF3BE240919B
:102DD000E92B5091EA2BC9010E9492478091C403CC
:102DE0009091C5038E960E94231C04C01092EA2B7A
:102DF0001092E92BDF91CF911F910F91FF90EF90EF
:102E0000DF900895CF93DF93FC01608382E081839C
:102E1000EF012296A1EFBBE288E00D90099281506C
:102E2000E1F7CF010A96FC0186E0DF011D928A9549
:102E3000E9F7DF91CF910895CF93DF9389EF9BE27C
:102E400020E62093F92B1092FA2B1092FC2B109273
:102E5000FB2B2AE32093FF2B2FEF2093002CFC0168
:102E600078962FEF32E03093122C2093112C13829E
:102E7000128215821482178216821186108613869A
:102E800012861586148620E032E03787268708965A
:102E9000BF010E94E51C40917C03242F30E0F90122
:102EA000EF5DF34D85E8808311821092FD2B8091B8
:102EB000012C9091022C892BA1F58091032C9091EB
:102EC000042C892B71F58091052C9091062C892B6F
:102ED00041F58091072C9091082C892B11F5809158
:102EE000092C90910A2C892BE1F480910B2C909164
:102EF0000C2C892BB1F480910D2C90910E2C892BE8
:102F000081F480910F2C9091102C892B51F488E042
:102F10008093FE2B205D3F4F3093EA2B2093E92BCB
:102F200011C0842F90E0805C9F4F9093EA2B809398
:102F3000E92B88E18093FE2BC901875D934D61E009
:102F40000E94021780917C03C82FD0E0CF5DD34D43
:102F50001B821A820E943404809590959B838A83F9
:102F6000DF91CF9108950F931F93CF93DF938C013F
:102F7000EA0110927C0380E68093F92B1092FA2BE1
:102F80001092FC2B1092FB2B8AE38093FF2B9FEF78
:102F90009093002CE1E1FCE261157105B9F4909386
:102FA000112C82E08183138212821582148217828F
:102FB000168211861086128681E0838794878D851C
:102FC00085878E859F859787868707C0DF01FB01F0
:102FD00080E101900D928150E1F787E88093212CE8
:102FE0001092222C1092252C1092262C1092272C15
:102FF0001092282CA9E2BCE2FE0180E101900D9222
:103000008150E1F71092FD2BCE010E941720892BF1
:1030100001F50115110549F0A1E0BCE2F80180E1DC
:1030200001900D928150E1F706C081E09CE261E1E0
:103030007CE20E94E51C88E28093FE2B80917C0359
:1030400090E0875C934D61E00E94021780E590E07C
:1030500025C01092022C1092012C1092042C109278
:10306000032C1092062C1092052C1092082C109212
:10307000072C10920A2C1092092C10920C2C1092F2
:103080000B2C10920E2C10920D2C1092102C1092D2
:103090000F2C88E18093FE2B80E490E09093EA2B44
:1030A0008093E92B80917C03C82FD0E0CF5DD34D76
:1030B0001B821A820E943404809590959B838A8398
:1030C000DF91CF911F910F910895DF92EF92FF92C0
:1030D0000F931F93CF93DF9390917C03E92FF0E040
:1030E000DF01AB5DB34DFC908091002C8F3F09F068
:1030F00046C1EF5DF34D8181882309F040C11496EC
:103100008C9114978F3F09F43AC120E4D22EDF202E
:10311000F6FE05C08091112C8F3F09F430C184E187
:103120008093AD031092AF031092AE03C091E92BD0
:10313000D091EA2B40E050E064E1292F30E0245D9B
:103140003F4F0FC0FC01E750F44D9181992309F4E2
:1031500010C18081823009F4AF01990F990F990F46
:10316000690FC901860F911D8C179D0758F3509365
:10317000AF034093AE036093AD03CD0104960E946C
:103180001720FC019093C9038093C803009741F076
:103190008189882309F0F3C0CF010E94D61FEFC0B8
:1031A00080917C0390E0875D934D0E9471208C019B
:1031B0009093C5038093C403009709F4E0C0C091C5
:1031C000AE03D091AF03209711F420E00AC0BC01F8
:1031D0006F5E7F4FCE01029648E050E00E94854727
:1031E000282F90E8E92EEF20F80185A58823A9F57E
:1031F000209709F4C4C0D8015196FE01329688E0A8
:1032000001900D928150E1F7E091C403F091C50364
:10321000DD2001F181E085A7E091C403F091C503B1
:1032200013A60091C4031091C50360913B327091C5
:103230003C3280913D3290913E3228EE33E040E0C6
:1032400050E00E94D34AC8014996BA01A9010E94E0
:1032500057385DC082E085A75AC0F5FC09C022231B
:1032600039F0813009F08BC082E0F80185A787C072
:10327000209749F0D8015196FE01329688E00190DE
:103280000D928150E1F7DD20F9F0E091C403F09157
:10329000C50381E085A70091C4031091C503609127
:1032A0003B3270913C3280913D3290913E3228EE1B
:1032B00033E040E050E00E94D34AC8014996BA0189
:1032C000A9010E9457380EC08091AE039091AF03C0
:1032D000892B41F0222331F0E091C403F091C50322
:1032E00082E085A7E091C403F091C50384A58823FB
:1032F00071F0EE2061F481E09CE20E9453209093F3
:10330000C7038093C603009711F00E946E1CE091E2
:10331000C403F091C503E4A68091C4039091C50352
:103320008E960E94081C892B51F18091C4039091C4
:10333000C5038E960E94081C9093EA2B8093E92B7C
:103340008091C4039091C5038E960E94FC1BBC0122
:1033500029EF3BE24091E92B5091EA2BC9010E94F1
:1033600092478091C4039091C5038E960E94231CBE
:103370000AC05093AF034093AE036093AD03109225
:10338000EA2B1092E92BDF91CF911F910F91FF90C3
:10339000EF90DF900895DF92EF92FF920F931F93CB
:1033A000CF93DF938091002C8F3F09F015C280915D
:1033B0007C03E82FF0E0E750F44D80A98F3F09F43B
:1033C0000BC281A5882309F007C21092AF031092A7
:1033D000AE0384E18093AD0342E0D42E89C0F901AD
:1033E000E750F44D8181882309F4F6C18081813052
:1033F00009F06EC0F093AF03E093AE038091012C0F
:103400009091022C892B59F58091032C9091042CDA
:10341000892B29F58091052C9091062C892BF9F4A4
:103420008091072C9091082C892BC9F48091092C4C
:1034300090910A2C892B99F480910B2C90910C2C53
:10344000892B69F480910D2C90910E2C892B39F4E5
:1034500080910F2C9091102C892B09F4BDC181E033
:103460009CE20E947120EC019093C5038093C403F9
:103470006091AE037091AF03009749F46E5F7F4F88
:1034800081E09CE240E022E00E94FA2221C032E08A
:10349000E32EF12CE60EF71E8C010F5E1F4FC701C5
:1034A000B80148E050E00E948547009769F0D801D4
:1034B000F70188E001900D928150E1F7E091C4039B
:1034C000F091C503D5A604C08DA5882309F4DDA617
:1034D0008091AD03E0917C03F0E0E750F44DE80FFC
:1034E000F11D95A5990F990F990F980F9093AD0322
:1034F00080917C03482F50E08091AD039A01280F02
:10350000311D245D3F4F8091E92B9091EA2B2817C4
:10351000390708F464CFCA01875D934D0E941720D4
:10352000FC019093C9038093C803009709F454C128
:103530008091012C9091022C892B09F099C08091E7
:10354000032C9091042C892B09F092C08091052CBA
:103550009091062C892B09F08BC08091072C9091BB
:10356000082C892B09F084C08091092C90910A2C99
:10357000892B09F07DC080910B2C90910C2C892B0C
:1035800009F076C080910D2C90910E2C892B09F0BA
:103590006FC080910F2C9091102C892B09F068C07E
:1035A0008091112C8F3F09F017C18091122C82302D
:1035B00009F012C18091132C9091142C892B09F0E1
:1035C0000BC18091152C9091162C892B09F004C108
:1035D0008091172C9091182C892B09F0FDC08091B7
:1035E000192C90911A2C892B09F0F6C080911B2C74
:1035F000882309F0F1C080911C2C813009F0ECC0C7
:1036000080911D2C8F3F09F0E7C08189882361F1EB
:103610008FEF92E09093122C8093112C1092142C27
:103620001092132C1092162C1092152C1092182C0C
:103630001092172C10921A2C1092192C10921C2CEC
:1036400010921B2C10921E2C10921D2C80E091E0E9
:103650009093202C80931F2C81E09CE261E17CE21E
:103660000E94E51C90E272C0CF010E94D61FB4C038
:1036700081E09CE20E941720892B09F0ADC0809167
:10368000112C8F3F09F03FC08091122C8230D9F568
:103690008091132C9091142C892BA9F58091152CD5
:1036A0009091162C892B79F58091172C9091182CDC
:1036B000892B49F58091192C90911A2C892B19F599
:1036C00080911B2C8823F9F480911C2C8130D9F433
:1036D00080911D2C8F3FB9F4E1E1FCE2DF015097AE
:1036E00080E10D9001928150E1F780917C03E82FF9
:1036F000F0E0A1E0BCE2E75DF34D80E101900D92C6
:103700008150E1F722C081E19CE20E9417202091C4
:10371000C8033091C9032817390709F05DC0E1E1FA
:10372000FCE2DF01509780E10D9001928150E1F7BA
:1037300080917C03E82FF0E0A1E0BCE2E75DF34D6F
:1037400080E101900D928150E1F790E610927C03A8
:1037500080E68093F92B1092FA2B1092FC2B10929A
:10376000FB2B1092FD2B88E28093FE2B8AE3809343
:10377000FF2B8FEF8093002C88E88093212C1092F0
:10378000222C9093252CE091C803F091C903A9E263
:10379000BCE2319680E101900D928150E1F7809179
:1037A0007C0390E0875C934D62E00E940217809159
:1037B0007C03C82FD0E0CF5DD34D1B821A820E94BC
:1037C0003404809590959B838A8380E590E0909364
:1037D000EA2B8093E92B04C01092EA2B1092E92B7C
:1037E000DF91CF911F910F91FF90EF90DF9008959F
:1037F000FC01118210820895FC0180819181009763
:1038000019F4E0E0F0E002C0FC013296CF01089527
:10381000FC010190F081E02D309719F4E0E0F0E038
:1038200005C0EE5FFA4F0190F081E02DCF010895C1
:10383000FC010190F081E02D309721F0EE5FFA4F0E
:10384000718360830895CF93DF93EC018881998120
:10385000009761F08C5F9A4F0E94EB366881798106
:1038600085E891E00E94813219821882DF91CF9120
:1038700008950F931F938C01FC016081718185E88D
:1038800091E00E948132F801118210821F910F9104
:1038900008950F931F93CF93DF93EC018B018881E1
:1038A0009981892B19F020E030E012C085E891E081
:1038B0000E94533299838883009741F08C5F9A4F1E
:1038C000B80149E35CE19E010E942D3728813981CE
:1038D000C901DF91CF911F910F910895FC010097CD
:1038E00009F010820895FC01009709F010820895F4
:1038F000682F84E492E390930C0E80930B0EFC01EE
:10390000462F552747FD509516C08081882391F09A
:103910006F3F29F0818990E08417950759F48181E0
:103920008E3F41F48281803829F4F0930C0EE093AD
:103930000B0E0CC0B1969F0182E3E83CF80728F318
:10394000F0930C0EE0930B0E20E030E0C9010895D7
:10395000682F84E492E390930C0E80930B0EFC018D
:10396000462F552747FD509516C08081882391F03A
:103970006F3F29F0818990E08417950759F4818180
:103980008E3F19F48281803829F0F0930C0EE09379
:103990000B0E0CC0B1969F0182E3E83CF80728F3B8
:1039A000F0930C0EE0930B0E20E030E0C901089577
:1039B000FC01009709F010820895FC01009709F0BE
:1039C00010820895FC0110820895FF920F931F93B7
:1039D000CF93DF938C01FB0180818E3F21F48181A5
:1039E000803821F444C08F3F09F441C084E492E35D
:1039F00090930C0E80930B0EFF2440E050E02EC0FD
:103A00008081882331F18189813019F581818E3F50
:103A100019F482818038E9F0EB01DF0180E0388120
:103A200011962C911197321731F4885F21961196D7
:103A30008038A9F70AC02327982F985F27FD05C073
:103A40008F5F891711F0220FF9CF8F1510F0F82E24
:103A5000AF01B196F0930C0EE0930B0EE0910B0EBC
:103A6000F0910C0E82E3E83CF80750F204C081E0CC
:103A70000E94781CAC014115510591F4F8011182A6
:103A80001082138212821582148217821682118686
:103A9000108613861286158614861786168608C029
:103AA000D801FA01319680E101900D928150E1F741
:103AB000DF91CF911F910F91FF90089540E020E09A
:103AC00030E0FC01E20FF31F5081FB01E20FF31F16
:103AD000E0815E1731F4485F2F5F3F4F403889F730
:103AE0000AC0E527842F885FE7FD05C04F5F4817B0
:103AF00011F0EE0FF9CF842F0895DF92EF92FF922D
:103B00000F931F930E946938D82E0E946938E09065
:103B10003732F09038320091393210913A323D2DDF
:103B200020E0280F391F40E050E0CA01B901A80188
:103B300097010E94D34A9B01AC0116950795F79413
:103B4000E7942E0D3F1D401F511FB901CA011F915F
:103B50000F91FF90EF90DF900895CF93DF93EC01EA
:103B600098A180914332981750F5AE014F5F5F4F97
:103B700080E090E060E070E00E94B31788A18F5F62
:103B800088A360913F327091403280914132909190
:103B9000423228EE33E040E050E00E94D34ACA01AE
:103BA000B9012DE730E040E050E00E94A04A9B01BF
:103BB000AC01CE014C96B9010E94B13302C081E044
:103BC000898BDF91CF910895CF93DF93DC01EC01D6
:103BD0002896FB0188E0019009928150E1F7189640
:103BE0008C91189792E0892718968C93DF91CF914A
:103BF00008950F931F93CF93DF938C018DE897E384
:103C00009093180E8093170E12C08881882351F06C
:103C1000CE014396B80140E150E00E9485470097ED
:103C200009F41882AE96D093180EC093170EC09167
:103C3000170ED091180E8BE3C532D80730F3DF9101
:103C4000CF911F910F910895CF92DF92EF92FF9243
:103C50000F931F93CF93DF936C018DE897E39093BD
:103C6000180E8093170E00E010E0EE241CC088812F
:103C7000882391F0F988FE1478F0BE016F5F7F4FC2
:103C80004F2D469546954695C60150E00E948547C2
:103C9000009711F48E0101C0FE2CAE96D093180E41
:103CA000C093170EEF2CC091170ED091180E8BE316
:103CB000C532D807E0F2C801DF91CF911F910F9173
:103CC000FF90EF90DF90CF9008950F931F93CF93C5
:103CD000DF938C018DE193E39093120E8093110E8C
:103CE00016C08881882371F0498946954695469586
:103CF000CE010196B80150E00E948547009711F46B
:103D000081E00EC06B96D093120EC093110EC0913D
:103D1000110ED091120E83E3C938D80710F380E05A
:103D2000DF91CF911F910F9108958F929F92AF9243
:103D3000BF92DF92EF92FF920F931F93CF93DF9387
:103D40005A014901D02EF7011182108270E0469F7E
:103D50008001479F100D569F100D1124080F191F49
:103D6000D694D694D694EC0116C08881882371F03D
:103D7000CE010196B4014D2D50E00E948547009779
:103D800041F4F701D183C08380E010C0F701D183F3
:103D9000C083CA0DDB1DC017D10738F3F70180813E
:103DA0009181892B11F482E001C081E0DF91CF91F4
:103DB0001F910F91FF90EF90DF90BF90AF909F9079
:103DC0008F9008959F92AF92BF92CF92DF92EF9221
:103DD000FF920F931F93CF93DF93182FD92EC62EE8
:103DE000B42EA52E922E8DE897E364E14EE250E0CA
:103DF000212F3D2D0C2D77E1E72E7EE0F72E0E943E
:103E0000951E8130E1F4C091170ED091180EFE017D
:103E10008193812F9D2D9C01D90180E10D9001920C
:103E20008150E1F7C98ADE0153968B2D9A2D9C01B2
:103E3000F90180E101900D928150E1F79A8A809119
:103E4000170E9091180EDF91CF911F910F91FF9057
:103E5000EF90DF90CF90BF90AF909F900895EF923A
:103E6000FF920F939C0188EC92E360E041E150E007
:103E700000E8EFE0EE2EEEE0FE2E0E94951E882375
:103E800019F020E030E004C020910F0E3091100EA8
:103E9000C9010F91FF90EF900895DF92EF92FF928A
:103EA0000F931F93182FD92E88EC92E360E041E125
:103EB00050E0212F3D2D00E8FFE0EF2EFEE0FF2E29
:103EC0000E94951E813019F040E050E00FC04091F3
:103ED0000F0E5091100EFA018193812F9D2D9C01A0
:103EE000D90180E10D9001928150E1F7CA011F9143
:103EF0000F91FF90EF90DF900895EF92FF920F9354
:103F00009C0188EC92E365E041E150E000E8ADE01F
:103F1000EA2EAEE0FA2E0E94951E882319F020E0CA
:103F200030E004C020910D0E30910E0EC9010F91AA
:103F3000FF90EF900895CF93DF93EC01009799F1F4
:103F40009FEF9093F90D82E08093FA0D1092FC0D93
:103F50001092FB0D1092FE0D1092FD0D1092000EAE
:103F60001092FF0D1092020E1092010E1092030E8D
:103F700081E08093040E9093050E8E858093060E4B
:103F80008F8598899093080E8093070E89EF9DE0A6
:103F90000E947D1FFC0190930E0E80930D0E0097E2
:103FA00009F010821882DF91CF910895FC01818180
:103FB0008E3F31F48281803819F420E030E005C072
:103FC000CF010E949B1F21E030E0C9010895DF92DC
:103FD000EF92FF920F931F93182FD92E88EC92E344
:103FE00065E041E150E0212F3D2D00E8BDE0EB2EE2
:103FF000BEE0FB2E0E94951E813019F040E050E09B
:104000000FC040910D0E50910E0EFA018193812F39
:104010009D2D9C01D90180E10D9001928150E1F725
:10402000CA011F910F91FF90EF90DF900895EF92DA
:10403000FF920F939C0184E492E364E041E250E03C
:1040400000E87BE0E72E7EE0F72E0E94951E882395
:1040500019F020E030E004C020910B0E30910C0EDE
:10406000C9010F91FF90EF900895EF92FF920F9387
:104070009C01062F8DE193E364E04BE150E0E1E128
:10408000EE2EEEE0FE2E0E94951E882319F020E011
:1040900030E004C02091110E3091120EC9010F9131
:1040A000FF90EF900895EF92FF920F939C0181E9AA
:1040B00093E362E04AE150E000E8F5E1EF2EFEE034
:1040C000FF2E0E94951E882319F020E030E004C0E6
:1040D0002091150E3091160EC9010F91FF90EF90AF
:1040E0000895EF92FF920F939C0185EC93E364E1B6
:1040F00040E350E000E8A3E1EA2EAEE0FA2E0E9491
:10410000951E882319F020E030E004C02091130EA2
:104110003091140EC9010F91FF90EF900895109205
:104120000A0E1092090E81E993E322C08081882350
:10413000D1F0CF0101960E947120FC01009751F04F
:1041400085A5882339F02091150E3091160E2F5F2A
:104150003F4F1EC08091150E9091160E01969093C0
:104160000A0E8093090E8091150E9091160E4A96B4
:104170009093160E8093150EE091150EF091160E89
:1041800083E3E53CF80790F22091090E30910A0E86
:10419000C90108950E948F20892B91F48091F80D18
:1041A000833070F40E941C178091F80D8F5F80930C
:1041B000F80D85E897E364EF71E00E9455360895A5
:1041C00085E897E30E94533508958F929F92AF92AE
:1041D000BF92CF92DF92EF92FF920F931F93CF93F4
:1041E000DF934C015A016B01122F84E492E364E0E7
:1041F00041E250E0940100E8BBE0EB2EBEE0FB2E74
:104200000E94951E813019F020E030E068C0A09136
:104210000B0EB0910C0EFD018193E40180E1099039
:1042200001928150E1F751961C92519752961C933E
:104230005297A114B104C104D10421F481E0539632
:104240008C9309C053961C925397CD014496B601A6
:10425000A5010E94573800910B0E10910C0E045EC0
:104260001F4F0E9469386DE770E00E94BF4ABC0191
:10427000C8010E94B133E0910B0EF0910C0E10A218
:104280009FEF9093F90D82E08093FA0D1092FC0D50
:104290001092FB0D1092FE0D1092FD0D1092000E6B
:1042A0001092FF0D1092020E1092010E1092030E4A
:1042B00081E08093040E9093050EF4018585809330
:1042C000060E868597859093080E8093070E89EFDA
:1042D0009DE00E94E71F20910B0E30910C0EC9014A
:1042E000DF91CF911F910F91FF90EF90DF90CF90D2
:1042F000BF90AF909F908F9008958F929F92AF92B2
:10430000BF92CF92DF92EF92FF920F931F93CF93C2
:10431000DF93182F992E862E59016A018DE193E3C0
:1043200064E04BE150E0212F392D082D71E1E72E9B
:104330007EE0F72E0E94951E813031F5A091110E7E
:10434000B091120EFD018193812F992D9C01E901FD
:1043500080E1099001928150E1F751968C9251973A
:10436000A114B104C104D10461F0CD014296B6019B
:10437000A5010E945738E091110EF091120E128E95
:1043800003C081E05A968C9380E090E0DF91CF915A
:104390001F910F91FF90EF90DF90CF90BF90AF9063
:1043A0009F908F9008959F92AF92BF92CF92DF928D
:1043B000EF92FF920F931F93CF93DF93182F992EB5
:1043C0005A016B0181E993E362E04AE150E0212F59
:1043D000392D00E8E5E1EE2EEEE0FE2E0E94951E5E
:1043E000813019F020E030E026C0C091150ED09148
:1043F000160EFE018193812F992D9C01D90180E138
:104400000D9001928150E1F7A114B104C104D104CF
:1044100061F0CE014196B601A5010E945738E091A6
:10442000150EF091160E118E02C081E0898F209139
:10443000150E3091160EC901DF91CF911F910F918A
:10444000FF90EF90DF90CF90BF90AF909F90089536
:10445000FC01009721F010828E960E94231C089583
:1044600080EC93E0E5ECF3E3DF019C011D92215029
:104470003040E1F784E3E1E9F3E3DF011D928A953F
:10448000E9F78CE6EDE1F3E3DF011D928A95E9F7A8
:104490008BEEE2E3F2E3DF011D928A95E9F788E90A
:1044A00093E0EDE8F7E3DF019C011D9221503040DD
:1044B000E1F780E095E0A0E0B0E0809332329093A5
:1044C0003332A0933432B093353280E48093363265
:1044D00080E395E7A0E0B0E08093373290933832E4
:1044E000A0933932B0933A320E947D1D60933B32E3
:1044F00070933C3280933D3290933E3288EE93E04D
:10450000A0E0B0E080933F3290934032A0934132DC
:10451000B093423281E0809343328EEF90E89093E3
:10452000FA0D8093F90D1092FC0D1092FB0D109274
:10453000FE0D1092FD0D1092000E1092FF0D89EFEE
:104540009DE060E420E030E040E050E00E947D210A
:10455000A1E0BEE0E1EFFBE288E001900D92815026
:10456000E1F78091010E92E089278093010E89EF97
:104570009DE040E050E060E070E021E00E94E52036
:104580008FEF92E09093FA0D8093F90D1092FC0D4D
:104590001092FB0D1092FE0D1092FD0D1092000E68
:1045A0001092FF0D1092020E1092010E1092040E46
:1045B0001092030E1092060E1092050E80E091E00C
:1045C0009093080E8093070E89EF9DE00E94E71FED
:1045D0000E9469386DE770E00E94BF4ABC0185E81F
:1045E00097E30E94553689E893E36CE070E00E94FF
:1045F00055360895BF92CF92DF92EF92FF920F93BC
:104600001F93CF93DF93182FD92EEB01C42EB22E18
:1046100085EC93E364E140E350E0212F3D2D00E879
:10462000F3E1EF2EFEE0FF2E0E94951E90E0813018
:10463000910509F054C04091130E5091140EDA0107
:1046400081E08D93212F3D2DC901FC0180E1019076
:104650000D928150E1F7CA014196209741F0FC018B
:10466000DE0188E00D9001928150E1F706C0FC0167
:1046700088E0DF011D928A95E9F7E091130EF09131
:10468000140EC4A6B5A6CF018E960E94F81B809189
:10469000130E9091140E499640E050E060E070E0F7
:1046A0000E9457388091130E9091140E819640E02D
:1046B00050E060E070E00E9457380091130E1091B6
:1046C000140EF80113A60E942628D8019A969C93EE
:1046D0008E9399972091130E3091140E24C0029757
:1046E00001F50E942628AC01E5ECF3E360E070E000
:1046F0000DC08081882339F021A532A52417350704
:1047000010F4BF0101C09A01F096A901B7E3E538A2
:10471000FB0779F76115710521F0CB010E94282272
:1047200077CF20E030E0C901DF91CF911F910F9149
:10473000FF90EF90DF90CF90BF900895DF92EF92BF
:10474000FF920F931F9384E492E330C0808188230B
:1047500041F18389882369F4CF0144960E9421386E
:10476000892B39F080910B0E90910C0E0E949B1FAB
:1047700018C0E0910B0EF0910C0E8189882389F40A
:1047800090A180914332891760F0CF014C960E942E
:104790008E33892B31F080910B0E90910C0E0E947C
:1047A000AD1D80910B0E90910C0E819690930C0E86
:1047B00080930B0EE0910B0EF0910C0E82E3E83C1F
:1047C000F80720F281E993E318C08081882381F003
:1047D000818D882369F4CF0141960E942138892B6D
:1047E00039F0E091150EF091160E309709F0108215
:1047F0008091150E9091160E4A969093160E809306
:10480000150EE091150EF091160E83E3E53CF807C6
:10481000E0F28DE193E318C08081882381F0828DDE
:10482000882369F4CF0142960E942138892B39F000
:10483000E091110EF091120E309709F010828091E4
:10484000110E9091120E4B969093120E8093110EB2
:10485000E091110EF091120E83E3E938F807E0F2CF
:1048600085EC93E39093140E8093130EB2E0EB2E3D
:10487000A4E0DA2EFF24F3948EC08081882309F40B
:1048800081C085A5813009F1813030F0833051F14C
:10489000843009F077C034C083A5833010F0CF0195
:1048A00042C0CF0181960E942138892B09F46AC049
:1048B000E091130EF091140E83A58F5F83A73196BC
:1048C00080E090E060E070E042C0CF0149960E9435
:1048D0002138892B09F456C0E091130EF091140E83
:1048E000E5A650C0CF0149960E942138892B09F4D2
:1048F00049C0E091130EF091140ED5A6F3A623C083
:1049000083A5833098F0CF0101960E945320FC01CB
:104910009093160E8093150E009709F010828091E7
:10492000130E9091140E0E9428222CC0CF01819664
:104930000E942138892B31F1E091130EF091140E71
:1049400083A58F5F83A7319680E090E0BF01AF0120
:104950000E94B3170091130E1091140E60913F3214
:1049600070914032809141329091423228EE33E092
:1049700040E050E00E94D34AC8018196BA01A901E3
:104980000E9457388091130E9091140EC096909308
:10499000140E8093130EE091130EF091140E87E322
:1049A000E538F80708F469CF89E893E30E944A36AE
:1049B0001F910F91FF90EF90DF9008951F920F923B
:1049C0000FB60F9211240F900FBE0F901F901895E5
:1049D000EF92FF920F931F93CF93DF93182FE62E42
:1049E000F42E052F80E061E00E94A82980E06E2D62
:1049F0000E94A82980E0612F0E94A8292F2D302F26
:104A0000C901EC0104C0699180E00E94A8299E01BF
:104A10002F192E15C0F380E064E00E94A829DF91D1
:104A2000CF911F910F91FF90EF900895AC01DC01A1
:104A30000D900020E9F76A2F681B653108F064E1EA
:104A400082EC0E94E8240895382F882329F0809171
:104A5000353B8F5F8093353B20912E0E213041F006
:104A6000213018F0223051F406C0313039F523C01E
:104A700030932F0E20C03093300E1DC02731A8F484
:104A8000E22FF0E080912F0E90E002968E179F07A4
:104A90007CF4343051F481E08093310E89EA91E066
:104AA00061E040E050E00E94CB0210922E0E06C062
:104AB000E95EF14F30832F5F20932E0E80E090E06F
:104AC00008950F931F93082F2FB783B7817F8660B8
:104AD00083BF002311F413E001C0102FF8948091DC
:104AE000B60080628093B60082E08093B00087E0D9
:104AF0008093B100812F90E035E0880F991F3A959F
:104B0000E1F78093B3002FBF1092B2000E945D2A9C
:104B10008091B60084FDFCCF80917000826080930C
:104B2000700083B7816083BF1092353B83B781608B
:104B300083BF889583B78E7F83BF812F0E94D6273E
:104B4000002321F48091353B882371F383B78E7F56
:104B500083BF809170008D7F809370000E94462AF1
:104B60001F910F910895CF93DF9380E68093F92BE7
:104B700081E08093FA2B1092FC2B1092FB2B8AE39E
:104B80008093FF2B809136328093002C0E948F20DF
:104B9000A1E1BCE2FC0180E101900D928150E1F7BE
:104BA00081E09CE261E17CE20E94E51C80917C0353
:104BB00090E0FC01EF5DF34D20E820831182FC01C1
:104BC000EB5DF34D1082118212821382875D934D4B
:104BD000FC0180E1DF011D928A95E9F780E490E015
:104BE0009093EA2B8093E92B1092FD2B88E1809320
:104BF000FE2B80917C03C82FD0E0CF5DD34D1B826C
:104C00001A820E943404809590959B838A830E9427
:104C1000630FDF91CF910895CF93DF93EC01FA01F9
:104C200088819981009729F0805E914009F055C0F4
:104C30000DC080E090E00E94B20E882309F04DC0C4
:104C400080EE91E09983888381E04AC0809131327F
:104C5000681791F44081403819F0413889F705C050
:104C600081EC60E040E050E004C080EC61E049E1AC
:104C70005EE00E94E824E4CF613011F78091310EAC
:104C80008823F1F28091300E833859F08438E1F0B6
:104C9000813801F580911A0E8093190E0E94B32578
:104CA00019C080911A0E8823F1F4E0911002F0915E
:104CB0001102099580911A0E0E946125E0910E0261
:104CC000F0910F02099506C083EC60E040E050E0EF
:104CD0000E94E8241092310EB3CF1982188283E02B
:104CE000DF91CF9108958091273190E08F7090707F
:104CF000892B81F7DACF9C01F999FECF32BD21BD16
:104D0000F89A80B5089500D000D000D0EDB7FEB776
:104D100031962CE830E0ADB7BEB712963C932E9397
:104D2000119793838283758364830E94D0478DB7E4
:104D30009EB706960FB6F8949EBF0FBE8DBF08951E
:104D4000EF92FF920F931F93DF93CF93CDB7DEB710
:104D500028970FB6F894DEBF0FBECDBF0E94362A4B
:104D60000E94462A0E94FA3280E06CE046E00E94EF
:104D7000322980E064E275E20E94BE2981E068E0A9
:104D800046E00E94322981E00E94122A0E941628E1
:104D900000D000D081EC90E0ADB7BEB712969C93E6
:104DA0008E93119783EB91E014969C938E931397B7
:104DB0000E94D0470F900F900F900F900E94D13714
:104DC0000E94120285E592E060E070E00E94FE021F
:104DD0000E948A37E091FE01F091FF0109958E0152
:104DE0000F5F1F4F88E0F80111928A95E9F7C8011B
:104DF00060E070E048E050E02BE736E20E94B44704
:104E0000A1EFBBE2F80188E001900D928150E1F73B
:104E10008DEC9BEA60E070E0AE014F5F5F4F0E9457
:104E2000682EF999FECF88E090E092BD81BDF89A96
:104E300080B58093363BF999FECF89E090E092BD32
:104E400081BDF89A80B52091363B30E090E08095A6
:104E500090952817390711F08AE102C08091363BFE
:104E60000E94812CCE0101960E94E2300E942C3BD0
:104E7000E0913D02F0913E020995E0912402F0910B
:104E800025020995E091A502F091A60209950091ED
:104E9000220210912302E0903B02F0903C020E941B
:104EA000F22A2DB73EB7285030400FB6F8943EBFD7
:104EB0000FBE2DBFEDB7FEB731962FEA30E0ADB78C
:104EC000BEB712963C932E93119713830283F582FB
:104ED000E482868317820E94D047E0914702F091D6
:104EE00048022DB73EB7285F3F4F0FB6F8943EBF3C
:104EF0000FBE2DBF3097F1F00995BC018DE790E012
:104F00000E94BF4A8FEF6F3F7807A1F000D000D01A
:104F10008CE990E0ADB7BEB712969C938E93119733
:104F200014967C936E9313970E94D0470F900F9026
:104F30000F900F9000D08AE990E0EDB7FEB7928312
:104F400081830E94D0470F900F908BE791E060E043
:104F500070E00E94FE0289EA91E060E070E00E9449
:104F6000FE028AE691E00E94443200D082E990E09D
:104F7000ADB7BEB712969C938E9311970E94D047FF
:104F80000F900F9028960FB6F894DEBF0FBECDBFDE
:104F9000CF91DF911F910F91FF90EF9008950E94A4
:104FA000A0260E9422020E945B2AFBCF20913B3B5D
:104FB00030913C3B40913D3B50913E3B90E0A0E026
:104FC000B0E0280F391F4A1F5B1F20933B3B3093F3
:104FD0003C3B40933D3B50933E3B2091373B3091CF
:104FE000383B4091393B50913A3B280F391F4A1FBB
:104FF0005B1F2093373B3093383B4093393B5093B2
:105000003A3B089580913B3B90913C3BA0913D3BC6
:10501000B0913E3B0196A11DB11D80933B3B909307
:105020003C3BA0933D3BB0933E3B0895F8941092D7
:10503000B60016BC8DE387BD92E094BD85E085BDCA
:1050400085B385BB90936E00789408952091320EBD
:105050003091330E8091320E9091330E281739071C
:10506000A9F7C901089507C022E330E000002150EC
:105070003040E1F701970097B9F70895BC014091DE
:10508000320E5091330E8091320E9091330E4817AC
:105090005907A9F72091320E3091330E8091320ECC
:1050A0009091330E28173907A9F7241B350B2617C3
:1050B000370780F30895089520913B3B30913C3BA6
:1050C00040913D3B50913E3B80913B3B90913C3B1E
:1050D000A0913D3BB0913E3B281739074A075B073B
:1050E00059F7B901CA0108951F920F920FB60F9296
:1050F0000BB60F9211242F933F934F935F936F93AF
:105100007F938F939F93AF93BF93EF93FF93809180
:10511000320E9091330E01969093330E8093320E9F
:105120008091340E8F5F8093340E8091340E8D37D2
:1051300021F41092340E0E9402280E940635892B19
:1051400011F00E948535FF91EF91BF91AF919F9132
:105150008F917F916F915F914F913F912F910F9020
:105160000BBE0F900FBE0F901F9018951F920F92BD
:105170000FB60F9211241092D7010F900FBE0F900F
:105180001F9018951F920F920FB60F920BB60F92A9
:1051900011242F933F934F935F936F937F938F933C
:1051A0009F93AF93BF93EF93FF93E091CD01F09165
:1051B000CE018081E091D801F091D901309709F0BA
:1051C0000995FF91EF91BF91AF919F918F917F9141
:1051D0006F915F914F913F912F910F900BBE0F9068
:1051E0000FBE0F901F9018951F920F920FB60F923F
:1051F00011241092E4010F900FBE0F901F9018958C
:105200001F920F920FB60F920BB60F9211242F938D
:105210003F934F935F936F937F938F939F93AF933E
:10522000BF93EF93FF93E091DA01F091DB0180816E
:10523000E091E501F091E601309709F00995FF91C1
:10524000EF91BF91AF919F918F917F916F915F91FE
:105250004F913F912F910F900BBE0F900FBE0F906B
:105260001F90189590E02DE030E0829FF001839F21
:10527000F00D929FF00D1124E353FE4FA281B381F4
:105280001C92A481B5816C93A681B78188ED8C9323
:10529000A085B1854C931286148613860895CF930A
:1052A000DF93AB0190E02DE030E0829FD001839F3F
:1052B000B00D929FB00D1124A353BE4FED012A965D
:1052C00091E00AC09883ED91FC91119780838881C9
:1052D0008823E9F74F5F5F4FFA018491882391F7A4
:1052E000DF91CF910895CF93DF93262F372FA90118
:1052F00090E02DE030E0829FD001839FB00D929F1F
:10530000B00D1124A353BE4FED012A9691E02DE07C
:1053100018C08A3041F49883ED91FC911197208355
:1053200088818823E9F7FA0180818D3041F09883E4
:10533000ED91FC911197808388818823E9F74F5F75
:105340005F4FFA018081882321F7DF91CF91089583
:1053500090E02DE030E0829FF001839FF00D929F5E
:10536000F00D1124E353FE4F81E08287A081B181CB
:105370006C933A9680818823E9F7089590E02DE0B8
:1053800030E0829FF001839FF00D929FF00D112479
:10539000E353FE4F74876387089591E09093D7019C
:1053A000E091CD01F091CE0180838091D7018823D7
:1053B000E1F70895482F8A30C9F48091350E90E0C6
:1053C0002DE030E0829FF001839FF00D929FF00D61
:1053D0001124E353FE4F81E08287A081B1818DE0EB
:1053E0008C933A9680818823E9F702C08D30B9F01A
:1053F0008091350E90E02DE030E0829FF001839F98
:10540000F00D929FF00D1124E353FE4F81E082874F
:10541000A081B1814C933A9680818823E9F780E09E
:1054200090E008958093350E8FEB91E09093803C4F
:1054300080937F3C08950F931F93DF93CF93CDB755
:10544000DEB7FE013A9606E31EE0C80160E470E0B4
:10545000488559859F010E94F6478F81B8010E94B7
:105460007329CF91DF911F910F91089584B7877FA2
:1054700084BF1092770E1092760E88E10FB6F894E2
:1054800080936000109260000FBE08958091760EA8
:105490009091770E01979093770E8093760E2FE080
:1054A00088E190E00FB6F894A895809360000FBE55
:1054B000209360000895A895089588E10FB6F894A8
:1054C00080936000109260000FBE0895F89428E069
:1054D00088E190E00FB6F894A895809360000FBE25
:1054E00020936000FFCF8093780E0895DF93CF93D1
:1054F00000D00F92CDB7DEB73091660010927000E9
:1055000010926F008091B60080628093B60081E0B7
:105510008093B1008FE890E00197F1F78FB789830E
:10552000F89420E861E050E84FEF609381008091AB
:10553000B6008B71E1F75093B20010928500109283
:10554000840047BBB89BFECF80918400909185007A
:105550009B838A83109281008A819B81875F934716
:1055600060F4809166008E3719F1809166008F3F5C
:10557000F9F0809166008F5F12C08A819B818D5205
:10558000904810F491E00EC080916600813881F05F
:1055900080916600882361F080916600815080933D
:1055A000660090E0215029F0992309F4BECF01C094
:1055B00090E0809166008093D03B992311F4309362
:1055C0006600309366001092B1008091B6008F7D26
:1055D0008093B60089818FBF0F900F900F90CF916D
:1055E000DF91089580917A0E08958091790E8091CF
:1055F000790E90E0089581E06FE140E00E94742F01
:10560000813021F020E030E0813111F421E030E000
:10561000C901089581E06FE140E00E94742F82305B
:1056200021F0823111F081E0089580E0089581E059
:105630006FE140E00E94742F982F81518230B8F3BF
:105640009F31A9F3913099F3923089F308951B9B10
:1056500002C080E1089585E06FE040E00E94742F71
:1056600008950F931F93182F883059F0863049F012
:10567000893039F0863129F0893119F022E430E09F
:1056800050C01B9B03C024E430E04BC00E94172B8A
:1056900081E06FE140E00E94742F082F181709F491
:1056A0003EC0183061F42B988DE090E00197F1F73F
:1056B00082E06FE140E023E00E94872F22C0193191
:1056C00039F4863199F482E06FE140E029E008C0C6
:1056D000163161F4893151F482E06FE140E026E057
:1056E0000E94872F83E090E00197F1F782E06FE15D
:1056F00040E0212F0E94872F083019F489E691E0BD
:1057000002C083E090E00197F1F781E06FE140E0B3
:105710000E94742F811719F023E430E002C020E4C6
:1057200030E0C9011F910F9108958091CE3B8823ED
:1057300039F02B988FEA92E00197F1F71092CE3B67
:105740000E94172B86E10E94312B81E08093CF3B92
:1057500008958091CF3B882351F480917B0E88235C
:1057600021F081E080937C0E02C00E94952B81E0A5
:1057700090E008951092CF3B0E94172B2B988DE05C
:1057800090E00197F1F782E06FE140E023E00E94B2
:10579000872F83E090E00197F1F72B9A81E08093C7
:1057A000CE3B089580917C0E882321F00E94952B9A
:1057B00010927C0E80917D0E882321F00E94BA2BDE
:1057C00010927D0E10927B0E0895CF93DF93FC0113
:1057D000AB0181E080937B0E8091193C90911A3C43
:1057E000A0911B3CB0911C3C0196A11DB11D809362
:1057F000193C90931A3CA0931B3CB0931C3C862F01
:105800008E5F87FF03C0CFEFDFEF08C02EE73EE0DB
:10581000C901BF010E949247C0E0D0E00E94D22B94
:10582000CE01DF91CF9108958091CF3B8823A9F0DD
:1058300080917B0E8823A1F481E06FE140E00E941B
:10584000742F982F8151823058F09F3149F0913058
:1058500039F0923029F00E94BA2B81E090E008954F
:1058600081E080937D0EF9CF80917B0E882341F4F7
:105870008091CF3B882321F40E94A92B0E94142CF5
:1058800081E090E008950F931F938091CF3B882390
:1058900011F000E003C00E94A92B01E081E06FE15C
:1058A00040E00E94742F863111F0813129F487E0A5
:1058B0000E943E2F182F09C086E06FE140E00E9451
:1058C000742F93E0899F102D1124002311F00E9462
:1058D000142C812F1F910F910895282F1B9908C018
:1058E000803108F02FE085E06FE040E00E94872FD4
:1058F000089591E090937B0E0E946D2C0E94D22B14
:1059000008951F93182F0E94172B10937A0E88E08A
:105910006FE140E0212F0E94872F1F9108950E9480
:10592000812C86E00E94312B0895FF920F931F93E4
:10593000CF93DF93182F01E000937B0EF090CF3BC5
:105940008091CE3B882321F02B981092CE3B18C03B
:105950008091433B8823A1F08AE160E847E021E0A1
:105960000E94872F8BE160E847E021E00E94872FAB
:105970001092433B0093443B81EA90E00197F1F79A
:105980000E94172B89E10E94312B86E00E940B397F
:10599000892B19F4C0E0D0E009C00E94272BC82F42
:1059A00086E00E940B3981500E946D2C2B9A2B9817
:1059B0001E5F8EE79EE0612F0E94F22F0E94172B40
:1059C00082E060EE45E00E94742F182F86E00E946E
:1059D0000B39892B19F08C2F0E946D2CFF2011F0B0
:1059E0000E94952B8091CF3B882331F482E06FE1B8
:1059F00040E023E00E94872F0E94D22B113011F447
:105A000010E015C0133099F48091113C9091123C34
:105A1000A091133CB091143C0196A11DB11D80933F
:105A2000113C9093123CA093133CB093143C812FF3
:105A300090E0DF91CF911F910F91FF900895CF9348
:105A4000DF93EB010E94E52B9C01009721F4CE012E
:105A50000E94952C9C01C901DF91CF91089584EF9C
:105A600091E00E942B0381E08093790E81E090E029
:105A70000895CF93DF93582FA92F20914A3B822F6F
:105A800090E0FC01F695FE2FEE27F795E795880F3D
:105A9000991FE80FF91FE55BF44C4081442321F185
:105AA00047FF25C0822F90E0FC01F695FE2FEE27E0
:105AB000F795E795880F991FE80FF91FE55BF44C00
:105AC00010828091093C90910A3CA0910B3CB091CE
:105AD0000C3C0196A11DB11D8093093C90930A3C9A
