:100000000C946E000C948D000C948D000C948D005B
:100010000C948D000C948D000C948D000C948D002C
:100020000C948D000C94A7220C948D000C948D00E0
:100030000C94FE2D0C948D000C948D000C94E72DE7
:100040000C943D260C948D000C948D000C948D0026
:100050000C948B260C948D000C947F260C948D00B0
:100060000C948D000C948D000C948D000C948D00DC
:100070000C94C9260C948D000C94BD260C948D0014
:100080000C945C440C948D000C948D0025732573A6
:100090000A004F6E6C696E650A000A002C206368C6
:1000A00065636B207261746520257520487A002590
:1000B000732025732C206368616E6E656C20257536
:1000C000000A2A2A2A2A2A2A2A426F6F74696E672E
:1000D0002025732A2A2A2A2A2A2A0A0011241FBE26
:1000E000CFEFD0E4DEBFCDBF12E0A0E0B1E0E6ECA0
:1000F000F5E900E00BBF02C007900D92A436B107EE
:10010000D9F71CE3A4E6B2E001C01D92A033B10709
:10011000E1F70E9498250C94E14A0C940000CF93DB
:10012000DF93EC0188819981009721F0CA9709F04B
:100130006CC042C080E291E09093690280936802B3
:1001400086E098E390936B0280936A0287E099E0DF
:1001500090936D0280936C0280E090E190936F0227
:1001600080936E0282E09BE1909371028093700213
:1001700087E79FEF90937302809372028EEF95EB67
:10018000909375028093740287ED93E490937702C5
:100190008093760288E692E06BE079EB40E050E0F5
:1001A0000E94DB0F90936702809366028AE390E0DF
:1001B0009983888381E02CC08091DD316817B1F785
:1001C0008091A63086FF07C081E090E090936502A1
:1001D00080936402EBCF81FFE9CF8091640290911C
:1001E0006502019719F7E091AB30F091AC30809146
:1001F000962B9091972BE80FF91F10828091AB30CE
:100200009091AC300E94DF22D1CF1982188283E016
:10021000DF91CF910895FC015381560F50939D2B90
:10022000272F33274281420F40939C2BA181A0931B
:100230009B2BE081E0939A2B842F90E08217930709
:1002400048F48A2F8F5F80939B2B882319F4EF5FEC
:10025000E0939A2B852F90E070708617970790F4A3
:10026000842F8F5F80939C2B882361F480919B2B3C
:100270008F5F80939B2B882329F480919A2B8F5F2B
:1002800080939A2B0895FC0161507040680F791F8C
:1002900020E030E00EC0508140E08181DA01A80FFB
:1002A000B11D2A0F3B1F2A173B0710F42F5F3F4F4A
:1002B0003296E617F70778F3E617F70749F49081C7
:1002C00080E0280F391F2817390710F42F5F3F4FA0
:1002D000832F922F0895E6EAFBE240E050E0308160
:1002E00020E08181B901680F711D460F571F461725
:1002F000570710F44F5F5F4F32967BE2ED3CF707F4
:1003000070F38BE2ED3CF80751F4908180E0480FE8
:10031000591F4817590718F44F5F5F4F06C0411522
:10032000510519F42FEF3FEF02C0342F252FC901DB
:100330000895CF93DF9390917902A92FB0E0309187
:10034000AA2B20E02A1B3B0B9091AB2B290F311DD0
:10035000A901480F511DEEEAFBE2708160E0818146
:10036000EB01C80FD11D4C0F5D1F4C175D0710F43A
:100370004F5F5F4F32968BE2ED3CF80770F38BE2F4
:10038000ED3CF80749F4908180E0480F591F481769
:10039000590710F44F5F5F4FFD01E253F44D2150B8
:1003A00030402E0F3F1F0EC0708160E08181DB0165
:1003B000A80FB11D4A0F5B1F4A175B0710F44F5F70
:1003C0005F4F3296E217F30778F3E217F30751F421
:1003D000908180E0480F591F4817590718F44F5F64
:1003E0005F4F06C04115510519F42FEF3FEF02C0D2
:1003F000342F252FC901DF91CF9108958AE30E9400
:100400009901089586E00E949901089581E10E9472
:1004100099010895CF93DF93582FA92F4091D4309D
:10042000E091BF30F091C03020917C0230917D028C
:100430002F5F3F4FBDE720303B0710F020E030E159
:10044000922F832F442319F0E817F90789F320939B
:100450007C0230937D02E0E0F0E0442329F4109226
:100460007B02EFEAF0E309C0473011F4EFEAF0E372
:1004700081E080937B02309771F182E085A38091C7
:100480007E02808F80917F02818F80918002828F97
:1004900080918102838F84EC94E0978F868F91A363
:1004A00080A381E090E0958F848F17A281E086A3DE
:1004B00083E084A312A280E183A3308B218B738B12
:1004C000628BEF01252F3A2FC901DC0180E10D90ED
:1004D00009928150E1F7CF01DF91CF9108952091EA
:1004E000DF303091E0302817390739F410927B0261
:1004F0001092E0301092DF30089581E080937B020B
:1005000008959C018091DF309091E030892B39F47F
:1005100010927B023093E0302093DF30089581E029
:1005200080937B020895BC018091AD309091AE30F4
:1005300044960E940B01E091AD30F091AE30809175
:100540009A2B848B80919B2B858B80919C2B868B07
:1005500080919D2B878B0895282F892F922F0895A6
:10056000EF92FF920F931F939C0144275527F22E81
:10057000E32E00E010E0362F272F40E050E0A901E5
:1005800033272227E22AF32A042B152BB701C801AF
:100590001F910F91FF90EF900895FC014091982BCF
:1005A0005091992B26EA30E3241B350B6217730711
:1005B0000CF49B011216130664F42093E13030937F
:1005C000E230E417F50729F0CA01BF01A9010E9432
:1005D0002C47089582E080937A02A09179022A2F15
:1005E00030E0F901E253F44D8181682F70E043E07F
:1005F000660F771F4A95E1F7695F7F4F42E0285DFC
:100600003F4F3CC0F901E80FF91FEA55F44D8081D6
:10061000882319F0813019F42EC04F5F2FC090E06D
:10062000807C90708038910549F0803C910549F0BC
:100630008034910501F540937A0209C040937A0213
:1006400008C040937A028091BE2B8F3F11F481E065
:100650000895242F30E040E050E02A0F311D411D65
:10066000511D285D3F4F4F4F5F4F84E062E00E9475
:10067000271182E0089581818E5F480F842F90E0DA
:10068000681779070CF0BECF40937A0280E0089596
:10069000CF92DF92EF92FF920F931F93CF93DF934E
:1006A000C091AD30D091AE30843009F471C202EE09
:1006B0001BE21093AC300093AB301093992B009356
:1006C000982B833099F48DA1282F30E02F70307053
:1006D0002330310529F48C8D9D8D892B09F496C02A
:1006E0002230310511F00C94A40B7FC0823009F048
:1006F00091C01092972B1092962B1092E23010928C
:10070000E130809181028F5F80938102882399F488
:10071000809180028F5F80938002882361F48091B2
:100720007F028F5F80937F02882329F480917E026D
:100730008F5F80937E022DA1273011F0253051F478
:100740008EA18F5F8EA3853011F00C94A40B1DA297
:100750000C94A40B222311F40C94A40B8C8D9D8D6E
:10076000892B09F44FC08EA181508EA38F5F09F0B1
:10077000EBC73FA1383029F02150223048F4353002
:1007800039F41DA280E88093A6300E94BD0C87C674
:10079000353010F080E307C083E090E002C0880F9E
:1007A000991F3A95E2F78EA38FA18F5F8FA38DA13A
:1007B00090E08F70907083309105F1F08430910556
:1007C00044F48130910509F4FEC3029709F0BCC7D7
:1007D0000CC08630910509F476C68830910509F47D
:1007E00072C6049709F0B0C76EC6E0917902F0E0D6
:1007F000E253F44D1586EEC384E08093A6300E9448
:10080000BD0C8FC62F70233009F09EC788E08093FF
:10081000A63039C6853019F5E091A930F091AA309B
:1008200080899189892B09F48FC71092AE3010927C
:10083000AD30C8010C979093AC308093AB3090935F
:10084000992B8093982B1092E2301092E130109205
:10085000972B1092962B88E08093A63097C18091B9
:10086000A62B807F803609F06FC79091AA2B80E07D
:100870002091AB2BAC01420F511D9A018091962B18
:100880009091972B8417950708F45EC7285D3F4F1A
:100890003093972B2093962B8091AE2B8F3F09F4AA
:1008A00053C7C80184970E94E01D892B59F4C801E1
:1008B00084970E94461D892B29F48091BE2B8F3F7F
:1008C00009F042C78CEA9BE29093A8308093A7304E
:1008D0001092790210927802E091A730F091A8303E
:1008E00080818B3209F44BC08C3248F4863009F495
:1008F000BFC1813109F4B4C0882389F06BC08A3349
:1009000009F474C08B3320F48C3209F063C01CC727
:100910008B3309F419C78C3309F05CC006C0809191
:10092000780280FD57C0816009C08091780281FF04
:1009300004C086FD4FC0806401C08260809378024D
:100940000E94EA02813009F4FFC6813018F082303B
:1009500019F602C720917902E22FF0E0CF0182530D
:10096000944D9093A8308093A730285FFC0181813B
:10097000880F880F880F280F20937902ADCF8091C0
:10098000780282FD27C0846080937802909179027A
:10099000E92FF0E0DF01A253B44D13968C91139729
:1009A000882349F0BA969F01442737FD4095542F7C
:1009B00084E060E018C0B093A830A093A730985F9F
:1009C000E253F44D8181880F880F880F980F909320
:1009D000790282CFE65AFB429F01442737FD4095BA
:1009E000542F84E061E00E942711B6C60E94FE01E8
:1009F0008F5F9F4F09F0A8C6E0917902F0E0EA55B9
:100A0000F44D80A50E94070DE0917902F0E0EA55CF
:100A1000F44D80A58538C1F0863818F48038A1F4EB
:100A200010C0873829F0873848F0883869F403C047
:100A30000E9494170DC00E942E160AC00E94011237
:100A400007C00E94BA1004C01092972B1092962BE8
:100A50008091962B9091972B892B09F475C67CC6B3
:100A60008091962B9091972BC0979093972B809382
:100A7000962B86ED9BE29093AC308093AB30E09167
:100A80007902F0E0E253F44D86819781892B31F0B1
:100A90000E9406028F5F9F4F09F056C6E0917902CF
:100AA000F0E0E253F44D82819381892B09F44CC626
:100AB00083EE90E39093AA308093A93048C02889B0
:100AC000398921153105F1F180917902E82FF0E0A3
:100AD000E253F44D828193818217930799F52A8915
:100AE0003B892115310529F0808191818217930777
:100AF00049F588819981892BE1F48A819B81892B31
:100B0000C1F48C819D81892BA1F48E819F81892BD9
:100B100081F488859985892B61F48A859B85892B49
:100B200041F48C859D85892B21F48E859F85892BA9
:100B3000C1F08EEA9BE2BE0140E150E00E941F47F7
:100B4000009779F06996D093AA30C093A930C091EC
:100B5000A930D091AA30B1E3CD3DDB0708F4AFCF87
:100B6000F3C51092AE301092AD3082E08093A63083
:100B700086ED9BE29093AC308093AB309093992BB1
:100B80008093982B1092E2301092E1300E94BD0CBD
:100B90002091E1303091E2302115310509F4D4C5BE
:100BA000C901C0969093972B8093962B285F3F4F57
:100BB0003093AA2B88528093AB2B4091A93050914F
:100BC000AA30EA018C898093AD2B81E18093AC2B14
:100BD000E0917902F0E0EA55F44DDF019896149621
:100BE0003C93149715962C93159717961C921E926A
:100BF00016978889998991A780A78A899B891396D6
:100C00009C938E931297AEEBBBE22091A93030916A
:100C1000AA30C901FC0180E101900D928150E1F7F9
:100C20008EEA9BE26EEB7BE20E94AE1A82EE9BE2C2
:100C30009093AC308093AB3080917902C82FD0E094
:100C4000C253D44D0E940602809590959F838E8357
:100C500080917902E82FF0E0E253F44D868197818C
:100C6000892B09F067C58FEF9FEF9783868362C555
:100C70000E9402028F5F9F4F09F066C58091790242
:100C8000082F10E00253144DD8011296ED90FC90FD
:100C90001397E114F10409F457C5CD90DC90C11409
:100CA000D10409F451C5CFEAD0E38DA18823A1F086
:100CB00088899989E816F90679F48A899B89C81682
:100CC000D90651F48EEA9BE2BE0140E150E00E9459
:100CD0001F47009709F49BC1AC96B0E3CF3ADB07FE
:100CE00021F318F3E8018D858F738230D1F4F092EF
:100CF0008402E092830210927B0241E00EC02091B8
:100D00008302309184028091DF309091E030281787
:100D1000390709F48AC040937B0280917B028823C3
:100D200071F380917902E82FF0E0DF01A253B44D16
:100D30001D968C911D9782FD07C584E11D968C93AD
:100D40001D978CE390E09093972B8093962BFD0159
:100D500080E5848797811B968C911B9717968C93BF
:100D60001797938796811A968C911A9716968C935B
:100D700016979287958119968C91199715968C9351
:100D800015979187948190937B0218968C91189770
:100D900014968C93149790871B968C911B978F5F5A
:100DA0001B968C931B978823C1F41A968C911A97E3
:100DB0008F5F1A968C931A97882379F419968C91E1
:100DC00019978F5F19968C931997882331F4189689
:100DD0008C9118978F5F18968C93E0917902F0E0D0
:100DE000DF01AA55B44D98962D913C919997309377
:100DF000840220938302E253F44D82819381918394
:100E000080839B963C932E939A97EEEBFBE2DF0157
:100E1000509780E10D9001928150E1F78EEA9BE2BC
:100E20006EEB7BE20E94AE1A5FC410927B02C0E0C0
:100E3000D0E021E014C08091D430882319F4CFEAA7
:100E4000D0E314C0873049F4209729F09091D53031
:100E50008EA1891710F4CFEAD0E320937B02809112
:100E60007B02882341F3209709F46EC4D093AE30FF
:100E7000C093AD3083E08EA38CA31AA284E08BA331
:100E80001FA2E0917902F0E0EA55F44D82A593A506
:100E9000998B888B80A591A59B8B8A8BDE01EEEACE
:100EA000FBE280E101900D928150E1F781E08DA39A
:100EB00080917E02888F80917F02898F809180024D
:100EC0008A8F809181028B8F81E090E09D8F8C8F43
:100ED000E0917902F0E0E253F44D87818F8BE0914D
:100EE0007902F0E0E253F44D86818E8BE091790235
:100EF000F0E0E253F44D85818D8BE0917902F0E0D2
:100F0000E253F44D84818C8B81E090E00E94930247
:100F1000E0917902F0E0E253F44D848590E0807F27
:100F20009070813591050CF44EC010927B0235C053
:100F3000F901EA55F44D84AD80938202882309F4C7
:100F400042C0813021F44F5F40937B0226C0823043
:100F5000C1F485AD8430A9F436AD20E087AD90E0D2
:100F6000822B932B9093840280938302E4E0853C50
:100F70009E0710F084EC94E09F8F8E8F99A388A336
:100F800022C080917B02E82FF0E0ED51F44DE0812A
:100F9000EE23C9F0E80FE0937B0240917B02242FFF
:100FA00030E0E0917902F0E0E253F44D84858295DF
:100FB0008F7090E00597880F991F880F991F281749
:100FC00039070CF4B5CFE0917902F0E0E253F44D2B
:100FD00080E18587E0917902F0E0DF01A253B44D12
:100FE0001D968C911D9782601D968C931D97FD0117
:100FF00082E0848B84E0858B868B84EC878B80E415
:1010000090E09093972B8093962B80E628C3D09303
:10101000AE30C093AD301092A63080917902E82FA7
:10102000F0E0DF01A253B44D1D968C911D9782FF15
:1010300003C01DA280E2ABC21C968C9182958F707A
:10104000880F880F80937B022091962B3091972BED
:1010500028523040281B31093093972B2093962B30
:101060008DA190E08F7090708230910539F4E25339
:10107000F44D85858F73823149F42FC0019731F487
:10108000E253F44D85858F73823039F1232B59F467
:10109000E0917902F0E0E253F44D858590E08370B1
:1010A0009070892BD1F080917902E82FF0E0E25323
:1010B000F44D94818C89981761F495818D899817E6
:1010C00041F496818E89981721F497818F8998171A
:1010D00021F0858581FD77CFAFC2E0917902F0E004
:1010E000E253F44D858584FF52C06C8D7D8D611572
:1010F000710509F44CC0CE0148960E940B01809105
:101100007902E82FF0E0E253F44D208580919A2B8C
:101110002817E9F5918580919B2B9817C1F5928549
:1011200080919C2B981799F5938580919D2B98170A
:1011300071F5288F80919B2B898F80919C2B8A8FB2
:1011400080919D2B8B8F8FA18823D1F42AA19CA104
:101150008EA1981B822F869586958695981B392F90
:10116000320F3AA38BA1282F26952695821B97FD37
:101170009195890F8BA3369536953695830F8CA361
:1011800081E08093A6308CA18EA31D8E1C8E8DA134
:10119000282F30E0C9018F7090708430910509F4D8
:1011A000FBC18530910564F48230910509F43DC09E
:1011B000833091050CF0D5C0019709F0C5C210C06D
:1011C0008630910509F430C2863091050CF408C2CE
:1011D0008730910509F430C2089709F0B5C2D1C132
:1011E0008091A63080FF16C083E08DA380E48093B9
:1011F000A6301D8E1C8E2091962B3091972B211599
:10120000310509F43CC182E48093A630C9010E94F3
:10121000930235C1E0917902F0E0E253F44D858507
:101220008F73823009F090C2CECE8091A63080FFBD
:101230008DC080917902E82FF0E0E253F44D85856E
:101240008F73823109F082C0848590E0807F907036
:10125000813591050CF44EC010927B0235C0F90126
:10126000EA55F44D84AD80938202882309F442C08C
:10127000813021F44F5F40937B0226C08230C1F45D
:1012800085AD8430A9F436AD20E087AD90E0822BA7
:10129000932B9093840280938302F4E0853C9F0714
:1012A00010F084EC94E09F8F8E8F99A388A322C0C6
:1012B00080917B02E82FF0E0ED51F44DE081EE23C8
:1012C000C9F0E80FE0937B0240917B02242F30E0CD
:1012D000E0917902F0E0E253F44D848582958F70BD
:1012E00090E00597880F991F880F991F28173907D5
:1012F0000CF4B5CF83E08DA3E0917902F0E0E253E6
:10130000F44D84818C8BE0917902F0E0E253F44D4E
:1013100085818D8BE0917902F0E0E253F44D868176
:101320008E8BE0917902F0E0E253F44D87818F8B50
:1013300081E090E00E94930282E48093A6301D8EAB
:101340001C8E1092972B1092962B99C080E280935E
:10135000A6300E94BD0CE091AD30F091AE3015A2E8
:10136000E0CC80917902E82FF0E0E253F44D8585DE
:1013700080FF25C024FD23C08C8D9D8D892B09F015
:10138000E3C18091962B9091972B01960E94930236
:101390002091A630822F80618093A6308091962B79
:1013A0009091972B892B19F022612093A6300E94EF
:1013B000BD0C81E090E09D8F8C8F88E082C085FF1E
:1013C00025C0328920E0838990E0282B392B809139
:1013D000AB309091AC30820F931F9093AC308093E0
:1013E000AB30E0917902F0E0E253F44D328920E035
:1013F000838990E0282B392B8091962B9091972B05
:10140000821B930B9093972B8093962B2091962B76
:101410003091972B2115310559F08DA184FD08C01D
:101420008091A63082608093A630C9010E94930209
:10143000E0917902F0E0E253F44D968580E0278553
:10144000820F911D909384028093830228A139A179
:101450002817390710F0892B21F430938402209348
:10146000830280918302909184029F8F8E8F80915E
:10147000A63090E083709070892B09F465C11092BA
:10148000E2301092E1300E94BD0C8091A630282FEE
:1014900085FF0CC01092E2301092E1301DA2E09165
:1014A0007902F0E0E253F44D84E1CCC084FF12C035
:1014B0001092E2301092E13081E090E09D8F8C8FAD
:1014C00084E08DA31FA2E0917902F0E0E253F44D95
:1014D00081E1B8C08091E1309091E230892B01F137
:1014E00020FF02C01D8E1C8E8C8D9D8D0097A1F457
:1014F0002E8D3F8D8091E1309091E2302817390791
:1015000020F43093E2302093E1308091E1309091EB
:10151000E2309D8F8C8F04C09093E2308093E13055
:101520001FA28091982B9091992B9093AC3080932F
:10153000AB308091E1309091E230892B81F08C8D3D
:101540009D8D009761F0CC969093972B8093962B6E
:10155000E0917902F0E0E253F44D88E110C080910F
:10156000A63081FFF1C08CE390E09093972B80939D
:10157000962BE0917902F0E0E253F44D80E185870B
:1015800068C08091A63080FFDFC01DA280E18093FB
:10159000A6300E94BD0CD8C08091962B9091972BBD
:1015A000009711F00E949302E0917902F0E0E2537B
:1015B000F44D85859091A63080FF0BC090FF06C04A
:1015C00087E08DA31EA21D8E1C8E1DC086E08DA3FC
:1015D0001AC090FF22C085E08DA31D8E1C8EB4C062
:1015E0008091962B9091972B009711F00E94930277
:1015F000E0917902F0E0E253F44D858580FF0DC063
:1016000087E08DA31EA281E090E00E94930280E11A
:101610008093A6300E94BD0C0FC08091962B9091B4
:10162000972B892B49F490C08091A63080FF8CC005
:1016300087E08DA31EA288C0E0917902F0E0E2531A
:10164000F44D80E185878CE390E09093972B809315
:10165000962BE0917902F0E0E253F44D80E5848727
:10166000A0917902B0E0AA55B44DFD01B8968C89DD
:1016700080878D8981878E8982878F898387888DEE
:101680008483898D85838A8D86838B8D878386E08D
:101690008093AC2B8889998999969C938E9398977F
:1016A0008A899B8993838283AEEBBBE2FE0180E152
:1016B00001900D928150E1F78EEA9BE26EEB7BE2A6
:1016C0000E94AE1A8DA1E091790284FF06C0F0E07D
:1016D000E253F44D1786168607C0F0E0E253F44D4E
:1016E00084E0868784EC87878091E3318093AD2BFB
:1016F0008091962B9091972B88979093AA2B80910D
:10170000962B88528093AB2BE0917902F0E08F0109
:101710000253144DD80153961C92539752961C9223
:10172000F801118A108A0E94020280959095E801C2
:10173000998B888B80E68093A62B1092A72B109212
:10174000A92B1092A82B08C01092972B1092962BC1
:1017500010927902109278021092A630DF91CF9108
:101760001F910F91FF90EF90DF90CF9008950F930E
:101770001F93CF93DF938C0120917C0230917D02E7
:10178000C9E1D0E02F5F3F4F8DE72030380710F0E0
:1017900020E030E1522F432FA0E011C08A2F90E0CB
:1017A0008C9FF0018D9FF00D9C9FF00D1124ED5149
:1017B000FF4C80899189AF5F8417950719F3AA3090
:1017C00069F720937C0230937D0210927B0240E007
:1017D000A9E1B0E01CC0542F5F5F842F90E08A9F86
:1017E000F0018B9FF00D9A9FF00D1124ED51FF4CED
:1017F00080899189892B51F440937B0289E1489F2C
:10180000D0011124AD51BF4C49F427C0452F4A30B7
:1018100010F340937B02A0E0B0E01FC050963C93D1
:10182000509751962C93519753967C936E93529761
:101830000115110531F480E1ED0119928A95E9F75E
:1018400007C0ED01F80180E1019009928150E1F7B4
:101850008091E33154968C935497CD01DF91CF91D1
:101860001F910F9108950E94F91F1092E03010927D
:10187000DF301092D43080E094E090937D0280932A
:101880007C0220E049E150E00EC0822F90E0849F6E
:10189000F001859FF00D949FF00D1124ED51FF4C48
:1018A000118A108A2F5F2A3080F320937B020895DB
:1018B000E0919802F0919902309711F480E0089538
:1018C0000995089590939902809398020895FC01D8
:1018D0008091010E9091020E91A780A773A762A735
:1018E0000895FC018091010E9091020E968B858BDC
:1018F000708F678B08959C018091DB309091DC3074
:10190000892B11F081E008958091010E9091020ED3
:101910009093DC308093DB303093DE302093DD30E9
:1019200080E008952091010E3091020E40919202C4
:10193000509193024817590789F48091940290912D
:1019400095028217930751F4109289021092930224
:1019500010929202CA010E946F02089581E0809362
:10196000890208958AE892E00E948834892B21F048
:101970008AE892E00E94D9350895CF93DF93E091F1
:10198000AD30F091AE30309719F0EF01A89605C058
:10199000C091A930D091AA3065968091A63086FF7B
:1019A0001BC010928702209192023091930280898D
:1019B00091892817390759F48091940290919502E2
:1019C000009729F0998388831B821A8203C081E0E3
:1019D000809387020E94B20C88819981009731F030
:1019E0004A815B816091DD310E947F31DF91CF912F
:1019F00008958EE291E062E040E050E00E947F3185
:101A00001092972B1092962B109279020895DF93E3
:101A1000CF930F92CDB7DEB789838091DB30909161
:101A2000DC30009739F06091DE31AE014F5F5F4FDF
:101A30000E947F310F90CF91DF910895AC018EE22B
:101A400091E060E00E945B310895AC018EE291E08C
:101A500061E00E945B3108950F931F93CF93DF9352
:101A60008091962B9091972B009709F41FC181507C
:101A7000954008F00CC10EEB1BE28091BE2B9091BB
:101A8000BF2B892B59F58091C02B9091C12B892BAD
:101A900029F58091C22B9091C32B892BF9F4809169
:101AA000C42B9091C52B892BC9F48091C62B9091A2
:101AB000C72B892B99F48091C82B9091C92B892B26
:101AC00069F48091CA2B9091CB2B892B39F48091AA
:101AD000CC2B9091CD2B892B09F4D9C08091BE2BB2
:101AE0008F3F09F4D9C08EEB9BE20E942E1C882305
:101AF00079F48EEB9BE20E94ED1B009731F40E947B
:101B0000581E8C01009721F4C2C08C010D5E1F4F3E
:101B1000C8010E943A1EEC01009709F051C0C801AB
:101B200060E070E040E020E00E94C3208C0100975C
:101B300009F4ADC0EC01AE96CE0164EF71E00E94F5
:101B4000121A892B99F0CE010E94C51926EA3BE2B0
:101B50004091962B5091972BB9010E942C47609190
:101B6000962B7091972BCE010E94E1198EEA9BE291
:101B70000E94E01DA8014F5F5F4F892B19F08EEA8C
:101B80009BE202C080E090E060E070E00E947C1583
:101B90006091EC317091ED318091EE319091EF31A7
:101BA00028EE33E040E050E00E946D4AC801819683
:101BB000BA01A9010E94F13781E0F80183A76CC046
:101BC0008DA58823E9F4AE96CE0164EF71E00E9402
:101BD000121A892B09F45BC0CE010E94C51926EAAE
:101BE0003BE24091962B5091972BB9010E942C47D4
:101BF0006091962B7091972BCE010E94E11947C0FE
:101C0000823059F483E08DA7CE01499645E050E03B
:101C100060E070E00E94F1371BA66091EC3170919A
:101C2000ED318091EE319091EF3128EE33E040E0DC
:101C300050E00E946D4ACE018196BA01A9010E942E
:101C4000F1378E010F5E1F4FC8010E94580CAE96EF
:101C5000CE010E94D119892BD1F0CE010E94D11959
:101C60009093972B8093962BCE010E94C519BC01AF
:101C700026EA3BE24091962B5091972BC9010E9496
:101C80002C47CE010E94EC19C8010E94580C1092FA
:101C9000972B1092962B0AC080E090E00E94580C7F
:101CA0001092972B1092962B10927902DF91CF9180
:101CB0001F910F910895DF92EF92FF920F931F9360
:101CC000CF93DF937C018A01FC0180819181009791
:101CD00029F08F50934009F0F9C026C0109293026A
:101CE0001092920281E0809385028091010E909182
:101CF000020E90939702809396020E940030809388
:101D0000DD310E9400308093DE318AE892E06EE39C
:101D100070E00E94EF350E94330C8FE093E0F701F2
:101D20009183808381E0D6C0623009F4B1C0633012
:101D300030F4662309F48EC0613079F79BC06738B0
:101D400019F0683851F73CC010928602C2E9D2E01F
:101D500013C08A819B818017910741F48881998102
:101D60000E946F02198218821B821A822496809127
:101D700086028F5F8093860280918602882349F3D2
:101D8000E4EDF0E3838194818017910719F41482C4
:101D900013821082BC96CF0185978B5D904390F3A0
:101DA000E3EEF0E308C0858996898017910711F466
:101DB000118A108A799681E3ED3DF807A1F7ADCF3E
:101DC000E2E04A385E0759F5CA010E948834892B3F
:101DD00031F1109286028CE2D82E1DC08091D43051
:101DE0008823A1F08AE892E00E94D935809186028A
:101DF0008D9DC001112481559F4C9093AE308093EE
:101E0000AD3082E00E9448030E942C0D8091860232
:101E10008F5F80938602809186028823F9F2F7E330
:101E200002331F0749F4C8010E948834892B21F02E
:101E30000E94931E0E942C0D23E30633120709F023
:101E40006CCFC8010E948834892B09F466CF0E94A8
:101E500067211BC04115510509F45FCF5093AE3087
:101E60004093AD3083E00E9448030E942C0D0E94F5
:101E7000B20C53CF4115510509F44FCF5093AA30FE
:101E80004093A93085E00E9448030E942C0D45CF65
:101E90008091962B9091972B892B09F43ECF8091BE
:101EA000AC2B863031F48091DB2B81FF02C00E9485
:101EB000B20C81E00E9448038091962B9091972B61
:101EC000892B09F42ACF0E94F90F27CFF70111823D
:101ED000108283E0DF91CF911F910F91FF90EF90DF
:101EE000DF900895CF93DF93EA010E94B70BFC01C6
:101EF000009741F08091010E9091020E968B858B98
:101F0000D08FC78BCF01DF91CF9108950F931F938F
:101F1000DF93CF93CDB7DEB760970FB6F894DEBFEF
:101F20000FBECDBF8C01AB018FEF92E09A83898306
:101F30001C821B821E821D8218861F821A861986A9
:101F40001C861B861E861D8680E091E0988B8F87FD
:101F5000CE010196B8010E94720FFC01009711F0AA
:101F6000118B008BCF0160960FB6F894DEBF0FBEC9
:101F7000CDBFCF91DF911F910F9108959C0180916A
:101F8000920290919302892B91F4109288023093DF
:101F90009302209392028091010E9091020E9093F1
:101FA000950280939402C9010E948102089581E004
:101FB0008093880208950F931F93CF93DF938A0134
:101FC0000E940A02EC01009771F08091010E90913D
:101FD000020E99A788A71BA70AA78EE291E060E0EE
:101FE000AE010E945B31CE01DF91CF911F910F9125
:101FF0000895EF92FF920F931F938091AC2B863040
:1020000009F05DC08091962B9091972B8050954060
:1020100009F055C00EE912E01093972B0093962B10
:1020200092E0E92EE092AA2B86E7F82EF092AB2BF5
:102030001092DF2B1092DE2B0E9402028095909569
:102040009093DF2B8093DE2B0E942C0D1093972B07
:102050000093962BE092AA2BF092AB2B2091AB3001
:102060003091AC30C901FC01DC01AE59BD4F82E6B4
:1020700092E00D9001920197E1F782ED9BE262E61A
:1020800072E00E940B0180919A2B8093D22B809159
:102090009B2B8093D32B80919C2B8093D42B80916E
:1020A0009D2B8093D52B1092DF2B1092DE2B0E945C
:1020B0000202809590959093DF2B8093DE2B0E94F7
:1020C0002C0D1F910F91FF90EF900895EF92FF92CA
:1020D0000F931F93CF93DF93F62EE42E890120E612
:1020E0002093A62B1092A72B1092A92B1092A82B0D
:1020F0002AE32093AC2B2091E3312093AD2B0C5F8E
:102100001F4F212F332727FD3A950450104020936D
:10211000AA2B202F2C5F2093AB2BAEEBBBE2FC0154
:1021200080E101900D928150E1F78EEA9BE26EEB27
:102130007BE20E94AE1A80917902C82FD0E0C25390
:10214000D44DF882E9821B821A820E94FE0180959A
:1021500090959B838A83045D1F4F1093972B009368
:10216000962B0E942C0DDF91CF911F910F91FF9024
:10217000EF90089526EA3BE28091E3318093AD2B06
:102180008091BE2B8F3F81F4D9015896F901389682
:1021900080E101900D928150E1F78EEA9BE26EEBB7
:1021A0007BE20E94AE1A1BC0AAE9B2E0F9013896A0
:1021B00080E101900D928150E1F7EEEAFBE2DF0150
:1021C000509680E10D9001928150E1F7AEEBBBE2B9
:1021D000EAE9F2E080E101900D928150E1F760912F
:1021E0007902662301F18AE38093AC2B70E0409181
:1021F000962B5091972B461B570B5093972B409340
:10220000962B485250405093AA2B485D5F4F842F25
:1022100088528093AB2B6E52744D4C52504082EDDD
:102220009BE20E9435471092790281E88093CE2B81
:102230001092CF2B1092D12B1092D02B0E94FE0126
:10224000809590959093D12B8093D02B0895CF9229
:10225000DF92EF92FF920F931F93CF93DF93D82ECD
:10226000C62E79018A01109279028091AC2B8A33B3
:1022700021F48091CE2B87FF81C0AAE9B2E0EEEB7A
:10228000FBE280E101900D928150E1F78091962B65
:102290009091972BC0969093972B8093962B81507B
:1022A000954030F080E095E09093972B8093962BAB
:1022B0004091962B5091972B4053504086ED9BE2D6
:1022C00066EA7BE20E94354780E68093A62B109257
:1022D000A72B1092A92B1092A82B8AE38093AC2BEA
:1022E0008091E3318093AD2B8091AE2B9091AF2BF9
:1022F000892B51F58091B02B9091B12B892B21F531
:102300008091B22B9091B32B892BF1F48091B42B57
:102310009091B52B892BC1F48091B62B9091B72B5E
:10232000892B91F48091B82B9091B92B892B61F472
:102330008091BA2B9091BB2B892B31F48091BC2BCF
:102340009091BD2B892BD1F0EEEBFBE2DF01509792
:1023500080E10D9001928150E1F780919A028F3FC8
:1023600091F484E0D81651F422E0C21639F48EEAD2
:102370009BE26AE972E00E94AE1A0EC01092972B9F
:102380001092962B35C0AEEABBE2EAE9F2E080E1BA
:1023900001900D928150E1F7E0917902CE2FD0E0CB
:1023A000FE01E253F44DD082C182C801B7010E9400
:1023B000B002CE52D44D688379838A839B83809107
:1023C000962B9091972B88979093AA2B889688525A
:1023D0008093AB2B80917902C82FD0E0C253D44DAB
:1023E0001B821A820E94FE01809590959B838A83AE
:1023F000DF91CF911F910F91FF90EF90DF90CF90E1
:102400000895DF92EF92FF920F931F93CF93DF9384
:102410008091AD2B8F3F09F0B2C28091AE2B8E3FE1
:1024200009F0ADC28091AF2B803809F0A8C280912D
:102430007902A82FB0E0FD01E253F44D8181882399
:1024400009F09DC2AA55B44D9C968C91882311F039
:102450008093E331E0917902F0E0EE52F44D648133
:10246000758186819781611571058105910561F1FD
:10247000E090E431F090E5310091E6311091E731E0
:102480000E94B002E616F70608071907E9F0E09186
:102490007902F0E0EE52F44D648175818681978176
:1024A0000E94B0026093E4317093E5318093E6318D
:1024B0009093E7310E94461B6093E8317093E931B5
:1024C0008093EA319093EB31E0917902F0E0EE52A3
:1024D000F44D60857185828593856115710581054F
:1024E000910551F00E94B0026093EC317093ED3190
:1024F0008093EE319093EF318CE08093AA0282E0DA
:10250000D82EB6C1F901EA55F44D8181882309F42A
:1025100036C28081833009F45FC0853009F44DC034
:10252000813009F095C1F093AC02E093AB028EEAE2
:102530009BE20E943A1EFC019093C2028093C1026A
:10254000009789F46091AB027091AC026E5F7F4F8F
:102550008EEA9BE241E022E00E94C3209093C202F7
:102560008093C10275C185A5882309F4D5A6C091C1
:10257000AB02D091AC0222960091C1021091C2022E
:102580000F5E1F4FCE01B80148E050E00E941F4788
:10259000009761F0D801FE0188E001900D92815012
:1025A000E1F7E091C102F091C202D5A6E091C1022B
:1025B000F091C20281E084A74BC16481758186815C
:1025C00097810E94B0026093DF317093E031809375
:1025D000E1319093E2313CC1F093AE02E093AD0261
:1025E00064817581868197810E94B0027B018C0194
:1025F000E091AD02F091AE02608571858285938590
:102600000E94B002E616F7060807190708F420C171
:10261000E091AD02F091AE0280898E3F21F4818974
:10262000803809F415C1838187FF5FC0CF014096D0
:1026300062810E94FE1DEC019093C0028093BF0254
:10264000E091AD02F091AE02009749F56481758189
:1026500086819781611571058105910509F445C051
:10266000EF0160966F3F2FEF72072FEF82072FEF7A
:10267000920741F012810E94B0029B01AC01CE0191
:10268000612F06C0CE01628120E030E040E050E0E2
:102690000E94461F9093C0028093BF0226C06481AF
:1026A000758186819781611571058105910549F0D4
:1026B0006F3F3FEF73073FEF83073FEF930741F40F
:1026C00004C0CE010E943C1A10C081E08A8F0DC068
:1026D0000E94B002AB01BC01CE0142960E94F137CC
:1026E000E091BF02F091C002128EE091AD02F09134
:1026F000AE02838186FFACC084819581A681B781BB
:102700000097A105B10509F4A3C08281803409F0C6
:102710009FC0AFEAB2E0709680E101900D928150C7
:10272000E1F78FEA92E06EE97BE20E94AD1B8FEA4F
:1027300092E00E94E01DDC019093C6028093C502E6
:10274000009709F45EC052962C915297213009F0FF
:1027500058C0E091AD02F091AE026481758186812E
:1027600097816F3F3FEF73073FEF83073FEF93077B
:1027700009F444C00E94B00261527C418040904004
:10278000C0F4E091AD02F091AE0264817581868162
:1027900097810E94B0027B018C018091C5029091CB
:1027A000C60244960E9495376E157F0580079107F3
:1027B000A0F40091C5021091C6020C5E1F4FE0917B
:1027C000AD02F091AE0264817581868197810E948D
:1027D000B002AB01BC01C80109C08091C502909153
:1027E000C602449640E25CE160E070E00E94F1378E
:1027F000E091C502F091C602138A2AC053962C9329
:1028000027C0E091AD02F091AE02648175818681AE
:1028100097810E94B0026F5F7F4F8F4F9F4F39F4B7
:102820008FEA92E040E050E060E070E00EC0E0919E
:10283000AD02F091AE0264817581868197810E941C
:10284000B002AB01BC018FEA92E021E00E94AE1E13
:102850008091AA02E0917902F0E0EA55F44DE80F88
:10286000F11D95A5990F990F990F980F9093AA02B2
:10287000909179028091AA02282F30E0290F311D12
:10288000245D3F4F8091962B9091972B2817390705
:1028900008F438CE8EEA9BE20E941C1E9C019093A5
:1028A000C4028093C302E0917902F0E0EE52F44D4D
:1028B00082819381892B71F1E091C102F091C20272
:1028C000309711F081E084A7C091C302D091C40277
:1028D000E0917902209779F4F0E0EE52F44D828194
:1028E00093810E94AC02AC0160E070E08EEA9BE252
:1028F0000E949C1F15C0F0E0EE52F44D828193813E
:102900000E94AC02AC0160E070E0CE0141960E94F2
:10291000F13706C02115310519F0C9010E94371A97
:102920008091C1029091C202009749F18E960E9457
:10293000D119892B21F18091C1029091C2028E960A
:102940000E94D1199093972B8093962B8091C1026E
:102950009091C2028E960E94C519BC0126EA3BE204
:102960004091962B5091972BC9010E942C47809142
:10297000C1029091C2028E960E94EC1904C010927E
:10298000972B1092962BDF91CF911F910F91FF9073
:10299000EF90DF900895CF93DF93FC01608382E096
:1029A0008183EF012296AEE9BBE288E00D900992A7
:1029B0008150E1F7CF010A96FC0186E0DF011D920C
:1029C0008A95E9F7DF91CF910895CF93DF9386EA57
:1029D0009BE220E62093A62B1092A72B1092A92B06
:1029E0001092A82B2AE32093AC2B2FEF2093AD2B32
:1029F000FC0178962FEF32E03093BF2B2093BE2B53
:102A00001382128215821482178216821186108612
:102A1000138612861586148620E032E037872687D3
:102A20000896BF010E94AE1A40917902242F30E02F
:102A3000F901E253F44D85E8808311821092AA2BAC
:102A40008091AE2B9091AF2B892BA1F58091B02B6B
:102A50009091B12B892B71F58091B22B9091B32B72
:102A6000892B41F58091B42B9091B52B892B11F5D1
:102A70008091B62B9091B72B892BE1F48091B82BE4
:102A80009091B92B892BB1F48091BA2B9091BB2BEB
:102A9000892B81F48091BC2B9091BD2B892B51F413
:102AA00088E08093AB2B205D3F4F3093972B209392
:102AB000962B11C0842F90E0805C9F4F9093972BB2
:102AC0008093962B88E18093AB2BC9018A52944D59
:102AD00061E00E94CB1480917902C82FD0E0C253EC
:102AE000D44D1B821A820E94FE01809590959B8393
:102AF0008A83DF91CF9108950F931F93CF93DF9334
:102B00008C01EA011092790280E68093A62B109244
:102B1000A72B1092A92B1092A82B8AE38093AC2BA1
:102B20009FEF9093AD2BEEEBFBE261157105B9F4CD
:102B30009093BE2B82E081831382128215821482CD
:102B40001782168211861086128681E08387948709
:102B50008D8585878E859F859787868707C0DF014E
:102B6000FB0180E101900D928150E1F787E88093AD
:102B7000CE2B1092CF2B1092D22B1092D32B1092DF
:102B8000D42B1092D52BA6EDBBE2FE0180E1019083
:102B90000D928150E1F71092AA2BCE010E94E01D08
:102BA000892B01F50115110549F0AEEABBE2F801E8
:102BB00080E101900D928150E1F706C08EEA9BE220
:102BC0006EEB7BE20E94AE1A88E28093AB2B809181
:102BD000790290E08A51944D61E00E94CB1480E527
:102BE00090E025C01092AF2B1092AE2B1092B12B1B
:102BF0001092B02B1092B32B1092B22B1092B52BD7
:102C00001092B42B1092B72B1092B62B1092B92BB6
:102C10001092B82B1092BB2B1092BA2B1092BD2B96
:102C20001092BC2B88E18093AB2B80E490E09093D2
:102C3000972B8093962B80917902C82FD0E0C253B6
:102C4000D44D1B821A820E94FE01809590959B8331
:102C50008A83DF91CF911F910F910895DF92EF92B8
:102C6000FF920F931F93CF93DF9390917902E92FF7
:102C7000F0E0DF01AE52B44DFC908091AD2B8F3F60
:102C800009F046C1E253F44D8181882309F040C127
:102C900014968C9114978F3F09F43AC120E4D22EF8
:102CA000DF20F6FE05C08091BE2B8F3F09F430C1B6
:102CB00084E18093AA021092AC021092AB02C09100
:102CC000962BD091972B40E050E064E1292F30E023
:102CD000245D3F4F0FC0FC01EA55F44D91819923CB
:102CE00009F410C18081823009F4AF01990F990F66
:102CF000990F690FC901860F911D8C179D0758F315
:102D00005093AC024093AB026093AA02CD010496AB
:102D10000E94E01DFC019093C6028093C5020097BB
:102D200041F08189882309F0F3C0CF010E949F1DE3
:102D3000EFC08091790290E08A52944D0E943A1E31
:102D40008C019093C2028093C102009709F4E0C005
:102D5000C091AB02D091AC02209711F420E00AC0E0
:102D6000BC016F5E7F4FCE01029648E050E00E94AA
:102D70001F47282F90E8E92EEF20F80185A588232A
:102D8000A9F5209709F4C4C0D8015196FE013296E6
:102D900088E001900D928150E1F7E091C102F0913D
:102DA000C202DD2001F181E085A7E091C102F0912E
:102DB000C20213A60091C1021091C2026091E831D3
:102DC0007091E9318091EA319091EB3128EE33E056
:102DD00040E050E00E946D4AC8014996BA01A9013D
:102DE0000E94F1375DC082E085A75AC0F5FC09C09A
:102DF000222339F0813009F08BC082E0F80185A7E9
:102E000087C0209749F0D8015196FE01329688E09C
:102E100001900D928150E1F7DD20F9F0E091C102BF
:102E2000F091C20281E085A70091C1021091C20217
:102E30006091E8317091E9318091EA319091EB3104
:102E400028EE33E040E050E00E946D4AC801499608
:102E5000BA01A9010E94F1370EC08091AB02909196
:102E6000AC02892B41F0222331F0E091C102F091B4
:102E7000C20282E085A7E091C102F091C20284A55E
:102E8000882371F0EE2061F48EEA9BE20E941C1E02
:102E90009093C4028093C302009711F00E94371AE6
:102EA000E091C102F091C202E4A68091C10290912A
:102EB000C2028E960E94D119892B51F18091C102D4
:102EC0009091C2028E960E94D1199093972B809375
:102ED000962B8091C1029091C2028E960E94C519D4
:102EE000BC0126EA3BE24091962B5091972BC901F9
:102EF0000E942C478091C1029091C2028E960E943E
:102F0000EC190AC05093AC024093AB026093AA0242
:102F10001092972B1092962BDF91CF911F910F91CA
:102F2000FF90EF90DF900895DF92EF92FF920F9362
:102F30001F93CF93DF938091AD2B8F3F09F015C284
:102F400080917902E82FF0E0EA55F44D80A98F3F97
:102F500009F40BC281A5882309F007C21092AC02C4
:102F60001092AB0284E18093AA0242E0D42E89C081
:102F7000F901EA55F44D8181882309F4F6C1808175
:102F8000813009F06EC0F093AC02E093AB02809107
:102F9000AE2B9091AF2B892B59F58091B02B90914E
:102FA000B12B892B29F58091B22B9091B32B892BD2
:102FB000F9F48091B42B9091B52B892BC9F48091B1
:102FC000B62B9091B72B892B99F48091B82B9091C7
:102FD000B92B892B69F48091BA2B9091BB2B892B4B
:102FE00039F48091BC2B9091BD2B892B09F4BDC184
:102FF0008EEA9BE20E943A1EEC019093C2028093FB
:10300000C1026091AB027091AC02009749F46E5F0F
:103010007F4F8EEA9BE240E022E00E94C32021C065
:1030200032E0E32EF12CE60EF71E8C010F5E1F4FEF
:10303000C701B80148E050E00E941F47009769F0BF
:10304000D801F70188E001900D928150E1F7E091FD
:10305000C102F091C202D5A604C08DA5882309F44F
:10306000DDA68091AA02E0917902F0E0EA55F44DE4
:10307000E80FF11D95A5990F990F990F980F90934F
:10308000AA0280917902482F50E08091AA029A0109
:10309000280F311D245D3F4F8091962B9091972BE7
:1030A0002817390708F464CFCA018A52944D0E9448
:1030B000E01DFC019093C6028093C502009709F4BD
:1030C00054C18091AE2B9091AF2B892B09F099C000
:1030D0008091B02B9091B12B892B09F092C08091F7
:1030E000B22B9091B32B892B09F08BC08091B42B1C
:1030F0009091B52B892B09F084C08091B62B9091CB
:10310000B72B892B09F07DC08091B82B9091B92BFA
:10311000892B09F076C08091BA2B9091BB2B892B1B
:1031200009F06FC08091BC2B9091BD2B892B09F0C9
:1031300068C08091BE2B8F3F09F017C18091BF2BD3
:10314000823009F012C18091C02B9091C12B892B44
:1031500009F00BC18091C22B9091C32B892B09F0F0
:1031600004C18091C42B9091C52B892B09F0FDC01F
:103170008091C62B9091C72B892B09F0F6C08091C6
:10318000C82B882309F0F1C08091C92B813009F048
:10319000ECC08091CA2B8F3F09F0E7C0818988235A
:1031A00061F18FEF92E09093BF2B8093BE2B109232
:1031B000C12B1092C02B1092C32B1092C22B1092D5
:1031C000C52B1092C42B1092C72B1092C62B1092B5
:1031D000C92B1092C82B1092CB2B1092CA2B80E0D7
:1031E00091E09093CD2B8093CC2B8EEA9BE26EEBFB
:1031F0007BE20E94AE1A90E272C0CF010E949F1D36
:10320000B4C08EEA9BE20E94E01D892B09F0ADC09C
:103210008091BE2B8F3F09F03FC08091BF2B823041
:10322000D9F58091C02B9091C12B892BA9F5809164
:10323000C22B9091C32B892B79F58091C42B90914F
:10324000C52B892B49F58091C62B9091C72B892BD3
:1032500019F58091C82B8823F9F48091C92B81300E
:10326000D9F48091CA2B8F3FB9F4EEEBFBE2DF017A
:10327000509780E10D9001928150E1F780917902A1
:10328000E82FF0E0AEEABBE2EA52F44D80E10190B3
:103290000D928150E1F722C08EEB9BE20E94E01D6F
:1032A0002091C5023091C6022817390709F05DC088
:1032B000EEEBFBE2DF01509780E10D90019281502F
:1032C000E1F780917902E82FF0E0AEEABBE2EA5242
:1032D000F44D80E101900D928150E1F790E610925B
:1032E000790280E68093A62B1092A72B1092A92B2F
:1032F0001092A82B1092AA2B88E28093AB2B8AE322
:103300008093AC2B8FEF8093AD2B88E88093CE2BEE
:103310001092CF2B9093D22BE091C502F091C60270
:10332000A6EDBBE2319680E101900D928150E1F76C
:103330008091790290E08A51944D62E00E94CB1412
:1033400080917902C82FD0E0C253D44D1B821A82DB
:103350000E94FE01809590959B838A8380E590E092
:103360009093972B8093962B04C01092972B1092DA
:10337000962BDF91CF911F910F91FF90EF90DF90EF
:103380000895FC01118210820895FC0180819181D1
:10339000009719F4E0E0F0E002C0FC013296CF01A2
:1033A0000895FC010190F081E02D309719F4E0E0E0
:1033B000F0E005C0EE5FFA4F0190F081E02DCF0103
:1033C0000895FC010190F081E02D309721F0EE5F2F
:1033D000FA4F718360830895CF93DF93EC01888166
:1033E0009981009761F08C5F9A4F0E9485366881C1
:1033F000798188E391E00E941B3219821882DF9163
:10340000CF9108950F931F938C01FC01608171810E
:1034100088E391E00E941B32F801118210821F9113
:103420000F9108950F931F93CF93DF93EC018B01BE
:1034300088819981892B19F020E030E012C088E35F
:1034400091E00E94ED3199838883009741F08C5F71
:103450009A4FB80142E05AE19E010E94C736288186
:103460003981C901DF91CF911F910F910895FC011E
:10347000009709F010820895FC01009709F010826E
:103480000895682F81EF91E39093090D8093080DC3
:10349000FC01462F552747FD509516C08081882393
:1034A00091F06F3F29F0818990E08417950759F4D6
:1034B00081818E3F41F48281803829F4F093090D97
:1034C000E093080D0CC0B1969F0182E3E537F80741
:1034D00028F3F093090DE093080D20E030E0C901D6
:1034E0000895682F81EF91E39093090D8093080D63
:1034F000FC01462F552747FD509516C08081882333
:1035000091F06F3F29F0818990E08417950759F475
:1035100081818E3F19F48281803829F0F093090D62
:10352000E093080D0CC0B1969F0182E3E537F807E0
:1035300028F3F093090DE093080D20E030E0C90175
:103540000895FC01009709F010820895FC0100978E
:1035500009F010820895FC0110820895FF920F93E4
:103560001F93CF93DF938C01FB0180818E3F21F469
:103570008181803821F444C08F3F09F441C081EF3C
:1035800091E39093090D8093080DFF2440E050E0F3
:103590002EC08081882331F18189813019F58181A4
:1035A0008E3F19F482818038E9F0EB01DF0180E081
:1035B000388111962C911197321731F4885F21963A
:1035C00011968038A9F70AC02327982F985F27FD06
:1035D00005C08F5F891711F0220FF9CF8F1510F0FA
:1035E000F82EAF01B196F093090DE093080DE0912C
:1035F000080DF091090D82E3E537F80750F204C099
:1036000081E00E94411AAC014115510591F4F80185
:1036100011821082138212821582148217821682FE
:1036200011861086138612861586148617861686CE
:1036300008C0D801FA01319680E101900D928150C5
:10364000E1F7DF91CF911F910F91FF90089540E036
:1036500020E030E0FC01E20FF31F5081FB01E20F9C
:10366000F31FE0815E1731F4485F2F5F3F4F403812
:1036700089F70AC0E527842F885FE7FD05C04F5F03
:10368000481711F0EE0FF9CF842F0895DF92EF92D3
:10369000FF920F931F930E940338D82E0E94033885
:1036A000E090E431F090E5310091E6311091E7319E
:1036B0003D2D20E0280F391F40E050E0CA01B9013C
:1036C000A80197010E946D4A9B01AC0116950795D0
:1036D000F794E7942E0D3F1D401F511FB901CA01F9
:1036E0001F910F91FF90EF90DF900895CF93DF939C
:1036F000EC0198A18091F031981750F5AE014F5F21
:103700005F4F80E090E060E070E00E947C1588A14F
:103710008F5F88A36091EC317091ED318091EE3133
:103720009091EF3128EE33E040E050E00E946D4A86
:10373000CA01B9012DE730E040E050E00E943A4A6A
:103740009B01AC01CE014C96B9010E944B3302C0E3
:1037500081E0898BDF91CF910895CF93DF93DC01D6
:10376000EC012896FB0188E0019009928150E1F775
:1037700018968C91189792E0892718968C93DF9170
:10378000CF9108950F931F93CF93DF938C018AE31A
:1037900097E39093150D8093140D12C088818823B0
:1037A00051F0CE014396B80140E150E00E941F471E
:1037B000009709F41882AE96D093150DC093140D9E
:1037C000C091140DD091150D8AE3C23DD80730F396
:1037D000DF91CF911F910F910895CF92DF92EF92D9
:1037E000FF920F931F93CF93DF936C018AE397E3CC
:1037F0009093150D8093140D00E010E0EE241CC092
:103800008881882391F0F988FE1478F0BE016F5FFB
:103810007F4F4F2D469546954695C60150E00E9434
:103820001F47009711F48E0101C0FE2CAE96D09375
:10383000150DC093140DEF2CC091140DD091150DE2
:103840008AE3C23DD807E0F2C801DF91CF911F9112
:103850000F91FF90EF90DF90CF9008950F931F93FB
:10386000CF93DF938C018AEC92E390930F0D8093BA
:103870000E0D16C08881882371F0498946954695BA
:103880004695CE010196B80150E00E941F4700976F
:1038900011F481E00EC06B96D0930F0DC0930E0D06
:1038A000C0910E0DD0910F0D83E3C633D80710F3EE
:1038B00080E0DF91CF911F910F9108958F929F9299
:1038C000AF92BF92DF92EF92FF920F931F93CF932D
:1038D000DF935A014901D02EF7011182108270E066
:1038E000469F8001479F100D569F100D1124080F11
:1038F000191FD694D694D694EC0116C088818823DB
:1039000071F0CE010196B4014D2D50E00E941F4789
:10391000009741F4F701D183C08380E010C0F70124
:10392000D183C083CA0DDB1DC017D10738F3F7015F
:1039300080819181892B11F482E001C081E0DF91C7
:10394000CF911F910F91FF90EF90DF90BF90AF90BC
:103950009F908F9008959F92AF92BF92CF92DF92E7
:10396000EF92FF920F931F93CF93DF93182FD92ECF
:10397000C62EB42EA52E922E8AE397E364E14EE282
:1039800050E0212F3D2D0C2D74E1E72E7DE0F72E28
:103990000E945E1C8130E1F4C091140DD091150D90
:1039A000FE018193812F9D2D9C01D90180E10D9015
:1039B00001928150E1F7C98ADE0153968B2D9A2D31
:1039C0009C01F90180E101900D928150E1F79A8A02
:1039D0008091140D9091150DDF91CF911F910F9152
:1039E000FF90EF90DF90CF90BF90AF909F900895A1
:1039F000EF92FF920F939C0185E792E360E041E133
:103A000050E000E8ECE0EE2EEDE0FE2E0E945E1CA1
:103A1000882319F020E030E004C020910C0D309193
:103A20000D0DC9010F91FF90EF900895DF92EF9275
:103A3000FF920F931F93182FD92E85E792E360E032
:103A400041E150E0212F3D2D00E8FCE0EF2EFDE0AC
:103A5000FF2E0E945E1C813019F040E050E00FC044
:103A600040910C0D50910D0DFA018193812F9D2DE8
:103A70009C01D90180E10D9001928150E1F7CA01CA
:103A80001F910F91FF90EF90DF900895EF92FF92BA
:103A90000F939C0185E792E365E041E150E000E887
:103AA000AAE0EA2EADE0FA2E0E945E1C882319F0EF
:103AB00020E030E004C020910A0D30910B0DC901C7
:103AC0000F91FF90EF900895CF93DF93EC01009753
:103AD00099F19FEF9093F60C82E08093F70C10928F
:103AE000F90C1092F80C1092FB0C1092FA0C109238
:103AF000FD0C1092FC0C1092FF0C1092FE0C109218
:103B0000000D81E08093010D9093020D8E858093CE
:103B1000030D8F8598899093050D8093040D86EF92
:103B20009CE00E94461DFC0190930B0D80930A0DB2
:103B3000009709F010821882DF91CF910895FC015F
:103B400081818E3F31F48281803819F420E030E0A9
:103B500005C0CF010E94641D21E030E0C901089535
:103B6000DF92EF92FF920F931F93182FD92E85E7C4
:103B700092E365E041E150E0212F3D2D00E8BAE0FD
:103B8000EB2EBDE0FB2E0E945E1C813019F040E060
:103B900050E00FC040910A0D50910B0DFA01819336
:103BA000812F9D2D9C01D90180E10D9001928150C2
:103BB000E1F7CA011F910F91FF90EF90DF900895F8
:103BC000EF92FF920F939C0181EF91E364E041E259
:103BD00050E000E878E0E72E7DE0F72E0E945E1CC2
:103BE000882319F020E030E004C02091080D3091C6
:103BF000090DC9010F91FF90EF900895EF92FF9288
:103C00000F939C01062F8AEC92E364E04BE150E0B5
:103C1000EEE0EE2EEDE0FE2E0E945E1C882319F0F1
:103C200020E030E004C020910E0D30910F0DC9014D
:103C30000F91FF90EF900895EF92FF920F939C01E8
:103C40008EE393E362E04AE150E000E8F2E1EF2E18
:103C5000FDE0FF2E0E945E1C882319F020E030E07A
:103C600004C02091120D3091130DC9010F91FF90E6
:103C7000EF900895EF92FF920F939C0182E793E3F8
:103C800064E140E350E000E8A0E1EA2EADE0FA2E66
:103C90000E945E1C882319F020E030E004C02091CF
:103CA000100D3091110DC9010F91FF90EF90089503
:103CB0001092070D1092060D8EE393E322C08081CF
:103CC0008823D1F0CF0101960E943A1EFC01009793
:103CD00051F085A5882339F02091120D3091130DF4
:103CE0002F5F3F4F1EC08091120D9091130D0196D2
:103CF0009093070D8093060D8091120D9091130DF6
:103D00004A969093130D8093120DE091120DF0914D
:103D1000130D83E3E237F80790F22091060D3091FE
:103D2000070DC90108950E94581E892B91F48091B6
:103D3000F50C833070F40E94E5148091F50C8F5FD0
:103D40008093F50C82E397E364EF71E00E94EF3516
:103D5000089582E397E30E94ED3408958F929F9235
:103D6000AF92BF92CF92DF92EF92FF920F931F9389
:103D7000CF93DF934C015A016B01122F81EF91E336
:103D800064E041E250E0940100E8B8E0EB2EBDE0D1
:103D9000FB2E0E945E1C813019F020E030E068C0EC
:103DA000A091080DB091090DFD018193E40180E11E
:103DB000099001928150E1F751961C9251975296C9
:103DC0001C935297A114B104C104D10421F481E0E1
:103DD00053968C9309C053961C925397CD014496E9
:103DE000B601A5010E94F1370091080D1091090D4F
:103DF000045E1F4F0E9403386DE770E00E94594A2D
:103E0000BC01C8010E944B33E091080DF091090DEF
:103E100010A29FEF9093F60C82E08093F70C109223
:103E2000F90C1092F80C1092FB0C1092FA0C1092F4
:103E3000FD0C1092FC0C1092FF0C1092FE0C1092D4
:103E4000000D81E08093010D9093020DF4018585B2
:103E50008093030D868597859093050D8093040DBF
:103E600086EF9CE00E94B01D2091080D3091090D55
:103E7000C901DF91CF911F910F91FF90EF90DF90DB
:103E8000CF90BF90AF909F908F9008958F929F9208
:103E9000AF92BF92CF92DF92EF92FF920F931F9358
:103EA000CF93DF93182F992E862E59016A018AEC41
:103EB00092E364E04BE150E0212F392D082D7EE0A4
:103EC000E72E7DE0F72E0E945E1C813031F5A09137
:103ED0000E0DB0910F0DFD018193812F992D9C0145
:103EE000E90180E1099001928150E1F751968C92AD
:103EF0005197A114B104C104D10461F0CD014296DF
:103F0000B601A5010E94F137E0910E0DF0910F0D61
:103F1000128E03C081E05A968C9380E090E0DF918E
:103F2000CF911F910F91FF90EF90DF90CF90BF90B6
:103F3000AF909F908F9008959F92AF92BF92CF9233
:103F4000DF92EF92FF920F931F93CF93DF93182F7F
:103F5000992E5A016B018EE393E362E04AE150E04F
:103F6000212F392D00E8E2E1EE2EEDE0FE2E0E9439
:103F70005E1C813019F020E030E026C0C091120DA7
:103F8000D091130DFE018193812F992D9C01D901B0
:103F900080E10D9001928150E1F7A114B104C104B8
:103FA000D10461F0CE014196B601A5010E94F1371E
:103FB000E091120DF091130D118E02C081E0898FF6
:103FC0002091120D3091130DC901DF91CF911F91F6
:103FD0000F91FF90EF90DF90CF90BF90AF909F90A8
:103FE0000895FC01009721F010828E960E94EC1932
:103FF000089580EC93E0E2E7F3E3DF019C011D927A
:1040000021503040E1F784E3EEE3F3E3DF011D925A
:104010008A95E9F78CE6EAECF2E3DF011D928A95D6
:10402000E9F78BEEEFEDF1E3DF011D928A95E9F7F9
:1040300088E993E0EAE3F7E3DF019C011D92215058
:104040003040E1F780E095E0A0E0B0E08093DF3120
:104050009093E031A093E131B093E23180E480931A
:10406000E33180E395E7A0E0B0E08093E431909302
:10407000E531A093E631B093E7310E94461B60938F
:10408000E8317093E9318093EA319093EB3188EE17
:1040900093E0A0E0B0E08093EC319093ED31A093F9
:1040A000EE31B093EF3181E08093F0318EEF90E804
:1040B0009093F70C8093F60C1092F90C1092F80C78
:1040C0001092FB0C1092FA0C1092FD0C1092FC0C4A
:1040D00086EF9CE060E420E030E040E050E00E94A9
:1040E000461FAEEFBCE0EEE9FBE288E001900D92E6
:1040F0008150E1F78091FE0C92E089278093FE0CBD
:1041000086EF9CE040E050E060E070E021E00E943B
:10411000AE1E8FEF92E09093F70C8093F60C109206
:10412000F90C1092F80C1092FB0C1092FA0C1092F1
:10413000FD0C1092FC0C1092FF0C1092FE0C1092D1
:10414000010D1092000D1092030D1092020D80E0EF
:1041500091E09093050D8093040D86EF9CE00E9402
:10416000B01D0E9403386DE770E00E94594ABC01FF
:1041700082E397E30E94EF3586E393E36CE070E01F
:104180000E94EF350895BF92CF92DF92EF92FF9297
:104190000F931F93CF93DF93182FD92EEB01C42ECB
:1041A000B22E82E793E364E140E350E0212F3D2DFE
:1041B00000E8F0E1EF2EFDE0FF2E0E945E1C90E093
:1041C0008130910509F054C04091100D5091110DAE
:1041D000DA0181E08D93212F3D2DC901FC0180E1A1
:1041E00001900D928150E1F7CA014196209741F06C
:1041F000FC01DE0188E00D9001928150E1F706C0DC
:10420000FC0188E0DF011D928A95E9F7E091100D2D
:10421000F091110DC4A6B5A6CF018E960E94C119CA
:104220008091100D9091110D499640E050E060E0B2
:1042300070E00E94F1378091100D9091110D8196E0
:1042400040E050E060E070E00E94F1370091100D16
:104250001091110DF80113A60E94EF25D8019A962E
:104260009C938E9399972091100D3091110D24C03D
:10427000029701F50E94EF25AC01E2E7F3E360E06D
:1042800070E00DC08081882339F021A532A5241764
:10429000350710F4BF0101C09A01F096A901B7E3F8
:1042A000E233FB0779F76115710521F0CB010E941C
:1042B000F11F77CF20E030E0C901DF91CF911F914E
:1042C0000F91FF90EF90DF90CF90BF900895DF9215
:1042D000EF92FF920F931F9381EF91E330C08081A3
:1042E000882341F18389882369F4CF0144960E9491
:1042F000BB37892B39F08091080D9091090D0E94F0
:10430000641D18C0E091080DF091090D8189882382
:1043100089F490A18091F031891760F0CF014C961B
:104320000E942833892B31F08091080D9091090D5E
:104330000E94761B8091080D9091090D81969093B3
:10434000090D8093080DE091080DF091090D82E3AD
:10435000E537F80720F28EE393E318C080818823C5
:1043600081F0818D882369F4CF0141960E94BB378B
:10437000892B39F0E091120DF091130D309709F06F
:1043800010828091120D9091130D4A969093130D07
:104390008093120DE091120DF091130D83E3E2373B
:1043A000F807E0F28AEC92E318C08081882381F05C
:1043B000828D882369F4CF0142960E94BB37892BF6
:1043C00039F0E0910E0DF0910F0D309709F0108249
:1043D00080910E0D90910F0D4B9690930F0D809341
:1043E0000E0DE0910E0DF0910F0D83E3E633F8070B
:1043F000E0F282E793E39093110D8093100DB2E009
:10440000EB2EA4E0DA2EFF24F3948EC08081882363
:1044100009F481C085A5813009F1813030F0833005
:1044200051F1843009F077C034C083A5833010F097
:10443000CF0142C0CF0181960E94BB37892B09F47E
:104440006AC0E091100DF091110D83A58F5F83A7D5
:10445000319680E090E060E070E042C0CF01499684
:104460000E94BB37892B09F456C0E091100DF091E2
:10447000110DE5A650C0CF0149960E94BB37892B8C
:1044800009F449C0E091100DF091110DD5A6F3A6E5
:1044900023C083A5833098F0CF0101960E941C1E93
:1044A000FC019093130D8093120D009709F0108278
:1044B0008091100D9091110D0E94F11F2CC0CF0121
:1044C00081960E94BB37892B31F1E091100DF0915C
:1044D000110D83A58F5F83A7319680E090E0BF0127
:1044E000AF010E947C150091100D1091110D60918B
:1044F000EC317091ED318091EE319091EF3128EEF9
:1045000033E040E050E00E946D4AC8018196BA0154
:10451000A9010E94F1378091100D9091110DC09664
:104520009093110D8093100DE091100DF091110DED
:1045300087E3E233F80708F469CF86E393E30E9448
:10454000E4351F910F91FF90EF90DF9008951F9237
:104550000F920FB60F9211240F900FBE0F901F9065
:104560001895EF92FF920F931F93CF93DF93182F1D
:10457000E62EF42E052F80E061E00E94712780E096
:104580006E2D0E94712780E0612F0E9471272F2DD0
:10459000302FC901EC0104C0699180E00E947127AD
:1045A0009E012F192E15C0F380E064E00E94712750
:1045B000DF91CF911F910F91FF90EF900895AC0183
:1045C000DC010D900020E9F76A2F681B653108F0C7
:1045D00064E182EC0E94B1220895382F882329F0EB
:1045E0008091E23A8F5F8093E23A20912B0D213047
:1045F00041F0213018F0223051F406C0313039F545
:1046000023C030932C0D20C030932D0D1DC02731B9
:10461000A8F4E22FF0E080912C0D90E002968E1726
:104620009F077CF4343051F481E080932E0D8CE5AB
:1046300091E061E040E050E00E945B3110922B0D70
:1046400006C0EC5EF24F30832F5F20932B0D80E08D
:1046500090E008950F931F93082F2FB783B7817FA2
:10466000866083BF002311F413E001C0102FF8947B
:104670008091B60080628093B60082E08093B000A3
:1046800087E08093B100812F90E035E0880F991F7B
:104690003A95E1F78093B3002FBF1092B2000E94C9
:1046A00026288091B60084FDFCCF80917000826046
:1046B0008093700083B7816083BF1092E23A83B722
:1046C000816083BF889583B78E7F83BF812F0E94CF
:1046D0009F25002321F48091E23A882371F383B768
:1046E0008E7F83BF809170008D7F809370000E94C9
:1046F0000F281F910F910895CF93DF9380E6809349
:10470000A62B81E08093A72B1092A92B1092A82BA7
:104710008AE38093AC2B8091E3318093AD2B0E9490
:10472000581EAEEBBBE2FC0180E101900D9281507E
:10473000E1F78EEA9BE26EEB7BE20E94AE1A80917B
:10474000790290E0FC01E253F44D20E820831182CD
:10475000FC01EE52F44D10821182128213828A52B1
:10476000944DFC0180E1DF011D928A95E9F780E418
:1047700090E09093972B8093962B1092AA2B88E130
:104780008093AB2B80917902C82FD0E0C253D44DD7
:104790001B821A820E94FE01809590959B838A83DA
:1047A0000E942C0DDF91CF910895CF93DF93EC0100
:1047B000FA0188819981009729F0805E914009F083
:1047C00055C00DC080E090E00E947B0C882309F06A
:1047D0004DC080EE91E09983888381E04AC080914A
:1047E000DE31681791F44081403819F0413889F77B
:1047F00005C081EC60E040E050E004C080EC61E086
:1048000046E15DE00E94B122E4CF613011F7809172
:104810002E0D8823F1F280912D0D833859F08438C4
:10482000E1F0813801F58091170D8093160D0E94FB
:104830007C2319C08091170D8823F1F4E091C30106
:10484000F091C40109958091170D0E942A23E091EF
:10485000C101F091C201099506C083EC60E040E01F
:1048600050E00E94B12210922E0DB3CF198218820F
:1048700083E0DF91CF9108958091D43090E08F70E4
:104880009070892B81F7DACF9C01F999FECF32BD68
:1048900021BDF89A80B5089500D000D000D0EDB7C2
:1048A000FEB731962CE830E0ADB7BEB712963C9318
:1048B0002E93119793838283758364830E946A4742
:1048C0008DB79EB706960FB6F8949EBF0FBE8DBFEC
:1048D0000895EF92FF920F931F93DF93CF93CDB77D
:1048E000DEB728970FB6F894DEBF0FBECDBF0E948B
:1048F000FF270E940F280E94943280E06CE046E07F
:104900000E94FB2680E06DEE72E20E94872781E024
:1049100068E046E00E94FB2681E00E94DB270E94BF
:10492000DF2500D000D081EC90E0ADB7BEB7129685
:104930009C938E93119786E691E014969C938E93A8
:1049400013970E946A470F900F900F900F900E944C
:104950006B370E94A23088E092E060E070E00E9435
:104960008E310E942437E091B101F091B201099596
:104970008E010F5F1F4F88E0F80111928A95E9F7C9
:10498000C80160E070E048E050E024E434E20E94B6
:104990004E47AEE9BBE2F80188E001900D928150EC
:1049A000E1F78DEC9BEA60E070E0AE014F5F5F4F96
:1049B0000E94312CF999FECF88E090E092BD81BD34
:1049C000F89A80B58093E33AF999FECF89E090E0B8
:1049D00092BD81BDF89A80B52091E33A30E090E035
:1049E000809590952817390711F08AE102C08091CF
:1049F000E33A0E944A2ACE0101960E94AB2E0E9401
:104A0000C63AE091F001F091F1010995E091D701EA
:104A1000F091D8010995E0915802F0915902099559
:104A20000091D5011091D601E090EE01F090EF01D8
:104A30000E94BB282DB73EB7285030400FB6F894DF
:104A40003EBF0FBE2DBFEDB7FEB731962FEA30E067
:104A5000ADB7BEB712963C932E9311971383028382
:104A6000F582E482868317820E946A47E091FA0108
:104A7000F091FB012DB73EB7285F3F4F0FB6F8947A
:104A80003EBF0FBE2DBF3097F1F00995BC018DE7F9
:104A900090E00E94594A8FEF6F3F7807A1F000D055
:104AA00000D08CE990E0ADB7BEB712969C938E9380
:104AB000119714967C936E9313970E946A470F90F8
:104AC0000F900F900F9000D08AE990E0EDB7FEB7FD
:104AD000928381830E946A470F900F908EE291E04B
:104AE00060E070E00E948E318CE591E060E070E063
:104AF0000E948E318DE191E00E94DE3100D082E98A
:104B000090E0ADB7BEB712969C938E9311970E941A
:104B10006A470F900F9028960FB6F894DEBF0FBE2D
:104B2000CDBFCF91DF911F910F91FF90EF9008952E
:104B30000E9469240E94B2300E942428FBCF209159
:104B4000E83A3091E93A4091EA3A5091EB3A90E0F4
:104B5000A0E0B0E0280F391F4A1F5B1F2093E83AFE
:104B60003093E93A4093EA3A5093EB3A2091E43A91
:104B70003091E53A4091E63A5091E73A280F391FD3
:104B80004A1F5B1F2093E43A3093E53A4093E63A9C
:104B90005093E73A08958091E83A9091E93AA091CC
:104BA000EA3AB091EB3A0196A11DB11D8093E83A23
:104BB0009093E93AA093EA3AB093EB3A0895F894C7
:104BC0001092B60016BC8DE387BD92E094BD85E0DF
:104BD00085BD85B385BB90936E0078940895209130
:104BE0002F0D3091300D80912F0D9091300D2817A1
:104BF0003907A9F7C901089507C022E330E0000092
:104C000021503040E1F701970097B9F70895BC01B2
:104C100040912F0D5091300D80912F0D9091300DBE
:104C200048175907A9F720912F0D3091300D809129
:104C30002F0D9091300D28173907A9F7241B350B3C
:104C40002617370780F3089508952091E83A3091A8
:104C5000E93A4091EA3A5091EB3A8091E83A9091E2
:104C6000E93AA091EA3AB091EB3A281739074A0796
:104C70005B0759F7B901CA0108951F920F920FB649
:104C80000F920BB60F9211242F933F934F935F9384
:104C90006F937F938F939F93AF93BF93EF93FF9304
:104CA00080912F0D9091300D01969093300D80934F
:104CB0002F0D8091310D8F5F8093310D8091310DDB
:104CC0008D3721F41092310D0E94CB250E94A03423
:104CD000892B11F00E941F35FF91EF91BF91AF9189
:104CE0009F918F917F916F915F914F913F912F9104
:104CF0000F900BBE0F900FBE0F901F9018951F9234
:104D00000F920FB60F92112410928A010F900FBECE
:104D10000F901F9018951F920F920FB60F920BB61F
:104D20000F9211242F933F934F935F936F937F9331
:104D30008F939F93AF93BF93EF93FF93E091800185
:104D4000F09181018081E0918B01F0918C0130978D
:104D500009F00995FF91EF91BF91AF919F918F91CC
:104D60007F916F915F914F913F912F910F900BBE6B
:104D70000F900FBE0F901F9018951F920F920FB6B5
:104D80000F921124109297010F900FBE0F901F9059
:104D900018951F920F920FB60F920BB60F92112417
:104DA0002F933F934F935F936F937F938F939F9333
:104DB000AF93BF93EF93FF93E0918D01F0918E013C
:104DC0008081E0919801F0919901309709F009955F
:104DD000FF91EF91BF91AF919F918F917F916F91D3
:104DE0005F914F913F912F910F900BBE0F900FBE8F
:104DF0000F901F90189590E02DE030E0829FF00119
:104E0000839FF00D929FF00D1124E058FE4FA28178
:104E1000B3811C92A481B5816C93A681B78188ED82
:104E20008C93A085B1854C931286148613860895C1
:104E3000CF93DF93AB0190E02DE030E0829FD00173
:104E4000839FB00D929FB00D1124A058BE4FED016D
:104E50002A9691E00AC09883ED91FC911197808386
:104E600088818823E9F74F5F5F4FFA018491882397
:104E700091F7DF91CF910895CF93DF93262F372FAE
:104E8000A90190E02DE030E0829FD001839FB00D1A
:104E9000929FB00D1124A058BE4FED012A9691E0CB
:104EA0002DE018C08A3041F49883ED91FC91119760
:104EB000208388818823E9F7FA0180818D3041F0D1
:104EC0009883ED91FC911197808388818823E9F77D
:104ED0004F5F5F4FFA018081882321F7DF91CF91E7
:104EE000089590E02DE030E0829FF001839FF00D67
:104EF000929FF00D1124E058FE4F81E08287A0813F
:104F0000B1816C933A9680818823E9F7089590E007
:104F10002DE030E0829FF001839FF00D929FF00D15
:104F20001124E058FE4F74876387089591E09093B1
:104F30008A01E0918001F0918101808380918A0152
:104F40008823E1F70895482F8A30C9F48091320D03
:104F500090E02DE030E0829FF001839FF00D929F62
:104F6000F00D1124E058FE4F81E08287A081B181CD
:104F70008DE08C933A9680818823E9F702C08D30CA
:104F8000B9F08091320D90E02DE030E0829FF00189
:104F9000839FF00D929FF00D1124E058FE4F81E0A9
:104FA0008287A081B1814C933A9680818823E9F76A
:104FB00080E090E008958093320D82E791E0909335
:104FC0002D3C80932C3C08950F931F93DF93CF9338
:104FD000CDB7DEB7FE013A9603E31DE0C80160E4F9
:104FE00070E0488559859F010E9490478F81B801E4
:104FF0000E943C27CF91DF911F910F91089584B7B4
:10500000877F84BF1092740D1092730D88E10FB6E4
:10501000F89480936000109260000FBE0895809114
:10502000730D9091740D01979093740D8093730D8F
:105030002FE088E190E00FB6F894A8958093600087
:105040000FBE209360000895A895089588E10FB6DB
:10505000F89480936000109260000FBE0895F89459
:1050600028E088E190E00FB6F894A895809360005E
:105070000FBE20936000FFCF8093750D0895DF93DE
:10508000CF9300D00F92CDB7DEB73091660010926B
:10509000700010926F008091B60080628093B6001D
:1050A00081E08093B1008FE890E00197F1F78FB72E
:1050B0008983F89420E861E050E84FEF6093810025
:1050C0008091B6008B71E1F75093B2001092850089
:1050D0001092840047BBB89BFECF809184009091D2
:1050E00085009B838A83109281008A819B81875FE0
:1050F000934760F4809166008E3719F180916600C5
:105100008F3FF9F0809166008F5F12C08A819B818A
:105110008D52904810F491E00EC080916600813865
:1051200081F080916600882361F080916600815053
:105130008093660090E0215029F0992309F4BECFB6
:1051400001C090E08091660080937D3B992311F42B
:1051500030936600309366001092B1008091B600E3
:105160008F7D8093B60089818FBF0F900F900F9035
:10517000CF91DF9108958091770D08958091760DFC
:105180008091760D90E0089581E06FE140E00E940B
:105190003D2D813021F020E030E0813111F421E01B
:1051A00030E0C901089581E06FE140E00E943D2DAB
:1051B000823021F0823111F081E0089580E008957D
:1051C00081E06FE140E00E943D2D982F81518230B7
:1051D000B8F39F31A9F3913099F3923089F3089590
:1051E0001B9B02C080E1089585E06FE040E00E94D3
:1051F0003D2D08950F931F93182F883059F0863056
:1052000049F0893039F0863129F0893119F022E4EA
:1052100030E050C01B9B03C024E430E04BC00E9430
:10522000E02881E06FE140E00E943D2D082F181733
:1052300009F43EC0183061F42B988DE090E001979E
:10524000F1F782E06FE140E023E00E94502D22C0A0
:10525000193139F4863199F482E06FE140E029E0B8
:1052600008C0163161F4893151F482E06FE140E009
:1052700026E00E94502D83E090E00197F1F782E054
:105280006FE140E0212F0E94502D083019F489E68B
:1052900091E002C083E090E00197F1F781E06FE1D7
:1052A00040E00E943D2D811719F023E430E002C058
:1052B00020E430E0C9011F910F91089580917B3B5C
:1052C000882339F02B988FEA92E00197F1F710923A
:1052D0007B3B0E94E02886E10E94FA2881E08093CF
:1052E0007C3B089580917C3B882351F48091780D1C
:1052F000882321F081E08093790D02C00E945E290D
:1053000081E090E0089510927C3B0E94E0282B9869
:105310008DE090E00197F1F782E06FE140E023E05B
:105320000E94502D83E090E00197F1F72B9A81E0E5
:1053300080937B3B08958091790D882321F00E9412
:105340005E291092790D80917A0D882321F00E94B8
:10535000832910927A0D1092780D0895CF93DF93E0
:10536000FC01AB0181E08093780D8091C63B909168
:10537000C73BA091C83BB091C93B0196A11DB11D8F
:105380008093C63B9093C73BA093C83BB093C93B67
:10539000862F8E5F87FF03C0CFEFDFEF08C02BE7BC
:1053A0003DE0C901BF010E942C47C0E0D0E00E944F
:1053B0009B29CE01DF91CF91089580917C3B88237A
:1053C000A9F08091780D8823A1F481E06FE140E09D
:1053D0000E943D2D982F8151823058F09F3149F025
:1053E000913039F0923029F00E94832981E090E0D9
:1053F000089581E080937A0DF9CF8091780D88230C
:1054000041F480917C3B882321F40E9472290E9400
:10541000DD2981E090E008950F931F9380917C3BFC
:10542000882311F000E003C00E94722901E081E0AE
:105430006FE140E00E943D2D863111F0813129F469
:1054400087E00E94072D182F09C086E06FE140E039
:105450000E943D2D93E0899F102D1124002311F00F
:105460000E94DD29812F1F910F910895282F1B99EC
:1054700008C0803108F02FE085E06FE040E00E9436
:10548000502D089591E09093780D0E94362A0E9445
:105490009B2908951F93182F0E94E0281093770DE1
:1054A00088E06FE140E0212F0E94502D1F91089568
:1054B0000E944A2A86E00E94FA280895FF920F93DC
:1054C0001F93CF93DF93182F01E00093780DF09096
:1054D0007C3B80917B3B882321F02B9810927B3B77
:1054E00018C08091F03A8823A1F08AE160E847E093
:1054F00021E00E94502D8BE160E847E021E00E940E
:10550000502D1092F03A0093F13A81EA90E0019721
:10551000F1F70E94E02889E10E94FA2886E00E94C3
:10552000A538892B19F4C0E0D0E009C00E94F0280A
:10553000C82F86E00E94A53881500E94362A2B9AF7
:105540002B981E5F8BE79DE0612F0E94BB2D0E9470
:10555000E02882E060EE45E00E943D2D182F86E0B5
:105560000E94A538892B19F08C2F0E94362AFF2023
:1055700011F00E945E2980917C3B882331F482E007
:105580006FE140E023E00E94502D0E949B291130E2
:1055900011F410E015C0133099F48091BE3B909146
:1055A000BF3BA091C03BB091C13B0196A11DB11D75
:1055B0008093BE3B9093BF3BA093C03BB093C13B55
:1055C000812F90E0DF91CF911F910F91FF9008956F
:1055D000CF93DF93EB010E94AE299C01009721F449
:1055E000CE010E945E2A9C01C901DF91CF910895EE
:1055F00087EA91E00E94BB3181E08093760D81E0E3
:1056000090E00895CF93DF93582FA92F2091F73A78
:10561000822F90E0FC01F695FE2FEE27F795E79597
:10562000880F991FE80FF91FE850F54C408144237B
:1056300021F147FF25C0822F90E0FC01F695FE2F57
:10564000EE27F795E795880F991FE80FF91FE850A7
:10565000F54C10828091B63B9091B73BA091B83B3E
:10566000B091B93B0196A11DB11D8093B63B9093BB
:10567000B73BA093B83BB093B93BC0E0D0E0BEC00D
:10568000433018F5822F90E0FC01F695FE2FEE27AF
:10569000F795E795880F991FE80FF91FE850F54C2B
:1056A00010828091B23B9091B33BA091B43BB091FA
:1056B000B53B0196A11DB11D8093B23B9093B33BC6
:1056C000A093B43BB093B53BD8CFC42FD0E0229782
:1056D0006C177D0718F5822F90E0FC01F695FE2FE0
:1056E000EE27F795E795880F991FE80FF91FE85007
:1056F000F54C10828091AE3B9091AF3BA091B03BB6
:10570000B091B13B0196A11DB11D8093AE3B90932A
:10571000AF3BA093B03BB093B13BAFCF822F90E0B3
:105720009C013695322F222737952795880F991F90
:10573000280F391F2750354C852F9A2FB90150E07B
:105740000E942C472091F73A822F90E0FC01F695B9
:10575000FE2FEE27F795E795880F991FE80FF91FA1
:10576000E858F44C80818093EC3A822F90E0FC0161
:10577000F695FE2FEE27F795E795880F991FE80F0E
:10578000F91FE850F54C10821092F73A80E090E053
:10579000FC01F695FE2FEE27F795E795880F991FE8
:1057A000E80FF91FE850F54C8081882311F00E9422
:1057B000F82A87E00E94072D682F8093ED3A77271B
:1057C00067FD709584E00E949A386091EC3A83E01E
:1057D00070E00E949A388091CA3B9091CB3BA09197
:1057E000CC3BB091CD3B0196A11DB11D8093CA3B2E
:1057F0009093CB3BA093CC3BB093CD3BCE01DF91BC
:10580000CF910895CF93DF93EC0188819981009720
:1058100021F081599440F9F405C081E994E099831D
:10582000888302C0623811F081E018C01092760DB2
:105830000E94E7380E94563860E870E00E94022B10
:105840001816190654F70E945138E091F401F091AE
:10585000F5010995E2CF1982188283E0DF91CF919B
:105860000895AF92BF92CF92DF92EF92FF920F9383
:105870001F93CF93DF93282F192F062FF72EEA01BE
:1058800082E2622F0E94222D83E2612F0E94222D4C
:1058900080E2602F0E94222D81E26F2D0E94222D36
:1058A0002097D1F18E010F5F1F4F8BE268810E941C
:1058B000222D68010894C11CD11C8AE269810E94D2
:1058C000222D56010894A11CB11C89E2F8016181C6
:1058D0000E94222D75010894E11CF11C88E2F6015A
:1058E00061810E94222D87010F5F1F4F87E2F50122
:1058F00061810E94222D86E2F70161810E94222DA2
:1059000085E2F80161810E94222D84E20F5F1F4F22
:10591000F80161810E94222DDF91CF911F910F919B
:10592000FF90EF90DF90CF90BF90AF9008950F93CE
:105930001F930DEF13E0C8010197F1F70E94EA2CC5
:105940001092F83A1092F73A1092F63A29982B985A
:105950008DE090E00197F1F7299A82E06FE140E055
:1059600023E00E94502DC8010197F1F78DE10E94BC
:10597000072D8EE10E94072D8EE06FE00E94222D00
:105980008CE260EF44E022E00E94502D8CE26EE059
:1059900041E025E00E94502D8FE260E80E94222D18
:1059A00086E00E94072D682F8DE20E94222D85E05F
:1059B00060E847E021E00E94502D87EA91E060E036
:1059C00070E00E948E310E945E2981E090E01F917C
:1059D0000F9108951092FD0D1092FC0D239A219ABB
:1059E00084B1806B84B985B1806985B980E58CBD4F
:1059F00081E08DBD83E480938100B59AEFE6F0E00D
:105A00008081816080838081806280830895DF93BC
:105A1000CF930F92CDB7DEB780689FB79983F89484
:105A20002C988EBD0DB407FEFDCF8EB51EBC0DB4F7
:105A300007FEFDCF8EB52C9A99819FBF0F90CF9115
:105A4000DF910895DF93CF930F92CDB7DEB7806CCF
:105A50009FB79983F8942C988EBD0DB407FEFDCFA7
:105A60008EB56EBD0DB407FEFDCF8EB52C9A898123
:105A70008FBF0F90CF91DF910895FF920F931F93E7
:105A8000062FF42E0E94072D082310E002C0159562
:105A90000795FA94E2F7802F1F910F91FF900895D8
:105AA000EF92FF920F931F93DF93CF9300D0CDB768
:105AB000DEB7182F062FE42EF22E0E94072D8983C1
:105AC0009981802F8095892389832981106C8FB7D4
:105AD0008A83F8942C981EBD0DB407FEFDCF8EB5B9
