:100000000C946E000C948D000C948D000C948D005B
:100010000C948D000C948D000C948D000C948D002C
:100020000C948D000C9402240C948D000C948D0083
:100030000C94592F0C948D000C948D000C94422F2D
:100040000C9498270C948D000C948D000C948D00CA
:100050000C94E6270C948D000C94DA270C948D00F8
:100060000C948D000C948D000C948D000C948D00DC
:100070000C9424280C948D000C9418280C948D005A
:100080000C9445440C948D000C948D0025732573BD
:100090000A004F6E6C696E650A000A002C206368C6
:1000A00065636B207261746520257520487A002590
:1000B000732025732C206368616E6E656C20257536
:1000C000000A2A2A2A2A2A2A2A426F6F74696E672E
:1000D0002025732A2A2A2A2A2A2A0A0011241FBE26
:1000E000CFEFD0E4DEBFCDBF12E0A0E0B1E0E8E9A1
:1000F000F5E900E00BBF02C007900D92A037B107F1
:10010000D9F71CE3A0E7B2E001C01D92A233B1070A
:10011000E1F70E94F3260C94CA4A0C940000CF9396
:10012000DF93EC01888199818032910579F08632E4
:100130009105F1F0892B09F051C082E792E067E761
:1001400071E00E945B0280E290E00EC0683871F4BA
:100150008BE098EB0E94191182E792E06DE770E066
:100160000E945B0286E290E09983888381E039C037
:100170008091700290917102892B59F080E091E09A
:1001800064E070E00E9428041092710210927002E4
:10019000E9CF8091A83086FF0DC085E091E065E051
:1001A00070E00E94280481E090E0909371028093B7
:1001B0007002D8CF81FFD6CFE091AD30F091AE3054
:1001C0008091982B9091992BE80FF91F10828091C4
:1001D000AD309091AE300E943A24C4CF198218827B
:1001E00083E0DF91CF91089520E030E0FC0186812B
:1001F0009781892B11F421E030E0C9010895FC01B9
:100200002281338180819181280F391FC90108958E
:10021000FC0180819181089520917A0230917B02C6
:100220002115310511F021E030E0C90108958091D8
:100230007A0290917B02892B19F420E030E004C00F
:1002400020917C0230917D02C901089580917A024B
:1002500090917B02892B29F410927D0210927C02EE
:1002600008950E944A27BC01E0917A02F0917B0236
:100270004281538180819181480F591F461B570B42
:100280000CC02281338180819181280F391F261B68
:10029000370B2417350708F4A9010480F581E02DF8
:1002A000309779F7460F571F50937D0240937C0299
:1002B0000895CF93DF93EC01E0917A02F0917B02F5
:1002C0008E179F0741F48C819D8190937B028093D0
:1002D0007A0214C0FC01309731F0848195818C172B
:1002E0009D07C1F707C01D821C821F821E82DF91FD
:1002F000CF9108958C819D81958384830E942601EE
:10030000F2CFFC0180819181860F971F91838083BA
:100310000E942601089588E391E00E941633089513
:10032000EF92FF920F931F93CF93DF937C01FC0119
:1003300080819181009729F08A35910509F06DC07F
:100340000BC010927B0210927A028AE590E0F701CE
:100350009183808381E065C0673849F59A01E09117
:100360007A02F0917B0203C00480F581E02D309782
:1003700041F38681978182179307B1F3E0937A0264
:10038000F0937B020FC016968D919C911797821760
:10039000930711F0FD0106C014968D919C9115975D
:1003A00095838483A481B581109769F7CECF623895
:1003B00061F6C0917A02D0917B0200E010E02AC081
:1003C000CE010E948334892B01F18E819F8168E8E0
:1003D000AE010E94B632892BA1F41F821E828C814D
:1003E0009D810115110521F0F8019583848304C0D6
:1003F00090937B0280937A021D821C820E942601C8
:10040000D8CF88E391E00E9416338E018C819D81C4
:100410009C01E9012097A1F698CFF7011182108283
:1004200083E0DF91CF911F910F91FF90EF9008959E
:10043000CF93DF93EC0188E391E00E9416338E8125
:100440009F81892B69F0E0917A02F0917B0206C0CE
:10045000EC17FD07A9F00480F581E02D3097C1F776
:100460008091070E9091080E9F838E8380917A026F
:1004700090917B029D838C83D0937B02C0937A0200
:100480000E942601DF91CF9108950F931F938C0155
:100490000E949B34C8010E9418021F910F91089579
:1004A0000F931F938C010E946434C8010E941802AC
:1004B0001F910F9108950F931F938C010E94A634F2
:1004C000C8010E9418021F910F910895FC015381E9
:1004D000560F50939F2B272F33274281420F409373
:1004E0009E2BA181A0939D2BE081E0939C2B842FD8
:1004F00090E08217930748F48A2F8F5F80939D2B9B
:10050000882319F4EF5FE0939C2B852F90E07070A7
:100510008617970790F4842F8F5F80939E2B8823F4
:1005200061F480919D2B8F5F80939D2B882329F40C
:1005300080919C2B8F5F80939C2B0895FC016150D0
:100540007040680F791F20E030E00EC0508140E01D
:100550008181DA01A80FB11D2A0F3B1F2A173B0723
:1005600010F42F5F3F4F3296E617F70778F3E61740
:10057000F70749F4908180E0280F391F28173907C1
:1005800010F42F5F3F4F832F922F0895E8EAFBE28C
:1005900040E050E0308120E08181B901680F711D99
:1005A000460F571F4617570710F44F5F5F4F32969D
:1005B0007BE2EF3CF70770F38BE2EF3CF80751F476
:1005C000908180E0480F591F4817590718F44F5F72
:1005D0005F4F06C04115510519F42FEF3FEF02C0E0
:1005E000342F252FC9010895CF93DF9390917F0277
:1005F000A92FB0E03091AC2B20E02A1B3B0B90914F
:10060000AD2B290F311DA901480F511DE0EBFBE275
:10061000708160E08181EB01C80FD11D4C0F5D1F1F
:100620004C175D0710F44F5F5F4F32968BE2EF3C43
:10063000F80770F38BE2EF3CF80749F4908180E013
:10064000480F591F4817590710F44F5F5F4FFD01BE
:10065000E053F44D215030402E0F3F1F0EC07081EB
:1006600060E08181DB01A80FB11D4A0F5B1F4A17B3
:100670005B0710F44F5F5F4F3296E217F30778F392
:10068000E217F30751F4908180E0480F591F481793
:10069000590718F44F5F5F4F06C04115510519F413
:1006A0002FEF3FEF02C0342F252FC901DF91CF91EB
:1006B00008958AE30E94F402089586E00E94F402FD
:1006C000089581E10E94F4020895CF93DF93582F9B
:1006D000A92F4091D630E091C130F091C2302091E5
:1006E0008202309183022F5F3F4FBDE720303B07EE
:1006F00010F020E030E1922F832F442319F0E81707
:10070000F90789F32093820230938302E0E0F0E05E
:10071000442329F410928102E1EBF0E309C0473051
:1007200011F4E1EBF0E381E080938102309771F105
:1007300082E085A380918402808F80918502818FE1
:1007400080918602828F80918702838F84EC94E06F
:10075000978F868F91A380A381E090E0958F848FFF
:1007600017A281E086A383E084A312A280E183A381
:10077000308B218B738B628BEF01252F3A2FC901B0
:10078000DC0180E10D9009928150E1F7CF01DF910A
:10079000CF9108952091E1303091E2302817390748
:1007A00039F4109281021092E2301092E1300895F3
:1007B00081E08093810208959C018091E1309091C5
:1007C000E230892B39F4109281023093E230209389
:1007D000E130089581E0809381020895BC01809109
:1007E000AF309091B03044960E946602E091AF30F5
:1007F000F091B03080919C2B848B80919D2B858BC8
:1008000080919E2B868B80919F2B878B0895282F1C
:10081000892F922F0895EF92FF920F931F939C01BF
:1008200044275527F22EE32E00E010E0362F272F25
:1008300040E050E0A90133272227E22AF32A042BC3
:10084000152BB701C8011F910F91FF90EF900895EC
:10085000FC0140919A2B50919B2B28EA30E3241BFA
:10086000350B621773070CF49B011216130664F420
:100870002093E3303093E430E417F50729F0CA0100
:10088000BF01A9010E941547089582E0809380026C
:10089000A0917F022A2F30E0F901E053F44D8181CD
:1008A000682F70E043E0660F771F4A95E1F7695FB4
:1008B0007F4F42E0285D3F4F3CC0F901E80FF91F30
:1008C000E855F44D8081882319F0813019F42EC049
:1008D0004F5F2FC090E0807C90708038910549F088
:1008E000803C910549F08034910501F540938002E8
:1008F00009C04093800208C0409380028091C02BC1
:100900008F3F11F481E00895242F30E040E050E063
:100910002A0F311D411D511D285D3F4F4F4F5F4F25
:1009200084E062E00E94821282E0089581818E5FFD
:10093000480F842F90E0681779070CF0BECF4093E2
:10094000800280E00895CF92DF92EF92FF920F93A2
:100950001F93CF93DF93C091AF30D091B0308430EC
:1009600009F471C204EE1BE21093AE300093AD3077
:1009700010939B2B00939A2B833099F48DA1282FF1
:1009800030E02F7030702330310529F48C8D9D8D2F
:10099000892B09F496C02230310511F00C94FF0C1C
:1009A0007FC0823009F091C01092992B1092982B41
:1009B0001092E4301092E330809187028F5F809331
:1009C0008702882399F4809186028F5F8093860244
:1009D000882361F4809185028F5F8093850288234C
:1009E00029F4809184028F5F809384022DA12730A7
:1009F00011F0253051F48EA18F5F8EA3853011F058
:100A00000C94FF0C1DA20C94FF0C222311F40C94E7
:100A1000FF0C8C8D9D8D892B09F44FC08EA18150C8
:100A20008EA38F5F09F0EBC73FA1383029F021502A
:100A3000223048F4353039F41DA280E88093A83084
:100A40000E94180E87C6353010F080E307C083E09F
:100A500090E002C0880F991F3A95E2F78EA38FA10C
:100A60008F5F8FA38DA190E08F7090708330910580
:100A7000F1F08430910544F48130910509F4FEC30E
:100A8000029709F0BCC70CC08630910509F476C600
:100A90008830910509F472C6049709F0B0C76EC694
:100AA000E0917F02F0E0E053F44D1586EEC384E060
:100AB0008093A8300E94180E8FC62F70233009F043
:100AC0009EC788E08093A83039C6853019F5E0913B
:100AD000AB30F091AC3080899189892B09F48FC7B4
:100AE0001092B0301092AF30C8010C979093AE3096
:100AF0008093AD3090939B2B80939A2B1092E4308F
:100B00001092E3301092992B1092982B88E08093EA
:100B1000A83097C18091A82B807F803609F06FC7DD
:100B20009091AC2B80E02091AD2BAC01420F511D78
:100B30009A018091982B9091992B8417950708F42E
:100B40005EC7285D3F4F3093992B2093982B80915F
:100B5000B02B8F3F09F453C7C80184970E943B1FF5
:100B6000892B59F4C80184970E94A11E892B29F46E
:100B70008091C02B8F3F09F042C78EEA9BE2909391
:100B8000AA308093A93010927F0210927E02E091E9
:100B9000A930F091AA3080818B3209F44BC08C329D
:100BA00048F4863009F4BFC1813109F4B4C0882308
:100BB00089F06BC08A3309F474C08B3320F48C3213
:100BC00009F063C01CC78B3309F419C78C3309F0D3
:100BD0005CC006C080917E0280FD57C0816009C064
:100BE00080917E0281FF04C086FD4FC0806401C0F9
:100BF000826080937E020E944504813009F4FFC622
:100C0000813018F0823019F602C720917F02E22F5E
:100C1000F0E0CF018053944D9093AA308093A93097
:100C2000285FFC018181880F880F880F280F20938F
:100C30007F02ADCF80917E0282FD27C084608093C9
:100C40007E0290917F02E92FF0E0DF01A053B44DC6
:100C500013968C911397882349F0BA969F014427E5
:100C600037FD4095542F84E060E018C0B093AA305F
:100C7000A093A930985FE053F44D8181880F880FCD
:100C8000880F980F90937F0282CFE85AFB429F0112
:100C9000442737FD4095542F84E061E00E94821282
:100CA000B6C60E9459038F5F9F4F09F0A8C6E09116
:100CB0007F02F0E0E855F44D80A50E94620EE091BD
:100CC0007F02F0E0E855F44D80A58538C1F0863804
:100CD00018F48038A1F410C0873829F0873848F01C
:100CE000883869F403C00E94EF180DC00E9489176C
:100CF0000AC00E945C1307C00E94151204C0109223
:100D0000992B1092982B8091982B9091992B892B4D
:100D100009F475C67CC68091982B9091992BC09749
:100D20009093992B8093982B88ED9BE29093AE3013
:100D30008093AD30E0917F02F0E0E053F44D868186
:100D40009781892B31F00E9461038F5F9F4F09F0DB
:100D500056C6E0917F02F0E0E053F44D828193812A
:100D6000892B09F44CC685EE90E39093AC308093C8
:100D7000AB3048C02889398921153105F1F18091BE
:100D80007F02E82FF0E0E053F44D828193818217D7
:100D9000930799F52A893B892115310529F080812E
:100DA00091818217930749F588819981892BE1F414
:100DB0008A819B81892BC1F48C819D81892BA1F42F
:100DC0008E819F81892B81F488859985892B61F497
:100DD0008A859B85892B41F48C859D85892B21F4FF
:100DE0008E859F85892BC1F080EB9BE2BE0140E19F
:100DF00050E00E940847009779F06996D093AC3094
:100E0000C093AB30C091AB30D091AC30B1E3CF3DAB
:100E1000DB0708F4AFCFF3C51092B0301092AF30BB
:100E200082E08093A83088ED9BE29093AE3080936F
:100E3000AD3090939B2B80939A2B1092E4301092BC
:100E4000E3300E94180E2091E3303091E4302115F8
:100E5000310509F4D4C5C901C0969093992B8093AC
:100E6000982B285F3F4F3093AC2B88528093AD2B4B
:100E70004091AB305091AC30EA018C898093AF2B1C
:100E800081E18093AE2BE0917F02F0E0E855F44DD4
:100E9000DF01989614963C93149715962C9315970A
:100EA00017961C921E9216978889998991A780A7F8
:100EB0008A899B8913969C938E931297A0ECBBE230
:100EC0002091AB303091AC30C901FC0180E1019040
:100ED0000D928150E1F780EB9BE260EC7BE20E9497
:100EE000091C84EE9BE29093AE308093AD308091EC
:100EF0007F02C82FD0E0C053D44D0E94610380957B
:100F000090959F838E8380917F02E82FF0E0E053DD
:100F1000F44D86819781892B09F067C58FEF9FEF8C
:100F20009783868362C50E945D038F5F9F4F09F0A0
:100F300066C580917F02082F10E00053144DD80140
:100F40001296ED90FC901397E114F10409F457C543
:100F5000CD90DC90C114D10409F451C5C1EBD0E3AC
:100F60008DA18823A1F088899989E816F90679F47A
:100F70008A899B89C816D90651F480EB9BE2BE0191
:100F800040E150E00E940847009709F49BC1AC96ED
:100F9000B0E3C13BDB0721F318F3E8018D858F73C4
:100FA0008230D1F4F0928A02E0928902109281029A
:100FB00041E00EC02091890230918A028091E13097
:100FC0009091E2302817390709F48AC040938102D2
:100FD00080918102882371F380917F02E82FF0E0F5
:100FE000DF01A053B44D1D968C911D9782FD07C55E
:100FF00084E11D968C931D978CE390E09093992B40
:101000008093982BFD0180E5848797811B968C91B6
:101010001B9717968C931797938796811A968C91A6
:101020001A9716968C9316979287958119968C919C
:10103000199715968C9315979187948190938102B7
:1010400018968C91189714968C93149790871B96EA
:101050008C911B978F5F1B968C931B978823C1F4F1
:101060001A968C911A978F5F1A968C931A978823E9
:1010700079F419968C9119978F5F19968C9319971B
:10108000882331F418968C9118978F5F18968C935B
:10109000E0917F02F0E0DF01A855B44D98962D91C4
:1010A0003C91999730938A0220938902E053F44D42
:1010B00082819381918380839B963C932E939A9710
:1010C000E0ECFBE2DF01509780E10D90019281504E
:1010D000E1F780EB9BE260EC7BE20E94091C5FC4BD
:1010E00010928102C0E0D0E021E014C08091D6309F
:1010F000882319F4C1EBD0E314C0873049F420975A
:1011000029F09091D7308EA1891710F4C1EBD0E36C
:101110002093810280918102882341F3209709F472
:101120006EC4D093B030C093AF3083E08EA38CA355
:101130001AA284E08BA31FA2E0917F02F0E0E855A1
:10114000F44D82A593A5998B888B80A591A59B8B47
:101150008A8BDE01E0EBFBE280E101900D92815091
:10116000E1F781E08DA380918402888F80918502D0
:10117000898F809186028A8F809187028B8F81E090
:1011800090E09D8F8C8FE0917F02F0E0E053F44D72
:1011900087818F8BE0917F02F0E0E053F44D8681F0
:1011A0008E8BE0917F02F0E0E053F44D85818D8BD2
:1011B000E0917F02F0E0E053F44D84818C8B81E07C
:1011C00090E00E94EE03E0917F02F0E0E053F44DE6
:1011D000848590E0807F9070813591050CF44EC03D
:1011E0001092810235C0F901E855F44D84AD809329
:1011F0008802882309F442C0813021F44F5F409374
:10120000810226C08230C1F485AD8430A9F436ADA8
:1012100020E087AD90E0822B932B90938A028093FD
:101220008902E4E0853C9E0710F084EC94E09F8FF7
:101230008E8F99A388A322C080918102E82FF0E0CD
:10124000EB51F44DE081EE23C9F0E80FE093810209
:1012500040918102242F30E0E0917F02F0E0E053E2
:10126000F44D848582958F7090E00597880F991FC3
:10127000880F991F281739070CF4B5CFE0917F022A
:10128000F0E0E053F44D80E18587E0917F02F0E0EB
:10129000DF01A053B44D1D968C911D9782601D9661
:1012A0008C931D97FD0182E0848B84E0858B868B77
:1012B00084EC878B80E490E09093992B8093982B1B
:1012C00080E628C3D093B030C093AF301092A830DE
:1012D00080917F02E82FF0E0DF01A053B44D1D960E
:1012E0008C911D9782FF03C01DA280E2ABC21C96A9
:1012F0008C9182958F70880F880F80938102209146
:10130000982B3091992B28523040281B310930936B
:10131000992B2093982B8DA190E08F709070823044
:10132000910539F4E053F44D85858F73823149F48A
:101330002FC0019731F4E053F44D85858F738230CF
:1013400039F1232B59F4E0917F02F0E0E053F44DA2
:10135000858590E083709070892BD1F080917F0219
:10136000E82FF0E0E053F44D94818C89981761F4F4
:1013700095818D89981741F496818E89981721F46B
:1013800097818F89981721F0858581FD77CFAFC22E
:10139000E0917F02F0E0E053F44D858584FF52C078
:1013A0006C8D7D8D6115710509F44CC0CE01489698
:1013B0000E94660280917F02E82FF0E0E053F44D36
:1013C000208580919C2B2817E9F5918580919D2B94
:1013D0009817C1F5928580919E2B981799F5938562
:1013E00080919F2B981771F5288F80919D2B898F65
:1013F00080919E2B8A8F80919F2B8B8F8FA188232A
:10140000D1F42AA19CA18EA1981B822F8695869546
:101410008695981B392F320F3AA38BA1282F26953A
:101420002695821B97FD9195890F8BA3369536954E
:101430003695830F8CA381E08093A8308CA18EA376
:101440001D8E1C8E8DA1282F30E0C9018F709070E9
:101450008430910509F4FBC18530910564F4823034
:10146000910509F43DC0833091050CF0D5C001977A
:1014700009F0C5C210C08630910509F430C286302B
:1014800091050CF408C28730910509F430C2089721
:1014900009F0B5C2D1C18091A83080FF16C083E0A9
:1014A0008DA380E48093A8301D8E1C8E2091982BF4
:1014B0003091992B2115310509F43CC182E48093C8
:1014C000A830C9010E94EE0335C1E0917F02F0E02F
:1014D000E053F44D85858F73823009F090C2CECEF3
:1014E0008091A83080FF8DC080917F02E82FF0E0CE
:1014F000E053F44D85858F73823109F082C0848575
:1015000090E0807F9070813591050CF44EC0109270
:10151000810235C0F901E855F44D84AD809388020D
:10152000882309F442C0813021F44F5F4093810247
:1015300026C08230C1F485AD8430A9F436AD20E0F8
:1015400087AD90E0822B932B90938A02809389023F
:10155000F4E0853C9F0710F084EC94E09F8F8E8F21
:1015600099A388A322C080918102E82FF0E0EB517B
:10157000F44DE081EE23C9F0E80FE0938102409141
:101580008102242F30E0E0917F02F0E0E053F44D3F
:10159000848582958F7090E00597880F991F880F3A
:1015A000991F281739070CF4B5CF83E08DA3E0917C
:1015B0007F02F0E0E053F44D84818C8BE0917F0258
:1015C000F0E0E053F44D85818D8BE0917F02F0E0F7
:1015D000E053F44D86818E8BE0917F02F0E0E05382
:1015E000F44D87818F8B81E090E00E94EE0382E4CE
:1015F0008093A8301D8E1C8E1092992B1092982BE0
:1016000099C080E28093A8300E94180EE091AF301C
:10161000F091B03015A2E0CC80917F02E82FF0E08D
:10162000E053F44D858580FF25C024FD23C08C8DBB
:101630009D8D892B09F0E3C18091982B9091992B76
:1016400001960E94EE032091A830822F8061809342
:10165000A8308091982B9091992B892B19F02261B9
:101660002093A8300E94180E81E090E09D8F8C8F0F
:1016700088E082C085FF25C0328920E0838990E020
:10168000282B392B8091AD309091AE30820F931F73
:101690009093AE308093AD30E0917F02F0E0E05364
:1016A000F44D328920E0838990E0282B392B8091FA
:1016B000982B9091992B821B930B9093992B80934D
:1016C000982B2091982B3091992B2115310559F0A9
:1016D0008DA184FD08C08091A83082608093A830DD
:1016E000C9010E94EE03E0917F02F0E0E053F44D67
:1016F000968580E02785820F911D90938A028093C2
:10170000890228A139A12817390710F0892B21F463
:1017100030938A02209389028091890290918A02F3
:101720009F8F8E8F8091A83090E083709070892B6E
:1017300009F465C11092E4301092E3300E94180E53
:101740008091A830282F85FF0CC01092E4301092B1
:10175000E3301DA2E0917F02F0E0E053F44D84E11C
:10176000CCC084FF12C01092E4301092E33081E0CC
:1017700090E09D8F8C8F84E08DA31FA2E0917F026B
:10178000F0E0E053F44D81E1B8C08091E3309091F6
:10179000E430892B01F120FF02C01D8E1C8E8C8D40
:1017A0009D8D0097A1F42E8D3F8D8091E330909117
:1017B000E4302817390720F43093E4302093E330E5
:1017C0008091E3309091E4309D8F8C8F04C0909392
:1017D000E4308093E3301FA280919A2B90919B2B51
:1017E0009093AE308093AD308091E3309091E430AF
:1017F000892B81F08C8D9D8D009761F0CC96909314
:10180000992B8093982BE0917F02F0E0E053F44D08
:1018100088E110C08091A83081FFF1C08CE390E096
:101820009093992B8093982BE0917F02F0E0E05306
:10183000F44D80E1858768C08091A83080FFDFC0CB
:101840001DA280E18093A8300E94180ED8C080911C
:10185000982B9091992B009711F00E94EE03E09144
:101860007F02F0E0E053F44D85859091A83080FF31
:101870000BC090FF06C087E08DA31EA21D8E1C8E9C
:101880001DC086E08DA31AC090FF22C085E08DA305
:101890001D8E1C8EB4C08091982B9091992B00972F
:1018A00011F00E94EE03E0917F02F0E0E053F44D6E
:1018B000858580FF0DC087E08DA31EA281E090E0AA
:1018C0000E94EE0380E18093A8300E94180E0FC0A2
:1018D0008091982B9091992B892B49F490C08091FD
:1018E000A83080FF8CC087E08DA31EA288C0E09145
:1018F0007F02F0E0E053F44D80E185878CE390E0D7
:101900009093992B8093982BE0917F02F0E0E05325
:10191000F44D80E58487A0917F02B0E0A855B44DD6
:10192000FD01B8968C8980878D8981878E89828711
:101930008F898387888D8483898D85838A8D86832B
:101940008B8D878386E08093AE2B888999899996C1
:101950009C938E9398978A899B8993838283A0EC2A
:10196000BBE2FE0180E101900D928150E1F780EB36
:101970009BE260EC7BE20E94091C8DA1E0917F025A
:1019800084FF06C0F0E0E053F44D1786168607C0CA
:10199000F0E0E053F44D84E0868784EC8787809103
:1019A000E5318093AF2B8091982B9091992B88975C
:1019B0009093AC2B8091982B88528093AD2BE09123
:1019C0007F02F0E08F010053144DD80153961C9212
:1019D000539752961C92F801118A108A0E945D0357
:1019E00080959095E801998B888B80E68093A82B51
:1019F0001092A92B1092AB2B1092AA2B08C0109218
:101A0000992B1092982B10927F0210927E021092C6
:101A1000A830DF91CF911F910F91FF90EF90DF9051
:101A2000CF9008950F931F93CF93DF938C01209154
:101A3000820230918302C9E1D0E02F5F3F4F8DE7F2
:101A40002030380710F020E030E1522F432FA0E083
:101A500011C08A2F90E08C9FF0018D9FF00D9C9F0C
:101A6000F00D1124EB51FF4C80899189AF5F8417F1
:101A7000950719F3AA3069F7209382023093830205
:101A80001092810240E0A9E1B0E01CC0542F5F5FDA
:101A9000842F90E08A9FF0018B9FF00D9A9FF00DAC
:101AA0001124EB51FF4C80899189892B51F440938B
:101AB000810289E1489FD0011124AB51BF4C49F408
:101AC00027C0452F4A3010F340938102A0E0B0E0D8
:101AD0001FC050963C93509751962C935197539614
:101AE0007C936E9352970115110531F480E1ED015D
:101AF00019928A95E9F707C0ED01F80180E101909C
:101B000009928150E1F78091E53154968C93549776
:101B1000CD01DF91CF911F910F9108950E94542123
:101B20001092E2301092E1301092D63080E094E0D2
:101B3000909383028093820220E049E150E00EC03E
:101B4000822F90E0849FF001859FF00D949FF00D0F
:101B50001124EB51FF4C118A108A2F5F2A3080F339
:101B6000209381020895E0919E02F0919F023097A8
:101B700011F480E008950995089590939F02809351
:101B80009E020895FC018091070E9091080E91A786
:101B900080A773A762A70895FC018091070E90911A
:101BA000080E968B858B708F678B08959C018091B2
:101BB000DD309091DE30892B11F081E00895809125
:101BC000070E9091080E9093DE308093DD303093B5
:101BD000E0302093DF3080E008952091070E3091AF
:101BE000080E40919802509199024817590789F4BC
:101BF00080919A0290919B028217930751F4109260
:101C00008F021092990210929802CA010E94CA0390
:101C1000089581E080938F02089580E992E00E9408
:101C2000F400892B21F080E992E00E94450208959A
:101C3000CF93DF93E091AF30F091B030309719F04F
:101C4000EF01A89605C0C091AB30D091AC3065963D
:101C50008091A83086FF1BC010928D0220919802BF
:101C600030919902808991892817390759F4809118
:101C70009A0290919B02009729F0998388831B8296
:101C80001A8203C081E080938D020E940D0E88812C
:101C90009981009731F04A815B816091DF310E9428
:101CA000DA32DF91CF9108958FE491E062E040E075
:101CB00050E00E94DA321092992B1092982B1092D9
:101CC0007F020895DF93CF930F92CDB7DEB789835C
:101CD0008091DD309091DE30009739F06091E031F5
:101CE000AE014F5F5F4F0E94DA320F90CF91DF91CC
:101CF0000895AC018FE491E060E00E94B63208954F
:101D0000AC018FE491E061E00E94B63208950F9338
:101D10001F93CF93DF938091982B9091992B0097ED
:101D200009F41FC18150954008F00CC100EC1BE282
:101D30008091C02B9091C12B892B59F58091C22B9A
:101D40009091C32B892B29F58091C42B9091C52BA1
:101D5000892BF9F48091C62B9091C72B892BC9F45C
:101D60008091C82B9091C92B892B99F48091CA2B13
:101D70009091CB2B892B69F48091CC2B9091CD2B1A
:101D8000892B39F48091CE2B9091CF2B892B09F49C
:101D9000D9C08091C02B8F3F09F4D9C080EC9BE261
:101DA0000E94891D882379F480EC9BE20E94481DE3
:101DB000009731F40E94B31F8C01009721F4C2C038
:101DC0008C010D5E1F4FC8010E94951FEC0100970A
:101DD00009F051C0C80160E070E040E020E00E94DE
:101DE0001E228C01009709F4ADC0EC01AE96CE0125
:101DF00064EF71E00E946D1B892B99F0CE010E9467
:101E0000201B28EA3BE24091982B5091992BB90175
:101E10000E9415476091982B7091992BCE010E94DA
:101E20003C1B80EB9BE20E943B1FA8014F5F5F4F72
:101E3000892B19F080EB9BE202C080E090E060E02B
:101E400070E00E94D7166091EE317091EF31809171
:101E5000F0319091F13128EE33E040E050E00E9403
:101E6000564AC8018196BA01A9010E94DA3781E079
:101E7000F80183A76CC08DA58823E9F4AE96CE0146
:101E800064EF71E00E946D1B892B09F45BC0CE01E9
:101E90000E94201B28EA3BE24091982B5091992BFD
:101EA000B9010E9415476091982B7091992BCE0132
:101EB0000E943C1B47C0823059F483E08DA7CE01BD
:101EC000499645E050E060E070E00E94DA371BA6DA
:101ED0006091EE317091EF318091F0319091F1315C
:101EE00028EE33E040E050E00E94564ACE01819651
:101EF000BA01A9010E94DA378E010F5E1F4FC80197
:101F00000E94B30DAE96CE010E942C1B892BD1F0FE
:101F1000CE010E942C1B9093992B8093982BCE017D
:101F20000E94201BBC0128EA3BE24091982B509173
:101F3000992BC9010E941547CE010E94471BC80179
:101F40000E94B30D1092992B1092982B0AC080E03A
:101F500090E00E94B30D1092992B1092982B109242
:101F60007F02DF91CF911F910F910895DF92EF9241
:101F7000FF920F931F93CF93DF937C018A01FC01A3
:101F800080819181009729F08F50934009F0F9C02A
:101F900026C0109299021092980281E080938B02E1
:101FA0008091070E9091080E90939D0280939C0261
:101FB0000E945B318093DF310E945B318093E0317E
:101FC00080E992E06EE370E00E945B020E948E0D59
:101FD0008FE093E0F7019183808381E0D6C0623087
:101FE00009F4B1C0633030F4662309F48EC0613067
:101FF00079F79BC0673819F0683851F73CC01092E8
:102000008C02C8E9D2E013C08A819B8180179107B6
:1020100041F4888199810E94CA03198218821B8227
:102020001A82249680918C028F5F80938C0280911B
:102030008C02882349F3E6EDF0E3838194818017D5
:10204000910719F4148213821082BC96CF018597F0
:102050008D5D904390F3E5EEF0E308C085899689A5
:102060008017910711F4118A108A799681E3EF3D68
:10207000F807A1F7ADCFE2E040395E0759F5CA0194
:102080000E94F400892B31F110928C028CE2D82E40
:102090001DC08091D6308823A1F080E992E00E9493
:1020A000450280918C028D9DC00111248F549F4C5C
:1020B0009093B0308093AF3082E00E94A3040E94DE
:1020C000870E80918C028F5F80938C0280918C02AE
:1020D0008823F9F2F7E304331F0749F4C8010E948B
:1020E000F400892B21F00E94EE1F0E94870E23E34B
:1020F0000833120709F06CCFC8010E94F400892B45
:1021000009F466CF0E94C2221BC04115510509F493
:102110005FCF5093B0304093AF3083E00E94A30470
:102120000E94870E0E940D0E53CF4115510509F4F0
:102130004FCF5093AC304093AB3085E00E94A30466
:102140000E94870E45CF8091982B9091992B892BD7
:1021500009F43ECF8091AE2B863031F48091DD2B97
:1021600081FF02C00E940D0E81E00E94A3048091B5
:10217000982B9091992B892B09F42ACF0E94541106
:1021800027CFF7011182108283E0DF91CF911F9159
:102190000F91FF90EF90DF900895CF93DF93EA01C6
:1021A0000E94120DFC01009741F08091070E909162
:1021B000080E968B858BD08FC78BCF01DF91CF9187
:1021C00008950F931F93DF93CF93CDB7DEB760973A
:1021D0000FB6F894DEBF0FBECDBF8C01AB018FEF01
:1021E00092E09A8389831C821B821E821D8218863C
:1021F0001F821A8619861C861B861E861D8680E015
:1022000091E0988B8F87CE010196B8010E94CD1086
:10221000FC01009711F0118B008BCF0160960FB677
:10222000F894DEBF0FBECDBFCF91DF911F910F910C
:1022300008959C018091980290919902892B91F4C4
:1022400010928E0230939902209398028091070E8B
:102250009091080E90939B0280939A02C9010E946C
:10226000DC03089581E080938E0208950F931F93FD
:10227000CF93DF938A010E946503EC01009771F010
:102280008091070E9091080E99A788A71BA70AA70F
:102290008FE491E060E0AE010E94B632CE01DF91A2
:1022A000CF911F910F910895EF92FF920F931F937B
:1022B0008091AE2B863009F05DC08091982B909173
:1022C000992B8050954009F055C00EE912E010930B
:1022D000992B0093982B92E0E92EE092AC2B86E7A5
:1022E000F82EF092AD2B1092E12B1092E02B0E9471
:1022F0005D03809590959093E12B8093E02B0E9455
:10230000870E1093992B0093982BE092AC2BF092B0
:10231000AD2B2091AD303091AE30C901FC01DC0114
:10232000AE59BD4F82E692E00D9001920197E1F720
:1023300084ED9BE262E672E00E94660280919C2B33
:102340008093D42B80919D2B8093D52B80919E2BB5
:102350008093D62B80919F2B8093D72B1092E12BCB
:102360001092E02B0E945D03809590959093E12B55
:102370008093E02B0E94870E1F910F91FF90EF90AA
:102380000895EF92FF920F931F93CF93DF93F62E52
:10239000E42E890120E62093A82B1092A92B1092FD
:1023A000AB2B1092AA2B2AE32093AE2B2091E53180
:1023B0002093AF2B0C5F1F4F212F332727FD3A951A
:1023C000045010402093AC2B202F2C5F2093AD2B7A
:1023D000A0ECBBE2FC0180E101900D928150E1F79D
:1023E00080EB9BE260EC7BE20E94091C80917F0203
:1023F000C82FD0E0C053D44DF882E9821B821A82E4
:102400000E945903809590959B838A83045D1F4F9A
:102410001093992B0093982B0E94870EDF91CF91F8
:102420001F910F91FF90EF90089528EA3BE2809171
:10243000E5318093AF2B8091C02B8F3F81F4D90180
:102440005896F901389680E101900D928150E1F79C
:1024500080EB9BE260EC7BE20E94091C1BC0A0EABF
:10246000B2E0F901389680E101900D928150E1F7D8
:10247000E0EBFBE2DF01509680E10D90019281508C
:10248000E1F7A0ECBBE2E0EAF2E080E101900D921E
:102490008150E1F760917F02662301F18AE3809326
:1024A000AE2B70E04091982B5091992B461B570B07
:1024B0005093992B4093982B485250405093AC2BFB
:1024C000485D5F4F842F88528093AD2B6C52744DC2
:1024D0004C52504084ED9BE20E941E4710927F02B6
:1024E00081E88093D02B1092D12B1092D32B109295
:1024F000D22B0E945903809590959093D32B809373
:10250000D22B0895CF92DF92EF92FF920F931F93F9
:10251000CF93DF93D82EC62E79018A0110927F02C5
:102520008091AE2B8A3321F48091D02B87FF81C01C
:10253000A0EAB2E0E0ECFBE280E101900D92815074
:10254000E1F78091982B9091992BC0969093992BBD
:102550008093982B8150954030F080E095E09093E7
:10256000992B8093982B4091982B5091992B405305
:10257000504088ED9BE268EA7BE20E941E4780E6BD
:102580008093A82B1092A92B1092AB2B1092AA2B00
:102590008AE38093AE2B8091E5318093AF2B8091BD
:1025A000B02B9091B12B892B51F58091B22B90914A
:1025B000B32B892B21F58091B42B9091B52B892BCE
:1025C000F1F48091B62B9091B72B892BC1F48091B7
:1025D000B82B9091B92B892B91F48091BA2B9091C3
:1025E000BB2B892B61F48091BC2B9091BD2B892B47
:1025F00031F48091BE2B9091BF2B892BD1F0E0EC70
:10260000FBE2DF01509780E10D9001928150E1F7EC
:102610008091A0028F3F91F484E0D81651F422E01B
:10262000C21639F480EB9BE260EA72E00E94091C5A
:102630000EC01092992B1092982B35C0A0EBBBE2E4
:10264000E0EAF2E080E101900D928150E1F7E09143
:102650007F02CE2FD0E0FE01E053F44DD082C18244
:10266000C801B7010E940B04CC52D44D6883798312
:102670008A839B838091982B9091992B8897909334
:10268000AC2B889688528093AD2B80917F02C82F07
:10269000D0E0C053D44D1B821A820E94590380950A
:1026A00090959B838A83DF91CF911F910F91FF902B
:1026B000EF90DF90CF900895DF92EF92FF920F930B
:1026C0001F93CF93DF938091AF2B8F3F09F0B2C25E
:1026D0008091B02B8E3F09F0ADC28091B12B803834
:1026E00009F0A8C280917F02A82FB0E0FD01E0535D
:1026F000F44D8181882309F09DC2A855B44D9C9664
:102700008C91882311F08093E531E0917F02F0E015
:10271000EC52F44D64817581868197816115710554
:102720008105910561F1E090E631F090E73100918B
:10273000E8311091E9310E940B04E616F70608070C
:102740001907E9F0E0917F02F0E0EC52F44D64816A
:102750007581868197810E940B046093E6317093A6
:10276000E7318093E8319093E9310E94A11C609396
:10277000EA317093EB318093EC319093ED31E0913D
:102780007F02F0E0EC52F44D60857185828593857F
:10279000611571058105910551F00E940B0460934C
:1027A000EE317093EF318093F0319093F1318CE002
:1027B0008093B00282E0D82EB6C1F901E855F44DFD
:1027C0008181882309F436C28081833009F45FC097
:1027D000853009F44DC0813009F095C1F093B20203
:1027E000E093B10280EB9BE20E94951FFC01909365
:1027F000C8028093C702009789F46091B10270917A
:10280000B2026E5F7F4F80EB9BE241E022E00E94CC
:102810001E229093C8028093C70275C185A58823A4
:1028200009F4D5A6C091B102D091B20222960091CE
:10283000C7021091C8020F5E1F4FCE01B80148E0D9
:1028400050E00E940847009761F0D801FE0188E03F
:1028500001900D928150E1F7E091C702F091C8021A
:10286000D5A6E091C702F091C80281E084A74BC1D0
:1028700064817581868197810E940B046093E131A8
:102880007093E2318093E3319093E4313CC1F09353
:10289000B402E093B30264817581868197810E94BE
:1028A0000B047B018C01E091B302F091B4026085CE
:1028B0007185828593850E940B04E616F70608074A
:1028C000190708F420C1E091B302F091B4028089A5
:1028D0008E3F21F48189803809F415C1838187FFF7
:1028E0005FC0CF01409662810E94591FEC01909316
:1028F000C6028093C502E091B302F091B402009742
:1029000049F564817581868197816115710581051D
:10291000910509F445C0EF0160966F3F2FEF7207F4
:102920002FEF82072FEF920741F012810E940B04D4
:102930009B01AC01CE01612F06C0CE01628120E077
:1029400030E040E050E00E94A1209093C6028093C6
:10295000C50226C0648175818681978161157105E4
:102960008105910549F06F3F3FEF73073FEF830704
:102970003FEF930741F404C0CE010E94971B10C0A3
:1029800081E08A8F0DC00E940B04AB01BC01CE0117
:1029900042960E94DA37E091C502F091C602128E8B
:1029A000E091B302F091B402838186FFACC08481D0
:1029B0009581A681B7810097A105B10509F4A3C04F
:1029C0008281803409F09FC0A5EBB2E0709680E16F
:1029D00001900D928150E1F785EB92E060EA7BE295
:1029E0000E94081D85EB92E00E943B1FDC01909342
:1029F000CC028093CB02009709F45EC052962C91D2
:102A00005297213009F058C0E091B302F091B4021E
:102A100064817581868197816F3F3FEF73073FEF38
:102A200083073FEF930709F444C00E940B046152EF
:102A30007C4180409040C0F4E091B302F091B40238
:102A400064817581868197810E940B047B018C01D2
:102A50008091CB029091CC0244960E947E376E15F5
:102A60007F0580079107A0F40091CB021091CC0262
:102A70000C5E1F4FE091B302F091B4026481758146
:102A8000868197810E940B04AB01BC01C80109C07B
:102A90008091CB029091CC02449640E25CE160E0F0
:102AA00070E00E94DA37E091CB02F091CC02138AF9
:102AB0002AC053962C9327C0E091B302F091B40240
:102AC00064817581868197810E940B046F5F7F4FBF
:102AD0008F4F9F4F39F485EB92E040E050E060E08B
:102AE00070E00EC0E091B302F091B4026481758190
:102AF000868197810E940B04AB01BC0185EB92E0BB
:102B000021E00E9409208091B002E0917F02F0E074
:102B1000E855F44DE80FF11D95A5990F990F990F00
:102B2000980F9093B00290917F028091B002282F6D
:102B300030E0290F311D245D3F4F8091982B9091FB
:102B4000992B2817390708F438CE80EB9BE20E94B6
:102B5000771F9C019093CA028093C902E0917F0283
:102B6000F0E0EC52F44D82819381892B71F1E09178
:102B7000C702F091C802309711F081E084A7C0919C
:102B8000C902D091CA02E0917F02209779F4F0E067
:102B9000EC52F44D828193810E940704AC0160E005
:102BA00070E080EB9BE20E94F72015C0F0E0EC5251
:102BB000F44D828193810E940704AC0160E070E0D3
:102BC000CE0141960E94DA3706C02115310519F071
:102BD000C9010E94921B8091C7029091C802009780
:102BE00049F18E960E942C1B892B21F18091C702FE
:102BF0009091C8028E960E942C1B9093992B8093E3
:102C0000982B8091C7029091C8028E960E94201B3B
:102C1000BC0128EA3BE24091982B5091992BC901C5
:102C20000E9415478091C7029091C8028E960E941B
:102C3000471B04C01092992B1092982BDF91CF91D3
:102C40001F910F91FF90EF90DF900895CF93DF9346
:102C5000FC01608382E08183EF012296A0EABBE25F
:102C600088E00D9009928150E1F7CF010A96FC01AE
:102C700086E0DF011D928A95E9F7DF91CF910895F3
:102C8000CF93DF9388EA9BE220E62093A82B109253
:102C9000A92B1092AB2B1092AA2B2AE32093AE2BD8
:102CA0002FEF2093AF2BFC0178962FEF32E030937B
:102CB000C12B2093C02B138212821582148217829B
:102CC000168211861086138612861586148620E0D9
:102CD00032E0378726870896BF010E94091C409181
:102CE0007F02242F30E0F901E053F44D85E8808322
:102CF00011821092AC2B8091B02B9091B12B892B2B
:102D0000A1F58091B22B9091B32B892B71F5809115
:102D1000B42B9091B52B892B41F58091B62B9091D6
:102D2000B72B892B11F58091B82B9091B92B892B5A
:102D3000E1F48091BA2B9091BB2B892BB1F4809157
:102D4000BC2B9091BD2B892B81F48091BE2B90914F
:102D5000BF2B892B51F488E08093AD2B205D3F4F32
:102D60003093992B2093982B11C0842F90E0805C96
:102D70009F4F9093992B8093982B88E18093AD2B54
:102D8000C9018852944D61E00E94261680917F020D
:102D9000C82FD0E0C053D44D1B821A820E94590321
:102DA000809590959B838A83DF91CF9108950F93AF
:102DB0001F93CF93DF938C01EA0110927F0280E68C
:102DC0008093A82B1092A92B1092AB2B1092AA2BB8
:102DD0008AE38093AE2B9FEF9093AF2BE0ECFBE266
:102DE00061157105B9F49093C02B82E08183138241
:102DF000128215821482178216821186108612861C
:102E000081E0838794878D8585878E859F859787C9
:102E1000868707C0DF01FB0180E101900D928150A0
:102E2000E1F787E88093D02B1092D12B1092D42B0E
:102E30001092D52B1092D62B1092D72BA8EDBBE277
:102E4000FE0180E101900D928150E1F71092AC2BD0
:102E5000CE010E943B1F892B01F50115110549F098
:102E6000A0EBBBE2F80180E101900D928150E1F707
:102E700006C080EB9BE260EC7BE20E94091C88E2CA
:102E80008093AD2B80917F0290E08851944D61E05A
:102E90000E94261680E590E025C01092B12B10927A
:102EA000B02B1092B32B1092B22B1092B52B109224
:102EB000B42B1092B72B1092B62B1092B92B109204
:102EC000B82B1092BB2B1092BA2B1092BD2B1092E4
:102ED000BC2B1092BF2B1092BE2B88E18093AD2BA0
:102EE00080E490E09093992B8093982B80917F02BF
:102EF000C82FD0E0C053D44D1B821A820E945903C0
:102F0000809590959B838A83DF91CF911F910F913C
:102F10000895DF92EF92FF920F931F93CF93DF9369
:102F200090917F02E92FF0E0DF01AC52B44DFC90AC
:102F30008091AF2B8F3F09F046C1E053F44D818162
:102F4000882309F040C114968C9114978F3F09F49F
:102F50003AC120E4D22EDF20F6FE05C08091C02BBE
:102F60008F3F09F430C184E18093B0021092B20225
:102F70001092B102C091982BD091992B40E050E073
:102F800064E1292F30E0245D3F4F0FC0FC01E8557C
:102F9000F44D9181992309F410C18081823009F4A4
:102FA000AF01990F990F990F690FC901860F911DF4
:102FB0008C179D0758F35093B2024093B10260936F
:102FC000B002CD0104960E943B1FFC019093CC02FD
:102FD0008093CB02009741F08189882309F0F3C0E8
:102FE000CF010E94FA1EEFC080917F0290E08852CC
:102FF000944D0E94951F8C019093C8028093C70244
:10300000009709F4E0C0C091B102D091B2022097BC
:1030100011F420E00AC0BC016F5E7F4FCE01029622
:1030200048E050E00E940847282F90E8E92EEF2062
:10303000F80185A58823A9F5209709F4C4C0D80113
:103040005196FE01329688E001900D928150E1F791
:10305000E091C702F091C802DD2001F181E085A76F
:10306000E091C702F091C80213A60091C702109127
:10307000C8026091EA317091EB318091EC3190910E
:10308000ED3128EE33E040E050E00E94564AC8019E
:103090004996BA01A9010E94DA375DC082E085A78E
:1030A0005AC0F5FC09C0222339F0813009F08BC0E9
:1030B00082E0F80185A787C0209749F0D801519692
:1030C000FE01329688E001900D928150E1F7DD20FB
:1030D000F9F0E091C702F091C80281E085A7009164
:1030E000C7021091C8026091EA317091EB31809172
:1030F000EC319091ED3128EE33E040E050E00E9459
:10310000564AC8014996BA01A9010E94DA370EC091
:103110008091B1029091B202892B41F0222331F0CB
:10312000E091C702F091C80282E085A7E091C70252
:10313000F091C80284A5882371F0EE2061F480EB41
:103140009BE20E94771F9093CA028093C902009766
:1031500011F00E94921BE091C702F091C802E4A610
:103160008091C7029091C8028E960E942C1B892BD9
:1031700051F18091C7029091C8028E960E942C1B3B
:103180009093992B8093982B8091C7029091C802BD
:103190008E960E94201BBC0128EA3BE24091982BAE
:1031A0005091992BC9010E9415478091C7029091B7
:1031B000C8028E960E94471B0AC05093B2024093E9
:1031C000B1026093B0021092992B1092982BDF916C
:1031D000CF911F910F91FF90EF90DF900895DF92B4
:1031E000EF92FF920F931F93CF93DF938091AF2BBA
:1031F0008F3F09F015C280917F02E82FF0E0E8557B
:10320000F44D80A98F3F09F40BC281A5882309F0F2
:1032100007C21092B2021092B10284E18093B00210
:1032200042E0D42E89C0F901E855F44D818188230C
:1032300009F4F6C18081813009F06EC0F093B202CA
:10324000E093B1028091B02B9091B12B892B59F56D
:103250008091B22B9091B32B892B29F58091B42BBF
:103260009091B52B892BF9F48091B62B9091B72BC7
:10327000892BC9F48091B82B9091B92B892B99F4A3
:103280008091BA2B9091BB2B892B69F48091BC2B38
:103290009091BD2B892B39F48091BE2B9091BF2B3F
:1032A000892B09F4BDC180EB9BE20E94951FEC01C4
:1032B0009093C8028093C7026091B1027091B202EC
:1032C000009749F46E5F7F4F80EB9BE240E022E085
:1032D0000E941E2221C032E0E32EF12CE60EF71EE2
:1032E0008C010F5E1F4FC701B80148E050E00E94FB
:1032F0000847009769F0D801F70188E001900D9226
:103300008150E1F7E091C702F091C802D5A604C050
:103310008DA5882309F4DDA68091B002E0917F029B
:10332000F0E0E855F44DE80FF11D95A5990F990FC0
:10333000990F980F9093B00280917F02482F50E030
:103340008091B0029A01280F311D245D3F4F80917A
:10335000982B9091992B2817390708F464CFCA014C
:103360008852944D0E943B1FFC019093CC028093A5
:10337000CB02009709F454C18091B02B9091B12BEE
:10338000892B09F099C08091B22B9091B32B892B96
:1033900009F092C08091B42B9091B52B892B09F044
:1033A0008BC08091B62B9091B72B892B09F084C0EC
:1033B0008091B82B9091B92B892B09F07DC0809119
:1033C000BA2B9091BB2B892B09F076C08091BC2B36
:1033D0009091BD2B892B09F06FC08091BE2B9091ED
:1033E000BF2B892B09F068C08091C02B8F3F09F05B
:1033F00017C18091C12B823009F012C18091C22B7C
:103400009091C32B892B09F00BC18091C42B909113
:10341000C52B892B09F004C18091C62B9091C72B35
:10342000892B09F0FDC08091C82B9091C92B892B65
:1034300009F0F6C08091CA2B882309F0F1C0809171
:10344000CB2B813009F0ECC08091CC2B8F3F09F061
:10345000E7C08189882361F18FEF92E09093C12BBF
:103460008093C02B1092C32B1092C22B1092C52BAD
:103470001092C42B1092C72B1092C62B1092C92BFE
:103480001092C82B1092CB2B1092CA2B1092CD2BDE
:103490001092CC2B80E091E09093CF2B8093CE2B99
:1034A00080EB9BE260EC7BE20E94091C90E272C020
:1034B000CF010E94FA1EB4C080EB9BE20E943B1F2A
:1034C000892B09F0ADC08091C02B8F3F09F03FC020
:1034D0008091C12B8230D9F58091C22B9091C32B62
:1034E000892BA9F58091C42B9091C52B892B79F557
:1034F0008091C62B9091C72B892B49F58091C82BC1
:103500009091C92B892B19F58091CA2B8823F9F446
:103510008091CB2B8130D9F48091CC2B8F3FB9F4A3
:10352000E0ECFBE2DF01509780E10D9001928150C9
:10353000E1F780917F02E82FF0E0A0EBBBE2E852D8
:10354000F44D80E101900D928150E1F722C080ECB2
:103550009BE20E943B1F2091CB023091CC022817A6
:10356000390709F05DC0E0ECFBE2DF01509780E134
:103570000D9001928150E1F780917F02E82FF0E0F9
:10358000A0EBBBE2E852F44D80E101900D92815036
:10359000E1F790E610927F0280E68093A82B1092CC
:1035A000A92B1092AB2B1092AA2B1092AC2B88E275
:1035B0008093AD2B8AE38093AE2B8FEF8093AF2B5C
:1035C00088E88093D02B1092D12B9093D42BE0914C
:1035D000CB02F091CC02A8EDBBE2319680E10190E4
:1035E0000D928150E1F780917F0290E08851944DD7
:1035F00062E00E94261680917F02C82FD0E0C0535F
:10360000D44D1B821A820E945903809590959B830A
:103610008A8380E590E09093992B8093982B04C047
:103620001092992B1092982BDF91CF911F910F91AF
:10363000FF90EF90DF900895FC01118210820895B1
:10364000FC0180819181009719F4E0E0F0E002C074
:10365000FC013296CF010895FC010190F081E02D2C
:10366000309719F4E0E0F0E005C0EE5FFA4F01900A
:10367000F081E02DCF010895FC010190F081E02D53
:10368000309721F0EE5FFA4F718360830895CF93F6
:10369000DF93EC0188819981009761F08C5F9A4FEC
:1036A0000E946E366881798189E591E00E947633C7
:1036B00019821882DF91CF9108950F931F938C0187
:1036C000FC016081718189E591E00E947633F80107
:1036D000118210821F910F9108950F931F93CF9322
:1036E000DF93EC018B0188819981892B19F020E00F
:1036F00030E012C089E591E00E94483399838883C5
:10370000009741F08C5F9A4FB8014DE55BE19E0157
:103710000E94B03628813981C901DF91CF911F9174
:103720000F910895FC01009709F010820895FC01A3
:10373000009709F010820895682F83EF91E390932A
:103740000F0D80930E0DFC01462F552747FD509518
:1037500016C08081882391F06F3F29F0818990E025
:103760008417950759F481818E3F41F48281803816
:1037700029F4F0930F0DE0930E0D0CC0B1969F014C
:1037800082E3E737F80728F3F0930F0DE0930E0D6F
:1037900020E030E0C9010895682F83EF91E3909312
:1037A0000F0D80930E0DFC01462F552747FD5095B8
:1037B00016C08081882391F06F3F29F0818990E0C5
:1037C0008417950759F481818E3F19F482818038DE
:1037D00029F0F0930F0DE0930E0D0CC0B1969F01F0
:1037E00082E3E737F80728F3F0930F0DE0930E0D0F
:1037F00020E030E0C9010895FC01009709F0108233
:103800000895FC01009709F010820895FC011082D0
:103810000895FF920F931F93CF93DF938C01FB01C9
:1038200080818E3F21F48181803821F444C08F3F14
:1038300009F441C083EF91E390930F0D80930E0D37
:10384000FF2440E050E02EC08081882331F181893F
:10385000813019F581818E3F19F482818038E9F039
:10386000EB01DF0180E0388111962C91119732171E
:1038700031F4885F219611968038A9F70AC0232772
:10388000982F985F27FD05C08F5F891711F0220FD1
:10389000F9CF8F1510F0F82EAF01B196F0930F0D00
:1038A000E0930E0DE0910E0DF0910F0D82E3E737DE
:1038B000F80750F204C081E00E949C1BAC01411546
:1038C000510591F4F801118210821382128215823F
:1038D0001482178216821186108613861286158628
:1038E00014861786168608C0D801FA01319680E141
:1038F00001900D928150E1F7DF91CF911F910F91CF
:10390000FF90089540E020E030E0FC01E20FF31F5B
:103910005081FB01E20FF31FE0815E1731F4485F35
:103920002F5F3F4F403889F70AC0E527842F885F13
:10393000E7FD05C04F5F481711F0EE0FF9CF842F58
:103940000895DF92EF92FF920F931F930E94EC373E
:10395000D82E0E94EC37E090E631F090E7310091EC
:10396000E8311091E9313D2D20E0280F391F40E06A
:1039700050E0CA01B901A80197010E94564A9B0173
:10398000AC0116950795F794E7942E0D3F1D401F47
:10399000511FB901CA011F910F91FF90EF90DF9065
:1039A0000895CF93DF93EC0198A18091F23198179D
:1039B00050F5AE014F5F5F4F80E090E060E070E057
:1039C0000E94D71688A18F5F88A36091EE31709115
:1039D000EF318091F0319091F13128EE33E040E009
:1039E00050E00E94564ACA01B9012DE730E040E09C
:1039F00050E00E94234A9B01AC01CE014C96B901D4
:103A00000E94A63402C081E0898BDF91CF91089596
:103A1000CF93DF93DC01EC012896FB0188E0019055
:103A200009928150E1F718968C91189792E08927B6
:103A300018968C93DF91CF9108950F931F93CF9396
:103A4000DF938C018CE397E390931B0D80931A0D09
:103A500012C08881882351F0CE014396B80140E11D
:103A600050E00E940847009709F41882AE96D09360
:103A70001B0DC0931A0DC0911A0DD0911B0D8AE336
:103A8000C43DD80730F3DF91CF911F910F91089576
:103A9000CF92DF92EF92FF920F931F93CF93DF931A
:103AA0006C018CE397E390931B0D80931A0D00E05B
:103AB00010E0EE241CC08881882391F0F988FE1460
:103AC00078F0BE016F5F7F4F4F2D46954695469526
:103AD000C60150E00E940847009711F48E0101C012
:103AE000FE2CAE96D0931B0DC0931A0DEF2CC091F7
:103AF0001A0DD0911B0D8AE3C43DD807E0F2C8012E
:103B0000DF91CF911F910F91FF90EF90DF90CF90B9
:103B100008950F931F93CF93DF938C018CEC92E366
:103B20009093150D8093140D16C08881882371F031
:103B30004989469546954695CE010196B80150E0D3
:103B40000E940847009711F481E00EC06B96D09355
:103B5000150DC093140DC091140DD091150D83E374
:103B6000C833D80710F380E0DF91CF911F910F91F8
:103B700008958F929F92AF92BF92DF92EF92FF9241
:103B80000F931F93CF93DF935A014901D02EF70172
:103B90001182108270E0469F8001479F100D569F52
:103BA000100D1124080F191FD694D694D694EC0149
:103BB00016C08881882371F0CE010196B4014D2D85
:103BC00050E00E940847009741F4F701D183C08379
:103BD00080E010C0F701D183C083CA0DDB1DC01780
:103BE000D10738F3F70180819181892B11F482E0AC
:103BF00001C081E0DF91CF911F910F91FF90EF9075
:103C0000DF90BF90AF909F908F9008959F92AF925A
:103C1000BF92CF92DF92EF92FF920F931F93CF93B9
:103C2000DF93182FD92EC62EB42EA52E922E8CE3FC
:103C300097E364E14EE250E0212F3D2D0C2D7AE117
:103C4000E72E7DE0F72E0E94B91D8130E1F4C0918E
:103C50001A0DD0911B0DFE018193812F9D2D9C018A
:103C6000D90180E10D9001928150E1F7C98ADE010E
:103C700053968B2D9A2D9C01F90180E101900D92B4
:103C80008150E1F79A8A80911A0D90911B0DDF9176
:103C9000CF911F910F91FF90EF90DF90CF90BF9049
:103CA000AF909F900895EF92FF920F939C0187E74A
:103CB00092E360E041E150E000E8E2E1EE2EEDE069
:103CC000FE2E0E94B91D882319F020E030E004C0C8
:103CD0002091120D3091130DC9010F91FF90EF90BB
:103CE0000895DF92EF92FF920F931F93182FD92E12
:103CF00087E792E360E041E150E0212F3D2D00E8AD
:103D0000F2E1EF2EFDE0FF2E0E94B91D813019F087
:103D100040E050E00FC04091120D5091130DFA0198
:103D20008193812F9D2D9C01D90180E10D900192FD
:103D30008150E1F7CA011F910F91FF90EF90DF9042
:103D40000895EF92FF920F939C0187E792E365E05D
:103D500041E150E000E8A0E1EA2EADE0FA2E0E9439
:103D6000B91D882319F020E030E004C02091100D27
:103D70003091110DC9010F91FF90EF900895CF93ED
:103D8000DF93EC01009799F19FEF9093FC0C82E098
:103D90008093FD0C1092FF0C1092FE0C1092010DFE
:103DA0001092000D1092030D1092020D1092050D4D
:103DB0001092040D1092060D81E08093070D9093F0
:103DC000080D8E858093090D8F85988990930B0D32
:103DD00080930A0D8CEF9CE00E94A11EFC01909341
:103DE000110D8093100D009709F010821882DF9159
:103DF000CF910895FC0181818E3F31F4828180381A
:103E000019F420E030E005C0CF010E94BF1E21E080
:103E100030E0C9010895DF92EF92FF920F931F9354
:103E2000182FD92E87E792E365E041E150E0212F7A
:103E30003D2D00E8B0E1EB2EBDE0FB2E0E94B91D48
:103E4000813019F040E050E00FC04091100D5091CA
:103E5000110DFA018193812F9D2D9C01D90180E1E3
:103E60000D9001928150E1F7CA011F910F91FF90CF
:103E7000EF90DF900895EF92FF920F939C0183EFF4
:103E800091E364E041E250E000E87EE0E72E7DE06F
:103E9000F72E0E94B91D882319F020E030E004C0FD
:103EA00020910E0D30910F0DC9010F91FF90EF90F1
:103EB0000895EF92FF920F939C01062F8CEC92E3F2
:103EC00064E04BE150E0E4E1EE2EEDE0FE2E0E94D6
:103ED000B91D882319F020E030E004C02091140DB2
:103EE0003091150DC9010F91FF90EF900895EF9259
:103EF000FF920F939C0180E493E362E04AE150E07B
:103F000000E8F8E1EF2EFDE0FF2E0E94B91D8823A6
:103F100019F020E030E004C02091180D3091190D07
:103F2000C9010F91FF90EF900895EF92FF920F93C8
:103F30009C0184E793E364E140E350E000E8A6E1FC
:103F4000EA2EADE0FA2E0E94B91D882319F020E078
:103F500030E004C02091160D3091170DC9010F916A
:103F6000FF90EF90089510920D0D10920C0D80E4CB
:103F700093E322C080818823D1F0CF0101960E9473
:103F8000951FFC01009751F085A5882339F02091F9
:103F9000180D3091190D2F5F3F4F1EC08091180DE5
:103FA0009091190D019690930D0D80930C0D8091B9
:103FB000180D9091190D4A969093190D8093180D34
:103FC000E091180DF091190D83E3E437F80790F2B2
:103FD00020910C0D30910D0DC90108950E94B31F61
:103FE000892B91F48091FB0C833070F40E94401671
:103FF0008091FB0C8F5F8093FB0C84E397E364EF6D
:1040000071E00E945B02089584E397E30E945901E6
:1040100008958F929F92AF92BF92CF92DF92EF92CC
:10402000FF920F931F93CF93DF934C015A016B01C3
:10403000122F83EF91E364E041E250E0940100E845
:10404000BEE0EB2EBDE0FB2E0E94B91D813019F0C1
:1040500020E030E068C0A0910E0DB0910F0DFD0181
:104060008193E40180E1099001928150E1F751963A
:104070001C92519752961C935297A114B104C104FB
:10408000D10421F481E053968C9309C053961C927D
:104090005397CD014496B601A5010E94DA370091ED
:1040A0000E0D10910F0D045E1F4F0E94EC376DE74F
:1040B00070E00E94424ABC01C8010E94A634E0910F
:1040C0000E0DF0910F0D10A29FEF9093FC0C82E06B
:1040D0008093FD0C1092FF0C1092FE0C1092010DBB
:1040E0001092000D1092030D1092020D1092050D0A
:1040F0001092040D1092060D81E08093070D9093AD
:10410000080DF40185858093090D86859785909328
:104110000B0D80930A0D8CEF9CE00E940B1F2091E9
:104120000E0D30910F0DC901DF91CF911F910F91AD
:10413000FF90EF90DF90CF90BF90AF909F908F90C7
:1041400008958F929F92AF92BF92CF92DF92EF929B
:10415000FF920F931F93CF93DF93182F992E862EE4
:1041600059016A018CEC92E364E04BE150E0212FAD
:10417000392D082D74E1E72E7DE0F72E0E94B91D40
:10418000813031F5A091140DB091150DFD01819391
:10419000812F992D9C01E90180E1099001928150C4
:1041A000E1F751968C925197A114B104C104D10446
:1041B00061F0CD014296B601A5010E94DA37E09187
:1041C000140DF091150D128E03C081E05A968C9358
:1041D00080E090E0DF91CF911F910F91FF90EF90E1
:1041E000DF90CF90BF90AF909F908F9008959F9257
:1041F000AF92BF92CF92DF92EF92FF920F931F93F5
:10420000CF93DF93182F992E5A016B0180E493E32B
:1042100062E04AE150E0212F392D00E8E8E1EE2E7E
:10422000EDE0FE2E0E94B91D813019F020E030E053
:1042300026C0C091180DD091190DFE018193812FD8
:10424000992D9C01D90180E10D9001928150E1F7F7
:10425000A114B104C104D10461F0CE014196B601AC
:10426000A5010E94DA37E091180DF091190D118E19
:1042700002C081E0898F2091180D3091190DC9017C
:10428000DF91CF911F910F91FF90EF90DF90CF9032
:10429000BF90AF909F900895FC01009721F010828D
:1042A0008E960E94471B089580EC93E0E4E7F3E3C9
:1042B000DF019C011D9221503040E1F784E3E0E4EE
:1042C000F3E3DF011D928A95E9F78CE6ECECF2E36B
:1042D000DF011D928A95E9F78BEEE1EEF1E3DF0154
:1042E0001D928A95E9F788E993E0ECE3F7E3DF01B3
:1042F0009C011D9221503040E1F780E095E0A0E064
:10430000B0E08093E1319093E231A093E331B09338
:10431000E43180E48093E53180E395E7A0E0B0E00C
:104320008093E6319093E731A093E831B093E9317F
:104330000E94A11C6093EA317093EB318093EC31C1
:104340009093ED3188EE93E0A0E0B0E08093EE3101
:104350009093EF31A093F031B093F13181E08093ED
:10436000F2318EEF90E89093FD0C8093FC0C10924C
:10437000FF0C1092FE0C1092010D1092000D109285
:10438000030D1092020D8CEF9CE060E420E030E021
:1043900040E050E00E94A120A4E0BDE0E0EAFBE2A2
:1043A00088E001900D928150E1F78091040D92E038
:1043B00089278093040D8CEF9CE040E050E060E0A2
:1043C00070E021E00E9409208FEF92E09093FD0CB5
:1043D0008093FC0C1092FF0C1092FE0C1092010DB9
:1043E0001092000D1092030D1092020D1092050D07
:1043F0001092040D1092070D1092060D1092090DE7
:104400001092080D80E091E090930B0D80930A0DBF
:104410008CEF9CE00E940B1F0E94EC376DE770E070
:104420000E94424ABC0184E397E30E945B0288E356
:1044300093E36CE070E00E945B020895BF92CF921C
:10444000DF92EF92FF920F931F93CF93DF93182F7A
:10445000D92EEB01C42EB22E84E793E364E140E34E
:1044600050E0212F3D2D00E8F6E1EF2EFDE0FF2E7C
:104470000E94B91D90E08130910509F054C040912F
:10448000160D5091170DDA0181E08D93212F3D2DEE
:10449000C901FC0180E101900D928150E1F7CA0150
:1044A0004196209741F0FC01DE0188E00D900192D9
:1044B0008150E1F706C0FC0188E0DF011D928A957A
:1044C000E9F7E091160DF091170DC4A6B5A6CF013E
:1044D0008E960E941C1B8091160D9091170D499687
:1044E00040E050E060E070E00E94DA378091160D05
:1044F0009091170D819640E050E060E070E00E94DE
:10450000DA370091160D1091170DF80113A60E94CD
:104510004A27D8019A969C938E9399972091160DCD
:104520003091170D24C0029701F50E944A27AC0173
:10453000E4E7F3E360E070E00DC08081882339F0A8
:1045400021A532A52417350710F4BF0101C09A0137
:10455000F096A901B7E3E433FB0779F7611571051C
:1045600021F0CB010E944C2177CF20E030E0C9013F
:10457000DF91CF911F910F91FF90EF90DF90CF903F
:10458000BF900895DF92EF92FF920F931F9383EFF6
:1045900091E330C08081882341F18389882369F4C5
:1045A000CF0144960E94A437892B39F080910E0DDB
:1045B00090910F0D0E94BF1E18C0E0910E0DF0915A
:1045C0000F0D8189882389F490A18091F231891798
:1045D00060F0CF014C960E948334892B31F080919A
:1045E0000E0D90910F0D0E94D11C80910E0D909197
:1045F0000F0D819690930F0D80930E0DE0910E0D8F
:10460000F0910F0D82E3E737F80720F280E493E39F
:1046100018C08081882381F0818D882369F4CF01BF
:1046200041960E94A437892B39F0E091180DF09142
:10463000190D309709F010828091180D9091190D85
:104640004A969093190D8093180DE091180DF091F2
:10465000190D83E3E437F807E0F28CEC92E318C01D
:104660008081882381F0828D882369F4CF0142966E
:104670000E94A437892B39F0E091140DF091150DAB
:10468000309709F010828091140D9091150D4B9682
:104690009093150D8093140DE091140DF091150D6C
:1046A00083E3E833F807E0F284E793E39093170D90
:1046B0008093160DB2E0EB2EA4E0DA2EFF24F394E3
:1046C0008EC08081882309F481C085A5813009F1DD
:1046D000813030F0833051F1843009F077C034C03C
:1046E00083A5833010F0CF0142C0CF0181960E9494
:1046F000A437892B09F46AC0E091160DF091170DCB
:1047000083A58F5F83A7319680E090E060E070E042
:1047100042C0CF0149960E94A437892B09F456C0A4
:10472000E091160DF091170DE5A650C0CF01499606
:104730000E94A437892B09F449C0E091160DF0912D
:10474000170DD5A6F3A623C083A5833098F0CF011B
:1047500001960E94771FFC019093190D8093180D0C
:10476000009709F010828091160D9091170D0E940C
:104770004C212CC0CF0181960E94A437892B31F1A6
:10478000E091160DF091170D83A58F5F83A73196E9
:1047900080E090E0BF01AF010E94D7160091160D96
:1047A0001091170D6091EE317091EF318091F031E1
:1047B0009091F13128EE33E040E050E00E94564AFB
:1047C000C8018196BA01A9010E94DA378091160DBD
:1047D0009091170DC0969093170D8093160DE09150
:1047E000160DF091170D87E3E433F80708F469CF4D
:1047F00088E393E30E9450021F910F91FF90EF9086
:10480000DF9008951F920F920FB60F9211240F9010
:104810000FBE0F901F901895EF92FF920F931F936A
:10482000CF93DF93182FE62EF42E052F80E061E062
:104830000E94CC2880E06E2D0E94CC2880E0612F61
:104840000E94CC282F2D302FC901EC0104C06991A2
:1048500080E00E94CC289E012F192E15C0F380E025
:1048600064E00E94CC28DF91CF911F910F91FF90BF
:10487000EF900895AC01DC010D900020E9F76A2F5C
:10488000681B653108F064E182EC0E940C240895F5
:10489000382F882329F08091E43A8F5F8093E43A9F
:1048A0002091310D213041F0213018F0223051F4A7
:1048B00006C0313039F523C03093320D20C030931B
:1048C000330D1DC02731A8F4E22FF0E08091320DA6
:1048D00090E002968E179F077CF4343051F481E00B
:1048E0008093340D8DE791E061E040E050E00E945C
:1048F000B6321092310D06C0E65EF24F30832F5F64
:104900002093310D80E090E008950F931F93082FBE
:104910002FB783B7817F866083BF002311F413E034
:1049200001C0102FF8948091B60080628093B60089
:1049300082E08093B00087E08093B100812F90E007
:1049400035E0880F991F3A95E1F78093B3002FBFA8
:104950001092B2000E9481298091B60084FDFCCFA4
:104960008091700082608093700083B7816083BF04
:104970001092E43A83B7816083BF889583B78E7FB6
:1049800083BF812F0E94FA26002321F48091E43A0C
:10499000882371F383B78E7F83BF809170008D7FF2
:1049A000809370000E946A291F910F910895CF9300
:1049B000DF9380E68093A82B81E08093A92B10924F
:1049C000AB2B1092AA2B8AE38093AE2B8091E5311A
:1049D0008093AF2B0E94B31FA0ECBBE2FC0180E1EF
:1049E00001900D928150E1F780EB9BE260EC7BE25D
:1049F0000E94091C80917F0290E0FC01E053F44D7D
:104A000020E820831182FC01EC52F44D10821182C7
:104A1000128213828852944DFC0180E1DF011D92C5
:104A20008A95E9F780E490E09093992B8093982BF6
:104A30001092AC2B88E18093AD2B80917F02C82F20
:104A4000D0E0C053D44D1B821A820E945903809536
:104A500090959B838A830E94870EDF91CF91089562
:104A6000CF93DF93EC01FA0188819981009729F0B7
:104A7000805E914009F055C00DC080E090E00E943A
:104A8000D60D882309F04DC080EE91E0998388838C
:104A900081E04AC08091E031681791F4408140384C
:104AA00019F0413889F705C081EC60E040E050E042
:104AB00004C080EC61E04CE15DE00E940C24E4CF96
:104AC000613011F78091340D8823F1F28091330D1C
:104AD000833859F08438E1F0813801F580911D0D5B
:104AE00080931C0D0E94D72419C080911D0D88232E
:104AF000F1F4E091E401F091E501099580911D0D3B
:104B00000E948524E091E201F091E301099506C03D
:104B100083EC60E040E050E00E940C241092340DE1
:104B2000B3CF1982188283E0DF91CF9108958091ED
:104B3000D63090E08F709070892B81F7DACF9C018E
:104B4000F999FECF32BD21BDF89A80B5089500D005
:104B500000D000D0EDB7FEB731962CE830E0ADB70D
:104B6000BEB712963C932E931197938382837583DD
:104B700064830E9453478DB79EB706960FB6F8948C
:104B80009EBF0FBE8DBF0895EF92FF920F931F93AC
:104B9000DF93CF93CDB7DEB728970FB6F894DEBF7B
:104BA0000FBECDBF0E945A290E946A290E94EF338E
:104BB00080E06CE046E00E94562880E068E474E201
:104BC0000E94E22881E068E046E00E94562881E0E9
:104BD0000E9436290E943A2700D000D081EC90E054
:104BE000ADB7BEB712969C938E93119787E891E06C
:104BF00014969C938E9313970E9453470F900F9097
:104C00000F900F900E9454370E94FD3188E391E08D
:104C100060E070E00E94E9320E940D37E091D2011D
:104C2000F091D30109958E010F5F1F4F88E0F801C5
:104C300011928A95E9F7C80160E070E048E050E021
:104C40002FE935E20E943747A0EABBE2F80188E08D
:104C500001900D928150E1F78DEC9BEA60E070E0ED
:104C6000AE014F5F5F4F0E948C2DF999FECF88E017
:104C700090E092BD81BDF89A80B58093E53AF999AC
:104C8000FECF89E090E092BD81BDF89A80B5209179
:104C9000E53A30E090E0809590952817390711F0BB
:104CA0008AE102C08091E53A0E94A52BCE010196CF
:104CB0000E9406300E94AF3AE0911102F091120278
:104CC0000995E091F801F091F9010995E0916302ED
:104CD000F091640209950091F6011091F701E090BE
:104CE0000F02F09010020E94162A2DB73EB72850EE
:104CF00030400FB6F8943EBF0FBE2DBFEDB7FEB7E4
:104D000031962FEA30E0ADB7BEB712963C932E93A2
:104D1000119713830283F582E482868317820E94AF
:104D20005347E0911B02F0911C022DB73EB7285F5C
:104D30003F4F0FB6F8943EBF0FBE2DBF3097F1F036
:104D40000995BC018DE790E00E94424A8FEF6F3FCA
:104D50007807A1F000D000D08CE990E0ADB7BEB7E5
:104D600012969C938E93119714967C936E9313973F
:104D70000E9453470F900F900F900F9000D08AE938
:104D800090E0EDB7FEB7928381830E9453470F9066
:104D90000F908FE491E060E070E00E94E9328DE7CF
:104DA00091E060E070E00E94E93288E291E00E94C8
:104DB000393300D082E990E0ADB7BEB712969C932C
:104DC0008E9311970E9453470F900F9028960FB61D
:104DD000F894DEBF0FBECDBFCF91DF911F910F9131
:104DE000FF90EF9008950E94C4250E940D320E940A
:104DF0007F29FBCF2091EA3A3091EB3A4091EC3A8F
:104E00005091ED3A90E0A0E0B0E0280F391F4A1F22
:104E10005B1F2093EA3A3093EB3A4093EC3A50937D
:104E2000ED3A2091E63A3091E73A4091E83A5091D4
:104E3000E93A280F391F4A1F5B1F2093E63A309347
:104E4000E73A4093E83A5093E93A08958091EA3A74
:104E50009091EB3AA091EC3AB091ED3A0196A11DF8
:104E6000B11D8093EA3A9093EB3AA093EC3AB09359
:104E7000ED3A0895F8941092B60016BC8DE387BD04
:104E800092E094BD85E085BD85B385BB90936E00AF
:104E9000789408952091350D3091360D8091350D1F
:104EA0009091360D28173907A9F7C901089507C051
:104EB00022E330E0000021503040E1F701970097F5
:104EC000B9F70895BC014091350D5091360D809190
:104ED000350D9091360D48175907A9F72091350DDA
:104EE0003091360D8091350D9091360D2817390788
:104EF000A9F7241B350B2617370780F3089508956B
:104F00002091EA3A3091EB3A4091EC3A5091ED3AE7
:104F10008091EA3A9091EB3AA091EC3AB091ED3A57
:104F2000281739074A075B0759F7B901CA010895DD
:104F30001F920F920FB60F920BB60F9211242F9360
:104F40003F934F935F936F937F938F939F93AF9311
:104F5000BF93EF93FF938091350D9091360D01969D
:104F60009093360D8093350D8091370D8F5F809330
:104F7000370D8091370D8D3721F41092370D0E9437
:104F800026270E940C01892B11F00E948B01FF91B2
:104F9000EF91BF91AF919F918F917F916F915F91B1
:104FA0004F913F912F910F900BBE0F900FBE0F901E
:104FB0001F9018951F920F920FB60F921124109206
:104FC000AB010F900FBE0F901F9018951F920F927C
:104FD0000FB60F920BB60F9211242F933F934F935E
:104FE0005F936F937F938F939F93AF93BF93EF9351
:104FF000FF93E091A101F091A2018081E091AC01C9
:10500000F091AD01309709F00995FF91EF91BF91B3
:10501000AF919F918F917F916F915F914F913F9150
:105020002F910F900BBE0F900FBE0F901F901895F1
:105030001F920F920FB60F9211241092B8010F9089
:105040000FBE0F901F9018951F920F920FB60F92E0
:105050000BB60F9211242F933F934F935F936F934F
:105060007F938F939F93AF93BF93EF93FF93E091C1
:10507000AE01F091AF018081E091B901F091BA01E8
:10508000309709F00995FF91EF91BF91AF919F91F2
:105090008F917F916F915F914F913F912F910F90E1
:1050A0000BBE0F900FBE0F901F90189590E02DE053
:1050B00030E0829FF001839FF00D929FF00D11244C
:1050C000EF55FE4FA281B3811C92A481B5816C93F0
:1050D000A681B78188ED8C93A085B1854C9312860B
:1050E000148613860895CF93DF93AB0190E02DE0F3
:1050F00030E0829FD001839FB00D929FB00D1124AC
:10510000AF55BE4FED012A9691E00AC09883ED910C
:10511000FC911197808388818823E9F74F5F5F4F67
:10512000FA018491882391F7DF91CF910895CF936D
:10513000DF93262F372FA90190E02DE030E0829FEA
:10514000D001839FB00D929FB00D1124AF55BE4F7B
:10515000ED012A9691E02DE018C08A3041F4988341
:10516000ED91FC911197208388818823E9F7FA015A
:1051700080818D3041F09883ED91FC91119780836F
:1051800088818823E9F74F5F5F4FFA018081882388
:1051900021F7DF91CF91089590E02DE030E0829FDC
:1051A000F001839FF00D929FF00D1124EF55FE4FFB
:1051B00081E08287A081B1816C933A9680818823B7
:1051C000E9F7089590E02DE030E0829FF001839FA1
:1051D000F00D929FF00D1124EF55FE4F74876387F9
:1051E000089591E09093AB01E091A101F091A201AB
:1051F00080838091AB018823E1F70895482F8A309E
:10520000C9F48091380D90E02DE030E0829FF001EC
:10521000839FF00D929FF00D1124EF55FE4F81E01A
:105220008287A081B1818DE08C933A96808188231A
:10523000E9F702C08D30B9F08091380D90E02DE093
:1052400030E0829FF001839FF00D929FF00D1124BA
:10525000EF55FE4F81E08287A081B1814C933A9651
:1052600080818823E9F780E090E008958093380DED
:1052700083E991E090932F3C80932E3C08950F9307
:105280001F93DF93CF93CDB7DEB7FE013A9609E3C4
:105290001DE0C80160E470E0488559859F010E94C7
:1052A00079478F81B8010E949728CF91DF911F9194
:1052B0000F91089584B7877F84BF10927A0D109262
:1052C000790D88E10FB6F894809360001092600029
:1052D0000FBE08958091790D90917A0D019790936A
:1052E0007A0D8093790D2FE088E190E00FB6F89465
:1052F000A895809360000FBE209360000895A89544
:10530000089588E10FB6F8948093600010926000D1
:105310000FBE0895F89428E088E190E00FB6F89465
:10532000A895809360000FBE20936000FFCF80930C
:105330007B0D0895DF93CF9300D00F92CDB7DEB7EA
:10534000309166001092700010926F008091B6004C
:1053500080628093B60081E08093B1008FE890E096
:105360000197F1F78FB78983F89420E861E050E85E
:105370004FEF609381008091B6008B71E1F75093FD
:10538000B200109285001092840047BBB89BFECFFC
:1053900080918400909185009B838A831092810084
:1053A0008A819B81875F934760F4809166008E3786
:1053B00019F1809166008F3FF9F0809166008F5F50
:1053C00012C08A819B818D52904810F491E00EC0EA
:1053D00080916600813881F080916600882361F0B9
:1053E0008091660081508093660090E0215029F002
:1053F000992309F4BECF01C090E0809166008093AC
:105400007F3B992311F4309366003093660010922D
:10541000B1008091B6008F7D8093B60089818FBFE7
:105420000F900F900F90CF91DF91089580917D0D97
:10543000089580917C0D80917C0D90E0089581E02D
:105440006FE140E00E94982E813021F020E030E0B2
:10545000813111F421E030E0C901089581E06FE16C
:1054600040E00E94982E823021F0823111F081E0DC
:10547000089580E0089581E06FE140E00E94982E59
:10548000982F81518230B8F39F31A9F3913099F36D
:10549000923089F308951B9B02C080E1089585E056
:1054A0006FE040E00E94982E08950F931F93182FED
:1054B000883059F0863049F0893039F0863129F04A
:1054C000893119F022E430E050C01B9B03C024E472
:1054D00030E04BC00E943B2A81E06FE140E00E9437
:1054E000982E082F181709F43EC0183061F42B9835
:1054F0008DE090E00197F1F782E06FE140E023E07A
:105500000E94AB2E22C0193139F4863199F482E021
:105510006FE140E029E008C0163161F4893151F4AF
:1055200082E06FE140E026E00E94AB2E83E090E055
:105530000197F1F782E06FE140E0212F0E94AB2E4E
:10554000083019F489E691E002C083E090E0019709
:10555000F1F781E06FE140E00E94982E811719F089
:1055600023E430E002C020E430E0C9011F910F9134
:10557000089580917D3B882339F02B988FEA92E043
:105580000197F1F710927D3B0E943B2A86E10E9431
:10559000552A81E080937E3B089580917E3B88234D
:1055A00051F480917E0D882321F081E080937F0D5E
:1055B00002C00E94B92A81E090E0089510927E3BDB
:1055C0000E943B2A2B988DE090E00197F1F782E052
:1055D0006FE140E023E00E94AB2E83E090E0019772
:1055E000F1F72B9A81E080937D3B089580917F0DA8
:1055F000882321F00E94B92A10927F0D8091800D9E
:10560000882321F00E94DE2A1092800D10927E0DD8
:105610000895CF93DF93FC01AB0181E080937E0D71
:105620008091C83B9091C93BA091CA3BB091CB3BC4
:105630000196A11DB11D8093C83B9093C93BA093D7
:10564000CA3BB093CB3B862F8E5F87FF03C0CFEF63
:10565000DFEF08C021E83DE0C901BF010E94154706
:10566000C0E0D0E00E94F62ACE01DF91CF910895EC
:1056700080917E3B8823A9F080917E0D8823A1F440
:1056800081E06FE140E00E94982E982F8151823096
:1056900058F09F3149F0913039F0923029F00E9452
:1056A000DE2A81E090E0089581E08093800DF9CFBB
:1056B00080917E0D882341F480917E3B882321F4E4
:1056C0000E94CD2A0E94382B81E090E008950F932C
:1056D0001F9380917E3B882311F000E003C00E945D
:1056E000CD2A01E081E06FE140E00E94982E8631F2
:1056F00011F0813129F487E00E94622E182F09C031
:1057000086E06FE140E00E94982E93E0899F102D83
:105710001124002311F00E94382B812F1F910F912B
:105720000895282F1B9908C0803108F02FE085E0EC
:105730006FE040E00E94AB2E089591E090937E0DC3
:105740000E94912B0E94F62A08951F93182F0E9401
:105750003B2A10937D0D88E06FE140E0212F0E94ED
:10576000AB2E1F9108950E94A52B86E00E94552A1A
:105770000895FF920F931F93CF93DF93182F01E0AB
:1057800000937E0DF0907E3B80917D3B882321F03D
:105790002B9810927D3B18C08091F23A8823A1F09B
:1057A0008AE160E847E021E00E94AB2E8BE160E8EF
:1057B00047E021E00E94AB2E1092F23A0093F33AB8
:1057C00081EA90E00197F1F70E943B2A89E10E946B
:1057D000552A86E00E948E38892B19F4C0E0D0E06B
:1057E00009C00E944B2AC82F86E00E948E38815043
:1057F0000E94912B2B9A2B981E5F81E89DE0612FD0
:105800000E94162F0E943B2A82E060EE45E00E9433
:10581000982E182F86E00E948E38892B19F08C2F35
:105820000E94912BFF2011F00E94B92A80917E3BAB
:10583000882331F482E06FE140E023E00E94AB2E48
:105840000E94F62A113011F410E015C0133099F4BB
:105850008091C03B9091C13BA091C23BB091C33BB2
:105860000196A11DB11D8093C03B9093C13BA093B5
:10587000C23BB093C33B812F90E0DF91CF911F914A
:105880000F91FF900895CF93DF93EB010E94092BB6
:105890009C01009721F4CE010E94B92B9C01C90103
:1058A000DF91CF91089588EC91E00E94163381E05A
:1058B00080937C0D81E090E00895CF93DF93582F83
:1058C000A92F2091F93A822F90E0FC01F695FE2F46
:1058D000EE27F795E795880F991FE80FF91FE65017
:1058E000F54C4081442321F147FF25C0822F90E0F1
:1058F000FC01F695FE2FEE27F795E795880F991F87
:10590000E80FF91FE650F54C10828091B83B90915A
:10591000B93BA091BA3BB091BB3B0196A11DB11D13
:105920008093B83B9093B93BA093BA3BB093BB3BF9
:10593000C0E0D0E0BEC0433018F5822F90E0FC01FB
:10594000F695FE2FEE27F795E795880F991FE80F3C
:10595000F91FE650F54C10828091B43B9091B53B15
:10596000A091B63BB091B73B0196A11DB11D8093AC
:10597000B43B9093B53BA093B63BB093B73BD8CF25
:10598000C42FD0E022976C177D0718F5822F90E086
:10599000FC01F695FE2FEE27F795E795880F991FE6
:1059A000E80FF91FE650F54C10828091B03B9091C2
:1059B000B13BA091B23BB091B33B0196A11DB11D8B
:1059C0008093B03B9093B13BA093B23BB093B33B79
:1059D000AFCF822F90E09C013695322F222737954A
:1059E0002795880F991F280F391F2550354C852F73
:1059F0009A2FB90150E00E9415472091F93A822F61
:105A000090E0FC01F695FE2FEE27F795E795880FBD
:105A1000991FE80FF91FE658F44C80818093EE3A05
:105A2000822F90E0FC01F695FE2FEE27F795E79583
:105A3000880F991FE80FF91FE650F54C108210925D
:105A4000F93A80E090E0FC01F695FE2FEE27F795FD
:105A5000E795880F991FE80FF91FE650F54C8081F4
:105A6000882311F00E94532C87E00E94622E682F39
:105A70008093EF3A772767FD709584E00E94833822
:105A80006091EE3A83E070E00E9483388091CC3BD5
:105A90009091CD3BA091CE3BB091CF3B0196A11D03
:105AA000B11D8093CC3B9093CD3BA093CE3BB09364
:105AB000CF3BCE01DF91CF910895CF93DF93EC01DF
:105AC00088819981009721F081599440F9F405C0AB
:105AD00081E994E09983888302C0623811F081E003
