:100000000C9435010C9454010C9454010C9454013B
:100010000C9454010C9454010C9454010C9454010C
:100020000C9454010C9454010C9454010C945401FC
:100030000C94163B0C9454010C9454010C94FF3A0C
:100040000C9455330C9454010C9454010C945401A9
:100050000C94A3330C9454010C9497330C945401D6
:100060000C9454010C9454010C9454010C945401BC
:100070000C94E1330C9454010C94D5330C9454013A
:100080000C94534E0C9454010C9454012573257315
:100090000A004F6E6C696E650A0043616E27277413
:1000A00020637265617465202F696E6465782E68BF
:1000B000746D6C210A00446F6E65210A00466F72F0
:1000C0006D617474696E6720464C415348206669BF
:1000D0006C652073797374656D20666F7220636F31
:1000E000666665652E2E2E004E6F20696E646578FB
:1000F0002E68746D6C2066696C6520666F756E6421
:100100002C206372656174696E672075706C6F6115
:10011000642E68746D6C210A000A002C20636865E7
:10012000636B207261746520257520487A00257301
:100130002025732C206368616E6E656C2025750028
:100140000A2A2A2A2A2A2A2A426F6F74696E67208D
:1001500025732A2A2A2A2A2A2A0A004641494C3A81
:100160002D343720746F74616C5F726561643D2556
:10017000640A004641494C3A2D343620723D2564CC
:100180000A004641494C3A2D34352C20746F746175
:100190006C5F726561643D256420723D25640A00D0
:1001A000436F756E743A25642C20723D25640A00F5
:1001B0004641494C3A2D343120746F74616C5F7242
:1001C0006561643D25640A004641494C3A2D34304E
:1001D00020723D25640A004641494C3A2D33392CA2
:1001E00020746F74616C5F726561643D2564207278
:1001F0003D25640A00436F756E743A25642C2072A5
:100200003D25640A004641494C3A2D333520746F30
:1002100074616C5F726561643D25640A0046414902
:100220004C3A2D333520723D25640A00436F756EBC
:10023000743A25642C20723D25640A006275665B61
:1002400025645D20213D2025640A0072203D202583
:10025000640A00723D25642E206275665B725D3D06
:1002600025640A00723D25640A0011241FBECFEFE9
:10027000D0E4DEBFCDBF12E0A0E0B1E0ECE9FCEAE3
:1002800000E00BBF02C007900D92AC39B107D9F75F
:100290001CE2ACE9B2E001C01D92AA37B107E1F758
:1002A0000E9425260C944C560C940000CF93DF93AB
:1002B000EC01888199818633910591F08D33910508
:1002C000F9F0892BD1F580E091E00E94C9528CE9C8
:1002D00092E067E771E00E940A0386E390E00CC0B9
:1002E000683861F48BE098EB0E94C91182E291E0DA
:1002F0000E94C9528DE390E09983888381E020C0F9
:1003000080913A226817B1F78091032186FF06C0D9
:100310008DE391E066E070E00E94D80480910321B3
:1003200081FFE8CF6091F31B7091F41B809108214D
:10033000909109210E94D804DDCF1982188283E0B0
:10034000DF91CF91089520E030E0FC018681978114
:10035000892B11F421E030E0C9010895FC012281CC
:10036000338180819181280F391FC9010895FC01D3
:100370008081918108952091A4023091A5022115D8
:10038000310511F021E030E0C90108958091A40207
:100390009091A502892B19F420E030E004C020914F
:1003A000A6023091A702C90108958091A4029091FC
:1003B000A502892B29F41092A7021092A602089593
:1003C0000E940733BC01E091A402F091A502428192
:1003D000538180819181480F591F461B570B0CC0D8
:1003E0002281338180819181280F391F261B370B91
:1003F0002417350708F4A9010480F581E02D309712
:1004000079F7460F571F5093A7024093A60208950D
:10041000CF93DF93EC01E091A402F091A5028E1737
:100420009F0741F48C819D819093A5028093A40243
:1004300014C0FC01309731F0848195818C179D07A1
:10044000C1F707C01D821C821F821E82DF91CF91DF
:1004500008958C819D81958384830E94D501F2CF7C
:10046000FC0180819181860F971F918380830E9478
:10047000D501089585E691E00E94D33E0895EF925C
:10048000FF920F931F93CF93DF937C01FC01808138
:100490009181009729F08A35910509F06DC00BC054
:1004A0001092A5021092A4028AE590E0F7019183D0
:1004B000808381E065C0673849F59A01E091A40224
:1004C000F091A50203C00480F581E02D309741F33F
:1004D0008681978182179307B1F3E093A402F0938A
:1004E000A5020FC016968D919C91179782179307BE
:1004F00011F0FD0106C014968D919C91159795837E
:100500008483A481B581109769F7CECF623861F6F4
:10051000C091A402D091A50200E010E02AC0CE0153
:100520000E94C63F892B01F18E819F8168E8AE0150
:100530000E94733E892BA1F41F821E828C819D81B3
:100540000115110521F0F8019583848304C090936F
:10055000A5028093A4021D821C820E94D501D8CFDF
:1005600085E691E00E94D33E8E018C819D819C01A5
:10057000E9012097A1F698CFF7011182108283E05C
:10058000DF91CF911F910F91FF90EF900895CF933E
:10059000DF93EC0185E691E00E94D33E8E819F813E
:1005A000892B69F0E091A402F091A50206C0EC1736
:1005B000FD07A9F00480F581E02D3097C1F7809107
:1005C000640E9091650E9F838E838091A40290911A
:1005D000A5029D838C83D093A502C093A4020E94A0
:1005E000D501DF91CF9108950F931F938C010E9445
:1005F000DE3FC8010E94C7021F910F9108950F931B
:100600001F938C010E94A73FC8010E94C7021F913F
:100610000F9108950F931F938C010E94E93FC80129
:100620000E94C7021F910F910895FC015381560F3C
:100630005093FA1B272F33274281420F4093F91B17
:10064000A181A093F81BE081E093F71B842F90E039
:100650008217930748F48A2F8F5F8093F81B8823B3
:1006600019F4EF5FE093F71B852F90E07070861709
:10067000970790F4842F8F5F8093F91B882361F490
:100680008091F81B8F5F8093F81B882329F4809159
:10069000F71B8F5F8093F71B0895FC01615070403A
:1006A000680F791F20E030E00EC0508140E081816A
:1006B000DA01A80FB11D2A0F3B1F2A173B0710F4C0
:1006C0002F5F3F4F3296E617F70778F3E617F707E5
:1006D00049F4908180E0280F391F2817390710F45A
:1006E0002F5F3F4F832F922F0895E3E0FCE140E01E
:1006F00050E0308120E08181B901680F711D460F03
:10070000571F4617570710F44F5F5F4F32967CE133
:10071000EA32F70770F38CE1EA32F80751F490817E
:1007200080E0480F591F4817590718F44F5F5F4F73
:1007300006C04115510519F42FEF3FEF02C0342FC9
:10074000252FC9010895CF93DF939091A902A92F76
:10075000B0E03091071C20E02A1B3B0B9091081C55
:10076000290F311DA901480F511DEBE0FCE17081FB
:1007700060E08181EB01C80FD11D4C0F5D1F4C174C
:100780005D0710F44F5F5F4F32968CE1EA32F80755
:1007900070F38CE1EA32F80749F4908180E0480F69
:1007A000591F4817590710F44F5F5F4FFD01E55D72
:1007B000F34E215030402E0F3F1F0EC0708160E07D
:1007C0008181DB01A80FB11D4A0F5B1F4A175B0730
:1007D00010F44F5F5F4F3296E217F30778F3E2179A
:1007E000F30751F4908180E0480F591F48175907CB
:1007F00018F44F5F5F4F06C04115510519F42FEFF4
:100800003FEF02C0342F252FC901DF91CF9108950A
:100810008AE30E94A303089586E00E94A30308953B
:1008200081E10E94A3030895CF93DF93582FA92F4E
:1008300040913121E0911C21F0911D212091AC02C9
:100840003091AD022F5F3F4FBDE720303B0710F0E6
:1008500020E030E1922F832F442319F0E817F907A5
:1008600089F32093AC023093AD0280E090E0442302
:1008700029F41092AB02ECE0F1E20AC0473011F427
:100880008CE091E2FC0181E08093AB02309771F142
:1008900082E085A38091AE02808F8091AF02818F2C
:1008A0008091B002828F8091B102838F84EC94E0BA
:1008B000978F868F91A380A381E090E0958F848F9E
:1008C00017A281E086A383E084A312A280E183A320
:1008D000308B218B738B628BEF01252F3A2FC9014F
:1008E000DC0180E10D9009928150E1F7CF01DF91A9
:1008F000CF91089520913C2130913D21281739074F
:1009000039F41092AB0210923D2110923C210895CF
:1009100081E08093AB0208959C0180913C219091ED
:100920003D21892B39F41092AB0230933D21209365
:100930003C21089581E08093AB020895BC01809131
:100940000A2190910B2144960E941503E0910A21FF
:10095000F0910B218091F71B848B8091F81B858B84
:100960008091F91B868B8091FA1B878B0895282F25
:10097000892F922F0895EF92FF920F931F939C015E
:1009800044275527F22EE32E00E010E0362F272FC4
:1009900040E050E0A90133272227E22AF32A042B62
:1009A000152BB701C8011F910F91FF90EF9008958B
:1009B000FC014091F51B5091F61B23E031E2241B12
:1009C000350B621773070CF49B011216130664F4BF
:1009D00020933E2130933F21E417F50729F0CA0107
:1009E000BF01A9010E945152089582E08093AA029A
:1009F000A091A9022A2F30E0F901E55DF34E818133
:100A0000682F70E043E0660F771F4A95E1F7695F52
:100A10007F4F42E0285D3F4F3CC0F901E80FF91FCE
:100A2000ED5FF34E8081882319F0813019F42EC0D8
:100A30004F5F2FC090E0807C90708038910549F026
:100A4000803C910549F08034910501F54093AA025C
:100A500009C04093AA0208C04093AA0280911B1CBF
:100A60008F3F11F481E00895242F30E040E050E002
:100A70002A0F311D411D511D285D3F4F4F4F5F4FC4
:100A800084E062E00E94321382E0089581818E5FEB
:100A9000480F842F90E0681779070CF0BECF409381
:100AA000AA0280E00895CF92DF92EF92FF920F9317
:100AB0001F93CF93DF93C0910A21D0910B218430F3
:100AC00009F471C20FE31CE110930921009308217E
:100AD0001093F61B0093F51B833099F48DA1282FFA
:100AE00030E02F7030702330310529F48C8D9D8DCE
:100AF000892B09F496C02230310511F00C94AF0D0A
:100B00007FC0823009F091C01092F41B1092F31B49
:100B100010923F2110923E218091B1028F5F80930D
:100B2000B102882399F48091B0028F5F8093B00264
:100B3000882361F48091AF028F5F8093AF02882396
:100B400029F48091AE028F5F8093AE022DA12730F1
:100B500011F0253051F48EA18F5F8EA3853011F0F6
:100B60000C94AF0D1DA20C94AF0D222311F40C9424
:100B7000AF0D8C8D9D8D892B09F44FC08EA18150B6
:100B80008EA38F5F09F0EBC73FA1383029F02150C9
:100B9000223048F4353039F41DA280E880930321D7
:100BA0000E94C80E87C6353010F080E307C083E08E
:100BB00090E002C0880F991F3A95E2F78EA38FA1AB
:100BC0008F5F8FA38DA190E08F709070833091051F
:100BD000F1F08430910544F48130910509F4FEC3AD
:100BE000029709F0BCC70CC08630910509F476C69F
:100BF0008830910509F472C6049709F0B0C76EC633
:100C0000E091A902F0E0E55DF34E1586EEC384E0C5
:100C1000809303210E94C80E8FC62F70233009F0E5
:100C20009EC788E08093032139C6853019F5E0918D
:100C30000621F091072180899189892B09F48FC7BA
:100C400010920B2110920A21C8010C979093092150
:100C5000809308219093F61B8093F51B10923F21FF
:100C600010923E211092F41B1092F31B88E08093A7
:100C7000032197C18091031C807F803609F06FC7E4
:100C80009091071C80E02091081CAC01420F511D7F
:100C90009A018091F31B9091F41B8417950708F437
:100CA0005EC7285D3F4F3093F41B2093F31B809168
:100CB0000B1C8F3F09F453C7C80184970E94D31FB0
:100CC000892B59F4C80184970E94391F892B29F474
:100CD00080911B1C8F3F09F042C789E09CE19093F3
:100CE0000521809304211092A9021092A802E0919C
:100CF0000421F091052180818B3209F44BC08C32A4
:100D000048F4863009F4BFC1813109F4B4C08823A6
:100D100089F06BC08A3309F474C08B3320F48C32B1
:100D200009F063C01CC78B3309F419C78C3309F071
:100D30005CC006C08091A80280FD57C0816009C0D8
:100D40008091A80281FF04C086FD4FC0806401C06D
:100D500082608093A8020E94F504813009F4FFC6E6
:100D6000813018F0823019F602C72091A902E22FD3
:100D7000F0E0CF01855D934E90930521809304218F
:100D8000285FFC018181880F880F880F280F20932E
:100D9000A902ADCF8091A80282FD27C08460809314
:100DA000A8029091A902E92FF0E0DF01A55DB34E02
:100DB00013968C911397882349F0BA969F01442784
:100DC00037FD4095542F84E060E018C0B0930521B2
:100DD000A0930421985FE55DF34E8181880F880F11
:100DE000880F980F9093A90282CFE350FC419F0196
:100DF000442737FD4095542F84E061E00E94321370
:100E0000B6C60E9408048F5F9F4F09F0A8C6E09104
:100E1000A902F0E0ED5FF34E80A50E94120FE09171
:100E2000A902F0E0ED5FF34E80A58538C1F0863869
:100E300018F48038A1F410C0873829F0873848F0BA
:100E4000883869F403C00E9487190DC00E942C18CD
:100E50000AC00E940C1407C00E94C51204C0109260
:100E6000F41B1092F31B8091F31B9091F41B892BC0
:100E700009F475C67CC68091F31B9091F41BC09752
:100E80009093F41B8093F31B83E39CE190930921DF
:100E900080930821E091A902F0E0E55DF34E8681A0
:100EA0009781892B31F00E9410048F5F9F4F09F0CA
:100EB00056C6E091A902F0E0E55DF34E8281938190
:100EC000892B09F44CC680E491E29093072180932A
:100ED000062148C02889398921153105F1F1809111
:100EE000A902E82FF0E0E55DF34E8281938182173D
:100EF000930799F52A893B892115310529F08081CD
:100F000091818217930749F588819981892BE1F4B2
:100F10008A819B81892BC1F48C819D81892BA1F4CD
:100F20008E819F81892B81F488859985892B61F435
:100F30008A859B85892B41F48C859D85892B21F49D
:100F40008E859F85892BC1F08BE09CE1BE0140E13D
:100F500050E00E944452009779F06996D09307219F
:100F6000C0930621C0910621D0910721B2E2CA3375
:100F7000DB0708F4AFCFF3C510920B2110920A21C2
:100F800082E08093032183E39CE190930921809385
:100F900008219093F61B8093F51B10923F2110922D
:100FA0003E210E94C80E20913E2130913F21211503
:100FB000310509F4D4C5C901C0969093F41B809300
:100FC000F31B285F3F4F3093071C88528093081C07
:100FD0004091062150910721EA018C8980930A1CD7
:100FE00081E18093091CE091A902F0E0ED5FF34EEE
:100FF000DF01989614963C93149715962C931597A9
:1010000017961C921E9216978889998991A780A796
:101010008A899B8913969C938E931297ABE1BCE1CE
:101020002091062130910721C901FC0180E1019046
:101030000D928150E1F78BE09CE16BE17CE10E9435
:10104000A11C8FE39CE1909309218093082180915A
:10105000A902C82FD0E0C55DD34E0E941004809530
:1010600090959F838E838091A902E82FF0E0E55D43
:10107000F34E86819781892B09F067C58FEF9FEF2B
:101080009783868362C50E940C048F5F9F4F09F08F
:1010900066C58091A902082F10E0055D134ED801A6
:1010A0001296ED90FC901397E114F10409F457C5E2
:1010B000CD90DC90C114D10409F451C5CCE0D1E24B
:1010C0008DA18823A1F088899989E816F90679F419
:1010D0008A899B89C816D90651F48BE09CE1BE0130
:1010E00040E150E00E944452009709F49BC1AC9645
:1010F000B1E2CC30DB0721F318F3E8018D858F7363
:101100008230D1F4F092B402E092B3021092AB02BA
:1011100041E00EC02091B3023091B40280913C2195
:1011200090913D212817390709F48AC04093AB02FA
:101130008091AB02882371F38091A902E82FF0E03F
:10114000DF01A55DB34E1D968C911D9782FD07C5ED
:1011500084E11D968C931D978CE390E09093F41B93
:101160008093F31BFD0180E5848797811B968C910A
:101170001B9717968C931797938796811A968C9145
:101180001A9716968C9316979287958119968C913B
:10119000199715968C931597918794819093AB022C
:1011A00018968C91189714968C93149790871B9689
:1011B0008C911B978F5F1B968C931B978823C1F490
:1011C0001A968C911A978F5F1A968C931A97882388
:1011D00079F419968C9119978F5F19968C931997BA
:1011E000882331F418968C9118978F5F18968C93FA
:1011F000E091A902F0E0DF01AD5FB34E98962D912A
:101200003C9199973093B4022093B302E55DF34E7D
:1012100082819381918380839B963C932E939A97AE
:10122000EBE1FCE1DF01509780E10D9001928150EC
:10123000E1F78BE09CE16BE17CE10E94A11C5FC4C3
:101240001092AB02C0E0D0E021E014C080913121C7
:10125000882319F4CCE0D1E214C0873049F42097F8
:1012600029F0909132218EA1891710F4CCE0D1E2BF
:101270002093AB028091AB02882341F3209709F4BD
:101280006EC4D0930B21C0930A2183E08EA38CA35C
:101290001AA284E08BA31FA2E091A902F0E0ED5F07
:1012A000F34E82A593A5998B888B80A591A59B8BE6
:1012B0008A8BDE01EBE0FCE180E101900D92815030
:1012C000E1F781E08DA38091AE02888F8091AF021B
:1012D000898F8091B0028A8F8091B1028B8F81E0DB
:1012E00090E09D8F8C8FE091A902F0E0E55DF34ED8
:1012F00087818F8BE091A902F0E0E55DF34E868156
:101300008E8BE091A902F0E0E55DF34E85818D8B37
:10131000E091A902F0E0E55DF34E84818C8B81E0E1
:1013200090E00E949E04E091A902F0E0E55DF34E9A
:10133000848590E0807F9070813591050CF44EC0DB
:101340001092AB0235C0F901ED5FF34E84AD80938E
:10135000B202882309F442C0813021F44F5F4093E8
:10136000AB0226C08230C1F485AD8430A9F436AD1D
:1013700020E087AD90E0822B932B9093B402809372
:10138000B302E4E0853C9E0710F084EC94E09F8F6C
:101390008E8F99A388A322C08091AB02E82FF0E042
:1013A000E05CF34EE081EE23C9F0E80FE093AB027E
:1013B0004091AB02242F30E0E091A902F0E0E55D1E
:1013C000F34E848582958F7090E00597880F991F62
:1013D000880F991F281739070CF4B5CFE091A9029F
:1013E000F0E0E55DF34E80E18587E091A902F0E051
:1013F000DF01A55DB34E1D968C911D9782601D96F1
:101400008C931D97FD0182E0848B84E0858B868B15
:1014100084EC878B80E490E09093F41B8093F31B23
:1014200080E628C3D0930B21C0930A211092032198
:101430008091A902E82FF0E0DF01A55DB34E1D9673
:101440008C911D9782FF03C01DA280E2ABC21C9647
:101450008C9182958F70880F880F8093AB022091BA
:10146000F31B3091F41B28523040281B3109309374
:10147000F41B2093F31B8DA190E08F70907082304D
:10148000910539F4E55DF34E85858F73823149F41A
:101490002FC0019731F4E55DF34E85858F7382305F
:1014A00039F1232B59F4E091A902F0E0E55DF34E08
:1014B000858590E083709070892BD1F08091A9028E
:1014C000E82FF0E0E55DF34E94818C89981761F484
:1014D00095818D89981741F496818E89981721F40A
:1014E00097818F89981721F0858581FD77CFAFC2CD
:1014F000E091A902F0E0E55DF34E858584FF52C0DE
:101500006C8D7D8D6115710509F44CC0CE01489636
:101510000E9415038091A902E82FF0E0E55DF34EEB
:1015200020858091F71B2817E9F591858091F81B9C
:101530009817C1F592858091F91B981799F59385B5
:101540008091FA1B981771F5288F8091F81B898F6D
:101550008091F91B8A8F8091FA1B8B8F8FA1882332
:10156000D1F42AA19CA18EA1981B822F86958695E5
:101570008695981B392F320F3AA38BA1282F2695D9
:101580002695821B97FD9195890F8BA336953695ED
:101590003695830F8CA381E0809303218CA18EA3C9
:1015A0001D8E1C8E8DA1282F30E0C9018F70907088
:1015B0008430910509F4FBC18530910564F48230D3
:1015C000910509F43DC0833091050CF0D5C0019719
:1015D00009F0C5C210C08630910509F430C28630CA
:1015E00091050CF408C28730910509F430C20897C0
:1015F00009F0B5C2D1C18091032180FF16C083E0FC
:101600008DA380E4809303211D8E1C8E2091F31BFB
:101610003091F41B2115310509F43CC182E480931B
:101620000321C9010E949E0435C1E091A902F0E0A6
:10163000E55DF34E85858F73823009F090C2CECE82
:101640008091032180FF8DC08091A902E82FF0E0F6
:10165000E55DF34E85858F73823109F082C0848504
:1016600090E0807F9070813591050CF44EC010920F
:10167000AB0235C0F901ED5FF34E84AD8093B20249
:10168000882309F442C0813021F44F5F4093AB02BC
:1016900026C08230C1F485AD8430A9F436AD20E097
:1016A00087AD90E0822B932B9093B4028093B3028A
:1016B000F4E0853C9F0710F084EC94E09F8F8E8FC0
:1016C00099A388A322C08091AB02E82FF0E0E05CF0
:1016D000F34EE081EE23C9F0E80FE093AB024091B6
:1016E000AB02242F30E0E091A902F0E0E55DF34E7B
:1016F000848582958F7090E00597880F991F880FD9
:10170000991F281739070CF4B5CF83E08DA3E0911A
:10171000A902F0E0E55DF34E84818C8BE091A90293
:10172000F0E0E55DF34E85818D8BE091A902F0E05C
:10173000E55DF34E86818E8BE091A902F0E0E55DD8
:10174000F34E87818F8B81E090E00E949E0482E4BB
:10175000809303211D8E1C8E1092F41B1092F31B9C
:1017600099C080E2809303210E94C80EE0910A2173
:10177000F0910B2115A2E0CC8091A902E82FF0E0B6
:10178000E55DF34E858580FF25C024FD23C08C8D4B
:101790009D8D892B09F0E3C18091F31B9091F41B7F
:1017A00001960E949E0420910321822F80618093E4
:1017B00003218091F31B9091F41B892B19F0226176
:1017C000209303210E94C80E81E090E09D8F8C8FB2
:1017D00088E082C085FF25C0328920E0838990E0BF
:1017E000282B392B8091082190910921820F931F7A
:1017F0009093092180930821E091A902F0E0E55D32
:10180000F34E328920E0838990E0282B392B809198
:10181000F31B9091F41B821B930B9093F41B80930A
:10182000F31B2091F31B3091F41B2115310559F066
:101830008DA184FD08C080910321826080930321E3
:10184000C9010E949E04E091A902F0E0E55DF34E1B
:10185000968580E02785820F911D9093B402809336
:10186000B30228A139A12817390710F0892B21F4D8
:101870003093B4022093B3028091B3029091B402EA
:101880009F8F8E8F8091032190E083709070892BC1
:1018900009F465C110923F2110923E210E94C80EAA
:1018A00080910321282F85FF0CC010923F211092B8
:1018B0003E211DA2E091A902F0E0E55DF34E84E136
:1018C000CCC084FF12C010923F2110923E2181E0D3
:1018D00090E09D8F8C8F84E08DA31FA2E091A902E0
:1018E000F0E0E55DF34E81E1B8C080913E2190913A
:1018F0003F21892B01F120FF02C01D8E1C8E8C8D93
:101900009D8D0097A1F42E8D3F8D80913E21909169
:101910003F212817390720F430933F2120933E219F
:1019200080913E2190913F219D8F8C8F04C0909398
:101930003F2180933E211FA28091F51B9091F61BC1
:10194000909309218093082180913E2190913F211D
:10195000892B81F08C8D9D8D009761F0CC969093B2
:10196000F41B8093F31BE091A902F0E0E55DF34ED8
:1019700088E110C08091032181FFF1C08CE390E0E9
:101980009093F41B8093F31BE091A902F0E0E55DD6
:10199000F34E80E1858768C08091032180FFDFC01E
:1019A0001DA280E1809303210E94C80ED8C08091BF
:1019B000F31B9091F41B009711F00E949E04E0919C
:1019C000A902F0E0E55DF34E85859091032180FF4B
:1019D0000BC090FF06C087E08DA31EA21D8E1C8E3B
:1019E0001DC086E08DA31AC090FF22C085E08DA3A4
:1019F0001D8E1C8EB4C08091F31B9091F41B009738
:101A000011F00E949E04E091A902F0E0E55DF34E22
:101A1000858580FF0DC087E08DA31EA281E090E048
:101A20000E949E0480E1809303210E94C80E0FC093
:101A30008091F31B9091F41B892B49F490C0809105
:101A4000032180FF8CC087E08DA31EA288C0E09197
:101A5000A902F0E0E55DF34E80E185878CE390E03C
:101A60009093F41B8093F31BE091A902F0E0E55DF5
:101A7000F34E80E58487A091A902B0E0AD5FB34E3C
:101A8000FD01B8968C8980878D8981878E898287B0
:101A90008F898387888D8483898D85838A8D8683CA
:101AA0008B8D878386E08093091C88899989999614
:101AB0009C938E9398978A899B8993838283ABE1C9
:101AC000BCE1FE0180E101900D928150E1F78BE0D5
:101AD0009CE16BE17CE10E94A11C8DA1E091A90237
:101AE00084FF06C0F0E0E55DF34E1786168607C05A
:101AF000F0E0E55DF34E84E0868784EC8787809193
:101B0000402280930A1C8091F31B9091F41B8897CC
:101B10009093071C8091F31B88528093081CE091DE
:101B2000A902F0E08F01055D134ED80153961C9277
:101B3000539752961C92F801118A108A0E940C0445
:101B400080959095E801998B888B80E68093031CA3
:101B50001092041C1092061C1092051C08C01092D2
:101B6000F41B1092F31B1092A9021092A80210927B
:101B70000321DF91CF911F910F91FF90EF90DF90A4
:101B8000CF9008950F931F93CF93DF938C012091F3
:101B9000AC023091AD02C9E1D0E02F5F3F4F8DE73D
:101BA0002030380710F020E030E1522F432FA0E022
:101BB00011C08A2F90E08C9FF0018D9FF00D9C9FAB
:101BC000F00D1124E05CFE4D80899189AF5F841790
:101BD000950719F3AA3069F72093AC023093AD0250
:101BE0001092AB0240E0A9E1B0E01CC0542F5F5F4F
:101BF000842F90E08A9FF0018B9FF00D9A9FF00D4B
:101C00001124E05CFE4D80899189892B51F4409329
:101C1000AB0289E1489FD0011124A05CBE4D49F47C
:101C200027C0452F4A3010F34093AB02A0E0B0E04C
:101C30001FC050963C93509751962C9351975396B2
:101C40007C936E9352970115110531F480E1ED01FB
:101C500019928A95E9F707C0ED01F80180E101903A
:101C600009928150E1F78091402254968C935497C9
:101C7000CD01DF91CF911F910F9108950E94EC212A
:101C800010923D2110923C211092312180E094E08D
:101C90009093AD028093AC0220E049E150E00EC089
:101CA000822F90E0849FF001859FF00D949FF00DAE
:101CB0001124E05CFE4D118A108A2F5F2A3080F3D8
:101CC0002093AB020895E091C802F091C9023097C9
:101CD00011F480E00895099508959093C9028093C6
:101CE000C8020895FC018091640E9091650E91A741
:101CF00080A773A762A70895FC018091640E90915C
:101D0000650E968B858B708F678B08959C018091F3
:101D1000382190913921892B11F081E0089580912B
:101D2000640E9091650E9093392180933821309301
:101D30003B2120933A2180E008952091640E309158
:101D4000650E4091C2025091C3024817590789F4A9
:101D50008091C4029091C5028217930751F41092AA
:101D6000B9021092C3021092C202CA010E947A0400
:101D7000089581E08093B90208958AEB92E00E9471
:101D8000A301892B21F08AEB92E00E94F4020895CE
:101D9000CF93DF93E0910A21F0910B21309719F056
:101DA000EF01A89605C0C0910621D0910721659644
:101DB0008091032186FF1BC01092B7022091C202BE
:101DC0003091C302808991892817390759F480918D
:101DD000C4029091C502009729F0998388831B82E1
:101DE0001A8203C081E08093B7020E94BD0E8881F1
:101DF0009981009731F04A815B8160913A220E947B
:101E0000973EDF91CF9108958CE791E062E040E04A
:101E100050E00E94973E1092F41B1092F31B109218
:101E2000A9020895DF93CF930F92CDB7DEB78983D0
:101E30008091382190913921009739F060913B22AF
:101E4000AE014F5F5F4F0E94973E0F90CF91DF91A1
:101E50000895AC018CE791E060E00E94733E089524
:101E6000AC018CE791E061E00E94733E08950F930E
:101E70001F93CF93DF938091F31B9091F41B0097F6
:101E800009F41FC18150954008F00CC10BE11CE121
:101E900080911B1C90911C1C892B59F580911D1C55
:101EA00090911E1C892B29F580911F1C9091201C5C
:101EB000892BF9F48091211C9091221C892BC9F463
:101EC0008091231C9091241C892B99F48091251CCE
:101ED0009091261C892B69F48091271C9091281CD5
:101EE000892B39F48091291C90912A1C892B09F4A3
:101EF000D9C080911B1C8F3F09F4D9C08BE19CE1B4
:101F00000E94211E882379F48BE19CE10E94E01D50
:101F1000009731F40E944B208C01009721F4C2C03D
:101F20008C010D5E1F4FC8010E942D20EC0100970F
:101F300009F051C0C80160E070E040E020E00E947C
:101F4000B6228C01009709F4ADC0EC01AE96CE012B
:101F500064EF71E00E94051C892B99F0CE010E946C
:101F6000B81B23E03CE14091F31B5091F41BB901F5
:101F70000E9451526091F31B7091F41BCE010E949C
:101F8000D41B8BE09CE10E94D31FA8014F5F5F4FE1
:101F9000892B19F08BE09CE102C080E090E060E0CA
:101FA00070E00E947A176091492270914A228091D4
:101FB0004B2290914C2228EE33E040E050E00E940A
:101FC000D855C8018196BA01A9010E94EE4181E06D
:101FD000F80183A76CC08DA58823E9F4AE96CE01E5
:101FE00064EF71E00E94051C892B09F45BC0CE01EF
:101FF0000E94B81B23E03CE14091F31B5091F41B7D
:10200000B9010E9451526091F31B7091F41BCE01F3
:102010000E94D41B47C0823059F483E08DA7CE01C3
:10202000499645E050E060E070E00E94EE411BA65A
:102030006091492270914A2280914B2290914C22CA
:1020400028EE33E040E050E00E94D855CE01819662
:10205000BA01A9010E94EE418E010F5E1F4FC80117
:102060000E94630EAE96CE010E94C41B892BD1F054
:10207000CE010E94C41B9093F41B8093F31BCE01EE
:102080000E94B81BBC0123E03CE14091F31B50913E
:10209000F41BC9010E945152CE010E94DF1BC801EE
:1020A0000E94630E1092F41B1092F31B0AC080E092
:1020B00090E00E94630E1092F41B1092F31B10929A
:1020C000A902DF91CF911F910F910895DF92EF92B6
:1020D000FF920F931F93CF93DF937C018A01FC0142
:1020E00080819181009729F08C50934009F0F9C0CC
:1020F00026C01092C3021092C20281E08093B50202
:102100008091640E9091650E9093C7028093C602F1
:102110000E94183D80933A220E94183D80933B22F2
:102120008AEB92E06EE370E00E940A030E943E0E8A
:102130008CE093E0F7019183808381E0D6C0623028
:1021400009F4B1C0633030F4662309F48EC0613005
:1021500079F79BC0673819F0683851F73CC0109286
:10216000B602C2ECD2E013C08A819B81801791072E
:1021700041F4888199810E947A04198218821B8215
:102180001A8224968091B6028F5F8093B602809166
:10219000B602882349F3E1E3F1E283819481801759
:1021A000910719F4148213821082BC96CF0185978F
:1021B0008853914290F3E0E4F1E208C08589968962
:1021C0008017910711F4118A108A799682E2EA3316
:1021D000F807A1F7ADCFE2E04A3B5E0759F5CA0127
:1021E0000E94A301892B31F11092B6028CE2D82E05
:1021F0001DC0809131218823A1F08AEB92E00E94DA
:10220000F4028091B6028D9DC0011124845F9E4D21
:1022100090930B2180930A2182E00E9453050E9433
:10222000370F8091B6028F5F8093B6028091B6021D
:102230008823F9F2F7E20F381F0749F4C8010E941A
:10224000A301892B21F00E9486200E94370F23E2F0
:102250000339120709F06CCFC8010E94A301892B32
:1022600009F466CF0E945A231BC04115510509F499
:102270005FCF50930B2140930A2183E00E945305C6
:102280000E94370F0E94BD0E53CF4115510509F42E
:102290004FCF509307214093062185E00E945305BC
:1022A0000E94370F45CF8091F31B9091F41B892B2F
:1022B00009F43ECF8091091C863031F48091381C9E
:1022C00081FF02C00E94BD0E81E00E9453058091F3
:1022D000F31B9091F41B892B09F42ACF0E9404125E
:1022E00027CFF7011182108283E0DF91CF911F91F8
:1022F0000F91FF90EF90DF900895CF93DF93EA0165
:102300000E94C20DFC01009741F08091640E9091F3
:10231000650E968B858BD08FC78BCF01DF91CF91C8
:1023200008950F931F93DF93CF93CDB7DEB76097D8
:102330000FB6F894DEBF0FBECDBF8C01AB018FEF9F
:1023400092E09A8389831C821B821E821D821886DA
:102350001F821A8619861C861B861E861D8680E0B3
:1023600091E0988B8F87CE010196B8010E947D1174
:10237000FC01009711F0118B008BCF0160960FB616
:10238000F894DEBF0FBECDBFCF91DF911F910F91AB
:1023900008959C018091C2029091C302892B91F40F
:1023A0001092B8023093C3022093C2028091640E4F
:1023B0009091650E9093C5028093C402C9010E945A
:1023C0008C04089581E08093B80208950F931F93C1
:1023D000CF93DF938A010E941404EC01009771F0FF
:1023E0008091640E9091650E99A788A71BA70AA7F4
:1023F0008CE791E060E0AE010E94733ECE01DF9178
:10240000CF911F910F910895EF92FF920F931F9319
:102410008091091C863009F05DC08091F31B90917A
:10242000F41B8050954009F055C00EE912E010935E
:10243000F41B0093F31B92E0E92EE092071C86E761
:10244000F82EF092081C10923C1C10923B1C0E942B
:102450000C048095909590933C1C80933B1C0E94AB
:10246000370F1093F41B0093F31BE092071CF092BC
:10247000081C2091082130910921C901FC01DC01CF
:10248000AE59BD4F82E692E00D9001920197E1F7BF
:102490008FE29CE162E672E00E9415038091F71BD7
:1024A00080932F1C8091F81B8093301C8091F91B26
:1024B0008093311C8091FA1B8093321C10923C1C3B
:1024C00010923B1C0E940C048095909590933C1CAC
:1024D00080933B1C0E94370F1F910F91FF90EF904C
:1024E0000895EF92FF920F931F93CF93DF93F62EF1
:1024F000E42E890120E62093031C1092041C109204
:10250000061C1092051C2AE32093091C20914022EE
:1025100020930A1C0C5F1F4F212F332727FD3A956C
:10252000045010402093071C202F2C5F2093081C80
:10253000ABE1BCE1FC0180E101900D928150E1F73B
:102540008BE09CE16BE17CE10E94A11C8091A902DF
:10255000C82FD0E0C55DD34EF882E9821B821A8273
:102560000E940804809590959B838A83045D1F4F89
:102570001093F41B0093F31B0E94370FDF91CF9150
:102580001F910F91FF90EF90089523E03CE180911F
:10259000402280930A1C80911B1C8F3F81F4D9013B
:1025A0005896F901389680E101900D928150E1F73B
:1025B0008BE09CE16BE17CE10E94A11C1BC0AAECBA
:1025C000B2E0F901389680E101900D928150E1F777
:1025D000EBE0FCE1DF01509680E10D90019281502B
:1025E000E1F7ABE1BCE1EAECF2E080E101900D92B1
:1025F0008150E1F76091A902662301F18AE380939B
:10260000091C70E04091F31B5091F41B461B570BC3
:102610005093F41B4093F31B485250405093071CB7
:10262000485D5F4F842F88528093081C615D734E14
:102630004C5250408FE29CE10E945A521092A902E3
:1026400081E880932B1C10922C1C10922E1C10924F
:102650002D1C0E9408048095909590932E1C8093C9
:102660002D1C0895CF92DF92EF92FF920F931F934C
:10267000CF93DF93D82EC62E79018A011092A9023A
:102680008091091C8A3321F480912B1C87FF81C023
:10269000AAECB2E0EBE1FCE180E101900D92815007
:1026A000E1F78091F31B9091F41BC0969093F41B7B
:1026B0008093F31B8150954030F080E095E090933B
:1026C000F41B8093F31B4091F31B5091F41B405378
:1026D000504083E39CE163E07CE10E945A5280E633
:1026E0008093031C1092041C1092061C1092051C6F
:1026F0008AE38093091C8091402280930A1C809178
:102700000B1C90910C1C892B51F580910D1C909104
:102710000E1C892B21F580910F1C9091101C892B88
:10272000F1F48091111C9091121C892BC1F48091BD
:10273000131C9091141C892B91F48091151C90917D
:10274000161C892B61F48091171C9091181C892B01
:1027500031F48091191C90911A1C892BD1F0EBE176
:10276000FCE1DF01509780E10D9001928150E1F78B
:102770008091CA028F3F91F484E0D81651F422E090
:10278000C21639F48BE09CE16AEC72E00E94A11C55
:102790000EC01092F41B1092F31B35C0ABE0BCE1ED
:1027A000EAECF2E080E101900D928150E1F7E091D6
:1027B000A902CE2FD0E0FE01E55DF34ED082C182AA
:1027C000C801B7010E94BB04C15DD34E6883798301
:1027D0008A839B838091F31B9091F41B889790933D
:1027E000071C889688528093081C8091A902C82FE4
:1027F000D0E0C55DD34E1B821A820E9408048095EA
:1028000090959B838A83DF91CF911F910F91FF90C9
:10281000EF90DF90CF900895DF92EF92FF920F93A9
:102820001F93CF93DF9380910A1C8F3F09F0A5C2BD
:1028300080910B1C8E3F09F0A0C280910C1C803847
:1028400009F09BC28091A902282F30E0F901E55DD3
:10285000F34E8181882309F090C2F901E15DF34EC6
:102860008081882311F08093402264817581868164
:102870009781611571058105910561F1E090412213
:10288000F090422200914322109144220E94BB0406
:10289000E616F70608071907E9F0E091A902F0E04B
:1028A000E15DF34E64817581868197810E94BB044E
:1028B000609341227093422280934322909344225A
:1028C0000E94391D609345227093462280934722CF
:1028D00090934822E091A902F0E0E15DF34E60851B
:1028E000718582859385611571058105910551F08A
:1028F0000E94BB046093492270934A2280934B222A
:1029000090934C228CE08093DA0282E0D82EB6C1FC
:10291000F901ED5FF34E8181882309F42EC2808195
:10292000833009F45FC0853009F44DC0813009F06F
:1029300095C1F093DC02E093DB028BE09CE10E9406
:102940002D20FC019093F2028093F102009789F40C
:102950006091DB027091DC026E5F7F4F8BE09CE147
:1029600041E022E00E94B6229093F2028093F102AD
:1029700075C185A5882309F4D5A6C091DB02D09145
:10298000DC0222960091F1021091F2020F5E1F4FBD
:10299000CE01B80148E050E00E944452009761F037
:1029A000D801FE0188E001900D928150E1F7E0919D
:1029B000F102F091F202D5A6E091F102F091F2025B
:1029C00081E084A74BC164817581868197810E94D3
:1029D000BB0460933C2270933D2280933E229093EF
:1029E0003F223CC1F093DE02E093DD0264817581F9
:1029F000868197810E94BB047B018C01E091DD02FE
:102A0000F091DE0260857185828593850E94BB040A
:102A1000E616F7060807190708F420C1E091DD0261
:102A2000F091DE0280898E3F21F48189803809F49B
:102A300015C1838187FF5FC0CF01409662810E94EC
:102A4000F11FEC019093F0028093EF02E091DD0220
:102A5000F091DE02009749F5648175818681978146
:102A6000611571058105910509F445C0EF01609676
:102A70006F3F2FEF72072FEF82072FEF920741F082
:102A800012810E94BB049B01AC01CE01612F06C0E4
:102A9000CE01628120E030E040E050E00E94392128
:102AA0009093F0028093EF0226C064817581868145
:102AB0009781611571058105910549F06F3F3FEFE1
:102AC00073073FEF83073FEF930741F404C0CE0144
:102AD0000E942F1C10C081E08A8F0DC00E94BB0491
:102AE000AB01BC01CE0142960E94EE41E091EF02A3
:102AF000F091F002128EE091DD02F091DE0283810E
:102B000086FFACC084819581A681B7810097A1051D
:102B1000B10509F4A3C08281803409F09FC0AFEDF4
:102B2000B2E0709680E101900D928150E1F78FED57
:102B300092E06BEF7BE10E94A01D8FED92E00E947E
:102B4000D31FDC019093F6028093F502009709F4FD
:102B50005EC052962C915297213009F058C0E091F6
:102B6000DD02F091DE0264817581868197816F3F7D
:102B70003FEF73073FEF83073FEF930709F444C02C
:102B80000E94BB0461527C4180409040C0F4E091BF
:102B9000DD02F091DE0264817581868197810E9459
:102BA000BB047B018C018091F5029091F602449662
:102BB0000E9492416E157F0580079107A0F4009155
:102BC000F5021091F6020C5E1F4FE091DD02F091CC
:102BD000DE0264817581868197810E94BB04AB010E
:102BE000BC01C80109C08091F5029091F60244969B
:102BF00040E25CE160E070E00E94EE41E091F502AD
:102C0000F091F602138A2AC053962C9327C0E091C4
:102C1000DD02F091DE0264817581868197810E94D8
:102C2000BB046F5F7F4F8F4F9F4F39F48FED92E062
:102C300040E050E060E070E00EC0E091DD02F09115
:102C4000DE0264817581868197810E94BB04AB019D
:102C5000BC018FED92E021E00E94A1208091DA0278
:102C6000E091A902F0E0ED5FF34EE80FF11D95A5AC
:102C7000990F990F990F980F9093DA029091A902EA
:102C80008091DA02282F30E0290F311D245D3F4F5B
:102C90008091F31B9091F41B2817390708F438CE64
:102CA0008BE09CE10E940F209C019093F4028093A2
:102CB000F3028091A902E82FF0E0E15DF34E8281FA
:102CC0009381892B29F1A091F102B091F202109722
:102CD00019F081E09C968C93C091F302D091F4029C
:102CE00082819381209751F40E94B704AC0160E087
:102CF00070E08BE09CE10E948F2110C00E94B7041D
:102D0000AC0160E070E0CE0141960E94EE4106C049
:102D10002115310519F0C9010E942A1C8091F10288
:102D20009091F202009749F18E960E94C41B892B64
:102D300021F18091F1029091F2028E960E94C41BC3
:102D40009093F41B8093F31B8091F1029091F20217
:102D50008E960E94B81BBC0123E03CE14091F31B1E
:102D60005091F41BC9010E9451528091F10290913F
:102D7000F2028E960E94DF1B04C01092F41B109288
:102D8000F31BDF91CF911F910F91FF90EF90DF9098
:102D90000895CF93DF93FC01608382E08183EF018C
:102DA0002296ABEFBBE188E00D9009928150E1F7EC
:102DB000CF010A96FC0186E0DF011D928A95E9F7B2
:102DC000DF91CF910895CF93DF9383E09CE120E6DC
:102DD0002093031C1092041C1092061C1092051CD8
:102DE0002AE32093091C2FEF20930A1CFC017896FC
:102DF0002FEF32E030931C1C20931B1C1382128295
:102E00001582148217821682118610861386128606
:102E10001586148620E032E0378726870896BF01A2
:102E20000E94A11C4091A902242F30E0F901E55D28
:102E3000F34E85E8808311821092071C80910B1C51
:102E400090910C1C892BA1F580910D1C90910E1C6A
:102E5000892B71F580910F1C9091101C892B41F5E5
:102E60008091111C9091121C892B11F58091131CDB
:102E70009091141C892BE1F48091151C9091161CE3
:102E8000892BB1F48091171C9091181C892B81F427
:102E90008091191C90911A1C892B51F488E0809321
:102EA000081C205D3F4F3093F41B2093F31B11C08F
:102EB000842F90E0805C9F4F9093F41B8093F31BD2
:102EC00088E18093081CC9018D5C934E61E00E94EB
:102ED000C9168091A902C82FD0E0C55DD34E1B82D0
:102EE0001A820E940804809590959B838A83DF91C3
:102EF000CF9108950F931F93CF93DF938C01EA0135
:102F00001092A90280E68093031C1092041C109278
:102F1000061C1092051C8AE38093091C9FEF909376
:102F20000A1CEBE1FCE161157105B9F490931B1CDF
:102F300082E08183138212821582148217821682A4
:102F400011861086128681E0838794878D85858718
:102F50008E859F859787868707C0DF01FB0180E10B
:102F600001900D928150E1F787E880932B1C10921D
:102F70002C1C10922F1C1092301C1092311C10929D
:102F8000321CA3E3BCE1FE0180E101900D9281506F
:102F9000E1F71092071CCE010E94D31F892B01F587
:102FA0000115110549F0ABE0BCE1F80180E10190A9
:102FB0000D928150E1F706C08BE09CE16BE17CE172
:102FC0000E94A11C88E28093081C8091A90290E0D5
:102FD0008D5B934E61E00E94C91680E590E025C0AC
:102FE00010920C1C10920B1C10920E1C10920D1CB7
:102FF0001092101C10920F1C1092121C1092111C97
:103000001092141C1092131C1092161C1092151C76
:103010001092181C1092171C10921A1C1092191C56
:1030200088E18093081C80E490E09093F41B8093E7
:10303000F31B8091A902C82FD0E0C55DD34E1B823F
:103040001A820E940804809590959B838A83DF9161
:10305000CF911F910F910895DF92EF92FF920F93FE
:103060001F93CF93DF939091A902E92FF0E0DF0146
:10307000A15DB34EFC9080910A1C8F3F09F03BC1CB
:10308000E55DF34E8181882309F035C114968C915A
:1030900014978F3F09F42FC120E4D22EDF20F6FED3
:1030A00005C080911B1C8F3F09F425C184E18093EA
:1030B000DA021092DC021092DB02C091F31BD09175
:1030C000F41B40E050E064E1292F30E0245D3F4FE5
:1030D0000FC0FC01ED5FF34E9181992309F405C106
:1030E0008081823009F4AF01990F990F990F690F10
:1030F000C901860F911D8C179D0758F35093DC0270
:103100004093DB026093DA02CD0104960E94D31F44
:10311000FC019093F6028093F502009741F08189BB
:10312000882309F0E8C0CF010E94921FE4C080917B
:10313000A90290E08D5C934E0E942D208C0190930B
:10314000F2028093F102009709F4D5C0C091DB022E
:10315000D091DC02209711F420E00AC0BC016F5E20
:103160007F4FCE01029648E050E00E944452282F43
:1031700090E8E92EEF20F80185A5882369F52097CE
:1031800009F4B9C0D8015196FE01329688E0019049
:103190000D928150E1F7C091F102D091F202DD2051
:1031A000C1F081E08DA71BA6609145227091462257
:1031B000809147229091482228EE33E040E050E091
:1031C0000E94D855CE014996BA01A9010E94EE414C
:1031D0005AC082E08DA757C0F5FC09C0222339F000
:1031E000813009F088C082E0F80185A784C020976B
:1031F00049F0D8015196FE01329688E001900D9277
:103200008150E1F7DD20E1F00091F1021091F2022E
:1032100081E0F80185A76091452270914622809156
:1032200047229091482228EE33E040E050E00E948F
:10323000D855C8014996BA01A9010E94EE410EC0B5
:103240008091DB029091DC02892B41F0222331F046
:10325000E091F102F091F20282E085A7E091F102A3
:10326000F091F20284A5882371F0EE2061F48BE0E6
:103270009CE10E940F209093F4028093F302009748
:1032800011F00E942A1CE091F102F091F202E4A6F2
:103290008091F1029091F2028E960E94C41B892BBC
:1032A00051F18091F1029091F2028E960E94C41B1E
:1032B0009093F41B8093F31B8091F1029091F202A2
:1032C0008E960E94B81BBC0123E03CE14091F31BA9
:1032D0005091F41BC9010E9451528091F1029091CA
:1032E000F2028E960E94DF1B0AC05093DC024093CC
:1032F000DB026093DA021092F41B1092F31BDF9151
:10330000CF911F910F91FF90EF90DF900895DF9282
:10331000EF92FF920F931F93CF93DF9380910A1C3C
:103320008F3F09F015C28091A902E82FF0E0ED5F10
:10333000F34E80A98F3F09F40BC281A5882309F0C1
:1033400007C21092DC021092DB0284E18093DA0261
:1033500042E0D42E89C0F901ED5FF34E81818823CC
:1033600009F4F6C18081813009F06EC0F093DC026F
:10337000E093DB0280910B1C90910C1C892B59F57A
:1033800080910D1C90910E1C892B29F580910F1CAA
:103390009091101C892BF9F48091111C9091121CB2
:1033A000892BC9F48091131C9091141C892B99F4DA
:1033B0008091151C9091161C892B69F48091171C23
:1033C0009091181C892B39F48091191C90911A1C2A
:1033D000892B09F4BDC18BE09CE10E942D20EC01FA
:1033E0009093F2028093F1026091DB027091DC0213
:1033F000009749F46E5F7F4F8BE09CE140E022E054
:103400000E94B62221C032E0E32EF12CE60EF71E18
:103410008C010F5E1F4FC701B80148E050E00E94C9
:103420004452009769F0D801F70188E001900D92AD
:103430008150E1F7E091F102F091F202D5A604C0CB
:103440008DA5882309F4DDA68091DA02E091A90216
:10345000F0E0ED5FF34EE80FF11D95A5990F990F80
:10346000990F980F9093DA028091A902482F50E0AB
:103470008091DA029A01280F311D245D3F4F80911F
:10348000F31B9091F41B2817390708F464CFCA0185
:103490008D5C934E0E94D31FFC019093F6028093A3
:1034A000F502009709F454C180910B1C90910C1CFB
:1034B000892B09F099C080910D1C90910E1C892BCD
:1034C00009F092C080910F1C9091101C892B09F07B
:1034D0008BC08091111C9091121C892B09F084C023
:1034E0008091131C9091141C892B09F07DC0809150
:1034F000151C9091161C892B09F076C08091171C21
:103500009091181C892B09F06FC08091191C909123
:103510001A1C892B09F068C080911B1C8F3F09F091
:1035200017C180911C1C823009F012C180911D1CB2
:1035300090911E1C892B09F00BC180911F1C90914A
:10354000201C892B09F004C18091211C9091221C20
:10355000892B09F0FDC08091231C9091241C892B9C
:1035600009F0F6C08091251C882309F0F1C08091F4
:10357000261C813009F0ECC08091271C8F3F09F098
:10358000E7C08189882361F18FEF92E090931C1C42
:1035900080931B1C10921E1C10921D1C1092201C4C
:1035A00010921F1C1092221C1092211C1092241C9D
:1035B0001092231C1092261C1092251C1092281C7D
:1035C0001092271C80E091E090932A1C8093291C84
:1035D0008BE09CE16BE17CE10E94A11C90E272C057
:1035E000CF010E94921FB4C08BE09CE10E94D31FC8
:1035F000892B09F0ADC080911B1C8F3F09F03FC0A3
:1036000080911C1C8230D9F580911D1C90911E1C4C
:10361000892BA9F580911F1C9091201C892B79F58D
:103620008091211C9091221C892B49F58091231CAB
:103630009091241C892B19F58091251C8823F9F47D
:103640008091261C8130D9F48091271C8F3FB9F4DA
:10365000EBE1FCE1DF01509780E10D900192815098
:10366000E1F78091A902E82FF0E0ABE0BCE1ED5C6E
:10367000F34E80E101900D928150E1F722C08BE181
:103680009CE10E94D31F2091F5023091F602281789
:10369000390709F05DC0EBE1FCE1DF01509780E103
:1036A0000D9001928150E1F78091A902E82FF0E09E
:1036B000ABE0BCE1ED5CF34E80E101900D928150F6
:1036C000E1F790E61092A90280E68093031C109225
:1036D000041C1092061C1092051C1092071C88E214
:1036E0008093081C8AE38093091C8FEF80930A1C47
:1036F00088E880932B1C10922C1C90932F1CE09137
:10370000F502F091F602A3E3BCE1319680E101906D
:103710000D928150E1F78091A90290E08D5B934E6C
:1037200062E00E94C9168091A902C82FD0E0C55D51
:10373000D34E1B821A820E940804809590959B8329
:103740008A8380E590E09093F41B8093F31B04C080
:103750001092F41B1092F31BDF91CF911F910F91E8
:10376000FF90EF90DF900895FC0111821082089580
:10377000FC0180819181009719F4E0E0F0E002C043
:10378000FC013296CF010895FC010190F081E02DFB
:10379000309719F4E0E0F0E005C0EE5FFA4F0190D9
:1037A000F081E02DCF010895FC010190F081E02D22
:1037B000309721F0EE5FFA4F718360830895CF93C5
:1037C000DF93EC0188819981009761F08C5F9A4FBB
:1037D0000E9482406881798186E891E00E94333FAF
:1037E00019821882DF91CF9108950F931F938C0156
:1037F000FC016081718186E891E00E94333FF8010D
:10380000118210821F910F9108950F931F93CF93F0
:10381000DF93EC018B0188819981892B19F020E0DD
:1038200030E012C086E891E00E94053F99838883CA
:10383000009741F08C5F9A4FB80145EF5BE19E0124
:103840000E94C44028813981C901DF91CF911F9125
:103850000F910895FC01009709F010820895FC0172
:10386000009709F010820895682F8EE492E29093F9
:10387000390D8093380DFC01462F552747FD509593
:1038800016C08081882391F06F3F29F0818990E0F4
:103890008417950759F481818E3F41F482818038E5
:1038A00029F4F093390DE093380D0CC0B1969F01C7
:1038B00082E2E23DF80728F3F093390DE093380DEA
:1038C00020E030E0C9010895682F8EE492E29093E1
:1038D000390D8093380DFC01462F552747FD509533
:1038E00016C08081882391F06F3F29F0818990E094
:1038F0008417950759F481818E3F19F482818038AD
:1039000029F0F093390DE093380D0CC0B1969F016A
:1039100082E2E23DF80728F3F093390DE093380D89
:1039200020E030E0C9010895FC01009709F0108201
:103930000895FC01009709F010820895FC0110829F
:103940000895FF920F931F93CF93DF938C01FB0198
:1039500080818E3F21F48181803821F444C08F3FE3
:1039600009F441C08EE492E29093390D8093380DB2
:10397000FF2440E050E02EC08081882331F181890E
:10398000813019F581818E3F19F482818038E9F008
:10399000EB01DF0180E0388111962C9111973217ED
:1039A00031F4885F219611968038A9F70AC0232741
:1039B000982F985F27FD05C08F5F891711F0220FA0
:1039C000F9CF8F1510F0F82EAF01B196F093390DA5
:1039D000E093380DE091380DF091390D82E2E23D2F
:1039E000F80750F204C081E00E94341CAC0141157C
:1039F000510591F4F801118210821382128215820E
:103A000014821782168211861086138612861586F6
:103A100014861786168608C0D801FA01319680E10F
:103A200001900D928150E1F7DF91CF911F910F919D
:103A3000FF90089540E020E030E0FC01E20FF31F2A
:103A40005081FB01E20FF31FE0815E1731F4485F04
:103A50002F5F3F4F403889F70AC0E527842F885FE2
:103A6000E7FD05C04F5F481711F0EE0FF9CF842F27
:103A70000895DF92EF92FF920F931F930E940042EE
:103A8000D82E0E940042E0904122F0904222009104
:103A90004322109144223D2D20E0280F391F40E0A1
:103AA00050E0CA01B901A80197010E94D8559B01B5
:103AB000AC0116950795F794E7942E0D3F1D401F16
:103AC000511FB901CA011F910F91FF90EF90DF9034
:103AD0000895CF93DF93EC0198A180914D22981720
:103AE00050F5AE014F5F5F4F80E090E060E070E026
:103AF0000E947A1788A18F5F88A3609149227091F4
:103B00004A2280914B2290914C2228EE33E040E0F3
:103B100050E00E94D855CA01B9012DE730E040E0DD
:103B200050E00E94A5559B01AC01CE014C96B90115
:103B30000E94E93F02C081E0898BDF91CF91089517
:103B4000CF93DF93DC01EC012896FB0188E0019024
:103B500009928150E1F718968C91189792E0892785
:103B600018968C93DF91CF9108950F931F93CF9365
:103B7000DF938C0187E997E29093450D8093440D84
:103B800012C08881882351F0CE014396B80140E1EC
:103B900050E00E944452009709F41882AE96D093E8
:103BA000450DC093440DC091440DD091450D8BE25D
:103BB000CF32D80730F3DF91CF911F910F91089545
:103BC000CF92DF92EF92FF920F931F93CF93DF93E9
:103BD0006C0187E997E29093450D8093440D00E0D6
:103BE00010E0EE241CC08881882391F0F988FE142F
:103BF00078F0BE016F5F7F4F4F2D469546954695F5
:103C0000C60150E00E944452009711F48E0101C099
:103C1000FE2CAE96D093450DC093440DEF2CC09171
:103C2000440DD091450D8BE2CF32D807E0F2C801A8
:103C3000DF91CF911F910F91FF90EF90DF90CF9088
:103C400008950F931F93CF93DF938C0187E293E244
:103C500090933F0D80933E0D16C08881882371F0AC
:103C60004989469546954695CE010196B80150E0A2
:103C70000E944452009711F481E00EC06B96D093DD
:103C80003F0DC0933E0DC0913E0DD0913F0D83E29C
:103C9000C339D80710F380E0DF91CF911F910F91C6
:103CA00008958F929F92AF92BF92DF92EF92FF9210
:103CB0000F931F93CF93DF935A014901D02EF70141
:103CC0001182108270E0469F8001479F100D569F21
:103CD000100D1124080F191FD694D694D694EC0118
:103CE00016C08881882371F0CE010196B4014D2D54
:103CF00050E00E944452009741F4F701D183C08301
:103D000080E010C0F701D183C083CA0DDB1DC0174E
:103D1000D10738F3F70180819181892B11F482E07A
:103D200001C081E0DF91CF911F910F91FF90EF9043
:103D3000DF90BF90AF909F908F9008959F92AF9229
:103D4000BF92CF92DF92EF92FF920F931F93CF9388
:103D5000DF93182FD92EC62EB42EA52E922E87E9CA
:103D600097E264E14EE250E0212F3D2D0C2D74E4EA
:103D7000E72E7DE0F72E0E94511E8130E1F4C091C4
:103D8000440DD091450DFE018193812F9D2D9C0105
:103D9000D90180E10D9001928150E1F7C98ADE01DD
:103DA00053968B2D9A2D9C01F90180E101900D9283
:103DB0008150E1F79A8A8091440D9091450DDF91F1
:103DC000CF911F910F91FF90EF90DF90CF90BF9018
:103DD000AF909F900895EF92FF920F939C0182ED18
:103DE00092E260E041E150E000E8ECE3EE2EEDE02D
:103DF000FE2E0E94511E882319F020E030E004C0FE
:103E000020913C0D30913D0DC9010F91FF90EF9035
:103E10000895DF92EF92FF920F931F93182FD92EE0
:103E200082ED92E260E041E150E0212F3D2D00E87B
:103E3000FCE3EF2EFDE0FF2E0E94511E813019F0B1
:103E400040E050E00FC040913C0D50913D0DFA0113
:103E50008193812F9D2D9C01D90180E10D900192CC
:103E60008150E1F7CA011F910F91FF90EF90DF9011
:103E70000895EF92FF920F939C0182ED92E265E02C
:103E800041E150E000E8AAE3EA2EADE0FA2E0E94FC
:103E9000511E882319F020E030E004C020913A0D33
:103EA00030913B0DC9010F91FF90EF900895CF9392
:103EB000DF93EC01009799F19FEF9093260D82E03C
:103EC0008093270D1092290D1092280D10922B0D22
:103ED00010922A0D10922D0D10922C0D10922F0D74
:103EE00010922E0D1092300D81E08093310D909341
:103EF000320D8E858093330D8F8598899093350D83
:103F00008093340D86E29DE00E94391FFC0190935E
:103F10003B0D80933A0D009709F010821882DF91D3
:103F2000CF910895FC0181818E3F31F482818038E8
:103F300019F420E030E005C0CF010E94571F21E0B6
:103F400030E0C9010895DF92EF92FF920F931F9323
:103F5000182FD92E82ED92E265E041E150E0212F49
:103F60003D2D00E8BAE3EB2EBDE0FB2E0E94511E72
:103F7000813019F040E050E00FC040913A0D50916F
:103F80003B0DFA018193812F9D2D9C01D90180E188
:103F90000D9001928150E1F7CA011F910F91FF909E
:103FA000EF90DF900895EF92FF920F939C018EE4C3
:103FB00092E264E041E250E000E878E3E72E7DE041
:103FC000F72E0E94511E882319F020E030E004C033
:103FD0002091380D3091390DC9010F91FF90EF906C
:103FE0000895EF92FF920F939C01062F87E293E2D0
:103FF00064E04BE150E0EEE3EE2EEDE0FE2E0E9499
:10400000511E882319F020E030E004C020913E0DBD
:1040100030913F0DC9010F91FF90EF900895EF92FD
:10402000FF920F939C018BE993E262E04AE150E03A
:1040300000E8F2E4EF2EFDE0FF2E0E94511E8823DF
:1040400019F020E030E004C02091420D3091430D82
:10405000C9010F91FF90EF900895EF92FF920F9397
:104060009C018FEC93E264E140E350E000E8A0E4BF
:10407000EA2EADE0FA2E0E94511E882319F020E0AE
:1040800030E004C02091400D3091410DC9010F91E5
:10409000FF90EF9008951092370D1092360D8BE936
:1040A00093E222C080818823D1F0CF0101960E9443
:1040B0002D20FC01009751F085A5882339F020912F
:1040C000420D3091430D2F5F3F4F1EC08091420D36
:1040D0009091430D01969093370D8093360D80910A
:1040E000420D9091430D4A969093430D8093420D5B
:1040F000E091420DF091430D83E2EF3CF80790F21E
:104100002091360D3091370DC90108950E944B2042
:10411000892B91F48091250D833070F40E94E31671
:104120008091250D8F5F8093250D8FE897E264EFD6
:1041300071E00E940A0308958FE897E20E94080246
:1041400008958F929F92AF92BF92CF92DF92EF929B
:10415000FF920F931F93CF93DF934C015A016B0192
:10416000122F8EE492E264E041E250E0940100E814
:10417000B8E3EB2EBDE0FB2E0E94511E813019F0FA
:1041800020E030E068C0A091380DB091390DFD01FC
:104190008193E40180E1099001928150E1F7519609
:1041A0001C92519752961C935297A114B104C104CA
:1041B000D10421F481E053968C9309C053961C924C
:1041C0005397CD014496B601A5010E94EE4100919E
:1041D000380D1091390D045E1F4F0E9400426DE7AB
:1041E00070E00E94C455BC01C8010E94E93FE09103
:1041F000380DF091390D10A29FEF9093260D82E0BB
:104200008093270D1092290D1092280D10922B0DDE
:1042100010922A0D10922D0D10922C0D10922F0D30
:1042200010922E0D1092300D81E08093310D9093FD
:10423000320DF40185858093330D868597859093A3
:10424000350D8093340D86E29DE00E94A31F2091DE
:10425000380D3091390DC901DF91CF911F910F9128
:10426000FF90EF90DF90CF90BF90AF909F908F9096
:1042700008958F929F92AF92BF92CF92DF92EF926A
:10428000FF920F931F93CF93DF93182F992E862EB3
:1042900059016A0187E293E264E04BE150E0212F8B
:1042A000392D082D7EE3E72E7DE0F72E0E94511E6A
:1042B000813031F5A0913E0DB0913F0DFD0181930C
:1042C000812F992D9C01E90180E109900192815093
:1042D000E1F751968C925197A114B104C104D10415
:1042E00061F0CD014296B601A5010E94EE41E09138
:1042F0003E0DF0913F0D128E03C081E05A968C93D3
:1043000080E090E0DF91CF911F910F91FF90EF90AF
:10431000DF90CF90BF90AF909F908F9008959F9225
:10432000AF92BF92CF92DF92EF92FF920F931F93C3
:10433000CF93DF93182F992E5A016B018BE993E2EB
:1043400062E04AE150E0212F392D00E8E2E4EE2E50
:10435000EDE0FE2E0E94511E813019F020E030E089
:1043600026C0C091420DD091430DFE018193812F53
:10437000992D9C01D90180E10D9001928150E1F7C6
:10438000A114B104C104D10461F0CE014196B6017B
:10439000A5010E94EE41E091420DF091430D118E76
:1043A00002C081E0898F2091420D3091430DC901F7
:1043B000DF91CF911F910F91FF90EF90DF90CF9001
:1043C000BF90AF909F900895FC01009721F010825C
:1043D0008E960E94DF1B089580EC93E0EFECF3E2F1
:1043E000DF019C011D9221503040E1F784E3EBE9AD
:1043F000F3E2DF011D928A95E9F78CE6E7E2F3E24A
:10440000DF011D928A95E9F78BEEECE3F2E2DF0122
:104410001D928A95E9F788E993E0E7E9F7E2DF0181
:104420009C011D9221503040E1F780E095E0A0E032
:10443000B0E080933C2290933D22A0933E22B09323
:104440003F2280E48093402280E395E7A0E0B0E043
:104450008093412290934222A0934322B09344221E
:104460000E94391D60934522709346228093472213
:104470009093482288EE93E0A0E0B0E08093492238
:1044800090934A22A0934B22B0934C2281E08093D8
:104490004D228EEF90E89093270D8093260D109279
:1044A000290D1092280D10922B0D10922A0D1092AA
:1044B0002D0D10922C0D86E29DE060E420E030E0AE
:1044C00040E050E00E943921AEE2BDE0EBEFFBE1BD
:1044D00088E001900D928150E1F780912E0D92E0DD
:1044E000892780932E0D86E29DE040E050E060E059
:1044F00070E021E00E94A1208FEF92E09093270DC1
:104500008093260D1092290D1092280D10922B0DDC
:1045100010922A0D10922D0D10922C0D10922F0D2D
:1045200010922E0D1092310D1092300D1092330D0D
:104530001092320D80E091E09093350D8093340D10
:1045400086E29DE00E94A31F0E9400426DE770E09A
:104550000E94C455BC018FE897E20E940A0383E9D8
:1045600093E26CE070E00E940A030895BF92CF923C
:10457000DF92EF92FF920F931F93CF93DF93182F49
:10458000D92EEB01C42EB22E8FEC93E264E140E30E
:1045900050E0212F3D2D00E8F0E4EF2EFDE0FF2E4E
:1045A0000E94511E90E08130910509F054C0409165
:1045B000400D5091410DDA0181E08D93212F3D2D69
:1045C000C901FC0180E101900D928150E1F7CA011F
:1045D0004196209741F0FC01DE0188E00D900192A8
:1045E0008150E1F706C0FC0188E0DF011D928A9549
:1045F000E9F7E091400DF091410DC4A6B5A6CF01B9
:104600008E960E94B41B8091400D9091410D499669
:1046100040E050E060E070E00E94EE418091400D8B
:104620009091410D819640E050E060E070E00E9482
:10463000EE410091400D1091410DF80113A60E942A
:104640000733D8019A969C938E9399972091400DA9
:104650003091410D24C0029701F50E940733AC014F
:10466000EFECF3E260E070E00DC08081882339F068
:1046700021A532A52417350710F4BF0101C09A0106
:10468000F096A901B7E2EF38FB0779F761157105DC
:1046900021F0CB010E94E42177CF20E030E0C90176
:1046A000DF91CF911F910F91FF90EF90DF90CF900E
:1046B000BF900895DF92EF92FF920F931F938EE4C5
:1046C00092E230C08081882341F18389882369F494
:1046D000CF0144960E94B841892B39F08091380D62
:1046E0009091390D0E94571F18C0E091380DF0913C
:1046F000390D8189882389F490A180914D228917F1
:1047000060F0CF014C960E94C63F892B31F080911A
:10471000380D9091390D0E94691D8091380D90914E
:10472000390D81969093390D8093380DE091380DB5
:10473000F091390D82E2E23DF80720F28BE993E235
:1047400018C08081882381F0818D882369F4CF018E
:1047500041960E94B841892B39F0E091420DF091C9
:10476000430D309709F010828091420D9091430DD6
:104770004A969093430D8093420DE091420DF09143
:10478000430D83E2EF3CF807E0F287E293E218C0C2
:104790008081882381F0828D882369F4CF0142963D
:1047A0000E94B841892B39F0E0913E0DF0913F0D08
:1047B000309709F0108280913E0D90913F0D4B96FD
:1047C00090933F0D80933E0DE0913E0DF0913F0D93
:1047D00083E2E339F807E0F28FEC93E29093410D26
:1047E0008093400DB2E0EB2EA4E0DA2EFF24F39488
:1047F0008EC08081882309F481C085A5813009F1AC
:10480000813030F0833051F1843009F077C034C00A
:1048100083A5833010F0CF0142C0CF0181960E9462
:10482000B841892B09F46AC0E091400DF091410D27
:1048300083A58F5F83A7319680E090E060E070E011
:1048400042C0CF0149960E94B841892B09F456C055
:10485000E091400DF091410DE5A650C0CF01499681
:104860000E94B841892B09F449C0E091400DF091B4
:10487000410DD5A6F3A623C083A5833098F0CF01C0
:1048800001960E940F20FC019093430D8093420DEE
:10489000009709F010828091400D9091410D0E9487
:1048A000E4212CC0CF0181960E94B841892B31F1BF
:1048B000E091400DF091410D83A58F5F83A7319664
:1048C00080E090E0BF01AF010E947A170091400D97
:1048D0001091410D6091492270914A2280914B22A2
:1048E00090914C2228EE33E040E050E00E94D855F1
:1048F000C8018196BA01A9010E94EE418091400D44
:104900009091410DC0969093410D8093400DE091A0
:10491000400DF091410D87E2EF38F80708F469CFB8
:1049200083E993E20E94FF021F910F91FF90EF90A5
:10493000DF9008959C01F999FECF32BD21BDF89A10
:1049400080B5089500D000D000D0EDB7FEB7319605
:104950002CE830E0ADB7BEB712963C932E9311977A
:1049600093838283758364830E94A3528DB79EB71D
:1049700006960FB6F8949EBF0FBE8DBF0895EF92B6
:10498000FF920F931F93DF93CF93CDB7DEB7289796
:104990000FB6F894DEBF0FBECDBF0E9417350E9440
:1049A000273581E068E046E00E94133481E00E94F0
:1049B000F3340E94F73200D000D080E491E0ADB72C
:1049C000BEB712969C938E9311978EE891E0149641
:1049D0009C938E9313970E94A3520F900F900F9069
:1049E0000F900E9468410E94BA3D85E691E060E028
:1049F00070E00E94A63E0E942141E091FE01F091EC
:104A0000FF0109958E010F5F1F4F88E0F801119299
:104A10008A95E9F7C80160E070E048E050E02AE9D3
:104A200034E20E948752ABEFBBE1F80188E00190CD
:104A30000D928150E1F78DEC9BEA60E070E0AE01F1
:104A40004F5F5F4F0E944939F999FECF88E090E0AF
:104A500092BD81BDF89A80B580932F2BF999FECF36
:104A600089E090E092BD81BDF89A80B520912F2B0E
:104A700030E090E0809590952817390711F08AE191
:104A800002C080912F2B0E946237CE0101960E94B6
:104A9000C33B0E94C344E0913D02F0913E02099560
:104AA000E0912402F09125020995E0918F02F091A6
:104AB000900209950091220210912302E0903B029E
:104AC000F0903C020E94D3352DB73EB728503040BD
:104AD0000FB6F8943EBF0FBE2DBFEDB7FEB73196AF
:104AE0002EE231E0ADB7BEB712963C932E931197EC
:104AF00013830283F582E482868317820E94A35285
:104B0000E0914702F09148022DB73EB7285F3F4F32
:104B10000FB6F8943EBF0FBE2DBF3097F1F0099548
:104B2000BC018DE790E00E94C4558FEF6F3F78077E
:104B3000A1F000D000D08BE191E0ADB7BEB71296E6
:104B40009C938E93119714967C936E9313970E9467
:104B5000A3520F900F900F900F9000D089E191E039
:104B6000EDB7FEB7928381830E94A3520F900F90FE
:104B70008CE791E060E070E00E94A63E85E591E060
:104B80000E94F63E8AE991E061E070E00E94A32A6B
:104B900097FF41C000D088EE90E0ADB7BEB7129647
:104BA0009C938E9311970E94A3528DEB90E0EDB7EA
:104BB000FEB7928381830E94A3520F900F900E94B0
:104BC0009D2600D086EB90E0ADB7BEB712969C93C1
:104BD0008E9311970E94A3520F900F908AE991E053
:104BE00062E070E00E94A32A8C0166EA71E049E06D
:104BF00050E00E94A22C97FF0BC000D08AE990E001
:104C0000EDB7FEB7928381830E94A3520F900F905D
:104C1000C8010E942C2600D082E990E0ADB7BEB753
:104C200012969C938E9311970E94A3520F900F900F
:104C300028960FB6F894DEBF0FBECDBFCF91DF919F
:104C40001F910F91FF90EF9008950E94BF240E9442
:104C5000CA3D0E943C35FBCF9C0188309105E0F4B1
:104C6000DC01AA0FBB1FAA0FBB1FA20FB31FA859BD
:104C7000B24F14968C911497882371F014961C925D
:104C800014971296ED91FC9113978681815086833B
:104C900013961C921E9212970895CF93DF939C0156
:104CA00088309105D8F5DC01AA0FBB1FAA0FBB1FE6
:104CB000A20FB31FA859B24F14968C911497882352
:104CC00069F14115510511F4FB0113C04230510542
:104CD00041F41296ED91FC9113970190F081E02D33
:104CE00006C041305105D1F4ED91FC911197E60FCA
:104CF000F71FF7FD13C01296CD91DC9113979B819E
:104D000080E08E179F0754F0888199818E179F0746
:104D100014F4F983E883ED93FC9302C0EFEFFFEF07
:104D2000CF01DF91CF9108950895FC018AE490E0CE
:104D30009183808388E49DE008951F931092900DE5
:104D400010E0812F0E941AFD1F5F103AD1F78AE40C
:104D5000E8E4FDE0DF011D928A95E9F780E090E04C
:104D60001F910895FC01108280E090E008958F92D9
:104D70009F92AF92BF92CF92DF92EF92FF920F93EA
:104D80001F93DF93CF93CDB7DEB768970FB6F89434
:104D9000DEBF0FBECDBF6C0148E4E42E4DE0F42E23
:104DA0004E010894811C911C39E0A32EB12CAC0E4D
:104DB000BD1E8701F70183818823B9F080E09281CD
:104DC000B40148E150E00E94022D888581FF0DC0AA
:104DD00082FD0BC085FD09C084FD07C0C601B50179
:104DE0000E947E52009709F464C088E090E0E80ECB
:104DF000F91E98E6E9169DE0F906D9F6FF245E0152
:104E00000894A11CB11C8E01075F1F4F80E09F2DED
:104E1000B50148E150E00E94022D8885E82E81FF0F
:104E20003EC082FD3AC085FD38C084FD36C0C60153
:104E3000B8010E947E52009781F5EBE4FDE020E08E
:104E400030E04FEF5FEF8081882359F08381882322
:104E500009F4A9012F5F3F4F38962430310599F7A7
:104E60003CC0A9018A0123E0000F111F2A95E1F738
:104E7000085B124FF801F2828FEF9FEF91838083DE
:104E80008E8183831782E3FE02C081E087838FEFE8
:104E90009FEFF801958384830CC0E5FE02C0F39474
:104EA00002C08E81F80EFFE9FF1508F0AFCF00E0D9
:104EB00010E0C80168960FB6F894DEBF0FBECDBFF4
:104EC000CF91DF911F910F91FF90EF90DF90CF90E6
:104ED000BF90AF909F908F9008958FEF4F3F5807EE
:104EE00009F6E5CF8F929F92AF92BF92DF92EF9239
:104EF000FF920F931F93DF93CF93CDB7DEB76897E1
:104F00000FB6F894DEBF0FBECDBFD82EF090900D37
:104F1000EE24EA944E010894811C911CA82EBB2417
:104F20002EC00F2D10E080E09F2DB40148E150E02D
:104F30000E94022D888581FD1AC08FEFE81631F49A
:104F40000A0D1B1D003A1105FCF4EF2CF39495019A
:104F50002E0D311D8F2D90E08217930784F08091E4
:104F6000900DE81689F4DE0CD092900D0DC085FFEF
:104F700002C0F39402C08E81F80EEE24EA948FE909
:104F80008F1578F6EE24EA948E2D68960FB6F89475
:104F9000DEBF0FBECDBFCF91DF911F910F91FF906C
:104FA000EF90DF90BF90AF909F908F900895CF9239
:104FB000DF92EF92FF920F931F93DF93CF93CDB7C2
:104FC000DEB7C851D1400FB6F894DEBF0FBECDBFDB
:104FD000E82E80E09E2DBE016F5F7F4F48E150E0DC
:104FE0000E94022D1E81115059E1C52ED12CCC0EEC
:104FF000DD1E012F80E0912F9E0DB60140E051E0B3
:105000000E94022D4FEF50E0F601E40FF51F808162
:10501000882361F0112319F44831510578F0302FBD
:1050200020E0240F351F275130400AC04150504026
:105030008FEF4F3F580741F71150DBCF20E030E0B2
:10504000C901C85EDE4F0FB6F894DEBF0FBECDBFFC
:10505000CF91DF911F910F91FF90EF90DF90CF9054
:1050600008950F931F93CF93DF938A0188309105A2
:1050700088F5EC01CC0FDD1FCC0FDD1FC80FD91F49
:10508000C859D24F8C81882329F180FF23C0EA813F
:10509000FB812881398140815181C801820F931F92
:1050A0004817590718F48A01021B130B878180FDEA
:1050B0000FC0285E3F4F928180E0820F931FA801AE
:1050C0000E94022D88819981800F911F9983888386
:1050D000A80102C04FEF5FEFCA01DF91CF911F918E
:1050E0000F910895AF92BF92CF92DF92EF92FF920D
:1050F0000F931F93DF93CF93CDB7DEB768970FB6AB
:10510000F894DEBF0FBECDBF9C016B017A01CA01CE
:1051100001978F3F910509F068F56417750750F105
:10512000C9010E94B7268C01009721F180E0F801A7
:1051300092815E010894A11CB11CB50148E150E0C8
:105140000E94022D288523FD15C0C601B7010E94CB
:10515000C4557B836A83FD82EC82F80192812160D1
:10516000288780E0B50148E150E00E9400FC20E083
:1051700030E002C02FEF3FEFC90168960FB6F894F8
:10518000DEBF0FBECDBFCF91DF911F910F91FF907A
:10519000EF90DF90CF90BF90AF900895CF92DF92C5
:1051A000FF920F931F93DF93CF93CDB7DEB768972E
:1051B0000FB6F894DEBF0FBECDBFF82E8B016A018B
:1051C00080E09F2DBE016F5F7F4F48E150E00E945D
:1051D000022D8885282F30E081FF48C0C9018472E4
:1051E0009070892B09F042C0012B69F023FF0BC09E
:1051F000898160E070E040E050E020E030E00E9413
:10520000CE2897FD33C088858560888780E09F2DF4
:10521000BE016F5F7F4F48E150E00E9400FC10929A
:10522000910DCD2821F4EAE4FDE09FEF11C0EAE6FC
:10523000FDE0A081B181109729F012968C918F1515
:1052400009F4128235968DE0E239F80791F7EBCF39
:1052500080818F1519F490831482118238968DE025
:10526000EA36F807A9F720E030E002C02FEF3FEF61
:10527000C90168960FB6F894DEBF0FBECDBFCF91BF
:10528000DF911F910F91FF90DF90CF9008950E94C2
:10529000B726FC01009719F42FEF3FEF0AC0828177
:1052A00061E070E041E050E021E030E00E94CE2873
:1052B0009C01C90108952F923F924F925F926F9285
:1052C0007F928F929F92AF92BF92CF92DF92EF9296
:1052D000FF920F931F93DF93CF93CDB7DEB7E39782
:1052E0000FB6F894DEBF0FBECDBF782E692EA62E66
:1052F000922E452B29F40E94B726892B09F0F0C085
:105300008A2D0E947227182F8F3F09F098C0809134
:10531000910D882309F0E4C0CC24DD241E010894FB
:10532000211C311CBCE14B2E512C4C0E5D1E8824DF
:105330008394D101E3E01D92EA95E9F7C114D10409
:1053400021F41092470D1092460DEC2CBC2CB39416
:105350008091460D9091470D882321F0992349F0C3
:10536000898203C0992329F08A8291509093470D36
:1053700045C01091470D1E0DFF2400E027C080E0BE
:10538000912FB20148E150E00E94022D1092460D8B
:105390008BA1282F30E081FF0BC0C901847290706F
:1053A000892B31F48092460D89A1180FF80E0EC09A
:1053B00025FF03C01F5F0F5F09C022FF04C089A142
:1053C000180F080F03C09B2D911B03C01B15B8F2CB
:1053D00090E0892F8F0D8150800F8093470D882397
:1053E00051F08091460D882321F0FF24F394F01AA8
:1053F00002C001E00F19F9820A839B838981882307
:1054000061F48A81882349F08091900DE81610F4A8
:10541000E092900D8E2D0E941AFD0894C11CD11CA3
:10542000F0EACF16D10409F084CF8A2D0E947227AA
:10543000182F8F3F21F481E08093910D51C088E1B6
:10544000FE013496DF011D928A95E9F7DE011C9674
:10545000272D362DC901FC018FE001900D9281505E
:10546000E1F7A986B3E09B2A9B86912FBE016C5F72
:105470007F4F48E150E00E9400FCEBE4FDE020E0BB
:1054800030E04FEF5FEF8081882359F083818823DC
:1054900009F4A9012F5F3F4F38962430310599F761
:1054A0003BC0A901FA01A3E0EE0FFF1FAA95E1F7A7
:1054B000E85BF24F12838FEF9FEF918380838985A2
:1054C000838317828B8583FF02C081E087838FEF00
:1054D0009FEF95838483309729F01182108202C058
:1054E000E0E0F0E0CF01E3960FB6F894DEBF0FBE28
:1054F000CDBFCF91DF911F910F91FF90EF90DF9083
:10550000CF90BF90AF909F908F907F906F905F9063
:105510004F903F902F900895EFEF4F3F5E0711F6A9
:10552000DFCF695E7E4F672F40E050E020E030E043
:105530000E945B29892B19F020E030E002C02FEF98
:105540003FEFC9010895AF92BF92CF92DF92EF92E1
:10555000FF920F931F93CF93DF935C016B01ECE6F7
:10556000FDE0EE24FF248081882349F00894E11CAB
:10557000F11C359628E0E216F104A9F754C0870122
:10558000000F111F000F111F0E0D1F1D0859124F84
:10559000D80114961C92C5010E94B726EC01F801AF
:1055A000938382830097C1F4C60183709070019742
:1055B000D1F1C50162E041E050E020E030E00E941E
:1055C0005B29FC01D80113969C938E931297009748
:1055D00051F1118210820AC0888199818F5F9F4F9B
:1055E00029F48A810E94D72799838883F8018481CE
:1055F0008C298483C2FC03C0E0E0F0E008C0D8013D
:105600001296ED91FC9113970190F081E02DD80155
:105610001196FC93EE931296ED91FC91139786816F
:105620008F5F868303C0EE24EA94FE2CC701DF91CE
:10563000CF911F910F91FF90EF90DF90CF90BF908F
:10564000AF900895CF92DF92EF92FF920F931F9346
:10565000DF93CF93CDB7DEB76A970FB6F894DEBF6E
:105660000FBECDBF7B018C01FC018081898393E05B
:10567000C92ED12CCC0EDD1E3EC080E0B60148E123
:1056800050E00E94022D8A8590E0AC01427050707B
:1056900081FF26C082FD24C085FD22C084FD20C07C
:1056A000D701FE013B9680E201900D928150E1F717
:1056B000F701178E89810E94D727F70191A380A354
:1056C00099818A8581FF02C085FF03C0892F8F5F82
:1056D00002C08885890FF801808320E030E011C086
:1056E0002981452B11F085FF03C0822F8F5F02C0F7
:1056F0008885820F89839981903A08F4BECF2FEF75
:105700003FEFC9016A960FB6F894DEBF0FBECDBF5A
:10571000CF91DF911F910F91FF90EF90DF90CF908D
:1057200008953F924F925F926F927F928F929F92D5
:10573000AF92BF92CF92DF92EF92FF920F931F939F
:10574000DF93CF93CDB7DEB7E2970FB6F894DEBF05
:105750000FBECDBF582EF62E2DB73EB73AAB29ABB4
:1057600080E0952DBE016F5F7F4F48E150E00E94C1
:10577000022D8E01075F1F4FC80161E070E00E949B
:10578000A32A4C0197FD14C06E8170E002C0660F21
:10579000771FFA94E2F7C80141E050E020E030E0E2
:1057A0000E945B296C01009731F4C4010E942C26F1
:1057B0002FEF3FEFA7C0662477244DB63EB64C814D
:1057C0005D814115510511F440E051E08DB79EB760
:1057D000841B950B0FB6F8949EBF0FBE8DBF0DB7FF
:1057E0001EB70F5F1F4FC401B8010E9431287C0112
:1057F00097FF16C0F601828160E070E040E050E063
:1058000021E030E00E94CE28C4010E942C26842D85
:10581000932D9C010FB6F8943EBF0FBE2DBFC8CF8D
:10582000009769F0F601B280AA24C5014896860D5A
:10583000971DB801A7010E9400FC6E0C7F1C842DEF
:10584000932D9C010FB6F8943EBF0FBE2DBFEF28DD
:1058500009F0B3CFAAE6BDE012968C911297882387
:1058600069F0ED91FC9111978281851539F41196BB
:10587000DC92CE92F60186818F5F86831596FDE0DD
:10588000A239BF0749F7852D61E070E040E050E0A4
:1058900020E030E00E94CE2897FF0BC0F601828105
:1058A00060E070E040E050E020E030E00E94CE2870
:1058B0007CCF8E01075E1F4F80E0F6019281B80118
:1058C00048E150E00E94022D8C819D819D8F8C8F3C
:1058D0008A819B819B8F8A8FF601928188A181604A
:1058E00088A380E0B80148E150E00E9400FCF60186
:1058F00087818E7F878371826082C4010E942C26FB
:1059000020E030E0C90129A93AA90FB6F8943EBFBA
:105910000FBE2DBFE2960FB6F894DEBF0FBECDBF0F
:10592000CF91DF911F910F91FF90EF90DF90CF907B
:10593000BF90AF909F908F907F906F905F904F90AF
:105940003F900895AF92BF92CF92DF92EF92FF9275
:105950000F931F93CF93DF935B016A01883091050A
:1059600008F042C08C01000F111F000F111F080F1B
:10597000191F0859124FF80184818823A9F181FD6C
:105980000AC032C0F701828161E070E00E94912B71
:1059900097FD2AC0F801E280F380F801208131816F
:1059A000C90148968C0D9D1DF701D381C0E0C81731
:1059B000D90740F3928180E04896820F931FB5018A
:1059C000A6010E9400FCF801208131812C0D3D1DB3
:1059D00031832083F701808191818217930714F42A
:1059E00031832083A60102C04FEF5FEFCA01DF9130
:1059F000CF911F910F91FF90EF90DF90CF90BF90CC
:105A0000AF900895CF92DF92EF92FF920F931F9382
:105A1000CF93DF936B017C0100E010E080E090E425
:105A2000A1E0B0E0E80EF91E0A1F1B1F40FD02C0F6
:105A3000EA010DC00BBFF7018791DB018D936D016A
:105A4000EA0121970894E11CF11C011D111DD601EA
:105A5000A8019701BE010CC04BBFF9018791969137
:105A60008D939D932E5F3F4F4F4F5F4F625070401D
:105A70006230710588F7CE01969587959C0140E0CC
:105A800050E0220F331F441F551F2E0D3F1D401F96
:105A9000511FDC01AA0FBB1FAC0DBD1DC0FF04C010
:105AA0004BBFF90187918C93DF91CF911F910F919B
:105AB000FF90EF90DF90CF900895DF93CF930F92F8
:105AC000CDB7DEB7BE016F5F7F4F41E050E00E946F
:105AD000022D89810F90CF91DF910895EF92FF926F
