:100000000C946E000C948D000C948D000C948D005B
:100010000C948D000C948D000C948D000C948D002C
:100020000C948D000C946A240C948D000C948D001B
:100030000C94C12F0C948D000C948D000C94AA2F5D
:100040000C9400280C948D000C948D000C948D0061
:100050000C944E280C948D000C9442280C948D0026
:100060000C948D000C948D000C948D000C948D00DC
:100070000C948C280C948D000C9480280C948D008A
:100080000C94A7440C948D000C948D00257325735B
:100090000A004F6E6C696E650A000A002C206368C6
:1000A00065636B207261746520257520487A002590
:1000B000732025732C206368616E6E656C20257536
:1000C000000A2A2A2A2A2A2A2A426F6F74696E672E
:1000D0002025732A2A2A2A2A2A2A0A0011241FBE26
:1000E000CFEFD0E4DEBFCDBF12E0A0E0B1E0EAE5A3
:1000F000F6E900E00BBF02C007900D92AA36B107E7
:10010000D9F71CE3AAE6B2E001C01D92AC32B107F8
:10011000E1F70E945B270C942B4B0C9400000F938B
:100120001F93CF93DF938C01DC018D919C918532DD
:10013000910591F08B32910549F1892B09F068C046
:100140008AE692E067E771E00E94780285E290E03B
:10015000F8019183808318C06838B1F480E090E0A2
:1001600060E070E040E050E00E94EB10FC019093F2
:100170007302809372028BE098EB918B808B8BE201
:1001800090E0D8018D939C9381E046C08091D93155
:100190006817A9F78091A23081FFF1CFE091A730D5
:1001A000F091A8308091922B9091932BE80FF91F3A
:1001B00010828091A7309091A8300E94A224E091F3
:1001C0007202F0917302EF01AAEABBE280E10D90A6
:1001D00009928150E1F78091CA2B9091CB2B938BA0
:1001E000828BCF0160E071E045E050E00E94721127
:1001F000E0917202F091730280E1DF011D928A9515
:10020000E9F7E0917202F0917302138A128AB7CF74
:10021000F8011182108283E0DF91CF911F910F913D
:10022000089520E030E0FC0186819781892B11F44C
:1002300021E030E0C9010895FC01228133818081F1
:100240009181280F391FC9010895FC018081918196
:10025000089520917402309175022115310511F035
:1002600021E030E0C90108958091740290917502F7
:10027000892B19F420E030E004C0209176023091FF
:100280007702C90108958091740290917502892BBB
:1002900029F4109277021092760208950E94B227F4
:1002A000BC01E0917402F09175024281538180811A
:1002B0009181480F591F461B570B0CC02281338177
:1002C00080819181280F391F261B370B2417350792
:1002D00008F4A9010480F581E02D309779F7460FE5
:1002E000571F50937702409376020895CF93DF9380
:1002F000EC01E0917402F09175028E179F0741F4B2
:100300008C819D81909375028093740214C0FC01CE
:10031000309731F0848195818C179D07C1F707C014
:100320001D821C821F821E82DF91CF9108958C81D5
:100330009D81958384830E944301F2CFFC018081DB
:100340009181860F971F918380830E9443010895B6
:1003500083E391E00E947E330895EF92FF920F9322
:100360001F93CF93DF937C01FC01808191810097E3
:1003700029F08A35910509F06DC00BC01092750205
:10038000109274028AE590E0F7019183808381E006
:1003900065C0673849F59A01E0917402F0917502E1
:1003A00003C00480F581E02D309741F38681978169
:1003B00082179307B1F3E0937402F09375020FC0B4
:1003C00016968D919C9117978217930711F0FD0156
:1003D00006C014968D919C91159795838483A48172
:1003E000B581109769F7CECF623861F6C09174027B
:1003F000D091750200E010E02AC0CE010E94EB34DB
:10040000892B01F18E819F8168E8AE010E941E3325
:10041000892BA1F41F821E828C819D8101151105FB
:1004200021F0F8019583848304C090937502809332
:1004300074021D821C820E944301D8CF83E391E0A5
:100440000E947E338E018C819D819C01E901209761
:10045000A1F698CFF7011182108283E0DF91CF914E
:100460001F910F91FF90EF900895CF93DF93EC01D0
:1004700083E391E00E947E338E819F81892B69F016
:10048000E0917402F091750206C0EC17FD07A9F027
:100490000480F581E02D3097C1F78091010E909195
:1004A000020E9F838E8380917402909175029D83CA
:1004B0008C83D0937502C09374020E944301DF9134
:1004C000CF9108950F931F938C010E940335C801AB
:1004D0000E9435021F910F9108950F931F938C0175
:1004E0000E94CC34C8010E9435021F910F910895DB
:1004F0000F931F938C010E940E35C8010E94350294
:100500001F910F910895FC015381560F5093992B21
:10051000272F33274281420F4093982BA181A0932C
:10052000972BE081E093962B842F90E0821793071E
:1005300048F48A2F8F5F8093972B882319F4EF5FFD
:10054000E093962B852F90E070708617970790F4B4
:10055000842F8F5F8093982B882361F48091972B51
:100560008F5F8093972B882329F48091962B8F5F40
:100570008093962B0895FC0161507040680F791F9D
:1005800020E030E00EC0508140E08181DA01A80F08
:10059000B11D2A0F3B1F2A173B0710F42F5F3F4F57
:1005A0003296E617F70778F3E617F70749F49081D4
:1005B00080E0280F391F2817390710F42F5F3F4FAD
:1005C000832F922F0895E2EAFBE240E050E0308171
:1005D00020E08181B901680F711D460F571F461732
:1005E000570710F44F5F5F4F32967BE2E93CF70705
:1005F00070F38BE2E93CF80751F4908180E0480FFA
:10060000591F4817590718F44F5F5F4F06C041152F
:10061000510519F42FEF3FEF02C0342F252FC901E8
:100620000895CF93DF9390917902A92FB0E0309194
:10063000A62B20E02A1B3B0B9091A72B290F311DE5
:10064000A901480F511DEAEAFBE2708160E0818157
:10065000EB01C80FD11D4C0F5D1F4C175D0710F447
:100660004F5F5F4F32968BE2E93CF80770F38BE205
:10067000E93CF80749F4908180E0480F591F48177A
:10068000590710F44F5F5F4FFD01E653F44D2150C1
:1006900030402E0F3F1F0EC0708160E08181DB0172
:1006A000A80FB11D4A0F5B1F4A175B0710F44F5F7D
:1006B0005F4F3296E217F30778F3E217F30751F42E
:1006C000908180E0480F591F4817590718F44F5F71
:1006D0005F4F06C04115510519F42FEF3FEF02C0DF
:1006E000342F252FC901DF91CF9108958AE30E940D
:1006F0001103089586E00E941103089581E10E948C
:1007000011030895CF93DF93582FA92F4091D03034
:10071000E091BB30F091BC3020917C0230917D02A1
:100720002F5F3F4FBDE720303B0710F020E030E166
:10073000922F832F442319F0E817F90789F32093A8
:100740007C0230937D0280E090E0442329F41092F3
:100750007B02EBEAF0E30AC0473011F48BEA90E346
:10076000FC0181E080937B02309771F182E085A3E8
:1007700080917E02808F80917F02818F80918002A4
:10078000828F80918102838F84EC94E0978F868F93
:1007900091A380A381E090E0958F848F17A281E0E0
:1007A00086A383E084A312A280E183A3308B218BF4
:1007B000738B628BEF01252F3A2FC901DC0180E199
:1007C0000D9009928150E1F7CF01DF91CF9108950B
:1007D0002091DB303091DC302817390739F4109242
:1007E0007B021092DC301092DB30089581E0809320
:1007F0007B0208959C018091DB309091DC30892B45
:1008000039F410927B023093DC302093DB30089572
:1008100081E080937B020895BC018091A930909182
:10082000AA3044960E948302E091A930F091AA3048
:100830008091962B848B8091972B858B8091982B20
:10084000868B8091992B878B0895282F892F922F43
:100850000895EF92FF920F931F939C014427552711
:10086000F22EE32E00E010E0362F272F40E050E07C
:10087000A90133272227E22AF32A042B152BB701DB
:10088000C8011F910F91FF90EF900895FC014091D6
:10089000942B5091952B22EA30E3241B350B6217E1
:1008A00073070CF49B011216130664F42093DD30D9
:1008B0003093DE30E417F50729F0CA01BF01A90122
:1008C0000E947647089582E080937A02A09179028F
:1008D0002A2F30E0F901E653F44D8181682F70E052
:1008E00043E0660F771F4A95E1F7695F7F4F42E06B
:1008F000285D3F4F3CC0F901E80FF91FEE55F44D5C
:100900008081882319F0813019F42EC04F5F2FC0E9
:1009100090E0807C90708038910549F0803C910592
:1009200049F08034910501F540937A0209C0409363
:100930007A0208C040937A028091BA2B8F3F11F45B
:1009400081E00895242F30E040E050E02A0F311D6F
:10095000411D511D285D3F4F4F4F5F4F84E062E0C6
:100960000E94021382E0089581818E5F480F842FD8
:1009700090E0681779070CF0BECF40937A0280E0D0
:100980000895CF92DF92EF92FF920F931F93CF9330
:10099000DF93C091A930D091AA30843009F471C29C
:1009A0000EED1BE21093A8300093A7301093952B07
:1009B0000093942B833099F48DA1282F30E02F7071
:1009C00030702330310529F48C8D9D8D892B09F4ED
:1009D00096C02230310511F00C941D0D7FC082307D
:1009E00009F091C01092932B1092922B1092DE304E
:1009F0001092DD30809181028F5F80938102882385
:100A000099F4809180028F5F80938002882361F443
:100A100080917F028F5F80937F02882329F48091E9
:100A20007E028F5F80937E022DA1273011F025304A
:100A300051F48EA18F5F8EA3853011F00C941D0DA3
:100A40001DA20C941D0D222311F40C941D0D8C8DF0
:100A50009D8D892B09F44FC08EA181508EA38F5F8D
:100A600009F0EBC73FA1383029F02150223048F47B
:100A7000353039F41DA280E88093A2300E94360EF2
:100A800087C6353010F080E307C083E090E002C0F5
:100A9000880F991F3A95E2F78EA38FA18F5F8FA3DE
:100AA0008DA190E08F70907083309105F1F08430CB
:100AB000910544F48130910509F4FEC3029709F0D1
:100AC000BCC70CC08630910509F476C68830910504
:100AD00009F472C6049709F0B0C76EC6E0917902B6
:100AE000F0E0E653F44D1586EEC384E08093A23027
:100AF0000E94360E8FC62F70233009F09EC788E003
:100B00008093A23039C6853019F5E091A530F09177
:100B1000A63080899189892B09F48FC71092AA3059
:100B20001092A930C8010C979093A8308093A730F9
:100B30009093952B8093942B1092DE301092DD30A1
:100B40001092932B1092922B88E08093A23097C141
:100B50008091A22B807F803609F06FC79091A62BE1
:100B600080E02091A72BAC01420F511D9A0180918A
:100B7000922B9091932B8417950708F45EC7285DFC
:100B80003F4F3093932B2093922B8091AA2B8F3F32
:100B900009F453C7C80184970E94A31F892B59F4F5
:100BA000C80184970E94091F892B29F48091BA2BD0
:100BB0008F3F09F042C788EA9BE29093A43080936C
:100BC000A3301092790210927802E091A330F09154
:100BD000A43080818B3209F44BC08C3248F48630CB
:100BE00009F4BFC1813109F4B4C0882389F06BC016
:100BF0008A3309F474C08B3320F48C3209F063C05B
:100C00001CC78B3309F419C78C3309F05CC006C0CC
:100C10008091780280FD57C0816009C08091780280
:100C200081FF04C086FD4FC0806401C08260809354
:100C300078020E946304813009F4FFC6813018F005
:100C4000823019F602C720917902E22FF0E0CF013D
:100C50008653944D9093A4308093A330285FFC0179
:100C60008181880F880F880F280F20937902ADCFDC
:100C70008091780282FD27C08460809378029091F1
:100C80007902E92FF0E0DF01A653B44D13968C9161
:100C90001397882349F0BA969F01442737FD409562
:100CA000542F84E060E018C0B093A430A093A33028
:100CB000985FE653F44D8181880F880F880F980F55
:100CC0009093790282CFE25AFB429F01442737FD7D
:100CD0004095542F84E061E00E940213B6C60E9442
:100CE00076038F5F9F4F09F0A8C6E0917902F0E08C
:100CF000EE55F44D80A50E94800EE0917902F0E05F
:100D0000EE55F44D80A58538C1F0863818F480384A
:100D1000A1F410C0873829F0873848F0883869F482
:100D200003C00E9457190DC00E94FC170AC00E9400
:100D3000DC1307C00E94951204C01092932B1092EE
:100D4000922B8091922B9091932B892B09F475C64D
:100D50007CC68091922B9091932BC0979093932B6C
:100D60008093922B82ED9BE29093A8308093A730E2
:100D7000E0917902F0E0E653F44D86819781892B6A
:100D800031F00E947E038F5F9F4F09F056C6E091BD
:100D90007902F0E0E653F44D82819381892B09F4C6
:100DA0004CC68FED90E39093A6308093A53048C059
:100DB0002889398921153105F1F180917902E82FCF
:100DC000F0E0E653F44D828193818217930799F501
:100DD0002A893B892115310529F08081918182176B
:100DE000930749F588819981892BE1F48A819B8158
:100DF000892BC1F48C819D81892BA1F48E819F81E7
:100E0000892B81F488859985892B61F48A859B8556
:100E1000892B41F48C859D85892B21F48E859F85B6
:100E2000892BC1F08AEA9BE2BE0140E150E00E94BA
:100E30006947009779F06996D093A630C093A530A2
:100E4000C091A530D091A630B1E3C93DDB0708F4CD
:100E5000AFCFF3C51092AA301092A93082E08093F0
:100E6000A23082ED9BE29093A8308093A7309093BC
:100E7000952B8093942B1092DE301092DD300E94DF
:100E8000360E2091DD303091DE302115310509F428
:100E9000D4C5C901C0969093932B8093922B285F61
:100EA0003F4F3093A62B88528093A72B4091A530BB
:100EB0005091A630EA018C898093A92B81E180931F
:100EC000A82BE0917902F0E0EE55F44DDF01989601
:100ED00014963C93149715962C93159717961C927D
:100EE0001E9216978889998991A780A78A899B89DC
:100EF00013969C938E931297AAEBBBE22091A53098
:100F00003091A630C901FC0180E101900D92815021
:100F1000E1F78AEA9BE26AEB7BE20E94711C8EEDAC
:100F20009BE29093A8308093A73080917902C82FDC
:100F3000D0E0C653D44D0E947E03809590959F8348
:100F40008E8380917902E82FF0E0E653F44D86819C
:100F50009781892B09F067C58FEF9FEF9783868371
:100F600062C50E947A038F5F9F4F09F066C580912A
:100F70007902082F10E00653144DD8011296ED9017
:100F8000FC901397E114F10409F457C5CD90DC905F
:100F9000C114D10409F451C5CBEAD0E38DA1882353
:100FA000A1F088899989E816F90679F48A899B89DC
:100FB000C816D90651F48AEA9BE2BE0140E150E02E
:100FC0000E946947009709F49BC1AC96B0E3CB3A05
:100FD000DB0721F318F3E8018D858F738230D1F49C
:100FE000F0928402E092830210927B0241E00EC0F4
:100FF00020918302309184028091DB309091DC302B
:101000002817390709F48AC040937B0280917B023C
:10101000882371F380917902E82FF0E0DF01A65375
:10102000B44D1D968C911D9782FD07C584E11D96D8
:101030008C931D978CE390E09093932B8093922B4D
:10104000FD0180E5848797811B968C911B971796ED
:101050008C931797938796811A968C911A97169668
:101060008C9316979287958119968C91199715965E
:101070008C9315979187948190937B0218968C910D
:10108000189714968C93149790871B968C911B97A6
:101090008F5F1B968C931B978823C1F41A968C91B3
:1010A0001A978F5F1A968C931A97882379F419965A
:1010B0008C9119978F5F19968C931997882331F427
:1010C00018968C9118978F5F18968C93E0917902FF
:1010D000F0E0DF01AE55B44D98962D913C91999773
:1010E0003093840220938302E653F44D82819381EE
:1010F000918380839B963C932E939A97EAEBFBE235
:10110000DF01509780E10D9001928150E1F78AEA6A
:101110009BE26AEB7BE20E94711C5FC410927B022F
:10112000C0E0D0E021E014C08091D030882319F4D1
:10113000CBEAD0E314C0873049F4209729F090918E
:10114000D1308EA1891710F4CBEAD0E320937B0233
:1011500080917B02882341F3209709F46EC4D093D9
:10116000AA30C093A93083E08EA38CA31AA284E096
:101170008BA31FA2E0917902F0E0EE55F44D82A519
:1011800093A5998B888B80A591A59B8B8A8BDE017B
:10119000EAEAFBE280E101900D928150E1F781E003
:1011A0008DA380917E02888F80917F02898F8091AC
:1011B00080028A8F809181028B8F81E090E09D8FE9
:1011C0008C8FE0917902F0E0E653F44D87818F8BAC
:1011D000E0917902F0E0E653F44D86818E8BE09148
:1011E0007902F0E0E653F44D85818D8BE091790230
:1011F000F0E0E653F44D84818C8B81E090E00E9416
:101200000C04E0917902F0E0E653F44D848590E01F
:10121000807F9070813591050CF44EC010927B0256
:1012200035C0F901EE55F44D84AD809382028823D8
:1012300009F442C0813021F44F5F40937B0226C005
:101240008230C1F485AD8430A9F436AD20E087AD9D
:1012500090E0822B932B9093840280938302E4E0AE
:10126000853C9E0710F084EC94E09F8F8E8F99A3AD
:1012700088A322C080917B02E82FF0E0E152F44D78
:10128000E081EE23C9F0E80FE0937B0240917B02FE
:10129000242F30E0E0917902F0E0E653F44D8485AC
:1012A00082958F7090E00597880F991F880F991F7E
:1012B000281739070CF4B5CFE0917902F0E0E65336
:1012C000F44D80E18587E0917902F0E0DF01A653DB
:1012D000B44D1D968C911D9782601D968C931D9721
:1012E000FD0182E0848B84E0858B868B84EC878B88
:1012F00080E490E09093932B8093922B80E628C318
:10130000D093AA30C093A9301092A2308091790274
:10131000E82FF0E0DF01A653B44D1D968C911D9788
:1013200082FF03C01DA280E2ABC21C968C91829505
:101330008F70880F880F80937B022091922B3091C1
:10134000932B28523040281B31093093932B209344
:10135000922B8DA190E08F7090708230910539F4BE
:10136000E653F44D85858F73823149F42FC0019780
:1013700031F4E653F44D85858F73823039F1232B98
:1013800059F4E0917902F0E0E653F44D858590E060
:1013900083709070892BD1F080917902E82FF0E072
:1013A000E653F44D94818C89981761F495818D8969
:1013B000981741F496818E89981721F497818F8927
:1013C000981721F0858581FD77CFAFC2E091790232
:1013D000F0E0E653F44D858584FF52C06C8D7D8D21
:1013E0006115710509F44CC0CE0148960E94830234
:1013F00080917902E82FF0E0E653F44D208580914A
:10140000962B2817E9F591858091972B9817C1F5B0
:1014100092858091982B981799F593858091992BB7
:10142000981771F5288F8091972B898F8091982B31
:101430008A8F8091992B8B8F8FA18823D1F42AA139
:101440009CA18EA1981B822F869586958695981BC8
:10145000392F320F3AA38BA1282F26952695821B70
:1014600097FD9195890F8BA3369536953695830F09
:101470008CA381E08093A2308CA18EA31D8E1C8E44
:101480008DA1282F30E0C9018F70907084309105B4
:1014900009F4FBC18530910564F48230910509F4AB
:1014A0003DC0833091050CF0D5C0019709F0C5C24D
:1014B00010C08630910509F430C2863091050CF4D5
:1014C00008C28730910509F430C2089709F0B5C207
:1014D000D1C18091A23080FF16C083E08DA380E44B
:1014E0008093A2301D8E1C8E2091922B3091932BD5
:1014F0002115310509F43CC182E48093A230C90171
:101500000E940C0435C1E0917902F0E0E653F44DFD
:1015100085858F73823009F090C2CECE8091A23043
:1015200080FF8DC080917902E82FF0E0E653F44D02
:1015300085858F73823109F082C0848590E0807F39
:101540009070813591050CF44EC010927B0235C02D
:10155000F901EE55F44D84AD80938202882309F49D
:1015600042C0813021F44F5F40937B0226C082301D
:10157000C1F485AD8430A9F436AD20E087AD90E0AC
:10158000822B932B9093840280938302F4E0853C1A
:101590009F0710F084EC94E09F8F8E8F99A388A30F
:1015A00022C080917B02E82FF0E0E152F44DE0810F
:1015B000EE23C9F0E80FE0937B0240917B02242FD9
:1015C00030E0E0917902F0E0E653F44D84858295B5
:1015D0008F7090E00597880F991F880F991F281723
:1015E00039070CF4B5CF83E08DA3E0917902F0E0E8
:1015F000E653F44D84818C8BE0917902F0E0E65360
:10160000F44D85818D8BE0917902F0E0E653F44D45
:1016100086818E8BE0917902F0E0E653F44D87816C
:101620008F8B81E090E00E940C0482E48093A230D2
:101630001D8E1C8E1092932B1092922B99C080E2DB
:101640008093A2300E94360EE091A930F091AA302A
:1016500015A2E0CC80917902E82FF0E0E653F44D3A
:10166000858580FF25C024FD23C08C8D9D8D892B11
:1016700009F0E3C18091922B9091932B01960E94E7
:101680000C042091A230822F80618093A23080913F
:10169000922B9091932B892B19F022612093A230E9
:1016A0000E94360E81E090E09D8F8C8F88E082C092
:1016B00085FF25C0328920E0838990E0282B392BD3
:1016C0008091A7309091A830820F931F9093A830FB
:1016D0008093A730E0917902F0E0E653F44D32892F
:1016E00020E0838990E0282B392B8091922B9091D8
:1016F000932B821B930B9093932B8093922B20918F
:10170000922B3091932B2115310559F08DA184FD39
:1017100008C08091A23082608093A230C9010E94EB
:101720000C04E0917902F0E0E653F44D968580E0F8
:101730002785820F911D909384028093830228A1B4
:1017400039A12817390710F0892B21F4309384022E
:101750002093830280918302909184029F8F8E8FC9
:101760008091A23090E083709070892B09F465C15C
:101770001092DE301092DD300E94360E8091A23041
:10178000282F85FF0CC01092DE301092DD301DA294
:10179000E0917902F0E0E653F44D84E1CCC084FF9F
:1017A00012C01092DE301092DD3081E090E09D8F0B
:1017B0008C8F84E08DA31FA2E0917902F0E0E653C4
:1017C000F44D81E1B8C08091DD309091DE30892BFD
:1017D00001F120FF02C01D8E1C8E8C8D9D8D009707
:1017E000A1F42E8D3F8D8091DD309091DE30281751
:1017F000390720F43093DE302093DD308091DD30E6
:101800009091DE309D8F8C8F04C09093DE3080935A
:10181000DD301FA28091942B9091952B9093A8304E
:101820008093A7308091DD309091DE30892B81F05C
:101830008C8D9D8D009761F0CC969093932B809327
:10184000922BE0917902F0E0E653F44D88E110C06C
:101850008091A23081FFF1C08CE390E09093932BB4
:101860008093922BE0917902F0E0E653F44D80E111
:10187000858768C08091A23080FFDFC01DA280E113
:101880008093A2300E94360ED8C08091922B909106
:10189000932B009711F00E940C04E0917902F0E084
:1018A000E653F44D85859091A23080FF0BC090FFE8
:1018B00006C087E08DA31EA21D8E1C8E1DC086E073
:1018C0008DA31AC090FF22C085E08DA31D8E1C8EB3
:1018D000B4C08091922B9091932B009711F00E94AD
:1018E0000C04E0917902F0E0E653F44D858580FF29
:1018F0000DC087E08DA31EA281E090E00E940C0441
:1019000080E18093A2300E94360E0FC08091922B0E
:101910009091932B892B49F490C08091A23080FF45
:101920008CC087E08DA31EA288C0E0917902F0E010
:10193000E653F44D80E185878CE390E09093932B00
:101940008093922BE0917902F0E0E653F44D80E52C
:101950008487A0917902B0E0AE55B44DFD01B896F0
:101960008C8980878D8981878E8982878F898387FB
:10197000888D8483898D85838A8D86838B8D8783EB
:1019800086E08093A82B8889998999969C938E9359
:1019900098978A899B8993838283AAEBBBE2FE0195
:1019A00080E101900D928150E1F78AEA9BE26AEBB7
:1019B0007BE20E94711C8DA1E091790284FF06C038
:1019C000F0E0E653F44D1786168607C0F0E0E653C4
:1019D000F44D84E0868784EC87878091DF318093A3
:1019E000A92B8091922B9091932B88979093A62B63
:1019F0008091922B88528093A72BE0917902F0E09E
:101A00008F010653144DD80153961C92539752964A
:101A10001C92F801118A108A0E947A038095909591
:101A2000E801998B888B80E68093A22B1092A32BE0
:101A30001092A52B1092A42B08C01092932B1092F9
:101A4000922B10927902109278021092A230DF91BC
:101A5000CF911F910F91FF90EF90DF90CF9008955D
:101A60000F931F93CF93DF938C0120917C023091D1
:101A70007D02C9E1D0E02F5F3F4F8DE7203038076E
:101A800010F020E030E1522F432FA0E011C08A2F48
:101A900090E08C9FF0018D9FF00D9C9FF00D112424
:101AA000E152FF4C80899189AF5F8417950719F344
:101AB000AA3069F720937C0230937D0210927B025A
:101AC00040E0A9E1B0E01CC0542F5F5F842F90E09C
:101AD0008A9FF0018B9FF00D9A9FF00D1124E15227
:101AE000FF4C80899189892B51F440937B0289E1D5
:101AF000489FD0011124A152BF4C49F427C0452F63
:101B00004A3010F340937B02A0E0B0E01FC0509633
:101B10003C93509751962C93519753967C936E9388
:101B200052970115110531F480E1ED0119928A9562
:101B3000E9F707C0ED01F80180E1019009928150B9
:101B4000E1F78091DF3154968C935497CD01DF916A
:101B5000CF911F910F9108950E94BC211092DC300B
:101B60001092DB301092D03080E094E090937D02B0
:101B700080937C0220E049E150E00EC0822F90E08B
:101B8000849FF001859FF00D949FF00D1124E15288
:101B9000FF4C118A108A2F5F2A3080F320937B023A
:101BA0000895E0919802F0919902309711F480E045
:101BB0000895099508959093990280939802089545
:101BC000FC018091010E9091020E91A780A773A74E
:101BD00062A70895FC018091010E9091020E968BF0
:101BE000858B708F678B08959C018091D730909181
:101BF000D830892B11F081E008958091010E9091E9
:101C0000020E9093D8308093D7303093DA302093FF
:101C1000D93080E008952091010E3091020E40915C
:101C20009202509193024817590789F480919402C7
:101C3000909195028217930751F4109289021092A5
:101C4000930210929202CA010E94E803089581E073
:101C50008093890208958AE892E00E941101892BFD
:101C600021F08AE892E00E9462020895CF93DF9308
:101C7000E091A930F091AA30309719F0EF01A896C1
:101C800005C0C091A530D091A63065968091A23054
:101C900086FF1BC01092870220919202309193021E
:101CA000808991892817390759F48091940290917D
:101CB0009502009729F0998388831B821A8203C0BA
:101CC00081E0809387020E942B0E88819981009782
:101CD00031F04A815B816091D9310E944233DF91BA
:101CE000CF9108958AE491E062E040E050E00E94E4
:101CF00042331092932B1092922B109279020895F6
:101D0000DF93CF930F92CDB7DEB789838091D73021
:101D10009091D830009739F06091DA31AE014F5F81
:101D20005F4F0E9442330F90CF91DF910895AC0135
:101D30008AE491E060E00E941E330895AC018AE4D9
:101D400091E061E00E941E3308950F931F93CF939B
:101D5000DF938091922B9091932B009709F41FC1F0
:101D60008150954008F00CC10AEB1BE28091BA2B20
:101D70009091BB2B892B59F58091BC2B9091BD2B59
:101D8000892B29F58091BE2B9091BF2B892BF9F4DB
:101D90008091C02B9091C12B892BC9F48091C22BCB
:101DA0009091C32B892B99F48091C42B9091C52BD2
:101DB000892B69F48091C62B9091C72B892B39F41C
:101DC0008091C82B9091C92B892B09F4D9C080919F
:101DD000BA2B8F3F09F4D9C08AEB9BE20E94F11D18
:101DE000882379F48AEB9BE20E94B01D009731F4BE
:101DF0000E941B208C01009721F4C2C08C010D5E53
:101E00001F4FC8010E94FD1FEC01009709F051C04F
:101E1000C80160E070E040E020E00E9486228C0172
:101E2000009709F4ADC0EC01AE96CE0164EF71E00D
:101E30000E94D51B892B99F0CE010E94881B22EAB3
:101E40003BE24091922B5091932BB9010E9476472F
:101E50006091922B7091932BCE010E94A41B8AEA71
:101E60009BE20E94A31FA8014F5F5F4F892B19F0CF
:101E70008AEA9BE202C080E090E060E070E00E94AD
:101E80004A176091E8317091E9318091EA3190917F
:101E9000EB3128EE33E040E050E00E94B74AC80141
:101EA0008196BA01A9010E94423881E0F80183A716
:101EB0006CC08DA58823E9F4AE96CE0164EF71E085
:101EC0000E94D51B892B09F45BC0CE010E94881BA0
:101ED00022EA3BE24091922B5091932BB9010E9450
:101EE00076476091922B7091932BCE010E94A41B98
:101EF00047C0823059F483E08DA7CE01499645E072
:101F000050E060E070E00E9442381BA66091E8312A
:101F10007091E9318091EA319091EB3128EE33E014
:101F200040E050E00E94B74ACE018196BA01A90173
:101F30000E9442388E010F5E1F4FC8010E94D10DD2
:101F4000AE96CE010E94941B892BD1F0CE010E9447
:101F5000941B9093932B8093922BCE010E94881B0D
:101F6000BC0122EA3BE24091922B5091932BC90194
:101F70000E947647CE010E94AF1BC8010E94D10D7E
:101F80001092932B1092922B0AC080E090E00E9456
:101F9000D10D1092932B1092922B10927902DF9117
:101FA000CF911F910F910895DF92EF92FF920F93BF
:101FB0001F93CF93DF937C018A01FC018081918183
:101FC000009729F08F50934009F0F9C026C0109275
:101FD00093021092920281E0809385028091010E1B
:101FE0009091020E90939702809396020E94C331C3
:101FF0008093D9310E94C3318093DA318AE892E02C
:102000006EE370E00E9478020E94AC0D8FE093E0D6
:10201000F7019183808381E0D6C0623009F4B1C0BA
:10202000633030F4662309F48EC0613079F79BC0C9
:10203000673819F0683851F73CC010928602C2E93F
:10204000D2E013C08A819B818017910741F4888177
:1020500099810E94E803198218821B821A822496B1
:10206000809186028F5F809386028091860288230A
:1020700049F3E0EDF0E3838194818017910719F42F
:10208000148213821082BC96CF018597875D90439E
:1020900090F3EFEDF0E308C08589968980179107EA
:1020A00011F4118A108A799681E3E93DF807A1F7C6
:1020B000ADCFE2E04A385E0759F5CA010E9411012E
:1020C000892B31F1109286028CE2D82E1DC08091AE
:1020D000D0308823A1F08AE892E00E9462028091C9
:1020E00086028D9DC001112485559F4C9093AA3086
:1020F0008093A93082E00E94C1040E94A50E8091C5
:1021000086028F5F80938602809186028823F9F28F
:10211000F7E30E321F0749F4C8010E941101892B11
:1021200021F00E9456200E94A50E23E302331207DD
:1021300009F06CCFC8010E941101892B09F466CF08
:102140000E942A231BC04115510509F45FCF50930B
:10215000AA304093A93083E00E94C1040E94A50EDA
:102160000E942B0E53CF4115510509F44FCF5093C8
:10217000A6304093A53085E00E94C1040E94A50EC0
:1021800045CF8091922B9091932B892B09F43ECFD0
:102190008091A82B863031F48091D72B81FF02C02B
:1021A0000E942B0E81E00E94C1048091922B90919D
:1021B000932B892B09F42ACF0E94D41127CFF70142
:1021C0001182108283E0DF91CF911F910F91FF90D8
:1021D000EF90DF900895CF93DF93EA010E94300DD6
:1021E000FC01009741F08091010E9091020E968BB8
:1021F000858BD08FC78BCF01DF91CF9108950F933F
:102200001F93DF93CF93CDB7DEB760970FB6F894E7
:10221000DEBF0FBECDBF8C01AB018FEF92E09A8382
:1022200089831C821B821E821D8218861F821A8649
:1022300019861C861B861E861D8680E091E0988B81
:102240008F87CE010196B8010E94EB10FC01009728
:1022500011F0118B008BCF0160960FB6F894DEBFA2
:102260000FBECDBFCF91DF911F910F9108959C01BB
:102270008091920290919302892B91F4109288029E
:1022800030939302209392028091010E9091020E5E
:102290009093950280939402C9010E94FA030895D5
:1022A00081E08093880208950F931F93CF93DF936B
:1022B0008A010E948203EC01009771F08091010E67
:1022C0009091020E99A788A71BA70AA78AE491E01C
:1022D00060E0AE010E941E33CE01DF91CF911F91CD
:1022E0000F9108959093A6308093A5304093DD30F0
:1022F0005093DE30E2EDFBE29A0185E04130580771
:1023000014F020E035E0CF01A9010E94764784E077
:102310000E94C1040E94A50E1092DE301092DD30A2
:102320000895CF92DF92EF92FF920F931F93DF9366
:10233000CF93CDB7DEB760970FB6F894DEBF0FBE70
:10234000CDBF7C01DE011196FC0180E101900D9270
:102350008150E1F7F701C288D388D701F90180E104
:1023600001900D928150E1F7F701138B028BC701A9
:102370000E947211D701FE01319680E101900D9209
:102380008150E1F7F701D38AC28A60960FB6F894BC
:10239000DEBF0FBECDBFCF91DF911F910F91FF9098
:1023A000EF90DF90CF900895EF92FF920F931F93DD
:1023B0008091A82B863009F05DC08091922B90917E
:1023C000932B8050954009F055C00EE912E0109310
:1023D000932B0093922B92E0E92EE092A62B86E7B6
:1023E000F82EF092A72B1092DB2B1092DA2B0E9482
:1023F0007A03809590959093DB2B8093DA2B0E9443
:10240000A50E1093932B0093922BE092A62BF092A3
:10241000A72B2091A7303091A830C901FC01DC0125
:10242000AE59BD4F82E692E00D9001920197E1F71F
:102430008EEC9BE262E672E00E9483028091962B12
:102440008093CE2B8091972B8093CF2B8091982BCC
:102450008093D02B8091992B8093D12B1092DB2BE2
:102460001092DA2B0E947A03809590959093DB2B43
:102470008093DA2B0E94A50E1F910F91FF90EF9091
:102480000895EF92FF920F931F93CF93DF93F62E51
:10249000E42E890120E62093A22B1092A32B109208
:1024A000A52B1092A42B2AE32093A82B2091DF3197
:1024B0002093A92B0C5F1F4F212F332727FD3A951F
:1024C000045010402093A62B202F2C5F2093A72B85
:1024D000AAEBBBE2FC0180E101900D928150E1F793
:1024E0008AEA9BE26AEB7BE20E94711C809179028E
:1024F000C82FD0E0C653D44DF882E9821B821A82DD
:102500000E947603809590959B838A83045D1F4F7C
:102510001093932B0093922B0E94A50EDF91CF91E5
:102520001F910F91FF90EF90089522EA3BE2809176
:10253000DF318093A92B8091BA2B8F3F81F4D90191
:102540005896F901389680E101900D928150E1F79B
:102550008AEA9BE26AEB7BE20E94711C1BC0AAE93B
:10256000B2E0F901389680E101900D928150E1F7D7
:10257000EAEAFBE2DF01509680E10D900192815082
:10258000E1F7AAEBBBE2EAE9F2E080E101900D920B
:102590008150E1F760917902662301F18AE380932B
:1025A000A82B70E04091922B5091932B461B570B18
:1025B0005093932B4093922B485250405093A62B0C
:1025C000485D5F4F842F88528093A72B6253744DD0
:1025D0004C5250408EEC9BE20E947F471092790251
:1025E00081E88093CA2B1092CB2B1092CD2B1092A6
:1025F000CC2B0E947603809590959093CD2B809361
:10260000CC2B0895CF92DF92EF92FF920F931F93FE
:10261000CF93DF93D82EC62E79018A0110927902CA
:102620008091A82B8A3321F48091CA2B87FF81C027
:10263000AAE9B2E0EAEBFBE280E101900D92815061
:10264000E1F78091922B9091932BC0969093932BCE
:102650008093922B8150954030F080E095E09093EC
:10266000932B8093922B4091922B5091932B40531C
:10267000504082ED9BE262EA7BE20E947F4780E667
:102680008093A22B1092A32B1092A52B1092A42B17
:102690008AE38093A82B8091DF318093A92B8091CE
:1026A000AA2B9091AB2B892B51F58091AC2B90915B
:1026B000AD2B892B21F58091AE2B9091AF2B892BDF
:1026C000F1F48091B02B9091B12B892BC1F48091C2
:1026D000B22B9091B32B892B91F48091B42B9091D4
:1026E000B52B892B61F48091B62B9091B72B892B58
:1026F00031F48091B82B9091B92B892BD1F0EAEB72
:10270000FBE2DF01509780E10D9001928150E1F7EB
:1027100080919A028F3F91F484E0D81651F422E020
:10272000C21639F48AEA9BE26AE972E00E94711CDF
:102730000EC01092932B1092922B35C0AAEABBE2E6
:10274000EAE9F2E080E101900D928150E1F7E09139
:102750007902CE2FD0E0FE01E653F44DD082C18243
:10276000C801B7010E942904C253D44D68837983FC
:102770008A839B838091922B9091932B889790933F
:10278000A62B889688528093A72B80917902C82F18
:10279000D0E0C653D44D1B821A820E9476038095E6
:1027A00090959B838A83DF91CF911F910F91FF902A
:1027B000EF90DF90CF900895DF92EF92FF920F930A
:1027C0001F93CF93DF938091A92B8F3F09F0A5C270
:1027D0008091AA2B8E3F09F0A0C28091AB2B80384C
:1027E00009F09BC280917902282F30E0F901E6536D
:1027F000F44D8181882309F090C2F901E253F44D30
:102800008081882311F08093DF3164817581868116
:102810009781611571058105910561F1E090E031C5
:10282000F090E1310091E2311091E3310E942904EE
:10283000E616F70608071907E9F0E0917902F0E0DB
:10284000E253F44D64817581868197810E94290449
:102850006093E0317093E1318093E2319093E33102
:102860000E94091D6093E4317093E5318093E63155
:102870009093E731E0917902F0E0E253F44D608506
:10288000718582859385611571058105910551F0EA
:102890000E9429046093E8317093E9318093EA3112
:1028A0009093EB318CE08093AA0282E0D82EB6C1DF
:1028B000F901EE55F44D8181882309F42EC28081FF
:1028C000833009F45FC0853009F44DC0813009F0D0
:1028D00095C1F093AC02E093AB028AEA9BE20E94BE
:1028E000FD1FFC019093C2028093C102009789F4FE
:1028F0006091AB027091AC026E5F7F4F8AEA9BE2FF
:1029000041E022E00E9486229093C2028093C1029D
:1029100075C185A5882309F4D5A6C091AB02D091D5
:10292000AC0222960091C1021091C2020F5E1F4FAD
:10293000CE01B80148E050E00E946947009761F07D
:10294000D801FE0188E001900D928150E1F7E091FD
:10295000C102F091C202D5A6E091C102F091C2027B
:1029600081E084A74BC164817581868197810E9433
:1029700029046093DB317093DC318093DD319093D7
:10298000DE313CC1F093AE02E093AD02648175810B
:10299000868197810E9429047B018C01E091AD0220
:1029A000F091AE0260857185828593850E9429042D
:1029B000E616F7060807190708F420C1E091AD02F2
:1029C000F091AE0280898E3F21F48189803809F42C
:1029D00015C1838187FF5FC0CF01409662810E944D
:1029E000C11FEC019093C0028093BF02E091AD0241
:1029F000F091AE02009749F56481758186819781D7
:102A0000611571058105910509F445C0EF016096D6
:102A10006F3F2FEF72072FEF82072FEF920741F0E2
:102A200012810E9429049B01AC01CE01612F06C0D6
:102A3000CE01628120E030E040E050E00E940921B8
:102A40009093C0028093BF0226C064817581868105
:102A50009781611571058105910549F06F3F3FEF41
:102A600073073FEF83073FEF930741F404C0CE01A4
:102A70000E94FF1B10C081E08A8F0DC00E942904B4
:102A8000AB01BC01CE0142960E944238E091BF02E8
:102A9000F091C002128EE091AD02F091AE028381FE
:102AA00086FFACC084819581A681B7810097A1057E
:102AB000B10509F4A3C08281803409F09FC0AFEA58
:102AC000B2E0709680E101900D928150E1F78FEABB
:102AD00092E06AE97BE20E94701D8FEA92E00E9418
:102AE000A31FDC019093C6028093C502009709F4EE
:102AF0005EC052962C915297213009F058C0E09157
:102B0000AD02F091AE0264817581868197816F3F3D
:102B10003FEF73073FEF83073FEF930709F444C08C
:102B20000E94290461527C4180409040C0F4E091B1
:102B3000AD02F091AE0264817581868197810E9419
:102B400029047B018C018091C5029091C6024496B4
:102B50000E94E6376E157F0580079107A0F400916B
:102B6000C5021091C6020C5E1F4FE091AD02F091BC
:102B7000AE0264817581868197810E942904AB0130
:102B8000BC01C80109C08091C5029091C60244965B
:102B900040E25CE160E070E00E944238E091C502F2
:102BA000F091C602138A2AC053962C9327C0E09155
:102BB000AD02F091AE0264817581868197810E9499
:102BC00029046F5F7F4F8F4F9F4F39F48FEA92E058
:102BD00040E050E060E070E00EC0E091AD02F091A6
:102BE000AE0264817581868197810E942904AB01C0
:102BF000BC018FEA92E021E00E9471208091AA023C
:102C0000E0917902F0E0EE55F44DE80FF11D95A545
:102C1000990F990F990F980F9093AA0290917902AA
:102C20008091AA02282F30E0290F311D245D3F4FEB
:102C30008091922B9091932B2817390708F438CE66
:102C40008AEA9BE20E94DF1F9C019093C40280935A
:102C5000C30280917902E82FF0E0E253F44D8281C3
:102C60009381892B29F1A091C102B091C2021097E2
:102C700019F081E09C968C93C091C302D091C4025C
:102C800082819381209751F40E942504AC0160E079
:102C900070E08AEA9BE20E945F2110C00E94250436
:102CA000AC0160E070E0CE0141960E94423806C05F
:102CB0002115310519F0C9010E94FA1B8091C1024A
:102CC0009091C202009749F18E960E94941B892B25
:102CD00021F18091C1029091C2028E960E94941BB4
:102CE0009093932B8093922B8091C1029091C2027A
:102CF0008E960E94881BBC0122EA3BE24091922BF7
:102D00005091932BC9010E9476478091C102909106
:102D1000C2028E960E94AF1B04C01092932B109299
:102D2000922BDF91CF911F910F91FF90EF90DF9049
:102D30000895CF93DF93FC01608382E08183EF01EC
:102D40002296AAE9BBE288E00D9009928150E1F752
:102D5000CF010A96FC0186E0DF011D928A95E9F712
:102D6000DF91CF910895CF93DF9382EA9BE220E633
:102D70002093A22B1092A32B1092A52B1092A42B80
:102D80002AE32093A82B2FEF2093A92BFC01789600
:102D90002FEF32E03093BB2B2093BA2B1382128299
:102DA0001582148217821682118610861386128667
:102DB0001586148620E032E0378726870896BF0103
:102DC0000E94711C40917902242F30E0F901E653F2
:102DD000F44D85E8808311821092A62B8091AA2B56
:102DE0009091AB2B892BA1F58091AC2B9091AD2BC1
:102DF000892B71F58091AE2B9091AF2B892B41F5EA
:102E00008091B02B9091B12B892B11F58091B22B31
:102E10009091B32B892BE1F48091B42B9091B52B39
:102E2000892BB1F48091B62B9091B72B892B81F42B
:102E30008091B82B9091B92B892B51F488E0809325
:102E4000A72B205D3F4F3093932B2093922B11C0E3
:102E5000842F90E0805C9F4F9093932B8093922BD4
:102E600088E18093A72BC9018E52944D61E00E94A6
:102E7000991680917902C82FD0E0C653D44D1B8299
:102E80001A820E947603809590959B838A83DF91B6
:102E9000CF9108950F931F93CF93DF938C01EA0195
:102EA0001092790280E68093A22B1092A32B1092AD
:102EB000A52B1092A42B8AE38093A82B9FEF9093CD
:102EC000A92BEAEBFBE261157105B9F49093BA2BDB
:102ED00082E0818313821282158214821782168205
:102EE00011861086128681E0838794878D85858779
:102EF0008E859F859787868707C0DF01FB0180E16C
:102F000001900D928150E1F787E88093CA2B1092CF
:102F1000CB2B1092CE2B1092CF2B1092D02B109245
:102F2000D12BA2EDBBE2FE0180E101900D92815018
:102F3000E1F71092A62BCE010E94A31F892B01F569
:102F40000115110549F0AAEABBE2F80180E1019000
:102F50000D928150E1F706C08AEA9BE26AEB7BE2C0
:102F60000E94711C88E28093A72B8091790290E0E7
:102F70008E51944D61E00E94991680E590E025C045
:102F80001092AB2B1092AA2B1092AD2B1092AC2B5F
:102F90001092AF2B1092AE2B1092B12B1092B02B3F
:102FA0001092B32B1092B22B1092B52B1092B42B1F
:102FB0001092B72B1092B62B1092B92B1092B82BFF
:102FC00088E18093A72B80E490E09093932B8093EB
:102FD000922B80917902C82FD0E0C653D44D1B822A
:102FE0001A820E947603809590959B838A83DF9155
:102FF000CF911F910F910895DF92EF92FF920F935F
:103000001F93CF93DF9390917902E92FF0E0DF01D6
:10301000A253B44DFC908091A92B8F3F09F03BC186
:10302000E653F44D8181882309F035C114968C91C3
:1030300014978F3F09F42FC120E4D22EDF20F6FE33
:1030400005C08091BA2B8F3F09F425C184E180939C
:10305000AA021092AC021092AB02C091922BD091B6
:10306000932B40E050E064E1292F30E0245D3F4F96
:103070000FC0FC01EE55F44D9181992309F405C16F
:103080008081823009F4AF01990F990F990F690F70
:10309000C901860F911D8C179D0758F35093AC0200
:1030A0004093AB026093AA02CD0104960E94A31F35
:1030B000FC019093C6028093C502009741F081897C
:1030C000882309F0E8C0CF010E94621FE4C080910C
:1030D000790290E08E52944D0E94FD1F8C019093D6
:1030E000C2028093C102009709F4D5C0C091AB021F
:1030F000D091AC02209711F420E00AC0BC016F5EB1
:103100007F4FCE01029648E050E00E946947282F89
:1031100090E8E92EEF20F80185A5882369F520972E
:1031200009F4B9C0D8015196FE01329688E00190A9
:103130000D928150E1F7C091C102D091C202DD2011
:10314000C1F081E08DA71BA66091E4317091E5315B
:103150008091E6319091E73128EE33E040E050E095
:103160000E94B74ACE014996BA01A9010E9442388D
:103170005AC082E08DA757C0F5FC09C0222339F060
:10318000813009F088C082E0F80185A784C02097CB
:1031900049F0D8015196FE01329688E001900D92D7
:1031A0008150E1F7DD20E1F00091C1021091C202EF
:1031B00081E0F80185A76091E4317091E53180915B
:1031C000E6319091E73128EE33E040E050E00E9494
:1031D000B74AC8014996BA01A9010E9442380EC0F7
:1031E0008091AB029091AC02892B41F0222331F007
:1031F000E091C102F091C20282E085A7E091C10294
:10320000F091C20284A5882371F0EE2061F48AEA6D
:103210009BE20E94DF1F9093C4028093C302009739
:1032200011F00E94FA1BE091C102F091C202E4A6E3
:103230008091C1029091C2028E960E94941B892BAC
:1032400051F18091C1029091C2028E960E94941B0E
:103250009093932B8093922B8091C1029091C20204
:103260008E960E94881BBC0122EA3BE24091922B81
:103270005091932BC9010E9476478091C102909191
:10328000C2028E960E94AF1B0AC05093AC024093BC
:10329000AB026093AA021092932B1092922BDF91B3
:1032A000CF911F910F91FF90EF90DF900895DF92E3
:1032B000EF92FF920F931F93CF93DF938091A92BEF
:1032C0008F3F09F015C280917902E82FF0E0EE55AA
:1032D000F44D80A98F3F09F40BC281A5882309F022
:1032E00007C21092AC021092AB0284E18093AA0252
:1032F00042E0D42E89C0F901EE55F44D8181882336
:1033000009F4F6C18081813009F06EC0F093AC02FF
:10331000E093AB028091AA2B9091AB2B892B59F5AE
:103320008091AC2B9091AD2B892B29F58091AE2B00
:103330009091AF2B892BF9F48091B02B9091B12B08
:10334000892BC9F48091B22B9091B32B892B99F4DE
:103350008091B42B9091B52B892B69F48091B62B79
:103360009091B72B892B39F48091B82B9091B92B80
:10337000892B09F4BDC18AEA9BE20E94FD1FEC0182
:103380009093C2028093C1026091AB027091AC0233
:10339000009749F46E5F7F4F8AEA9BE240E022E0AB
:1033A0000E94862221C032E0E32EF12CE60EF71EA9
:1033B0008C010F5E1F4FC701B80148E050E00E942A
:1033C0006947009769F0D801F70188E001900D92F4
:1033D0008150E1F7E091C102F091C202D5A604C08C
:1033E0008DA5882309F4DDA68091AA02E0917902D7
:1033F000F0E0EE55F44DE80FF11D95A5990F990FEA
:10340000990F980F9093AA0280917902482F50E06B
:103410008091AA029A01280F311D245D3F4F8091AF
:10342000922B9091932B2817390708F464CFCA0187
:103430008E52944D0E94A31FFC019093C60280936C
:10344000C502009709F454C18091AA2B9091AB2B2F
:10345000892B09F099C08091AC2B9091AD2B892BD1
:1034600009F092C08091AE2B9091AF2B892B09F07F
:103470008BC08091B02B9091B12B892B09F084C027
:103480008091B22B9091B32B892B09F07DC0809154
:10349000B42B9091B52B892B09F076C08091B62B77
:1034A0009091B72B892B09F06FC08091B82B909128
:1034B000B92B892B09F068C08091BA2B8F3F09F096
:1034C00017C18091BB2B823009F012C18091BC2BB7
:1034D0009091BD2B892B09F00BC18091BE2B90914F
:1034E000BF2B892B09F004C18091C02B9091C12B77
:1034F000892B09F0FDC08091C22B9091C32B892BA1
:1035000009F0F6C08091C42B882309F0F1C08091A6
:10351000C52B813009F0ECC08091C62B8F3F09F09C
:10352000E7C08189882361F18FEF92E09093BB2BF4
:103530008093BA2B1092BD2B1092BC2B1092BF2BF4
:103540001092BE2B1092C12B1092C02B1092C32B45
:103550001092C22B1092C52B1092C42B1092C72B25
:103560001092C62B80E091E09093C92B8093C82BDA
:103570008AEA9BE26AEB7BE20E94711C90E272C0D5
:10358000CF010E94621FB4C08AEA9BE20E94A31F7F
:10359000892B09F0ADC08091BA2B8F3F09F03FC055
:1035A0008091BB2B8230D9F58091BC2B9091BD2BA3
:1035B000892BA9F58091BE2B9091BF2B892B79F592
:1035C0008091C02B9091C12B892B49F58091C22B02
:1035D0009091C32B892B19F58091C42B8823F9F482
:1035E0008091C52B8130D9F48091C62B8F3FB9F4DF
:1035F000EAEBFBE2DF01509780E10D9001928150F0
:10360000E1F780917902E82FF0E0AAEABBE2EE52FE
:10361000F44D80E101900D928150E1F722C08AEBD8
:103620009BE20E94A31F2091C5023091C602281779
:10363000390709F05DC0EAEBFBE2DF01509780E15A
:103640000D9001928150E1F780917902E82FF0E02E
:10365000AAEABBE2EE52F44D80E101900D92815056
:10366000E1F790E61092790280E68093A22B109207
:10367000A32B1092A52B1092A42B1092A62B88E2BC
:103680008093A72B8AE38093A82B8FEF8093A92B9D
:1036900088E88093CA2B1092CB2B9093CE2BE0918D
:1036A000C502F091C602A2EDBBE2319680E1019025
:1036B0000D928150E1F78091790290E08E51944D06
:1036C00062E00E94991680917902C82FD0E0C6531B
:1036D000D44D1B821A820E947603809590959B831D
:1036E0008A8380E590E09093932B8093922B04C083
:1036F0001092932B1092922BDF91CF911F910F91EB
:10370000FF90EF90DF900895FC01118210820895E0
:10371000FC0180819181009719F4E0E0F0E002C0A3
:10372000FC013296CF010895FC010190F081E02D5B
:10373000309719F4E0E0F0E005C0EE5FFA4F019039
:10374000F081E02DCF010895FC010190F081E02D82
:10375000309721F0EE5FFA4F718360830895CF9325
:10376000DF93EC0188819981009761F08C5F9A4F1B
:103770000E94D6366881798184E591E00E94DE332B
:1037800019821882DF91CF9108950F931F938C01B6
:10379000FC016081718184E591E00E94DE33F801D3
:1037A000118210821F910F9108950F931F93CF9351
:1037B000DF93EC018B0188819981892B19F020E03E
:1037C00030E012C084E591E00E94B0339983888391
:1037D000009741F08C5F9A4FB80145EC5BE19E0188
:1037E0000E94183728813981C901DF91CF911F913B
:1037F0000F910895FC01009709F010820895FC01D3
:10380000009709F010820895682F8DEE91E3909350
:10381000090D8093080DFC01462F552747FD509553
:1038200016C08081882391F06F3F29F0818990E054
:103830008417950759F481818E3F41F48281803845
:1038400029F4F093090DE093080D0CC0B1969F0187
:1038500082E3E137F80728F3F093090DE093080DB0
:1038600020E030E0C9010895682F8DEE91E3909338
:10387000090D8093080DFC01462F552747FD5095F3
:1038800016C08081882391F06F3F29F0818990E0F4
:103890008417950759F481818E3F19F4828180380D
:1038A00029F0F093090DE093080D0CC0B1969F012B
:1038B00082E3E137F80728F3F093090DE093080D50
:1038C00020E030E0C9010895FC01009709F0108262
:1038D0000895FC01009709F010820895FC01108200
:1038E0000895FF920F931F93CF93DF938C01FB01F9
:1038F00080818E3F21F48181803821F444C08F3F44
:1039000009F441C08DEE91E39093090D8093080D69
:10391000FF2440E050E02EC08081882331F181896E
:10392000813019F581818E3F19F482818038E9F068
:10393000EB01DF0180E0388111962C91119732174D
:1039400031F4885F219611968038A9F70AC02327A1
:10395000982F985F27FD05C08F5F891711F0220F00
:10396000F9CF8F1510F0F82EAF01B196F093090D35
:10397000E093080DE091080DF091090D82E3E13725
:10398000F80750F204C081E00E94041CAC0141150C
:10399000510591F4F801118210821382128215826E
:1039A0001482178216821186108613861286158657
:1039B00014861786168608C0D801FA01319680E170
:1039C00001900D928150E1F7DF91CF911F910F91FE
:1039D000FF90089540E020E030E0FC01E20FF31F8B
:1039E0005081FB01E20FF31FE0815E1731F4485F65
:1039F0002F5F3F4F403889F70AC0E527842F885F43
:103A0000E7FD05C04F5F481711F0EE0FF9CF842F87
:103A10000895DF92EF92FF920F931F930E94543804
:103A2000D82E0E945438E090E031F090E1310091BE
:103A3000E2311091E3313D2D20E0280F391F40E0A5
:103A400050E0CA01B901A80197010E94B74A9B0141
:103A5000AC0116950795F794E7942E0D3F1D401F76
:103A6000511FB901CA011F910F91FF90EF90DF9094
:103A70000895CF93DF93EC0198A18091EC319817D2
:103A800050F5AE014F5F5F4F80E090E060E070E086
:103A90000E944A1788A18F5F88A36091E8317091D6
:103AA000E9318091EA319091EB3128EE33E040E04A
:103AB00050E00E94B74ACA01B9012DE730E040E06A
:103AC00050E00E94844A9B01AC01CE014C96B901A2
:103AD0000E940E3502C081E0898BDF91CF9108955D
:103AE000CF93DF93DC01EC012896FB0188E0019085
:103AF00009928150E1F718968C91189792E08927E6
:103B000018968C93DF91CF9108950F931F93CF93C5
:103B1000DF938C0186E397E39093150D8093140D4A
:103B200012C08881882351F0CE014396B80140E14C
:103B300050E00E946947009709F41882AE96D0932E
:103B4000150DC093140DC091140DD091150D8AE37D
:103B5000CE3CD80730F3DF91CF911F910F9108959C
:103B6000CF92DF92EF92FF920F931F93CF93DF9349
:103B70006C0186E397E39093150D8093140D00E09C
:103B800010E0EE241CC08881882391F0F988FE148F
:103B900078F0BE016F5F7F4F4F2D46954695469555
:103BA000C60150E00E946947009711F48E0101C0E0
:103BB000FE2CAE96D093150DC093140DEF2CC09132
:103BC000140DD091150D8AE3CE3CD807E0F2C80160
:103BD000DF91CF911F910F91FF90EF90DF90CF90E9
:103BE00008950F931F93CF93DF938C0186EC92E39C
:103BF00090930F0D80930E0D16C08881882371F06D
:103C00004989469546954695CE010196B80150E002
:103C10000E946947009711F481E00EC06B96D09323
:103C20000F0DC0930E0DC0910E0DD0910F0D83E3BB
:103C3000C233D80710F380E0DF91CF911F910F912D
:103C400008958F929F92AF92BF92DF92EF92FF9270
:103C50000F931F93CF93DF935A014901D02EF701A1
:103C60001182108270E0469F8001479F100D569F81
:103C7000100D1124080F191FD694D694D694EC0178
:103C800016C08881882371F0CE010196B4014D2DB4
:103C900050E00E946947009741F4F701D183C08347
:103CA00080E010C0F701D183C083CA0DDB1DC017AF
:103CB000D10738F3F70180819181892B11F482E0DB
:103CC00001C081E0DF91CF911F910F91FF90EF90A4
:103CD000DF90BF90AF909F908F9008959F92AF928A
:103CE000BF92CF92DF92EF92FF920F931F93CF93E9
:103CF000DF93182FD92EC62EB42EA52E922E86E332
:103D000097E364E14EE250E0212F3D2D0C2D74E14C
:103D1000E72E7DE0F72E0E94211E8130E1F4C09154
:103D2000140DD091150DFE018193812F9D2D9C01C5
:103D3000D90180E10D9001928150E1F7C98ADE013D
:103D400053968B2D9A2D9C01F90180E101900D92E3
:103D50008150E1F79A8A8091140D9091150DDF91B1
:103D6000CF911F910F91FF90EF90DF90CF90BF9078
:103D7000AF909F900895EF92FF920F939C0181E77F
:103D800092E360E041E150E000E8ECE0EE2EEDE08F
:103D9000FE2E0E94211E882319F020E030E004C08E
:103DA00020910C0D30910D0DC9010F91FF90EF90F6
:103DB0000895DF92EF92FF920F931F93182FD92E41
:103DC00081E792E360E041E150E0212F3D2D00E8E2
:103DD000FCE0EF2EFDE0FF2E0E94211E813019F045
:103DE00040E050E00FC040910C0D50910D0DFA01D4
:103DF0008193812F9D2D9C01D90180E10D9001922D
:103E00008150E1F7CA011F910F91FF90EF90DF9071
:103E10000895EF92FF920F939C0181E792E365E092
:103E200041E150E000E8AAE0EA2EADE0FA2E0E945F
:103E3000211E882319F020E030E004C020910A0DF3
:103E400030910B0DC9010F91FF90EF900895CF9322
:103E5000DF93EC01009799F19FEF9093F60C82E0CD
:103E60008093F70C1092F90C1092F80C1092FB0C46
:103E70001092FA0C1092FD0C1092FC0C1092FF0C98
:103E80001092FE0C1092000D81E08093010D909332
:103E9000020D8E858093030D8F8598899093050D73
:103EA0008093040D86EF9CE00E94091FFC01909313
:103EB0000B0D80930A0D009709F010821882DF9194
:103EC000CF910895FC0181818E3F31F48281803849
:103ED00019F420E030E005C0CF010E94271F21E047
:103EE00030E0C9010895DF92EF92FF920F931F9384
:103EF000182FD92E81E792E365E041E150E0212FB0
:103F00003D2D00E8BAE0EB2EBDE0FB2E0E94211E05
:103F1000813019F040E050E00FC040910A0D5091FF
:103F20000B0DFA018193812F9D2D9C01D90180E118
:103F30000D9001928150E1F7CA011F910F91FF90FE
:103F4000EF90DF900895EF92FF920F939C018DEE1A
:103F500091E364E041E250E000E878E0E72E7DE0A4
:103F6000F72E0E94211E882319F020E030E004C0C3
:103F70002091080D3091090DC9010F91FF90EF902C
:103F80000895EF92FF920F939C01062F86EC92E327
:103F900064E04BE150E0EEE0EE2EEDE0FE2E0E94FC
:103FA000211E882319F020E030E004C020910E0D7E
:103FB00030910F0DC9010F91FF90EF900895EF928E
:103FC000FF920F939C018AE393E362E04AE150E0A1
:103FD00000E8F2E1EF2EFDE0FF2E0E94211E882373
:103FE00019F020E030E004C02091120D3091130D43
:103FF000C9010F91FF90EF900895EF92FF920F93F8
:104000009C018EE693E364E140E350E000E8A0E128
:10401000EA2EADE0FA2E0E94211E882319F020E03E
:1040200030E004C02091100D3091110DC9010F91A5
:10403000FF90EF9008951092070D1092060D8AE3FD
:1040400093E322C080818823D1F0CF0101960E94A2
:10405000FD1FFC01009751F085A5882339F02091C0
:10406000120D3091130D2F5F3F4F1EC08091120D26
:104070009091130D01969093070D8093060D8091FA
:10408000120D9091130D4A969093130D8093120D7B
:10409000E091120DF091130D83E3EE36F80790F2E4
:1040A0002091060D3091070DC90108950E941B2033
:1040B000892B91F48091F50C833070F40E94B31633
:1040C0008091F50C8F5F8093F50C8EE297E364EF9F
:1040D00071E00E94780208958EE297E30E947601D3
:1040E00008958F929F92AF92BF92CF92DF92EF92FC
:1040F000FF920F931F93CF93DF934C015A016B01F3
:10410000122F8DEE91E364E041E250E0940100E86B
:10411000B8E0EB2EBDE0FB2E0E94211E813019F08D
:1041200020E030E068C0A091080DB091090DFD01BC
:104130008193E40180E1099001928150E1F7519669
:104140001C92519752961C935297A114B104C1042A
:10415000D10421F481E053968C9309C053961C92AC
:104160005397CD014496B601A5010E9442380091B3
:10417000080D1091090D045E1F4F0E9454386DE721
:1041800070E00E94A34ABC01C8010E940E35E09174
:10419000080DF091090D10A29FEF9093F60C82E0AC
:1041A0008093F70C1092F90C1092F80C1092FB0C03
:1041B0001092FA0C1092FD0C1092FC0C1092FF0C55
:1041C0001092FE0C1092000D81E08093010D9093EF
:1041D000020DF40185858093030D86859785909364
:1041E000050D8093040D86EF9CE00E94731F2091C3
:1041F000080D3091090DC901DF91CF911F910F91E9
:10420000FF90EF90DF90CF90BF90AF909F908F90F6
:1042100008958F929F92AF92BF92CF92DF92EF92CA
:10422000FF920F931F93CF93DF93182F992E862E13
:1042300059016A0186EC92E364E04BE150E0212FE2
:10424000392D082D7EE0E72E7DE0F72E0E94211EFD
:10425000813031F5A0910E0DB0910F0DFD018193CC
:10426000812F992D9C01E90180E1099001928150F3
:10427000E1F751968C925197A114B104C104D10475
:1042800061F0CD014296B601A5010E944238E0914D
:104290000E0DF0910F0D128E03C081E05A968C9393
:1042A00080E090E0DF91CF911F910F91FF90EF9010
:1042B000DF90CF90BF90AF909F908F9008959F9286
:1042C000AF92BF92CF92DF92EF92FF920F931F9324
:1042D000CF93DF93182F992E5A016B018AE393E352
:1042E00062E04AE150E0212F392D00E8E2E1EE2EB4
:1042F000EDE0FE2E0E94211E813019F020E030E01A
:1043000026C0C091120DD091130DFE018193812F13
:10431000992D9C01D90180E10D9001928150E1F726
:10432000A114B104C104D10461F0CE014196B601DB
:10433000A5010E944238E091120DF091130D118EEB
:1043400002C081E0898F2091120D3091130DC901B7
:10435000DF91CF911F910F91FF90EF90DF90CF9061
:10436000BF90AF909F900895FC01009721F01082BC
:104370008E960E94AF1B089580EC93E0EEE6F3E387
:10438000DF019C011D9221503040E1F784E3EAE314
:10439000F3E3DF011D928A95E9F78CE6E6ECF2E3A0
:1043A000DF011D928A95E9F78BEEEBEDF1E3DF017A
:1043B0001D928A95E9F788E993E0E6E3F7E3DF01E8
:1043C0009C011D9221503040E1F780E095E0A0E093
:1043D000B0E08093DB319093DC31A093DD31B0937A
:1043E000DE3180E48093DF3180E395E7A0E0B0E048
:1043F0008093E0319093E131A093E231B093E331C7
:104400000E94091D6093E4317093E5318093E63199
:104410009093E73188EE93E0A0E0B0E08093E8313C
:104420009093E931A093EA31B093EB3181E080932E
:10443000EC318EEF90E89093F70C8093F60C10928D
:10444000F90C1092F80C1092FB0C1092FA0C1092CE
:10445000FD0C1092FC0C86EF9CE060E420E030E064
:1044600040E050E00E940921AEEFBCE0EAE9FBE247
:1044700088E001900D928150E1F78091FE0C92E06E
:1044800089278093FE0C86EF9CE040E050E060E0DE
:1044900070E021E00E9471208FEF92E09093F70C82
:1044A0008093F60C1092F90C1092F80C1092FB0C01
:1044B0001092FA0C1092FD0C1092FC0C1092FF0C52
:1044C0001092FE0C1092010D1092000D1092030D2F
:1044D0001092020D80E091E09093050D8093040D01
:1044E00086EF9CE00E94731F0E9454386DE770E0D5
:1044F0000E94A34ABC018EE297E30E94780282E305
:1045000093E36CE070E00E9478020895BF92CF922E
:10451000DF92EF92FF920F931F93CF93DF93182FA9
:10452000D92EEB01C42EB22E8EE693E364E140E374
:1045300050E0212F3D2D00E8F0E1EF2EFDE0FF2EB1
:104540000E94211E90E08130910509F054C04091F5
:10455000100D5091110DDA0181E08D93212F3D2D29
:10456000C901FC0180E101900D928150E1F7CA017F
:104570004196209741F0FC01DE0188E00D90019208
:104580008150E1F706C0FC0188E0DF011D928A95A9
:10459000E9F7E091100DF091110DC4A6B5A6CF0179
:1045A0008E960E94841B8091100D9091110D49965A
:1045B00040E050E060E070E00E9442388091100DD1
:1045C0009091110D819640E050E060E070E00E9413
:1045D00042380091100D1091110DF80113A60E94A0
:1045E000B227D8019A969C938E9399972091100D9B
:1045F0003091110D24C0029701F50E94B227AC0141
:10460000EEE6F3E360E070E00DC08081882339F0CE
:1046100021A532A52417350710F4BF0101C09A0166
:10462000F096A901B7E3EE32FB0779F76115710542
:1046300021F0CB010E94B42177CF20E030E0C90106
:10464000DF91CF911F910F91FF90EF90DF90CF906E
:10465000BF900895DF92EF92FF920F931F938DEE1C
:1046600091E330C08081882341F18389882369F4F4
:10467000CF0144960E940C38892B39F08091080DA7
:104680009091090D0E94271F18C0E091080DF0912C
:10469000090D8189882389F490A18091EC318917D3
:1046A00060F0CF014C960E94EB34892B31F0809161
:1046B000080D9091090D0E94391D8091080D90916F
:1046C000090D81969093090D8093080DE091080DD6
:1046D000F091090D82E3E137F80720F28AE393E3D2
:1046E00018C08081882381F0818D882369F4CF01EF
:1046F00041960E940C38892B39F0E091120DF0910F
:10470000130D309709F010828091120D9091130DC6
:104710004A969093130D8093120DE091120DF09133
:10472000130D83E3EE36F807E0F286EC92E318C04F
:104730008081882381F0828D882369F4CF0142969D
:104740000E940C38892B39F0E0910E0DF0910F0D7D
:10475000309709F0108280910E0D90910F0D4B96BD
:1047600090930F0D80930E0DE0910E0DF0910F0DB3
:1047700083E3E233F807E0F28EE693E39093110DC2
:104780008093100DB2E0EB2EA4E0DA2EFF24F39418
:104790008EC08081882309F481C085A5813009F10C
:1047A000813030F0833051F1843009F077C034C06B
:1047B00083A5833010F0CF0142C0CF0181960E94C3
:1047C0000C38892B09F46AC0E091100DF091110D9D
:1047D00083A58F5F83A7319680E090E060E070E072
:1047E00042C0CF0149960E940C38892B09F456C06B
:1047F000E091100DF091110DE5A650C0CF01499642
:104800000E940C38892B09F449C0E091100DF091F9
:10481000110DD5A6F3A623C083A5833098F0CF0150
:1048200001960E94DF1FFC019093130D8093120DDF
:10483000009709F010828091100D9091110D0E9447
:10484000B4212CC0CF0181960E940C38892B31F104
:10485000E091100DF091110D83A58F5F83A7319624
:1048600080E090E0BF01AF010E944A170091100D57
:104870001091110D6091E8317091E9318091EA3128
:104880009091EB3128EE33E040E050E00E94B74ACF
:10489000C8018196BA01A9010E9442388091100D89
:1048A0009091110DC0969093110D8093100DE09191
:1048B000100DF091110D87E3EE32F80708F469CF7F
:1048C00082E393E30E946D021F910F91FF90EF909E
:1048D000DF9008951F920F920FB60F9211240F9040
:1048E0000FBE0F901F901895EF92FF920F931F939A
:1048F000CF93DF93182FE62EF42E052F80E061E092
:104900000E94342980E06E2D0E94342980E0612FBE
:104910000E9434292F2D302FC901EC0104C0699168
:1049200080E00E9434299E012F192E15C0F380E0EB
:1049300064E00E943429DF91CF911F910F91FF9085
:10494000EF900895AC01DC010D900020E9F76A2F8B
:10495000681B653108F064E182EC0E9474240895BC
:10496000382F882329F08091DE3A8F5F8093DE3ADA
:1049700020912B0D213041F0213018F0223051F4DC
:1049800006C0313039F523C030932C0D20C0309350
:104990002D0D1DC02731A8F4E22FF0E080912C0DE1
:1049A00090E002968E179F077CF4343051F481E03A
:1049B00080932E0D88E791E061E040E050E00E9496
:1049C0001E3310922B0D06C0EC5EF24F30832F5F2A
:1049D00020932B0D80E090E008950F931F93082FF4
:1049E0002FB783B7817F866083BF002311F413E064
:1049F00001C0102FF8948091B60080628093B600B9
:104A000082E08093B00087E08093B100812F90E036
:104A100035E0880F991F3A95E1F78093B3002FBFD7
:104A20001092B2000E94E9298091B60084FDFCCF6B
:104A30008091700082608093700083B7816083BF33
:104A40001092DE3A83B7816083BF889583B78E7FEB
:104A500083BF812F0E946227002321F48091DE3AD8
:104A6000882371F383B78E7F83BF809170008D7F21
:104A7000809370000E94D2291F910F910895CF93C7
:104A8000DF9380E68093A22B81E08093A32B10928A
:104A9000A52B1092A42B8AE38093A82B8091DF3161
:104AA0008093A92B0E941B20AAEBBBE2FC0180E1B2
:104AB00001900D928150E1F78AEA9BE26AEB7BE27A
:104AC0000E94711C8091790290E0FC01E653F44D44
:104AD00020E820831182FC01E253F44D1082118200
:104AE000128213828E52944DFC0180E1DF011D92EF
:104AF0008A95E9F780E490E09093932B8093922B32
:104B00001092A62B88E18093A72B80917902C82F61
:104B1000D0E0C653D44D1B821A820E947603809542
:104B200090959B838A830E94A50EDF91CF91089573
:104B3000CF93DF93EC01FA0188819981009729F0E6
:104B4000805E914009F055C00DC080E090E00E9469
:104B5000F40D882309F04DC080EE91E0998388839D
:104B600081E04AC08091DA31681791F44081403881
:104B700019F0413889F705C081EC60E040E050E071
:104B800004C080EC61E046E15DE00E947424E4CF63
:104B9000613011F780912E0D8823F1F280912D0D57
:104BA000833859F08438E1F0813801F58091170D90
:104BB0008093160D0E943F2519C08091170D882300
:104BC000F1F4E091DF01F091E00109958091170D7A
:104BD0000E94ED24E091DD01F091DE01099506C00F
:104BE00083EC60E040E050E00E94742410922E0DAF
:104BF000B3CF1982188283E0DF91CF91089580911D
:104C0000D03090E08F709070892B81F7DACF9C01C3
:104C1000F999FECF32BD21BDF89A80B5089500D034
:104C200000D000D0EDB7FEB731962CE830E0ADB73C
:104C3000BEB712963C932E9311979383828375830C
:104C400064830E94B4478DB79EB706960FB6F8945A
:104C50009EBF0FBE8DBF0895EF92FF920F931F93DB
:104C6000DF93CF93CDB7DEB728970FB6F894DEBFAA
:104C70000FBECDBF0E94C2290E94D2290E94573484
:104C800080E06CE046E00E94BE2880E060EB74E2C9
:104C90000E944A2981E068E046E00E94BE2881E047
:104CA0000E949E290E94A22700D000D081EC90E0B3
:104CB000ADB7BEB712969C938E93119782E891E0A0
:104CC00014969C938E9313970E94B4470F900F9065
:104CD0000F900F900E94BC370E94653283E391E0F1
:104CE00060E070E00E9451330E947537E091CD0181
:104CF000F091CE0109958E010F5F1F4F88E0F801FA
:104D000011928A95E9F7C80160E070E048E050E050
:104D100027E036E20E949847AAE9BBE2F80188E062
:104D200001900D928150E1F78DEC9BEA60E070E01C
:104D3000AE014F5F5F4F0E94F42DF999FECF88E0DE
:104D400090E092BD81BDF89A80B58093DF3AF999E1
:104D5000FECF89E090E092BD81BDF89A80B52091A8
:104D6000DF3A30E090E0809590952817390711F0F0
:104D70008AE102C08091DF3A0E940D2CCE0101969B
:104D80000E946E300E94173BE0910C02F0910D02E0
:104D90000995E091F301F091F4010995E0915E022B
:104DA000F0915F0209950091F1011091F201E090FC
:104DB0000A02F0900B020E947E2A2DB73EB72850BF
:104DC00030400FB6F8943EBF0FBE2DBFEDB7FEB713
:104DD00031962FEA30E0ADB7BEB712963C932E93D2
:104DE000119713830283F582E482868317820E94DF
:104DF000B447E0911602F09117022DB73EB7285F35
:104E00003F4F0FB6F8943EBF0FBE2DBF3097F1F065
:104E10000995BC018DE790E00E94A34A8FEF6F3F98
:104E20007807A1F000D000D08CE990E0ADB7BEB714
:104E300012969C938E93119714967C936E9313976E
:104E40000E94B4470F900F900F900F9000D08AE906
:104E500090E0EDB7FEB7928381830E94B4470F9034
:104E60000F908AE491E060E070E00E94513388E79F
:104E700091E060E070E00E94513383E291E00E9493
:104E8000A13300D082E990E0ADB7BEB712969C93F3
:104E90008E9311970E94B4470F900F9028960FB6EB
:104EA000F894DEBF0FBECDBFCF91DF911F910F9160
:104EB000FF90EF9008950E942C260E9475320E9468
:104EC000E729FBCF2091E43A3091E53A4091E63A68
:104ED0005091E73A90E0A0E0B0E0280F391F4A1F58
:104EE0005B1F2093E43A3093E53A4093E63A5093BF
:104EF000E73A2091E03A3091E13A4091E23A50911C
:104F0000E33A280F391F4A1F5B1F2093E03A309382
:104F1000E13A4093E23A5093E33A08958091E43ABB
:104F20009091E53AA091E63AB091E73A0196A11D39
:104F3000B11D8093E43A9093E53AA093E63AB0939A
:104F4000E73A0895F8941092B60016BC8DE387BD39
:104F500092E094BD85E085BD85B385BB90936E00DE
:104F60007894089520912F0D3091300D80912F0D60
:104F70009091300D28173907A9F7C901089507C086
:104F800022E330E0000021503040E1F70197009724
:104F9000B9F70895BC0140912F0D5091300D8091CB
:104FA0002F0D9091300D48175907A9F720912F0D1B
:104FB0003091300D80912F0D9091300D28173907C9
:104FC000A9F7241B350B2617370780F3089508959A
:104FD0002091E43A3091E53A4091E63A5091E73A2F
:104FE0008091E43A9091E53AA091E63AB091E73A9F
:104FF000281739074A075B0759F7B901CA0108950D
:105000001F920F920FB60F920BB60F9211242F938F
:105010003F934F935F936F937F938F939F93AF9340
:10502000BF93EF93FF9380912F0D9091300D0196D8
:105030009093300D80932F0D8091310D8F5F809371
:10504000310D8091310D8D3721F41092310D0E9478
:105050008E270E942901892B11F00E94A801FF913F
:10506000EF91BF91AF919F918F917F916F915F91E0
:105070004F913F912F910F900BBE0F900FBE0F904D
:105080001F9018951F920F920FB60F921124109235
:10509000A6010F900FBE0F901F9018951F920F92B0
:1050A0000FB60F920BB60F9211242F933F934F938D
:1050B0005F936F937F938F939F93AF93BF93EF9380
:1050C000FF93E0919C01F0919D018081E091A70107
:1050D000F091A801309709F00995FF91EF91BF91E8
:1050E000AF919F918F917F916F915F914F913F9180
:1050F0002F910F900BBE0F900FBE0F901F90189521
:105100001F920F920FB60F9211241092B3010F90BD
:105110000FBE0F901F9018951F920F920FB60F920F
:105120000BB60F9211242F933F934F935F936F937E
:105130007F938F939F93AF93BF93EF93FF93E091F0
:10514000A901F091AA018081E091B401F091B5012B
:10515000309709F00995FF91EF91BF91AF919F9121
:105160008F917F916F915F914F913F912F910F9010
:105170000BBE0F900FBE0F901F90189590E02DE082
:1051800030E0829FF001839FF00D929FF00D11247B
:10519000E456FE4FA281B3811C92A481B5816C9329
:1051A000A681B78188ED8C93A085B1854C9312863A
:1051B000148613860895CF93DF93AB0190E02DE022
:1051C00030E0829FD001839FB00D929FB00D1124DB
:1051D000A456BE4FED012A9691E00AC09883ED9146
:1051E000FC911197808388818823E9F74F5F5F4F97
:1051F000FA018491882391F7DF91CF910895CF939D
:10520000DF93262F372FA90190E02DE030E0829F19
:10521000D001839FB00D929FB00D1124A456BE4FB4
:10522000ED012A9691E02DE018C08A3041F4988370
:10523000ED91FC911197208388818823E9F7FA0189
:1052400080818D3041F09883ED91FC91119780839E
:1052500088818823E9F74F5F5F4FFA0180818823B7
:1052600021F7DF91CF91089590E02DE030E0829F0B
:10527000F001839FF00D929FF00D1124E456FE4F34
:1052800081E08287A081B1816C933A9680818823E6
:10529000E9F7089590E02DE030E0829FF001839FD0
:1052A000F00D929FF00D1124E456FE4F7487638732
:1052B000089591E09093A601E0919C01F0919D01E9
:1052C00080838091A6018823E1F70895482F8A30D2
:1052D000C9F48091320D90E02DE030E0829FF00122
:1052E000839FF00D929FF00D1124E456FE4F81E054
:1052F0008287A081B1818DE08C933A96808188234A
:10530000E9F702C08D30B9F08091320D90E02DE0C8
:1053100030E0829FF001839FF00D929FF00D1124E9
:10532000E456FE4F81E08287A081B1814C933A968A
:1053300080818823E9F780E090E008958093320D22
:105340008EE891E09093293C8093283C08950F9338
:105350001F93DF93CF93CDB7DEB7FE013A9603E3F9
:105360001DE0C80160E470E0488559859F010E94F6
:10537000DA478F81B8010E94FF28CF91DF911F91FA
:105380000F91089584B7877F84BF1092740D109297
:10539000730D88E10FB6F89480936000109260005E
:1053A0000FBE08958091730D9091740D01979093A5
:1053B000740D8093730D2FE088E190E00FB6F894A0
:1053C000A895809360000FBE209360000895A89573
:1053D000089588E10FB6F894809360001092600001
:1053E0000FBE0895F89428E088E190E00FB6F89495
:1053F000A895809360000FBE20936000FFCF80933C
:10540000750D0895DF93CF9300D00F92CDB7DEB71F
:10541000309166001092700010926F008091B6007B
:1054200080628093B60081E08093B1008FE890E0C5
:105430000197F1F78FB78983F89420E861E050E88D
:105440004FEF609381008091B6008B71E1F750932C
:10545000B200109285001092840047BBB89BFECF2B
:1054600080918400909185009B838A8310928100B3
:105470008A819B81875F934760F4809166008E37B5
:1054800019F1809166008F3FF9F0809166008F5F7F
:1054900012C08A819B818D52904810F491E00EC019
:1054A00080916600813881F080916600882361F0E8
:1054B0008091660081508093660090E0215029F031
:1054C000992309F4BECF01C090E0809166008093DB
:1054D000793B992311F43093660030936600109263
:1054E000B1008091B6008F7D8093B60089818FBF17
:1054F0000F900F900F90CF91DF9108958091770DCD
:1055000008958091760D8091760D90E0089581E068
:105510006FE140E00E94002F813021F020E030E078
:10552000813111F421E030E0C901089581E06FE19B
:1055300040E00E94002F823021F0823111F081E0A2
:10554000089580E0089581E06FE140E00E94002F1F
:10555000982F81518230B8F39F31A9F3913099F39C
:10556000923089F308951B9B02C080E1089585E085
:105570006FE040E00E94002F08950F931F93182FB3
:10558000883059F0863049F0893039F0863129F079
:10559000893119F022E430E050C01B9B03C024E4A1
:1055A00030E04BC00E94A32A81E06FE140E00E94FE
:1055B000002F082F181709F43EC0183061F42B98FB
:1055C0008DE090E00197F1F782E06FE140E023E0A9
:1055D0000E94132F22C0193139F4863199F482E0E8
:1055E0006FE140E029E008C0163161F4893151F4DF
:1055F00082E06FE140E026E00E94132F83E090E01C
:105600000197F1F782E06FE140E0212F0E94132F14
:10561000083019F489E691E002C083E090E0019738
:10562000F1F781E06FE140E00E94002F811719F04F
:1056300023E430E002C020E430E0C9011F910F9163
:1056400008958091773B882339F02B988FEA92E078
:105650000197F1F71092773B0E94A32A86E10E94FE
:10566000BD2A81E08093783B08958091783B882320
:1056700051F48091780D882321F081E08093790D99
:1056800002C00E94212B81E090E008951092783BA7
:105690000E94A32A2B988DE090E00197F1F782E019
:1056A0006FE140E023E00E94132F83E090E0019738
:1056B000F1F72B9A81E08093773B08958091790DE3
:1056C000882321F00E94212B1092790D80917A0D70
:1056D000882321F00E94462B10927A0D1092780DAB
:1056E0000895CF93DF93FC01AB0181E08093780DA7
:1056F0008091C23B9091C33BA091C43BB091C53B0C
:105700000196A11DB11D8093C23B9093C33BA09312
:10571000C43BB093C53B862F8E5F87FF03C0CFEF9E
:10572000DFEF08C02BE73DE0C901BF010E947647CB
:10573000C0E0D0E00E945E2BCE01DF91CF910895B2
:105740008091783B8823A9F08091780D8823A1F47B
:1057500081E06FE140E00E94002F982F815182305C
:1057600058F09F3149F0913039F0923029F00E9481
:10577000462B81E090E0089581E080937A0DF9CF87
:105780008091780D882341F48091783B882321F41F
:105790000E94352B0E94A02B81E090E008950F938A
:1057A0001F938091783B882311F000E003C00E9492
:1057B000352B01E081E06FE140E00E94002F86314F
:1057C00011F0813129F487E00E94CA2E182F09C0F8
:1057D00086E06FE140E00E94002F93E0899F102D4A
:1057E0001124002311F00E94A02B812F1F910F91F3
:1057F0000895282F1B9908C0803108F02FE085E01C
:105800006FE040E00E94132F089591E09093780D8F
:105810000E94F92B0E945E2B08951F93182F0E945F
:10582000A32A1093770D88E06FE140E0212F0E94BA
:10583000132F1F9108950E940D2C86E00E94BD2A0F
:105840000895FF920F931F93CF93DF93182F01E0DA
:105850000093780DF090783B8091773B882321F07E
:105860002B981092773B18C08091EC3A8823A1F0D6
:105870008AE160E847E021E00E94132F8BE160E8B5
:1058800047E021E00E94132F1092EC3A0093ED3A8A
:1058900081EA90E00197F1F70E94A32A89E10E9432
:1058A000BD2A86E00E94F638892B19F4C0E0D0E0CA
:1058B00009C00E94B32AC82F86E00E94F6388150A2
:1058C0000E94F92B2B9A2B981E5F8BE79DE0612F8E
:1058D0000E947E2F0E94A32A82E060EE45E00E9493
:1058E000002F182F86E00E94F638892B19F08C2F94
:1058F0000E94F92BFF2011F00E94212B8091783B10
:10590000882331F482E06FE140E023E00E94132F0E
:105910000E945E2B113011F410E015C0133099F481
:105920008091BA3B9091BB3BA091BC3BB091BD3BF9
:105930000196A11DB11D8093BA3B9093BB3BA093F0
:10594000BC3BB093BD3B812F90E0DF91CF911F9185
:105950000F91FF900895CF93DF93EB010E94712B7D
:105960009C01009721F4CE010E94212C9C01C901C9
:10597000DF91CF91089583EC91E00E947E3381E026
:105980008093760D81E090E00895CF93DF93582FB8
:10599000A92F2091F33A822F90E0FC01F695FE2F7B
:1059A000EE27F795E795880F991FE80FF91FEC5040
:1059B000F54C4081442321F147FF25C0822F90E020
:1059C000FC01F695FE2FEE27F795E795880F991FB6
:1059D000E80FF91FEC50F54C10828091B23B90918A
:1059E000B33BA091B43BB091B53B0196A11DB11D55
:1059F0008093B23B9093B33BA093B43BB093B53B41
:105A0000C0E0D0E0BEC0433018F5822F90E0FC012A
:105A1000F695FE2FEE27F795E795880F991FE80F6B
:105A2000F91FEC50F54C10828091AE3B9091AF3B4A
:105A3000A091B03BB091B13B0196A11DB11D8093E7
:105A4000AE3B9093AF3BA093B03BB093B13BD8CF6C
:105A5000C42FD0E022976C177D0718F5822F90E0B5
:105A6000FC01F695FE2FEE27F795E795880F991F15
:105A7000E80FF91FEC50F54C10828091AA3B9091F1
:105A8000AB3BA091AC3BB091AD3B0196A11DB11DCC
:105A90008093AA3B9093AB3BA093AC3BB093AD3BC0
:105AA000AFCF822F90E09C013695322F2227379579
:105AB0002795880F991F280F391F2B50354C852F9C
:105AC0009A2FB90150E00E9476472091F33A822F35
:105AD00090E0FC01F695FE2FEE27F795E795880FED
