:100000000C946E000C948D000C948D000C948D005B
:100010000C948D000C948D000C948D000C948D002C
:100020000C948D000C9472240C948D000C948D0013
:100030000C94C92F0C948D000C948D000C94B22F4D
:100040000C9408280C948D000C948D000C948D0059
:100050000C9456280C948D000C944A280C948D0016
:100060000C948D000C948D000C948D000C948D00DC
:100070000C9494280C948D000C9488280C948D007A
:100080000C94AF440C948D000C948D002573257353
:100090000A004F6E6C696E650A000A002C206368C6
:1000A00065636B207261746520257520487A002590
:1000B000732025732C206368616E6E656C20257536
:1000C000000A2A2A2A2A2A2A2A426F6F74696E672E
:1000D0002025732A2A2A2A2A2A2A0A0011241FBE26
:1000E000CFEFD0E4DEBFCDBF12E0A0E0B1E0EAE6A2
:1000F000F6E900E00BBF02C007900D92AA36B107E7
:10010000D9F71CE3AAE6B2E001C01D92AC33B107F7
:10011000E1F70E9463270C94334B0C940000CF93BB
:10012000DF93EC0188819981009721F0C69709F04F
:100130007AC048C080E291E090936D0280936C0297
:1001400086E098E390936F0280936E0287E099E0D7
:10015000909371028093700280E09AE09093730212
:100160008093720280E091E1909375028093740213
:1001700082E29FEF90937702809376028EEF97E171
:10018000909379028093780284EA96EC90937B02B4
:1001900080937A028CE692E06BE079EB40E050E0ED
:1001A0000E94F31090936B0280936A028CE792E0B6
:1001B00061E772E00E94800286E390E09983888381
:1001C00081E034C08091E9316817B1F48091B23098
:1001D00081FFF2CFE091B730F091B8308091A22B3F
:1001E0009091A32BE80FF91F10828091B730909166
:1001F000B8300E94AA24E0CF6838F1F680916A02F4
:1002000090916B0260E071E045E050E00E947A114D
:100210008CE792E00E941901892B71F28CE792E041
:100220000E947502C9CF1982188283E0DF91CF91B5
:10023000089520E030E0FC0186819781892B11F43C
:1002400021E030E0C9010895FC01228133818081E1
:100250009181280F391FC9010895FC018081918186
:10026000089520918402309185022115310511F005
:1002700021E030E0C90108958091840290918502C7
:10028000892B19F420E030E004C0209186023091DF
:100290008702C90108958091840290918502892B7B
:1002A00029F4109287021092860208950E94BA27BC
:1002B000BC01E0918402F0918502428153818081EA
:1002C0009181480F591F461B570B0CC02281338167
:1002D00080819181280F391F261B370B2417350782
:1002E00008F4A9010480F581E02D309779F7460FD5
:1002F000571F50938702409386020895CF93DF9350
:10030000EC01E0918402F09185028E179F0741F481
:100310008C819D81909385028093840214C0FC019E
:10032000309731F0848195818C179D07C1F707C004
:100330001D821C821F821E82DF91CF9108958C81C5
:100340009D81958384830E944B01F2CFFC018081C3
:100350009181860F971F918380830E944B0108959E
:1003600083E391E00E9486330895EF92FF920F930A
:100370001F93CF93DF937C01FC01808191810097D3
:1003800029F08A35910509F06DC00BC010928502E5
:10039000109284028AE590E0F7019183808381E0E6
:1003A00065C0673849F59A01E0918402F0918502B1
:1003B00003C00480F581E02D309741F38681978159
:1003C00082179307B1F3E0938402F09385020FC084
:1003D00016968D919C9117978217930711F0FD0146
:1003E00006C014968D919C91159795838483A48162
:1003F000B581109769F7CECF623861F6C09184025B
:10040000D091850200E010E02AC0CE010E94F334B2
:10041000892B01F18E819F8168E8AE010E9426330D
:10042000892BA1F41F821E828C819D8101151105EB
:1004300021F0F8019583848304C090938502809312
:1004400084021D821C820E944B01D8CF83E391E07D
:100450000E9486338E018C819D819C01E901209749
:10046000A1F698CFF7011182108283E0DF91CF913E
:100470001F910F91FF90EF900895CF93DF93EC01C0
:1004800083E391E00E9486338E819F81892B69F0FE
:10049000E0918402F091850206C0EC17FD07A9F0F7
:1004A0000480F581E02D3097C1F78091110E909175
:1004B000120E9F838E8380918402909185029D838A
:1004C0008C83D0938502C09384020E944B01DF91FC
:1004D000CF9108950F931F938C010E940B35C80193
:1004E0000E943D021F910F9108950F931F938C015D
:1004F0000E94D434C8010E943D021F910F910895BB
:100500000F931F938C010E941635C8010E943D0273
:100510001F910F910895FC015381560F5093A92B01
:10052000272F33274281420F4093A82BA181A0930C
:10053000A72BE081E093A62B842F90E082179307EE
:1005400048F48A2F8F5F8093A72B882319F4EF5FDD
:10055000E093A62B852F90E070708617970790F494
:10056000842F8F5F8093A82B882361F48091A72B21
:100570008F5F8093A72B882329F48091A62B8F5F10
:100580008093A62B0895FC0161507040680F791F7D
:1005900020E030E00EC0508140E08181DA01A80FF8
:1005A000B11D2A0F3B1F2A173B0710F42F5F3F4F47
:1005B0003296E617F70778F3E617F70749F49081C4
:1005C00080E0280F391F2817390710F42F5F3F4F9D
:1005D000832F922F0895E2EBFBE240E050E0308160
:1005E00020E08181B901680F711D460F571F461722
:1005F000570710F44F5F5F4F32967BE2E93DF707F4
:1006000070F38BE2E93DF80751F4908180E0480FE8
:10061000591F4817590718F44F5F5F4F06C041151F
:10062000510519F42FEF3FEF02C0342F252FC901D8
:100630000895CF93DF9390918902A92FB0E0309174
:10064000B62B20E02A1B3B0B9091B72B290F311DB5
:10065000A901480F511DEAEBFBE2708160E0818146
:10066000EB01C80FD11D4C0F5D1F4C175D0710F437
:100670004F5F5F4F32968BE2E93DF80770F38BE2F4
:10068000E93DF80749F4908180E0480F591F481769
:10069000590710F44F5F5F4FFD01E652F44D2150B2
:1006A00030402E0F3F1F0EC0708160E08181DB0162
:1006B000A80FB11D4A0F5B1F4A175B0710F44F5F6D
:1006C0005F4F3296E217F30778F3E217F30751F41E
:1006D000908180E0480F591F4817590718F44F5F61
:1006E0005F4F06C04115510519F42FEF3FEF02C0CF
:1006F000342F252FC901DF91CF9108958AE30E94FD
:100700001903089586E00E941903089581E10E946B
:1007100019030895CF93DF93582FA92F4091E0300C
:10072000E091CB30F091CC3020918C0230918D0251
:100730002F5F3F4FBDE720303B0710F020E030E156
:10074000922F832F442319F0E817F90789F3209398
:100750008C0230938D0280E090E0442329F41092C3
:100760008B02EBEBF0E30AC0473011F48BEB90E324
:10077000FC0181E080938B02309771F182E085A3C8
:1007800080918E02808F80918F02818F8091900264
:10079000828F80919102838F84EC94E0978F868F73
:1007A00091A380A381E090E0958F848F17A281E0D0
:1007B00086A383E084A312A280E183A3308B218BE4
:1007C000738B628BEF01252F3A2FC901DC0180E189
:1007D0000D9009928150E1F7CF01DF91CF910895FB
:1007E0002091EB303091EC302817390739F4109212
:1007F0008B021092EC301092EB30089581E08093E0
:100800008B0208959C018091EB309091EC30892B04
:1008100039F410928B023093EC302093EB30089532
:1008200081E080938B020895BC018091B930909152
:10083000BA3044960E948B02E091B930F091BA3000
:100840008091A62B848B8091A72B858B8091A82BE0
:10085000868B8091A92B878B0895282F892F922F23
:100860000895EF92FF920F931F939C014427552701
:10087000F22EE32E00E010E0362F272F40E050E06C
:10088000A90133272227E22AF32A042B152BB701CB
:10089000C8011F910F91FF90EF900895FC014091C6
:1008A000A42B5091A52B22EB30E3241B350B6217B0
:1008B00073070CF49B011216130664F42093ED30B9
:1008C0003093EE30E417F50729F0CA01BF01A90102
:1008D0000E947E47089582E080938A02A091890257
:1008E0002A2F30E0F901E652F44D8181682F70E043
:1008F00043E0660F771F4A95E1F7695F7F4F42E05B
:10090000285D3F4F3CC0F901E80FF91FEE54F44D4C
:100910008081882319F0813019F42EC04F5F2FC0D9
:1009200090E0807C90708038910549F0803C910582
:1009300049F08034910501F540938A0209C0409343
:100940008A0208C040938A028091CA2B8F3F11F41B
:1009500081E00895242F30E040E050E02A0F311D5F
:10096000411D511D285D3F4F4F4F5F4F84E062E0B6
:100970000E940A1382E0089581818E5F480F842FC0
:1009800090E0681779070CF0BECF40938A0280E0B0
:100990000895CF92DF92EF92FF920F931F93CF9320
:1009A000DF93C091B930D091BA30843009F471C26C
:1009B0000EEE1BE21093B8300093B7301093A52BC6
:1009C0000093A42B833099F48DA1282F30E02F7051
:1009D00030702330310529F48C8D9D8D892B09F4DD
:1009E00096C02230310511F00C94250D7FC0823065
:1009F00009F091C01092A32B1092A22B1092EE300E
:100A00001092ED30809191028F5F80939102882344
:100A100099F4809190028F5F80939002882361F413
:100A200080918F028F5F80938F02882329F48091B9
:100A30008E028F5F80938E022DA1273011F025301A
:100A400051F48EA18F5F8EA3853011F00C94250D8B
:100A50001DA20C94250D222311F40C94250D8C8DD0
:100A60009D8D892B09F44FC08EA181508EA38F5F7D
:100A700009F0EBC73FA1383029F02150223048F46B
:100A8000353039F41DA280E88093B2300E943E0ECA
:100A900087C6353010F080E307C083E090E002C0E5
:100AA000880F991F3A95E2F78EA38FA18F5F8FA3CE
:100AB0008DA190E08F70907083309105F1F08430BB
:100AC000910544F48130910509F4FEC3029709F0C1
:100AD000BCC70CC08630910509F476C688309105F4
:100AE00009F472C6049709F0B0C76EC6E091890296
:100AF000F0E0E652F44D1586EEC384E08093B23008
:100B00000E943E0E8FC62F70233009F09EC788E0EA
:100B10008093B23039C6853019F5E091B530F09147
:100B2000B63080899189892B09F48FC71092BA3029
:100B30001092B930C8010C979093B8308093B730B9
:100B40009093A52B8093A42B1092EE301092ED3051
:100B50001092A32B1092A22B88E08093B23097C101
:100B60008091B22B807F803609F06FC79091B62BB1
:100B700080E02091B72BAC01420F511D9A0180916A
:100B8000A22B9091A32B8417950708F45EC7285DCC
:100B90003F4F3093A32B2093A22B8091BA2B8F3FF2
:100BA00009F453C7C80184970E94AB1F892B59F4DD
:100BB000C80184970E94111F892B29F48091CA2BA8
:100BC0008F3F09F042C788EB9BE29093B43080934B
:100BD000B3301092890210928802E091B330F09104
:100BE000B43080818B3209F44BC08C3248F48630AB
:100BF00009F4BFC1813109F4B4C0882389F06BC006
:100C00008A3309F474C08B3320F48C3209F063C04A
:100C10001CC78B3309F419C78C3309F05CC006C0BC
:100C20008091880280FD57C0816009C08091880250
:100C300081FF04C086FD4FC0806401C08260809344
:100C400088020E946B04813009F4FFC6813018F0DD
:100C5000823019F602C720918902E22FF0E0CF011D
:100C60008652944D9093B4308093B330285FFC014A
:100C70008181880F880F880F280F20938902ADCFBC
:100C80008091880282FD27C08460809388029091C1
:100C90008902E92FF0E0DF01A652B44D13968C9142
:100CA0001397882349F0BA969F01442737FD409552
:100CB000542F84E060E018C0B093B430A093B330F8
:100CC000985FE652F44D8181880F880F880F980F46
:100CD0009093890282CFE25BFB429F01442737FD5C
:100CE0004095542F84E061E00E940A13B6C60E942A
:100CF0007E038F5F9F4F09F0A8C6E0918902F0E064
:100D0000EE54F44D80A50E94880EE0918902F0E037
:100D1000EE54F44D80A58538C1F0863818F480383B
:100D2000A1F410C0873829F0873848F0883869F472
:100D300003C00E945F190DC00E9404180AC00E94DF
:100D4000E41307C00E949D1204C01092A32B1092BE
:100D5000A22B8091A22B9091A32B892B09F475C60D
:100D60007CC68091A22B9091A32BC0979093A32B2C
:100D70008093A22B82EE9BE29093B8308093B730A1
:100D8000E0918902F0E0E652F44D86819781892B4B
:100D900031F00E9486038F5F9F4F09F056C6E091A5
:100DA0008902F0E0E652F44D82819381892B09F4A7
:100DB0004CC68FEE90E39093B6308093B53048C028
:100DC0002889398921153105F1F180918902E82FAF
:100DD000F0E0E652F44D828193818217930799F5F2
:100DE0002A893B892115310529F08081918182175B
:100DF000930749F588819981892BE1F48A819B8148
:100E0000892BC1F48C819D81892BA1F48E819F81D6
:100E1000892B81F488859985892B61F48A859B8546
:100E2000892B41F48C859D85892B21F48E859F85A6
:100E3000892BC1F08AEB9BE2BE0140E150E00E94A9
:100E40007147009779F06996D093B630C093B5306A
:100E5000C091B530D091B630B1E3C93EDB0708F49C
:100E6000AFCFF3C51092BA301092B93082E08093C0
:100E7000B23082EE9BE29093B8308093B73090937B
:100E8000A52B8093A42B1092EE301092ED300E948F
:100E90003E0E2091ED303091EE302115310509F4F0
:100EA000D4C5C901C0969093A32B8093A22B285F31
:100EB0003F4F3093B62B88528093B72B4091B5307B
:100EC0005091B630EA018C898093B92B81E18093EF
:100ED000B82BE0918902F0E0EE54F44DDF019896D2
:100EE00014963C93149715962C93159717961C926D
:100EF0001E9216978889998991A780A78A899B89CC
:100F000013969C938E931297AAECBBE22091B53076
:100F10003091B630C901FC0180E101900D92815001
:100F2000E1F78AEB9BE26AEC7BE20E94791C8EEE91
:100F30009BE29093B8308093B73080918902C82F9C
:100F4000D0E0C652D44D0E948603809590959F8331
:100F50008E8380918902E82FF0E0E652F44D86817D
:100F60009781892B09F067C58FEF9FEF9783868361
:100F700062C50E9482038F5F9F4F09F066C5809112
:100F80008902082F10E00652144DD8011296ED90F8
:100F9000FC901397E114F10409F457C5CD90DC904F
:100FA000C114D10409F451C5CBEBD0E38DA1882342
:100FB000A1F088899989E816F90679F48A899B89CC
:100FC000C816D90651F48AEB9BE2BE0140E150E01D
:100FD0000E947147009709F49BC1AC96B0E3CB3BEC
:100FE000DB0721F318F3E8018D858F738230D1F48C
:100FF000F0929402E092930210928B0241E00EC0B4
:1010000020919302309194028091EB309091EC30DA
:101010002817390709F48AC040938B0280918B020C
:10102000882371F380918902E82FF0E0DF01A65256
:10103000B44D1D968C911D9782FD07C584E11D96C8
:101040008C931D978CE390E09093A32B8093A22B1D
:10105000FD0180E5848797811B968C911B971796DD
:101060008C931797938796811A968C911A97169658
:101070008C9316979287958119968C91199715964E
:101080008C9315979187948190938B0218968C91ED
:10109000189714968C93149790871B968C911B9796
:1010A0008F5F1B968C931B978823C1F41A968C91A3
:1010B0001A978F5F1A968C931A97882379F419964A
:1010C0008C9119978F5F19968C931997882331F417
:1010D00018968C9118978F5F18968C93E0918902DF
:1010E000F0E0DF01AE54B44D98962D913C91999764
:1010F0003093940220939302E652F44D82819381BF
:10110000918380839B963C932E939A97EAECFBE223
:10111000DF01509780E10D9001928150E1F78AEB59
:101120009BE26AEC7BE20E94791C5FC410928B0206
:10113000C0E0D0E021E014C08091E030882319F4B1
:10114000CBEBD0E314C0873049F4209729F090917D
:10115000E1308EA1891710F4CBEBD0E320938B0202
:1011600080918B02882341F3209709F46EC4D093B9
:10117000BA30C093B93083E08EA38CA31AA284E066
:101180008BA31FA2E0918902F0E0EE54F44D82A5FA
:1011900093A5998B888B80A591A59B8B8A8BDE016B
:1011A000EAEBFBE280E101900D928150E1F781E0F2
:1011B0008DA380918E02888F80918F02898F80917C
:1011C00090028A8F809191028B8F81E090E09D8FB9
:1011D0008C8FE0918902F0E0E652F44D87818F8B8D
:1011E000E0918902F0E0E652F44D86818E8BE09129
:1011F0008902F0E0E652F44D85818D8BE091890201
:10120000F0E0E652F44D84818C8B81E090E00E9406
:101210001404E0918902F0E0E652F44D848590E0F8
:10122000807F9070813591050CF44EC010928B0236
:1012300035C0F901EE54F44D84AD809392028823B9
:1012400009F442C0813021F44F5F40938B0226C0E5
:101250008230C1F485AD8430A9F436AD20E087AD8D
:1012600090E0822B932B9093940280939302E4E07E
:10127000853C9E0710F084EC94E09F8F8E8F99A39D
:1012800088A322C080918B02E82FF0E0E151F44D59
:10129000E081EE23C9F0E80FE0938B0240918B02CE
:1012A000242F30E0E0918902F0E0E652F44D84858D
:1012B00082958F7090E00597880F991F880F991F6E
:1012C000281739070CF4B5CFE0918902F0E0E65217
:1012D000F44D80E18587E0918902F0E0DF01A652BC
:1012E000B44D1D968C911D9782601D968C931D9711
:1012F000FD0182E0848B84E0858B868B84EC878B78
:1013000080E490E09093A32B8093A22B80E628C3E7
:10131000D093BA30C093B9301092B2308091890224
:10132000E82FF0E0DF01A652B44D1D968C911D9779
:1013300082FF03C01DA280E2ABC21C968C918295F5
:101340008F70880F880F80938B022091A22B309191
:10135000A32B28523040281B31093093A32B209314
:10136000A22B8DA190E08F7090708230910539F49E
:10137000E652F44D85858F73823149F42FC0019771
:1013800031F4E652F44D85858F73823039F1232B89
:1013900059F4E0918902F0E0E652F44D858590E041
:1013A00083709070892BD1F080918902E82FF0E052
:1013B000E652F44D94818C89981761F495818D895A
:1013C000981741F496818E89981721F497818F8917
:1013D000981721F0858581FD77CFAFC2E091890212
:1013E000F0E0E652F44D858584FF52C06C8D7D8D12
:1013F0006115710509F44CC0CE0148960E948B021C
:1014000080918902E82FF0E0E652F44D208580912A
:10141000A62B2817E9F591858091A72B9817C1F580
:1014200092858091A82B981799F593858091A92B87
:10143000981771F5288F8091A72B898F8091A82B01
:101440008A8F8091A92B8B8F8FA18823D1F42AA119
:101450009CA18EA1981B822F869586958695981BB8
:10146000392F320F3AA38BA1282F26952695821B60
:1014700097FD9195890F8BA3369536953695830FF9
:101480008CA381E08093B2308CA18EA31D8E1C8E24
:101490008DA1282F30E0C9018F70907084309105A4
:1014A00009F4FBC18530910564F48230910509F49B
:1014B0003DC0833091050CF0D5C0019709F0C5C23D
:1014C00010C08630910509F430C2863091050CF4C5
:1014D00008C28730910509F430C2089709F0B5C2F7
:1014E000D1C18091B23080FF16C083E08DA380E42B
:1014F0008093B2301D8E1C8E2091A22B3091A32B95
:101500002115310509F43CC182E48093B230C90150
:101510000E94140435C1E0918902F0E0E652F44DD6
:1015200085858F73823009F090C2CECE8091B23023
:1015300080FF8DC080918902E82FF0E0E652F44DE3
:1015400085858F73823109F082C0848590E0807F29
:101550009070813591050CF44EC010928B0235C00D
:10156000F901EE54F44D84AD80939202882309F47E
:1015700042C0813021F44F5F40938B0226C08230FD
:10158000C1F485AD8430A9F436AD20E087AD90E09C
:10159000822B932B9093940280939302F4E0853CEA
:1015A0009F0710F084EC94E09F8F8E8F99A388A3FF
:1015B00022C080918B02E82FF0E0E151F44DE081F0
:1015C000EE23C9F0E80FE0938B0240918B02242FA9
:1015D00030E0E0918902F0E0E652F44D8485829596
:1015E0008F7090E00597880F991F880F991F281713
:1015F00039070CF4B5CF83E08DA3E0918902F0E0C8
:10160000E652F44D84818C8BE0918902F0E0E65241
:10161000F44D85818D8BE0918902F0E0E652F44D26
:1016200086818E8BE0918902F0E0E652F44D87814D
:101630008F8B81E090E00E94140482E48093B230AA
:101640001D8E1C8E1092A32B1092A22B99C080E2AB
:101650008093B2300E943E0EE091B930F091BA30E2
:1016600015A2E0CC80918902E82FF0E0E652F44D1B
:10167000858580FF25C024FD23C08C8D9D8D892B01
:1016800009F0E3C18091A22B9091A32B01960E94B7
:1016900014042091B230822F80618093B230809107
:1016A000A22B9091A32B892B19F022612093B230A9
:1016B0000E943E0E81E090E09D8F8C8F88E082C07A
:1016C00085FF25C0328920E0838990E0282B392BC3
:1016D0008091B7309091B830820F931F9093B830BB
:1016E0008093B730E0918902F0E0E652F44D328900
:1016F00020E0838990E0282B392B8091A22B9091B8
:10170000A32B821B930B9093A32B8093A22B20914E
:10171000A22B3091A32B2115310559F08DA184FD09
:1017200008C08091B23082608093B230C9010E94BB
:101730001404E0918902F0E0E652F44D968580E0D1
:101740002785820F911D909394028093930228A184
:1017500039A12817390710F0892B21F4309394020E
:101760002093930280919302909194029F8F8E8F89
:101770008091B23090E083709070892B09F465C13C
:101780001092EE301092ED300E943E0E8091B230F9
:10179000282F85FF0CC01092EE301092ED301DA264
:1017A000E0918902F0E0E652F44D84E1CCC084FF80
:1017B00012C01092EE301092ED3081E090E09D8FDB
:1017C0008C8F84E08DA31FA2E0918902F0E0E652A5
:1017D000F44D81E1B8C08091ED309091EE30892BCD
:1017E00001F120FF02C01D8E1C8E8C8D9D8D0097F7
:1017F000A1F42E8D3F8D8091ED309091EE30281721
:10180000390720F43093EE302093ED308091ED30A5
:101810009091EE309D8F8C8F04C09093EE3080932A
:10182000ED301FA28091A42B9091A52B9093B830FE
:101830008093B7308091ED309091EE30892B81F01C
:101840008C8D9D8D009761F0CC969093A32B809307
:10185000A22BE0918902F0E0E652F44D88E110C03D
:101860008091B23081FFF1C08CE390E09093A32B84
:101870008093A22BE0918902F0E0E652F44D80E1E2
:10188000858768C08091B23080FFDFC01DA280E1F3
:101890008093B2300E943E0ED8C08091A22B9091CE
:1018A000A32B009711F00E941404E0918902F0E04C
:1018B000E652F44D85859091B23080FF0BC090FFC9
:1018C00006C087E08DA31EA21D8E1C8E1DC086E063
:1018D0008DA31AC090FF22C085E08DA31D8E1C8EA3
:1018E000B4C08091A22B9091A32B009711F00E947D
:1018F0001404E0918902F0E0E652F44D858580FF02
:101900000DC087E08DA31EA281E090E00E94140428
:1019100080E18093B2300E943E0E0FC08091A22BD6
:101920009091A32B892B49F490C08091B23080FF15
:101930008CC087E08DA31EA288C0E0918902F0E0F0
:10194000E652F44D80E185878CE390E09093A32BE1
:101950008093A22BE0918902F0E0E652F44D80E5FD
:101960008487A0918902B0E0AE54B44DFD01B896D1
:101970008C8980878D8981878E8982878F898387EB
:10198000888D8483898D85838A8D86838B8D8783DB
:1019900086E08093B82B8889998999969C938E9339
:1019A00098978A899B8993838283AAECBBE2FE0184
:1019B00080E101900D928150E1F78AEB9BE26AECA5
:1019C0007BE20E94791C8DA1E091890284FF06C010
:1019D000F0E0E652F44D1786168607C0F0E0E652B6
:1019E000F44D84E0868784EC87878091EF31809383
:1019F000B92B8091A22B9091A32B88979093B62B13
:101A00008091A22B88528093B72BE0918902F0E05D
:101A10008F010652144DD80153961C92539752963B
:101A20001C92F801118A108A0E9482038095909579
:101A3000E801998B888B80E68093B22B1092B32BB0
:101A40001092B52B1092B42B08C01092A32B1092B9
:101A5000A22B10928902109288021092B230DF916C
:101A6000CF911F910F91FF90EF90DF90CF9008954D
:101A70000F931F93CF93DF938C0120918C023091B1
:101A80008D02C9E1D0E02F5F3F4F8DE7203038074E
:101A900010F020E030E1522F432FA0E011C08A2F38
:101AA00090E08C9FF0018D9FF00D9C9FF00D112414
:101AB000E151FF4C80899189AF5F8417950719F335
:101AC000AA3069F720938C0230938D0210928B021A
:101AD00040E0A9E1B0E01CC0542F5F5F842F90E08C
:101AE0008A9FF0018B9FF00D9A9FF00D1124E15118
:101AF000FF4C80899189892B51F440938B0289E1B5
:101B0000489FD0011124A151BF4C49F427C0452F53
:101B10004A3010F340938B02A0E0B0E01FC0509613
:101B20003C93509751962C93519753967C936E9378
:101B300052970115110531F480E1ED0119928A9552
:101B4000E9F707C0ED01F80180E1019009928150A9
:101B5000E1F78091EF3154968C935497CD01DF914A
:101B6000CF911F910F9108950E94C4211092EC30E3
:101B70001092EB301092E03080E094E090938D0270
:101B800080938C0220E049E150E00EC0822F90E06B
:101B9000849FF001859FF00D949FF00D1124E15179
:101BA000FF4C118A108A2F5F2A3080F320938B021A
:101BB0000895E091A802F091A902309711F480E015
:101BC0000895099508959093A9028093A802089515
:101BD000FC018091110E9091120E91A780A773A71E
:101BE00062A70895FC018091110E9091120E968BC0
:101BF000858B708F678B08959C018091E730909161
:101C0000E830892B11F081E008958091110E9091B8
:101C1000120E9093E8308093E7303093EA302093AF
:101C2000E93080E008952091110E3091120E40911C
:101C3000A2025091A3024817590789F48091A40287
:101C40009091A5028217930751F410929902109275
:101C5000A3021092A202CA010E94F003089581E03B
:101C60008093990208958AE992E00E941901892BD4
:101C700021F08AE992E00E946A020895CF93DF93EF
:101C8000E091B930F091BA30309719F0EF01A89691
:101C900005C0C091B530D091B63065968091B23014
:101CA00086FF1BC0109297022091A2023091A302DE
:101CB000808991892817390759F48091A40290915D
:101CC000A502009729F0998388831B821A8203C09A
:101CD00081E0809397020E94330E8881998100975A
:101CE00031F04A815B816091E9310E944A33DF9192
:101CF000CF9108958AE491E062E040E050E00E94D4
:101D00004A331092A32B1092A22B109289020895AD
:101D1000DF93CF930F92CDB7DEB789838091E73001
:101D20009091E830009739F06091EA31AE014F5F51
:101D30005F4F0E944A330F90CF91DF910895AC011D
:101D40008AE491E060E00E9426330895AC018AE4C1
:101D500091E061E00E94263308950F931F93CF9383
:101D6000DF938091A22B9091A32B009709F41FC1C0
:101D70008150954008F00CC10AEC1BE28091CA2BFF
:101D80009091CB2B892B59F58091CC2B9091CD2B19
:101D9000892B29F58091CE2B9091CF2B892BF9F4AB
:101DA0008091D02B9091D12B892BC9F48091D22B8B
:101DB0009091D32B892B99F48091D42B9091D52B92
:101DC000892B69F48091D62B9091D72B892B39F4EC
:101DD0008091D82B9091D92B892B09F4D9C080916F
:101DE000CA2B8F3F09F4D9C08AEC9BE20E94F91DEF
:101DF000882379F48AEC9BE20E94B81D009731F4A5
:101E00000E9423208C01009721F4C2C08C010D5E3A
:101E10001F4FC8010E940520EC01009709F051C036
:101E2000C80160E070E040E020E00E948E228C015A
:101E3000009709F4ADC0EC01AE96CE0164EF71E0FD
:101E40000E94DD1B892B99F0CE010E94901B22EB92
:101E50003BE24091A22B5091A32BB9010E947E47F7
:101E60006091A22B7091A32BCE010E94AC1B8AEB38
:101E70009BE20E94AB1FA8014F5F5F4F892B19F0B7
:101E80008AEB9BE202C080E090E060E070E00E949C
:101E900052176091F8317091F9318091FA31909137
:101EA000FB3128EE33E040E050E00E94BF4AC80119
:101EB0008196BA01A9010E944A3881E0F80183A7FE
:101EC0006CC08DA58823E9F4AE96CE0164EF71E075
:101ED0000E94DD1B892B09F45BC0CE010E94901B80
:101EE00022EB3BE24091A22B5091A32BB9010E941F
:101EF0007E476091A22B7091A32BCE010E94AC1B58
:101F000047C0823059F483E08DA7CE01499645E061
:101F100050E060E070E00E944A381BA66091F83102
:101F20007091F9318091FA319091FB3128EE33E0D4
:101F300040E050E00E94BF4ACE018196BA01A9015B
:101F40000E944A388E010F5E1F4FC8010E94D90DB2
:101F5000AE96CE010E949C1B892BD1F0CE010E942F
:101F60009C1B9093A32B8093A22BCE010E94901BCD
:101F7000BC0122EB3BE24091A22B5091A32BC90163
:101F80000E947E47CE010E94B71BC8010E94D90D56
:101F90001092A32B1092A22B0AC080E090E00E9426
:101FA000D90D1092A32B1092A22B10928902DF91CF
:101FB000CF911F910F910895DF92EF92FF920F93AF
:101FC0001F93CF93DF937C018A01FC018081918173
:101FD000009729F08F50934009F0F9C026C0109265
:101FE000A3021092A20281E0809395028091110ECB
:101FF0009091120E9093A7028093A6020E94CB317B
:102000008093E9310E94CB318093EA318AE992E0F2
:102010006EE370E00E9480020E94B40D8FE093E0B6
:10202000F7019183808381E0D6C0623009F4B1C0AA
:10203000633030F4662309F48EC0613079F79BC0B9
:10204000673819F0683851F73CC010929602C2EA1E
:10205000D2E013C08A819B818017910741F4888167
:1020600099810E94F003198218821B821A82249699
:10207000809196028F5F80939602809196028823CA
:1020800049F3E0EEF0E3838194818017910719F41E
:10209000148213821082BC96CF018597875E90438D
:1020A00090F3EFEEF0E308C08589968980179107D9
:1020B00011F4118A108A799681E3E93EF807A1F7B5
:1020C000ADCFE2E04A395E0759F5CA010E94190115
:1020D000892B31F1109296028CE2D82E1DC080918E
:1020E000E0308823A1F08AE992E00E946A028091A0
:1020F00096028D9DC001112485549F4C9093BA3057
:102100008093B93082E00E94C9040E94AD0E809194
:1021100096028F5F80939602809196028823F9F24F
:10212000F7E30E331F0749F4C8010E941901892BF8
:1021300021F00E945E200E94AD0E23E302341207BC
:1021400009F06CCFC8010E941901892B09F466CFF0
:102150000E9432231BC04115510509F45FCF5093F3
:10216000BA304093B93083E00E94C9040E94AD0E9A
:102170000E94330E53CF4115510509F44FCF5093B0
:10218000B6304093B53085E00E94C9040E94AD0E80
:1021900045CF8091A22B9091A32B892B09F43ECFA0
:1021A0008091B82B863031F48091E72B81FF02C0FB
:1021B0000E94330E81E00E94C9048091A22B90916D
:1021C000A32B892B09F42ACF0E94DC1127CFF7011A
:1021D0001182108283E0DF91CF911F910F91FF90C8
:1021E000EF90DF900895CF93DF93EA010E94380DBE
:1021F000FC01009741F08091110E9091120E968B88
:10220000858BD08FC78BCF01DF91CF9108950F932E
:102210001F93DF93CF93CDB7DEB760970FB6F894D7
:10222000DEBF0FBECDBF8C01AB018FEF92E09A8372
:1022300089831C821B821E821D8218861F821A8639
:1022400019861C861B861E861D8680E091E0988B71
:102250008F87CE010196B8010E94F310FC01009710
:1022600011F0118B008BCF0160960FB6F894DEBF92
:102270000FBECDBFCF91DF911F910F9108959C01AB
:102280008091A2029091A302892B91F4109298025E
:102290003093A3022093A2028091110E9091120E0E
:1022A0009093A5028093A402C9010E94020408959C
:1022B00081E08093980208950F931F93CF93DF934B
:1022C0008A010E948A03EC01009771F08091110E3F
:1022D0009091120E99A788A71BA70AA78AE491E0FC
:1022E00060E0AE010E942633CE01DF91CF911F91B5
:1022F0000F9108959093B6308093B5304093ED30B0
:102300005093EE30E2EEFBE29A0185E0413058074F
:1023100014F020E035E0CF01A9010E947E4784E05F
:102320000E94C9040E94AD0E1092EE301092ED3062
:102330000895CF92DF92EF92FF920F931F93DF9356
:10234000CF93CDB7DEB760970FB6F894DEBF0FBE60
:10235000CDBF7C01DE011196FC0180E101900D9260
:102360008150E1F7F701C288D388D701F90180E1F4
:1023700001900D928150E1F7F701138B028BC70199
:102380000E947A11D701FE01319680E101900D92F1
:102390008150E1F7F701D38AC28A60960FB6F894AC
:1023A000DEBF0FBECDBFCF91DF911F910F91FF9088
:1023B000EF90DF90CF900895EF92FF920F931F93CD
:1023C0008091B82B863009F05DC08091A22B90914E
:1023D000A32B8050954009F055C00EE912E01093F0
:1023E000A32B0093A22B92E0E92EE092B62B86E776
:1023F000F82EF092B72B1092EB2B1092EA2B0E9442
:102400008203809590959093EB2B8093EA2B0E940A
:10241000AD0E1093A32B0093A22BE092B62BF0925B
:10242000B72B2091B7303091B830C901FC01DC01E5
:10243000AE59BD4F82E692E00D9001920197E1F70F
:102440008EED9BE262E672E00E948B028091A62BE9
:102450008093DE2B8091A72B8093DF2B8091A82B7C
:102460008093E02B8091A92B8093E12B1092EB2B92
:102470001092EA2B0E948203809590959093EB2B0B
:102480008093EA2B0E94AD0E1F910F91FF90EF9069
:102490000895EF92FF920F931F93CF93DF93F62E41
:1024A000E42E890120E62093B22B1092B32B1092D8
:1024B000B52B1092B42B2AE32093B82B2091EF3147
:1024C0002093B92B0C5F1F4F212F332727FD3A95FF
:1024D000045010402093B62B202F2C5F2093B72B55
:1024E000AAECBBE2FC0180E101900D928150E1F782
:1024F0008AEB9BE26AEC7BE20E94791C8091890264
:10250000C82FD0E0C652D44DF882E9821B821A82CD
:102510000E947E03809590959B838A83045D1F4F64
:102520001093A32B0093A22B0E94AD0EDF91CF91AD
:102530001F910F91FF90EF90089522EB3BE2809165
:10254000EF318093B92B8091CA2B8F3F81F4D90151
:102550005896F901389680E101900D928150E1F78B
:102560008AEB9BE26AEC7BE20E94791C1BC0AAEA20
:10257000B2E0F901389680E101900D928150E1F7C7
:10258000EAEBFBE2DF01509680E10D900192815071
:10259000E1F7AAECBBE2EAEAF2E080E101900D92F9
:1025A0008150E1F760918902662301F18AE380930B
:1025B000B82B70E04091A22B5091A32B461B570BD8
:1025C0005093A32B4093A22B485250405093B62BCC
:1025D000485D5F4F842F88528093B72B6252744DB1
:1025E0004C5250408EED9BE20E9487471092890228
:1025F00081E88093DA2B1092DB2B1092DD2B109266
:10260000DC2B0E947E03809590959093DD2B809328
:10261000DC2B0895CF92DF92EF92FF920F931F93DE
:10262000CF93DF93D82EC62E79018A0110928902AA
:102630008091B82B8A3321F48091DA2B87FF81C0F7
:10264000AAEAB2E0EAECFBE280E101900D9281504F
:10265000E1F78091A22B9091A32BC0969093A32B8E
:102660008093A22B8150954030F080E095E09093CC
:10267000A32B8093A22B4091A22B5091A32B4053CC
:10268000504082EE9BE262EB7BE20E94874780E64D
:102690008093B22B1092B32B1092B52B1092B42BC7
:1026A0008AE38093B82B8091EF318093B92B80918E
:1026B000BA2B9091BB2B892B51F58091BC2B90911B
:1026C000BD2B892B21F58091BE2B9091BF2B892B9F
:1026D000F1F48091C02B9091C12B892BC1F4809192
:1026E000C22B9091C32B892B91F48091C42B909194
:1026F000C52B892B61F48091C62B9091C72B892B18
:1027000031F48091C82B9091C92B892BD1F0EAEC40
:10271000FBE2DF01509780E10D9001928150E1F7DB
:102720008091AA028F3F91F484E0D81651F422E000
:10273000C21639F48AEB9BE26AEA72E00E94791CC5
:102740000EC01092A32B1092A22B35C0AAEBBBE2B5
:10275000EAEAF2E080E101900D928150E1F7E09128
:102760008902CE2FD0E0FE01E652F44DD082C18224
:10277000C801B7010E943104C252D44D68837983E5
:102780008A839B838091A22B9091A32B889790930F
:10279000B62B889688528093B72B80918902C82FD8
:1027A000D0E0C652D44D1B821A820E947E038095CF
:1027B00090959B838A83DF91CF911F910F91FF901A
:1027C000EF90DF90CF900895DF92EF92FF920F93FA
:1027D0001F93CF93DF938091B92B8F3F09F0A5C250
:1027E0008091BA2B8E3F09F0A0C28091BB2B80381C
:1027F00009F09BC280918902282F30E0F901E6524E
:10280000F44D8181882309F090C2F901E252F44D20
:102810008081882311F08093EF31648175818681F6
:102820009781611571058105910561F1E090F031A5
:10283000F090F1310091F2311091F3310E943104A6
:10284000E616F70608071907E9F0E0918902F0E0BB
:10285000E252F44D64817581868197810E94310432
:102860006093F0317093F1318093F2319093F331B2
:102870000E94111D6093F4317093F5318093F6310D
:102880009093F731E0918902F0E0E252F44D6085D7
:10289000718582859385611571058105910551F0DA
:1028A0000E9431046093F8317093F9318093FA31CA
:1028B0009093FB318CE08093BA0282E0D82EB6C1AF
:1028C000F901EE54F44D8181882309F42EC28081F0
:1028D000833009F45FC0853009F44DC0813009F0C0
:1028E00095C1F093BC02E093BB028AEB9BE20E948D
:1028F0000520FC019093D2028093D102009789F4C5
:102900006091BB027091BC026E5F7F4F8AEB9BE2CD
:1029100041E022E00E948E229093D2028093D10265
:1029200075C185A5882309F4D5A6C091BB02D091B5
:10293000BC0222960091D1021091D2020F5E1F4F6D
:10294000CE01B80148E050E00E947147009761F065
:10295000D801FE0188E001900D928150E1F7E091ED
:10296000D102F091D202D5A6E091D102F091D2022B
:1029700081E084A74BC164817581868197810E9423
:1029800031046093EB317093EC318093ED3190938F
:10299000EE313CC1F093BE02E093BD0264817581CB
:1029A000868197810E9431047B018C01E091BD02F8
:1029B000F091BE0260857185828593850E94310405
:1029C000E616F7060807190708F420C1E091BD02D2
:1029D000F091BE0280898E3F21F48189803809F40C
:1029E00015C1838187FF5FC0CF01409662810E943D
:1029F000C91FEC019093D0028093CF02E091BD02F9
:102A0000F091BE02009749F56481758186819781B6
:102A1000611571058105910509F445C0EF016096C6
:102A20006F3F2FEF72072FEF82072FEF920741F0D2
:102A300012810E9431049B01AC01CE01612F06C0BE
:102A4000CE01628120E030E040E050E00E941121A0
:102A50009093D0028093CF0226C0648175818681D5
:102A60009781611571058105910549F06F3F3FEF31
:102A700073073FEF83073FEF930741F404C0CE0194
:102A80000E94071C10C081E08A8F0DC00E94310493
:102A9000AB01BC01CE0142960E944A38E091CF02C0
:102AA000F091D002128EE091BD02F091BE028381BE
:102AB00086FFACC084819581A681B7810097A1056E
:102AC000B10509F4A3C08281803409F09FC0AFEB47
:102AD000B2E0709680E101900D928150E1F78FEBAA
:102AE00092E06AEA7BE20E94781D8FEB92E00E94FE
:102AF000AB1FDC019093D6028093D502009709F4B6
:102B00005EC052962C915297213009F058C0E09146
:102B1000BD02F091BE0264817581868197816F3F0D
:102B20003FEF73073FEF83073FEF930709F444C07C
:102B30000E94310461527C4180409040C0F4E09199
:102B4000BD02F091BE0264817581868197810E94E9
:102B500031047B018C018091D5029091D60244967C
:102B60000E94EE376E157F0580079107A0F4009153
:102B7000D5021091D6020C5E1F4FE091BD02F0917C
:102B8000BE0264817581868197810E943104AB0108
:102B9000BC01C80109C08091D5029091D60244962B
:102BA00040E25CE160E070E00E944A38E091D502CA
:102BB000F091D602138A2AC053962C9327C0E09135
:102BC000BD02F091BE0264817581868197810E9469
:102BD00031046F5F7F4F8F4F9F4F39F48FEB92E03F
:102BE00040E050E060E070E00EC0E091BD02F09186
:102BF000BE0264817581868197810E943104AB0198
:102C0000BC018FEB92E021E00E9479208091BA0212
:102C1000E0918902F0E0EE54F44DE80FF11D95A526
:102C2000990F990F990F980F9093BA02909189027A
:102C30008091BA02282F30E0290F311D245D3F4FCB
:102C40008091A22B9091A32B2817390708F438CE36
:102C50008AEB9BE20E94E71F9C019093D402809331
:102C6000D30280918902E82FF0E0E252F44D828194
:102C70009381892B29F1A091D102B091D2021097B2
:102C800019F081E09C968C93C091D302D091D4022C
:102C900082819381209751F40E942D04AC0160E061
:102CA00070E08AEB9BE20E94672110C00E942D0415
:102CB000AC0160E070E0CE0141960E944A3806C047
:102CC0002115310519F0C9010E94021C8091D10221
:102CD0009091D202009749F18E960E949C1B892BFD
:102CE00021F18091D1029091D2028E960E949C1B7C
:102CF0009093A32B8093A22B8091D1029091D2022A
:102D00008E960E94901BBC0122EB3BE24091A22BCD
:102D10005091A32BC9010E947E478091D1029091CE
:102D2000D2028E960E94B71B04C01092A32B109261
:102D3000A22BDF91CF911F910F91FF90EF90DF9029
:102D40000895CF93DF93FC01608382E08183EF01DC
:102D50002296AAEABBE288E00D9009928150E1F741
:102D6000CF010A96FC0186E0DF011D928A95E9F702
:102D7000DF91CF910895CF93DF9382EB9BE220E622
:102D80002093B22B1092B32B1092B52B1092B42B30
:102D90002AE32093B82B2FEF2093B92BFC017896D0
:102DA0002FEF32E03093CB2B2093CA2B1382128269
:102DB0001582148217821682118610861386128657
:102DC0001586148620E032E0378726870896BF01F3
:102DD0000E94791C40918902242F30E0F901E652CB
:102DE000F44D85E8808311821092B62B8091BA2B26
:102DF0009091BB2B892BA1F58091BC2B9091BD2B81
:102E0000892B71F58091BE2B9091BF2B892B41F5B9
:102E10008091C02B9091C12B892B11F58091C22BF1
:102E20009091C32B892BE1F48091C42B9091C52BF9
:102E3000892BB1F48091C62B9091C72B892B81F4FB
:102E40008091C82B9091C92B892B51F488E08093F5
:102E5000B72B205D3F4F3093A32B2093A22B11C0A3
:102E6000842F90E0805C9F4F9093A32B8093A22BA4
:102E700088E18093B72BC9018E51944D61E00E9487
:102E8000A11680918902C82FD0E0C652D44D1B8272
:102E90001A820E947E03809590959B838A83DF919E
:102EA000CF9108950F931F93CF93DF938C01EA0185
:102EB0001092890280E68093B22B1092B32B10926D
:102EC000B52B1092B42B8AE38093B82B9FEF90938D
:102ED000B92BEAECFBE261157105B9F49093CA2BAA
:102EE00082E08183138212821582148217821682F5
:102EF00011861086128681E0838794878D85858769
:102F00008E859F859787868707C0DF01FB0180E15B
:102F100001900D928150E1F787E88093DA2B1092AF
:102F2000DB2B1092DE2B1092DF2B1092E02B1092F5
:102F3000E12BA2EEBBE2FE0180E101900D928150F7
:102F4000E1F71092B62BCE010E94AB1F892B01F541
:102F50000115110549F0AAEBBBE2F80180E10190EF
:102F60000D928150E1F706C08AEB9BE26AEC7BE2AE
:102F70000E94791C88E28093B72B8091890290E0AF
:102F80008E50944D61E00E94A11680E590E025C02E
:102F90001092BB2B1092BA2B1092BD2B1092BC2B0F
:102FA0001092BF2B1092BE2B1092C12B1092C02BEF
:102FB0001092C32B1092C22B1092C52B1092C42BCF
:102FC0001092C72B1092C62B1092C92B1092C82BAF
:102FD00088E18093B72B80E490E09093A32B8093BB
:102FE000A22B80918902C82FD0E0C652D44D1B82FB
:102FF0001A820E947E03809590959B838A83DF913D
:10300000CF911F910F910895DF92EF92FF920F934E
:103010001F93CF93DF9390918902E92FF0E0DF01B6
:10302000A252B44DFC908091B92B8F3F09F03BC167
:10303000E652F44D8181882309F035C114968C91B4
:1030400014978F3F09F42FC120E4D22EDF20F6FE23
:1030500005C08091CA2B8F3F09F425C184E180937C
:10306000BA021092BC021092BB02C091A22BD09166
:10307000A32B40E050E064E1292F30E0245D3F4F76
:103080000FC0FC01EE54F44D9181992309F405C160
:103090008081823009F4AF01990F990F990F690F60
:1030A000C901860F911D8C179D0758F35093BC02E0
:1030B0004093BB026093BA02CD0104960E94AB1FFD
:1030C000FC019093D6028093D502009741F081894C
:1030D000882309F0E8C0CF010E946A1FE4C08091F4
:1030E000890290E08E51944D0E9405208C019093AE
:1030F000D2028093D102009709F4D5C0C091BB02DF
:10310000D091BC02209711F420E00AC0BC016F5E90
:103110007F4FCE01029648E050E00E947147282F71
:1031200090E8E92EEF20F80185A5882369F520971E
:1031300009F4B9C0D8015196FE01329688E0019099
:103140000D928150E1F7C091D102D091D202DD20E1
:10315000C1F081E08DA71BA66091F4317091F5312B
:103160008091F6319091F73128EE33E040E050E065
:103170000E94BF4ACE014996BA01A9010E944A386D
:103180005AC082E08DA757C0F5FC09C0222339F050
:10319000813009F088C082E0F80185A784C02097BB
:1031A00049F0D8015196FE01329688E001900D92C7
:1031B0008150E1F7DD20E1F00091D1021091D202BF
:1031C00081E0F80185A76091F4317091F53180912B
:1031D000F6319091F73128EE33E040E050E00E9464
:1031E000BF4AC8014996BA01A9010E944A380EC0D7
:1031F0008091BB029091BC02892B41F0222331F0D7
:10320000E091D102F091D20282E085A7E091D10253
:10321000F091D20284A5882371F0EE2061F48AEB4C
:103220009BE20E94E71F9093D4028093D302009701
:1032300011F00E94021CE091D102F091D202E4A6AA
:103240008091D1029091D2028E960E949C1B892B74
:1032500051F18091D1029091D2028E960E949C1BD6
:103260009093A32B8093A22B8091D1029091D202B4
:103270008E960E94901BBC0122EB3BE24091A22B58
:103280005091A32BC9010E947E478091D102909159
:10329000D2028E960E94B71B0AC05093BC02409384
:1032A000BB026093BA021092A32B1092A22BDF9163
:1032B000CF911F910F91FF90EF90DF900895DF92D3
:1032C000EF92FF920F931F93CF93DF938091B92BCF
:1032D0008F3F09F015C280918902E82FF0E0EE548B
:1032E000F44D80A98F3F09F40BC281A5882309F012
:1032F00007C21092BC021092BB0284E18093BA0212
:1033000042E0D42E89C0F901EE54F44D8181882326
:1033100009F4F6C18081813009F06EC0F093BC02DF
:10332000E093BB028091BA2B9091BB2B892B59F56E
:103330008091BC2B9091BD2B892B29F58091BE2BC0
:103340009091BF2B892BF9F48091C02B9091C12BC8
:10335000892BC9F48091C22B9091C32B892B99F4AE
:103360008091C42B9091C52B892B69F48091C62B39
:103370009091C72B892B39F48091C82B9091C92B40
:10338000892B09F4BDC18AEB9BE20E940520EC0168
:103390009093D2028093D1026091BB027091BC02E3
:1033A000009749F46E5F7F4F8AEB9BE240E022E09A
:1033B0000E948E2221C032E0E32EF12CE60EF71E91
:1033C0008C010F5E1F4FC701B80148E050E00E941A
:1033D0007147009769F0D801F70188E001900D92DC
:1033E0008150E1F7E091D102F091D202D5A604C05C
:1033F0008DA5882309F4DDA68091BA02E0918902A7
:10340000F0E0EE54F44DE80FF11D95A5990F990FDA
:10341000990F980F9093BA0280918902482F50E03B
:103420008091BA029A01280F311D245D3F4F80918F
:10343000A22B9091A32B2817390708F464CFCA0157
:103440008E51944D0E94AB1FFC019093D602809345
:10345000D502009709F454C18091BA2B9091BB2BEF
:10346000892B09F099C08091BC2B9091BD2B892BA1
:1034700009F092C08091BE2B9091BF2B892B09F04F
:103480008BC08091C02B9091C12B892B09F084C0F7
:103490008091C22B9091C32B892B09F07DC0809124
:1034A000C42B9091C52B892B09F076C08091C62B37
:1034B0009091C72B892B09F06FC08091C82B9091F8
:1034C000C92B892B09F068C08091CA2B8F3F09F066
:1034D00017C18091CB2B823009F012C18091CC2B87
:1034E0009091CD2B892B09F00BC18091CE2B90911F
:1034F000CF2B892B09F004C18091D02B9091D12B37
:10350000892B09F0FDC08091D22B9091D32B892B70
:1035100009F0F6C08091D42B882309F0F1C0809186
:10352000D52B813009F0ECC08091D62B8F3F09F06C
:10353000E7C08189882361F18FEF92E09093CB2BD4
:103540008093CA2B1092CD2B1092CC2B1092CF2BA4
:103550001092CE2B1092D12B1092D02B1092D32BF5
:103560001092D22B1092D52B1092D42B1092D72BD5
:103570001092D62B80E091E09093D92B8093D82B9A
:103580008AEB9BE26AEC7BE20E94791C90E272C0BB
:10359000CF010E946A1FB4C08AEB9BE20E94AB1F5E
:1035A000892B09F0ADC08091CA2B8F3F09F03FC035
:1035B0008091CB2B8230D9F58091CC2B9091CD2B63
:1035C000892BA9F58091CE2B9091CF2B892B79F562
:1035D0008091D02B9091D12B892B49F58091D22BC2
:1035E0009091D32B892B19F58091D42B8823F9F452
:1035F0008091D52B8130D9F48091D62B8F3FB9F4AF
:10360000EAECFBE2DF01509780E10D9001928150DE
:10361000E1F780918902E82FF0E0AAEBBBE2EE51DE
:10362000F44D80E101900D928150E1F722C08AECC7
:103630009BE20E94AB1F2091D5023091D602281741
:10364000390709F05DC0EAECFBE2DF01509780E149
:103650000D9001928150E1F780918902E82FF0E00E
:10366000AAEBBBE2EE51F44D80E101900D92815046
:10367000E1F790E61092890280E68093B22B1092D7
:10368000B32B1092B52B1092B42B1092B62B88E26C
:103690008093B72B8AE38093B82B8FEF8093B92B5D
:1036A00088E88093DA2B1092DB2B9093DE2BE0914D
:1036B000D502F091D602A2EEBBE2319680E10190F4
:1036C0000D928150E1F78091890290E08E50944DE7
:1036D00062E00E94A11680918902C82FD0E0C652F4
:1036E000D44D1B821A820E947E03809590959B8305
:1036F0008A8380E590E09093A32B8093A22B04C053
:103700001092A32B1092A22BDF91CF911F910F91BA
:10371000FF90EF90DF900895FC01118210820895D0
:10372000FC0180819181009719F4E0E0F0E002C093
:10373000FC013296CF010895FC010190F081E02D4B
:10374000309719F4E0E0F0E005C0EE5FFA4F019029
:10375000F081E02DCF010895FC010190F081E02D72
:10376000309721F0EE5FFA4F718360830895CF9315
:10377000DF93EC0188819981009761F08C5F9A4F0B
:103780000E94DE366881798184E591E00E94E6330B
:1037900019821882DF91CF9108950F931F938C01A6
:1037A000FC016081718184E591E00E94E633F801BB
:1037B000118210821F910F9108950F931F93CF9341
:1037C000DF93EC018B0188819981892B19F020E02E
:1037D00030E012C084E591E00E94B8339983888379
:1037E000009741F08C5F9A4FB8014DEC5BE19E0170
:1037F0000E94203728813981C901DF91CF911F9123
:103800000F910895FC01009709F010820895FC01C2
:10381000009709F010820895682F8DEF91E390933F
:10382000190D8093180DFC01462F552747FD509523
:1038300016C08081882391F06F3F29F0818990E044
:103840008417950759F481818E3F41F48281803835
:1038500029F4F093190DE093180D0CC0B1969F0157
:1038600082E3E138F80728F3F093190DE093180D7F
:1038700020E030E0C9010895682F8DEF91E3909327
:10388000190D8093180DFC01462F552747FD5095C3
:1038900016C08081882391F06F3F29F0818990E0E4
:1038A0008417950759F481818E3F19F482818038FD
:1038B00029F0F093190DE093180D0CC0B1969F01FB
:1038C00082E3E138F80728F3F093190DE093180D1F
:1038D00020E030E0C9010895FC01009709F0108252
:1038E0000895FC01009709F010820895FC011082F0
:1038F0000895FF920F931F93CF93DF938C01FB01E9
:1039000080818E3F21F48181803821F444C08F3F33
:1039100009F441C08DEF91E39093190D8093180D38
:10392000FF2440E050E02EC08081882331F181895E
:10393000813019F581818E3F19F482818038E9F058
:10394000EB01DF0180E0388111962C91119732173D
:1039500031F4885F219611968038A9F70AC0232791
:10396000982F985F27FD05C08F5F891711F0220FF0
:10397000F9CF8F1510F0F82EAF01B196F093190D15
:10398000E093180DE091180DF091190D82E3E138E4
:10399000F80750F204C081E00E940C1CAC014115F4
:1039A000510591F4F801118210821382128215825E
:1039B0001482178216821186108613861286158647
:1039C00014861786168608C0D801FA01319680E160
:1039D00001900D928150E1F7DF91CF911F910F91EE
:1039E000FF90089540E020E030E0FC01E20FF31F7B
:1039F0005081FB01E20FF31FE0815E1731F4485F55
:103A00002F5F3F4F403889F70AC0E527842F885F32
:103A1000E7FD05C04F5F481711F0EE0FF9CF842F77
:103A20000895DF92EF92FF920F931F930E945C38EC
:103A3000D82E0E945C38E090F031F090F131009186
:103A4000F2311091F3313D2D20E0280F391F40E075
:103A500050E0CA01B901A80197010E94BF4A9B0129
:103A6000AC0116950795F794E7942E0D3F1D401F66
:103A7000511FB901CA011F910F91FF90EF90DF9084
:103A80000895CF93DF93EC0198A18091FC319817B2
:103A900050F5AE014F5F5F4F80E090E060E070E076
:103AA0000E94521788A18F5F88A36091F8317091AE
:103AB000F9318091FA319091FB3128EE33E040E00A
:103AC00050E00E94BF4ACA01B9012DE730E040E052
:103AD00050E00E948C4A9B01AC01CE014C96B9018A
:103AE0000E94163502C081E0898BDF91CF91089545
:103AF000CF93DF93DC01EC012896FB0188E0019075
:103B000009928150E1F718968C91189792E08927D5
:103B100018968C93DF91CF9108950F931F93CF93B5
:103B2000DF938C0186E497E39093250D8093240D19
:103B300012C08881882351F0CE014396B80140E13C
:103B400050E00E947147009709F41882AE96D09316
:103B5000250DC093240DC091240DD091250D8AE32D
:103B6000CE3DD80730F3DF91CF911F910F9108958B
:103B7000CF92DF92EF92FF920F931F93CF93DF9339
:103B80006C0186E497E39093250D8093240D00E06B
:103B900010E0EE241CC08881882391F0F988FE147F
:103BA00078F0BE016F5F7F4F4F2D46954695469545
:103BB000C60150E00E947147009711F48E0101C0C8
:103BC000FE2CAE96D093250DC093240DEF2CC09102
:103BD000240DD091250D8AE3CE3DD807E0F2C8012F
:103BE000DF91CF911F910F91FF90EF90DF90CF90D9
:103BF00008950F931F93CF93DF938C0186ED92E38B
:103C000090931F0D80931E0D16C08881882371F03C
:103C10004989469546954695CE010196B80150E0F2
:103C20000E947147009711F481E00EC06B96D0930B
:103C30001F0DC0931E0DC0911E0DD0911F0D83E36B
:103C4000C234D80710F380E0DF91CF911F910F911C
:103C500008958F929F92AF92BF92DF92EF92FF9260
:103C60000F931F93CF93DF935A014901D02EF70191
:103C70001182108270E0469F8001479F100D569F71
:103C8000100D1124080F191FD694D694D694EC0168
:103C900016C08881882371F0CE010196B4014D2DA4
:103CA00050E00E947147009741F4F701D183C0832F
:103CB00080E010C0F701D183C083CA0DDB1DC0179F
:103CC000D10738F3F70180819181892B11F482E0CB
:103CD00001C081E0DF91CF911F910F91FF90EF9094
:103CE000DF90BF90AF909F908F9008959F92AF927A
:103CF000BF92CF92DF92EF92FF920F931F93CF93D9
:103D0000DF93182FD92EC62EB42EA52E922E86E420
:103D100097E364E14EE250E0212F3D2D0C2D74E23B
:103D2000E72E7DE0F72E0E94291E8130E1F4C0913C
:103D3000240DD091250DFE018193812F9D2D9C0195
:103D4000D90180E10D9001928150E1F7C98ADE012D
:103D500053968B2D9A2D9C01F90180E101900D92D3
:103D60008150E1F79A8A8091240D9091250DDF9181
:103D7000CF911F910F91FF90EF90DF90CF90BF9068
:103D8000AF909F900895EF92FF920F939C0181E86E
:103D900092E360E041E150E000E8ECE1EE2EEDE07E
:103DA000FE2E0E94291E882319F020E030E004C076
:103DB00020911C0D30911D0DC9010F91FF90EF90C6
:103DC0000895DF92EF92FF920F931F93182FD92E31
:103DD00081E892E360E041E150E0212F3D2D00E8D1
:103DE000FCE1EF2EFDE0FF2E0E94291E813019F02C
:103DF00040E050E00FC040911C0D50911D0DFA01A4
:103E00008193812F9D2D9C01D90180E10D9001921C
:103E10008150E1F7CA011F910F91FF90EF90DF9061
:103E20000895EF92FF920F939C0181E892E365E081
:103E300041E150E000E8AAE1EA2EADE0FA2E0E944E
:103E4000291E882319F020E030E004C020911A0DCB
:103E500030911B0DC9010F91FF90EF900895CF9302
:103E6000DF93EC01009799F19FEF9093060D82E0AC
:103E70008093070D1092090D1092080D10920B0DF2
:103E800010920A0D10920D0D10920C0D10920F0D44
:103E900010920E0D1092100D81E08093110D9093F1
:103EA000120D8E858093130D8F8598899093150D33
:103EB0008093140D86E09DE00E94111FFC019093F9
:103EC0001B0D80931A0D009709F010821882DF9164
:103ED000CF910895FC0181818E3F31F48281803839
:103EE00019F420E030E005C0CF010E942F1F21E02F
:103EF00030E0C9010895DF92EF92FF920F931F9374
:103F0000182FD92E81E892E365E041E150E0212F9E
:103F10003D2D00E8BAE1EB2EBDE0FB2E0E94291EEC
:103F2000813019F040E050E00FC040911A0D5091DF
:103F30001B0DFA018193812F9D2D9C01D90180E1F8
:103F40000D9001928150E1F7CA011F910F91FF90EE
:103F5000EF90DF900895EF92FF920F939C018DEF09
:103F600091E364E041E250E000E878E1E72E7DE093
:103F7000F72E0E94291E882319F020E030E004C0AB
:103F80002091180D3091190DC9010F91FF90EF90FC
:103F90000895EF92FF920F939C01062F86ED92E316
:103FA00064E04BE150E0EEE1EE2EEDE0FE2E0E94EB
:103FB000291E882319F020E030E004C020911E0D56
:103FC00030911F0DC9010F91FF90EF900895EF926E
:103FD000FF920F939C018AE493E362E04AE150E090
:103FE00000E8F2E2EF2EFDE0FF2E0E94291E88235A
:103FF00019F020E030E004C02091220D3091230D13
:10400000C9010F91FF90EF900895EF92FF920F93E7
:104010009C018EE793E364E140E350E000E8A0E216
:10402000EA2EADE0FA2E0E94291E882319F020E026
:1040300030E004C02091200D3091210DC9010F9175
:10404000FF90EF9008951092170D1092160D8AE4CC
:1040500093E322C080818823D1F0CF0101960E9492
:104060000520FC01009751F085A5882339F02091A7
:10407000220D3091230D2F5F3F4F1EC08091220DE6
:104080009091230D01969093170D8093160D8091BA
:10409000220D9091230D4A969093230D8093220D2B
:1040A000E091220DF091230D83E3EE37F80790F2B3
:1040B0002091160D3091170DC90108950E942320FB
:1040C000892B91F48091050D833070F40E94BB160A
:1040D0008091050D8F5F8093050D8EE397E364EF6C
:1040E00071E00E94800208958EE397E30E947E01B2
:1040F00008958F929F92AF92BF92CF92DF92EF92EC
:10410000FF920F931F93CF93DF934C015A016B01E2
:10411000122F8DEF91E364E041E250E0940100E85A
:10412000B8E1EB2EBDE0FB2E0E94291E813019F074
:1041300020E030E068C0A091180DB091190DFD018C
:104140008193E40180E1099001928150E1F7519659
:104150001C92519752961C935297A114B104C1041A
:10416000D10421F481E053968C9309C053961C929C
:104170005397CD014496B601A5010E944A3800919B
:10418000180D1091190D045E1F4F0E945C386DE7E9
:1041900070E00E94AB4ABC01C8010E941635E09154
:1041A000180DF091190D10A29FEF9093060D82E06B
:1041B0008093070D1092090D1092080D10920B0DAF
:1041C00010920A0D10920D0D10920C0D10920F0D01
:1041D00010920E0D1092100D81E08093110D9093AE
:1041E000120DF40185858093130D86859785909334
:1041F000150D8093140D86E09DE00E947B1F209199
:10420000180D3091190DC901DF91CF911F910F91B8
:10421000FF90EF90DF90CF90BF90AF909F908F90E6
:1042200008958F929F92AF92BF92CF92DF92EF92BA
:10423000FF920F931F93CF93DF93182F992E862E03
:1042400059016A0186ED92E364E04BE150E0212FD1
:10425000392D082D7EE1E72E7DE0F72E0E94291EE4
:10426000813031F5A0911E0DB0911F0DFD0181939C
:10427000812F992D9C01E90180E1099001928150E3
:10428000E1F751968C925197A114B104C104D10465
:1042900061F0CD014296B601A5010E944A38E09135
:1042A0001E0DF0911F0D128E03C081E05A968C9363
:1042B00080E090E0DF91CF911F910F91FF90EF9000
:1042C000DF90CF90BF90AF909F908F9008959F9276
:1042D000AF92BF92CF92DF92EF92FF920F931F9314
:1042E000CF93DF93182F992E5A016B018AE493E341
:1042F00062E04AE150E0212F392D00E8E2E2EE2EA3
:10430000EDE0FE2E0E94291E813019F020E030E001
:1043100026C0C091220DD091230DFE018193812FE3
:10432000992D9C01D90180E10D9001928150E1F716
:10433000A114B104C104D10461F0CE014196B601CB
:10434000A5010E944A38E091220DF091230D118EB3
:1043500002C081E0898F2091220D3091230DC90187
:10436000DF91CF911F910F91FF90EF90DF90CF9051
:10437000BF90AF909F900895FC01009721F01082AC
:104380008E960E94B71B089580EC93E0EEE7F3E36E
:10439000DF019C011D9221503040E1F784E3EAE403
:1043A000F3E3DF011D928A95E9F78CE6E6EDF2E38F
:1043B000DF011D928A95E9F78BEEEBEEF1E3DF0169
:1043C0001D928A95E9F788E993E0E6E4F7E3DF01D7
:1043D0009C011D9221503040E1F780E095E0A0E083
:1043E000B0E08093EB319093EC31A093ED31B0933A
:1043F000EE3180E48093EF3180E395E7A0E0B0E018
:104400008093F0319093F131A093F231B093F33176
:104410000E94111D6093F4317093F5318093F63151
:104420009093F73188EE93E0A0E0B0E08093F8310C
:104430009093F931A093FA31B093FB3181E08093EE
:10444000FC318EEF90E89093070D8093060D10924B
:10445000090D1092080D10920B0D10920A0D10927A
:104460000D0D10920C0D86E09DE060E420E030E040
:1044700040E050E00E941121AEE0BDE0EAEAFBE23C
:1044800088E001900D928150E1F780910E0D92E04D
:10449000892780930E0D86E09DE040E050E060E0CB
:1044A00070E021E00E9479208FEF92E09093070D59
:1044B0008093060D1092090D1092080D10920B0DAD
:1044C00010920A0D10920D0D10920C0D10920F0DFE
:1044D00010920E0D1092110D1092100D1092130DDE
:1044E0001092120D80E091E09093150D8093140DC1
:1044F00086E09DE00E947B1F0E945C386DE770E0C3
:104500000E94AB4ABC018EE397E30E94800282E4E2
:1045100093E36CE070E00E9480020895BF92CF9216
:10452000DF92EF92FF920F931F93CF93DF93182F99
:10453000D92EEB01C42EB22E8EE793E364E140E363
:1045400050E0212F3D2D00E8F0E2EF2EFDE0FF2EA0
:104550000E94291E90E08130910509F054C04091DD
:10456000200D5091210DDA0181E08D93212F3D2DF9
:10457000C901FC0180E101900D928150E1F7CA016F
:104580004196209741F0FC01DE0188E00D900192F8
:104590008150E1F706C0FC0188E0DF011D928A9599
:1045A000E9F7E091200DF091210DC4A6B5A6CF0149
:1045B0008E960E948C1B8091200D9091210D499622
:1045C00040E050E060E070E00E944A388091200DA9
:1045D0009091210D819640E050E060E070E00E94F3
:1045E0004A380091200D1091210DF80113A60E9468
:1045F000BA27D8019A969C938E9399972091200D73
:104600003091210D24C0029701F50E94BA27AC0118
:10461000EEE7F3E360E070E00DC08081882339F0BD
:1046200021A532A52417350710F4BF0101C09A0156
:10463000F096A901B7E3EE33FB0779F76115710531
:1046400021F0CB010E94BC2177CF20E030E0C901EE
:10465000DF91CF911F910F91FF90EF90DF90CF905E
:10466000BF900895DF92EF92FF920F931F938DEF0B
:1046700091E330C08081882341F18389882369F4E4
:10468000CF0144960E941438892B39F08091180D7F
:104690009091190D0E942F1F18C0E091180DF091F4
:1046A000190D8189882389F490A18091FC318917A3
:1046B00060F0CF014C960E94F334892B31F0809149
:1046C000180D9091190D0E94411D8091180D909127
:1046D000190D81969093190D8093180DE091180D86
:1046E000F091190D82E3E138F80720F28AE493E3B0
:1046F00018C08081882381F0818D882369F4CF01DF
:1047000041960E941438892B39F0E091220DF091E6
:10471000230D309709F010828091220D9091230D86
:104720004A969093230D8093220DE091220DF091F3
:10473000230D83E3EE37F807E0F286ED92E318C02D
:104740008081882381F0828D882369F4CF0142968D
:104750000E941438892B39F0E0911E0DF0911F0D45
:10476000309709F0108280911E0D90911F0D4B968D
:1047700090931F0D80931E0DE0911E0DF0911F0D63
:1047800083E3E234F807E0F28EE793E39093210DA0
:104790008093200DB2E0EB2EA4E0DA2EFF24F394F8
:1047A0008EC08081882309F481C085A5813009F1FC
:1047B000813030F0833051F1843009F077C034C05B
:1047C00083A5833010F0CF0142C0CF0181960E94B3
:1047D0001438892B09F46AC0E091200DF091210D65
:1047E00083A58F5F83A7319680E090E060E070E062
:1047F00042C0CF0149960E941438892B09F456C053
:10480000E091200DF091210DE5A650C0CF01499611
:104810000E941438892B09F449C0E091200DF091D1
:10482000210DD5A6F3A623C083A5833098F0CF0130
:1048300001960E94E71FFC019093230D8093220DA7
:10484000009709F010828091200D9091210D0E9417
:10485000BC212CC0CF0181960E941438892B31F1E4
:10486000E091200DF091210D83A58F5F83A73196F4
:1048700080E090E0BF01AF010E9452170091200D2F
:104880001091210D6091F8317091F9318091FA31D8
:104890009091FB3128EE33E040E050E00E94BF4AA7
:1048A000C8018196BA01A9010E944A388091200D61
:1048B0009091210DC0969093210D8093200DE09151
:1048C000200DF091210D87E3EE33F80708F469CF4E
:1048D00082E493E30E9475021F910F91FF90EF9085
:1048E000DF9008951F920F920FB60F9211240F9030
:1048F0000FBE0F901F901895EF92FF920F931F938A
:10490000CF93DF93182FE62EF42E052F80E061E081
:104910000E943C2980E06E2D0E943C2980E0612F9E
:104920000E943C292F2D302FC901EC0104C0699150
:1049300080E00E943C299E012F192E15C0F380E0D3
:1049400064E00E943C29DF91CF911F910F91FF906D
:10495000EF900895AC01DC010D900020E9F76A2F7B
:10496000681B653108F064E182EC0E947C240895A4
:10497000382F882329F08091EE3A8F5F8093EE3AAA
:1049800020913B0D213041F0213018F0223051F4BC
:1049900006C0313039F523C030933C0D20C0309330
:1049A0003D0D1DC02731A8F4E22FF0E080913C0DB1
:1049B00090E002968E179F077CF4343051F481E02A
:1049C00080933E0D88E791E061E040E050E00E9476
:1049D000263310923B0D06C0EC5DF24F30832F5F03
:1049E00020933B0D80E090E008950F931F93082FD4
:1049F0002FB783B7817F866083BF002311F413E054
:104A000001C0102FF8948091B60080628093B600A8
:104A100082E08093B00087E08093B100812F90E026
:104A200035E0880F991F3A95E1F78093B3002FBFC7
:104A30001092B2000E94F1298091B60084FDFCCF53
:104A40008091700082608093700083B7816083BF23
:104A50001092EE3A83B7816083BF889583B78E7FCB
:104A600083BF812F0E946A27002321F48091EE3AB0
:104A7000882371F383B78E7F83BF809170008D7F11
:104A8000809370000E94DA291F910F910895CF93AF
:104A9000DF9380E68093B22B81E08093B32B10925A
:104AA000B52B1092B42B8AE38093B82B8091EF3111
:104AB0008093B92B0E942320AAECBBE2FC0180E189
:104AC00001900D928150E1F78AEB9BE26AEC7BE268
:104AD0000E94791C8091890290E0FC01E652F44D1D
:104AE00020E820831182FC01E252F44D10821182F1
:104AF000128213828E51944DFC0180E1DF011D92E0
:104B00008A95E9F780E490E09093A32B8093A22B01
:104B10001092B62B88E18093B72B80918902C82F21
:104B2000D0E0C652D44D1B821A820E947E0380952B
:104B300090959B838A830E94AD0EDF91CF9108955B
:104B4000CF93DF93EC01FA0188819981009729F0D6
:104B5000805E914009F055C00DC080E090E00E9459
:104B6000FC0D882309F04DC080EE91E09983888385
:104B700081E04AC08091EA31681791F44081403861
:104B800019F0413889F705C081EC60E040E050E061
:104B900004C080EC61E046E25DE00E947C24E4CF4A
:104BA000613011F780913E0D8823F1F280913D0D27
:104BB000833859F08438E1F0813801F58091270D70
:104BC0008093260D0E94472519C08091270D8823C8
:104BD000F1F4E091DF01F091E00109958091270D5A
:104BE0000E94F524E091DD01F091DE01099506C0F7
:104BF00083EC60E040E050E00E947C2410923E0D87
:104C0000B3CF1982188283E0DF91CF91089580910C
:104C1000E03090E08F709070892B81F7DACF9C01A3
:104C2000F999FECF32BD21BDF89A80B5089500D024
:104C300000D000D0EDB7FEB731962CE830E0ADB72C
:104C4000BEB712963C932E931197938382837583FC
:104C500064830E94BC478DB79EB706960FB6F89442
:104C60009EBF0FBE8DBF0895EF92FF920F931F93CB
:104C7000DF93CF93CDB7DEB728970FB6F894DEBF9A
:104C80000FBECDBF0E94CA290E94DA290E945F345C
:104C900080E06CE046E00E94C62880E068EB74E2A9
:104CA0000E94522981E068E046E00E94C62881E027
:104CB0000E94A6290E94AA2700D000D081EC90E093
:104CC000ADB7BEB712969C938E93119782E891E090
:104CD00014969C938E9313970E94BC470F900F904D
:104CE0000F900F900E94C4370E946D3283E391E0D1
:104CF00060E070E00E9459330E947D37E091CD0161
:104D0000F091CE0109958E010F5F1F4F88E0F801E9
:104D100011928A95E9F7C80160E070E048E050E040
:104D20002FE036E20E94A047AAEABBE2F80188E041
:104D300001900D928150E1F78DEC9BEA60E070E00C
:104D4000AE014F5F5F4F0E94FC2DF999FECF88E0C6
:104D500090E092BD81BDF89A80B58093EF3AF999C1
:104D6000FECF89E090E092BD81BDF89A80B5209198
:104D7000EF3A30E090E0809590952817390711F0D0
:104D80008AE102C08091EF3A0E94152CCE01019673
:104D90000E9476300E941F3BE0910C02F0910D02C0
:104DA0000995E091F301F091F4010995E0915E021B
:104DB000F0915F0209950091F1011091F201E090EC
:104DC0000A02F0900B020E94862A2DB73EB72850A7
:104DD00030400FB6F8943EBF0FBE2DBFEDB7FEB703
:104DE00031962FEA30E0ADB7BEB712963C932E93C2
:104DF000119713830283F582E482868317820E94CF
:104E0000BC47E0911602F09117022DB73EB7285F1C
:104E10003F4F0FB6F8943EBF0FBE2DBF3097F1F055
:104E20000995BC018DE790E00E94AB4A8FEF6F3F80
:104E30007807A1F000D000D08CE990E0ADB7BEB704
:104E400012969C938E93119714967C936E9313975E
:104E50000E94BC470F900F900F900F9000D08AE9EE
:104E600090E0EDB7FEB7928381830E94BC470F901C
:104E70000F908AE491E060E070E00E94593388E787
:104E800091E060E070E00E94593383E291E00E947B
:104E9000A93300D082E990E0ADB7BEB712969C93DB
:104EA0008E9311970E94BC470F900F9028960FB6D3
:104EB000F894DEBF0FBECDBFCF91DF911F910F9150
:104EC000FF90EF9008950E9434260E947D320E9448
:104ED000EF29FBCF2091F43A3091F53A4091F63A20
:104EE0005091F73A90E0A0E0B0E0280F391F4A1F38
:104EF0005B1F2093F43A3093F53A4093F63A50937F
:104F0000F73A2091F03A3091F13A4091F23A5091CB
:104F1000F33A280F391F4A1F5B1F2093F03A309352
:104F2000F13A4093F23A5093F33A08958091F43A6B
:104F30009091F53AA091F63AB091F73A0196A11DF9
:104F4000B11D8093F43A9093F53AA093F63AB0935A
:104F5000F73A0895F8941092B60016BC8DE387BD19
:104F600092E094BD85E085BD85B385BB90936E00CE
:104F70007894089520913F0D3091400D80913F0D20
:104F80009091400D28173907A9F7C901089507C066
:104F900022E330E0000021503040E1F70197009714
:104FA000B9F70895BC0140913F0D5091400D80919B
:104FB0003F0D9091400D48175907A9F720913F0DDB
:104FC0003091400D80913F0D9091400D2817390789
:104FD000A9F7241B350B2617370780F3089508958A
:104FE0002091F43A3091F53A4091F63A5091F73ADF
:104FF0008091F43A9091F53AA091F63AB091F73A4F
:10500000281739074A075B0759F7B901CA010895FC
:105010001F920F920FB60F920BB60F9211242F937F
:105020003F934F935F936F937F938F939F93AF9330
:10503000BF93EF93FF9380913F0D9091400D0196A8
:105040009093400D80933F0D8091410D8F5F809331
:10505000410D8091410D8D3721F41092410D0E9438
:1050600096270E943101892B11F00E94B001FF9117
:10507000EF91BF91AF919F918F917F916F915F91D0
:105080004F913F912F910F900BBE0F900FBE0F903D
:105090001F9018951F920F920FB60F921124109225
:1050A000A6010F900FBE0F901F9018951F920F92A0
:1050B0000FB60F920BB60F9211242F933F934F937D
:1050C0005F936F937F938F939F93AF93BF93EF9370
:1050D000FF93E0919C01F0919D018081E091A701F7
:1050E000F091A801309709F00995FF91EF91BF91D8
:1050F000AF919F918F917F916F915F914F913F9170
:105100002F910F900BBE0F900FBE0F901F90189510
:105110001F920F920FB60F9211241092B3010F90AD
:105120000FBE0F901F9018951F920F920FB60F92FF
:105130000BB60F9211242F933F934F935F936F936E
:105140007F938F939F93AF93BF93EF93FF93E091E0
:10515000A901F091AA018081E091B401F091B5011B
:10516000309709F00995FF91EF91BF91AF919F9111
:105170008F917F916F915F914F913F912F910F9000
:105180000BBE0F900FBE0F901F90189590E02DE072
:1051900030E0829FF001839FF00D929FF00D11246B
:1051A000E456FE4FA281B3811C92A481B5816C9319
:1051B000A681B78188ED8C93A085B1854C9312862A
:1051C000148613860895CF93DF93AB0190E02DE012
:1051D00030E0829FD001839FB00D929FB00D1124CB
:1051E000A456BE4FED012A9691E00AC09883ED9136
:1051F000FC911197808388818823E9F74F5F5F4F87
:10520000FA018491882391F7DF91CF910895CF938C
:10521000DF93262F372FA90190E02DE030E0829F09
:10522000D001839FB00D929FB00D1124A456BE4FA4
:10523000ED012A9691E02DE018C08A3041F4988360
:10524000ED91FC911197208388818823E9F7FA0179
:1052500080818D3041F09883ED91FC91119780838E
:1052600088818823E9F74F5F5F4FFA0180818823A7
:1052700021F7DF91CF91089590E02DE030E0829FFB
:10528000F001839FF00D929FF00D1124E456FE4F24
:1052900081E08287A081B1816C933A9680818823D6
:1052A000E9F7089590E02DE030E0829FF001839FC0
:1052B000F00D929FF00D1124E456FE4F7487638722
:1052C000089591E09093A601E0919C01F0919D01D9
:1052D00080838091A6018823E1F70895482F8A30C2
:1052E000C9F48091420D90E02DE030E0829FF00102
:1052F000839FF00D929FF00D1124E456FE4F81E044
:105300008287A081B1818DE08C933A968081882339
:10531000E9F702C08D30B9F08091420D90E02DE0A8
:1053200030E0829FF001839FF00D929FF00D1124D9
:10533000E456FE4F81E08287A081B1814C933A967A
:1053400080818823E9F780E090E008958093420D02
:105350008EE891E09093393C8093383C08950F9308
:105360001F93DF93CF93CDB7DEB7FE013A9603E4E8
:105370001DE0C80160E470E0488559859F010E94E6
:10538000E2478F81B8010E940729CF91DF911F91D9
:105390000F91089584B7877F84BF1092840D109277
:1053A000830D88E10FB6F89480936000109260003E
:1053B0000FBE08958091830D9091840D0197909375
:1053C000840D8093830D2FE088E190E00FB6F89470
:1053D000A895809360000FBE209360000895A89563
:1053E000089588E10FB6F8948093600010926000F1
:1053F0000FBE0895F89428E088E190E00FB6F89485
:10540000A895809360000FBE20936000FFCF80932B
:10541000850D0895DF93CF9300D00F92CDB7DEB7FF
:10542000309166001092700010926F008091B6006B
:1054300080628093B60081E08093B1008FE890E0B5
:105440000197F1F78FB78983F89420E861E050E87D
:105450004FEF609381008091B6008B71E1F750931C
:10546000B200109285001092840047BBB89BFECF1B
:1054700080918400909185009B838A8310928100A3
:105480008A819B81875F934760F4809166008E37A5
:1054900019F1809166008F3FF9F0809166008F5F6F
:1054A00012C08A819B818D52904810F491E00EC009
:1054B00080916600813881F080916600882361F0D8
:1054C0008091660081508093660090E0215029F021
:1054D000992309F4BECF01C090E0809166008093CB
:1054E000893B992311F43093660030936600109243
:1054F000B1008091B6008F7D8093B60089818FBF07
:105500000F900F900F90CF91DF9108958091870DAC
:1055100008958091860D8091860D90E0089581E038
:105520006FE140E00E94082F813021F020E030E060
:10553000813111F421E030E0C901089581E06FE18B
:1055400040E00E94082F823021F0823111F081E08A
:10555000089580E0089581E06FE140E00E94082F07
:10556000982F81518230B8F39F31A9F3913099F38C
:10557000923089F308951B9B02C080E1089585E075
:105580006FE040E00E94082F08950F931F93182F9B
:10559000883059F0863049F0893039F0863129F069
:1055A000893119F022E430E050C01B9B03C024E491
:1055B00030E04BC00E94AB2A81E06FE140E00E94E6
:1055C000082F082F181709F43EC0183061F42B98E3
:1055D0008DE090E00197F1F782E06FE140E023E099
:1055E0000E941B2F22C0193139F4863199F482E0D0
:1055F0006FE140E029E008C0163161F4893151F4CF
:1056000082E06FE140E026E00E941B2F83E090E003
:105610000197F1F782E06FE140E0212F0E941B2FFC
:10562000083019F489E691E002C083E090E0019728
:10563000F1F781E06FE140E00E94082F811719F037
:1056400023E430E002C020E430E0C9011F910F9153
:1056500008958091873B882339F02B988FEA92E058
:105660000197F1F71092873B0E94AB2A86E10E94D6
:10567000C52A81E08093883B08958091883B8823E8
:1056800051F48091880D882321F081E08093890D69
:1056900002C00E94292B81E090E008951092883B7F
:1056A0000E94AB2A2B988DE090E00197F1F782E001
:1056B0006FE140E023E00E941B2F83E090E0019720
:1056C000F1F72B9A81E08093873B08958091890DB3
:1056D000882321F00E94292B1092890D80918A0D38
:1056E000882321F00E944E2B10928A0D1092880D73
:1056F0000895CF93DF93FC01AB0181E08093880D87
:105700008091D23B9091D33BA091D43BB091D53BBB
:105710000196A11DB11D8093D23B9093D33BA093E2
:10572000D43BB093D53B862F8E5F87FF03C0CFEF6E
:10573000DFEF08C02BE83DE0C901BF010E947E47B2
:10574000C0E0D0E00E94662BCE01DF91CF9108959A
:105750008091883B8823A9F08091880D8823A1F44B
:1057600081E06FE140E00E94082F982F8151823044
:1057700058F09F3149F0913039F0923029F00E9471
:105780004E2B81E090E0089581E080938A0DF9CF5F
:105790008091880D882341F48091883B882321F4EF
:1057A0000E943D2B0E94A82B81E090E008950F936A
:1057B0001F938091883B882311F000E003C00E9472
:1057C0003D2B01E081E06FE140E00E94082F86312F
:1057D00011F0813129F487E00E94D22E182F09C0E0
:1057E00086E06FE140E00E94082F93E0899F102D32
:1057F0001124002311F00E94A82B812F1F910F91DB
:105800000895282F1B9908C0803108F02FE085E00B
:105810006FE040E00E941B2F089591E09093880D67
:105820000E94012C0E94662B08951F93182F0E943E
:10583000AB2A1093870D88E06FE140E0212F0E9492
:105840001B2F1F9108950E94152C86E00E94C52AE7
:105850000895FF920F931F93CF93DF93182F01E0CA
:105860000093880DF090883B8091873B882321F03E
:105870002B981092873B18C08091FC3A8823A1F0A6
:105880008AE160E847E021E00E941B2F8BE160E89D
:1058900047E021E00E941B2F1092FC3A0093FD3A52
:1058A00081EA90E00197F1F70E94AB2A89E10E941A
:1058B000C52A86E00E94FE38892B19F4C0E0D0E0AA
:1058C00009C00E94BB2AC82F86E00E94FE38815082
:1058D0000E94012C2B9A2B981E5F8BE89DE0612F74
:1058E0000E94862F0E94AB2A82E060EE45E00E9473
:1058F000082F182F86E00E94FE38892B19F08C2F74
:105900000E94012CFF2011F00E94292B8091883BDE
:10591000882331F482E06FE140E023E00E941B2FF6
:105920000E94662B113011F410E015C0133099F469
:105930008091CA3B9091CB3BA091CC3BB091CD3BA9
:105940000196A11DB11D8093CA3B9093CB3BA093C0
:10595000CC3BB093CD3B812F90E0DF91CF911F9155
:105960000F91FF900895CF93DF93EB010E94792B65
:105970009C01009721F4CE010E94292C9C01C901B1
:10598000DF91CF91089583EC91E00E94863381E00E
:105990008093860D81E090E00895CF93DF93582F98
:1059A000A92F2091033B822F90E0FC01F695FE2F5A
:1059B000EE27F795E795880F991FE80FF91FEC5F21
:1059C000F44C4081442321F147FF25C0822F90E011
:1059D000FC01F695FE2FEE27F795E795880F991FA6
:1059E000E80FF91FEC5FF44C10828091C23B90915C
:1059F000C33BA091C43BB091C53B0196A11DB11D15
:105A00008093C23B9093C33BA093C43BB093C53BF0
:105A1000C0E0D0E0BEC0433018F5822F90E0FC011A
:105A2000F695FE2FEE27F795E795880F991FE80F5B
:105A3000F91FEC5FF44C10828091BE3B9091BF3B0C
:105A4000A091C03BB091C13B0196A11DB11D8093B7
:105A5000BE3B9093BF3BA093C03BB093C13BD8CF1C
:105A6000C42FD0E022976C177D0718F5822F90E0A5
:105A7000FC01F695FE2FEE27F795E795880F991F05
:105A8000E80FF91FEC5FF44C10828091BA3B9091C3
:105A9000BB3BA091BC3BB091BD3B0196A11DB11D8C
:105AA0008093BA3B9093BB3BA093BC3BB093BD3B70
:105AB000AFCF822F90E09C013695322F2227379569
:105AC0002795880F991F280F391F2B5F344C852F7E
:105AD0009A2FB90150E00E947E472091033B822F0C
